:020000040000FA
:0600000002011D0223BBFA
:03002B00021C783C
:03003300021C4D5F
:0300530002242E56
:03006B00021C2252
:10008300022227E5C754F84401F5C779012200008D
:100093000080FB120086B90003020107E47921788E
:1000A30008B800028004F709D8FCE479297802B87B
:1000B30000028004F709D8FCE4900281784A7909A8
:1000C3008002F0A3D8FCD9FA781A90014D7A01BACC
:1000D30000028007E493A3F608DAF9900ACAAA8219
:1000E300AB8390014E787979038015E493A3AC82B6
:1000F300AD838A828B83F0A3AA82AB838C828D83A8
:10010300D8E9D9E7758282758383740412012F7548
:100113008291758300740012012F75D00075813FA1
:10012300751881751902759F00020096C09FF59F8F
:10013300E473D09F22D083D082C09FE493C0E07445
:100143000193C0E0740293F59F2201FFFF1209425D
:100153006C6F6F6450726573737572652053656E4F
:10016300736F720512C8004006020A0002010503FC
:10017300021018426C6F6F64507265737375726509
:100183002053656E736F720F0F0F0F0F0E780050B1
:10019300005A003C00014C05000020100202568466
:1001A3000100003C84024E84010000190B02788494
:1001B300000000E703027E84030000E103024E8493
:1001C3000100001A0B028284000000E803027E840F
:1001D300030000E903024E840100001B0B0280842C
:1001E300010000EF03020202020202020202010DF9
:1001F30000000010010256840100004284024E8474
:10020300010000640B027684010000F103024E84B6
:10021300010000650B0272840100004383024E84D7
:10022300010000660B0270840100003583024E84D6
:10023300010000670B026E840100008182024E847C
:10024300010000680B0268840100006F82024E8483
:10025300010000690B0266840100009382024E8450
:100263000100006A0B026484010000A582024E842F
:100273000100006B0B0262840100002783024E849D
:100283000100006C0B0260840100006D0B01E803A8
:10029300053F100AFF00013075030201060000004C
:1002A300000000000000000000000000000000004B
:1002B300000000000000000000FFFF0600800CE8C3
:1002C30003FF0000B4000028002800283075A000B8
:1002D300A000A000A00000080008E001F00010004A
:1002E30010001000100010001000500050005000CB
:1002F30010001000D0070000000000000F000100F4
:100303000500307507001000010081FF00000000A8
:10031300FF520B700B580BFF02020208025000A0A1
:10032300000000E8030256840100003F84024E846B
:10033300010000970C027484010000FB05024E8447
:10034300010000980C025E840100001106024E8435
:10035300010000990C027A840100001306024E8406
:100363000100009A0C0248840800001406024E841F
:100373000100009B0C024A840100009C0CFFFF015A
:1003830000FF200256840100004584024E840100D0
:1003930000010D024C840000000000027E84030073
:1003A30000A306A611A611A611A611A611A611A6B1
:1003B30011A611A611A611A611A611A6113A14523F
:1003C30014341412013826F0021201383BF00212E1
:1003D300013893F002120138FAF00212013842F1A7
:1003E30002120138B8F102120138E7F102120138A2
:1003F3004DF5021201385BF502120138BFF5021206
:100403000138FDF50212013818F602120138B0F670
:100413000212013859F702120138DCF702120138CF
:1004230015F802120138A0F802120138F7F8021287
:10043300013856F90212013868F9021201388EF9AF
:100443000212013897F902120138F6FA0212013842
:100453005C8204120138ADA7031201388CA8031281
:100463000138E8A80312013802A90312013813A9BD
:10047300031201380EAC031201382EAC03120138FB
:10048300DCEB0312013821EC0312013867EC031291
:100493000138FAED0312013875FE0312013890FE9C
:1004A30003120138A0FE03120138F7FE03120138CC
:1004B3006FA1031201388FA10312013893A2031213
:1004C3000138DFA203120138FFA20312013852A33D
:1004D30003120138BFA30312013805A40312013824
:1004E30069A4031201381BA7031201389CA7031246
:1004F30001383EEE031201386EEE031201389EEE10
:100503000312013861EF0312013881EF031201383E
:10051300DBEF03120138D2AB02120138D3AD021262
:10052300013841AF0212013879AF021201381EB00F
:10053300021201385CB202120138DDB20212013834
:1005430041B302120138DEB3021201385DB4021264
:10055300013859B50212013877B50212013822B6B3
:100563000212013853B6021201386FB70212013872
:1005730031B8021201380AB9021201386CD60312DB
:100583000138CAD603120138DDD603120138E6D684
:100593000312013845D70312013896D703120138E5
:1005A30052D803120138D6D903120138D2BC031230
:1005B3000138F7BC0312013863FF03120138F42A30
:1005C30000120138022E00120138C22F0012013826
:1005D3006D3000120138113100120138AA310012B6
:1005E3000138D931001201384532001201381F3762
:1005F30000120138CA37001201383A3900120138A3
:10060300A23900120138563A00120138183D00127F
:100613000138573D00120138CB3D001201382A3E04
:1006230000120138893E00120138F83E00120138E9
:10063300EB3F0012013831400012013876400012BE
:100643000138994000120138144200120138274240
:10065300001201383043001201386F430012013891
:100663009B4300120138EE43001201380F4400127D
:100673000138534400120138A54600120138E646FA
:1006830000120138914700120138FC47001201386B
:1006930039490012013886FD0312013897FD031210
:1006A300013833E903120138CEEB03120138848495
:1006B300041201384BFC031201385BFC03120138AE
:1006C30078FC0312013880FD03120138B0E00312F5
:1006D300013856E10312013872E30312013844F280
:1006E3000312013874F203120138E4F203120138E1
:1006F30008F30312013864F303120138DFF3031222
:1007030001381CF4031201381FF403120138117A63
:10071300001201385A7A00120138177B001201388F
:100723002F7B00120138777C00120138367D0012CE
:100733000138417D00120138617D00120138117EBC
:10074300001201383B7E00120138657E0012013829
:10075300BB7E00120138E97E001201383E7F001291
:10076300013806B30312013828B303120138BDB3AD
:1007730003120138ADB4031201380AB7031201386A
:100783006AB703120138D3B703120138F87F001296
:10079300013869E6031201387DE803120138E9E8FC
:1007A3000312013830E90312013845F0031201380E
:1007B300AEF0031201386CF103120138EBF10312AE
:1007C3000138BCCE03120138EECE03120138F6CF46
:1007D300031201381BD103120138D7D10312013898
:1007E300008003120138E6800312013833810312BB
:1007F3000138768103120138EB81031201384C82F0
:1008030003120138C182031201389D830312013898
:10081300A88403120138298503120138D0860312F4
:100823000138668703120138D987031201385588C6
:10083300031201386C8803120138A38903120138AB
:10084300FD890312013875C1011201380DC6011269
:100853000138E1C8011201380AC90112013833C94C
:1008630001120138E5C901120138CBCB011201385D
:1008730006CD011201383CD20112013875D20112A2
:100883000138B9D201120138CBD3011201380080EB
:10089300041201382DF403120138B1F503120138A3
:1008A300F1B70312013812B80312013861B8031209
:1008B3000138FF820412013877F9031201388DF9E8
:1008C30003120138BCF903120138F2F9031201389B
:1008D30009FA0312013820FA0312013857FA0312F6
:1008E3000138AAFA03120138C1FA03120138D8FAFF
:1008F300031201380BF60312013822F603120138F2
:1009030053F6031201388EF603120138B8F60312B8
:100913000138E2F603120138F9F60312013810F731
:100923000312013827F70312013850F70312013875
:1009330063F70312013879F7031201388CF70312B6
:100943000138B3F703120138F18E02120138F58F23
:1009530002120138229002120138789002120138F3
:100963009B9002120138AF9002120138B19002122B
:100973000138D49002120138DA91021201381E9321
:1009830002120138E29302120138B79402120138BD
:10099300289502120138B49502120138B795021254
:1009A30001383F96021201387A9602120138E19615
:1009B30002120138E496021201381B970212013821
:1009C300449702120138EF97021201387998021204
:1009D3000138C89802120138D59802120138D89804
:1009E3000212013838990212013843990212013870
:1009F300C29902120138C59902120138D89902121C
:100A03000138DB99021201386A9A02120138849A7A
:100A130002120138949A02120138C49A0212013860
:100A2300D19A02120138D49A02120138559B02124C
:100A33000138439C02120138F59C021201382DFB48
:100A43000212013855FB0212013883FB02120138EE
:100A5300BAFB0212013818FC0212013863FC0212BD
:100A63000138AEFC02120138EEFC0212013834FDEB
:100A73000212013862FD021201381FFE0212013810
:100A830029FE0212013836FE0212013869FE0212F3
:100A9300013835FF0212013841FF0212013859FFB4
:100AA3000212013863FF02120138DA80041201389E
:100AB300E8800412013800810412013818810412FD
:100AC3000138008002120138AC80021201382781FC
:100AD300021201384882021201388482021201385C
:100AE3002D83021201381484021201387885021210
:100AF3000138CF850212013850860212013840872F
:100B0300021201388D87021201381388021201384C
:100B1300458802120138598A021201389B8A02124F
:100B23000138B98A021201383C8B02120138108C49
:100B330002120138D88C021201384C9A0312013880
:100B43001F9B03120138C89B031201381B9C03121D
:100B53000138CB9C03120138579D03120138439E81
:100B630003120138729E03120138859F0312013864
:100B7300CD9F03120138A2A003120138DEA0031295
:100B83000138FAA003120138737F001201381EDA0C
:100B93000312013834DA031201385ADA0312013826
:100BA30076DB0312013880DB03120138B5DC031254
:100BB3000138ADDD03120138DFAD031201380FAF89
:100BC3000312013842AF031201388CAF031201380C
:100BD30053B103120138AAAD011201382EAE01122E
:100BE30001383EAE0112013824AF0112013861AF62
:100BF30001120138EDAF0112013830B00112013892
:100C03003BB00112013825B10112013888B101123C
:100C130001383EB20112013825B401120138DEB5A4
:100C230001120138BAB6011201386EB70112013848
:100C3300ABBA0112013859BB01120138C8BC011209
:100C4300013848BE01120138EFBE0112013838BF26
:100C53000112013870BF011201380DC001120138B1
:100C630098C0011201388BD401120138F5D4011256
:100C7300013854D60112013864D60112013891D6D5
:100C830001120138E8D60112013891D70112013857
:100C930098D80112013862D901120138C2DA01125F
:100CA300013805DB01120138AADB01120138F7DB39
:100CB300011201381DDC011201382BDE011201384B
:100CC30030DE0112013835E00112013882E00112F1
:100CD3000138F5E00112013828E101120138CAE1B7
:100CE3000112013873E201120138ABE2011201383B
:100CF300AEE201120138F6E20112013836E30112C5
:100D030001388DE3011201388DE303120138A0E3AA
:100D130003120138AEE303120138F6E3031201387C
:100D23000CE40312013853E40312013867E503129C
:100D33000138F4E5031201383FE6031201386D4927
:100D430000120138794900120138B4490012013800
:100D5300F94900120138B94A001201383F4B001219
:100D630001386B4B00120138A44B00120138E24DDD
:100D730000120138C64F00120138AC51001201387D
:100D8300EF52001201383D55001201384F56001240
:100D930001389A5700120138AA5800120138C7586F
:100DA3000012013802590012013824590012013887
:100DB300875900120138485E00120138DD5E0012C7
:100DC30001382E5F00120138555F00120138A75F0A
:100DD30000120138C55F001201381F60001201388C
:100DE3001E6100120138A261001201388DC1031285
:100DF300013897C103120138DAC103120138F5C172
:100E03000312013885C203120138ADC2031201383F
:100E1300EAC20312013821C3031201384AC3031281
:100E23000138BFC303120138D4C303120138E9C325
:100E3300031201381AC4031201382EC403120138F5
:100E430053C4031201388DC403120138B9C4031209
:100E530001383CC50312013885C503120138AFC5FB
:100E630003120138DAC503120138E0FE011201381A
:100E730053E30212013881E302120138CFE4021274
:100E83000138AFE502120138CEE5021201384BE614
:100E9300021201388EE602120138E4E70212013829
:100EA300A5E8021201382CEB02120138CDEB021235
:100EB3000138C3EC02120138C0ED021201381AEFF7
:100EC30002120138A5EF02120138F0FA03120138B9
:100ED30059FB03120138ADFB03120138D4FB031293
:100EE300013805FC0312013802C6031201386FC62C
:100EF30003120138B6C603120138CEC703120138F4
:100F0300CAC803120138ADC903120138698A031232
:100F13000138AB8A031201387D8B03120138568CDA
:100F230003120138508D03120138328E0312013837
:100F33009B8E03120138518F03120138C58F0312A0
:100F430001383190031201385A9003120138D490BA
:100F5300031201386D9103120138D2910312013843
:100F6300E791031201382D920312013846920312BE
:100F73000138AB9203120138AE9203120138B7DD88
:100F830003120138DFDD031201381DDE03120138BD
:100F9300DBDE0312013842DF031201385EDF031286
:100FA300013886DF03120138B6DF03120138C5DFCB
:100FB3000312013842E00312013868E003120138DA
:100FC3007AE40112013858E6011201388AE8011265
:100FD3000138C6E801120138F3E801120138DDE9EE
:100FE3000112013828EA0112013873EA01120138AB
:100FF30085EA01120138C5EA01120138FAEA011241
:10100300013848EB0112013877EB011201389AEBF2
:1010130001120138E7EB011201386CEC01120138BF
:1010230086EE01120138C5F00112013806F10112F2
:101033000138A8F201120138E9F2011201385CF318
:10104300011201383ED6021201383CD70212013890
:10105300D5DD02120138F6DF02120138C1E10212B6
:10106300013829E302120138096200120138B8621B
:1010730000120138E562001201382B6300120138B7
:101083006B64001201380166001201387B6600129E
:1010930001389666001201381167001201386B6837
:1010A30000120138CB6900120138D16A00120138ED
:1010B300326C001201384B6C00120138A96C00121B
:1010C3000138976D00120138CA6D001201383A6E6B
:1010D30000120138B46E00120138FE6E001201389E
:1010E300C86F001201389D70001201387C71001224
:1010F3000138077200120138757200120138E97263
:1011030000120138147300120138D373001201382E
:1011130038750012013855750012013874750012C4
:1011230001386576001201388A7600120138B476E8
:10113300001201382F770012013889770012013825
:10114300F27800120138A07900120138E179001217
:1011530001386AC802120138B8C802120138C4C87B
:1011630002120138A2C902120138D3C9021201388E
:1011730004CA0212013884CA02120138BCCA02121C
:1011830001380ECB021201384BCB0212013868CD65
:10119300021201388ECF0212013879D102120138BE
:1011A30063D302120138E92A001201389799011218
:1011B3000138C79901120138A0A00112013825A2F4
:1011C3000112013822A8011201380AA901120138BB
:1011D30047A9011201386AA9011201389BA901121A
:1011E3000138A4A901120138AEA9011201389CAA41
:1011F3000112013892AB01120138888401120138BF
:101203008788011201388D8801120138C88F0112B5
:101213000138E194011201389ED20312013834D30C
:10122300031201384AD303120138C0D30312013821
:1012330034D40312013872D403120138E6D40312F2
:1012430001385FD50312013868D50312013874D50C
:101253000312013889D503120138C7D503120138A7
:10126300DDD5031201383CD6031201386FCA0312CD
:1012730001387CCA0312013896CA03120138D5CA51
:101283000312013813CB0312013878CB0312013850
:101293008DCB0312013898CB03120138A5CB03126F
:1012A3000138BCCB03120138CACB03120138D5CBAA
:1012B30003120138E1CB03120138F0CB03120138DA
:1012C300FBCB031201381ECC03120138C5CC031229
:1012D3000138D5CC03120138EFCC031201380CCD01
:1012E3000312013828CD031201384DCD0312013802
:1012F30058CD031201386DCD0312013881CD03128D
:101303000138E2CD03120138E8CD03120138EECDE6
:1013130003120138F4CD031201380CCE0312013845
:101323003FCE0312013840BA02120138C4BA021286
:10133300013873BB02120138D2BC02120138F3BE6A
:1013430002120138DFBF0212013814C00212013841
:1013530036C002120138E5C002120138DDC20212A2
:10136300013806C30212013898C302120138CAC3F6
:1013730002120138D7C3021201382EC402120138F7
:1013830054C402120138C1C602120138C4C7021282
:1013930001381CC802120138669D02120138709E82
:1013A30002120138579F02120138619F021201385D
:1013B300839F021201388F9F0212013828A1021263
:1013C300013857A10212013873A202120138CCA2CC
:1013D3000212013832A40212013811A50212013897
:1013E3006DA502120138DAA50212013815A6021200
:1013F300013854A6021201380DA90212013827A997
:1014030002120138B3A902120138C1A9021201382C
:101413001AAA0212013828AA021201389BAA021240
:101423000138FFAA0212013849AB02120138B2F3A4
:1014330001120138D4F301120138FAF5011201380F
:101443000FF90112013827FA01120138DAFA0112F1
:101453000138BCFB01120138C5F703120138EAF762
:10146300031201385CF803120138D29203120138D7
:10147300DB9203120138E49203120138BB93031287
:1014830001386C9503120138A29503120138DC95DB
:10149300031201381296031201384C9603120138D5
:1014A300809603120138AC9603120138F5960312A5
:1014B30001382F9703120138789703120138D09718
:1014C300031201380598031201386098031201389A
:1014D3009A9803120138EB980312013821990312E9
:1014E30001385B9903120138899903120138AC99C9
:1014F30003120138B18104120138DD81041201386D
:1015030038820412013842820412013852820412D2
:101513000138128404120138DC83041201383E843A
:1015230004120138668404E066701008A3E0667054
:101533000A08A3E066700408A3E06622C3E79608DE
:1015430009E7960809E7960809E79622C3E0960893
:10155300A3E09608A3E09608A3E09622C008C3E0A0
:1015630096F50808A3E096420808A3E09642080807
:10157300A3E09645087001D3D00822080808EAC002
:10158300E0EBC0E086F0E7A4FA180986F0E7A42AA6
:10159300FA180986F0E7A42AFA180986F0E7A42ABC
:1015A300FA1986F0E7A4FBE5F02AFA190886F0E7B2
:1015B300A42BFBE5F03AFA190886F0E7A42BFBE528
:1015C300F03AFA18180986F0E7A4C5F02BFBE43AC1
:1015D300FA1908E7C5F0C6A426F6E5F03BFBE43AA2
:1015E300FA1886F0E7A4F6E5F00826F6E43B08F6D9
:1015F300E43A08F6D0E0FBD0E0FA22E4CFC0E0E41E
:10160300CEC0E0E4CDC0E0E4CCC0E075F020C3E69A
:1016130033F608E633F608E633F608E633F6181829
:1016230018EC33FCED33FDEE33FEEF33FFC3EC97E1
:1016330009ED9709EE9709EF97191919400FFFEC78
:1016430097FC09ED97FD09EE97FE191906D5F0BE33
:10165300ECF709EDF709EEF709EFF7191919D0E0DF
:10166300FCD0E0FDD0E0FED0E0FF226016080808C1
:10167300C6C313C618C613C618C613C618C613C6E0
:10168300D5E0EA227009080808226016181818C65F
:10169300C333C608C633C608C633C608C633C6D561
:1016A300E0EA22E627F60809E637F60809E637F600
:1016B3000809E637F622E026F608A3E036F608A383
:1016C300E036F608A3E036F622E026F008A3E0367B
:1016D300F008A3E036F008A3E036F022C3E697F65D
:1016E3000809E697F60809E697F60809E697F62249
:1016F300C3E096F008A3E096F008A3E096F008A3F1
:10170300E096F022E657F60809E657F60809E65789
:10171300F60809E657F622E056F608A3E056F6085F
:10172300A3E056F608A3E056F622E056F008A3E03D
:1017330056F008A3E056F008A3E056F022E0F608BE
:10174300A3E0F608A3E0F608A3E0F622E6F008A378
:10175300E6F008A3E6F008A3E6F022E0FAA3E0FB34
:10176300A3E0FCA3E0FD22EAF0A3EBF0A3ECF0A3DB
:10177300EDF022CAC0E0E6F0A308DAFAD0E0FA22DC
:10178300CAC0E0E0A3C582CCC582C583CDC583F0C2
:10179300A3C582CCC582C583CDC583DAE6D0E0CAB2
:1017A30022C3E498F8E499F91217E58026C3E49A72
:1017B300FAE49BFBE920E7E91217E5E498F8E499DA
:1017C300F922C3E498F8E499F91217E5E498F8E4E8
:1017D30099F9C3E49AFAE49BFB22EB20E7CFE920D3
:1017E300E7E0B90010BB0008E88AF084F8AAF02209
:1017F300E4FBC8FA22EB70227B10C833C8C933C993
:10180300335007C39AC3DBF280069A50012ADBEAFE
:10181300C833F4C8C933F4C9FA2275F008E4C833ED
:10182300C8C933C933C99AC99B5004C92AC93BD50E
:10183300F0ECFBC833F4C8E4C9FA22600D08C6A271
:10184300E713C618C613C6D5E0F322600C08C6C357
:1018530013C618C613C6D5E0F422700422600D180F
:10186300C6C333C608C633C6D5E0F41822251810FC
:10187300AF08F518400215198008F518400215192C
:10188300D2AF22C0D0251810AF08F51850020519A1
:101893008008F51850020519D2AFD0D0222518F5CB
:1018A3008210AF08F518400215198008F518400298
:1018B3001519D2AF851983222518F582E43519F558
:1018C3008322E4732518C582C0E0E51934FFC5837C
:1018D300C0E0E518C3958224F810AF088583198505
:1018E30082188008858319858218D2AFCEF0A3E5CC
:1018F30020F0A37808E608F0A3DEFAEFF0A3E58171
:1019030024FAF8E608F0A3E608F0A3E608F0A30833
:1019130008E608F0A3E608F0A315811581D0E0FEE0
:10192300D0E0F8158115811581E8C0E0EEC0E02212
:101933002518C582C0E0E51934FFC583C0E0E5186A
:10194300C3958224F910AF0885831985821880080E
:10195300858319858218D2AFCEF0A3E520F0A37852
:1019630008E608F0A3DEFAEFF0A3E58124FBF8E62E
:1019730008F0A3E608F0A30808E608F0A3E608F0D9
:10198300A315811581D0E0FED0E0F815811581E81B
:10199300C0E0EEC0E022851983851882E0A3FEE053
:1019A300A3F5207808E0A3F608DFFAE0A3FFE0A39D
:1019B300C0E0E0A3C0E0E0A3C0E0E0A3C0E0E0A398
:1019C300C0E010AF088582188583198008858218C6
:1019D300858319D2AFD083D08202013585198385DF
:1019E3001882E0A3FEE0A3F5207808E0A3F608DF61
:1019F300FAE0A3FFE0A3C0E0E0A3C0E0E0A3C0E0FF
:101A0300E0A3C0E010AF088582188583198008859C
:101A13008218858319D2AFD083D08222C0D02518F3
:101A2300C582C0E0E51934FFC583C0E0E518C3955E
:101A33008224F310AF088583198582188008858373
:101A430019858218D2AFC8F0A3E9F0A3EAF0A3EB9B
:101A5300F0A37908E709F0A3D8FAECF0A3EDF0A31B
:101A6300EEF0A3EFF0A3D0E0F0A3D0E0F0A3D0E03A
:101A7300F0A3E520F0A3E5F0F0A3228519838518F0
:101A830082E0C0E0A3E0F9A3E0FAA3E0FBA37808B7
:101A9300E0F608A3DFFAE0FCA3E0FDA3E0FEA3E089
:101AA300FFA3E0C0E0A3E0C0E0A3E0F5D0A3E0F52E
:101AB30020A3E0A3F5F010AF088583198582188071
:101AC30008858319858218D2AFD082D083D0E0F8FD
:101AD300D0E03274048006740280027401C0E0F422
:101AE300041218A0D0E01217762274048004740242
:101AF3008000CCC0E0EDC0E0E518C39CCCAD19502C
:101B0300011D10AF068C188D1980068C188D19D203
:101B1300AF121783D0E0FDD0E0FC22D083D082E95E
:101B2300C0E0E493A3C386F0C5F095F0F908E4930D
:101B3300A386F0C5F095F0700BE493A3C399400519
:101B4300E9048002A3E475F002A42582F582E5F09E
:101B53003583F583D0E0F9E493A3C0E0E493C0E0D8
:101B630022D083D082ECC0E0EDC0E0E493A3FCE498
:101B730093A3FDED4C600D121BB0EC24FFFCED3480
:101B8300FFFD80EFE493A3FCE493A3FDED4C600D14
:101B9300121BEFEC24FFFCED34FFFD80EFD0E0FDE2
:101BA300D0E0FCE493A3C0E0E493C0E022C0E0C330
:101BB300E49396087401939618400FE493667008B3
:101BC30008740193661870007019A3A3C3E4939675
:101BD300087401939618A3A3400DD0E0D0E0D0E0A1
:101BE300021BA0A3A3A3A3A3A3D0E022C0E0C0F041
:101BF30088F0E4936670080874019366187000A86F
:101C0300F0A3A3700BD0F0D0E0D0E0D0E0021BA093
:071C1300A3A3D0F0D0E022F2
:101C1C00C2AF02000022C0E074F2121A1FA2AFE49D
:101C2C0033FED2AFE589A2E150031206FC758900A0
:101C3C00C2C5751A00EEF8EEA2E092AF7F01021A4F
:101C4C007EC0E074F2121A1FA2AFE433FED2AFE5ED
:101C5C008BA2E050031206FC758B00C2E8751A00CB
:101C6C00EEF8EEA2E092AF7F01021A7EC0E0C0D087
:101C7C00E8C0E0E9C0E0A2AFE433F8D2AFC2C77568
:101C8C001A00E8F9E8A2E092AFD0E0F9D0E0F8D081
:101C9C00D0D0E03274F5121933EAFEEBFFEE2434A7
:101CAC00F8EF3400F988088909EE2435F582EF3411
:101CBC0000F583E0F8EE2437F582EF3400F583E08D
:101CCC00F50AEC850AF0A4FCAAF0850AF0EDA42A2A
:101CDC00FDE82CF8E43DF97A257B001217E5EA853E
:101CEC000882850983F0F8740758F97401B9000269
:101CFC008004C333D9FCFAE8131313541FF8EE28ED
:101D0C00F8EF3400F9E8245DF582E93400F583E05E
:101D1C005A6008EE2434F582EF802CEE2434F582E0
:101D2C00EF3400F583E0C0E0EE2436F582EF3400AA
:101D3C00F583E0F5F0D0E084A8F0EE28F8EF34005D
:101D4C00F9E82438F582E93400F583E0F97F0402E0
:101D5C0019DF74F5121933EAFEEBFFEE2434F58229
:101D6C00EF3400F583E0C0E0EE2435F582EF34006B
:101D7C00F583D0E0F08E828F83A3A3A3A3A3A3A3A8
:101D8C00C082C0838E828F83A3A3A3A3A3E0F8A3F6
:101D9C00E0F9D083D082E0C398F508A3E099F50967
:101DAC00EE247FF582EF3400F583E064017069EE78
:101DBC002480F582EF3400F583E0F8A3E0F98E82FD
:101DCC008F83A3A3A3A3A3A3A3E0FCA3E0FD8E8214
:101DDC008F83A3A3A3A3A3E0FAA3E0FBC3EA9CEB2A
:101DEC009D5010C3EC98ED99402EC3EA98EB995096
:101DFC0027800EC3EA98EB994007C3EC98ED994005
:101E0C00177C667D08EEFAEFFB121104EE247FF5C9
:101E1C0082EF3400F583E4F0EE2434F8EF3400F96B
:101E2C00E8FCE9FDEE2435F582EF3400F583E0F8AB
:101E3C00EE2437F582EF3400F583E0F50AE50885EA
:101E4C000AF0A4F508AAF0850AF0E509A42AF50918
:101E5C00E82508F8E43509F97A257B001217E5EA3C
:101E6C008C828D83F0F8740758F97401B9000280E4
:101E7C0004C333D9FCFAE8131313541FF8EE28F8F3
:101E8C00EF3400F9E8245DF582E93400F583E05A7B
:101E9C006008EE2434F582EF802CEE2434F582EFCA
:101EAC003400F583E0C0E0EE2436F582EF3400F523
:101EBC0083E0F5F0D0E084A8F0EE28F8EF3400F9D8
:101ECC00E82438F582E93400F583E0F9122ADB02C4
:101EDC001D59C082C083851882851983E0F8A3E060
:101EEC00F9C3EA9CEB9D5010C3EC98ED99401BC3D1
:101EFC00EA98EB995014800EC3EA98EB994007C30B
:101F0C00EC98ED994004790180027900D083D0825D
:101F1C0022EAC39CFAEB9DFB2274EF121933900753
:101F2C002CE064086005E06407702A9061C8E060EA
:101F3C002490075AE0F4601DE0F875F003A4C8AAD9
:101F4C00F02AF9745C28FE740739FF8E828F83A304
:101F5C00A3A3E07003022055906060E0C0E0EE2483
:101F6C0068F582EF3400F583D0E0F0750CCF750D79
:101F7C0008750800750900E5D914F50AE5D954036C
:101F8C00F50E60177403650E605CE50A6010EE24B4
:101F9C0067F582EF3400F583E0700302203A900875
:101FAC00CAE06401602AEE2482F582EF3400F583E6
:101FBC00E06004780480027800850A08E508C3987C
:101FCC00FA95E0FB120FD28A088B09EA45097005D5
:101FDC001213088074EE2482F582EF3400F583E04E
:101FEC0070048A0C8B0DE50A6012850C82850D83BA
:101FFC00F50BE5D9F0A3150BE50B70F6EE2482F585
:10200C0082EF3400F583E0604474FC250AF50A780D
:10201C000C121ADAAC0AA90EEEFAEFFB1211A0742C
:10202C0002121886E97026AA08AB091207B0793D8E
:10203C008E828F83A3A3A3A3E0FA7B00120EA6EEDD
:10204C00FAEFFB12111C1211B27900807474036543
:10205C000E6056850A107511007810121ADAAC0C45
:10206C00AD0DAA08AB0912117C7402121886EE246D
:10207C0068F582EF3400F583E064807004747F802F
:10208C0001E0F50C780C121ADEE50EF50C780C124A
:10209C001ADEA90AAC08AD0990075AE0FA7B0012C7
:1020AC000E6A7402121886801390072CE064086084
:1020BC000BAC0CAD0DEEFAEFFB12120C12131479E3
:1020CC00017F0A0219DF74F512193374FC121870AF
:1020DC00EAFEEBFF8908A2AFE433F509C2AF806AD0
:1020EC00EE2463F8EF3400F97A007B00A2AFE433FE
:1020FC00F50AC2AF88828983E0FCA3E0FDEC4D6059
:10210C003A88828983E0FAA3E0FB8A828B83E0FC25
:10211C00A3E0FD88828983ECF0A3EDF08A828B83A7
:10212C00E4F0A3F088828983E0FCA3E0FDEC4D7021
:10213C000A88828983A3A3E4F0A3F0E50AA2E092C3
:10214C00AF1207B090086DE004F0EE2463F582EF57
:10215C003400F583E0F8A3E0F9E849603DEE246330
:10216C00F582EF3400F583E02402FAA3E03400FB9F
:10217C00EA2402F50AEB3400F50B780A121ADA8A13
:10218C00828B83E0FCA3E0F9EEFAEFFB12114074B2
:10219C0002121886E970030220EC90086DE060636F
:1021AC0090086EE0F890086DE0C398500C740265CE
:1021BC0008705090086FE0604A8E828F83A3A3A3AF
:1021CC00A3E0851882851983F0A3E4F090086DE0F4
:1021DC00F874021218BBE8F0A3E4F090086DE0F874
:1021EC0090086CE028F074021218BBAC82AD8385A9
:1021FC001882851983AA82AB837901120E76900816
:10220C006DE4F0E509A2E092AF7404121886021D89
:10221C00590000008521878522C622C0E0C0D0E885
:10222C00C0E0E9C0E0EAC0E0EBC0E0ECC0E0EDC02B
:10223C00E0EEC0E0C008C009C00AC00BC082C08379
:10224C00C0F0A2AFE433FEC2AF759B00906182E098
:10225C00A2E05012E591A2E0500C7591FE7401655C
:10226C00217003121F25E0A2E55051E591A2E55023
:10227C004B7591DF90072CE064076005E0640870F3
:10228C0023740165217035790190075AE0FA75F0D5
:10229C0003A4CAA8F028FB745C2AFA74073BFB124F
:1022AC0020D28018E0640D701390074EE004F064A7
:1022BC00287002E4F07A00E0F912131A906182E0BF
:1022CC00A2E6400302236EE591A2E6400302236ED0
:1022DC007591BF90072CE06405700812124212121F
:1022EC004E80031212487521001212A8E990072D96
:1022FC00F0790012129C12107A7A017B0090072B55
:10230C00E0F9120426907803E0644270559008CEF0
:10231C00E014F0704DC2AF12232600782AD0E0F6FC
:10232C0018D0E0F6E59F540770057509FF8003751A
:10233C00097FC4C0E07829E6F50808E65509F509D7
:10234C00740B780812184ED0E02508F8906270E0F3
:10235C00A2E740F8E8C333906272F0906270E0D26A
:10236C00E0F0906181E0A2E35009E5E9A2E35003BB
:10237C0075E9F7A3E0A2E75009E591A2E7500375D0
:10238C00917FEEA2E092AFD0F0D083D082D00BD070
:10239C000AD009D008D0E0FED0E0FDD0E0FCD0E0BF
:1023AC00FBD0E0FAD0E0F9D0E0F8D0D0D0E032C0E9
:1023BC00E0C0D0C082C083906183E0A2E05009E508
:1023CC00BFA2E0500375BFFEE0A2E15009E5BFA239
:1023DC00E1500375BFFDE0A2E25009E5BFA2E25057
:1023EC000375BFFBE0A2E35009E5BFA2E350037500
:1023FC00BFF7E0A2E45009E5BFA2E4500375BFEFBC
:10240C00E0A2E55009E5BFA2E5500375BFDFE0A2ED
:10241C00E65009E5BFA2E6500375BFBFD083D0825A
:10242C008088C0E0C0D0E8C0E0E9C0E0EAC0E0EBE2
:10243C00C0E0ECC0E0EDC0E0C0F0E5A7A2E6500FB4
:10244C00E5A1A2E6500953A7BF75A1BF122493E5DD
:10245C00A7A2E5500CE5A1A2E5500653A7DF75A194
:10246C00DFE5A7A2E15009E5A1A2E1500375A1FDAA
:10247C00E5A7A2E2500CE5A1A2E2500653A7FB751A
:10248C00A1FBD0F00223A474F8121933752101902A
:10249C00072CE0640670151211D08A828B83A3A3DB
:1024AC00A3A3A3A3E0FAA3E0FB121230A2AFE43380
:1024BC00FED2AF900732E0640170187A207B009056
:1024CC00072BE0F91204D47A207B0090072BE0F95B
:1024DC0012042C906182E0D2E6F09008CBE06021EF
:1024EC0085C6228016900731E064017008E5C65459
:1024FC00F84405F5C653BEFC122220740165216018
:10250C00E4EEA2E092AF7F010219DF008E238F244C
:10251C00858228858327851882851983E0CEA3E0E0
:10252C00CF852882852783EBC9EAC8EDCBECCA7529
:10253C00F010C3E833C8E933C9EA33CAEB33CBC371
:10254C00EA9EF526EB9FF525B35004AB25AA26ECA5
:10255C0033CCED33CDD5F0DAAE23AF242274E912AF
:10256C00193374F8121870851882851983ECF0A34E
:10257C00EDF08A088B0990072CE024F7C3940550E2
:10258C00067508010227001211D08A0A8B0BAE0ABD
:10259C00AF0BEE4F70030226FDAC08AD09740212AE
:1025AC0018BBAA82AB831212608E828F83A3A37591
:1025BC000CFF750DFF750EFF750F00780C12171AB6
:1025CC0074021218BB7510FF7511FF7512FF75138D
:1025DC0000781012171A780C791012153F502A78BF
:1025EC000C79101216DF7508017509C8750A00758B
:1025FC000B007808790C12153F5052850C08850D8C
:10260C0009850E0A850F0B80507514017515C87558
:10261C00160075170085100885110985120A851397
:10262C000B7808790C1216DF7814790812153F40D4
:10263C001C750800750900750A00750B017808797E
:10264C00101216DF7808790C1216A6800C7508018A
:10265C00750900750A00750B007409780812168745
:10266C00750C19F50DF50EF50F7808790C1215FE91
:10267C008E828F83A3A3A3A3A3A3E0F8A3E0F97A8C
:10268C00D07B031217E5880C890DE4F50EF50F7855
:10269C0008790C1216A674061218BBE0F8A3E0F920
:1026AC007AD07B031217E5E8FA8A0CE4F50D78086A
:1026BC00790C12153F50077808790C1216DF900729
:1026CC002CE06408600AE064066005E06405702D87
:1026DC00750C0D780C790812153F4021750CF475AA
:1026EC000DFF750EFF750FFF7808790C1216A6807A
:1026FC000C750800750900750A00750B00851882A9
:10270C00851983E0F8A3E0F5838882780812174FC7
:10271C0074081218867F100219DF74F7121933121D
:10272C0012729008C9E064017010906245E4F0A345
:10273C00F053F4F343FE0C5390F312121EE5C654FF
:10274C00804449F5C6E59E547F644970F8906185D4
:10275C00740FF09008C7E0F47002A3E0604E90088C
:10276C00C8E0600814601B14602E80407508017569
:10277C0009009008C7E0780812185DE508F452804B
:10278C00802A7508017509009008C7E078081218AE
:10279C005DE508F4529080147508017509009008E5
:1027AC00C7E0780812185DE508F452A079007F02A2
:1027BC000219DF74F7121933E9FEEAFF74016E7027
:1027CC000C7A807B0090072BE0F9120426902AECFF
:1027DC00E493F46008E493F912106E800953C680F8
:1027EC00E59E547F70FA1212249008C9E0640170BF
:1027FC00031210869008C7E0F47002A3E0604B90BF
:10280C0008C8E0600814601A14602C803D7508013B
:10281C007509009008C7E0780812185DE508428039
:10282C0080287508017509009008C7E0780812180F
:10283C005DE508429080137508017509009008C782
:10284C00E0780812185DE50842A01212721211D03D
:10285C008A088B09A808A909E8496015E5E170FC0C
:10286C00E82414F582E93400F583E0F46003E0F524
:10287C00E174016F700A7A0190072BE0F91204A43D
:10288C000227BA74ED1219338A088B098C0A8D0B46
:10289C0074131218BB780C1217407808790C1215A7
:1028AC003F7510017511C875120075130050127820
:1028BC0008790C1216DF7810790812153F50168023
:1028CC0010780C79081216DF7810790C12153F402D
:1028DC00047901800279007F0C0219DF74ED121962
:1028EC00338A088B098C0A8D0B74131218BB780C65
:1028FC00121740780C790812153F40117808790CA2
:10290C001216DFAA08AB09AC0AAD0B8022751000B9
:10291C007511007512007513017810790C1216DF01
:10292C00781079081216A6AA10AB11AC12AD138050
:10293C00A68A828B837508FF7509FF750AFF750BD4
:10294C0000780812172D7F040219DF74F512193361
:10295C008C828D8378081217408A828B83780812B8
:10296C0016F3EA2404F8EB3400F98C828D83A3A3CC
:10297C00A3A3E0FCA3E0FD88828983C3E09CF0A3C1
:10298C00E09DF088828983C3E09420A3E0944E40BC
:10299C00268A828B837508FF7509FF750AFF750BF4
:1029AC00FF78081216CC8A828B83A3A3A3A3E024FE
:1029BC0020F0A3E0344EF002293D74F5121933E9EE
:1029CC00FE900881E0FAA3E0FBEEC333F8E433F9A0
:1029DC0074D928F582748239F583E02AF508A3E0CE
:1029EC003BF5097808121ADA7A407B427C0F7D009D
:1029FC0012251874021218868A088B098C0A8D0B02
:102A0C007410780812166EAA08AB097F040219DF3D
:102A1C0074F11219338A0C8B0D8C0E8D0F740F12EE
:102A2C0018BBE0FAA3E0FB74111218BBE0F508A385
:102A3C00E0F5097808121ADAEA2401F508EB3400FB
:102A4C00F509E4F50AF50B780C790812157E750872
:102A5C0071750902780C790812157EAA0CAB0DACB5
:102A6C000EAD0F12251874021218868B09EA45094F
:102A7C0060047A0180027A00EC2AFCED3400FD74CB
:102A8C00131218BBE0F8A3E0F9E8FEE9FFECF8ED4F
:102A9C00F97A717B021217E5880889098E828F8377
:102AAC00780812174FECF8EDF97A717B021217E5E2
:102ABC008A088B097405780812185D8E828F83A39F
:102ACC00A3A3A3E508F0A3E509F07F080219DFC072
:102ADC0082C083E9906000F0D083D082220201355D
:102AEC00FFFFFFFFFFFFFFFF74EE1218C774FA120F
:102AFC0018708A0A8B0B8909ECFEEDFF75080085AE
:102B0C000A0C850B0D780C121B1E000410CD2D3DEC
:102B1C002B5E2B7D2B9E2BBF2BE02B132C342C4BA5
:102B2C002C792C372D582D782DA22DCD2DCD2DA4D3
:102B3C002C7401650970158E828F83E0C394035049
:102B4C000B8E828F83E0900C0CF0800375081802BA
:102B5C002DF67402650970138E828F83E0F8A3E062
:102B6C00F9900C0DE8F0A3E9F08003750818022D1C
:102B7C00F67401650970158E828F83E0C394025040
:102B8C000B8E828F83E09003FAF080037508180295
:102B9C002DF67401650970158E828F83E0C3940540
:102BAC00500B8E828F83E09003FBF0800375081826
:102BBC00022DF67401650970158E828F83E0C39423
:102BCC0002500B8E828F83E09003FCF0800375081B
:102BDC0018022DF6741065097027750C10750D0010
:102BEC00780C121ADAEEFCEFFD7AFD7B031203CCA3
:102BFC0074021218868A0C8B0D850C82850D8380CD
:102C0C0003750818022DF67401650970158E828FF4
:102C1C0083E0C39402500B8E828F83E090040DF0FE
:102C2C008003750818022DF674016509700B8E82ED
:102C3C008F83E0900C10F08003750818022DF67449
:102C4C000465097022908420780C1217408E828FB4
:102C5C0083780C12154F500F8E828F8312175E9053
:102C6C00040F12176A8003750818022DF6E5097017
:102C7C0021120BA0E9701312063CE9F50C795012E5
:102C8C000840E9F50D12062A800B9004A27401F09D
:102C9C008003750818022DF6740765096003022D70
:102CAC0031750E06750F00780E121ADA8E828F832C
:102CBC00A3AC82AD8374021218BBAA82AB8312033D
:102CCC00D274021218868A108B1185100E85110F82
:102CDC007C007D00851882851983AA82AB838E8245
:102CEC008F83E0F91205CAE9F50CE50CC3940A5080
:102CFC002F120BA0E97015A90C120642E9F50D79FB
:102D0C0050120840E9F50E12062A801C750D00744D
:102D1C00A3250CF5827404350DF5837401F080083D
:102D2C007508028003750818022DF6740165097088
:102D3C00158E828F83E0C39402500B8E828F83E0BA
:102D4C0090040EF08003750818022DF674016509C5
:102D5C0070158E828F83E0C3940A500B8E828F8302
:102D6C00E0900C0FF08003750818807E74016509E3
:102D7C00701F8E828F83E0C3940740158E828F83E1
:102D8C00E0C39411500B8E828F83E0900C11F08075
:102D9C005975081880547401650970209004A1E0DD
:102DAC00F50C8E828F83E09004A1F0E50C703B90C3
:102DBC0004A1E06401703312062A802E7508188075
:102DCC0029C3E50A9427E50B9400501B740265098E
:102DDC0070158E828F83E0FCA3E0FDAA0AAB0B1268
:102DEC000A3EE9F5088003750802A9087406121852
:102DFC00867F0A02199974EC1218C774DA121870CB
:102E0C00890D8A128B138C0A8D0B743A1218BBE045
:102E1C00F50C9083B6C082C083851882851983AC6B
:102E2C0082AD83D083D08274061217838518828575
:102E3C001983AC82AD83AA12AB13A90D1205CAE992
:102E4C00FEEEC3940A4003022FA1EEF912060CE920
:102E5C00FF900C0CE064027004740180027400F5A5
:102E6C00087808121ADEAD0CEFFCEEF9AA0AAB0BCF
:102E7C0012067E74011218867C147D00790074127F
:102E8C001218BBAA82AB831203E48A0E8B0F850E39
:102E9C0008850F0974121218BBAC82AD837A1075B9
:102EAC00F006EEA42424F912083AE970437C107958
:102EBC00FF74121218BBAA82AB8312044AE9703059
:102ECC0074221218BBAC82AD837A0475F006EEA4A2
:102EDC002425F912083AE9F50874121218BBAC82D1
:102EEC00AD83EFA2E0E433F9AA0AAB0B120AC8E9EE
:102EFC0074061218BBAC82AD837A0C74702EF91266
:102F0C00083AE9707E74061218BBAA82AB831206CB
:102F1C0000750E00E50EC394045068E50EA80E79FA
:102F2C0000E875F003A4C8AAF075F000A42AFA759D
:102F3C00F003E9A42AF974061218BBE58228F508F7
:102F4C00E58339F509850882850983E0F8A3E0F962
:102F5C00E849602B850882850983A3A3E0F51075E9
:102F6C0011007810121ADA850882850983E0FCA317
:102F7C00E0FDAA0AAB0B120DBC7402121886E9050F
:102F8C000E8091EFA2E1500D9003F9E0F9AA0AAB83
:102F9C000B120DC2E97404650C700F900C0CE064FC
:102FAC00027007AA0AAB0B12067879007426121865
:102FBC00867F0C02199974F21218C7890BEAFEEB82
:102FCC00FF8C088D09750A0AE50B600C1460091456
:102FDC006044146064023066EEFAEFFB12061EE9E0
:102FEC00F50AE50AC3940A5071E5084509606B754A
:102FFC000C06750D00780C121ADAEEFCEFFDAA081F
:10300C00AB091203CC74021218868A0C8B0D850C3A
:10301C0082850D838044EEFAEFFB120618E9F50A5F
:10302C00E50AC3940A5033E5084509602DAA08AB9C
:10303C0009A90A120612E98021EEFAEFFB12062406
:10304C00E9F50AE50AC3940A5010E5084509600A37
:10305C00AA08AB09A90A120612E9A90A7F060219E5
:10306C009974F21218C78A0C8B0DE9FE7F1574FF48
:10307C00650C700474FF650D702A750800E508C3B3
:10308C00940A5014EEFC7A027B00A9081205EEE9B2
:10309C0060027F00050880E5EE60637A667B0612AD
:1030AC000FB4805AAA0CAB0D120F968A0A8B0B85A3
:1030BC000A08850B09E508450960417C007D00E59F
:1030CC00082405FAE5093400FB850882850983A3E9
:1030DC00A3A3A3E0F91205CAE9F50AE50AC3940A09
:1030EC00500EEEFC7A027B00A90A1205EEE97F0075
:1030FC00EE600BAA08AB0912066680027F14EFF98A
:10310C007F0602199974EE1218C78A0E8B0F8C0A5F
:10311C008D0B74121218BBE0F50CA3E0F50D7508BD
:10312C001574FF650E700474FF650F701E7E00EE43
:10313C00C3940A5062AC0CAD0DAA0AAB0BEEF9129B
:10314C0005F4E960037508000E80E4AA0EAB0F12BB
:10315C000F968A108B11AE10AF11EE4F60367C00BB
:10316C007D00EE2405FAEF3400FB8E828F83A3A33F
:10317C00A3A3E0F91205CAE9F509E509C3940A50BD
:10318C0016AC0CAD0DAA0AAB0BA9091205F4E97526
:10319C0008008003750814A9087F0A02199974F7AE
:1031AC001218C7EAFEEBFF900413EEF0A3EFF090B9
:1031BC0003F9E0FC7D007A267B00120A3EE9F50853
:1031CC009003F9E0F9120D3E7F0102199974EE1289
:1031DC0018C78A108B11E9FE74121218BB780C12E6
:1031EC0017407F00EE7041850C08850D09850E0A8D
:1031FC00850F0B908420780C1217407808790C12EC
:10320C0015FE7810121ADAAA0CAB0DAC0EAD0F121B
:10321C000ADA7402121886E9FFEF60167901AA1017
:10322C00AB11120AD4E9800AEEF9AA10AB11120AFA
:10323C00D4E9EFF97F0A02199974F21218C774ECE9
:10324C001218708A0A8B0B850A82850B83A3A3E064
:10325C0024FA70030236A524FD700302351B14708A
:10326C000302333814601024FD70030234C314704D
:10327C000302355B023713AE0AAF0B900413E0F870
:10328C00A3E0F9E8496069900413E0F8A3E0F58342
:10329C008882E0F8A3E0F9E8496055EE240CF58249
:1032AC00EF3400F583E0F5087808121ADEEE240BF3
:1032BC00F582EF3400F583E0F98E828F83A3A3A30C
:1032CC00A3A3A3A3A3A3E0FCA3E0FDEE2403FAEFC6
:1032DC003400FB900413E0F8A3E0F5838882E0F857
:1032EC00A3E0F58388821218C57401121886803900
:1032FC008E828F83A3A3A3A3A3A3A3A3A3121AF1C8
:10330C0090040F12175E120ADA7402121886E96022
:10331C001879018E828F83A3A3A3A3A3A3A3A3A332
:10332C00E0FAA3E0FB120AD4E9023713AE0AAF0BA2
:10333C008E828F83A3E060030234718E828F83A30D
:10334C00A3A3A3A3E0A2E040030234719004ADE078
:10335C00F8A3E0F9E84960030234717C0E7D007932
:10336C0000851882851983AA82AB831203E48A082C
:10337C008B09AA08AB09EE240CF582EF3400F58317
:10338C00E0F8A3E0F9E849603B7508067509007898
:10339C0008121ADAEE240CF582EF3400F583E024DF
:1033AC0010FCA3E03400FD74021218BBAA82AB839C
:1033BC001203CC74021218868A088B098508828540
:1033CC00098380548E828F83A3A3A3E0FAA3E0FB2E
:1033DC00120F968A0C8B0D850C08850D09E5084596
:1033EC00096032750C06750D00780C121ADAE508B6
:1033FC002405FCE5093400FD74021218BBAA82AB4B
:10340C00831203CC74021218868A0C8B0D850C82E5
:10341C00850D8380030237138E828F83A3A3A3A30E
:10342C00A3E0A2E25004D2F08002C2F0A2F0E43396
:10343C00F87900740C1218BBE048F0A3E049F0EEE8
:10344C00FCEFFD851882851983AA82AB83120606D0
:10345C00E970127A027B009003F9E0F9120426E974
:10346C007900023715900413E0F8A3E0F9E84960FD
:10347C0043900413E0F8A3E0F5838882A3A3E0F85B
:10348C00A3E0F9E849602D8E828F83A3E0FC7901DB
:10349C008E828F83A3A3A3E0FAA3E0FB900413E036
:1034AC00F8A3E0F5838882A3A3E0F8A3E0F5838872
:1034BC00821218C5023713AE0AAF0B900413E0F852
:1034CC00A3E0F9E8496045900413E0F8A3E0F58324
:1034DC008882A3A3E0F8A3E0F9E849602F850A826B
:1034EC00850B83A3E0FC79028E828F83A3A3A3E0D8
:1034FC00FAA3E0FB900413E0F8A3E0F5838882A321
:10350C00A3E0F8A3E0F58388821218C5023713AE46
:10351C000AAF0B7C007D00EE2404FAEF3400FB8E26
:10352C00828F83A3A3A3E0F91205CAE9F508E50885
:10353C00C3940A5017EE240AFCEF3400FD7A04758C
:10354C00F006E508A42425F9120834E9023713AE75
:10355C000AAF0B90040EE06018900C0FE0F98E820D
:10356C008F83A3A3A3E0FAA3E0FB120AD4E90237EA
:10357C0013900C0CE0701579058E828F83A3A3A396
:10358C00E0FAA3E0FB120AD4E90237138E828F8390
:10359C00A3A3A3E0FAA3E0FB120F968A0C8B0D8574
:1035AC000C08850D098E828F83A3A3A3A3A3A3A3C9
:1035BC00E0A2E05075E5084509606C850882850934
:1035CC0083A3A3A3A3E060628E828F83A3A3A3A390
:1035DC00A3A3A3A3A3E0F8A3E0F9E8C4540FF879DC
:1035EC00005401F8E95400F9E8A2E0403D740E12D1
:1035FC0018BBAC82AD83E5082405FAE5093400FB61
:10360C00850882850983A3A3A3A3E0F91205CAE95F
:10361C00701879038E828F83A3A3A3E0FAA3E0FB37
:10362C00120AD4E9023713023713EE2405FCEF34E7
:10363C0000FD850882850983A3A3A3A3E0F98E82EC
:10364C008F83A3A3A3E0FAA3E0FB120672900413EA
:10365C00E0F8A3E0F9E849603E900413E0F8A3E039
:10366C00F5838882A3A3E0F8A3E0F9E84960287CFD
:10367C000079008E828F83A3A3A3E0FAA3E0FB90D2
:10368C000413E0F8A3E0F5838882A3A3E0F8A3E099
:10369C00F58388821218C5806E120BA0E9706890B1
:1036AC0004A2E06401701A12063CE9FE9004A274B4
:1036BC0000F07C0A7D0079007AA37B041203E4807D
:1036CC003C7E00EEC3940A50348E0875090074A336
:1036DC002508F58274043509F583E06401701BEE4E
:1036EC00F9120642E9F88E0875090074A32508F54D
:1036FC008274043509F5837400F00E80C67950127B
:10370C000840E9FE12062A790174141218867F0605
:10371C0002199974F31218C774F21218708909EA15
:10372C00FEEBFF8C0C851882851983AC82AD837AF5
:10373C000E75F006E509A42420F912083AE9707216
:10374C007C0679FF851882851983AA82AB831204C3
:10375C004AE9705E740C1218BBE0F8A3E0F9E8F5C6
:10376C0008E50C6005EE42088004EEF4520885086A
:10377C000A750B00740C1218BBE0650A7004A3E008
:10378C00650B602AE508A8087900740C1218BBE5D3
:10379C0008F0A3E9F0851882851983AC82AD837A91
:1037AC000E75F006E509A42420F9120834E9790114
:1037BC0080027900740E1218867F0502199974F034
:1037CC001218C774E6121870890B8A0C8B0DECFE5C
:1037DC00EDFF740C1218BBAC82AD837A0E75F0063B
:1037EC00E50BA42420F912083AE9600302392E7C77
:1037FC000679FF740C1218BBAA82AB8312044AE937
:10380C00600302392E851882851983AC82AD837AC8
:10381C000C7470250BF912083AE9600302392A7509
:10382C000A00851882851983AA82AB83120600E5EB
:10383C000C450D703A7C0C7900851882851983AA89
:10384C0082AB8312044AE960030239047C0C7D00CC
:10385C007900851882851983AA82AB831203E48AC6
:10386C00088B09850882850983750A01023904854C
:10387C001882851983AC82AD83AA0CAB0D1205FAA4
:10388C008A0E8B0F850E08850F09E50845097036E1
:10389C00EE4F6021851882851983AC82AD837A0046
:1038AC007B001205FA8A0E8B0FA80EA90F880889C7
:1038BC0009E84970047900806B850882850983E5E5
:1038CC000CF0A3E50DF0850882850983A3A3E0F82D
:1038DC007900EE687002EF69601EEE85088285093A
:1038EC0083A3A3F0EE4F700D8508828509837400C5
:1038FC00F0A37400F0750A01E50A60228518828530
:10390C001983AA82AB83120600851882851983ACB1
:10391C0082AD837A0C7470250BF9120834E97901A5
:10392C0080027900741A1218867F0802199974F7AC
:10393C001218C7EAFEEBFF7B00EBC39404504EEB6E
:10394C00F87900E875F003A4C8AAF075F000A42A71
:10395C00FA75F003E9A42AF9EC28F582ED39F58320
:10396C00E06E7003A3E06F7021EBF87900E875F05E
:10397C0003A4C8AAF075F000A42AFA75F003E9A410
:10398C002AF9EC28FAED39FB80070B80AC7A007B26
:10399C00007F0102199974F71218C77F00EFC394C6
:1039AC00044003023A51EFF87900E875F003A4C81B
:1039BC00ACF075F000A42CFC75F003E9A42CF9EA2A
:1039CC0028F582EB39F583E0F4FCA3E0F4FDEFF885
:1039DC007900E875F003A4C8AEF075F000A42EFED3
:1039EC0075F003E9A42EF9EA28F582EB39F583EC9E
:1039FC00F0A3EDF0EFF87900E875F003A4C8ACF093
:103A0C0075F000A42CFC75F003E9A42CF9EA28F558
:103A1C0082EB39F583A3A3E0F4C0E0EFF87900E87A
:103A2C0075F003A4C8ACF075F000A42CFC75F00381
:103A3C00E9A42CF9EA28F582EB39F583A3A3D0E0AD
:103A4C00F00F0239A97F0102199974F01218C7748A
:103A5C00F4121870EAFEEBFF8C088D099004ADE0AF
:103A6C00F8A3E0F9E849702CEE4F6006E50845092B
:103A7C0070057901023D0EEEFAEFFB12061EE9907D
:103A8C000C12F0900C12E0C3940A4008120630E9B4
:103A9C00900C12F0900C12E0C3940A4003023D0CFF
:103AAC009004ADE0F8A3E0F9E8496003023B58EE5E
:103ABC00FCEFFD7A0E75F006900C12E0A42420F9B0
:103ACC00120834E9F50C7C0C7D0079FF8518828591
:103ADC001983AA82AB831203E48A0E8B0F850E0A1C
:103AEC00850F0B851882851983AC82AD837A0C9077
:103AFC000C12E02470F9120834E9F50D750E0E75F0
:103B0C000F00780E121ADAEEFCEFFD900C12E0F8B2
:103B1C007900E875F00EA4C8AAF075F000A42AFA92
:103B2C0075F00EE9A42AF9741528FA740439FB12FD
:103B3C0003CC74021218868A0E8B0FA80EA90F9054
:103B4C0004ADE508F0A3E509F0023D089004ADE0F2
:103B5C00F8A3E0C82406F582E83400F583E0F8A366
:103B6C00E0F9E84960439004ADE0F8A3E0C824060E
:103B7C00F582E83400F583E0FCA3E0FD7A1B75F0D8
:103B8C0006900C12E0A42421F9120834E9F89004F0
:103B9C00ADE0F9A3E0C92406F582E93400F583749D
:103BAC0000F0A37400F0023D089004ADE0F8A3E02F
:103BBC00C8240AF582E83400F583E0F8A3E0F9E8BC
:103BCC004960439004ADE0F8A3E0C8240AF582E80C
:103BDC003400F583E0FCA3E0FD7A1B75F006900C35
:103BEC0012E0A42422F9120834E9F89004ADE0F9AB
:103BFC00A3E0C9240AF582E93400F5837400F0A32C
:103C0C007400F0023D089004ADE0F8A3E0C8240C69
:103C1C00F582E83400F583E0F8A3E0F9E849604365
:103C2C009004ADE0F8A3E0C8240CF582E83400F56C
:103C3C0083E0FCA3E0FD7A1075F006900C12E0A472
:103C4C002423F9120834E9F89004ADE0F9A3E0C993
:103C5C00240CF582E93400F5837400F0A37400F0B1
:103C6C00023D089004ADE0F8A3E0C82408F582E812
:103C7C003400F583E0F8A3E0F9E849606F9004ADF7
:103C8C00E0F8A3E0C82408F582E83400F583E0FCF2
:103C9C00A3E0FD7A1075F006900C12E0A42424F930
:103CAC00120834E9F50A9004ADE0F8A3E0C8240842
:103CBC00F582E83400F583E02410FCA3E03400FD29
:103CCC007A0475F006900C12E0A42425F91208343D
:103CDC00E9F89004ADE0F9A3E0C92408F582E934D1
:103CEC0000F5837400F0A37400F080109004A1E040
:103CFC00600312068412066C79018006790080023A
:103D0C007901740C1218867F0802199974F712182D
:103D1C00C774F2121870E9FE851882851983AC827B
:103D2C00AD837A0E75F006A42420F912083AE970D6
:103D3C000E740C1218BBE0F8A3E0F9E8F9800279D4
:103D4C0000740E1218867F0102199974F41218C7A8
:103D5C0074F21218708909EAFEEBFFE509C3940AA4
:103D6C005004EE4F70047902804B851882851983BC
:103D7C00AC82AD837A0E75F006E509A42420F91205
:103D8C00083AE9F508E508702A750A06750B0078FB
:103D9C000A121ADA74021218BBAC82AD83EEFAEF77
:103DAC00FB1203CC74021218868A0A8B0B850A82CA
:103DBC00850B83A908740E1218867F040219997456
:103DCC00F41218C7EAFEEBFF750800E508C3940A65
:103DDC005045750A06750B00780A121ADAEEFCEFDC
:103DEC00FDE508A8087900E875F00EA4C8AAF075DE
:103DFC00F000A42AFA75F00EE9A42AF9741B28FA2B
:103E0C00740439FB1203DE7402121886E96004A9EB
:103E1C00088006050880B4790A7F0402199974F4A5
:103E2C001218C7EAFEEBFF750800E508C3940A50A8
:103E3C0045750A06750B00780A121ADAEEFCEFFDCE
:103E4C00E508A8087900E875F00EA4C8AAF075F08A
:103E5C0000A42AFA75F00EE9A42AF9741528FA744C
:103E6C000439FB1203DE7402121886E96004A908F7
:103E7C008006050880B4790A7F0402199974F71238
:103E8C0018C774F0121870EAFEEBFF750800E5080D
:103E9C00C3940A504B851882851983AC82AD837A02
:103EAC001075F006E508A42423F912083AE9702CE1
:103EBC007C1079FF851882851983AA82AB83120442
:103ECC004AE97018EEFCEFFD851882851983AA82E9
:103EDC00AB83120AAAE97004A9088006050880AE13
:103EEC00790A74101218867F0102199974F4121849
:103EFC00C7750800E508C3940A4003023FDAE508D9
:103F0C00A8087900E875F00EA4C8AAF075F000A412
:103F1C002AFA75F00EE9A42AF9741528FC740439F0
:103F2C00FD7A0E75F006E508A42420F912083AE98A
:103F3C007003023FD57C067D0079FFE508AA087B5B
:103F4C0000EA75F00EA4CAA8F075F000A428F87564
:103F5C00F00EEBA428FB74152AFA74043BFB120335
:103F6C00E48A0A8B0BAE0AAF0B7C067D0079FFE569
:103F7C0008AA087B00EA75F00EA4CAA8F075F00038
:103F8C00A428F875F00EEBA428FB741B2AFA740411
:103F9C003BFB1203E48A0A8B0BAC0AAD0BE508A8B9
:103FAC00087900E875F00EA4C8AAF075F000A42AF0
:103FBC00FA75F00EE9A42AF9742128F582740439F3
:103FCC00F5837400F0A37400F00508023F00900420
:103FDC00A1E0600312068412066C7F040219997426
:103FEC00F71218C77E00EEC3940A50327C0679FF94
:103FFC00EEFA7B00EA75F00EA4CAA8F075F000A4E6
:10400C0028F875F00EEBA428FB74152AFA74043BFF
:10401C00FB12044AE96004EEF980050E80C8790AA7
:10402C007F0102199974F71218C77E007F00EFC345
:10403C00940A502F7C0679FFEFFA7B00EA75F00E9C
:10404C00A4CAA8F075F000A428F875F00EEBA4280B
:10405C00FB74152AFA74043BFB12044AE970010E36
:10406C000F80CBEEF97F0102199974F71218C77EF5
:10407C00007F00EFC3940A500DEE700AEFF91206A0
:10408C0042E9FE0F80EDEEF97F0102199974F012EE
:10409C0018C774CB1218708909900C12E06509705E
:1040AC001D7A017B009003F9E0F912042CE97A02E5
:1040BC007B009003F9E0F912042CE91206907427A6
:1040CC001218BBAC82AD837A0E75F006E509A424F8
:1040DC0020F912083AE960030242057C0679FF7464
:1040EC00271218BBAA82AB8312044AE9600302426E
:1040FC00057C0E7D0079FF74271218BBAA82AB8356
:10410C001203E48A0A8B0B850A0C850B0D7C1B7D34
:10411C000079FF740C1218BBAA82AB831203E48AD9
:10412C000E8B0F850E0A850F0B7C0C7D0079FF859D
:10413C001882851983AA82AB831203E48A0E8B0F33
:10414C00AE0EAF0F74271218BBAC82AD837A0E750E
:10415C00F006E509A42420F9120834E9F508740CDA
:10416C001218BBAC82AD837A1B75F006E509A4244A
:10417C0021F9120834E94208740C1218BBAC82AD58
:10418C00837A1B75F006E509A42422F9120834E998
:10419C004208740C1218BBAC82AD837A1075F00611
:1041AC00E509A42423F9120834E94208740C121806
:1041BC00BBAC82AD837A1075F006E509A42424F912
:1041CC00120834E94208740C1218BBAC82AD837A25
:1041DC000475F006E509A42425F9120834E942080F
:1041EC00851882851983AC82AD837A0C747025098D
:1041FC00F9120834E942088003750800A9087435DF
:10420C001218867F0802199974F71218C7E9FE90E4
:10421C0003F9F012062A7F0102199974F21218C7D9
:10422C00890AEAFEEBFFEE5400F8EF5480F9E849F6
:10423C0060359003F9E0F912040E8A0C8B0DA80C72
:10424C00A90D88088909E8496012AA08AB09120669
:10425C0054E96008AA08AB091203FCE9EE6400FA01
:10426C00EF6480FB02432BEE5402602D7C007D003A
:10427C007A007B00120606E960187A017B00900335
:10428C00F9E0F9120426E9EE6402FAEF6400FB028D
:10429C00432B7A027B0002432BEEA2E0507D90046C
:1042AC00ADE0F8A3E0F5838882A3A3A3E0FAA3E032
:1042BC00FB12068AE9605E900413E0F8A3E0F9E8CB
:1042CC00496045900413E0F8A3E0F5838882A3A32A
:1042DC00E0F8A3E0F9E849602F7C0079019004AD87
:1042EC00E0F8A3E0F5838882A3A3A3E0FAA3E0FBA4
:1042FC00900413E0F8A3E0F5838882A3A3E0F8A36D
:10430C00E0F58388821218C5120690EE6401FAEF6C
:10431C006400FB800A7A017B0080047A007B007FBA
:10432C000602199974F71218C7EAFEEBFF7508011B
:10433C008E828F83E02450601314601924E1701C6A
:10434C00EEFAEFFB1205E8E9F5088010EEFAEFFB48
:10435C0012065A8007EEFAEFFB120660A9087F01DD
:10436C0002199974F71218C7EAFEEBFF8E828F833D
:10437C00A3A3A3A3E0641E701179008E828F83A384
:10438C00A3E0FAA3E0FB1205D0E97F0102199974AE
:10439C00F61218C7EAFEEBFF8E828F83A3A3A3A3AA
:1043AC00E0703A8E088F09850882850983A3A3A340
:1043BC00A3A3A3A3121AF1850882850983A3A3A33F
:1043CC00A3A3E0FCA3E0FD850882850983A3A3E0F9
:1043DC00FAA3E0FB1205D67402121886E97F0202DA
:1043EC00199974F71218C7EAFEEBFF9003F9E0F97C
:1043FC008E828F83A3E0FAA3E0FB120DC2E97F014A
:10440C00021999C082C08374FF121870120636E923
:10441C00C39402400B8518828519837402F08009BD
:10442C00851882851983740AF0851882851983ACE6
:10443C0082AD837A017905120BB8E97401121886E2
:10444C00D083D08202013574F21218C774E81218A6
:10445C0070EAFEEBFF890A8C088D097C187D0079C7
:10446C0000851882851983AA82AB831203E48A0C17
:10447C008B0DAC0CAD0D851882851983EEF0A3EF76
:10448C00F09003FBE0C0E074021218BBD0E0F09097
:10449C0003FCE0C0E074031218BBD0E0F0900C11E8
:1044AC00E0C0E074171218BBD0E0F074151218BB02
:1044BC00E054FEF8A3E054FFF9900C10E0A2E0E405
:1044CC0033FA7B00E84AF8E94BF974151218BBE88B
:1044DC00F0A3E9F0900C10E0A2E15004D2F08002BD
:1044EC00C2F074151218BBE054FDFAA3E054FFFBA4
:1044FC00A2F0E433F87900C333F8E933F9EA48F869
:10450C00EB49F974151218BBE8F0A3E9F0900C1004
:10451C00E0A2E35004D2F08002C2F074151218BB72
:10452C00E054F7FAA3E054FFFBA2F0E433F50C756A
:10453C000D007403780C12185DEA450CF8EB450D70
:10454C00F974151218BBE8F0A3E9F0900C10E0A276
:10455C00E45004D2F08002C2F074151218BBE0547F
:10456C00EFFAA3E054FFFBA2F0E433F50C750D0059
:10457C007404780C12185DEA450CF8EB450DF974CF
:10458C00151218BBE8F0A3E9F0900C10E0A2E5506E
:10459C0004D2F08002C2F074151218BBE054DFFA9A
:1045AC00A3E054FFFBA2F0E433F50C750D00740589
:1045BC00780C12185DEA450CF8EB450DF9741512E0
:1045CC0018BBE8F0A3E9F0900C10E0A2E25004D282
:1045DC00F08002C2F074151218BBE054FBFAA3E091
:1045EC0054FFFBA2F0E433F50C750D007402780C4B
:1045FC0012185DEA450CF8EB450DF974151218BB51
:10460C00E8F0A3E9F09003FCE0602A750C10750D3E
:10461C0000780C121ADA7CFD7D0374061218BBAA02
:10462C0082AB831203CC74021218868A0C8B0D8514
:10463C000C82850D8390040DE06012E50A600E7407
:10464C00151218BBE04402F0A3E04400F090040DF6
:10465C00E060067801790080047800790074141207
:10466C0018BBE048F09003FAE0600678047900800B
:10467C00047800790074141218BBE048F0AC08AD53
:10468C0009851882851983AA82AB83120ACEE97434
:10469C00181218867F0602199974F71218C7EAFEC9
:1046AC00EBFF75080090040DE0600678017900803E
:1046BC000478007900E842089003FAE06006780478
:1046CC007900800478007900E84208A908EEFAEF36
:1046DC00FB120B88E97F0102199974EE1218C7744A
:1046EC00E51218708A0C8B0DE9FF8C088D09742D5E
:1046FC001218BBE0F50A74086509700A75F006EF2C
:10470C00A42422FE800875F006EFA42421FE7C1B55
:10471C007D007900851882851983AA82AB831203E8
:10472C00E48A108B1185100E85110F85188285195E
:10473C0083AC82AD837A1BEEF912083AE9703C74B3
:10474C001A1218BBE0C394074031741A1218BBE05C
:10475C00C394115026E50AF50B780B121ADE74017E
:10476C001218BBAC82AD83E508A2E0E433F9AA0CC5
:10477C00AB0D120AE07401121886E9741B1218862C
:10478C007F0A02199974F71218C7120E34E97E00C9
:10479C00EEC3940A50557C0679FFEEFA7B00EA755D
:1047AC00F00EA4CAA8F075F000A428F875F00EEB72
:1047BC00A428FB74152AFA74043BFB12044AE97012
:1047CC0027EEF87900E875F00EA4C8AAF075F00091
:1047DC00A42AFA75F00EE9A42AF9741528FA7404BF
:1047EC0039FB7900120E3AE90E80A57F0102199966
:1047FC0074F61218C774FD121870EAFEEBFF9004E1
:10480C00AFE0F8A3E0F9E84970397508B17509040F
:10481C007808121ADA7508027509007808121ADA83
:10482C0075087E7509847808121ADA7CFF7DFF7A88
:10483C00017B00120C8A74061218869004AFEAF001
:10484C00A3EBF09004AFE0F8A3E0F9E849700302A1
:10485C00491DE4F508F5097808121ADA74041218DF
:10486C00BB8582088583097808121ADA7404121839
:10487C00BB8582088583097808121ADA9004B11274
:10488C001AF179029004AFE0FCA3E0FDEEFAEFFB25
:10489C00120DB07408121886E9704A8518828519B1
:1048AC0083E0FA7B0074011218BBE0F87900E4C8CD
:1048BC00F9EA28F508EB39F509E508450960267889
:1048CC0008121ADA9004AFE0F8A3E0F5838882A30B
:1048DC00A3A3A3E0FCA3E0FDEEFAEFFB1205D67454
:1048EC0002121886E9E4F508F5097808121ADA902C
:1048FC0004B1121AF17CFF7DFF9004AFE0FAA3E043
:10490C00FB120C9674041218869004AFEAF0A3EB19
:10491C00F09004AFE0F8A3E0F9E849700479018065
:10492C0002790074031218867F02021999C082C0A2
:10493C00839004ADE0F8A3E0F9E84960179004AD6A
:10494C00E0FAA3E0FB1203FCE9F89004AD7400F06C
:10495C00A37400F0900C12740AF0D083D082020180
:10496C0035C082C083E9900D00F0024B9774F712AA
:10497C0018C7E990066BF07CA37D067AFF7BFF12CB
:10498C000DC890066C74FFF0A3F0A3E4F0A3F079CB
:10499C0005120D5690066BE0F9120C727AE07B0D45
:1049AC00120F847F0102199974F41218C78A088BAC
:1049BC0009EB5480603090066BE0F912040E8A0A01
:1049CC008B0BAE0AAF0BEE4F60138E828F83E064BD
:1049DC00B07003120D68EEFAEFFB1203FCAA08E5A7
:1049EC00096480FB80047A007B00024B6674F2122F
:1049FC0018C774FC121870EAFEEBFFEE4F603874A7
:104A0C00021218BBEEF0A3EF124DCBECF0A3ED129B
:104A1C004DCBAA82AB83120C6CE9F508707374123F
:104A2C001218BB12597FE50A450B60658E828F8385
:104A3C00124AA7EE4F700575080280557A067B0066
:104A4C0012048C8A0C8B0DA80CA90DE84970057505
:104A5C000813803D88828983E4124AB1A3A3EEF047
:104A6C00A3EF125E18E50AF0A3E50BF090067112A5
:104A7C004B399006716017E0FCA3E08003EAFCEB75
:104A8C00FD8C828D83124B3970F38C828D8312587E
:104A9C00A4A908740412188602601AA3A3A3A3E0A5
:104AAC00FEA3E0FF22F0A3F0888289832274F21225
:104ABC0018C7890AE975F017A4FEAFF0900670E4E8
:104ACC00F090066E124B39600A12049290066EE456
:104ADC00F0A3F0EEFAEFFB12048C8A088B09EA457E
:104AEC0009602FEEFCEFFD79001203E490066EE5F1
:104AFC0008F0A3E509F07B008008124B23E4F0A337
:104B0C00F00BEBC3950A40F2E50A900670F07900C1
:104B1C008002791302601AEB75F017A4F8A9F090D3
:104B2C00066EE028FAA3E0398A82F5832212563AFF
:104B3C00EA4B2274F41218C77900EAA2E0501B75F4
:104B4C0008CE7509837808121ADA7C047D007A0283
:104B5C007B0D120D5074021218867F04021999C035
:104B6C0082C083900671124B9E601C88828983A33D
:104B7C00A3E06A7003A3E06B8882898370E8A3A327
:104B8C00A3A312563680047A007B00D083D0820215
:104B9C0001351260EDE8492274EE1218C774FC124C
:104BAC001870EAFEEBFF851882851983E4F0A3F0F8
:104BBC00EE2402125888EE2405124DB9EE2404F5A9
:104BCC000EEF12519EE024FE603924FC604624FE58
:104BDC00605224FE605E24FE7003024CBE24FE7004
:104BEC0003024D3624FE7003024D4524FE70030271
:104BFC004D5424FC7003024D6324FE7003024D726D
:104C0C00024DAF90068A7417F0A3E4124DD312082C
:104C1C00FA024DAF851882851983AC82AD83120DD3
:104C2C006E024D7F851882851983AC82AD83120D7F
:104C3C0074024D7F850C08850D0974021218BBACEB
:104C4C0082AD83850882850983125636120C908AB0
:104C5C000C8B0DAC0CAD0DEC4D6042E4F50CF50D70
:104C6C00780C121ADA750C8A750D06780C121ADA91
:104C7C00750C8B750D06780C121ADA74081218BBA9
:104C8C00121AF17916125630120DB07408121886D9
:104C9C00E9F50C700B12562C120912800F750C01D1
:104CAC00850882850983124DC11258A4850C08020F
:104CBC004D8274021218BBAC82AD83850C82850DBB
:104CCC0083125636120C908A108B11AC10AD11EC6D
:104CDC004D6043850C82850D83A3A3121AF17510C8
:104CEC008A7511067810121ADA75108B7511067800
:104CFC0010121ADA74081218BB121AF1791612561D
:104D0C0030120DB07408121886E9F509700B1256A2
:104D1C002C120918800F750901850C82850D8312E0
:104D2C004DC11258A4850908804C851882851983B9
:104D3C00AC82AD83120D7A803A851882851983ACCA
:104D4C0082AD83120D80802B851882851983AC82ED
:104D5C00AD83120D86801C851882851983AC82ADBB
:104D6C0083120D8C800D851882851983AC82AD83DE
:104D7C00120D92E9F508E50860298E828F83A3E075
:104D8C006414601F850E82850F83E090068A124D95
:104D9C00CB1260E990068B1258A4E508A3124DD3F0
:104DAC001208F4EEFAEFFB120D14025790F50CEF0B
:104DBC003400F50D221260ED85188285198322F0DE
:104DCC0085188285198322F07C8A7D06850A828566
:104DDC000B8312563A2274EE1218C774FC12187018
:104DEC008A0A8B0B8C0E8D0FEA2405F508EB340028
:104DFC00F5097C157D0079007A8A7B061203E4E5BF
:104E0C00082402F50CE509124DBC8518828519831E
:104E1C008582108583117810121ADA85088285092B
:104E2C0083A3A3A3A31252E6121ADAE5082405F50C
:104E3C0010E5093400F5117810121ADA850C828508
:104E4C000D83125640120C8A74061218868A108B27
:104E5C0011AE10AF11E50A2402F50AE50B12588BBE
:104E6C00EE4F7003024FA8801774021218BB125633
:104E7C003688828983EAF0A3EBF090068AE004F08E
:104E8C0090068AE0C394054003024FA8E4F510F5A0
:104E9C00117810121ADA7510737511067810121A2F
:104EAC00DA7510747511067810121ADA7406121865
:104EBC00BB121AF17910EEFCEFFD125630120DB048
:104ECC007408121886E9705E850882850983A3A38D
:104EDC00A3A3A3A3A3E0F8900673E0687048125252
:104EEC00E6121ADA7C747D06E5082408FAE5093422
:104EFC0000FB1203DE7402121886E960298E828F81
:104F0C0083A3A3A3A312563690068AE0F51074026D
:104F1C00781012185D748B2510F58274063511F516
:104F2C0083EAF0A3EBF074021218BB858210858320
:104F3C00117810121ADA74021218BB121AF1850CBD
:104F4C0082850D831260FE120C9674041218868AE8
:104F5C00108B11AE10AF1190068AE0F51075110090
:104F6C007402781012185D748A2510F874063511C5
:104F7C00F988828983A3124B397003024E6CE824A2
:104F8C0003F8E93400F9EE4F6003024E758882890C
:104F9C008374FFF0A3F090068AE004F090068AE098
:104FAC00600A12562C1209067900800B850882853E
:104FBC00098312589B790A02579074EA1218C77425
:104FCC00FE1218708C128D13EA2405F50CEB12618D
:104FDC0008124AAB750800750900EA2402F510EBBB
:104FEC003400F51185188285198385820A85830B17
:104FFC00780A121ADA850C82850D83A3A3A3A31257
:10500C0051A8121ADAE50C2405F50AE50D12588B95
:10501C00780A121ADA850C82850D831260FC120C48
:10502C008A74061218868A0A8B0BEA450B700302E7
:10503C005159EA2404F50EEB12519E124AAB8A82A6
:10504C008B83A3A3A3E0F9851082851183125636B6
:10505C00120C78E9F5096003025159E4F514F515C1
:10506C007814121ADA7514737515067814121ADA84
:10507C007514747515067814121ADA74061218BBA6
:10508C00121AF17913AC0AAD0B85108285118312BB
:10509C005636120DB07408121886E9F50960030231
:1050AC005159900673E0F8E5087009E02402900667
:1050BC008BF0801790068BE0FCE82402FAE43400B5
:1050CC00FBEA6C7001EB600302515D850882AA82D9
:1050DC001252DD94141252D55073850E82850F83B3
:1050EC00E0C0E0748C2A125195D0E0F00508850ED2
:1050FC0082850F83A3E0C0E085080A748C250A1210
:10510C005195D0E0F005089006731251A8121ADAE6
:10511C007C747D0685080A748C250AFA74063400A2
:10512C00FB1203CC7402121886900673E02508F566
:10513C000874FF6E700374FF6F6012EE24010EEFA3
:10514C003400FFE508C394145003024FF0E50860E7
:10515C001312552185108285118312563612090CB3
:10516C0079008014E509700375090A85128285138C
:10517C0083EEF0A3EFF0A90974021218867F0E02D9
:10518C00199985080C748C250CF58274063400F57D
:10519C0083223400F50F850E82F58322125E2B22BA
:1051AC0074EE1218C774FE1218708C0E8D0FEA2450
:1051BC0005F50CEB124DBC750B0090068AE4F0F56E
:1051CC000AEA2402F508EB3400F509804990068AB6
:1051DC00E0FA900673E0F81252DD94171252D540A3
:1051EC000D90068AE0F87416C398900673F012526C
:1051FC00E6121ADA7C747D06748B2AFA7406340073
:10520C00FB1203CC7402121886900673E0F8900619
:10521C008AE028F0050AE50C2416F582E50D1251FA
:10522C0099E0F8E50AC39840030252BE90068AE062
:10523C00C39416507DE50AC333F8E433F9E50C2822
:10524C00FEE50D39FF851882851983AC82AD838EFE
:10525C00828F83125636120C908A108B11AC10ADC3
:10526C0011EC4D7005750B018043E4F510F51178C8
:10527C0010121ADA7510737511067810121ADA7585
:10528C0010747511067810121ADA74061218BB1203
:10529C001AF17916850882850983125636120DB0DB
:1052AC007408121886E9F50B70030251D91258973D
:1052BC0080107C8A7D0685088285098312563612F9
:1052CC00091EA90B7402025792E99400C365D033EE
:1052DC0022EA28F8E43400F9E822E0F51075110010
:1052EC0078102274EA1218C774FC1218708A0C8B8E
:1052FC000D8C128D13EA2405F50AEB12588B7508E8
:10530C0000750900E50A2402F510E50B3400F511CF
:10531C0074021218BB85820E85830F780E121ADA6E
:10532C00850A82850B83A3A3A3A3125DD7121ADA75
:10533C00E50A2405F50EE50B3400F50F780E121A6C
:10534C00DA851082851183125891125630120C8A0C
:10535C0074061218868A0E8B0FAE0EAF0FE50C2456
:10536C0002F50EE50D3400F50F80408882898374B8
:10537C00FFF0050812518E74FFF00508900673E0DB
:10538C00F50C750D00780C121ADA7C747D06850804
:10539C000C748C250CFA74063400FB1203CC7402CA
:1053AC00121886900673E02508F508EE4F60718E92
:1053BC00828F83A3A3A3E0F9850E82850F831256F7
:1053CC0036120C78E9F509EE2404124DB9E9704453
:1053DC00E4F514F5157814121ADA751473751506AC
:1053EC007814121ADA7514747515067814121ADA00
:1053FC0074081218BB121AF17911EEFCEFFD850E30
:10540C0082850F83125636120DB07408121886E975
:10541C00F5096027850C82850D831255171258A447
:10542C00E50870030254FD125521850E82850F8309
:10543C001256361209247900025512850882AA8266
:10544C00EA9006737009E0240490068BF08022E049
:10545C00F890068BE0F514E82404FCE43400FDEC31
:10546C0065147001ED70C01252DD94121252D550B9
:10547C00B6850C82850D83E0C0E0748C2A125195A0
:10548C00D0E0F00508850C82850D83A3E0C0E01206
:10549C00518ED0E012553385820C85830D780C1219
:1054AC001ADA74041218BB121AF185108285118352
:1054BC001260FE120C9674041218868A0C8B0DAEB8
:1054CC000CAF0D85080C748C250CF874063400F99F
:1054DC00EE4F7003025377851882851983E088821A
:1054EC008983125533A3E0C0E012518ED0E00253F1
:1054FC0085E509700375090A850A82850B831255A7
:10550C00171258A4A90974040251861260ED851271
:10551C00828513832290068BE0F5F0E508849006D3
:10552C008AF07C8A7D0622F005088518828519830D
:10553C002274EC1218C774FE1218708A088B098C2E
:10554C000E8D0FEA2405FEEB3400FF8518828519B9
:10555C0083AC82AD838E828F83125636120C908A66
:10556C000A8B0BEE2418124DB9EA450B7003025648
:10557C0007125779503285188285198312563612C4
:10558C000DA48A108B11EA4511606B7912AC0AAD2F
:10559C000B85088285098312563685108285118306
:1055AC001218C5E9F50A7058E4F50AF50B780A12D9
:1055BC001ADA8E828F83A3A3E0F50A780A121ADA1C
:1055CC00EE2403125888780A121ADA8E828F83120C
:1055DC005640120DB67406121886E9F50A7021852C
:1055EC000C82850D83E0701F850882850983125615
:1055FC003612092A8011750A0E8009750A01800479
:10560C00E50A6003125897850C82850D83E06004CF
:10561C0079008002A90A74021218867F0C0219996B
:10562C007C8A7D06850A82850B8312563A22E0FA23
:10563C00A3E0FB22E0FCA3E0FD8508828509831230
:10564C00563A2274EE1218C774FE1218708A088B20
:10565C00098C0C8D0DEA2405FEEB3400FF750E0051
:10566C00851882851983AC82AD838E828F83125606
:10567C0036120C908A0A8B0BEA450B7003025765A5
:10568C001257795035851882851983125636120DAA
:10569C00A48A0E8B0FEA450F605E7912AC0AAD0B33
:1056AC00850882850983125636850E82850F8312F2
:1056BC0018C5E9F50E6003025768850882850983D1
:1056CC0012597FAA0AFB120D988A108B11A810A9E7
:1056DC0011E849701E7AFF7BFF120D988A108B110E
:1056EC00A810A911E849606C88828983E50AF0A3A7
:1056FC00E50BF0750A008007750E0E805F050A90A9
:10570C000670E0FAE50AC39A504AE50A75F017A448
:10571C00FAABF088828983A3A3E02AFAA3E03BFBCF
:10572C008A828B83125891EC4D70D2750A17750BC7
:10573C0000780A121ADAEEFCEFFD1203CC74021296
:10574C001886EEFCEFFD8508828509831256361209
:10575C0009308014750E098003750E011260E58501
:10576C000C82850D831258A4A90E0252D0E5082490
:10577C0002F508E5093400F5098A828B83A3A3A3FB
:10578C00E0A2E52274041218867F0A02199974ECBF
:10579C001218C78C108D11EA2405F50CEB124DBCB8
:1057AC00750F00EA2402F50AEB12588B850A82F574
:1057BC0083125636120D988A088B09EA4509700334
:1057CC0002587D750E008071850C82850D83E06416
:1057DC0001704F8E828F83A3A3121AF18E828F8356
:1057EC00A3A3A3A3E0F5127513007812121ADAEE34
:1057FC002405F512EF3400F5137812121ADA12564A
:10580C0030120DB67406121886E9F50F6014850C6B
:10581C0082850D83E4F01260E58510828511831278
:10582C0058A47C177D007900EEFAEFFB1203E48E8E
:10583C00828F83E4F0A3F0050E900670E0F8E50E7D
:10584C00C398501EE50E75F017A4F8A9F0850882D0
:10585C00850983A3A3126112125891EC4D600302C7
:10586C0057D485088285098374FFF0A3F0E50F7087
:10587C0006125630120936A90F025627F50AEF34D4
:10588C0000F50B22A3E0FCA3E0FD228E828F831295
:10589C0060ED850E82850F83E8F0A3E9F022C082CB
:1058AC00C08390066CE06A7003A3E06B70067A6CA0
:1058BC007B0680047A007B00024B97C082C0837801
:1058CC00008C828D83E06A7003A3E06B7010E87526
:1058DC00F003A4F8A9F0EC28FAED39FB8015088C3C
:1058EC00828D83A3A3A3E06A7003A3E06B60DF7ACD
:1058FC00007B00024B9774F61218C7120D628A8255
:10590C008B83E582458370067A007B008007A3A316
:10591C00A3A3125636025F9674F21218C7E9FE74EE
:10592C000E1218BB12597F74101218BB125DF78C33
:10593C00828D83E064027036A31260F3F50CA3E051
:10594C00F9A80C74026870037429697021750C0233
:10595C00750D00780C121ADA7808121ADA780A1215
:10596C001ADAEEF9120DDA74061218868002790131
:10597C0002601AE0F50AA3E0F50B2274E81218C7CE
:10598C0074FB121870E9851882851983F08A168BBE
:10599C0017ECFEEDFF751000741D1218BB1260E9B8
:1059AC00741D1218BB1258A48E828F83A3A3A3E07C
:1059BC00A2E4502D741D1218BB125636120DA48A77
:1059CC00828B83E58245837003025DC8790AEEFC05
:1059DC00EFFDAA16AB171218C5E9F5106003025DAE
:1059EC00CB741F1218BB125DF774211218BB12591D
:1059FC007F74231218BBE0F50EA3E0F50F8E828F97
:105A0C0083E064026003025D76A31260E98508827C
:105A1C00850983A3858212858313EE2406124DB962
:105A2C0088828983E0FAA3E0F9EA2400F514E439CA
:105A3C00F5157814121B640100002801286B5A0715
:105A4C00000228305B03289D5A0029675C012992CB
:105A5C005C0229335C0329675C0429115D765DE5E2
:105A6C000E450F6003025D71850C82850D83125DFE
:105A7C00ECFAE9FB8A828B83E0850A82850B831220
:105A8C005E22121ADA8A828B83A3E0FCA3E0025C0A
:105A9C00FBE50E450F6003025D71850A82850B8361
:105AAC007401F0125DFF850882850983F07C007D0E
:105ABC00008E828F83A3A3A3A3E02401FAA3E03476
:105ACC0000FB120C90EA4B60418A828B83E024022B
:105ADC00F8850A82850B83E028F0EA2404F8EB347D
:105AEC0000F988828983E0851282851383125E34E3
:105AFC00125E22121ADA8A828B83125890E50824DD
:105B0C0003FAE5093400FB025D00850A82850B83EC
:105B1C00E02404F07C047D007900AA12AB1312037C
:105B2C00E4025DCBE50E450F6003025D71125DFF73
