:020000040000FA
:0600000002011D0222AB0B
:03002B00022AC1E5
:03003300022AA3FB
:03003B00022B2075
:03004300022A513D
:0300530002231E67
:03006B00022AE581
:03007B000229DF78
:10008300022117E5C754F84401F5C779012200009E
:100093000080FB120086B90003020107E47921788E
:1000A30008B800028004F709D8FCE479297802B87B
:1000B30000028004F709D8FCE490028178D9790B17
:1000C3008002F0A3D8FCD9FA781A90014D7A01BACC
:1000D30000028007E493A3F608DAF9900D59AA8287
:1000E300AB8390014E782B79048015E493A3AC8203
:1000F300AD838A828B83F0A3AA82AB838C828D83A8
:10010300D8E9D9E77582297583C4740312012F7561
:100113008291758300740012012F75D000758137A9
:10012300751881751902759F00020096C09FF59F8F
:10013300E473D09F22D083D082C09FE493C0E07445
:100143000193C0E0740293F59F2201FF0000B40005
:100153000028002800283075A000A000A000A000FF
:1001630000080008E001F00010001000100010006B
:100173001000100050005000500010001000D00775
:100183000000000000000F000100050030750700AB
:100193001000010081FF00000000FF760694067C3A
:1001A30006FF02020208025000A0000000E803025A
:1001B300F184010000D88402ED84010000B00D0237
:1001C300E384010000B30202ED84010000B10D02DB
:1001D300E184010000C90202ED84010000B20D02B6
:1001E3001B85010000CB0202ED84010000B30D0268
:1001F3001185080000CC0202ED84010000B40D0259
:10020300FF84010000B50DFF0100FF2002F184010E
:100213000000D28402ED84010000190E02F584006F
:100223000000000002E9840300001903400C400CA5
:10023300400C400C400C400C400C400C400C400C5B
:10024300400C400C400CD40EEC0ECE0EFFFFE061D0
:1002530069636F2D656767110199010F12640401CA
:1002630002F184010000DB8402ED840100006A0EC8
:1002730002E7840100006B0E02E9840300008A098F
:1002830002E5840100006C0E020202020202020275
:1002930002010D000000100102F184010000398405
:1002A30002ED84010000960E02FB84010000900918
:1002B30002ED84010000970E02FD84010000CC834F
:1002C30002ED84010000980E02018501000096836F
:1002D30002ED84010000990E020385010000D28221
:1002E30002ED840100009A0E0205850100009C8244
:1002F30002ED840100009B0E020F850100008A823B
:1003030002ED840100009C0E021785010000AE82FD
:1003130002ED840100009D0E021985010000A483F3
:1003230002ED840100009E0E0221850100009F0E54
:1003330001E803053F100AFF0001307503020106BF
:1003430000000000000000000000000000000000AA
:10035300000000000000000000000000FFFF060096
:10036300800CE803140900000000000000000000F6
:1003730000000000000000000005125000B004025D
:100383000A000201060302F0FF4A140000000038CD
:100393001450140A436861726163746572697374FB
:1003A30069632031000A436861726163746572692D
:1003B3007374696320320008436861726163746512
:1003C30072697374696320330010436861726163F7
:1003D30074657269737469632034000243686172DF
:1003E3006163746572697374696320350002F18413
:1003F300010000D58402ED84010000A10F021F85D6
:10040300030000240D02EB84010000A20F02ED841F
:10041300010000B30F021585030000380D02EB84C1
:10042300010000B40F02ED84010000C50F020D8529
:10043300030000390D02EB84010000C60F02ED84B6
:10044300010000D70F020B850000004D0D02E98467
:100453000300004E0D02EB84010000D80F02ED846F
:10046300010000E90F020985040000540D02EB842A
:10047300010000EA0F120138AFB403120138C6B409
:1004830003120138F7B40312013832B503120138ED
:100493005CB50312013886B5031201389DB503120A
:1004A3000138B4B503120138CBB503120138F4B5E2
:1004B3000312013807B6031201381DB603120138BF
:1004C30030B60312013857B603120138BBB5021216
:1004D3000138BFB602120138F7B6021201381AB753
:1004E3000212013825B70212013848B70212013847
:1004F30057B8021201382CB902120138A7B90212F7
:1005030001382FBA021201386ABA02120138A1BAAD
:10051300021201382FBB0212013808BC0212013843
:1005230068BC0212013873BC02120138F2BC021219
:100533000138F5BC02120138F8BC0212013887BD3C
:10054300021201388ABD02120138BABD0212013803
:10055300E4BD02120138D2BE0212013884BF021276
:100563000138C2EC02120138EAEC0212013818ED2C
:10057300021201384FED02120138ADED02120138BB
:10058300F8ED0212013843EE0212013883EE021233
:100593000138C9EE02120138F7EE02120138B4EF46
:1005A30002120138BEEF02120138CBEF02120138FA
:1005B300FEEF02120138CAF002120138D6F002121D
:1005C3000138EEF002120138F8F0021201386BC064
:1005D3000312013879C00312013891C003120138A4
:1005E300A9C00312013871CD011201381DCE0112C9
:1005F300013898CE01120138B9CF01120138F5CF75
:10060300011201389ED00112013885D1011201383F
:10061300E9D20112013840D301120138C1D30112CA
:100623000138B1D401120138FED40112013884D546
:1006330001120138B6D501120138CAD701120138A7
:100643000CD8011201382AD801120138ADD8011291
:10065300013881D90112013849DA0112013878E0F1
:10066300021201384BE102120138F4E1021201389F
:1006730047E202120138F7E20212013883E3021261
:1006830001386FE4021201389EE402120138B1E529
:1006930002120138F9E502120138CEE602120138DE
:1006A3000AE70212013826E70212013846C3031291
:1006B3000138E19403120138F794031201381D95B0
:1006C3000312013839960312013843960312013895
:1006D3007897031201387098031201389BE70212CE
:1006E3000138CBE802120138FEE80212013848E96A
:1006F300021201380FEB021201384AAE011201381F
:10070300B4AE0112013813B00112013823B0011243
:10071300013850B001120138A7B00112013850B1AD
:100723000112013857B20112013821B30112013805
:1007330081B401120138C4B40112013869B5011240
:100743000138B6B501120138DCB501120138EAB738
:1007530001120138EFB701120138F4B9011201385F
:1007630041BA01120138B4BA01120138E7BA0112D1
:10077300013889BB0112013832BC011201386ABC4D
:10078300011201386DBC01120138B5BC01120138E8
:10079300F5BC011201384CBD01120138ADA10312A1
:1007A3000138C5A1031201380DA20312013823A297
:1007B300031201386AA2031201387EA3031201381F
:1007C3000BA40312013856A403120138942B001210
:1007D3000138A02B00120138DB2B00120138202C2A
:1007E30000120138E02C00120138662D0012013886
:1007F300CB2D00120138F72D00120138302E0012D4
:1008030001386E3000120138523200120138383488
:10081300001201387B3500120138C9370012013844
:10082300DB3800120138263A00120138363B001239
:100833000138533B001201388E3B00120138B03BA4
:1008430000120138133C00120138D4400012013861
:10085300694100120138BA4100120138E141001226
:100863000138334200120138514200120138AB42C1
:10087300001201389443001201380A45001201386E
:100883008E450012013819F60212013823F60212BE
:10089300013866F60212013881F60212013811F7A7
:1008A3000212013839F70212013876F702120138C1
:1008B300ADF702120138D6F7021201384BF80212D3
:1008C300013860F80212013875F802120138A6F8EF
:1008D30002120138BAF802120138DFF802120138A5
:1008E30019F90212013845F902120138C8F9021246
:1008F300013811FA021201383BFA0212013866FA82
:1009030002120138C17E00120138E8A80212013830
:1009130016A90212013864AA0212013844AB02126A
:10092300013863AB02120138E0AB0212013823AC89
:100933000212013879AD021201383AAE02120138BF
:10094300C1B00212013862B10212013858B2021268
:10095300013855B302120138AFB4021201383AB567
:1009630002120138E1BC031201384ABD03120138F7
:100973009EBD03120138C5BD03120138F6BD031233
:1009830001388EFA02120138FBFA0212013842FBD7
:10099300021201385AFC0212013856FD02120138C4
:1009A30039FE02120138F5BF0212013837C00212B4
:1009B300013809C102120138E2C102120138DCC256
:1009C30002120138BEC30212013827C402120138D1
:1009D300DDC40212013851C502120138BDC502122D
:1009E3000138E6C50212013860C602120138F9C6A1
:1009F300021201385EC70212013873C702120138AE
:100A0300B9C702120138D2C70212013837C802121D
:100A130001383AC802120138B49E03120138DC9E31
:100A2300031201381A9F03120138D89F03120138A9
:100A33003FA0031201385BA00312013883A0031205
:100A43000138B3A003120138C2A0031201383FA139
:100A53000312013865A10312013839BE01120138AE
:100A630017C00112013849C20112013885C20112AF
:100A73000138B2C2011201389CC301120138E7C325
:100A83000112013832C40112013844C40112013881
:100A930084C401120138B9C40112013807C5011217
:100AA300013836C50112013859C501120138A6C5EE
:100AB300011201382BC60112013845C80112013851
:100AC30084CA01120138C5CA0112013867CC011268
:100AD3000138A8CC011201381BCD01120138D39B78
:100AE30002120138D19C021201386AA302120138A2
:100AF3008BA50212013856A702120138BEA80212B2
:100B03000138F54500120138A44600120138D146D8
:100B130000120138174700120138574800120138F4
:100B2300ED4900120138674A00120138824A001267
:100B33000138FD4A00120138574C00120138B74DF5
:100B430000120138BD4E001201381E500012013848
:100B530037500012013895500012013883510012AA
:100B63000138B65100120138265200120138A05242
:100B730000120138EA5200120138B453001201384E
:100B8300895400120138685500120138F3550012D8
:100B93000138615600120138D5560012013800574A
:100BA30000120138BF5700120138245900120138CE
:100BB300415900120138605900120138515A00128C
:100BC3000138765A00120138A05A001201381B5B13
:100BD30000120138755B00120138DE5C0012013827
:100BE3008C5D00120138CD5D00120138FF8D0212B9
:100BF30001384D8E02120138598E02120138378F97
:100C030002120138688F02120138998F02120138DB
:100C1300199002120138519002120138A390021266
:100C23000138E09002120138FD9202120138239537
:100C3300021201380E9702120138F8980212013895
:100C4300F7FF01120138379A01120138679A01122E
:100C5300013840A101120138C5A201120138C2A80E
:100C630001120138AAA901120138E7A901120138BA
:100C73000AAA011201383BAA0112013844AA01123F
:100C830001384EAA011201383CAB0112013832ACD3
:100C93000112013828850112013827890112013810
:100CA3002D890112013868900112013881950112D2
:100CB3000138139103120138A99103120138BF912E
:100CC30003120138359203120138A9920312013835
:100CD300E792031201385B9303120138D493031292
:100CE3000138DD9303120138E99303120138FE93AF
:100CF300031201383C940312013852940312013851
:100D0300B19403120138AA8803120138B788031279
:100D13000138D188031201381089031201384E8932
:100D230003120138B38903120138C8890312013849
:100D3300D38903120138E08903120138F7890312BA
:100D43000138058A03120138108A031201381C8AFC
:100D5300031201382B8A03120138368A0312013831
:100D6300598A03120138008B03120138108B0312C6
:100D730001382A8B03120138478B03120138638B26
:100D830003120138888B03120138938B0312013845
:100D9300A88B03120138BC8B031201381D8C03127C
:100DA3000138238C03120138298C031201382F8C4C
:100DB30003120138478C031201387A8C031201386D
:100DC300D3EA0112013857EB0112013806EC011284
:100DD300013865ED0112013886EF0112013872F016
:100DE30001120138A7F001120138C9F001120138CC
:100DF30078F10112013870F30112013899F30112ED
:100E030001382BF4011201385DF4011201386AF440
:100E130001120138C1F401120138E7F4011201385B
:100E230054F70112013857F801120138AFF80112D3
:100E3300013862DC011201386CDD0112013853DE26
:100E4300011201385DDE011201387FDE0112013823
:100E53008BDE0112013824E00112013853E0011244
:100E630001386FE101120138C8E1011201382EE3A4
:100E7300011201380DE40112013869E4011201384D
:100E8300D6E40112013811E50112013850E50112CF
:100E9300013809E80112013823E801120138AFE8EB
:100EA30001120138BDE80112013816E901120138B7
:100EB30024E90112013897E901120138FBE9011213
:100EC300013845EA01120138937300120138B573F2
:100ED30000120138DB7500120138F0780012013876
:100EE300087A00120138BB7A001201389D7B001288
:100EF300013869B6031201388EB60312013800B700
:100F030003120138FED80212013807D90212013840
:100F130010D902120138E7D90212013898DB021204
:100F23000138CEDB0212013808DC021201383EDC44
:100F33000212013878DC02120138ACDC02120138EB
:100F4300D8DC0212013821DD021201385BDD021206
:100F53000138A4DD02120138FCDD0212013831DE52
:100F6300021201388CDE02120138C6DE0212013889
:100F730017DF021201384DDF0212013887DF021238
:100F83000138B5DF02120138D8DF0212013803C27B
:100F9300031201382FC2031201388AC20312013827
:100FA30094C203120138A4C2031201385EC80212AC
:100FB300013868C802120138A6C802120138EFC806
:100FC3000212013829C90212013883C902120138F9
:100FD300A4C9021201387CCC0212013885CC02125A
:100FE3000138D2CC02120138FBCC0212013805CDF4
:100FF3000212013871CD0212013803CE02120138F8
:101003004DCE0212013883CE021201380FCF0212E5
:10101300013850CF0212013887CF0212013899CF1D
:1010230002120138B8CF02120138C1CF02120138BF
:101033008ED002120138FBFE02120138BEB2031237
:101043000138F4B2031201382AB30312013875B41C
:1010530003120138AEC203120138C4C203120138AD
:10106300CEC20312013818C303120138CAC30312D4
:1010730001387FF10212013894F10212013844F26F
:101083000212013884F2021201389DF20212013871
:10109300D8F20212013825F30212013857F3021273
:1010A300013899F3021201389AF5021201380CF64D
:1010B3000212013852BB031201387BBB0312013801
:1010C300AABB0312013842BC031201385ABC0312F3
:1010D30001389CBC03120138B9B003120138C2B005
:1010E3000312013833B10312013847B10312013837
:1010F3009CB203120138DFFF01120138A89B0312CF
:101103000138549C03120138349D031201389B9D0E
:10111300031201384CA7031201387CA703120138CC
:10112300B3A7031201385EA80312013800A9031202
:10113300013880A403120138A5A403120138CFA4F7
:101143000312013881C403120138FD5D0012013816
:10115300626000120138036200120138B7620012A4
:1011630001384A6300120138CF6300120138F46377
:10117300001201384A6700120138D06700120138A3
:101183000369001201383D690012013872690012C7
:101193000138326B001201388F6B00120138D86BA3
:1011A30000120138436C00120138B46C001201388C
:1011B300E66C00120138FE6C00120138476E001213
:1011C3000138576E00120138726F00120138946FA4
:1011D30000120138CA6F001201387E710012013803
:1011E3000B72001201384A72001201386E7300123A
:1011F300013842C10312013853C103120138F8C147
:101203000312013822C50312013861C503120138E4
:10121300F5C5031201387FBF031201388FBF0312D4
:101223000138AABF031201385EC003120138CDA9E9
:1012330003120138FEA903120138E8AB0312013887
:10124300DBFE0112013860FF01120138C6FF0112F3
:1012530001383CBE0312013870BE0312013899BE37
:101263000312013810BF03120138B0B90312013859
:10127300D9B9031201383FBA031201385FBA031216
:101283000138B0BA031201380BBB0312013845BB56
:101293000312013848BB031201385C84031201387E
:1012A3009584031201380785031201381C85031244
:1012B3000138478603120138C38603120138898730
:1012C30003120138A88703120138CF8703120138AC
:1012D3000C8803120138248803120138758803121D
:1012E3000138F78C031201380E8D03120138888DF3
:1012F300031201386C8E0312013843900312013834
:10130300A89003120138FF9003120138D7C40312C7
:101313000138F87F001201382FAC03120138CAAD2F
:10132300031201382BAE0312013871AE03120138D8
:101333007A98031201381599031201389999031207
:1013430001385B9A03120138D09A03120138F89AD4
:1013530003120138019B03120138719B03120138F8
:10136300899B03120138929B03120138A59B031238
:1013730001380EB80312013860B803120138EAB815
:101383000312013851B90312013874AE0312013844
:101393009EAE031201386CAF0312013847B003123B
:1013A3000138BCD00212013883D102120138BAD1FC
:1013B30002120138E4D10212013844D20212013878
:1013C3009AD202120138FFD20212013897D30212C5
:1013D3000138A6D4021201383DD602120138CAD60A
:1013E3000212013831D70212013848D702120138EC
:1013F30062D802120138A0D802120138008002120A
:10140300013881830212013809850212013860858F
:10141300021201387F8502120138FD85021201385C
:10142300938702120138788802120138868C0212DF
:1014330001385C8D02120138FDF80112013870F990
:101443000112013883FB01120138B8FC0112013883
:10145300E9FD011201385AFE01120138008003121E
:101463000138458003120138628003120138278155
:101473000312013890810312013874820312013878
:10148300238403120138A1C5031201386BC503126B
:101493000138CDC503120138DA7F00E06670100809
:1014A300A3E066700A08A3E066700408A3E066225E
:1014B300C3E7960809E7960809E7960809E796221D
:1014C300C3E09608A3E09608A3E09608A3E096225B
:1014D300C008C3E096F50808A3E096420808A3E015
:1014E30096420808A3E09645087001D3D008220865
:1014F3000808EAC0E0EBC0E086F0E7A4FA18098622
:10150300F0E7A42AFA180986F0E7A42AFA1809864C
:10151300F0E7A42AFA1986F0E7A4FBE5F02AFA1902
:101523000886F0E7A42BFBE5F03AFA190886F0E702
:10153300A42BFBE5F03AFA18180986F0E7A4C5F0E6
:101543002BFBE43AFA1908E7C5F0C6A426F6E5F042
:101553003BFBE43AFA1886F0E7A4F6E5F00826F632
:10156300E43B08F6E43A08F6D0E0FBD0E0FA22E4E4
:10157300CFC0E0E4CEC0E0E4CDC0E0E4CCC0E07591
:10158300F020C3E633F608E633F608E633F608E65A
:1015930033F6181818EC33FCED33FDEE33FEEF335E
:1015A300FFC3EC9709ED9709EE9709EF97191919FE
:1015B300400FFFEC97FC09ED97FD09EE97FE191913
:1015C30006D5F0BEECF709EDF709EEF709EFF719C9
:1015D3001919D0E0FCD0E0FDD0E0FED0E0FF22609E
:1015E30016080808C6C313C618C613C618C613C6FA
:1015F30018C613C6D5E0EA22700908080822601647
:10160300181818C6C333C608C633C608C633C60877
:10161300C633C6D5E0EA22E627F60809E637F60818
:1016230009E637F60809E637F622E026F608A3E0CE
:1016330036F608A3E036F608A3E036F622E026F0F5
:1016430008A3E036F008A3E036F008A3E036F02262
:10165300C3E697F60809E697F60809E697F6080938
:10166300E697F622C3E096F008A3E096F008A3E01D
:1016730096F008A3E096F022E657F60809E657F637
:101683000809E657F60809E657F622E056F608A3D6
:10169300E056F608A3E056F608A3E056F622E05615
:1016A300F008A3E056F008A3E056F008A3E056F0D4
:1016B30022E0F608A3E0F608A3E0F608A3E0F6228A
:1016C300E6F008A3E6F008A3E6F008A3E6F022E0BC
:1016D300FAA3E0FBA3E0FCA3E0FD22EAF0A3EBF016
:1016E300A3ECF0A3EDF022CAC0E0E6F0A308DAFA17
:1016F300D0E0FA22CAC0E0E0A3C582CCC582C5838C
:10170300CDC583F0A3C582CCC582C583CDC583DA9D
:10171300E6D0E0CA22C3E498F8E499F91217598095
:1017230026C3E49AFAE49BFBE920E7E9121759E49C
:1017330098F8E499F922C3E498F8E499F91217594F
:10174300E498F8E499F9C3E49AFAE49BFB22EB20CA
:10175300E7CFE920E7E0B90010BB0008E88AF0848E
:10176300F8AAF022E4FBC8FA22EB70227B10C833FC
:10177300C8C933C9335007C39AC3DBF280069A50F2
:10178300012ADBEAC833F4C8C933F4C9FA2275F075
:1017930008E4C833C8C933C933C99AC99B5004C9BB
:1017A3002AC93BD5F0ECFBC833F4C8E4C9FA22607C
:1017B3000D08C6A2E713C618C613C6D5E0F3226008
:1017C3000C08C6C313C618C613C6D5E0F4227004AA
:1017D30022600D18C6C333C608C633C6D5E0F41855
:1017E30022251810AF08F518400215198008F518BE
:1017F30040021519D2AF22C0D0251810AF08F51832
:10180300500205198008F51850020519D2AFD0D03F
:10181300222518F58210AF08F51840021519800823
:10182300F51840021519D2AF851983222518F582C0
:10183300E43519F58322E4732518C582C0E0E51960
:1018430034FFC583C0E0E518C3958224F810AF08C0
:101853008583198582188008858319858218D2AFFC
:10186300CEF0A3E520F0A37808E608F0A3DEFAEFB4
:10187300F0A3E58124FAF8E608F0A3E608F0A3E66E
:1018830008F0A30808E608F0A3E608F0A3158115FD
:1018930081D0E0FED0E0F8158115811581E8C0E024
:1018A300EEC0E0222518C582C0E0E51934FFC583E8
:1018B300C0E0E518C3958224F910AF088583198524
:1018C30082188008858319858218D2AFCEF0A3E5EC
:1018D30020F0A37808E608F0A3DEFAEFF0A3E58191
:1018E30024FBF8E608F0A3E608F0A30808E608F0EE
:1018F300A3E608F0A315811581D0E0FED0E0F8152A
:10190300811581E8C0E0EEC0E02285198385188245
:10191300E0A3FEE0A3F5207808E0A3F608DFFAE0F1
:10192300A3FFE0A3C0E0E0A3C0E0E0A3C0E0E0A326
:10193300C0E0E0A3C0E010AF08858218858319805A
:1019430008858218858319D2AFD083D082020135EE
:10195300851983851882E0A3FEE0A3F5207808E0CB
:10196300A3F608DFFAE0A3FFE0A3C0E0E0A3C0E032
:10197300E0A3C0E0E0A3C0E010AF08858218858330
:10198300198008858218858319D2AFD083D082222B
:10199300C0D02518C582C0E0E51934FFC583C0E077
:1019A300E518C3958224F310AF088583198582183F
:1019B3008008858319858218D2AFC8F0A3E9F0A304
:1019C300EAF0A3EBF0A37908E709F0A3D8FAECF067
:1019D300A3EDF0A3EEF0A3EFF0A3D0E0F0A3D0E0EB
:1019E300F0A3D0E0F0A3E520F0A3E5F0F0A3228577
:1019F3001983851882E0C0E0A3E0F9A3E0FAA3E02D
:101A0300FBA37808E0F608A3DFFAE0FCA3E0FDA35C
:101A1300E0FEA3E0FFA3E0C0E0A3E0C0E0A3E0F5A5
:101A2300D0A3E0F520A3E0A3F5F010AF0885831958
:101A33008582188008858319858218D2AFD082D019
:101A430083D0E0F8D0E0327404800674028002741C
:101A530001C0E0F404121814D0E01216EA22740450
:101A6300800474028000CCC0E0EDC0E0E518C39CA4
:101A7300CCAD1950011D10AF068C188D1980068C42
:101A8300188D19D2AF1216F7D0E0FDD0E0FC22D0AA
:101A930083D082E9C0E0E493A3C386F0C5F095F058
:101AA300F908E493A386F0C5F095F0700BE493A3D3
:101AB300C3994005E9048002A3E475F002A42582DA
:101AC300F582E5F03583F583D0E0F9E493A3C0E034
:101AD300E493C0E022D083D082ECC0E0EDC0E0E428
:101AE30093A3FCE493A3FDED4C600D121B24EC24A3
:101AF300FFFCED34FFFD80EFE493A3FCE493A3FD2F
:101B0300ED4C600D121B63EC24FFFCED34FFFD80F4
:101B1300EFD0E0FDD0E0FCE493A3C0E0E493C0E0A9
:101B230022C0E0C3E49396087401939618400FE42F
:101B33009366700808740193661870007019A3A364
:101B4300C3E49396087401939618A3A3400DD0E0C1
:101B5300D0E0D0E0021B14A3A3A3A3A3A3D0E0224D
:101B6300C0E0C0F088F0E4936670080874019366DF
:101B7300187000A8F0A3A3700BD0F0D0E0D0E0D091
:0B1B8300E0021B14A3A3D0F0D0E0226E
:101B900074F51218A7EAFEEBFFEE2434F8EF3400D8
:101BA000F988088909EE2435F582EF3400F583E0E1
:101BB000F8EE2437F582EF3400F583E0F50AEC8582
:101BC0000AF0A4FCAAF0850AF0EDA42AFDE82CF89E
:101BD000E43DF97A257B00121759EA8508828509C8
:101BE00083F0F8740758F97401B900028004C33314
:101BF000D9FCFAE8131313541FF8EE28F8EF340059
:101C0000F9E8245DF582E93400F583E05A6008EED6
:101C10002434F582EF802CEE2434F582EF3400F585
:101C200083E0C0E0EE2436F582EF3400F583E0F582
:101C3000F0D0E084A8F0EE28F8EF3400F9E824387A
:101C4000F582E93400F583E0F97F0402195374F555
:101C50001218A7EAFEEBFFEE2434F582EF3400F50C
:101C600083E0C0E0EE2435F582EF3400F583D0E068
:101C7000F08E828F83A3A3A3A3A3A3A3C082C08358
:101C80008E828F83A3A3A3A3A3E0F8A3E0F9D0835C
:101C9000D082E0C398F508A3E099F509EE247FF51A
:101CA00082EF3400F583E064017069EE2480F582F0
:101CB000EF3400F583E0F8A3E0F98E828F83A3A3CD
:101CC000A3A3A3A3A3E0FCA3E0FD8E828F83A3A321
:101CD000A3A3A3E0FAA3E0FBC3EA9CEB9D5010C3CF
:101CE000EC98ED99402EC3EA98EB995027800EC3EB
:101CF000EA98EB994007C3EC98ED9940177CDC7D9E
:101D000004EEFAEFFB120B9EEE247FF582EF340017
:101D1000F583E4F0EE2434F8EF3400F9E8FCE9FD53
:101D2000EE2435F582EF3400F583E0F8EE2437F544
:101D300082EF3400F583E0F50AE508850AF0A4F5A2
:101D400008AAF0850AF0E509A42AF509E82508F8AB
:101D5000E43509F97A257B00121759EA8C828D83C4
:101D6000F0F8740758F97401B900028004C333D93C
:101D7000FCFAE8131313541FF8EE28F8EF3400F9B7
:101D8000E8245DF582E93400F583E05A6008EE242A
:101D900034F582EF802CEE2434F582EF3400F583A5
:101DA000E0C0E0EE2436F582EF3400F583E0F5F094
:101DB000D0E084A8F0EE28F8EF3400F9E82438F5F4
:101DC00082E93400F583E0F91229CB021C49C08274
:101DD000C083851882851983E0F8A3E0F9C3EA9CE3
:101DE000EB9D5010C3EC98ED99401BC3EA98EB991A
:101DF0005014800EC3EA98EB994007C3EC98ED9914
:101E00004004790180027900D083D08222EAC39C09
:101E1000FAEB9DFB2274EF1218A79003A2E064086E
:101E20006005E06407702A9061C8E060249003D0E8
:101E3000E0F4601DE0F875F003A4C8AAF02AF97474
:101E4000D228FE740339FF8E828F83A3A3A3E07090
:101E500003021F45906060E0C0E0EE2468F582EF69
:101E60003400F583D0E0F0750C45750D057508005C
:101E7000750900E5D914F50AE5D95403F50E601784
:101E80007403650E605CE50A6010EE2467F582EF6E
:101E90003400F583E07003021F2A900540E06401DE
:101EA000602AEE2482F582EF3400F583E060047846
:101EB0000480027800850A08E508C398FA95E0FBDB
:101EC000120A6C8A088B09EA45097005120DA28076
:101ED00074EE2482F582EF3400F583E070048A0CFE
:101EE0008B0DE50A6012850C82850D83F50BE5D913
:101EF000F0A3150BE50B70F6EE2482F582EF3400AB
:101F0000F583E0604474FC250AF50A780C121A4E39
:101F1000AC0AA90EEEFAEFFB120C3A74021217FA91
:101F2000E97026AA08AB09121378793D8E828F8357
:101F3000A3A3A3A3E0FA7B00120940EEFAEFFB1281
:101F40000BB6120C4C790080747403650E605685D4
:101F50000A107511007810121A4EAC0CAD0DAA08BB
:101F6000AB09120C1674021217FAEE2468F582EF10
:101F70003400F583E064807004747F8001E0F50C28
:101F8000780C121A52E50EF50C780C121A52A90AA6
:101F9000AC08AD099003D0E0FA7B0012090474028A
:101FA0001217FA80139003A2E06408600BAC0CAD2A
:101FB0000DEEFAEFFB120CA6120DAE79017F0A02AC
:101FC000195374F51218A774FC1217E4EAFEEBFF1C
:101FD0008908A2AFE433F509C2AF806AEE2463F842
:101FE000EF3400F97A007B00A2AFE433F50AC2AF08
:101FF00088828983E0FCA3E0FDEC4D603A88828909
:1020000083E0FAA3E0FB8A828B83E0FCA3E0FD88F7
:10201000828983ECF0A3EDF08A828B83E4F0A3F055
:1020200088828983E0FCA3E0FDEC4D700A888289F8
:1020300083A3A3E4F0A3F0E50AA2E092AF12137821
:102040009004E3E004F0EE2463F582EF3400F583BE
:10205000E0F8A3E0F9E849603DEE2463F582EF344F
:1020600000F583E02402FAA3E03400FBEA2402F541
:102070000AEB3400F50B780A121A4E8A828B83E041
:10208000FCA3E0F9EEFAEFFB120BDA74021217FA76
:10209000E97003021FDC9004E3E060639004E4E075
:1020A000F89004E3E0C398500C74026508705090F7
:1020B00004E5E0604A8E828F83A3A3A3A3E0851882
:1020C00082851983F0A3E4F09004E3E0F87402122F
:1020D000182FE8F0A3E4F09004E3E0F89004E2E0C5
:1020E00028F0740212182FAC82AD838518828519EE
:1020F00083AA82AB8379011209109004E3E4F0E52E
:1021000009A2E092AF74041217FA021C4900000001
:102110008521878522C622C0E0C0D0E8C0E0E9C0A2
:10212000E0EAC0E0EBC0E0ECC0E0EDC0E0EEC0E013
:10213000C008C009C00AC00BC082C083C0F0A2AFF3
:10214000E433FEC2AF759B00906182E0A2E05012C2
:10215000E591A2E0500C7591FE74016521700312A7
:102160001E15E0A2E55051E591A2E5504B7591DFB7
:102170009003A2E064076005E064087023740165C1
:1021800021703579019003D0E0FA75F003A4CAA854
:10219000F028FB74D22AFA74033BFB121FC280188A
:1021A000E0640D70139003C4E004F064287002E44E
:1021B000F07A00E0F9120DB4906182E0A2E64003EB
:1021C00002225EE591A2E6400302225E7591BF9075
:1021D00003A2E064057008120CDC120CE880031204
:1021E0000CE2752100120D42E99003A3F079001270
:1021F0000D36120B147A017B009003A1E0F9121046
:102200000C907803E064427055900544E014F0703F
:102210004DC2AF12221600782AD0E0F618D0E0F6B0
:10222000E59F540770057509FF800375097FC4C0D9
:10223000E07829E6F50808E65509F509740B7808F1
:102240001217C2D0E02508F8906270E0A2E740F8CB
:10225000E8C333906272F0906270E0D2E0F0906177
:1022600081E0A2E35009E5E9A2E3500375E9F7A391
:10227000E0A2E75009E591A2E7500375917FEEA235
:10228000E092AFD0F0D083D082D00BD00AD009D06A
:1022900008D0E0FED0E0FDD0E0FCD0E0FBD0E0FADA
:1022A000D0E0F9D0E0F8D0D0D0E032C0E0C0D0C06B
:1022B00082C083906183E0A2E05009E5BFA2E050B4
:1022C0000375BFFEE0A2E15009E5BFA2E15003752E
:1022D000BFFDE0A2E25009E5BFA2E2500375BFFBDB
:1022E000E0A2E35009E5BFA2E3500375BFF7E0A207
:1022F000E45009E5BFA2E4500375BFEFE0A2E5504A
:1023000009E5BFA2E5500375BFDFE0A2E65009E58D
:10231000BFA2E6500375BFBFD083D0828088C0E0E3
:10232000C0D0E8C0E0E9C0E0EAC0E0EBC0E0ECC04B
:10233000E0EDC0E0C0F0E5A7A2E6500FE5A1A2E6FF
:10234000500953A7BF75A1BF122383E5A7A2E5508B
:102350000CE5A1A2E5500653A7DF75A1DFE5A7A212
:10236000E15009E5A1A2E1500375A1FDE5A7A2E2B4
:10237000500CE5A1A2E2500653A7FB75A1FBD0F0DB
:1023800002229474F81218A77521019003A2E06448
:10239000067015120C6A8A828B83A3A3A3A3A3A33E
:1023A000E0FAA3E0FB120CCAA2AFE433FED2AF9076
:1023B00003A8E0640170187A207B009003A1E0F983
:1023C0001210967A207B009003A1E0F9121012906F
:1023D0006182E0D2E6F0900541E0602185C622806E
:1023E000169003A7E064017008E5C654F84405F5AB
:1023F000C653BEFC1221107401652160E4EEA2E018
:1024000092AF7F01021953008E238F248582288585
:102410008327851882851983E0CEA3E0CF852882A3
:10242000852783EBC9EAC8EDCBECCA75F010C3E889
:1024300033C8E933C9EA33CAEB33CBC3EA9EF52686
:10244000EB9FF525B35004AB25AA26EC33CCED3336
:10245000CDD5F0DAAE23AF242274E91218A774F8B0
:102460001217E4851882851983ECF0A3EDF08A0831
:102470008B099003A2E024F7C39405500675080168
:102480000225F0120C6A8A0A8B0BAE0AAF0BEE4FD4
:1024900070030225EDAC08AD09740212182FAA8250
:1024A000AB83120CFA8E828F83A3A3750CFF750D7C
:1024B000FF750EFF750F00780C12168E740212183D
:1024C0002F7510FF7511FF7512FF7513007810122C
:1024D000168E780C79101214B3502A780C791012D9
:1024E00016537508017509C8750A00750B00780840
:1024F000790C1214B35052850C08850D09850E0A0B
:10250000850F0B80507514017515C8751600751769
:102510000085100885110985120A85130B78087942
:102520000C121653781479081214B3401C75080065
:10253000750900750A00750B017808791012165399
:102540007808790C12161A800C7508017509007547
:102550000A00750B00740978081215FB750C19F543
:102560000DF50EF50F7808790C1215728E828F8397
:10257000A3A3A3A3A3A3E0F8A3E0F97AD07B03125B
:102580001759880C890DE4F50EF50F7808790C12AF
:10259000161A740612182FE0F8A3E0F97AD07B031C
:1025A000121759E8FA8A0CE4F50D7808790C121420
:1025B000B350077808790C1216539003A2E0640810
:1025C000600AE064066005E06405702D750C0D7806
:1025D0000C79081214B34021750CF4750DFF750EBB
:1025E000FF750FFF7808790C12161A800C75080019
:1025F000750900750A00750B00851882851983E03E
:10260000F8A3E0F583888278081216C374081217BD
:10261000FA7F1002195374F71218A7120D0C9005C7
:102620003FE064017010906245E4F0A3F053F4F3CE
:1026300043FE0C5390F3120CB8E5C654804449F5A0
:10264000C6E59E547F644970F8906185740FF090E0
:10265000053DE0F47002A3E0604E90053EE06008A6
:1026600014601B14602E80407508017509009005E8
:102670003DE078081217D1E508F45280802A7508E9
:102680000175090090053DE078081217D1E508F4BE
:102690005290801475080175090090053DE0780896
:1026A0001217D1E508F452A079007F020219537481
:1026B000F71218A7E9FEEAFF74016E700C7A807BAE
:1026C000009003A1E0F912100C902B8CE493F460BD
:1026D00008E493F9120B08800953C680E59E547FE5
:1026E00070FA120CBE90053FE064017003120B20DB
:1026F00090053DE0F47002A3E0604B90053EE06081
:102700000814601A14602C803D750801750900904A
:10271000053DE078081217D1E50842808028750849
:102720000175090090053DE078081217D1E50842CF
:1027300090801375080175090090053DE078081236
:1027400017D1E50842A0120D0C120C6A8A088B09F9
:10275000A808A909E8496015E5E170FCE82414F52A
:1027600082E93400F583E0F46003E0F5E174016F81
:10277000700A7A019003A1E0F91210600226AA748F
:10278000ED1218A78A088B098C0A8D0B7413121886
:102790002F780C1216B47808790C1214B375100146
:1027A0007511C875120075130050127808790C1253
:1027B0001653781079081214B350168010780C79DB
:1027C000081216537810790C1214B3400479018062
:1027D0000279007F0C02195374ED1218A78A088B36
:1027E000098C0A8D0B741312182F780C1216B478FA
:1027F0000C79081214B340117808790C121653AAF8
:1028000008AB09AC0AAD0B8022751000751100757C
:1028100012007513017810790C121653781079088C
:1028200012161AAA10AB11AC12AD1380A68A828BB5
:10283000837508FF7509FF750AFF750B007808128C
:1028400016A17F0402195374F51218A78C828D8388
:1028500078081216B48A828B837808121667EA24E5
:1028600004F8EB3400F98C828D83A3A3A3A3E0FCCE
:10287000A3E0FD88828983C3E09CF0A3E09DF088FB
:10288000828983C3E09420A3E0944E40268A828B01
:10289000837508FF7509FF750AFF750BFF7808122D
:1028A00016408A828B83A3A3A3A3E02420F0A3E095
:1028B000344EF002282D74F51218A7E9FE9004F7A3
:1028C000E0FAA3E0FBEEC333F8E433F9744728F5EC
:1028D00082748339F583E02AF508A3E03BF5097893
:1028E00008121A4E7A407B427C0F7D001224087435
:1028F000021217FA8A088B098C0A8D0B741078085B
:102900001215E2AA08AB097F0402195374F11218D8
:10291000A78A0C8B0D8C0E8D0F740F12182FE0FAF6
:10292000A3E0FB741112182FE0F508A3E0F5097875
:1029300008121A4EEA2401F508EB3400F509E4F513
:102940000AF50B780C79081214F2750871750902F2
:10295000780C79081214F2AA0CAB0DAC0EAD0F1264
:10296000240874021217FA8B09EA450960047A01F7
:1029700080027A00EC2AFCED3400FD741312182F4B
:10298000E0F8A3E0F9E8FEE9FFECF8EDF97A717BF5
:1029900002121759880889098E828F8378081216C7
:1029A000C3ECF8EDF97A717B021217598A088B098A
:1029B000740578081217D18E828F83A3A3A3A3E591
:1029C00008F0A3E509F07F08021953C082C083E92B
:1029D000906000F0D083D08222C2AF02000022C0FB
:1029E000E074EB12199374F91217E4538AFE908481
:1029F000A278081216B4900963780812164090095C
:102A00006378081216B49084A6780C1216B478086D
:102A1000790C121572E50C450D450E450F70269088
:102A2000844AC082851882851983AC82AD83758300
:102A300084D08274071216F7851882851983AA82BA
:102A4000AB8312122EC2EB74071217FA7F08021919
:102A5000F2C0E074F2121993A2AFE433FED2AFC217
:102A6000C0E5D1A2E4500653D1EF12136C751A00E1
:102A7000EEA2E092AF7F010219F2C0E074F21219E7
:102A800093A2AFE433FED2AFE589A2E15003121264
:102A900088758900C2C5751A00EEA2E092AF7F0169
:102AA0000219F2C0E074F2121993A2AFE433FED21D
:102AB000AFE58BA2E05003121288758B00C2E8804C
:102AC000D5C0E0C0D0E8C0E0E9C0E0E5A8D2AFC220
:102AD000C7751A00A2E7A2E792AFD0E0F9D0E0F8FC
:102AE000D0D0D0E032C0E074F2121993A2AFE43338
:102AF000FED2AF758900C2C5900AAE7401F0751A96
:102B000000FA900A7BE0F9121060900C32E0F8A312
:102B1000E0687002D285EEA2E092AF7F010219F266
:102B2000C0E0C0D0E8C0E0E9C0E0C008C009C08291
:102B3000C083A2AFE433F9D2AF900C32E0F8A3E047
:102B4000687008539AFBA374018026C2E9900C3286
:102B5000E0F50874012508F074B22508F582740BBD
:102B60003400F583E0F5C1900C32E0C3948040025C
:102B7000E4F0E9A2E092AFD083D082D009D008D0AF
:0A2B8000E0F9D0E0F8D0D0D0E03248
:102B8C00FFFFFFFFFFFFFFFFC082C083E9900E181D
:102B9C00F0022E2374F712183BE99002E1F07C1935
:102BAC007D037AFF7BFF12085C9002E274FFF0A3B6
:102BBC00F0A3E4F0A3F079051207E49002E1E0F948
:102BCC001207067A7A7B08120A1E7F0102190D740D
:102BDC00F412183B8A088B09EB548060309002E1A8
:102BEC00E0F9120FF48A0A8B0BAE0AAF0BEE4F60B2
:102BFC00138E828F83E064B070031207FCEEFAEF41
:102C0C00FB120FE2AA08E5096480FB80047A007BC2
:102C1C0000022DF274F212183B74FC1217E4EAFE57
:102C2C00EBFFEE4F6038740212182FEEF0A3EF1288
:102C3C003057ECF0A3ED123057AA82AB8312070089
:102C4C00E9F5087073741212182F123C0BE50A4543
:102C5C000B60658E828F83122CCEEE4F700575083B
:102C6C000280557A067B001210488A0C8B0DA80C3A
:102C7C00A90DE8497005750813803D88828983E4A5
:102C8C00122CD8A3A3EEF0A3EF1240A4E50AF0A3F4
:102C9C00E50BF09002E7122D609002E76017E0FC64
:102CAC00A3E08003EAFCEBFD8C828D83122D607017
:102CBC00F38C828D83123B30A90874041217FA022C
:102CCC0042A6A3A3A3A3E0FEA3E0FF22F0A3F088F7
:102CDC008289832274F212183B890AE975F017A4D1
:102CEC00FEAFF09002E6E4F09002E4122D60600A70
:102CFC0012104E9002E4E4F0A3F0EEFAEFFB121087
:102D0C00488A088B09EA4509602FEEFCEFFD790033
:102D1C00120FCA9002E4E508F0A3E509F07B0080ED
:102D2C0008122D4AE4F0A3F00BEBC3950A40F2E530
:102D3C000A9002E6F07900800279130242A6EB7544
:102D4C00F017A4F8A9F09002E4E028FAA3E0398A7D
:102D5C0082F583221238C6EA4B2274F412183B75A2
:102D6C000800750900740C12182F124078FEE9FF48
:102D7C00800CE5082401F508E5093400F509C3E5E4
:102D8C00089CE5099D503285080A85090B74037867
:102D9C000A1217D1EA250AF8EB350BF988828983D8
:102DAC00A3A3A3A3A3A3123C0BEE650A7003EF65C8
:102DBC000B70BFE8FAE9FB80047A007B0080277473
:102DCC00F412183B7900EAA2E0501B7508577509FC
:102DDC00847808121A4E7C047D007A1A7B0E120736
:102DEC00DE74021217FA7F0402190DC082C08390A0
:102DFC0002E7122E2A601C88828983A3A3E06A70E2
:102E0C0003A3E06B8882898370E8A3A3A3A3123881
:102E1C00C280047A007B00D083D082020135124339
:102E2C0079E8492274EE12183B74FC1217E4EAFE9E
:102E3C00EBFF851882851983E4F0A3F0EE240212CF
:102E4C003B14EE2405123045EE2404F50EEF12343B
:102E5C002AE024FE603924FC604624FE605224FEE5
:102E6C00605E24FE7003022F4A24FE7003022FC200
:102E7C0024FE7003022FD124FE7003022FE024FCE9
:102E8C007003022FEF24FE7003022FFE02303B90E2
:102E9C0003007417F0A3E412305F12047E02303B7F
:102EAC00851882851983AC82AD8312080202300B1F
:102EBC00851882851983AC82AD8312080802300B09
:102ECC00850C08850D09740212182FAC82AD838510
:102EDC0008828509831238C21207248A0C8B0DAC28
:102EEC000CAD0DEC4D6042E4F50CF50D780C121A9E
:102EFC004E750C00750D03780C121A4E750C01757D
:102F0C000D03780C121A4E740812182F121A6579C8
:102F1C00161238BC12084474081217FAE9F50C7032
:102F2C000B1238B8120496800F750C018508828537
:102F3C00098312304D123B30850C0802300E74029E
:102F4C0012182FAC82AD83850C82850D831238C28A
:102F5C001207248A108B11AC10AD11EC4D60438517
:102F6C000C82850D83A3A3121A65751000751103CD
:102F7C007810121A4E7510017511037810121A4E32
:102F8C00740812182F121A6579161238BC120844DC
:102F9C0074081217FAE9F509700B1238B812049C70
:102FAC00800F750901850C82850D8312304D123B03
:102FBC0030850908804C851882851983AC82AD83D5
:102FCC0012080E803A851882851983AC82AD831263
:102FDC000814802B851882851983AC82AD83120866
:102FEC001A801C851882851983AC82AD8312082047
:102FFC00800D851882851983AC82AD83120826E971
:10300C00F508E50860298E828F83A3E06414601FA5
:10301C00850E82850F83E0900300123057124375A2
:10302C00900301123B30E508A312305F120478EED6
:10303C00FAEFFB1207A2023A1CF50CEF3400F50D67
:10304C002212437985188285198322F0851882858E
:10305C00198322F07C007D03850A82850B8312384C
:10306C00C62274EE12183B74FC1217E48A0A8B0BFE
:10307C008C0E8D0FEA2405F508EB3400F5097C1550
:10308C007D0079007A007B03120FCAE5082402F553
:10309C000CE50912304885188285198385821085C4
:1030AC0083117810121A4E850882850983A3A3A375
:1030BC00A3123572121A4EE5082405F510E50934F1
:1030CC0000F5117810121A4E850C82850D8312387A
:1030DC00CC12071E74061217FA8A108B11AE10AFA1
:1030EC0011E50A2402F50AE50B123B17EE4F7003AB
:1030FC000232348017740212182F1238C288828957
:10310C0083EAF0A3EBF0900300E004F0900300E0FE
:10311C00C394054003023234E4F510F51178101213
:10312C001A4E7510E97511027810121A4E7510EAC4
:10313C007511027810121A4E740612182F121A6595
:10314C007910EEFCEFFD1238BC120844740812170B
:10315C00FAE9705E850882850983A3A3A3A3A3A3C0
:10316C00A3E0F89002E9E0687048123572121A4E2A
:10317C007CEA7D02E5082408FAE5093400FB120F0D
:10318C00C474021217FAE960298E828F83A3A3A359
:10319C00A31238C2900300E0F510740278101217D5
:1031AC00D174012510F58274033511F583EAF0A36F
:1031BC00EBF0740212182F8582108583117810128F
:1031CC001A4E740212182F121A65850C82850D8303
:1031DC0012438A12072A74041217FA8A108B11AE42
:1031EC0010AF11900300E0F5107511007402781007
:1031FC001217D174002510F874033511F9888289DF
:10320C0083A3122D6070030230F8E82403F8E9342C
:10321C0000F9EE4F60030231018882898374FFF05C
:10322C00A3F0900300E004F0900300E0600A123871
:10323C00B812048A7900800B850882850983123BB9
:10324C0027790A023A1C74EA12183B74FE1217E42E
:10325C008C128D13EA2405F50CEB1244F4122CD2CB
:10326C00750800750900EA2402F510EB3400F5111D
:10327C0085188285198385820A85830B780A121A30
:10328C004E850C82850D83A3A3A3A3123434121A8A
:10329C004EE50C2405F50AE50D123B17780A121AB7
:1032AC004E850C82850D8312438812071E740612FC
:1032BC0017FA8A0A8B0BEA450B70030233E5EA24F2
:1032CC0004F50EEB12342A122CD28A828B83A3A320
:1032DC00A3E0F98510828511831238C212070CE91C
:1032EC00F50960030233E5E4F514F5157814121AA8
:1032FC004E7514E97515027814121A4E7514EA7588
:10330C0015027814121A4E740612182F121A6579B7
:10331C0013AC0AAD0B8510828511831238C21208CA
:10332C004474081217FAE9F50960030233E59002B8
:10333C00E9E0F8E5087009E02402900301F0801739
:10334C00900301E0FCE82402FAE43400FBEA6C7020
:10335C0001EB60030233E9850882AA821235699475
:10336C00141235615073850E82850F83E0C0E074B2
:10337C00022A123421D0E0F00508850E82850F83D5
:10338C00A3E0C0E085080A7402250A123421D0E0BB
:10339C00F005089002E9123434121A4E7CEA7D02D0
:1033AC0085080A7402250AFA74033400FB120FB262
:1033BC0074021217FA9002E9E02508F50874FF6E02
:1033CC00700374FF6F6012EE24010EEF3400FFE502
:1033DC0008C39414500302327CE50860131237AD15
:1033EC008510828511831238C212049079008014E2
:1033FC00E509700375090A851282851383EEF0A323
:10340C00EFF0A90974021217FA7F0E02190D850844
:10341C000C7402250CF58274033400F583223400FD
:10342C00F50F850E82F583221240B72274EE121826
:10343C003B74FE1217E48C0E8D0FEA2405F50CEB91
:10344C00123048750B00900300E4F0F50AEA2402F0
:10345C00F508EB3400F5098049900300E0FA90027E
:10346C00E9E0F81235699417123561400D900300AC
:10347C00E0F87416C3989002E9F0123572121A4EE5
:10348C007CEA7D0274012AFA74033400FB120FB239
:10349C0074021217FA9002E9E0F8900300E028F0A9
:1034AC00050AE50C2416F582E50D123425E0F8E545
:1034BC000AC398400302354A900300E0C3941650A7
:1034CC007DE50AC333F8E433F9E50C28FEE50D3944
:1034DC00FF851882851983AC82AD838E828F83120F
:1034EC0038C21207248A108B11AC10AD11EC4D7040
:1034FC0005750B018043E4F510F5117810121A4E86
:10350C007510E97511027810121A4E7510EA7511C2
:10351C00027810121A4E740612182F121A657916A8
:10352C008508828509831238C21208447408121760
:10353C00FAE9F50B7003023465123B2380107C0012
:10354C007D038508828509831238C21204A2A90B57
:10355C007402023A1EE99400C365D03322EA28F8BB
:10356C00E43400F9E822E0F51075110078102274AB
:10357C00EA12183B74FC1217E48A0C8B0D8C128D1A
:10358C0013EA2405F50AEB123B17750800750900C0
:10359C00E50A2402F510E50B3400F511740212183B
:1035AC002F85820E85830F780E121A4E850A82851E
:1035BC000B83A3A3A3A3124063121A4EE50A24059E
:1035CC00F50EE50B3400F50F780E121A4E851082AD
:1035DC00851183123B1D1238BC12071E740612177C
:1035EC00FA8A0E8B0FAE0EAF0FE50C2402F50EE52A
:1035FC000D3400F50F80408882898374FFF0050834
:10360C0012341A74FFF005089002E9E0F50C750D00
:10361C0000780C121A4E7CEA7D0285080C74022587
:10362C000CFA74033400FB120FB274021217FA90E6
:10363C0002E9E02508F508EE4F60718E828F83A3B6
:10364C00A3A3E0F9850E82850F831238C212070CF2
:10365C00E9F509EE2404123045E97044E4F514F55B
:10366C00157814121A4E7514E97515027814121A7D
:10367C004E7514EA7515027814121A4E7408121845
:10368C002F121A657911EEFCEFFD850E82850F83E2
:10369C001238C212084474081217FAE9F5096027A7
:1036AC00850C82850D831237A3123B30E50870031D
:1036BC000237891237AD850E82850F831238C212FC
:1036CC0004A8790002379E850882AA82EA9002E952
:1036DC007009E02404900301F08022E0F8900301CB
:1036EC00E0F514E82404FCE43400FDEC65147001EE
:1036FC00ED70C0123569941212356150B6850C828A
:10370C00850D83E0C0E074022A123421D0E0F0056C
:10371C0008850C82850D83A3E0C0E012341AD0E03A
:10372C001237BF85820C85830D780C121A4E7404E7
:10373C0012182F121A6585108285118312438A1272
:10374C00072A74041217FA8A0C8B0DAE0CAF0D8578
:10375C00080C7402250CF874033400F9EE4F700356
:10376C00023603851882851983E088828983123793
:10377C00BFA3E0C0E012341AD0E0023611E50970A4
:10378C000375090A850A82850B831237A3123B3015
:10379C00A9097404023412124379851282851383A9
:1037AC0022900301E0F5F0E50884900300F07C0022
:1037BC007D0322F005088518828519832274EC128A
:1037CC00183B74FE1217E48A088B098C0E8D0FEAD5
:1037DC002405FEEB3400FF851882851983AC82AD7D
:1037EC00838E828F831238C21207248A0A8B0BEEC7
:1037FC002418123045EA450B7003023893123A052F
:10380C0050328518828519831238C21208388A10F2
:10381C008B11EA4511606B7912AC0AAD0B850882ED
:10382C008509831238C2851082851183121839E9F3
:10383C00F50A7058E4F50AF50B780A121A4E8E82C6
:10384C008F83A3A3E0F50A780A121A4EEE24031212
:10385C003B14780A121A4E8E828F831238CC1208BF
:10386C004A74061217FAE9F50A7021850C82850D47
:10387C0083E0701F8508828509831238C21204AE5A
:10388C008011750A0E8009750A018004E50A60032F
:10389C00123B23850C82850D83E060047900800245
:1038AC00A90A74021217FA7F0C02190D7C007D0311
:1038BC00850A82850B831238C622E0FAA3E0FB222C
:1038CC00E0FCA3E0FD8508828509831238C62274CA
:1038DC00EE12183B74FE1217E48A088B098C0C8DBF
:1038EC000DEA2405FEEB3400FF750E008518828569
:1038FC001983AC82AD838E828F831238C212072457
:10390C008A0A8B0BEA450B70030239F1123A055007
:10391C00358518828519831238C21208388A0E8BA5
:10392C000FEA450F605E7912AC0AAD0B85088285F3
:10393C0009831238C2850E82850F83121839E9F576
:10394C000E60030239F4850882850983123C0BAAA8
:10395C000AFB12082C8A108B11A810A911E84970C7
:10396C001E7AFF7BFF12082C8A108B11A810A9114C
:10397C00E849606C88828983E50AF0A3E50BF07551
:10398C000A008007750E0E805F050A9002E6E0FAC9
:10399C00E50AC39A504AE50A75F017A4FAABF08809
:1039AC00828983A3A3E02AFAA3E03BFB8A828B8360
:1039BC00123B1DEC4D70D2750A17750B00780A126C
:1039CC001A4EEEFCEFFD120FB274021217FAEEFC57
:1039DC00EFFD8508828509831238C21204B4801465
:1039EC00750E098003750E01124371850C82850DCD
:1039FC0083123B30A90E02355CE5082402F508E57C
:103A0C00093400F5098A828B83A3A3A3E0A2E522E3
:103A1C0074041217FA7F0A02190D74EC12183B8CFD
:103A2C00108D11EA2405F50CEB123048750F00EAE5
:103A3C002402F50AEB123B17850A82F5831238C271
:103A4C0012082C8A088B09EA45097003023B097598
:103A5C000E008071850C82850D83E06401704F8EA1
:103A6C00828F83A3A3121A658E828F83A3A3A3A331
:103A7C00E0F5127513007812121A4EEE2405F512A9
:103A8C00EF3400F5137812121A4E1238BC12084A91
:103A9C0074061217FAE9F50F6014850C82850D83F4
:103AAC00E4F0124371851082851183123B307C1730
:103ABC007D007900EEFAEFFB120FCA8E828F83E441
:103ACC00F0A3F0050E9002E6E0F8E50EC398501E48
:103ADC00E50E75F017A4F8A9F0850882850983A373
:103AEC00A31244FE123B1DEC4D6003023A608508A4
:103AFC008285098374FFF0A3F0E50F70061238BCC1
:103B0C001204BAA90F0238B3F50AEF3400F50B22F0
:103B1C00A3E0FCA3E0FD228E828F83124379850EF5
:103B2C0082850F83E8F0A3E9F022C082C083900263
:103B3C00E2E06A7003A3E06B70067AE27B02800419
:103B4C007A007B00022E23C082C08378008C828D89
:103B5C0083E06A7003A3E06B7010E875F003A4F8BF
:103B6C00A9F0EC28FAED39FB8015088C828D83A323
:103B7C00A3A3E06A7003A3E06B60DF7A007B000212
:103B8C002E2374F612183B1207F68A828B83E58279
:103B9C00458370067A007B008007A3A3A3A3123889
:103BAC00C202422274F212183BE9FE740E12182F54
:103BBC00123C0B741012182F1240838C828D83E0F0
:103BCC0064027036A312437FF50CA3E0F9A80C74C1
:103BDC00026870037429697021750C02750D0078E8
:103BEC000C121A4E7808121A4E780A121A4EEEF966
:103BFC0012086E74061217FA800279010242A6E0CE
:103C0C00F50AA3E0F50B2274E812183B74FB1217AB
:103C1C00E4E9851882851983F08A168B17ECFEED82
:103C2C00FF751000741D12182F124375741D121895
:103C3C002F123B308E828F83A3A3A3E0A2E4502DDE
:103C4C00741D12182F1238C21208388A828B83E521
:103C5C008245837003024054790AEEFCEFFDAA16EC
:103C6C00AB17121839E9F5106003024057741F1294
:103C7C00182F124083742112182F123C0B7423122C
:103C8C00182FE0F50EA3E0F50F8E828F83E064020F
:103C9C006003024002A3124375850882850983A341
:103CAC00858212858313EE2406123045888289831F
:103CBC00E0FAA3E0F9EA2400F514E439F5157814D8
:103CCC00121AD8010000280128F73C07000228BC72
:103CDC003D0328293D0029F33E01291E3F0229BF3F
:103CEC003E0329F33E04299D3F0240E50E450F603B
:103CFC0003023FFD850C82850D83124078FAE9FBA7
:103D0C008A828B83E0850A82850B831240AE121A5D
:103D1C004E8A828B83A3E0FCA3E0023F87E50E452D
:103D2C000F6003023FFD850A82850B837401F0123C
:103D3C00408B850882850983F07C007D008E828F04
:103D4C0083A3A3A3A3E02401FAA3E03400FB12078E
:103D5C0024EA4B60418A828B83E02402F8850A8234
:103D6C00850B83E028F0EA2404F8EB3400F9888210
:103D7C008983E08512828513831240C01240AE12F3
:103D8C001A4E8A828B83123B1CE5082403FAE50940
:103D9C003400FB023F8C850A82850B83E02404F0FF
:103DAC007C047D007900AA12AB13120FCA02405793
:103DBC00E50E450F6003023FFD12408BFEA3E0FFB2
:103DCC00850A82850B837404F0EE8508828509834D
:103DDC00F0EF851282851383F0740312182FAC82D6
:103DEC00AD83EEFAEFFB1207248A0C8B0DEA450D1E
:103DFC007003023EA08A828B83A3A3122CCE740183
:103E0C0012182F85820E85830F780E121A4E7405A8
:103E1C0012182F121A657CFF7DFF12072A740412E8
:103E2C0017FA8B0FEA450F7033850C82850D8312C0
:103E3C004063121A4E850C82850D83A3121A657C81
:103E4C00027D007AEF7B8412055674041217FAE98E
:103E5C00700A740112182F74FFF0A3F08E828F83F6
:103E6C00E064027039750C02750D00780C121A4E54
:103E7C008E828F83123B1CE5082404FAE50934007A
:103E8C00FB120FB274021217FA850A82850B83E0BB
:103E9C0024028009740112182FEEF0A3EFF07401C4
:103EAC0012182F124074F0740112182FA312406CC8
:103EBC00023FF7E50E450F6003023FFD850C82853E
:103ECC000D83123B1DAA16AB17120862850A828558
:103EDC000B837402F0EA850882850983F0851282CF
:103EEC00851383EB023FFAE50E450F6003023FFD9D
:103EFC0012408BF8A3E0F9850A82850B837402F0DB
:103F0C00E8850882850983F0E9851282851383028E
:103F1C003FFA850C82850D831238C2120FACEAFC75
:103F2C008C82A882C3950EE4950F405FE8650E70F5
:103F3C0002E50F70047C008022851882851983E0CD
:103F4C00FAE50E2AFAE50F3400FBC3EA98EB94006D
:103F5C005003E08005E50ECCC39CFCEC850A828501
:103F6C000B83F08C0A750B00780A121A4E850C82A2
:103F7C00850D83E0250EFCA3E0350FFDAA08AB09E7
:103F8C00120FB274021217FA024057751007024052
:103F9C0057E50E450F705A850C82850D83124375BB
:103FAC00850A82850B837407122CDA12406C122C52
:103FBC00DAA3E0851282851383F0E82402FAE9344F
:103FCC0000FB8A828B8312406C12409B124074A3BC
:103FDC001240A412407DF0E82405F8E93400F98879
:103FEC0082898312407DA31240C0A3A3A3A3F080B7
:103FFC005A75100B8055741D12182F1238C21207E7
:10400C00F68A828B83E5824583603D124375880C6A
:10401C00890DE8450D6031780E121A4E780A121A85
:10402C004E7808121A4E740612182FE0F9EEFCEFB7
:10403C00FDAA16AB17850C82850D831218397406F0
:10404C001217FAE9F510800375100EA910740512F9
:10405C0017FA7F1002190DE0F50E750F00780E227D
:10406C00E0850882850983221240CA22124379E82E
:10407C00221240CAA3A322E0F508A3E0F509228589
:10408C000C82850D83E0F8A3E0F5838882E022A3FF
:10409C00A3F08A828B83A322F088828983A3A3A3B3
:1040AC00A322F08A828B831240B722E0F50A750BAB
:1040BC0000780A22F088828983A31240CA22E08504
:1040CC000882850983A3A32274EE12183B74FE1296
:1040DC0017E48A0A8B0BECFAEDFB741412182FE020
:1040EC00F510A3E0F511741612182FE0FE741812D7
:1040FC00182FE0F50EA3E0F50F851882851983AC17
:10410C0082AD831207248A0C8B0DEA450D6049851C
:10411C0018828519831238C21207F68A828B83E5BE
:10412C00824583602FA3A3124083E50845096024D0
:10413C00780E121A4E7810121A4EEEF9AC0CAD0D18
:10414C00AA0AAB0B850882850983121839740412EC
:10415C0017FA8006790E8002790102355C74F6122A
:10416C00183B74FE1217E4740C12182F1240788549
:10417C001882851983F0740112182FE9F0E4F50800
:10418C00F5097808121A4E7508027808121A4E743E
:10419C000412182F8582088583097808121A4E128A
:1041AC00084A74061217FA74021217FA806874F728
:1041BC0012183BEAFEEBFF89087C197D031208629A
:1041CC00EA5402600BA908EEFAEFFB120718800202
:1041DC007901022BD674F612183B74FF6A700374C3
:1041EC00FF6B70168C828D83124227E4F08C828DCB
:1041FC0083A3A3A3124227A380181208328A088B28
:10420C0009A808A909E849600D8882898374FF12FE
:10421C002CD8A3A3E4F07F0202190D74FFF0A3F0D5
:10422C008C828D83A3A32274F612183B1208328A57
:10423C00828B83E58245836006A3A3E0FA80027A31
:10424C00007B0080D174F212183B8A088B09ECFEBB
:10425C00EDFF740E12182FE0F50A1208328A0C8B3F
:10426C000DA80CA90DE8497026EEFCEFFD7AFF7B3A
:10427C00FF1208328A0C8B0DA80CA90DE8497004AA
:10428C007911801688828983E508F0A3E509F08806
:10429C00828983A3A3E50AF079007F0602190D74C5
:1042AC00EE12183BEAFEEBFF8C088D09890C741496
:1042BC0012182F124375741612182F1238C2750D5E
:1042CC0000E84960030243697402650C6003024311
:1042DC0064741212182F12437FFCA3E0F9EC240033
:1042EC00F50EE439F50FEAF4F8EBF4F9EC58F8E5CF
:1042FC000F59F9E849705CE5082406F8ED3400F92B
:10430C00880A890B8882F58312438A1208628A1004
:10431C008B11E50E65107004E50F65116042780E87
:10432C00121A4E850A82850B8312438A120868740E
:10433C00021217FAE9F50D7027780E121A4E85083D
:10434C0082850983A3A31243881208807402121772
:10435C00FA800D750D808008750D0D8003750D0BA1
:10436C00A90D023A218E828F8312437922E0F8A3A1
:10437C00E0F92212437988828983E022A3A3E0FC2E
:10438C00A3E0FDEEFAEFFB2274E812183B74E7127F
:10439C0017E4851882851983EAF0A3EBF08C168D4F
:1043AC0017890E750800750900743112182FE0F585
:1043BC0012A3E0F513743312182FE0F514A3E0F5F3
:1043CC0015743512182FE0F50FE50975F003A4F8F4
:1043DC00A9F08518828519831244FEE0F47003A3BA
:1043EC00E0F470030244E1EE2402F50CEF1244F405
:1043FC00E070030244E185160A85170B780A121A3D
:10440C004EAC14AD15AA12AB131207EA74021217B4
:10441C00FA8A0A8B0BEA450B70030244E1E4F510AF
:10442C00F5117810121A4E740612182F8582108509
:10443C0083117810121A4E740912182F8582108568
:10444C0083117810121A4E851282851383A3A3A3AD
:10445C00A3121A657914AC0AAD0B8E828F831238B5
:10446C00C212084474081217FAE97069850A828529
:10447C000B83A3A3A3A3124375740212182F123B30
:10448C0030850C82850D83E0A2E05018A90E7402D1
:10449C0012182FAC82AD838E828F831238C2120712
:1044AC003CE94208850C82850D83E0A2E15026E5AB
:1044BC000FF50A780A121A52A90E740312182FACAF
:1044CC0082AD838E828F831238C21207367401122A
:1044DC0017FAE942080509E509C39402500302439F
:1044EC00D5A908741902405B3400F50D850C82F5D2
:1044FC008322E028FEA3E039FF8E828F832274F2A0
:10450C0012183BEAFEEBFF890B7401650B600E740D
:10451C0002650B706A7901120A3CE97062EEFAEFDF
:10452C00FB12082C8A088B09EA45096047750A00BA
:10453C00800B7C177D007900120FCA050A9002E6E9
:10454C00E0F8E50AC3985021E50A75F017A4F8A91C
:10455C00F0850882850983A3A3E028FAA3E039FB40
:10456C008A828B83122E2A70C985088285098374EE
:10457C00FFF0A3F07C197D03EEFAEFFB12085C024E
:10458C0042A674F212183B8A088B09ECFEEDFF74FC
:10459C000E12182F123C0B900E18E0F4603D7A09A5
:1045AC007B00120FDCEA4B60328A828B8374B1F091
:1045BC00A3E412409DA312409BA3E508F0A3E509D8
:1045CC001245EAEEF0A3EF1245EAA3A3E50AF0A325
:1045DC00E50BF0900E18E0F9120FE80242A6F08AF3
:1045EC00828B83A3A3A3A3A322C082C083906190D8
:1045FC007404F0A37448F0A37402F09061807440CA
:10460C00F09061BC7403F09061877419F09062654E
:10461C00741BF0906249E0C3941390619C400A743F
:10462C0009F090606674018007740DF0906066E488
:10463C00F090619A7433F0A37455F09061A0743AC1
:10464C00F090053FE064017009C2919003A6746775
:10465C0080059003A67461F0902B92E49390618690
:10466C00F0902B8CE493F46027E493540FF8906152
:10467C0085E0686012E5C654804449F5C6E59E5451
:10468C007F644970F8E8F053C680E59E547F70FA59
:10469C007905120D96024850C082C083E9540FF977
:1046AC00906185E0696012E5C654804449F5C6E521
:1046BC009E547F644970F8E9F053C680E59E547FA0
:1046CC0070FA024850C082C083E5A8F853A87E90C7
:1046DC006181E4F0A3F0A3F0C2BA539AFEC28975CB
:1046EC009B00C2C275E90075910075BF0075A911D8
:1046FC0075B905906181F0A374C0F0A3E4F0D2BA4F
:10470C00439A0174805842A8024850C082C08374F6
:10471C00F81217E49003A4E0F8A3E0F9E849700359
:10472C000248459003A4E054406023790885188220
:10473C00851983AA82AB83120BF88518828519839D
:10474C00AA82AB831208EC9003A4E054BFF0E054AF
:10475C00806010790C7A657B05120BF89003A4E04D
:10476C00547FF0E0A2E0503190619A7433F0A3745E
:10477C0055F09061A0743AF090053FE06401700927
:10478C00C2919003A6746780059003A67461F01221
:10479C0008F29003A4E054FEF0E054026031906102
:1047AC009A743FF0A3745AF09061A0747FF0900556
:1047BC003FE064017009D2919003A674718005905A
:1047CC0003A6746AF01208F29003A4E054FDF0E022
:1047DC0054046013902B90E493906186F01208F8C7
:1047EC009003A4E054FBF0E054086013902B91E488
:1047FC0093906186F01208F89003A4E054F7F0E06F
:10480C0054106013902B92E493906186F01208F888
:10481C009003A4E054EFF0E05420600A1208F890E2
:10482C0003A4E054DFF0A3E05401600D120B20123E
:10483C0008FE9003A5E054FEF074081217FA024823
:10484C0050F0A3F0D083D08202013574EC12183BE7
:10485C0074F41217E4851882851983AC82AD8375C4
:10486C00838475828A74041216F7902B9093F460EB
:10487C00030249E3907808E0C3940250030249C351
:10488C00740412182FAC82AD8375838475824274C4
:10489C00081216F785188285198385821285831371
:1048AC00740412182FAC82AD83750EFF750FFF7F49
:1048BC00FF7E00750C48750D78801574086E7003BA
:1048CC0002495774096E7003024957740A6E607B73
:1048DC00850C82850D8378081216B48C828D83A981
:1048EC0009E50AC9F88810741878081215E2E51061
:1048FC004508F8C3E098A3E099850C82850D837870
:10490C00081216B440188C828D837418780812150E
:10491C00E2E5104508F8E0C398F8A3E0801C741891
:10492C0078081215E2E5104508FAE9FB8C828D83B4
:10493C00E0F8A3E0F9EAC398F8EB99F9C3E8950E0F
:10494C00E9950F5006880E890FEEFF0EE50C240436
:10495C00F50CE50D3400F50DEEC39413500302482D
:10496C00C774FF650E700474FF650F60238F0874A5
:10497C000278081217D174482508F5827478350925
:10498C00F58378081216B4851282851383E508F036
:10499C00EC2402FCED3400FD851282851383A38583
:1049AC008212858313740C12182FE5826C7003E548
:1049BC00836D60030248B57508017509007808120B
:1049CC001A4E740212182FAC82AD837AE47B0A1251
:1049DC00124674021217FA740C1217FA7F0C021991
:1049EC000DC082C0839061AE7468F0A3746AF090BD
:1049FC00624574FBF0A304F053F4FD43FE029005F2
:104A0C003F7401F09061A0E0643A90619A70237455
:104A1C0033F0A37455F09061A0743AF07401640102
:104A2C007009C2919003A6746780289003A67461E4
:104A3C008021743FF0A3745AF09061A0747FF074DD
:104A4C000164017009D2919003A6747180059003E2
:104A5C00A6746A02484F7F0802190DC082C0839069
:104A6C0004F1E06401700A9004F6E06004790C80B3
:104A7C00027900024850C082C08375E1F19004F4C1
:104A8C00E0605B14600914605F14605714705E1270
:104A9C000B329004EAE0F97AEB7B04120D187AD60B
:104AAC007BBE7C897D8E120D4E7A557B557C557D57
:104ABC0000120D249004F5E0F9120D307901120D5D
:104ACC008A9004E8E0F8A3E0C82416F582E83400E4
:104ADC00F583744AF0A3740BF07900024850120B62
:104AEC003880AF120B3E80AA120B4480A57912803D
:104AFC00EA74F012183B75D90D9004D5E0A2E0E4ED
:104B0C00331313F89004EAE0C4333354C04844011F
:104B1C00F5D978E8790488828983A3A3A3E0F5D931
:104B2C0088828983A3A882A983E864EE7003E96470
:104B3C000470E378D5790488828983A3E0F5D98859
:104B4C00828983A3A882A983E864DB7003E96404E7
:104B5C0070E575E1959004D5E0F97AD67B04120DD9
:104B6C001E900E3A74DEF0A3740AF0A37440F0A306
:104B7C00740CF0A37440F0A3740CF0A37440F0A375
:104B8C00740CF0A374E4F0A3740AF0A37440F0A3C3
:104B9C00740CF0A374FCF0A3740AF0900E487440EB
:104BAC00F0A3740CF0A37440F0A3740CF0A3744045
:104BBC00F0A3740CF0A37440F0A3740CF0A3744035
:104BCC00F0A3740CF0A37440F0A3740CF09004F4F4
:104BDC00E064019004E87012E0F8A3E0F5838882A9
:104BEC00A3A37508007509088010E0F8A3E0F5830D
:104BFC008882A3A3750804750900750A00750B005B
:104C0C00780812162D750CFF750DFF750EFF750FBC
:104C1C00007808790C12167B9004E8E0F8A3E0C841
:104C2C00240EF582E83400F58378081216C390043C
:104C3C00E8E0F8A3E0C82414F582E83400F58374A6
:104C4C0013F09003A27402F0024A6274F712183B3C
:104C5C009004FAE02407F5D99004EAE0C433335405
:104C6C00C0F5D978E8790488828983A3A3A3E0F5F9
:104C7C00D988828983A3A882A983E864EE7003E9AA
:104C8C00640470E39004FAE0601F78E87904FAE8B1
:104C9C002413F582E93400F583E0F5D98882898301
:104CAC00A3A882A9831AEA70E690051AE02407F5F6
:104CBC00D99004EAE0C4333354C04404F5D978E8FD
:104CCC00790488828983A3A3A3E0F5D98882898398
:104CDC00A3A882A983E864EE7003E9640470E390EE
:104CEC00051AE0601F78E87904FAE82433F582E9C4
:104CFC003400F583E0F5D988828983A3A882A9833F
:104D0C001AEA70E675E195900E3A74EAF0A3740A0B
:104D1C00F0A37440F0A3740CF0A37440F0A3740CD3
:104D2C00F0A37440F0A3740CF0A374E4F0A3740A21
:104D3C00F0A37440F0A3740CF0A374FCF0A3740AF9
:104D4C00F0900E487440F0A3740CF0A37440F0A3E0
:104D5C00740CF0A37440F0A3740CF0A37440F0A393
:104D6C00740CF0A37440F0A3740CF0A37440F0A383
:104D7C00740CF09004E8E0F8A3E0C8240EF582E887
:104D8C003400F58374FFF0A3F0A3F0A3F09004E8D3
:104D9C00E0F8A3E0C82414F582E83400F58374121B
:104DAC00F09003A27401F0FF02190D74F712183B76
:104DBC009004FAE02407F5D99004EAE0C4333354A4
:104DCC00C04402F5D978E8790488828983A3A3A327
:104DDC00E0F5D988828983A3A882A983E864EE7060
:104DEC0003E9640470E39004FAE0601F78E8790446
:104DFC00FAE82413F582E93400F583E0F5D98882CA
:104E0C008983A3A882A9831AEA70E675E195900EAE
:104E1C003A74F6F0A3740AF0A374F6F0A3740AF0D3
:104E2C00A374F6F0A3740AF0A374F6F0A3740AF05A
:104E3C00A374F6F0A3740AF0A374F6F0A3740AF04A
:104E4C00A374FCF0A3740AF0900E487440F0A374A1
:104E5C000CF0A37440F0A3740CF0A37440F0A37492
:104E6C000CF0A37440F0A3740CF0A37440F0A37482
:104E7C000CF0A37440F0A3740CF09004E8E0F8A3D9
:104E8C00E0C8240EF582E83400F58374FFF0A3F03B
:104E9C00A3F0A3F09004E8E0F8A3E0C82414F58292
:104EAC00E83400F5837414F09003A27404F00251FA
:104EBC007E74F712183B9004FAE02407F5D990049D
:104ECC00EAE0C4333354C04406F5D978E879048851
:104EDC00828983A3A3A3E0F5D988828983A3A882BE
:104EEC00A983E864EE7003E9640470E39004FAE0CB
:104EFC00601F78E87904FAE82413F582E93400F5A8
:104F0C0083E0F5D988828983A3A882A9831AEA70E1
:104F1C00E690051AE02407F5D99004EAE0C433338F
:104F2C0054C04404F5D978E8790488828983A3A312
:104F3C00A3E0F5D988828983A3A882A983E864EECB
:104F4C007003E9640470E390051AE0601F78E87957
:104F5C0004FAE82433F582E93400F583E0F5D988C6
:104F6C00828983A3A882A9831AEA70E675E19590D9
:104F7C000E3A74F0F0A3740AF0A37440F0A3740C0E
:104F8C00F0A37440F0A3740CF0A37440F0A3740C61
:104F9C00F0A37440F0A3740CF0A37440F0A3740C51
:104FAC00F0A374FCF0A3740AF0900E487440F0A3C4
:104FBC00740CF0A37440F0A3740CF0A37440F0A331
:104FCC00740CF0A37440F0A3740CF0A37440F0A321
:104FDC00740CF0A37440F0A3740CF09004E8E0F8A7
:104FEC00A3E0C8240EF582E83400F58374FFF0A327
:104FFC00F0A3F0A3F09004E8E0F8A3E0C82414F5C3
:10500C0082E83400F5837415F09003A27403F00267
:10501C00517EC082C0839004E8E0F8A3E0C8240667
:10502C00F582E83400F583E402484D74F712183B1E
:10503C009003D0E0F875F003A4C8AAF02AF974D252
:10504C0028F8740339F9E82405FAE93400FB8A825C
:10505C008B83E0FCA3E0FD88828983A3A3A3A3A395
:10506C00A3A3A3A3ECF0A3EDF088828983A3A3A34D
:10507C00A3A3A3A3E024FFF8A3E034FFF98A828B57
:10508C0083E8F0A3E9F002517E74F712183BEAFEB4
:10509C00EBFF9061D0E0600302517275D90E75D9A7
:1050AC000375D904EE248BF582EF3400F583E58289
:1050BC002408F8E5833400F9E0F5D9A3E86582709B
:1050CC0003E9658370F2EE2483F582EF3400F583F7
:1050DC00E5822404F8E5833400F9E0F5D9A3E8650A
:1050EC00827003E9658370F275E1957908EE248B83
:1050FC00FAEF3400FB120BEC7904EE2483FAEF3454
:10510C0000FB120BEC7C00EEF8EFF9ECFAC3E49A1E
:10511C00FA95E0FBEE2AFAEF3BFBEA248AF582EBE8
:10512C003400F583E0C0E0E824AAF582E93400F508
:10513C0083D0E0F00C88828983A3A882A983ECC376
:10514C00940840C7EE246FF582EF3400F583E0F845
:10515C00A3E0F9EE2471F582EF3400F583E8F0A3B7
:10516C00E9F07901800279008008F0EEA2E092AFBC
:10517C0079007F0102190DC082C08375D90275D9DF
:10518C000375D90575E195EA246FF582EB3400F5CA
:10519C0083E0F8A3E0F9EA2471F582EB3400F5839F
:1051AC00E8F0A3E9F0790102485074F612183BEAD2
:1051BC00FEEBFF9005457406F075084575090578FA
:1051CC0008121A4E7C017903120C3474021217FA6D
:1051DC0075D90675D903758245758305E0F5D9A394
:1051EC00E582644A7004E583640570F075E195907E
:1051FC0003A2E06408701EEE246FF582EF3400F514
:10520C0083E0F8A3E0F9EE2471F582EF3400F58326
:10521C00E8F0A3E9F0790102548474F612183BEA21
:10522C00FEEBFF9061D0E070667801900545740B41
:10523C00F09003A2E06407701975084575090578AC
:10524C0008121A4E7C017903120C3474021217FAEC
:10525C007805740128F5D975D903758245758305D0
:10526C00E8FAE0F5D9A31AEA70F875E195EE246F27
:10527C00F582EF3400F583E0F8A3E0F9EE2471F544
:10528C0082EF3400F583E8F0A3E9F079018002792C
:10529C000002548474F712183BEAFEEBFF75D90335
:1052AC0075D90375D90DEE24DDF582EF3400F58345
:1052BC00E0F5D975E1957904120D54EE246FF58261
:1052CC00EF3400F583E0F8A3E0F9EE2471F582EFFA
:1052DC003400F583E8F0A3E9F0790102517E74F60D
:1052EC0012183BEAFEEBFF9061D0E0F87480C39893
:1052FC00FAEE2482F582EF3400F583E06004780442
:10530C0080027800E8240BF8EAC39850030253AFEC
:10531C007D09900545EDF0EE24E2F8EF3400F97AC2
:10532C00467B057C0888828983E08A828B83F0889F
:10533C00828983A3A882A9838A828B83A3AA82AB46
:10534C00831CEC70E0EE2482F582EF3400F583E0F0
:10535C00601D7508457509057808121A4E7C097987
:10536C0003EEFAEFFB120C3474021217FA7D0D7473
:10537C00012DF5D975D9037582457583058D08E026
:10538C00F5D9A31508E50870F675E1957904120DA9
:10539C0054EE241DF582EF3400F583E4F0A3F0798C
:1053AC00018002790002548474F612183BEAFEEB79
:1053BC00FF9061D0E0F87480C398FAEE2482F582F5
:1053CC00EF3400F583E06004780480027800E82470
:1053DC0008F8EAC398500302548278069005457485
:1053EC000CF09003BFE0900546F09003C0E09005F0
:1053FC0047F09003C1E0900548F09003C2E090059F
:10540C0049F09003C3E090054AF0EE2482F582EF58
:10541C003400F583E0601B750845750905780812A2
:10542C001A4E7C067903EEFA120C3474021217FA37
:10543C00780A740128F5D975D903758245758305E9
:10544C008808E0F5D9A31508E50870F675E195799B
:10545C0004120D54EE246FF582EF3400F583E0F85E
:10546C00A3E0F9EE2471F582EF3400F583E8F0A3A4
:10547C00E9F07901800279007F0202190D74F612AD
:10548C00183BEAFEEBFF9061D0E0F87480C398FA09
:10549C00EE2482F582EF3400F583E060047804801A
:1054AC00027800E82404F8EAC398500302556378A4
:1054BC0002900545E8F0EE24F4F582EF3400F58314
:1054CC00E0900546F0EE2482F582EF3400F583E09F
:1054DC00601B7508457509057808121A4E7C02790F
:1054EC0003EEFA120C3474021217FA7806740128BF
:1054FC00F5D975D9037582457583058808E0F5D90A
:10550C00A31508E50870F675E195EE2473F582EFA6
:10551C003400F583E4F0EE247FF582EF3400F5835C
:10552C00E4F0EE241DF582EF3400F583E4F0A3F0F3
:10553C007904120D54EE240DF582EF3400F583E05E
:10554C00F8A3E0F9EE2471F582EF3400F583E8F06E
:10555C00A3E9F079018002790002548474F61218E0
:10556C003B9061D0E0F87480C398FCEA2482F58209
:10557C00EB3400F583E06004780480027800E824C2
:10558C0004F8ECC398405B79029005457407F0EA87
:10559C0024F5F582EB3400F583E0900546F0EA241F
:1055AC0082F582EB3400F583E060187508457509C7
:1055BC00057808121A4E7C0209120C347402121768
:1055CC00FA7906740129F5D975D903758245758365
:1055DC0005E9F8E0F5D9A318E870F875E1957901BB
:1055EC008002790002548474F512183BE9FCA2AFD6
:1055FC00E433F50AC2AF7D0080010DEA246EF5821A
:10560C00EB3400F583E0F8EDC398501A8D08EA25C9
:10561C0008F8EB3400F9E8246AF582E93400F583E4
:10562C00E06C70D68024EA246EF8EB3400F9E0FECE
:10563C00EA2EFAEB3400FBEA246AF582EB3400F52F
:10564C0083ECF088828983E004F0E50AA2E092AF53
:10565C007F0302190D74F612183BA2AFE433FDC29E
:10566C00AFEA246EF582EB3400F583E014F07C0095
:10567C0060368C08EA2508F8EB3400F9E8246BF561
:10568C0082E93400F583E0C0E0E8246AF582E9346D
:10569C0000F583D0E0F00CEA246EF582EB3400F5D3
:1056AC0083E0F8ECC39840CAEA246DF582EB340031
:1056BC00F58374FFF0EA2469F582EB3400F583E49A
:1056CC00F0EDA2E092AF025484C082C083E5A8F84A
:1056DC00C2AFEA246AF582EB3400F583E9F0EA24E0
:1056EC0069F582EB3400F583E4F0E8A2E7A2E792D7
:1056FC00AF02485074F312183BEAFEEBFFECFAEDE4
:10570C00FB8A828B83A3A3A3A3E0541FF0EE243661
:10571C00F582EF3400F583E4F0F50AEEFCEFFD8A38
:10572C00828B83E0C0E0EC245DF582ED3400F583E0
:10573C00D0E0F0750B00E50A33333354F8F50C8ADE
:10574C00828B83E0F508750900E50B78081217B217
:10575C00E508A2E0502FEE2436F8EF3400F98882E9
:10576C008983E0F508EE2508F508EF3400F509E526
:10577C00082438F582E5093400F583E50CF08882BD
:10578C008983E004F0050B050CE50BC3940840AFCE
:10579C00050A8A828B83A3AA82AB838C828D83A316
:1057AC00AC82AD83E50AC39405500302572B7F05E9
:1057BC0002190D74F712183B9003CEE064017003CC
:1057CC0002591D7A009003D4E0600302591D740144
:1057DC00F0A3E4F0A3F090043404F0900439F090BA
:1057EC0003D7E4F0A3F0A3F0A3F09003E104F0904E
:1057FC000407E4F09003EAF0A3F0A3F0A3F0A3F005
:10580C00A3F0A3F0900451F0900445F090043A7486
:10581C0080F0A3E4F0900440F09004BCF0A3F0A35B
:10582C00F0A3F0A3F0A3F0A3F0A3F09004C5F090C4
:10583C000454F09004A4F0A3F0A3F0A3F0A3F0A3FD
:10584C00F0A3F0A3F0A3F0A3F09004B0F09004B296
:10585C00F09004AEF09004C8F0A3F0A3F0A3F0A372
:10586C00F0A3F0A3F0A3F078CE7903E8246EF582D0
:10587C00E93400F58374FFF00A88828983A3A88237
:10588C00A983EAC3940440E37ACE7B0378DC7904E1
:10589C0088828983E0C0E0EA2461F582EB3400F56C
:1058AC0083D0E0F088828983A3A882A9838A828B23
:1058BC0083A3AA82AB83E864E17003E9640470D02B
:1058CC007ACE7B0378B5790388828983A3E0C0E024
:1058DC00EA24E6F582EB3400F583D0E0F088828987
:1058EC0083A3A882A9838A828B83A3AA82AB83E831
:1058FC0064BD7003E9640370CF9003CEE004F064E0
:10590C000170089003D6E09003D0F07AD27B03802C
:10591C00047A007B0002517EC082C0839003D5E4E0
:10592C00F09003D4F09003CEF0A3F0A374FFF075C5
:10593C00E1F1024850C082C083780079009003D511
:10594C00E0600478D2790388828983A3A3A3A3E0BF
:10595C00F902485074F612183BEAFEEBFFEE246392
:10596C00F582EF3400F583E0F8A3E0F9E849700321
:10597C00025A05EE2463F8EF3400F97A007B00A29A
:10598C00AFE433F508C2AF88828983E0FCA3E0FD65
:10599C00EC4D603A88828983E0FAA3E0FB8A828B23
:1059AC0083E0FCA3E0FD88828983ECF0A3EDF08A10
:1059BC00828B83E4F0A3F088828983E0FCA3E0FD72
:1059CC00EC4D700A88828983A3A3E4F0A3F0E50868
:1059DC00A2E092AF1213789004E2E004F09004E39A
:1059EC00E004F0EE2463F582EF3400F583E0F8A3D5
:1059FC00E0F9E849600302597F8E828F83A3A3A349
:105A0C00E0600F8E828F83A3A3A3E4F09003CFE01A
:105A1C0014F09003CEE014F070069003D074FFF0F5
:105A2C008E828F83A3A3E4F09004E1E0700D9003C9
:105A3C00CFE0640170057900120D36EEFAEFFB121F
:105A4C000C6402548474F712183BEAFEEBFF8E824E
:105A5C008F83A3A3A3A3E0FA7B00120940EEFAEF15
:105A6C00FB120BB6120C4C02517EC082C08378B56F
:105A7C00790388828983A3E4F088828983A3A8822E
:105A8C00A983E864BD7003E9640370E69003B674FF
:105A9C000102484F74F612183BEAFEEBFFEC2403AC
:105AAC00F8ED3400F988088909EC2407F8ED340086
:105ABC00F9E8FCE9FD8C828D83E0F8A3E0F9850818
:105ACC0082850983E0FAA3E0FB121759EE240DF549
:105ADC0082EF3400F583E8F0A3E9F08C828D83E04B
:105AEC00F8A3E0F9850882850983E0FAA3E0FB12AC
:105AFC0017598B09EA45096013EE240DF582EF3432
:105B0C0000F583E02401F0A3E03400F00254847427
:105B1C00F612183BEAFEEBFFEE242EF582EF340072
