:020000040000FA
:0600000002011D0228A709
:03002B000230BDE3
:0300330002309FF9
:03003B0002311C73
:0300430002304D3B
:0300530002291A65
:03006B000230E17F
:03007B00022FDB76
:10008300022713E5C754F84401F5C779012200009C
:100093000080FB120086B90003020107E47921788E
:1000A30008B800028004F709D8FCE479297802B87B
:1000B30000028004F709D8FCE490030178BE790CB0
:1000C3008002F0A3D8FCD9FA781A90014D7A01BACC
:1000D30000028007E493A3F608DAF9900EBEAA8221
:1000E300AB8390014E78C279048015E493A3AC826C
:1000F300AD838A828B83F0A3AA82AB838C828D83A8
:10010300D8E9D9E775827A7583D7740312012F75FD
:100113008291758300740012012F75D000758137A9
:10012300751801751903759F00020096C09FF59F0E
:10013300E473D09F22D083D082C09FE493C0E07445
:100143000193C0E0740293F59F2201FF0000B40005
:100153000028002800283075A000A000A000A000FF
:1001630000080008E001F00010001000100010006B
:100173001000100050005000500010001000D00775
:100183000000000000000F000100050030750700AB
:100193001000010081FF00000000FF0D072B071373
:1001A30007FF02020208025000A0000000E8030259
:1001B30054860100009585026A86010000150F022E
:1001C30072860100003303026A86010000160F02E3
:1001D30074860100004903026A86010000170F02BA
:1001E3009A860100004B03026A86010000180F0281
:1001F30076860800004C03026A86010000190F028C
:100203008E860100001A0FFF0100FF2002548601B1
:1002130000004E86026A860100007E0F0286860079
:10022300000000000270860300009903D70CD70C6E
:10023300D70CD70CD70CD70CD70CD70CD70CD70CA3
:10024300D70CD70CD70C6B0F830F650FFFFFE06143
:1002530069636F2D65676700000000000000000000
:10026300000000110199010F126404010254860178
:1002730000005186026A86010000DB0F02648601DA
:100283000000DC0F0270860300000A0A027C86016C
:100293000000DD0F020202020202020202010D004F
:1002A300000010010254860100004886026A86019C
:1002B30000000710025E86010000100A026A860130
:1002C30000000810025C86010000D384026A8601E4
:1002D30000000910025A86010000B884026A8601F0
:1002E30000000A10025886010000A283026A8601F8
:1002F30000000B10025686010000B483026A8601D7
:1003030000000C10028C86010000D883026A86016B
:1003130000000D10026286010000C683026A860196
:1003230000000E100268860100009C84026A8601A8
:1003330000000F10026C86010000101001E8030595
:100343003F100AFF000130750302010600000000A0
:10035300000000000000000000000000000000009A
:100363000000000000000000FFFF0600800CE8030F
:10037300010000000000000000000000001409005C
:10038300000000000000000000000000000000006A
:10039300000005125000B400020A00020106030225
:1003A300F0FFF91400000000E714FF140A4368612A
:1003B30072616374657269737469632031000A43FF
:1003C3006861726163746572697374696320320072
:1003D3000A43686172616374657269737469632047
:1003E3003300104368617261637465726973746981
:1003F300632034000A4368617261637465726973D0
:100403007469632035000A436861726163746572BD
:1004130069737469632036000A43686172616374A7
:10042300657269737469632037000A436861726196
:1004330063746572697374696320380002548601BA
:1004430000004B86026A860100001F110292860398
:1004530000002B0E026E860100002011026A860145
:10046300000031110294860300003F0E026E8601E4
:1004730000003211026A86010000431102968603CE
:100483000000530E026E860100004411026A8601C9
:1004930000005511029886000000670E0270860363
:1004A3000000680E026E860100005611026A860182
:1004B300000067110284860300006E0E026E86013F
:1004C30000006811026A8601000079110282860326
:1004D3000000820E026E860100007A11026A860114
:1004E30000008B11028086030000960E026E8601C7
:1004F30000008C11026A860100009D1102788603B8
:100503000000AA0E026E860100009E11120138132C
:10051300C5031201382AC5031201385BC503120152
:100523003896C503120138C0C503120138EAC50362
:1005330012013801C60312013818C6031201382FFD
:10054300C60312013858C6031201386BC6031201E1
:100553003881C60312013894C603120138BBC6039F
:10056300120138E1CE02120138E5CF021201381D23
:10057300D00212013840D0021201384BD0021201CE
:10058300386ED0021201387DD10212013852D202E4
:10059300120138CDD20212013855D302120138901C
:1005A300D302120138C7D30212013855D402120103
:1005B300382ED5021201388ED50212013899D50290
:1005C30012013818D6021201381BD6021201381E46
:1005D300D602120138ADD602120138B0D60212018A
:1005E30038E0D6021201380AD702120138F8D702CE
:1005F300120138AAD8021201389EF902120138C634
:10060300F902120138F4F9021201382BFA0212012D
:100613003889FA02120138D4FA021201381FFB0298
:100623001201385FFB02120138A5FB02120138D315
:10063300FB0212013890FC021201389AFC021201EB
:1006430038A7FC02120138DAFC02120138A6FD02B7
:10065300120138B2FD02120138CAFD02120138D468
:10066300FD02120138B2D303120138C0D3031201C1
:1006730038D8D303120138F0D303120138EACE017C
:1006830012013896CF0112013811D001120138320C
:10069300D1011201386ED10112013817D2011201B2
:1006A30038FED20112013862D401120138B9D401E3
:1006B3001201383AD5011201382AD60112013877CE
:1006C300D601120138FDD6011201382FD7011201CC
:1006D3003843D90112013885D901120138A3D90150
:1006E30012013826DA01120138FADA01120138C28E
:1006F300DB01120138008003120138D38003120199
:10070300387C8103120138CF81031201387F8203C1
:100713001201380B8303120138F7830312013826C1
:1007230084031201383985031201388185031201CC
:1007330038568603120138928603120138AE8603B7
:100743001201388DD60312013824A5031201383A59
:10075300A50312013860A5031201387CA603120118
:100763003886A603120138BBA703120138B3A803C6
:1007730012013876FA01120138A6FB01120138D9A9
:10078300FB0112013823FC01120138EAFD011201B9
:1007930038C3AF011201382DB0011201388CB101F9
:1007A3001201389CB101120138C9B101120138207C
:1007B300B201120138C9B201120138D0B3011201DA
:1007C300389AB401120138FAB5011201383DB60165
:1007D300120138E2B6011201382FB7011201385560
:1007E300B70112013863B90112013868B901120166
:1007F300386DBB01120138BABB011201382DBC019F
:1008030012013860BC0112013802BD01120138AB7C
:10081300BD01120138E3BD01120138E6BD01120129
:10082300382EBE011201386EBE01120138C5BE0159
:1008330012013848B20312013860B203120138A81A
:10084300B203120138BEB20312013805B303120119
:100853003819B403120138A6B403120138F1B403F2
:100863001201389031001201389C3100120138D73F
:1008730031001201381C3200120138DC320012013F
:1008830038623300120138C73300120138F33300E2
:100893001201382C34001201386A36001201384E26
:1008A3003800120138343A00120138773B00120144
:1008B30038C53D00120138D73E00120138224000EE
:1008C3001201383241001201384F41001201388AB7
:1008D3004100120138AC41001201380F42001201ED
:1008E30038D04600120138654700120138B6470078
:1008F300120138DD47001201382F48001201384D2C
:100903004800120138A7480012013890490012012B
:1009130038064B001201388A4B00120138BD8B0395
:10092300120138C78B031201380A8C0312013825D0
:100933008C03120138B58C03120138DD8C031201CC
:10094300381A8D03120138518D031201387A8D0341
:10095300120138EF8D03120138048E031201381986
:100963008E031201384A8E031201385E8E03120180
:1009730038838E03120138BD8E03120138E98E03CA
:100983001201386C8F03120138B58F03120138DF5F
:100993008F031201380A9003120138B2CF031201F8
:1009A30038E0B6021201380EB7021201385CB80201
:1009B3001201383CB9021201385BB902120138D86E
:1009C300B9021201381BBA0212013871BB021201BB
:1009D3003832BC02120138B9BE021201385ABF02C2
:1009E30012013850C0021201384DC102120138A75A
:1009F300C20212013832C30212013814CD031201AC
:100A0300387DCD03120138D1CD03120138F8CD035F
:100A130012013829CE031201383290031201389F94
:100A23009003120138E69003120138FE910312017C
:100A330038FA9203120138DD93031201381BD902ED
:100A43001201385DD9021201382FDA021201380877
:100A5300DB0212013802DC02120138E4DC0212016B
:100A6300384DDD0212013803DE0212013877DE024F
:100A7300120138E3DE021201380CDF02120138865C
:100A8300DF021201381FE00212013884E002120172
:100A93003899E002120138DFE002120138F8E0026F
:100AA3001201385DE10212013860E1021201384F90
:100AB300AF0312013877AF03120138B5AF03120148
:100AC3003873B003120138DAB003120138F6B003F9
:100AD3001201381EB1031201384EB1031201385D01
:100AE300B103120138DAB10312013800B203120163
:100AF30038B2BF0112013890C101120138C2C301DB
:100B0300120138FEC3011201382BC401120138153A
:100B1300C50112013860C501120138ABC5011201CC
:100B230038BDC501120138FDC50112013832C601B5
:100B330012013880C601120138AFC601120138D242
:100B4300C6011201381FC701120138A4C7011201DF
:100B530038BEC901120138FDCB011201383ECC0168
:100B6300120138E0CD0112013821CE01120138946F
:100B7300CE01120138CBA902120138C9AA0212010F
:100B83003862B10212013883B3021201384EB50242
:100B9300120138B6B602120138F14B00120138A027
:100BA3004C00120138CD4C00120138134D001201D4
:100BB30038534E00120138E94F00120138635000D8
:100BC3001201387E5000120138F9500012013853D7
:100BD3005200120138B35300120138B95400120104
:100BE300381A560012013833560012013891560054
:100BF3001201387F5700120138B257001201382210
:100C030058001201389C5800120138E658001201AE
:100C130038B05900120138855A00120138645B005C
:100C2300120138EF5B001201385D5C00120138D10C
:100C33005C00120138FC5C00120138BB5D0012013C
:100C430038205F001201383D5F001201385C5F00FD
:100C53001201384D60001201387260001201389C95
:100C6300600012013817610012013871610012012E
:100C730038DA6200120138886300120138C9630050
:100C8300120138F79B02120138459C0212013851B8
:100C93009C021201382F9D02120138609D0212013D
:100CA30038919D02120138119E02120138499E02A9
:100CB3001201389B9E02120138D89E02120138F5A8
:100CC300A0021201381BA30212013806A502120169
:100CD30038F0A602120138EF7F00120138B09B01F1
:100CE300120138E09B01120138B9A2011201383E0A
:100CF300A4011201383BAA0112013823AB011201EE
:100D03003860AB0112013883AB01120138B4AB0177
:100D1300120138BDAB01120138C7AB01120138B55E
:100D2300AC01120138ABAD01120138A186011201E9
:100D330038A08A01120138A68A01120138E1910113
:100D4300120138FA960112013856A103120138EC48
:100D5300A10312013802A20312013878A20312017F
:100D630038ECA2031201382AA3031201389EA3030D
:100D730012013817A40312013820A4031201382CDE
:100D8300A40312013841A4031201387FA403120102
:100D93003895A403120138F4A403120138ED980323
:100DA300120138FA980312013814990312013853C7
:100DB3009903120138919903120138F6990312012C
:100DC300380B9A03120138169A03120138239A0337
:100DD3001201383A9A03120138489A031201385320
:100DE3009A031201385F9A031201386E9A031201B3
:100DF30038799A031201389C9A03120138439B03F2
:100E0300120138539B031201386D9B031201388A78
:100E13009B03120138A69B03120138CB9B031201DB
:100E230038D69B03120138EB9B03120138FF9B0357
:100E3300120138609C03120138669C031201386C5E
:100E43009C03120138729C031201388A9C0312011D
:100E530038BD9C031201384CEC01120138D0EC016F
:100E63001201387FED01120138DEEE01120138FF65
:100E7300F001120138EBF10112013820F2011201E5
:100E83003842F201120138F1F201120138E9F4019A
:100E930012013812F501120138A4F501120138D6F6
:100EA300F501120138E3F5011201383AF601120196
:100EB3003860F601120138CDF801120138D0F9017A
:100EC30012013828FA01120138DBDD01120138E57D
:100ED300DE01120138CCDF01120138D6DF01120125
:100EE30038F8DF0112013804E0011201389DE101F5
:100EF300120138CCE101120138E8E2011201384154
:100F0300E301120138A7E40112013886E501120159
:100F130038E2E5011201384FE6011201388AE60191
:100F2300120138C9E60112013882E9011201389C25
:100F3300E90112013828EA0112013836EA011201E7
:100F4300388FEA011201389DEA0112013810EB01D2
:100F530012013874EB01120138BEEB01120138B3F0
:100F6300C302120138D5C302120138FBC5021201B4
:100F73003810C90212013828CA02120138DBCA022A
:100F8300120138BDCB021201385BFE021201388018
:100F9300FE02120138F2FE0212013824F20212019B
:100FA300382DF20212013836F2021201380DF30223
:100FB300120138BEF402120138F4F4021201382E81
:100FC300F50212013864F5021201389EF50212018E
:100FD30038D2F502120138FEF50212013847F60243
:100FE30012013881F602120138CAF60212013822C0
:100FF300F70212013857F702120138B2F702120151
:1010030038ECF7021201383DF80212013873F80286
:10101300120138ADF802120138DBF802120138FE72
:10102300F8021201384AD50312013876D5031201AA
:1010330038D1D503120138DBD503120138EBD503C0
:1010430012013884E1021201388EE102120138CC18
:10105300E10212013815E2021201384FE2021201D5
:1010630038A9E202120138CAE202120138A2E502EB
:10107300120138ABE502120138F8E50212013821FA
:10108300E6021201382BE60212013897E60212013A
:101093003829E70212013873E702120138A9E7027F
:1010A30012013835E80212013876E802120138AD30
:1010B300E802120138BFE802120138DEE802120129
:1010C30038E7E802120138B4E902120138CFD1033C
:1010D30012013822C30312013858C3031201388E98
:1010E300C303120138D9C403120138F5D503120121
:1010F300380BD60312013815D6031201385FD60315
:101103001201389DFF011201382387031201383879
:101113008703120138E88703120138288803120174
:10112300384188031201387C8803120138C98803C7
:10113300120138FB88031201383D89031201383E3E
:101143008B03120138B08B0312013811CA03120149
:10115300383ACA0312013869CA0312013801CB03B2
:1011630012013819CB031201385BCB03120138A0EB
:10117300CB03120138ABCB031201384CCC03120161
:10118300381DC10312013826C10312013897C10368
:10119300120138ABC10312013800C30312013846F0
:1011A300D90312013811D703120138BDA803120164
:1011B3003869A90312013849AA03120138A1AA0305
:1011C30012013808AB0312013849BA031201387906
:1011D300BA0312013824BB03120138C6BB03120140
:1011E300381BB50312013840B5031201386AB50341
:1011F300120138D2D703120138F963001201385EA5
:101203006600120138FF6700120138B3680012014B
:1012130038466900120138CB6900120138F06900C1
:10122300120138466D00120138CC6D00120138FFEF
:101233006E00120138396F001201386E6F0012010F
:10124300382E71001201388B7100120138D47100ED
:101253001201383F7200120138B07200120138E2F5
:101263007200120138FA720012013843740012013D
:10127300385374001201386E7500120138907500EE
:10128300120138C675001201387A77001201380747
:1012930078001201384678001201386A7900120189
:1012A3003889D4031201389AD4031201383FD50385
:1012B30012013873D803120138B2D8031201385E11
:1012C300D903120138C6D203120138D6D203120150
:1012D30038F1D203120138A5D303120138E7B7035B
:1012E30012013818B80312013802BA03120138CBBD
:1012F300D00312013850D103120138B6D1031201C1
:10130300386FCE03120138A3CE03120138CCCE03BB
:1013130012013843CF03120138CDC603120138F648
:10132300C6031201385CC7031201387CC7031201DC
:1013330038CDC70312013828C80312013862C80325
:1013430012013865C8031201389F9403120138D87B
:1013530094031201384A95031201385F9503120171
:10136300388A9603120138069703120138CC970383
:10137300120138EB97031201381298031201384F08
:101383009803120138679803120138B898031201C1
:10139300383A9D03120138519D03120138CB9D0346
:1013A300120138AF9E0312013886A003120138EBF5
:1013B300A00312013842A10312013828D8031201F5
:1013C30038F87F00120138D8BE0312013873C00306
:1013D300120138D4C0031201381AC1031201382193
:1013E300AC03120138BCAC0312013840AD03120147
:1013F3003802AE0312013877AE031201389FAE03F1
:10140300120138A8AE0312013818AF0312013830A5
:10141300AF0312013839AF031201384CAF03120185
:10142300386FC803120138C1C8031201384BC9030E
:10143300120138B2C90312013893BC03120138BD3B
:10144300BC031201388BBD0312013866BE031201BF
:1014530038E2E902120138A9EA02120138E0EA028D
:101463001201380AEB021201386AEB02120138C08A
:10147300EB0212013825EC02120138BDEC02120115
:1014830038CCED0212013863EF02120138F0EF029B
:1014930012013857F0021201386EF0021201388837
:1014A300F102120138C6F102120138008002120162
:1014B30038818302120138098502120138608502DE
:1014C3001201387F8502120138FD8502120138931B
:1014D3008702120138788802120138868C021201C1
:1014E300385C8D02120138FF8D02120138728E02B0
:1014F3001201381791021201389F9402120138D158
:101503009502120138EE9A021201385E9B02120113
:10151300388F7900120138D47900120138F179003B
:10152300120138137B00120138C17B00120138AA63
:101533007C00120138987F00120138F2D80312019F
:1015430038BCD8031201381ED903120138D17F00E9
:10155300E066701008A3E066700A08A3E0667004F2
:1015630008A3E06622C3E7960809E7960809E79609
:101573000809E79622C3E09608A3E09608A3E0963D
:1015830008A3E09622C008C3E096F50808A3E096F6
:10159300420808A3E096420808A3E09645087001B4
:1015A300D3D00822E9799EC608CAC608CBC608CCA0
:1015B300C6C370207996CACBCC7019798ECBCC7008
:1015C300137986CC700EF9802ACA33CACB33CBCCBD
:1015D30033CC331930E7F2CCCBCA3350147004EA5E
:1015E30030E00DE4CA3ACACB3BCBCC3CCC50020929
:1015F300C3E913C6CC182313C6CB18C6CA18C6F939
:101603002212164420F01430E72B74FFFCFBFA740B
:101613007F8022E4FCFBFA7480801AB48008BC004B
:10162300F2BB00EF800F50EBF9E4C39AFAE49BFBA3
:10163300E49CFCE499C6CC18C6CB18C6CA18C6F9F4
:1016430022E4C9C608CAC608CBC6D3330308CCC62E
:101653003392F0C3947F402E94184019C9B90704FC
:10166300CACBCC225025C309CA33CACB33CBCC3324
:10167300CC33D9F422F4600DC9CCC313CB13CBCA3A
:1016830013CAD9F6CC22E4FCFBFA2214FCFBFA229F
:10169300E6C33318461846184622E7C333194719D9
:1016A30047194722181818E6084608700AE608C3BF
:1016B300337005E633F4220822191919E70947099B
:1016C300700AE709C3337005E733F4220922E608F9
:1016D3004608C3134608336002E633F422E709479A
:1016E30009C3134709336002E733F4221216D160AA
:1016F3001D1216E07005191919801A1216A7701F0A
:101703001216BCC37003E66733191919400718187A
:10171300182208080874FFF618F618F618F62212AD
:1017230016BC601712169D702192F0121693701951
:10173300501720F014080808090909E7F61819E7F3
:10174300F61819E7F61819E7F62212169360E6E879
:1017530069701F0808E62480F608E436F618547FFB
:10176300B47F0CE654806007F6E418F618F62218E6
:101773001822E9C6CC08C6CD08C6CE08C6CFC0E03D
:10178300E8C0E0EAC0E0EBC0E009E9F809E7FA09DC
:10179300E7FBE6F918E6F8C3EC98ED99EE9AEBC28D
:1017A300E7F5F0EFC2E795F0500E600CEBCFFBEAE4
:1017B300CEFAE9CDF9E8CCF8EAA2E7D2E7FAEB33BF
:1017C300FB13F5F0EEA2E7D2E7FEEF33FFC5F0130C
:1017D300A2E730E601B313C5F0C3C0E0C0F07F0059
:1017E300C39BFB605E9418600F401D14601AD0E029
:1017F30023F9D0E0F80218D08AF0E9486003D2F068
:10180300E4AFF0FAF9F8803BEB30E40D89F0EA60DD
:1018130003D2F0E4AFF0F9CAF8EB30E30D88F0EF50
:101823006002D2F0AFF0E4CAC9F8EB54076014FBCE
:10183300C3EA13FAE913F9E813F8EF135002D2E0FD
:10184300FFDBEDD0E0C0E030E739C3E49FFFF5F004
:10185300EC98FC42F0ED99FD42F0EE9AFE42F0D096
:10186300E0F9D0E0F8E5F0607AE923F9EE20E74209
:10187300D8028067C3EF33FFEC33FCED33FDEE3367
:10188300FE80EAEC28FCED39FDEE3AFED0E023F9C8
:10189300D0E0F84002801BC3EE13FEED13FDEC1302
:1018A300FCEF135002D2E0FF08B800067F7F74FFFD
:1018B300802EEF3350178CF020F00260100CBC0028
:1018C3000C0DBD00080EBE000408E860DFE933E834
:1018D30013FFEE2313FE4F4D4C8008E95480FFE4C1
:1018E300FEFDFCEE33EF33F47004FCFD7E80D0E0AC
:1018F300FBD0E0FAD0E0F8D0E0CFC618CEC618CDC2
:10190300C618CCC6F9221216D17004181818221260
:1019130016E0700D74FFF61819F61819F61819F673
:1019230022E7548066F6121693700F12169D70F01C
:1019330014F608F608F608F680D112169D700CF618
:1019430008F608768008E6447F80EC1216BF700C18
:101953001216AA60BFE65480F6E480BB1216AA7082
:101963000519191980A5E869700C763F1876801857
:10197300F618F6E8F922E6CDC0E018ECC0E0E6334D
:10198300CD33CDD313F6E719FCE7191933CC33C3A1
:10199300947F400ECD9D502408E65480F6E418F65B
:1019A300800FF4043D14501408E6447FF618768043
:1019B300E418F618F6D0E0FCD0E0FD22CCD313CC2B
:1019C300FD18E4C6CBC0E018E4C6CAC0E00808EDC1
:1019D30008C633E613F618E433C675F003C3CA9793
:1019E300CA09CB97CB199C40047D08802EBD000308
:1019F300021AB216B6FF050606081618C3CA33CA7A
:101A0300CB33CB33CA27CA09CB37CB193CC37D08A9
:101A1300803E187D0820E75CC633C6CA33CACB3381
:101A2300CB33DDF1D5F0EB30E77BCA97CA09CB970F
:101A33004ACB199C406F4B7025E620E02180661845
:101A43007D08C3CA97CA09CB97CB199CD3C633C6A3
:101A5300CA33CACB33CB3350C9DDE7D5F0E1D3E486
:101A6300C636C608C636C608C636C608C636C6183B
:101A730018188031C3CA97CA09CB97CB199CB340B6
:101A830097C633C6CA33CACB33CB33DD34D5F02E36
:101A9300C6A2E0C640C8CA27CA09CB37194A70BED6
:101AA300CB3CB480B90808E63308E633601F181846
:101AB30018D0E0FAD0E0FBD0E0FCD0E0FD22187DA6
:101AC30008CA27CA09CB37CB193CD3808013F61831
:101AD300E4B67F11F618B6FF0EF618C60470D208E6
:101AE30008768080CAF618F618F680C5080808EA52
:101AF300C0E0EBC0E086F0E7A4FA180986F0E7A49B
:101B03002AFA180986F0E7A42AFA180986F0E7A446
:101B13002AFA1986F0E7A4FBE5F02AFA190886F0F9
:101B2300E7A42BFBE5F03AFA190886F0E7A42BFBB0
:101B3300E5F03AFA18180986F0E7A4C5F02BFBE4A0
:101B43003AFA1908E7C5F0C6A426F6E5F03BFBE42C
:101B53003AFA1886F0E7A4F6E5F00826F6E43B081F
:101B6300F6E43A08F6D0E0FBD0E0FA22E4CFC0E096
:101B7300E4CEC0E0E4CDC0E0E4CCC0E075F020C327
:101B8300E633F608E633F608E633F608E633F618E6
:101B93001818EC33FCED33FDEE33FEEF33FFC3ECEB
:101BA3009709ED9709EE9709EF97191919400FFF58
:101BB300EC97FC09ED97FD09EE97FE191906D5F090
:101BC300BEECF709EDF709EEF709EFF7191919D08C
:101BD300E0FCD0E0FDD0E0FED0E0FF226016080874
:101BE30008C6C313C618C613C618C613C618C61329
:101BF300C6D5E0EA227009080808226016181818EA
:101C0300C6C333C608C633C608C633C608C633C6FA
:101C1300D5E0EA22E627F60809E637F60809E637AB
:101C2300F60809E637F622E026F608A3E036F608BA
:101C3300A3E036F608A3E036F622E026F008A3E098
:101C430036F008A3E036F008A3E036F022C3E697A7
:101C5300F60809E697F60809E697F60809E697F6FF
:101C630022C3E096F008A3E096F008A3E096F008FC
:101C7300A3E096F022E657F60809E657F60809E6C8
:101C830057F60809E657F622E056F608A3E056F69B
:101C930008A3E056F608A3E056F622E056F008A3A0
:101CA300E056F008A3E056F008A3E056F022E0F671
:101CB30008A3E0F608A3E0F608A3E0F622E6F0089E
:101CC300A3E6F008A3E6F008A3E6F022E0FAA3E017
:101CD300FBA3E0FCA3E0FD22EAF0A3EBF0A3ECF00E
:101CE300A3EDF022CAC0E0E6F0A308DAFAD0E0FAE6
:101CF30022CAC0E0E0A3C582CCC582C583CDC5831B
:101D0300F0A3C582CCC582C583CDC583DAE6D0E016
:101D1300CA22C3E498F8E499F9121D568026C3E455
:101D23009AFAE49BFBE920E7E9121D56E498F8E4EC
:101D330099F922C3E498F8E499F9121D56E498F846
:101D4300E499F9C3E49AFAE49BFB22EB20E7CFE999
:101D530020E7E0B90010BB0008E88AF084F8AAF095
:101D630022E4FBC8FA22EB70227B10C833C8C933C4
:101D7300C9335007C39AC3DBF280069A50012ADBAA
:101D8300EAC833F4C8C933F4C9FA2275F008E4C8C1
:101D930033C8C933C933C99AC99B5004C92AC93B3B
:101DA300D5F0ECFBC833F4C8E4C9FA22600D08C6C9
:101DB300A2E713C618C613C6D5E0F322600C08C603
:101DC300C313C618C613C6D5E0F422700422600DEF
:101DD30018C6C333C608C633C6D5E0F4182225187F
:101DE30010AF08F518400215198008F518400215C0
:101DF30019D2AF22C0D0251810AF08F5185002052C
:101E0300198008F51850020519D2AFD0D022251831
:101E1300F58210AF08F518400215198008F518402F
:101E2300021519D2AF851983222518F582E43519D5
:101E3300F58322E4732518C582C0E0E51934FFC594
:101E430083C0E0E518C3958224F810AF0885831991
:101E53008582188008858319858218D2AFCEF0A3B6
:101E6300E520F0A37808E608F0A3DEFAEFF0A3E597
:101E73008124FAF8E608F0A3E608F0A3E608F0A345
:101E83000808E608F0A3E608F0A315811581D0E061
:101E9300FED0E0F8158115811581E8C0E0EEC0E0C1
:101EA300222518C582C0E0E51934FFC583C0E0E5EB
:101EB30018C3958224F910AF088583198582188089
:101EC30008858319858218D2AFCEF0A3E520F0A34D
:101ED3007808E608F0A3DEFAEFF0A3E58124FBF827
:101EE300E608F0A3E608F0A30808E608F0A3E6086E
:101EF300F0A315811581D0E0FED0E0F8158115819E
:101F0300E8C0E0EEC0E022851983851882E0A3FED5
:101F1300E0A3F5207808E0A3F608DFFAE0A3FFE0EA
:101F2300A3C0E0E0A3C0E0E0A3C0E0E0A3C0E0E022
:101F3300A3C0E010AF0885821885831980088582C5
:101F430018858319D2AFD083D082020135851983D6
:101F5300851882E0A3FEE0A3F5207808E0A3F60845
:101F6300DFFAE0A3FFE0A3C0E0E0A3C0E0E0A3C08A
:101F7300E0E0A3C0E010AF088582188583198008CC
:101F8300858218858319D2AFD083D08222C0D02511
:101F930018C582C0E0E51934FFC583C0E0E518C366
:101FA300958224F310AF08858319858218800885EC
:101FB3008319858218D2AFC8F0A3E9F0A3EAF0A38E
:101FC300EBF0A37908E709F0A3D8FAECF0A3EDF05E
:101FD300A3EEF0A3EFF0A3D0E0F0A3D0E0F0A3D002
:101FE300E0F0A3E520F0A3E5F0F0A32285198385B3
:101FF3001882E0C0E0A3E0F9A3E0FAA3E0FBA37832
:1020030008E0F608A3DFFAE0FCA3E0FDA3E0FEA3EB
:10201300E0FFA3E0C0E0A3E0C0E0A3E0F5D0A3E0CD
:10202300F520A3E0A3F5F010AF0885831985821886
:102033008008858319858218D2AFD082D083D0E0FF
:10204300F8D0E03274048006740280027401C0E0A8
:10205300F404121E11D0E0121CE7227404800474ED
:10206300028000CCC0E0EDC0E0E518C39CCCAD1904
:1020730050011D10AF068C188D1980068C188D1910
:10208300D2AF121CF4D0E0FDD0E0FC22D083D0828A
:10209300E9C0E0E493A3C386F0C5F095F0F908E442
:1020A30093A386F0C5F095F0700BE493A3C3994016
:1020B30005E9048002A3E475F002A42582F582E514
:1020C300F03583F583D0E0F9E493A3C0E0E493C053
:1020D300E022D083D082ECC0E0EDC0E0E493A3FC27
:1020E300E493A3FDED4C600D122121EC24FFFCEDE4
:1020F30034FFFD80EFE493A3FCE493A3FDED4C6078
:102103000D122160EC24FFFCED34FFFD80EFD0E0E5
:10211300FDD0E0FCE493A3C0E0E493C0E022C0E080
:10212300C3E49396087401939618400FE493667082
:102133000808740193661870007019A3A3C3E4938D
:1021430096087401939618A3A3400DD0E0D0E0D075
:10215300E0022111A3A3A3A3A3A3D0E022C0E0C064
:10216300F088F0E4936670080874019366187000B1
:10217300A8F0A3A3700BD0F0D0E0D0E0D0E0022110
:0821830011A3A3D0F0D0E0226B
:10218C0074F5121EA4EAFEEBFFEE2434F8EF3400D3
:10219C00F988088909EE2435F582EF3400F583E0DF
:1021AC00F8EE2437F582EF3400F583E0F50AEC8580
:1021BC000AF0A4FCAAF0850AF0EDA42AFDE82CF89C
:1021CC00E43DF97A257B00121D56EA8508828509C3
:1021DC0083F0F8740758F97401B900028004C33312
:1021EC00D9FCFAE8131313541FF8EE28F8EF340057
:1021FC00F9E8245DF582E93400F583E05A6008EED5
:10220C002434F582EF802CEE2434F582EF3400F583
:10221C0083E0C0E0EE2436F582EF3400F583E0F580
:10222C00F0D0E084A8F0EE28F8EF3400F9E8243878
:10223C00F582E93400F583E0F97F04021F5074F550
:10224C00121EA4EAFEEBFFEE2434F582EF3400F507
:10225C0083E0C0E0EE2435F582EF3400F583D0E066
:10226C00F08E828F83A3A3A3A3A3A3A3C082C08356
:10227C008E828F83A3A3A3A3A3E0F8A3E0F9D0835A
:10228C00D082E0C398F508A3E099F509EE247FF518
:10229C0082EF3400F583E064017069EE2480F582EE
:1022AC00EF3400F583E0F8A3E0F98E828F83A3A3CB
:1022BC00A3A3A3A3A3E0FCA3E0FD8E828F83A3A31F
:1022CC00A3A3A3E0FAA3E0FBC3EA9CEB9D5010C3CD
:1022DC00EC98ED99402EC3EA98EB995027800EC3E9
:1022EC00EA98EB994007C3EC98ED9940177C5C7D1C
:1022FC0005EEFAEFFB120C35EE247FF582EF34007D
:10230C00F583E4F0EE2434F8EF3400F9E8FCE9FD51
:10231C00EE2435F582EF3400F583E0F8EE2437F542
:10232C0082EF3400F583E0F50AE508850AF0A4F5A0
:10233C0008AAF0850AF0E509A42AF509E82508F8A9
:10234C00E43509F97A257B00121D56EA8C828D83BF
:10235C00F0F8740758F97401B900028004C333D93A
:10236C00FCFAE8131313541FF8EE28F8EF3400F9B5
:10237C00E8245DF582E93400F583E05A6008EE2428
:10238C0034F582EF802CEE2434F582EF3400F583A3
:10239C00E0C0E0EE2436F582EF3400F583E0F5F092
:1023AC00D0E084A8F0EE28F8EF3400F9E82438F5F2
:1023BC0082E93400F583E0F9122FC7022245C0826E
:1023CC00C083851882851983E0F8A3E0F9C3EA9CE1
:1023DC00EB9D5010C3EC98ED99401BC3EA98EB9918
:1023EC005014800EC3EA98EB994007C3EC98ED9912
:1023FC004004790180027900D083D08222EAC39C08
:10240C00FAEB9DFB2274EF121EA4900422E06408E8
:10241C006005E06407702A9061C8E0602490045065
:10242C00E0F4601DE0F875F003A4C8AAF02AF97472
:10243C005228FE740439FF8E828F83A3A3A3E0700D
:10244C0003022541906060E0C0E0EE2468F582EF65
:10245C003400F583D0E0F0750CC5750D05750800DA
:10246C00750900E5D914F50AE5D95403F50E601782
:10247C007403650E605CE50A6010EE2467F582EF6C
:10248C003400F583E070030225269005C0E064015A
:10249C00602AEE2482F582EF3400F583E060047844
:1024AC000480027800850A08E508C398FA95E0FBD9
:1024BC00120B038A088B09EA45097005120E398044
:1024CC0074EE2482F582EF3400F583E070048A0CFC
:1024DC008B0DE50A6012850C82850D83F50BE5D911
:1024EC00F0A3150BE50B70F6EE2482F582EF3400A9
:1024FC00F583E0604474FC250AF50A780C12204B35
:10250C00AC0AA90EEEFAEFFB120CD17402121DF7F5
:10251C00E97026AA08AB09121427793D8E828F83A5
:10252C00A3A3A3A3E0FA7B001209D7EEFAEFFB12E8
:10253C000C4D120CE3790080747403650E605685A3
:10254C000A10751100781012204BAC0CAD0DAA08B6
:10255C00AB09120CAD7402121DF7EE2468F582EF74
:10256C003400F583E064807004747F8001E0F50C26
:10257C00780C12204FE50EF50C780C12204FA90A9E
:10258C00AC08AD09900450E0FA7B0012099B740270
:10259C00121DF78013900422E06408600BAC0CADA4
:1025AC000DEEFAEFFB120D3D120E4579017F0A027A
:1025BC001F5074F5121EA474FC121DE1EAFEEBFF11
:1025CC008908A2AFE433F509C2AF806AEE2463F840
:1025DC00EF3400F97A007B00A2AFE433F50AC2AF06
:1025EC0088828983E0FCA3E0FDEC4D603A88828907
:1025FC0083E0FAA3E0FB8A828B83E0FCA3E0FD88F6
:10260C00828983ECF0A3EDF08A828B83E4F0A3F053
:10261C0088828983E0FCA3E0FDEC4D700A888289F6
:10262C0083A3A3E4F0A3F0E50AA2E092AF1214276F
:10263C00900563E004F0EE2463F582EF3400F5833B
:10264C00E0F8A3E0F9E849603DEE2463F582EF344D
:10265C0000F583E02402FAA3E03400FBEA2402F53F
:10266C000AEB3400F50B780A12204B8A828B83E03C
:10267C00FCA3E0F9EEFAEFFB120C717402121DF7D9
:10268C00E970030225D8900563E06063900564E06F
:10269C00F8900563E0C398500C7402650870509074
:1026AC000565E0604A8E828F83A3A3A3A3E08518FF
:1026BC0082851983F0A3E4F0900563E0F8740212AC
:1026CC001E2CE8F0A3E4F0900563E0F8900562E0BE
:1026DC0028F07402121E2CAC82AD838518828519E9
:1026EC0083AA82AB8379011209A7900563E4F0E514
:1026FC0009A2E092AF7404121DF7022245000000FB
:10270C008521878522C622C0E0C0D0E8C0E0E9C0A0
:10271C00E0EAC0E0EBC0E0ECC0E0EDC0E0EEC0E011
:10272C00C008C009C00AC00BC082C083C0F0A2AFF1
:10273C00E433FEC2AF759B00906182E0A2E05012C0
:10274C00E591A2E0500C7591FE74016521700312A5
:10275C002411E0A2E55051E591A2E5504B7591DFB3
:10276C00900422E064076005E0640870237401653E
:10277C002170357901900450E0FA75F003A4CAA8D1
:10278C00F028FB74522AFA74043BFB1225BE801805
:10279C00E0640D7013900444E004F064287002E4CB
:1027AC00F07A00E0F9120E4B906182E0A2E6400351
:1027BC0002285AE591A2E6400302285A7591BF906F
:1027CC000422E064057008120D73120D7F80031251
:1027DC000D79752100120DD9E9900423F0790012BE
:1027EC000DCD120BAB7A017B00900421E0F9121095
:1027FC00A3907803E0644270559005C4E014F07027
:10280C004DC2AF12281200782AD0E0F618D0E0F6AC
:10281C00E59F540770057509FF800375097FC4C0D7
:10282C00E07829E6F50808E65509F509740B7808EF
:10283C00121DBFD0E02508F8906270E0A2E740F8C6
:10284C00E8C333906272F0906270E0D2E0F0906175
:10285C0081E0A2E35009E5E9A2E3500375E9F7A38F
:10286C00E0A2E75009E591A2E7500375917FEEA233
:10287C00E092AFD0F0D083D082D00BD00AD009D068
:10288C0008D0E0FED0E0FDD0E0FCD0E0FBD0E0FAD8
:10289C00D0E0F9D0E0F8D0D0D0E032C0E0C0D0C069
:1028AC0082C083906183E0A2E05009E5BFA2E050B2
:1028BC000375BFFEE0A2E15009E5BFA2E15003752C
:1028CC00BFFDE0A2E25009E5BFA2E2500375BFFBD9
:1028DC00E0A2E35009E5BFA2E3500375BFF7E0A205
:1028EC00E45009E5BFA2E4500375BFEFE0A2E55048
:1028FC0009E5BFA2E5500375BFDFE0A2E65009E58C
:10290C00BFA2E6500375BFBFD083D0828088C0E0E1
:10291C00C0D0E8C0E0E9C0E0EAC0E0EBC0E0ECC049
:10292C00E0EDC0E0C0F0E5A7A2E6500FE5A1A2E6FD
:10293C00500953A7BF75A1BF12297FE5A7A2E55087
:10294C000CE5A1A2E5500653A7DF75A1DFE5A7A210
:10295C00E15009E5A1A2E1500375A1FDE5A7A2E2B2
:10296C00500CE5A1A2E2500653A7FB75A1FBD0F0D9
:10297C0002289074F8121EA4752101900422E064C0
:10298C00067015120D018A828B83A3A3A3A3A3A3A4
:10299C00E0FAA3E0FB120D61A2AFE433FED2AF90DC
:1029AC000428E0640170187A207B00900421E0F97F
:1029BC0012112D7A207B00900421E0F91210A990BD
:1029CC006182E0D2E6F09005C1E0602185C62280EC
:1029DC0016900427E064017008E5C654F84405F528
:1029EC00C653BEFC12270C7401652160E4EEA2E014
:1029FC0092AF7F01021F50008E238F248582288581
:102A0C008327851882851983E0CEA3E0CF852882A1
:102A1C00852783EBC9EAC8EDCBECCA75F010C3E887
:102A2C0033C8E933C9EA33CAEB33CBC3EA9EF52684
:102A3C00EB9FF525B35004AB25AA26EC33CCED3334
:102A4C00CDD5F0DAAE23AF242274E9121EA474F8AB
:102A5C00121DE1851882851983ECF0A3EDF08A082C
:102A6C008B09900422E024F7C394055006750801E5
:102A7C00022BEC120D018A0A8B0BAE0AAF0BEE4F38
:102A8C007003022BE9AC08AD097402121E2CAA8249
:102A9C00AB83120D918E828F83A3A3750CFF750DE2
:102AAC00FF750EFF750F00780C121C8B7402121E32
:102ABC002C7510FF7511FF7512FF7513007810122D
:102ACC001C8B780C7910121568502A780C7910121E
:102ADC001C507508017509C8750A00750B0078083B
:102AEC00790C1215685052850C08850D09850E0A53
:102AFC00850F0B80507514017515C8751600751768
:102B0C000085100885110985120A85130B78087940
:102B1C000C121C5078147908121568401C750800AA
:102B2C00750900750A00750B0178087910121C5094
:102B3C007808790C121C17800C7508017509007542
:102B4C000A00750B0074097808121BF8750C19F53E
:102B5C000DF50EF50F7808790C121B6F8E828F8392
:102B6C00A3A3A3A3A3A3E0F8A3E0F97AD07B031259
:102B7C001D56880C890DE4F50EF50F7808790C12AA
:102B8C001C177406121E2CE0F8A3E0F97AD07B0314
:102B9C00121D56E8FA8A0CE4F50D7808790C12151A
:102BAC006850077808790C121C50900422E06408D5
:102BBC00600AE064066005E06405702D750C0D7804
:102BCC000C79081215684021750CF4750DFF750E03
:102BDC00FF750FFF7808790C121C17800C75080014
:102BEC00750900750A00750B00851882851983E03C
:102BFC00F8A3E0F58388827808121CC07408121DB3
:102C0C00F77F10021F5074F7121EA4120DA390052B
:102C1C00BFE064017010906245E4F0A3F053F4F34C
:102C2C0043FE0C5390F3120D4FE5C654804449F506
:102C3C00C6E59E547F644970F8906185740FF090DE
:102C4C0005BDE0F47002A3E0604E9005BEE06008A4
:102C5C0014601B14602E80407508017509009005E6
:102C6C00BDE07808121DCEE508F45280802A750864
:102C7C00017509009005BDE07808121DCEE508F439
:102C8C00529080147508017509009005BDE0780814
:102C9C00121DCEE508F452A079007F02021F507479
:102CAC00F7121EA4E9FEEAFF74016E700C7A807BA9
:102CBC0000900421E0F91210A3903188E493F460A1
:102CCC0008E493F9120B9F800953C680E59E547F4C
:102CDC0070FA120D559005BFE064017003120BB72A
:102CEC009005BDE0F47002A3E0604B9005BEE0607F
:102CFC000814601A14602C803D7508017509009049
:102D0C0005BDE07808121DCEE508428080287508C4
:102D1C00017509009005BDE07808121DCEE508424A
:102D2C009080137508017509009005BDE0780812B4
:102D3C001DCEE50842A0120DA3120D018A088B09C5
:102D4C00A808A909E8496015E5E170FCE82414F528
:102D5C0082E93400F583E0F46003E0F5E174016F7F
:102D6C00700A7A01900421E0F91210F7022CA67473
:102D7C00ED121EA48A088B098C0A8D0B7413121E7B
:102D8C002C780C121CB17808790C1215687510018E
:102D9C007511C875120075130050127808790C1251
:102DAC001C507810790812156850168010780C7920
:102DBC0008121C507810790C1215684004790180A7
:102DCC000279007F0C021F5074ED121EA48A088B2E
:102DDC00098C0A8D0B7413121E2C780C121CB178F2
:102DEC000C790812156840117808790C121C50AA3D
:102DFC0008AB09AC0AAD0B8022751000751100757B
:102E0C0012007513017810790C121C507810790887
:102E1C00121C17AA10AB11AC12AD1380A68A828BB0
:102E2C00837508FF7509FF750AFF750B007808128A
:102E3C001C9E7F04021F5074F5121EA48C828D837D
:102E4C007808121CB18A828B837808121C64EA24DD
:102E5C0004F8EB3400F98C828D83A3A3A3A3E0FCCC
:102E6C00A3E0FD88828983C3E09CF0A3E09DF088F9
:102E7C00828983C3E09420A3E0944E40268A828BFF
:102E8C00837508FF7509FF750AFF750BFF7808122B
:102E9C001C3D8A828B83A3A3A3A3E02420F0A3E090
:102EAC00344EF0022E2974F5121EA4E9FE9005771B
:102EBC00E0FAA3E0FBEEC333F8E433F9744D28F5E4
:102ECC0082748439F583E02AF508A3E03BF5097890
:102EDC000812204B7A407B427C0F7D00122A04742E
:102EEC0002121DF78A088B098C0A8D0B7410780856
:102EFC00121BDFAA08AB097F04021F5074F1121ECB
:102F0C00A48A0C8B0D8C0E8D0F740F121E2CE0FAF4
:102F1C00A3E0FB7411121E2CE0F508A3E0F5097870
:102F2C000812204BEA2401F508EB3400F509E4F50E
:102F3C000AF50B780C7908121AEF750871750902ED
:102F4C00780C7908121AEFAA0CAB0DAC0EAD0F125F
:102F5C002A047402121DF78B09EA450960047A01F0
:102F6C0080027A00EC2AFCED3400FD7413121E2C46
:102F7C00E0F8A3E0F9E8FEE9FFECF8EDF97A717BF3
:102F8C0002121D56880889098E828F837808121CBC
:102F9C00C0ECF8EDF97A717B02121D568A088B0988
:102FAC0074057808121DCE8E828F83A3A3A3A3E58C
:102FBC0008F0A3E509F07F08021F50C082C083E926
:102FCC00906000F0D083D08222C2AF02000022C0F9
:102FDC00E074EB121F9074F9121DE1538AFE908677
:102FEC00297808121CB19009E37808121C3D90094D
:102FFC00E37808121CB190862D780C121CB178085D
:10300C00790C121B6FE50C450D450E450F70269083
:10301C0085B6C082851882851983AC82AD83758391
:10302C0085D0827407121CF4851882851983AA82B4
:10303C00AB831212DDC2EB7407121DF77F08021F5F
:10304C00EFC0E074F2121F90A2AFE433FED2AFC215
:10305C00C0E5D1A2E4500653D1EF12141B751A002F
:10306C00EEA2E092AF7F01021FEFC0E074F2121FDC
:10307C0090A2AFE433FED2AFE589A2E15003121364
:10308C0037758900C2C5751A00EEA2E092AF7F01B8
:10309C00021FEFC0E074F2121F90A2AFE433FED215
:1030AC00AFE58BA2E05003121337758B00C2E8809A
:1030BC00D5C0E0C0D0E8C0E0E9C0E0E5A8D2AFC21E
:1030CC00C7751A00A2E7A2E792AFD0E0F9D0E0F8FA
:1030DC00D0D0D0E032C0E074F2121F90A2AFE43333
:1030EC00FED2AF758900C2C5900B2E7401F0751A13
:1030FC0000FA900AFBE0F91210F7900CB2E0F8A37A
:10310C00E0687002D285EEA2E092AF7F01021FEF61
:10311C00C0E0C0D0E8C0E0E9C0E0C008C009C0828F
:10312C00C083A2AFE433F9D2AF900CB2E0F8A3E0C5
:10313C00687008539AFBA374018026C2E9900CB204
:10314C00E0F50874012508F074322508F582740C3A
:10315C003400F583E0F5C1900CB2E0C394804002DA
:10316C00E4F0E9A2E092AFD083D082D009D008D0AD
:0A317C00E0F9D0E0F8D0D0D0E03246
:10318800FFFFFFFFFFFFFFFFC082C083E9900F7DB5
:10319800F002341F74F7121E38E9900361F07C992D
:1031A8007D037AFF7BFF1208F390036274FFF0A39C
:1031B800F0A3E4F0A3F0790512087B900361E0F92D
:1031C80012079D7A117B09120AB57F01021F0A7442
:1031D800F4121E388A088B09EB5480603090036122
:1031E800E0F912108B8A0A8B0BAE0AAF0BEE4F6018
:1031F800138E828F83E064B07003120893EEFAEFA7
:10320800FB121079AA08E5096480FB80047A007B28
:10321800000233EE74F2121E3874FC121DE1EAFE4D
:10322800EBFFEE4F60387402121E2CEEF0A3EF1283
:103238003653ECF0A3ED123653AA82AB83120797EC
:10324800E9F50870737412121E2C124207E50A453C
:103258000B60658E828F831232CAEE4F7005750837
:103268000280557A067B001210DF8A0C8B0DA80CA1
:10327800A90DE8497005750813803D88828983E4A3
:103288001232D4A3A3EEF0A3EF1246A0E50AF0A3EE
:10329800E50BF090036712335C9003676017E0FC5E
:1032A800A3E08003EAFCEBFD8C828D8312335C7013
:1032B800F38C828D8312412CA9087404121DF70225
:1032C80048A2A3A3A3A3E0FEA3E0FF22F0A3F088F3
:1032D8008289832274F2121E38890AE975F017A4CC
:1032E800FEAFF0900366E4F090036412335C600A6A
:1032F8001210E5900364E4F0A3F0EEFAEFFB12106D
:10330800DF8A088B09EA4509602FEEFCEFFD79009A
:10331800121061900364E508F0A3E509F07B0080D2
:1033280008123346E4F0A3F00BEBC3950A40F2E52C
:103338000A900366F07900800279130248A2EB75BF
:10334800F017A4F8A9F0900364E028FAA3E0398AFA
:1033580082F58322123EC2EA4B2274F4121E38759B
:103368000800750900740C121E2C124674FEE9FF41
:10337800800CE5082401F508E5093400F509C3E5E2
:10338800089CE5099D503285080A85090B74037865
:103398000A121DCEEA250AF8EB350BF988828983D3
:1033A800A3A3A3A3A3A3124207EE650A7003EF65C4
:1033B8000B70BFE8FAE9FB80047A007B0080277471
:1033C800F4121E387900EAA2E0501B7508BD750991
:1033D80085780812204B7C047D007A7F7B0F1208C9
:1033E800757402121DF77F04021F0AC082C0839001
:1033F8000367123426601C88828983A3A3E06A705D
:1034080003A3E06B8882898370E8A3A3A3A3123E79
:10341800BE80047A007B00D083D082020135124935
:1034280075E8492274EE121E3874FC121DE1EAFE9A
:10343800EBFF851882851983E4F0A3F0EE240212CD
:103448004110EE2405123641EE2404F50EEF123A2F
:1034580026E024FE603924FC604624FE605224FEE7
:10346800605E24FE700302354624FE70030235BEFA
:1034780024FE70030235CD24FE70030235DC24FCE3
:1034880070030235EB24FE70030235FA02363790DA
:1034980003807417F0A3E412365B12051502363761
:1034A800851882851983AC82AD8312089902360784
:1034B800851882851983AC82AD8312089F0236076E
:1034C800850C08850D097402121E2CAC82AD83850B
:1034D8000882850983123EBE1207BB8A0C8B0DAC8D
:1034E8000CAD0DEC4D6042E4F50CF50D780C122096
:1034F8004B750C80750D03780C12204B750C81757B
:103508000D03780C12204B7408121E2C12206279BD
:1035180016123EB81208DB7408121DF7E9F50C7094
:103528000B123EB412052D800F750C01850882859B
:10353800098312364912412C850C0802360A740296
:10354800121E2CAC82AD83850C82850D83123EBE83
:103558001207BB8A108B11AC10AD11EC4D6043857E
:103568000C82850D83A3A312206275108075110348
:10357800781012204B751081751103781012204BAA
:103588007408121E2C1220627916123EB81208DB3B
:103598007408121DF7E9F509700B123EB4120533D1
:1035A800800F750901850C82850D831236491241F9
:1035B8002C850908804C851882851983AC82AD83D7
:1035C8001208A5803A851882851983AC82AD8312CA
:1035D80008AB802B851882851983AC82AD831208CD
:1035E800B1801C851882851983AC82AD831208B717
:1035F800800D851882851983AC82AD831208BDE9D8
:10360800F508E50860298E828F83A3E06414601FA3
:10361800850E82850F83E09003801236531249711C
:1036280090038112412CE508A312365B12050FEEB8
:10363800FAEFFB120839024018F50CEF3400F50DCB
:103648002212497585188285198322F0851882858A
:10365800198322F07C807D03850A82850B83123EC4
:10366800C22274EE121E3874FC121DE18A0A8B0BFA
:103678008C0E8D0FEA2405F508EB3400F5097C154E
:103688007D0079007A807B03121061E5082402F539
:103698000CE50912364485188285198385821085C0
:1036A8008311781012204B850882850983A3A3A370
:1036B800A3123B6E12204BE5082405F510E50934EA
:1036C80000F511781012204B850C82850D83123E6F
:1036D800C81207B57406121DF78A108B11AE10AF09
:1036E80011E50A2402F50AE50B124113EE4F7003A7
:1036F80002383080177402121E2C123EBE8882894E
:1037080083EAF0A3EBF0900380E004F0900380E0FC
:10371800C394054003023830E4F510F5117810120F
:10372800204B751069751103781012204B75106ABB
:10373800751103781012204B7406121E2C12206289
:103748007910EEFCEFFD123EB81208DB7408121D6A
:10375800F7E9705E850882850983A3A3A3A3A3A3C1
:10376800A3E0F8900369E0687048123B6E12204BA2
:103778007C6A7D03E5082408FAE5093400FB121089
:103788005B7402121DF7E960298E828F83A3A3A3BD
:10379800A3123EBE900380E0F51074027810121D4B
:1037A800CE74812510F58274033511F583EAF0A3F0
:1037B800EBF07402121E2C8582108583117810128A
:1037C800204B7402121E2C122062850C82850D83F8
:1037D8001249861207C17404121DF78A108B11AEA4
:1037E80010AF11900380E0F5107511007402781085
:1037F800121DCE74802510F874033511F98882895A
:1038080083A312335C70030236F4E82403F8E93426
:1038180000F9EE4F60030236FD8882898374FFF059
:10382800A3F0900380E004F0900380E0600A123E69
:10383800B41205217900800B85088285098312411D
:1038480023790A02401874EA121E3874FE121DE128
:103858008C128D13EA2405F50CEB124AF01232CEC5
:10386800750800750900EA2402F510EB3400F5111B
:1038780085188285198385820A85830B780A122028
:103888004B850C82850D83A3A3A3A3123A30122083
:103898004BE50C2405F50AE50D124113780A1220B0
:1038A8004B850C82850D831249841207B574061264
:1038B8001DF78A0A8B0BEA450B70030239E1EA24EB
:1038C80004F50EEB123A261232CE8A828B83A3A31A
:1038D800A3E0F9851082851183123EBE1207A3E981
:1038E800F50960030239E1E4F514F515781412209E
:1038F8004B751469751503781412204B75146A7585
:103908001503781412204B7406121E2C12206279AB
:1039180013AC0AAD0B851082851183123EBE1208C6
:10392800DB7408121DF7E9F50960030239E1900319
:1039380069E0F8E5087009E02402900381F0801737
:10394800900381E0FCE82402FAE43400FBEA6C709E
:1039580001EB60030239E5850882AA82123B65946F
:1039680014123B5D5073850E82850F83E0C0E074AE
:10397800822A123A1DD0E0F00508850E82850F8351
:10398800A3E0C0E085080A7482250A123A1DD0E037
:10399800F00508900369123A3012204B7C6A7D03C7
:1039A80085080A7482250AFA74033400FB12104948
:1039B8007402121DF7900369E02508F50874FF6E7C
:1039C800700374FF6F6012EE24010EEF3400FFE500
:1039D80008C394145003023878E5086013123DA90F
:1039E800851082851183123EBE1205277900801446
:1039F800E509700375090A851282851383EEF0A321
:103A0800EFF0A9097402121DF77F0E021F0A85083C
:103A18000C7482250CF58274033400F5832234007B
:103A2800F50F850E82F583221246B32274EE121E1C
:103A38003874FE121DE18C0E8D0FEA2405F50CEB8F
:103A4800123644750B00900380E4F0F50AEA24026C
:103A5800F508EB3400F5098049900380E0FA9003FB
:103A680069E0F8123B659417123B5D400D900380A6
:103A7800E0F87416C398900369F0123B6E12204B5D
:103A88007C6A7D0374812AFA74033400FB1210499E
:103A98007402121DF7900369E0F8900380E028F0A3
:103AA800050AE50C2416F582E50D123A21E0F8E541
:103AB8000AC3984003023B46900380E0C394165023
:103AC8007DE50AC333F8E433F9E50C28FEE50D3942
:103AD800FF851882851983AC82AD838E828F83120D
:103AE8003EBE1207BB8A108B11AC10AD11EC4D70A5
:103AF80005750B018043E4F510F511781012204B81
:103B0800751069751103781012204B75106A7511BC
:103B180003781012204B7406121E2C12206279169C
:103B2800850882850983123EBE1208DB7408121DBF
:103B3800F7E9F50B7003023A6112411F80107C808F
:103B48007D03850882850983123EBE120539A90BBB
:103B5800740202401AE99400C365D03322EA28F8B7
:103B6800E43400F9E822E0F51075110078102274A9
:103B7800EA121E3874FC121DE18A0C8B0D8C128D12
:103B880013EA2405F50AEB124113750800750900BC
:103B9800E50A2402F510E50B3400F5117402121E33
:103BA8002C85820E85830F780E12204B850A82851C
:103BB8000B83A3A3A3A312465F12204BE50A240597
:103BC800F50EE50B3400F50F780E12204B851082A8
:103BD800851183124119123EB81207B57406121DD9
:103BE800F78A0E8B0FAE0EAF0FE50C2402F50EE52B
:103BF8000D3400F50F80408882898374FFF0050832
:103C0800123A1674FFF00508900369E0F50C750D7B
:103C180000780C12204B7C6A7D0385080C74822581
:103C28000CFA74033400FB1210497402121DF79049
:103C38000369E02508F508EE4F60718E828F83A333
:103C4800A3A3E0F9850E82850F83123EBE1207A357
:103C5800E9F509EE2404123641E97044E4F514F557
:103C680015781412204B75146975150378141220F1
:103C78004B75146A751503781412204B7408121EBC
:103C88002C1220627911EEFCEFFD850E82850F83E0
:103C9800123EBE1208DB7408121DF7E9F509602709
:103CA800850C82850D83123D9F12412CE508700317
:103CB800023D85123DA9850E82850F83123EBE12F4
:103CC800053F7900023D9A850882AA82EA90036935
:103CD8007009E02404900381F08022E0F8900381C9
:103CE800E0F514E82404FCE43400FDEC65147001EC
:103CF800ED70C0123B659412123B5D50B6850C8284
:103D0800850D83E0C0E074822A123A1DD0E0F005E8
:103D180008850C82850D83A3E0C0E0123A16D0E036
:103D2800123DBB85820C85830D780C12204B7404E0
:103D3800121E2C1220628510828511831249861268
:103D480007C17404121DF78A0C8B0DAE0CAF0D85DC
:103D5800080C7482250CF874033400F9EE4F7003D4
:103D6800023BFF851882851983E088828983123D8A
:103D7800BBA3E0C0E0123A16D0E0023C0DE50970A2
:103D88000375090A850A82850B83123D9F12412C0F
:103D9800A9097404023A0E124975851282851383A3
:103DA80022900381E0F5F0E50884900380F07C80A0
:103DB8007D0322F005088518828519832274EC1288
:103DC8001E3874FE121DE18A088B098C0E8D0FEACD
:103DD8002405FEEB3400FF851882851983AC82AD7B
:103DE800838E828F83123EBE1207BB8A0A8B0BEE2C
:103DF8002418123641EA450B7003023E8F12400127
:103E08005032851882851983123EBE1208CF8A1057
:103E18008B11EA4511606B7912AC0AAD0B850882EB
:103E2800850983123EBE851082851183121E36E9EC
:103E3800F50A7058E4F50AF50B780A12204B8E82C1
:103E48008F83A3A3E0F50A780A12204BEE2403120D
:103E58004110780A12204B8E828F83123EC81208B6
:103E6800E17406121DF7E9F50A7021850C82850DAB
:103E780083E0701F850882850983123EBE120545BE
:103E88008011750A0E8009750A018004E50A60032D
:103E980012411F850C82850D83E060047900800241
:103EA800A90A7402121DF77F0C021F0A7C807D0389
:103EB800850A82850B83123EC222E0FAA3E0FB2228
:103EC800E0FCA3E0FD850882850983123EC22274C6
:103ED800EE121E3874FE121DE18A088B098C0C8DB7
:103EE8000DEA2405FEEB3400FF750E008518828567
:103EF8001983AC82AD838E828F83123EBE1207BBBC
:103F08008A0A8B0BEA450B7003023FED1240015001
:103F180035851882851983123EBE1208CF8A0E8B0A
:103F28000FEA450F605E7912AC0AAD0B85088285F1
:103F38000983123EBE850E82850F83121E36E9F56F
:103F48000E6003023FF0850882850983124207AAA2
:103F58000AFB1208C38A108B11A810A911E849702E
:103F68001E7AFF7BFF1208C38A108B11A810A911B3
:103F7800E849606C88828983E50AF0A3E50BF0754F
:103F88000A008007750E0E805F050A900366E0FA46
:103F9800E50AC39A504AE50A75F017A4FAABF08807
:103FA800828983A3A3E02AFAA3E03BFB8A828B835E
:103FB800124119EC4D70D2750A17750B00780A1268
:103FC800204BEEFCEFFD1210497402121DF7EEFCB7
:103FD800EFFD850882850983123EBE12054B8014C9
:103FE800750E098003750E0112496D850C82850DC9
:103FF8008312412CA90E023B58E5082402F508E576
:10400800093400F5098A828B83A3A3A3E0A2E522E1
:104018007404121DF77F0A021F0A74EC121E388CF2
:10402800108D11EA2405F50CEB123644750F00EAE1
:104038002402F50AEB124113850A82F583123EBE6B
:104048001208C38A088B09EA4509700302410575FD
:104058000E008071850C82850D83E06401704F8E9F
:10406800828F83A3A31220628E828F83A3A3A3A32C
:10407800E0F512751300781212204BEE2405F512A4
:10408800EF3400F513781212204B123EB81208E1F3
:104098007406121DF7E9F50F6014850C82850D83EF
:1040A800E4F012496D85108285118312412C7C172A
:1040B8007D007900EEFAEFFB1210618E828F83E4A7
:1040C800F0A3F0050E900366E0F8E50EC398501EC5
:1040D800E50E75F017A4F8A9F0850882850983A371
:1040E800A3124AFA124119EC4D600302405C85089C
:1040F8008285098374FFF0A3F0E50F7006123EB8BD
:10410800120551A90F023EAFF50AEF3400F50B2254
:10411800A3E0FCA3E0FD228E828F83124975850EF1
:1041280082850F83E8F0A3E9F022C082C083900360
:1041380062E06A7003A3E06B70067A627B03800416
:104148007A007B0002341FC082C08378008C828D85
:1041580083E06A7003A3E06B7010E875F003A4F8BD
:10416800A9F0EC28FAED39FB8015088C828D83A321
:10417800A3A3E06A7003A3E06B60DF7A007B000210
:10418800341F74F6121E3812088D8A828B83E582DA
:10419800458370067A007B008007A3A3A3A3123E81
:1041A800BE02481E74F2121E38E9FE740E121E2C4E
:1041B8001242077410121E2C12467F8C828D83E0E7
:1041C80064027036A312497BF50CA3E0F9A80C74BD
:1041D800026870037429697021750C02750D0078E6
:1041E8000C12204B780812204B780A12204BEEF95B
:1041F8001209057406121DF7800279010248A2E02F
:10420800F50AA3E0F50B2274E8121E3874FB121DA0
:10421800E1E9851882851983F08A168B17ECFEED83
:10422800FF751000741D121E2C124971741D121E88
:104238002C12412C8E828F83A3A3A3E0A2E4502DDD
:10424800741D121E2C123EBE1208CF8A828B83E583
:104258008245837003024650790AEEFCEFFDAA16E8
:10426800AB17121E36E9F5106003024653741F128D
:104278001E2C12467F7421121E2C12420774231220
:104288001E2CE0F50EA3E0F50F8E828F83E064020A
:1042980060030245FEA3124971850882850983A33C
:1042A800858212858313EE2406123641888289831B
:1042B800E0FAA3E0F9EA2400F514E439F5157814D6
:1042C8001220D5010000280128F34207000228B86F
:1042D80043032825430029EF4401291A450229BB35
:1042E800440329EF4404299945FE45E50E450F602E
:1042F800030245F9850C82850D83124674FAE9FBA1
:104308008A828B83E0850A82850B831246AA122053
:104318004B8A828B83A3E0FCA3E0024583E50E452C
:104328000F60030245F9850A82850B837401F01238
:104338004687850882850983F07C007D008E828F00
:1043480083A3A3A3A3E02401FAA3E03400FB12078C
:10435800BBEA4B60418A828B83E02402F8850A829B
:10436800850B83E028F0EA2404F8EB3400F988820E
:104378008983E08512828513831246BC1246AA12ED
:10438800204B8A828B83124118E5082403FAE50939
:104398003400FB024588850A82850B83E02404F0FB
:1043A8007C047D007900AA12AB13121061024653F7
:1043B800E50E450F60030245F9124687FEA3E0FFAC
:1043C800850A82850B837404F0EE8508828509834B
:1043D800F0EF851282851383F07403121E2CAC82D1
:1043E800AD83EEFAEFFB1207BB8A0C8B0DEA450D85
:1043F800700302449C8A828B83A3A31232CA74017D
:10440800121E2C85820E85830F780E12204B7405A0
:10441800121E2C1220627CFF7DFF1207C174041249
:104428001DF78B0FEA450F7033850C82850D8312BB
:10443800465F12204B850C82850D83A31220627C77
:10444800027D007A887B861205ED7404121DF7E957
:10445800700A7401121E2C74FFF0A3F08E828F83F1
:10446800E064027039750C02750D00780C12204B4F
:104478008E828F83124118E5082404FAE509340076
:10448800FB1210497402121DF7850A82850B83E01E
:10449800240280097401121E2CEEF0A3EFF07401BF
:1044A800121E2C124670F07401121E2CA3124668BC
:1044B8000245F3E50E450F60030245F9850C828538
:1044C8000D83124119AA16AB171208F9850A8285BD
:1044D8000B837402F0EA850882850983F0851282CD
:1044E800851383EB0245F6E50E450F60030245F997
:1044F800124687F8A3E0F9850A82850B837402F0D7
:10450800E8850882850983F0E9851282851383028C
:1045180045F6850C82850D83123EBE121043EAFCD7
:104528008C82A882C3950EE4950F405FE8650E70F3
:1045380002E50F70047C008022851882851983E0CB
:10454800FAE50E2AFAE50F3400FBC3EA98EB94006B
:104558005003E08005E50ECCC39CFCEC850A8285FF
:104568000B83F08C0A750B00780A12204B850C829D
:10457800850D83E0250EFCA3E0350FFDAA08AB09E5
:104588001210497402121DF70246537510070246AD
:1045980053E50E450F705A850C82850D83124971BB
:1045A800850A82850B8374071232D6124668123246
:1045B800D6A3E0851282851383F0E82402FAE93451
:1045C80000FB8A828B83124668124697124670A3B4
:1045D8001246A0124679F0E82405F8E93400F98873
:1045E800828983124679A31246BCA3A3A3A3F080B1
:1045F8005A75100B8055741D121E2C123EBE1208DF
:104608008D8A828B83E5824583603D124971880CCF
:10461800890DE8450D6031780E12204B780A12207A
:104628004B780812204B7406121E2CE0F9EEFCEFB2
:10463800FDAA16AB17850C82850D83121E367406EB
:10464800121DF7E9F510800375100EA910740512F4
:104658001DF77F10021F0AE0F50E750F00780E2275
:10466800E0850882850983221246C622124975E828
:10467800221246C6A3A322E0F508A3E0F509228585
:104688000C82850D83E0F8A3E0F5838882E022A3FD
:10469800A3F08A828B83A322F088828983A3A3A3B1
:1046A800A322F08A828B831246B322E0F50A750BA7
:1046B80000780A22F088828983A31246C622E08500
:1046C8000882850983A3A32274EE121E3874FE1291
:1046D8001DE18A0A8B0BECFAEDFB7414121E2CE018
:1046E800F510A3E0F5117416121E2CE0FE741812D2
:1046F8001E2CE0F50EA3E0F50F851882851983AC12
:1047080082AD831207BB8A0C8B0DEA450D60498583
:104718001882851983123EBE12088D8A828B83E522
:10472800824583602FA3A312467FE50845096024CC
:10473800780E12204B781012204BEEF9AC0CAD0D10
:10474800AA0AAB0B850882850983121E36740412E7
:104758001DF78006790E80027901023B5874F61223
:104768001E3874FE121DE1740C121E2C124674853C
:104778001882851983F07401121E2CE9F0E4F508FB
:10478800F509780812204B750802780812204B7436
:1047980004121E2C858208858309780812204B1282
:1047A80008E17406121DF77402121DF7806874F789
:1047B800121E38EAFEEBFF89087C997D031208F97E
:1047C800EA5402600BA908EEFAEFFB1207AF800269
:1047D80079010231D274F6121E3874FF6A700374BC
:1047E800FF6B70168C828D83124823E4F08C828DC7
:1047F80083A3A3A3124823A380181208C98A088B8D
:1048080009A808A909E849600D8882898374FF12FC
:1048180032D4A3A3E4F07F02021F0A74FFF0A3F0CE
:104828008C828D83A3A32274F6121E381208C98ABB
:10483800828B83E58245836006A3A3E0FA80027A2F
:10484800007B0080D174F2121E388A088B09ECFEB6
:10485800EDFF740E121E2CE0F50A1208C98A0C8BA3
:104868000DA80CA90DE8497026EEFCEFFD7AFF7B38
:10487800FF1208C98A0C8B0DA80CA90DE849700411
:104888007911801688828983E508F0A3E509F08804
:10489800828983A3A3E50AF079007F06021F0A74C0
:1048A800EE121E38EAFEEBFF8C088D09890C741491
:1048B800121E2C1249717416121E2C123EBE750D52
:1048C80000E84960030249657402650C6003024907
:1048D800607412121E2C12497BFCA3E0F9EC240030
:1048E800F50EE439F50FEAF4F8EBF4F9EC58F8E5CD
:1048F8000F59F9E849705CE5082406F8ED3400F929
:10490800880A890B8882F5831249861208F98A1069
:104918008B11E50E65107004E50F65116042780E85
:1049280012204B850A82850B831249861208FF7470
:1049380002121DF7E9F50D7027780E12204B850835
:1049480082850983A3A31249841209177402121DD0
:10495800F7800D750D808008750D0D8003750D0BA2
:10496800A90D02401D8E828F8312497522E0F8A39B
:10497800E0F92212497588828983E022A3A3E0FC2A
:10498800A3E0FDEEFAEFFB2274E8121E3874E7127A
:104998001DE1851882851983EAF0A3EBF08C168D4A
:1049A80017890E7508007509007431121E2CE0F580
:1049B80012A3E0F5137433121E2CE0F514A3E0F5EE
:1049C800157435121E2CE0F50FE50975F003A4F8EF
:1049D800A9F0851882851983124AFAE0F47003A3B6
:1049E800E0F47003024ADDEE2402F50CEF124AF0FF
:1049F800E07003024ADD85160A85170B780A122033
:104A08004BAC14AD15AA12AB131208817402121D17
:104A1800F78A0A8B0BEA450B7003024ADDE4F510AE
:104A2800F511781012204B7406121E2C8582108501
:104A38008311781012204B7409121E2C8582108560
:104A48008311781012204B851282851383A3A3A3A8
:104A5800A31220627914AC0AAD0B8E828F83123EAA
:104A6800BE1208DB7408121DF7E97069850A828591
:104A78000B83A3A3A3A31249717402121E2C124123
:104A88002C850C82850D83E0A2E05018A90E7402D3
:104A9800121E2CAC82AD838E828F83123EBE12070B
:104AA800D3E94208850C82850D83E0A2E15026E512
:104AB8000FF50A780A12204FA90E7403121E2CACA7
:104AC80082AD838E828F83123EBE1207CD7401128F
:104AD8001DF7E942080509E509C394025003024994
:104AE800D1A90874190246573400F50D850C82F5D2
:104AF8008322E028FEA3E039FF8E828F832274F29E
:104B0800121E38EAFEEBFF890B7401650B600E7408
:104B180002650B706A7901120AD3E97062EEFAEF46
:104B2800FB1208C38A088B09EA45096047750A0021
:104B3800800B7C177D007900121061050A900366CE
:104B4800E0F8E50AC3985021E50A75F017A4F8A91A
:104B5800F0850882850983A3A3E028FAA3E039FB3E
:104B68008A828B8312342670C985088285098374EA
:104B7800FFF0A3F07C997D03EEFAEFFB1208F30235
:104B880048A274F2121E388A088B09ECFEEDFF74F5
:104B98000E121E2C124207900F7DE0F4603D7A0938
:104BA8007B00121073EA4B60328A828B8374B1F0F7
:104BB800A3E4124699A3124697A3E508F0A3E509D2
:104BC800124BE6EEF0A3EF124BE6A3A3E50AF0A31F
:104BD800E50BF0900F7DE0F912107F0248A2F08AF1
:104BE800828B83A3A3A3A3A322C082C083906190D6
:104BF8007404F0A37448F0A37402F09061807440C8
:104C0800F09061BC7403F09061877419F09062654C
:104C1800741BF0906249E0C3941390619C400A743D
:104C280009F090606674018007740DF0906066E486
:104C3800F090619A7433F0A37455F09061A0743ABF
:104C4800F09005BFE064017009C291900426746772
:104C580080059004267461F090318EE4939061860B
:104C6800F0903188E493F46027E493540FF890614E
:104C780085E0686012E5C654804449F5C6E59E544F
:104C88007F644970F8E8F053C680E59E547F70FA57
:104C98007905120E2D024E4CC082C083E9540FF9DB
:104CA800906185E0696012E5C654804449F5C6E51F
:104CB8009E547F644970F8E9F053C680E59E547F9E
:104CC80070FA024E4CC082C083E5A8F853A87E90C3
:104CD8006181E4F0A3F0A3F0C2BA539AFEC28975C9
:104CE8009B00C2C275E90075910075BF0075A911D6
:104CF80075B905906181F0A374C0F0A3E4F0D2BA4D
:104D0800439A0174805842A8024E4CC082C08374F2
:104D1800F8121DE1900424E0F8A3E0F9E8497003D3
:104D2800024E41900424E05440602379088518829B
:104D3800851983AA82AB83120C8F85188285198303
:104D4800AA82AB83120983900424E054BFF0E05494
:104D5800806010790C7AE57B05120C8F900424E0B2
:104D6800547FF0E0A2E0503190619A7433F0A3745C
:104D780055F09061A0743AF09005BFE064017009A5
:104D8800C291900426746780059004267461F0121D
:104D98000989900424E054FEF0E0540260319061E7
:104DA8009A743FF0A3745AF09061A0747FF0900554
:104DB800BFE064017009D291900426747180059057
:104DC8000426746AF0120989900424E054FDF0E086
:104DD8005404601390318CE493906186F012098F2B
:104DE800900424E054FBF0E05408601390318DE403
:104DF80093906186F012098F900424E054F7F0E054
:104E08005410601390318EE493906186F012098FEC
:104E1800900424E054EFF0E05420600A12098F90C7
:104E28000424E054DFF0A3E05401600D120BB71224
:104E38000995900425E054FEF07408121DF7024EFF
:104E48004CF0A3F0D083D08202013574EC121E38E6
:104E580074F4121DE1851882851983AC82AD8375BF
:104E680083857582F17404121CF490318C93F4607C
:104E780003024FDF907808E0C394025003024FBF4B
:104E88007404121E2CAC82AD8375838575828D7473
:104E980008121CF48518828519838582128583136C
:104EA8007404121E2CAC82AD83750EFF750FFF7F44
:104EB800FF7E00750C48750D78801574086E7003B8
:104EC800024F5374096E7003024F53740A6E607B6D
:104ED800850C82850D837808121CB18C828D83A97C
:104EE80009E50AC9F8881074187808121BDFE5105C
:104EF8004508F8C3E098A3E099850C82850D83786E
:104F080008121CB140188C828D8374187808121B03
:104F1800DFE5104508F8E0C398F8A3E0801C741892
:104F28007808121BDFE5104508FAE9FB8C828D83AF
:104F3800E0F8A3E0F9EAC398F8EB99F9C3E8950E0D
:104F4800E9950F5006880E890FEEFF0EE50C240434
:104F5800F50CE50D3400F50DEEC394135003024E25
:104F6800C374FF650E700474FF650F60238F0874A7
:104F7800027808121DCE74482508F5827478350920
:104F8800F5837808121CB1851282851383E508F031
:104F9800EC2402FCED3400FD851282851383A38581
:104FA8008212858313740C121E2CE5826C7003E543
:104FB800836D6003024EB175080175090078081207
:104FC800204B7402121E2CAC82AD837A637B0C12C8
:104FD80012F57402121DF7740C121DF77F0C021FD4
:104FE8000AC082C0839061AE7468F0A3746AF090BE
:104FF800624574FBF0A304F053F4FD43FE029005F0
:10500800BF7401F09061A0E0643A90619A702374D3
:1050180033F0A37455F09061A0743AF07401640100
:105028007009C291900426746780289004267461E0
:105038008021743FF0A3745AF09061A0747FF074DB
:105048000164017009D2919004267471800590045E
:1050580026746A024E4B7F08021F0AC082C08390E2
:105068000571E06401700A900576E06004790C80AF
:10507800027900024E4CC082C08375E1F19005743C
:10508800E0605B14600914605F14605714705E126E
:105098000BC990056AE0F97A6B7B05120DAF7AD6D9
:1050A8007BBE7C897D8E120DE57A557B557C557DBE
:1050B80000120DBB900575E0F9120DC77901120EAB
:1050C80021900568E0F8A3E0C82416F582E83400CA
:1050D800F58374E1F0A3740BF07900024E4C120BC7
:1050E800CF80AF120BD580AA120BDB80A579128076
:1050F800EA74F0121E3875D90D900555E0A2E0E467
:10510800331313F890056AE0C4333354C04844019C
:10511800F5D97868790588828983A3A3A3E0F5D9AE
:1051280088828983A3A882A983E8646E7003E964EE
:105138000570E37855790588828983A3E0F5D988D5
:10514800828983A3A882A983E8645B7003E9640564
:1051580070E575E195900555E0F97A567B05120DD5
:10516800B5900F9F7475F0A3740BF0A374D7F0A3D8
:10517800740CF0A374D7F0A3740CF0A374D7F0A345
:10518800740CF0A3747BF0A3740BF0A374D7F0A392
:10519800740CF0A37493F0A3740BF0900FAD74D754
:1051A800F0A3740CF0A374D7F0A3740CF0A374D715
:1051B800F0A3740CF0A374D7F0A3740CF0A374D705
:1051C800F0A3740CF0A374D7F0A3740CF0900574DA
:1051D800E064019005687012E0F8A3E0F583888226
:1051E800A3A37508007509088010E0F8A3E0F5830B
:1051F8008882A3A3750804750900750A00750B0059
:105208007808121C2A750CFF750DFF750EFF750FB7
:10521800007808790C121C78900568E0F8A3E0C8BB
:10522800240EF582E83400F5837808121CC0900536
:1052380068E0F8A3E0C82414F582E83400F5837424
:1052480013F09004227402F002505E74F7121E38B4
:1052580090057AE02407F5D990056AE0C433335401
:10526800C0F5D97868790588828983A3A3A3E0F576
:10527800D988828983A3A882A983E8646E7003E928
:10528800640570E390057AE0601F78687905FAE8AC
:105298002413F582E93400F583E0F5D988828983FF
:1052A800A3A882A9831AEA70E690059AE02407F574
:1052B800D990056AE0C4333354C04404F5D97868FA
:1052C800790588828983A3A3A3E0F5D98882898395
:1052D800A3A882A983E8646E7003E9640570E3906B
:1052E800059AE0601F78687905FAE82433F582E9C1
:1052F8003400F583E0F5D988828983A3A882A9833D
:105308001AEA70E675E195900F9F7481F0A3740B0B
:10531800F0A374D7F0A3740CF0A374D7F0A3740CA3
:10532800F0A374D7F0A3740CF0A3747BF0A3740BF0
:10533800F0A374D7F0A3740CF0A37493F0A3740BC8
:10534800F0900FAD74D7F0A3740CF0A374D7F0A34A
:10535800740CF0A374D7F0A3740CF0A374D7F0A363
:10536800740CF0A374D7F0A3740CF0A374D7F0A353
:10537800740CF0900568E0F8A3E0C8240EF582E804
:105388003400F58374FFF0A3F0A3F0A3F090056850
:10539800E0F8A3E0C82414F582E83400F583741219
:1053A800F09004227401F0FF021F0A74F7121E38ED
:1053B80090057AE02407F5D990056AE0C4333354A0
:1053C800C04402F5D97868790588828983A3A3A3A4
:1053D800E0F5D988828983A3A882A983E8646E70DE
:1053E80003E9640570E390057AE0601F7868790541
:1053F800FAE82413F582E93400F583E0F5D98882C8
:105408008983A3A882A9831AEA70E675E195900FAB
:105418009F748DF0A3740BF0A3748DF0A3740BF03C
:10542800A3748DF0A3740BF0A3748DF0A3740BF028
:10543800A3748DF0A3740BF0A3748DF0A3740BF018
:10544800A37493F0A3740BF0900FAD74D7F0A3740A
:105458000CF0A374D7F0A3740CF0A374D7F0A37462
:105468000CF0A374D7F0A3740CF0A374D7F0A37452
:105478000CF0A374D7F0A3740CF0900568E0F8A3BF
:10548800E0C8240EF582E83400F58374FFF0A3F039
:10549800A3F0A3F0900568E0F8A3E0C82414F5820F
:1054A800E83400F5837414F09004227404F0025771
:1054B8007A74F7121E3890057AE02407F5D990051A
:1054C8006AE0C4333354C04406F5D978687905884E
:1054D800828983A3A3A3E0F5D988828983A3A882BC
:1054E800A983E8646E7003E9640570E390057AE0C7
:1054F800601F78687905FAE82413F582E93400F525
:1055080083E0F5D988828983A3A882A9831AEA70DF
:10551800E690059AE02407F5D990056AE0C433338C
:1055280054C04404F5D97868790588828983A3A38F
:10553800A3E0F5D988828983A3A882A983E8646E49
:105548007003E9640570E390059AE0601F78687954
:1055580005FAE82433F582E93400F583E0F5D988C3
:10556800828983A3A882A9831AEA70E675E19590D7
:105578000F9F7487F0A3740BF0A374D7F0A3740C77
:10558800F0A374D7F0A3740CF0A374D7F0A3740C31
:10559800F0A374D7F0A3740CF0A374D7F0A3740C21
:1055A800F0A37493F0A3740BF0900FAD74D7F0A32D
:1055B800740CF0A374D7F0A3740CF0A374D7F0A301
:1055C800740CF0A374D7F0A3740CF0A374D7F0A3F1
:1055D800740CF0A374D7F0A3740CF0900568E0F88D
:1055E800A3E0C8240EF582E83400F58374FFF0A325
:1055F800F0A3F0A3F0900568E0F8A3E0C82414F540
:1056080082E83400F5837415F09004227403F002E4
:10561800577AC082C083900568E0F8A3E0C82406E2
:10562800F582E83400F583E4024E4974F7121E3817
:10563800900450E0F875F003A4C8AAF02AF974524F
:1056480028F8740439F9E82405FAE93400FB8A8259
:105658008B83E0FCA3E0FD88828983A3A3A3A3A393
:10566800A3A3A3A3ECF0A3EDF088828983A3A3A34B
:10567800A3A3A3A3E024FFF8A3E034FFF98A828B55
:1056880083E8F0A3E9F002577A74F7121E38EAFEAD
:10569800EBFF9061D0E0600302576E75D90E75D9A3
:1056A8000375D904EE248BF582EF3400F583E58287
:1056B8002408F8E5833400F9E0F5D9A3E865827099
:1056C80003E9658370F2EE2483F582EF3400F583F5
:1056D800E5822404F8E5833400F9E0F5D9A3E86508
:1056E800827003E9658370F275E1957908EE248B81
:1056F800FAEF3400FB120C837904EE2483FAEF34BA
:1057080000FB120C837C00EEF8EFF9ECFAC3E49A84
:10571800FA95E0FBEE2AFAEF3BFBEA248AF582EBE6
:105728003400F583E0C0E0E824AAF582E93400F506
:1057380083D0E0F00C88828983A3A882A983ECC374
:10574800940840C7EE246FF582EF3400F583E0F843
:10575800A3E0F9EE2471F582EF3400F583E8F0A3B5
:10576800E9F07901800279008008F0EEA2E092AFBA
:1057780079007F01021F0AC082C08375D90275D9DA
:105788000375D90575E195EA246FF582EB3400F5C8
:1057980083E0F8A3E0F9EA2471F582EB3400F5839D
:1057A800E8F0A3E9F07901024E4C74F6121E38EACB
:1057B800FEEBFF9005C57406F07508C575090578F8
:1057C8000812204B7C017903120CCB7402121DF7CE
:1057D80075D90675D9037582C5758305E0F5D9A312
:1057E800E58264CA7004E583640570F075E19590FC
:1057F8000422E06408701EEE246FF582EF3400F591
:1058080083E0F8A3E0F9EE2471F582EF3400F58324
:10581800E8F0A3E9F07901025A8074F6121E38EA1A
:10582800FEEBFF9061D0E0706678019005C5740BBF
:10583800F0900422E0640770197508C575090578A9
:105848000812204B7C017903120CCB7402121DF74D
:105858007805740128F5D975D9037582C57583054E
:10586800E8FAE0F5D9A31AEA70F875E195EE246F25
:10587800F582EF3400F583E0F8A3E0F9EE2471F542
:1058880082EF3400F583E8F0A3E9F079018002792A
:1058980000025A8074F7121E38EAFEEBFF75D9032E
:1058A80075D90375D90DEE24DDF582EF3400F58343
:1058B800E0F5D975E1957904120DEBEE246FF582C8
:1058C800EF3400F583E0F8A3E0F9EE2471F582EFF8
:1058D8003400F583E8F0A3E9F0790102577A74F609
:1058E800121E38EAFEEBFF9061D0E0F87480C3988E
:1058F800FAEE2482F582EF3400F583E06004780440
:1059080080027800E8240BF8EAC39850030259ABE8
:105918007D099005C5EDF0EE24E2F8EF3400F97A40
:10592800C67B057C0888828983E08A828B83F0881D
:10593800828983A3A882A9838A828B83A3AA82AB44
:10594800831CEC70E0EE2482F582EF3400F583E0EE
:10595800601D7508C5750905780812204B7C097902
:1059680003EEFAEFFB120CCB7402121DF77D0D74D7
:10597800012DF5D975D9037582C57583058D08E0A4
:10598800F5D9A31508E50870F675E1957904120DA7
:10599800EBEE241DF582EF3400F583E4F0A3F079F3
:1059A8000180027900025A8074F6121E38EAFEEB72
:1059B800FF9061D0E0F87480C398FAEE2482F582F3
:1059C800EF3400F583E06004780480027800E8246E
:1059D80008F8EAC3985003025A7E78069005C57401
:1059E8000CF090043FE09005C6F0900440E090056C
:1059F800C7F0900441E09005C8F0900442E090059B
:105A0800C9F0900443E09005CAF0EE2482F582EFD5
:105A18003400F583E0601B7508C575090578081220
:105A2800204B7C067903EEFA120CCB7402121DF798
:105A3800780A740128F5D975D9037582C575830567
:105A48008808E0F5D9A31508E50870F675E1957999
:105A580004120DEBEE246FF582EF3400F583E0F8C5
:105A6800A3E0F9EE2471F582EF3400F583E8F0A3A2
:105A7800E9F07901800279007F02021F0A74F612A8
:105A88001E38EAFEEBFF9061D0E0F87480C398FA04
:105A9800EE2482F582EF3400F583E0600478048018
:105AA800027800E82404F8EAC3985003025B5F78A0
:105AB800029005C5E8F0EE24F4F582EF3400F58392
:105AC800E09005C6F0EE2482F582EF3400F583E01D
:105AD800601B7508C5750905780812204B7C02798A
:105AE80003EEFA120CCB7402121DF7780674012823
:105AF800F5D975D9037582C57583058808E0F5D988
:105B0800A31508E50870F675E195EE2473F582EFA4
:105B18003400F583E4F0EE247FF582EF3400F5835A
