:020000040000FA
:0600000002011D02287739
:03002B000230643C
:0300330002304652
:030053000228EA96
:03006B0002301D43
:03007B00022FABA6
:100083000226E3E5C754F84401F5C77901220000CD
:100093000080FB120086B90003020107E47921788E
:1000A30008B800028004F709D8FCE479297802B87B
:1000B30000028004F709D8FCE49003017833790B3C
:1000C3008002F0A3D8FCD9FA781A90014D7A01BACC
:1000D30000028007E493A3F608DAF9900D33AA82AD
:1000E300AB8390014E78C379048015E493A3AC826B
:1000F300AD838A828B83F0A3AA82AB838C828D83A8
:10010300D8E9D9E77582967583D4740312012F75E4
:100113008291758300740012012F75D000758137A9
:10012300751801751903759F00020096C09FF59F0E
:10013300E473D09F22D083D082C09FE493C0E07445
:100143000193C0E0740293F59F2201FF0000B40005
:100153000028002800283075A000A000A000A000FF
:1001630000080008E001F00010001000100010006B
:100173001000100050005000500010001000D00775
:100183000000000000000F000100050030750700AB
:100193001000010081FF00000000FF0E072C071470
:1001A30007FF02020208025000A0000000E8030259
:1001B30079860100006786028B860100008A0D02A2
:1001C30091860100003303028B860100008B0D0230
:1001D30093860100004903028B860100008C0D0207
:1001E30095860100004B03028B860100008D0D02F2
:1001F30099860800004C03028B860100008E0D02D5
:10020300B9860100008F0DFF0100FF2002798601EE
:1002130000006A86028B86010000F30D029B8600B4
:1002230000000000028F860300009903D80CD80C4D
:10023300D80CD80CD80CD80CD80CD80CD80CD80C9B
:10024300D80CD80CD80C6C0F840F660FFFFFE0613D
:1002530069636F2D65676700000000000000000000
:10026300000000110199010F126404010279860153
:1002730000007086028B86010000500E0283860107
:100283000000510E028F860300000A0A02A58601B0
:100293000000520E020202020202020202010D00DB
:1002A300000010010279860100006486028B86013A
:1002B30000007C0E027D86010000100A028B86017D
:1002C30000007D0E027B86010000D084028B860134
:1002D30000007E0E027786010000B484028B860143
:1002E30000007F0E0275860100009D83028B86014C
:1002F3000000800E02AD86010000AF83028B8601F1
:100303000000810E028186010000C183028B8601F9
:100313000000820E028986010000D383028B8601CE
:100323000000830E02A786010000C284028B8601AF
:100333000000840E02A986010000850E01E8030572
:100343003F100A01FF00013075030201060000009F
:10035300000000000000000000000000000000009A
:10036300000000000000000000FFFF0600800CE812
:100373000301000000000000000000000000140959
:10038300000000000000000000000000000000006A
:10039300000000051250002003020A0002010603B8
:1003A30002F0FFCA1400000000B214D0140A43681C
:1003B3006172616374657269737469632031000AE1
:1003C300436861726163746572697374696320322F
:1003D300000A436861726163746572697374696367
:1003E30020330010436861726163746572697374CA
:1003F30069632034000A43686172616374657269DA
:10040300737469632035000A4368617261637465BC
:100413007269737469632036000A436861726163A9
:1004230074657269737469632037000A4368617283
:100433006163746572697374696320380002798635
:100443000100009185028B86010000950F02B186A1
:10045300030000A00C028D86010000960F028B861C
:10046300010000A70F02B386030000B40C028D86BF
:10047300010000A80F028B86010000B90F02B586A8
:10048300030000C80C028D86010000BA0F028B86A0
:10049300010000CB0F02B786000000DC0C028F8640
:1004A300030000DD0C028D86010000CC0F028B8659
:1004B300010000DD0F02A386030000E30C028D861A
:1004C300010000DE0F028B86010000EF0F02A18600
:1004D300030000F70C028D86010000F00F028B86EB
:1004E3000100000110029F860300000B0D028D86A0
:1004F3000100000210028B86010000131002978690
:100503000300001F0D028D86010000141012013834
:1005130079C20312013890C203120138C1C2031217
:100523000138FCC20312013826C30312013850C339
:100533000312013867C3031201387EC30312013863
:1005430095C303120138BEC303120138D1C303128A
:100553000138E7C303120138FAC30312013821C477
:100563000312013818CF021201381CD002120138CD
:1005730054D00212013877D00212013882D002120D
:100583000138A5D002120138B4D10212013889D240
:100593000212013804D3021201388CD3021201383B
:1005A300C7D302120138FED3021201388CD40212CF
:1005B300013865D502120138C5D502120138D0D5EC
:1005C300021201384FD60212013852D602120138F4
:1005D30055D602120138E4D602120138E7D60212C8
:1005E300013817D70212013841D7021201382FD828
:1005F30002120138E1D8021201382DFB0112013831
:1006030055FB0112013883FB01120138BAFB0112B9
:10061300013818FC0112013863FC01120138AEFCE9
:1006230001120138EEFC0112013834FD01120138C8
:1006330062FD011201381FFE0112013829FE011269
:10064300013836FE0112013869FE0112013835FF07
:100653000112013841FF0112013859FF011201381B
:1006630063FF0112013841D0031201384FD0031246
:10067300013867D0031201387FD00312013809CF44
:1006830001120138B5CF0112013830D001120138FF
:1006930051D1011201388DD10112013836D2011224
:1006A30001381DD30112013881D401120138D8D485
:1006B3000112013859D50112013849D60112013806
:1006C30096D6011201381CD7011201384ED70112F8
:1006D300013862D901120138A4D901120138C2D9F3
:1006E3000112013845DA0112013819DB0112013810
:1006F300E1DB011201388F780012013862790012B0
:1007030001380B7A001201385E7A001201380E7B31
:10071300001201389A7B00120138867C00120138DE
:10072300B57C00120138C87D00120138107E00121A
:100733000138E57E00120138217F001201383D7F28
:10074300001201384AD303120138D8A30312013827
:10075300EEA30312013814A40312013830A50312C7
:1007630001383AA5031201386FA60312013867A7AF
:1007730003120138D5F90212013805FB02120138C0
:1007830038FB0212013882FB0212013849FD0212C2
:100793000138E2AF011201384CB001120138ABB19C
:1007A30001120138BBB101120138E8B1011201385D
:1007B3003FB201120138E8B201120138EFB301125E
:1007C3000138B9B40112013819B6011201385CB607
:1007D3000112013801B7011201384EB70112013875
:1007E30074B70112013882B90112013887B90112B5
:1007F30001388CBB01120138D9BB011201384CBC42
:10080300011201387FBC0112013821BD01120138E8
:10081300CABD0112013802BE0112013805BE011220
:1008230001384DBE011201388DBE01120138E4BEFC
:1008330001120138CEAD03120138E6AD03120138BF
:100843002EAE0312013844AE031201388BAE0312ED
:1008530001389FAF031201382CB00312013877B06F
:10086300031201389030001201389C300012013815
:10087300D730001201381C3100120138DC3100126C
:100883000138623200120138C73200120138F332E4
:10089300001201382C33001201386A350012013876
:1008A3004E3700120138343900120138773A0012FA
:1008B3000138C53C00120138D73D00120138223FF0
:1008C300001201383240001201384F400012013843
:1008D3008A4000120138AC40001201380F41001267
:1008E3000138D04500120138654600120138B6467A
:1008F30000120138DD46001201382F47001201387B
:100903004D4700120138A7470012013890480012E2
:100913000138064A001201388A4A00120138DC8A7B
:1009230003120138E68A03120138298B03120138B6
:10093300448B03120138D48B03120138FC8B03124E
:100943000138398C03120138708C03120138998CE9
:10095300031201380E8D03120138238D031201385F
:10096300388D03120138698D031201387D8D03120E
:100973000138A28D03120138DC8D03120138088E71
:10098300031201388B8E03120138D48E03120138FF
:10099300FE8E03120138298F031201384FCD031243
:1009A300013817B70212013845B70212013893B85C
:1009B3000212013873B90212013892B902120138D6
:1009C3000FBA0212013852BA02120138A8BB02123E
:1009D300013869BC02120138F0BE0212013891BF1E
:1009E3000212013887C00212013884C10212013891
:1009F300DEC20212013869C302120138B1CA0312FE
:100A030001381ACB031201386ECB0312013895CB90
:100A130003120138C6CB03120138518F0312013878
:100A2300BE8F031201380590031201381D91031282
:100A33000138199203120138FC920312013852D97A
:100A43000212013894D90212013866DA021201380F
:100A53003FDB0212013839DC021201381BDD0212BE
:100A6300013884DD021201383ADE02120138AEDEAB
:100A7300021201381ADF0212013843DF0212013871
:100A8300BDDF0212013856E002120138BBE0021248
:100A93000138D0E00212013816E1021201382FE1C9
:100AA3000212013894E10212013897E1021201386F
:100AB300D5AA03120138FDAA031201383BAB031276
:100AC3000138F9AB0312013860AC031201387CAC76
:100AD30003120138A4AC03120138D4AC0312013859
:100AE300E3AC0312013860AD0312013886AD031283
:100AF3000138D1BF01120138AFC101120138E1C37E
:100B0300011201381DC4011201384AC4011201380F
:100B130034C5011201387FC501120138CAC501125B
:100B23000138DCC5011201381CC60112013851C657
:100B3300011201389FC601120138CEC601120138D5
:100B4300F1C6011201383EC701120138C3C70112B1
:100B53000138DDC9011201381CCC011201385DCC0A
:100B630001120138FFCD0112013840CE01120138C4
:100B7300B3CE0112013802AA0212013800AB0212ED
:100B8300013899B102120138BAB30212013885B59E
:100B930002120138EDB602120138F14A001201388F
:100BA300A04B00120138CD4B00120138134C001238
:100BB3000138534D00120138E94E00120138634FDA
:100BC300001201387E4F00120138F94F001201382C
:100BD300535100120138B35200120138B9530012B5
:100BE30001381A5500120138335500120138915556
:100BF300001201387F5600120138B2560012013834
:100C03002257001201389C5700120138E657001290
:100C13000138B05800120138855900120138645A5E
:100C230000120138EF5A001201385D5B00120138DF
:100C3300D15B00120138FC5B00120138BB5C00126F
:100C43000138205E001201383D5E001201385C5EFF
:100C5300001201384D5F00120138725F0012013833
:100C63009C5F001201381760001201387160001296
:100C73000138DA6100120138886200120138C96252
:100C8300001201382E9C021201387C9C021201389A
:100C9300889C02120138669D02120138979D021248
:100CA3000138C89D02120138489E02120138809E05
:100CB30002120138D29E021201380F9F021201382C
:100CC3002CA10212013852A3021201383DA50212CF
:100CD300013827A702120138FBFF01120138CF9B0D
:100CE30001120138FF9B01120138D8A20112013809
:100CF3005DA4011201385AAA0112013842AB011254
:100D030001387FAB01120138A2AB01120138D3AB1A
:100D130001120138DCAB01120138E6AB01120138D4
:100D2300D4AC01120138CAAD01120138C0860112D8
:100D33000138BF8A01120138C58A011201380092B5
:100D430001120138199701120138599C0312013815
:100D5300EF9C03120138059D031201387B9D03129A
:100D63000138EF9D031201382D9E03120138A19E15
:100D7300031201381A9F03120138239F031201380B
:100D83002F9F03120138449F03120138829F0312DD
:100D93000138989F03120138F79F031201380C980A
:100DA30003120138199803120138339803120138DA
:100DB300729803120138B09803120138159903127F
:100DC30001382A99031201383599031201384299DF
:100DD3000312013859990312013867990312013834
:100DE3007299031201387E99031201388D99031207
:100DF3000138989903120138BB9903120138629A9A
:100E030003120138729A031201388C9A03120138C3
:100E1300A99A03120138C59A03120138EA9A0312F8
:100E23000138F59A031201380A9B031201381E9BFD
:100E3300031201387F9B03120138859B031201388B
:100E43008B9B03120138919B03120138A99B031258
:100E53000138DC9B031201380580021201388980B6
:100E630002120138388102120138978202120138C6
:100E7300B88402120138A48502120138D9850212FE
:100E83000138FB8502120138AA8602120138A288B2
:100E930002120138CB88021201385D89021201382F
:100EA3008F89021201389C8902120138F3890212D8
:100EB3000138198A02120138868C02120138898D91
:100EC30002120138E18D02120138C1EC011201381E
:100ED300CBED01120138B2EE01120138BCEE011262
:100EE3000138DEEE01120138EAEE0112013883F017
:100EF30001120138B2F001120138CEF101120138AA
:100F030027F2011201388DF3011201386CF401123A
:100F13000138C8F40112013835F50112013870F5B2
:100F230001120138AFF50112013868F801120138D6
:100F330082F8011201380EF9011201381CF901126D
:100F4300013875F90112013883F901120138F6F9F4
:100F5300011201385AFA01120138A4FA01120138B8
:100F6300EAC3021201380CC40212013832C602125B
:100F7300013847C9021201385FCA0212013812CB85
:100F830002120138F4CB02120138D9C50312013819
:100F9300FEC50312013870C6031201385BF2021258
:100FA300013864F2021201386DF20212013844F37F
:100FB30002120138F5F4021201382BF5021201383E
:100FC30065F5021201389BF502120138D5F50212BC
:100FD300013809F60212013835F6021201387EF69D
:100FE30002120138B8F60212013801F70212013871
:100FF30059F7021201388EF702120138E9F702128B
:10100300013823F80212013874F802120138AAF8E1
:1010130002120138E4F80212013812F902120138FF
:1010230035F9021201389FD203120138CBD20312D1
:10103300013826D30312013830D30312013840D3C9
:1010430003120138BBE102120138C5E10212013873
:1010530003E2021201384CE20212013886E2021264
:101063000138E0E20212013801E302120138D9E546
:1010730002120138E2E5021201382FE602120138AA
:1010830058E60212013862E602120138CEE6021275
:10109300013860E702120138AAE702120138E0E7DB
:1010A300021201386CE802120138ADE8021201386D
:1010B300E4E802120138F6E80212013815E90212D7
:1010C30001381EE902120138EBE90212013868CE39
:1010D30003120138A6BE03120138DCBE0312013825
:1010E30012BF031201385DC00312013818D1031275
:1010F30001382ED10312013838D10312013882D1BD
:101103000312013837D4031201384286031201381F
:1011130057860312013807870312013847870312E2
:1011230001386087031201389B8703120138E8876F
:10113300031201381A88031201385C88031201383C
:101143005D8A03120138CF8A0312013820C90312C2
:10115300013849C90312013878C90312013810CA8A
:101163000312013828CA031201386ACA031201386C
:1011730033C4031201383EC403120138DFC403121F
:101183000138A7C503120138A1BC03120138AABC58
:10119300031201381BBD031201382FBD031201389E
:1011A30084BE031201384AD603120138CED3031288
:1011B300013871A7031201381DA803120138FDA8D5
:1011C3000312013855A903120138BCA903120138CF
:1011D300CFB503120138FFB503120138AAB60312C3
:1011E30001384CB703120138A1B003120138C6B05D
:1011F30003120138F0B003120138EED403120138A0
:10120300F962001201385E6500120138FF660012B0
:101213000138B36700120138466800120138CB6801
:1012230000120138F06800120138466C00120138D0
:10123300CC6C00120138FF6D00120138396E0012B8
:1012430001386E6E001201382E70001201388B7057
:1012530000120138D470001201383F7100120138B6
:10126300B07100120138E27100120138FA710012F4
:1012730001384373001201385373001201386E743E
:1012830000120138907400120138C674001201383C
:101293007A76001201380777001201384677001278
:1012A30001386A7800120138DED103120138EFD118
:1012B3000312013894D2031201388FD50312013877
:1012C300CED503120138EAFF011201385FCF0312B2
:1012D30001386FCF0312013887CF031201383BD097
:1012E300031201386DB3031201389EB303120138A0
:1012F30088B503120138FCFE0212013881FF021285
:101303000138E7FF021201380CCC0312013840CC3C
:101313000312013869CC03120138E0CC03120138FF
:1013230097C003120138C0C00312013826C103124B
:10133300013846C103120138D7C10312013832C242
:10134300031201386CC2031201386FC20312013851
:10135300BE9303120138F793031201386994031201
:1013630001387E9403120138A9950312013825969A
:1013730003120138EB96031201380A97031201385E
:101383003197031201386E970312013886970312BF
:101393000138D7970312013827A0031201383EA062
:1013A30003120138B8A0031201389CA103120138BB
:1013B30073A30312013844D503120138F87F0012D6
:1013C30001385EBA03120138F7BB0312013858BC67
:1013D300031201389EBC03120138E87F0012013862
:1013E300ED7F00120138F47F001201387EC703122B
:1013F3000138D0C7031201385AC803120138C1C8D3
:101403000312013819B80312013843B80312013823
:1014130011B903120138ECB90312013819EA0212A7
:101423000138E0EA0212013817EB0212013841EBEE
:1014330002120138A1EB02120138F7EB0212013854
:101443005CEC02120138F4EC0212013803EE0212D2
:1014530001389AEF0212013827F0021201388EF098
:1014630002120138A5F002120138BFF1021201384D
:10147300FDF1021201382F8E02120138B0910212CF
:1014830001383893021201388F9302120138AE9358
:10149300021201382C9402120138C295021201384B
:1014A300A79602120138B59A021201388B9B0212D9
:1014B3000138FADD011201386DDE0112013838E11D
:1014C30001120138E2E4011201386DE5011201381D
:1014D3009FE601120138B8EB0112013828EC011222
:1014E30001380080031201384580031201386280FD
:1014F3000312013884810312013832820312013846
:101503001B8303120138098603120138D8D503124D
:101513000138B27F0012013804D6031201382CD6E9
:1015230003E066701008A3E066700A08A3E0667023
:101533000408A3E06622C3E7960809E7960809E7CB
:10154300960809E79622C3E09608A3E09608A3E06D
:101553009608A3E09622C008C3E096F50808A3E026
:1015630096420808A3E096420808A3E0964508704F
:1015730001D3D00822E9799EC608CAC608CBC6089B
:10158300CCC6C370207996CACBCC7019798ECBCCDC
:1015930070137986CC700EF9802ACA33CACB33CB49
:1015A300CC33CC331930E7F2CCCBCA3350147004AC
:1015B300EA30E00DE4CA3ACACB3BCBCC3CCC500278
:1015C30009C3E913C6CC182313C6CB18C6CA18C659
:1015D300F92212161520F01430E72B74FFFCFBFAE6
:1015E300747F8022E4FCFBFA7480801AB48008BC08
:1015F30000F2BB00EF800F50EBF9E4C39AFAE49BCF
:10160300FBE49CFCE499C6CC18C6CB18C6CA18C622
:10161300F922E4C9C608CAC608CBC6D3330308CC2B
:10162300C63392F0C3947F402E94184019C9B9076A
:1016330004CACBCC225025C309CA33CACB33CBCC83
:1016430033CC33D9F422F4600DC9CCC313CB13CB01
:10165300CA13CAD9F6CC22E4FCFBFA2214FCFBFA27
:1016630022E6C33318461846184622E7C333194700
:101673001947194722181818E6084608700AE60899
:10168300C3337005E633F4220822191919E7094711
:1016930009700AE709C3337005E733F4220922E628
:1016A300084608C3134608336002E633F422E70909
:1016B3004709C3134709336002E733F4221216A222
:1016C300601D1216B17005191919801A1216787057
:1016D3001F12168DC37003E66733191919400718D3
:1016E30018182208080874FFF618F618F618F622D8
:1016F30012168D601712166E702192F01216647016
:1017030019501720F014080808090909E7F61819F1
:10171300E7F61819E7F61819E7F62212166460E6D9
:10172300E869701F0808E62480F608E436F61854C2
:101733007FB47F0CE654806007F6E418F618F622AF
:10174300181822E9C6CC08C6CD08C6CE08C6CFC035
:10175300E0E8C0E0EAC0E0EBC0E009E9F809E7FA35
:1017630009E7FBE6F918E6F8C3EC98ED99EE9AEB76
:10177300C2E7F5F0EFC2E795F0500E600CEBCFFB3C
:10178300EACEFAE9CDF9E8CCF8EAA2E7D2E7FAEB38
:1017930033FB13F5F0EEA2E7D2E7FEEF33FFC5F01C
:1017A30013A2E730E601B313C5F0C3C0E0C0F07F76
:1017B30000C39BFB605E9418600F401D14601AD039
:1017C300E023F9D0E0F80218A18AF0E9486003D2D7
:1017D300F0E4AFF0FAF9F8803BEB30E40D89F0EA7E
:1017E3006003D2F0E4AFF0F9CAF8EB30E30D88F010
:1017F300EF6002D2F0AFF0E4CAC9F8EB540760140B
:10180300FBC3EA13FAE913F9E813F8EF135002D212
:10181300E0FFDBEDD0E0C0E030E739C3E49FFFF544
:10182300F0EC98FC42F0ED99FD42F0EE9AFE42F0A6
:10183300D0E0F9D0E0F8E5F0607AE923F9EE20E7AB
:1018430042D8028067C3EF33FFEC33FCED33FDEE88
:1018530033FE80EAEC28FCED39FDEE3AFED0E023BE
:10186300F9D0E0F84002801BC3EE13FEED13FDEC4C
:1018730013FCEF135002D2E0FF08B800067F7F7419
:10188300FF802EEF3350178CF020F00260100CBC59
:10189300000C0DBD00080EBE000408E860DFE9334C
:1018A300E813FFEE2313FE4F4D4C8008E95480FFED
:1018B300E4FEFDFCEE33EF33F47004FCFD7E80D0D8
:1018C300E0FBD0E0FAD0E0F8D0E0CFC618CEC618DF
:1018D300CDC618CCC6F9221216A270041818182205
:1018E3001216B1700D74FFF61819F61819F61819B7
:1018F300F622E7548066F6121664700F12166E70A5
:10190300F014F608F608F608F680D112166E700C7D
:10191300F608F608768008E6447F80EC121690708D
:101923000C12167B60BFE65480F6E480BB12167B74
:10193300700519191980A5E869700C763F1876802F
:1019430018F618F6E8F922E6CDC0E018ECC0E0E698
:1019530033CD33CDD313F6E719FCE7191933CC3361
:10196300C3947F400ECD9D502408E65480F6E418BE
:10197300F6800FF4043D14501408E6447FF61876FD
:1019830080E418F618F6D0E0FCD0E0FD22CCD313A7
:10199300CCFD18E4C6CBC0E018E4C6CAC0E0080812
:1019A300ED08C633E613F618E433C675F003C3CA6D
:1019B30097CA09CB97CB199C40047D08802EBD00A4
:1019C30003021A8316B6FF050606081618C3CA33A0
:1019D300CACB33CB33CA27CA09CB37CB193CC37D18
:1019E30008803E187D0820E75CC633C6CA33CACBDD
:1019F30033CB33DDF1D5F0EB30E77BCA97CA09CBA4
:101A0300974ACB199C406F4B7025E620E0218066F6
:101A1300187D08C3CA97CA09CB97CB199CD3C63381
:101A2300C6CA33CACB33CB3350C9DDE7D5F0E1D3D4
:101A3300E4C636C608C636C608C636C608C636C69F
:101A43001818188031C3CA97CA09CB97CB199CB30E
:101A53004097C633C6CA33CACB33CB33DD34D5F054
:101A63002EC6A2E0C640C8CA27CA09CB37194A7096
:101A7300BECB3CB480B90808E63308E633601F18D0
:101A83001818D0E0FAD0E0FBD0E0FCD0E0FD22183B
:101A93007D08CA27CA09CB37CB193CD3808013F6FC
:101AA30018E4B67F11F618B6FF0EF618C60470D206
:101AB3000808768080CAF618F618F680C508080864
:101AC300EAC0E0EBC0E086F0E7A4FA180986F0E785
:101AD300A42AFA180986F0E7A42AFA180986F0E777
:101AE300A42AFA1986F0E7A4FBE5F02AFA19088676
:101AF300F0E7A42BFBE5F03AFA190886F0E7A42BEC
:101B0300FBE5F03AFA18180986F0E7A4C5F02BFBB9
:101B1300E43AFA1908E7C5F0C6A426F6E5F03BFB5C
:101B2300E43AFA1886F0E7A4F6E5F00826F6E43B73
:101B330008F6E43A08F6D0E0FBD0E0FA22E4CFC09E
:101B4300E0E4CEC0E0E4CDC0E0E4CCC0E075F0203A
:101B5300C3E633F608E633F608E633F608E633F66B
:101B6300181818EC33FCED33FDEE33FEEF33FFC3EF
:101B7300EC9709ED9709EE9709EF97191919400F9B
:101B8300FFEC97FC09ED97FD09EE97FE191906D5B1
:101B9300F0BEECF709EDF709EEF709EFF71919199C
:101BA300D0E0FCD0E0FDD0E0FED0E0FF22601608DC
:101BB3000808C6C313C618C613C618C613C618C664
:101BC30013C6D5E0EA22700908080822601618181F
:101BD30018C6C333C608C633C608C633C608C633D9
:101BE300C6D5E0EA22E627F60809E637F60809E64D
:101BF30037F60809E637F622E026F608A3E036F6BC
:101C030008A3E036F608A3E036F622E026F008A3A0
:101C1300E036F008A3E036F008A3E036F022C3E68E
:101C230097F60809E697F60809E697F60809E6978E
:101C3300F622C3E096F008A3E096F008A3E096F03E
:101C430008A3E096F022E657F60809E657F60809D6
:101C5300E657F60809E657F622E056F608A3E056DB
:101C6300F608A3E056F608A3E056F622E056F0087D
:101C7300A3E056F008A3E056F008A3E056F022E0F4
:101C8300F608A3E0F608A3E0F608A3E0F622E6F0E0
:101C930008A3E6F008A3E6F008A3E6F022E0FAA31F
:101CA300E0FBA3E0FCA3E0FD22EAF0A3EBF0A3EC4E
:101CB300F0A3EDF022CAC0E0E6F0A308DAFAD0E020
:101CC300FA22CAC0E0E0A3C582CCC582C583CDC5D4
:101CD30083F0A3C582CCC582C583CDC583DAE6D0A4
:101CE300E0CA22C3E498F8E499F9121D278026C3B9
:101CF300E49AFAE49BFBE920E7E9121D27E498F84C
:101D0300E499F922C3E498F8E499F9121D27E498B9
:101D1300F8E499F9C3E49AFAE49BFB22EB20E7CFBA
:101D2300E920E7E0B90010BB0008E88AF084F8AACC
:101D3300F022E4FBC8FA22EB70227B10C833C8C937
:101D430033C9335007C39AC3DBF280069A50012A82
:101D5300DBEAC833F4C8C933F4C9FA2275F008E4DE
:101D6300C833C8C933C933C99AC99B5004C92AC9DE
:101D73003BD5F0ECFBC833F4C8E4C9FA22600D0884
:101D8300C6A2E713C618C613C6D5E0F322600C0833
:101D9300C6C313C618C613C6D5E0F4227004226066
:101DA3000D18C6C333C608C633C6D5E0F4182225BA
:101DB3001810AF08F518400215198008F5184002ED
:101DC3001519D2AF22C0D0251810AF08F51850024C
:101DD30005198008F51850020519D2AFD0D0222575
:101DE30018F58210AF08F518400215198008F51888
:101DF30040021519D2AF851983222518F582E435DF
:101E030019F58322E4732518C582C0E0E51934FF70
:101E1300C583C0E0E518C3958224F810AF08858315
:101E2300198582188008858319858218D2AFCEF070
:101E3300A3E520F0A37808E608F0A3DEFAEFF0A309
:101E4300E58124FAF8E608F0A3E608F0A3E608F033
:101E5300A30808E608F0A3E608F0A315811581D0CE
:101E6300E0FED0E0F8158115811581E8C0E0EEC0F1
:101E7300E0222518C582C0E0E51934FFC583C0E020
:101E8300E518C3958224F910AF0885831985821854
:101E93008008858319858218D2AFCEF0A3E520F0A0
:101EA300A37808E608F0A3DEFAEFF0A3E58124FBAC
:101EB300F8E608F0A3E608F0A30808E608F0A3E6AE
:101EC30008F0A315811581D0E0FED0E0F815811547
:101ED30081E8C0E0EEC0E022851983851882E0A383
:101EE300FEE0A3F5207808E0A3F608DFFAE0A3FFFD
:101EF300E0A3C0E0E0A3C0E0E0A3C0E0E0A3C0E053
:101F0300E0A3C0E010AF0885821885831980088597
:101F13008218858319D2AFD083D082020135851907
:101F230083851882E0A3FEE0A3F5207808E0A3F6FA
:101F330008DFFAE0A3FFE0A3C0E0E0A3C0E0E0A372
:101F4300C0E0E0A3C0E010AF088582188583198044
:101F530008858218858319D2AFD083D08222C0D05E
:101F63002518C582C0E0E51934FFC583C0E0E51834
:101F7300C3958224F310AF088583198582188008DE
:101F8300858319858218D2AFC8F0A3E9F0A3EAF0DC
:101F9300A3EBF0A37908E709F0A3D8FAECF0A3EDDB
:101FA300F0A3EEF0A3EFF0A3D0E0F0A3D0E0F0A312
:101FB300D0E0F0A3E520F0A3E5F0F0A32285198398
:101FC300851882E0C0E0A3E0F9A3E0FAA3E0FBA355
:101FD3007808E0F608A3DFFAE0FCA3E0FDA3E0FE47
:101FE300A3E0FFA3E0C0E0A3E0C0E0A3E0F5D0A33B
:101FF300E0F520A3E0A3F5F010AF088583198582EF
:10200300188008858319858218D2AFD082D083D0F7
:10201300E0F8D0E03274048006740280027401C0D8
:10202300E0F404121DE2D0E0121CB8227404800410
:1020330074028000CCC0E0EDC0E0E518C39CCCADD9
:102043001950011D10AF068C188D1980068C188D40
:1020530019D2AF121CC5D0E0FDD0E0FC22D083D052
:1020630082E9C0E0E493A3C386F0C5F095F0F908D4
:10207300E493A386F0C5F095F0700BE493A3C399A2
:102083004005E9048002A3E475F002A42582F582E9
:10209300E5F03583F583D0E0F9E493A3C0E0E4935E
:1020A300C0E022D083D082ECC0E0EDC0E0E493A393
:1020B300FCE493A3FDED4C600D1220F2EC24FFFC35
:1020C300ED34FFFD80EFE493A3FCE493A3FDED4C1B
:1020D300600D122131EC24FFFCED34FFFD80EFD0C5
:1020E300E0FDD0E0FCE493A3C0E0E493C0E022C0B1
:1020F300E0C3E49396087401939618400FE4936643
:10210300700808740193661870007019A3A3C3E4E0
:102113009396087401939618A3A3400DD0E0D0E0E2
:10212300D0E00220E2A3A3A3A3A3A3D0E022C0E0B4
:10213300C0F088F0E4936670080874019366187021
:1021430000A8F0A3A3700BD0F0D0E0D0E0D0E00261
:1021530020E2A3A3D0F0D0E02274F5121E75EAFEAC
:10216300EBFFEE2434F8EF3400F988088909EE24F4
:1021730035F582EF3400F583E0F8EE2437F582EF8E
:102183003400F583E0F50AEC850AF0A4FCAAF08597
:102193000AF0EDA42AFDE82CF8E43DF97A257B004A
:1021A300121D27EA850882850983F0F8740758F918
:1021B3007401B900028004C333D9FCFAE813131382
:1021C300541FF8EE28F8EF3400F9E8245DF582E9AE
:1021D3003400F583E05A6008EE2434F582EF802C56
:1021E300EE2434F582EF3400F583E0C0E0EE2436CC
:1021F300F582EF3400F583E0F5F0D0E084A8F0EE4B
:1022030028F8EF3400F9E82438F582E93400F5833F
:10221300E0F97F04021F2174F5121E75EAFEEBFF3D
:10222300EE2434F582EF3400F583E0C0E0EE24358C
:10223300F582EF3400F583D0E0F08E828F83A3A381
:10224300A3A3A3A3A3C082C0838E828F83A3A3A3CC
:10225300A3A3E0F8A3E0F9D083D082E0C398F50804
:10226300A3E099F509EE247FF582EF3400F583E0CE
:1022730064017069EE2480F582EF3400F583E0F8A1
:10228300A3E0F98E828F83A3A3A3A3A3A3A3E0FC5C
:10229300A3E0FD8E828F83A3A3A3A3A3E0FAA3E00D
:1022A300FBC3EA9CEB9D5010C3EC98ED99402EC301
:1022B300EA98EB995027800EC3EA98EB994007C33D
:1022C300EC98ED9940177C5C7D05EEFAEFFB120C60
:1022D30036EE247FF582EF3400F583E4F0EE243408
:1022E300F8EF3400F9E8FCE9FDEE2435F582EF342C
:1022F30000F583E0F8EE2437F582EF3400F583E050
:10230300F50AE508850AF0A4F508AAF0850AF0E5C0
:1023130009A42AF509E82508F8E43509F97A257BA3
:1023230000121D27EA8C828D83F0F8740758F97424
:1023330001B900028004C333D9FCFAE81313135420
:102343001FF8EE28F8EF3400F9E8245DF582E9344C
:1023530000F583E05A6008EE2434F582EF802CEE1A
:102363002434F582EF3400F583E0C0E0EE2436F543
:1023730082EF3400F583E0F5F0D0E084A8F0EE2896
:10238300F8EF3400F9E82438F582E93400F583E006
:10239300F9122F97022215C082C0838518828519EE
:1023A30083E0F8A3E0F9C3EA9CEB9D5010C3EC98DB
:1023B300ED99401BC3EA98EB995014800EC3EA9839
:1023C300EB994007C3EC98ED9940047901800279B9
:1023D30000D083D08222EAC39CFAEB9DFB2274EFE8
:1023E300121E75900422E064086005E06407702AF9
:1023F3009061C8E06024900450E0F4601DE0F8753B
:10240300F003A4C8AAF02AF9745228FE740439FF11
:102413008E828F83A3A3A3E07003022511906060D3
:10242300E0C0E0EE2468F582EF3400F583D0E0F0FD
:10243300750CC5750D05750800750900E5D914F50A
:102443000AE5D95403F50E60177403650E605CE565
:102453000A6010EE2467F582EF3400F583E0700321
:102463000224F69005C0E06401602AEE2482F5821E
:10247300EF3400F583E06004780480027800850A75
:1024830008E508C398FA95E0FB120B048A088B0948
:10249300EA45097005120E3A8074EE2482F582EF44
:1024A3003400F583E070048A0C8B0DE50A60128515
:1024B3000C82850D83F50BE5D9F0A3150BE50B70A5
:1024C300F6EE2482F582EF3400F583E0604474FC79
:1024D300250AF50A780C12201CAC0AA90EEEFAEFB5
:1024E300FB120CD27402121DC8E97026AA08AB09AC
:1024F3001213F2793D8E828F83A3A3A3A3E0FA7B09
:10250300001209D8EEFAEFFB120C4E120CE479001C
:1025130080747403650E6056850A10751100781077
:1025230012201CAC0CAD0DAA08AB09120CAE740240
:10253300121DC8EE2468F582EF3400F583E0648051
:102543007004747F8001E0F50C780C122020E50EF6
:10255300F50C780C122020A90AAC08AD09900450A0
:10256300E0FA7B0012099C7402121DC880139004C8
:1025730022E06408600BAC0CAD0DEEFAEFFB120D1C
:102583003E120E4679017F0A021F2174F5121E7551
:1025930074FC121DB2EAFEEBFF8908A2AFE433F527
:1025A30009C2AF806AEE2463F8EF3400F97A007B46
:1025B30000A2AFE433F50AC2AF88828983E0FCA3AB
:1025C300E0FDEC4D603A88828983E0FAA3E0FB8A60
:1025D300828B83E0FCA3E0FD88828983ECF0A3ED8A
:1025E300F08A828B83E4F0A3F088828983E0FCA3E2
:1025F300E0FDEC4D700A88828983A3A3E4F0A3F085
:10260300E50AA2E092AF1213F2900563E004F0EE44
:102613002463F582EF3400F583E0F8A3E0F9E84999
:10262300603DEE2463F582EF3400F583E02402FA83
:10263300A3E03400FBEA2402F50AEB3400F50B783F
:102643000A12201C8A828B83E0FCA3E0F9EEFAEFE6
:10265300FB120C727402121DC8E970030225A890C4
:102663000563E06063900564E0F8900563E0C39858
:10267300500C740265087050900565E0604A8E82C4
:102683008F83A3A3A3A3E0851882851983F0A3E412
:10269300F0900563E0F87402121DFDE8F0A3E4F086
:1026A300900563E0F8900562E028F07402121DFDC6
:1026B300AC82AD83851882851983AA82AB837901A5
:1026C3001209A8900563E4F0E509A2E092AF74044F
:1026D300121DC80222150000008521878522C6220B
:1026E300C0E0C0D0E8C0E0E9C0E0EAC0E0EBC0E091
:1026F300ECC0E0EDC0E0EEC0E0C008C009C00AC015
:102703000BC082C083C0F0A2AFE433FEC2AF759B9F
:1027130000906182E0A2E05012E591A2E0500C75B6
:1027230091FE7401652170031223E1E0A2E550518B
:10273300E591A2E5504B7591DF900422E0640760B8
:1027430005E06408702374016521703579019004F4
:1027530050E0FA75F003A4CAA8F028FB74522AFAD1
:1027630074043BFB12258E8018E0640D70139004F3
:1027730044E004F064287002E4F07A00E0F9120EF9
:102783004C906182E0A2E6400302282AE591A2E68A
:10279300400302282A7591BF900422E06405700863
:1027A300120D74120D808003120D7A752100120D23
:1027B300DAE9900423F07900120DCE120BAC7A0102
:1027C3007B00900421E0F91210A4907803E06442A6
:1027D30070559005C4E014F0704DC2AF1227E200AB
:1027E300782AD0E0F618D0E0F6E59F540770057517
:1027F30009FF800375097FC4C0E07829E6F508085E
:10280300E65509F509740B7808121D90D0E02508E8
:10281300F8906270E0A2E740F8E8C333906272F088
:10282300906270E0D2E0F0906181E0A2E35009E5AC
:10283300E9A2E3500375E9F7A3E0A2E75009E591A4
:10284300A2E7500375917FEEA2E092AFD0F0D08360
:10285300D082D00BD00AD009D008D0E0FED0E0FD62
:10286300D0E0FCD0E0FBD0E0FAD0E0F9D0E0F8D043
:10287300D0D0E032C0E0C0D0C082C083906183E09A
:10288300A2E05009E5BFA2E0500375BFFEE0A2E15C
:102893005009E5BFA2E1500375BFFDE0A2E2500974
:1028A300E5BFA2E2500375BFFBE0A2E35009E5BF19
:1028B300A2E3500375BFF7E0A2E45009E5BFA2E429
:1028C300500375BFEFE0A2E55009E5BFA2E5500351
:1028D30075BFDFE0A2E65009E5BFA2E6500375BF6E
:1028E300BFD083D0828088C0E0C0D0E8C0E0E9C018
:1028F300E0EAC0E0EBC0E0ECC0E0EDC0E0C0F0E532
:10290300A7A2E6500FE5A1A2E6500953A7BF75A100
:10291300BF12294FE5A7A2E5500CE5A1A2E5500699
:1029230053A7DF75A1DFE5A7A2E15009E5A1A2E165
:10293300500375A1FDE5A7A2E2500CE5A1A2E25068
:102943000653A7FB75A1FBD0F002286074F8121E92
:1029530075752101900422E064067015120D028A38
:10296300828B83A3A3A3A3A3A3E0FAA3E0FB120D8B
:1029730062A2AFE433FED2AF900428E06401701882
:102983007A207B00900421E0F912112E7A207B003B
:10299300900421E0F91210AA906182E0D2E6F0904F
:1029A30005C1E0602185C6228016900427E06401FA
:1029B3007008E5C654F84405F5C653BEFC1226DC80
:1029C3007401652160E4EEA2E092AF7F01021F2152
:1029D300008E238F24858228858327851882851975
:1029E30083E0CEA3E0CF852882852783EBC9EAC89D
:1029F300EDCBECCA75F010C3E833C8E933C9EA3349
:102A0300CAEB33CBC3EA9EF526EB9FF525B35004FF
:102A1300AB25AA26EC33CCED33CDD5F0DAAE23AF1C
:102A2300242274E9121E7574F8121DB2851882856A
:102A33001983ECF0A3EDF08A088B09900422E024BB
:102A4300F7C394055006750801022BBC120D028AC8
:102A53000A8B0BAE0AAF0BEE4F7003022BB9AC0817
:102A6300AD097402121DFDAA82AB83120D928E82F0
:102A73008F83A3A3750CFF750DFF750EFF750F00F4
:102A8300780C121C5C7402121DFD7510FF7511FF8A
:102A93007512FF7513007810121C5C780C791012F4
:102AA3001539502A780C7910121C21750801750903
:102AB300C8750A00750B007808790C121539505245
:102AC300850C08850D09850E0A850F0B805075143A
:102AD300017515C87516007517008510088511094D
:102AE30085120A85130B7808790C121C2178147946
:102AF30008121539401C750800750900750A007520
:102B03000B0178087910121C217808790C121BE844
:102B1300800C750801750900750A00750B007409AE
:102B23007808121BC9750C19F50DF50EF50F780809
:102B3300790C121B408E828F83A3A3A3A3A3A3E0CC
:102B4300F8A3E0F97AD07B03121D27880C890DE4E2
:102B5300F50EF50F7808790C121BE87406121DFDAB
:102B6300E0F8A3E0F97AD07B03121D27E8FA8A0C78
:102B7300E4F50D7808790C12153950077808790CAB
:102B8300121C21900422E06408600AE064066005D8
:102B9300E06405702D750C0D780C79081215394019
:102BA30021750CF4750DFF750EFF750FFF7808790D
:102BB3000C121BE8800C750800750900750A007576
:102BC3000B00851882851983E0F8A3E0F5838882DA
:102BD3007808121C917408121DC87F10021F2174FB
:102BE300F7121E75120DA49005BFE06401701090DA
:102BF3006245E4F0A3F053F4F343FE0C5390F31255
:102C03000D50E5C654804449F5C6E59E547F64499A
:102C130070F8906185740FF09005BDE0F47002A325
:102C2300E0604E9005BEE0600814601B14602E80C7
:102C3300407508017509009005BDE07808121D9FD5
:102C4300E508F45280802A7508017509009005BDD6
:102C5300E07808121D9FE508F4529080147508016E
:102C63007509009005BDE07808121D9FE508F45230
:102C7300A079007F02021F2174F7121E75E9FEEA94
:102C8300FF74016E700C7A807B00900421E0F912CE
:102C930010A4903088E493F46008E493F9120BA035
:102CA300800953C680E59E547F70FA120D56900535
:102CB300BFE064017003120BB89005BDE0F470022D
:102CC300A3E0604B9005BEE0600814601A14602C0A
:102CD300803D7508017509009005BDE07808121D57
:102CE3009FE508428080287508017509009005BD9D
:102CF300E07808121D9FE50842908013750801755E
:102D030009009005BDE07808121D9FE50842A01256
:102D13000DA4120D028A088B09A808A909E84960C5
:102D230015E5E170FCE82414F582E93400F583E04D
:102D3300F46003E0F5E174016F700A7A01900421F5
:102D4300E0F91210F8022C7674ED121E758A088BC6
:102D5300098C0A8D0B7413121DFD780C121C8278DA
:102D630008790C1215397510017511C875120075A3
:102D7300130050127808790C121C2178107908126C
:102D8300153950168010780C7908121C21781079A7
:102D93000C12153940047901800279007F0C021F5F
:102DA3002174ED121E758A088B098C0A8D0B74131E
:102DB300121DFD780C121C82780C7908121539400B
:102DC300117808790C121C21AA08AB09AC0AAD0BC7
:102DD30080227510007511007512007513017810AB
:102DE300790C121C2178107908121BE8AA10AB1178
:102DF300AC12AD1380A68A828B837508FF7509FF19
:102E0300750AFF750B007808121C6F7F04021F21DF
:102E130074F5121E758C828D837808121C828A8247
:102E23008B837808121C35EA2404F8EB3400F98C00
:102E3300828D83A3A3A3A3E0FCA3E0FD88828983FF
:102E4300C3E09CF0A3E09DF088828983C3E09420D3
:102E5300A3E0944E40268A828B837508FF7509FF91
:102E6300750AFF750BFF7808121C0E8A828B83A3E9
:102E7300A3A3A3E02420F0A3E0344EF0022DF974C1
:102E8300F5121E75E9FE900577E0FAA3E0FBEEC3A9
:102E930033F8E433F9743828F582748439F583E020
:102EA3002AF508A3E03BF509780812201C7A407B39
:102EB300427C0F7D001229D47402121DC88A088B2C
:102EC300098C0A8D0B74107808121BB0AA08AB0981
:102ED3007F04021F2174F1121E758A0C8B0D8C0E58
:102EE3008D0F740F121DFDE0FAA3E0FB7411121D88
:102EF300FDE0F508A3E0F509780812201CEA240197
:102F0300F508EB3400F509E4F50AF50B780C7908BC
:102F1300121AC0750871750902780C7908121AC063
:102F2300AA0CAB0DAC0EAD0F1229D47402121DC83E
:102F33008B09EA450960047A0180027A00EC2AFCD5
:102F4300ED3400FD7413121DFDE0F8A3E0F9E8FE73
:102F5300E9FFECF8EDF97A717B02121D27880889E5
:102F6300098E828F837808121C91ECF8EDF97A713F
:102F73007B02121D278A088B0974057808121D9F8E
:102F83008E828F83A3A3A3A3E508F0A3E509F07FB3
:102F930008021F21C082C083E9906000F0D083D073
:102FA3008222C2AF02000022C0E074EB121F6174E0
:102FB300F9121DB2538AFE9086447808121C82903F
:102FC30009E37808121C0E9009E37808121C82901A
:102FD3008648780C121C827808790C121B40E50C89
:102FE300450D450E450F70269085CAC0828518820F
:102FF300851983AC82AD83758385D0827407121CD7
:10300300C5851882851983AA82AB831212E4C2EBA9
:103013007407121DC87F08021FC0C0E074F2121F9C
:1030230061A2AFE433FED2AFE589A2E150031213EC
:103033003E758900C2C5751A00EEA2E092AF7F010A
:10304300021FC0C0E074F2121F61A2AFE433FED2CC
:10305300AFE58BA2E0500312133E758B00C2E880EC
:10306300D5C0E0C0D0E8C0E0E9C0E0E5A8D2AFC277
:10307300C7751A00A2E7A2E792AFD0E0F9D0E0F853
:10308300D0D0D0E032FFFFFFFFFFFFFFFFC082C0C1
:1030930083E9900DF2F002331F74F7121E09E990D1
:1030A3000361F07C997D037AFF7BFF1208F49003A0
:1030B3006274FFF0A3F0A3E4F0A3F0790512087C97
:1030C300900361E0F912079E7A127B09120AB67F18
:1030D30001021EDB74F4121E098A088B09EB54806B
:1030E3006030900361E0F912108C8A0A8B0BAE0AF0
:1030F300AF0BEE4F60138E828F83E064B0700312C8
:103103000894EEFAEFFB12107AAA08E5096480FB33
:1031130080047A007B000232EE74F2121E0974FC02
:10312300121DB2EAFEEBFFEE4F60387402121DFD72
:10313300EEF0A3EF123553ECF0A3ED123553AA8250
:10314300AB83120798E9F50870737412121DFD1210
:103153004107E50A450B60658E828F831231CAEE03
:103163004F700575080280557A067B001210E08ABD
:103173000C8B0DA80CA90DE8497005750813803D4B
:1031830088828983E41231D4A3A3EEF0A3EF12451E
:10319300A0E50AF0A3E50BF090036712325C9003FD
:1031A300676017E0FCA3E08003EAFCEBFD8C828DF3
:1031B3008312325C70F38C828D8312402CA90874C5
:1031C30004121DC80247A2A3A3A3A3E0FEA3E0FF2A
:1031D30022F0A3F0888289832274F2121E09890ADD
:1031E300E975F017A4FEAFF0900366E4F090036472
:1031F30012325C600A1210E6900364E4F0A3F0EE6E
:10320300FAEFFB1210E08A088B09EA4509602FEEFA
:10321300FCEFFD7900121062900364E508F0A3E56A
:1032230009F07B008008123246E4F0A3F00BEBC3F5
:10323300950A40F2E50A900366F07900800279135B
:103243000247A2EB75F017A4F8A9F0900364E028F5
:10325300FAA3E0398A82F58322123DC2EA4B227433
:10326300F4121E09750800750900740C121DFD1275
:103273004574FEE9FF800CE5082401F508E50934EF
:1032830000F509C3E5089CE5099D503285080A85C8
:10329300090B7403780A121D9FEA250AF8EB350B14
:1032A300F988828983A3A3A3A3A3A3124107EE658D
:1032B3000A7003EF650B70BFE8FAE9FB80047A003C
:1032C3007B00802774F4121E097900EAA2E0501BE8
:1032D3007508E3750985780812201C7C047D007A43
:1032E300F47B0D1208767402121DC87F04021EDBE4
:1032F300C082C083900367123326601C888289834F
:10330300A3A3E06A7003A3E06B8882898370E8A3B8
:10331300A3A3A3123DBE80047A007B00D083D08296
:10332300020135124875E8492274EE121E0974FC35
:10333300121DB2EAFEEBFF851882851983E4F0A320
:10334300F0EE2402124010EE2405123541EE24045F
:10335300F50EEF123926E024FE603924FC60462482
:10336300FE605224FE605E24FE700302344624FE97
:1033730070030234BE24FE70030234CD24FE7003B6
:103383000234DC24FC70030234EB24FE70030234A9
:10339300FA0235379003807417F0A3E412355B12F9
:1033A3000516023537851882851983AC82AD8312E1
:1033B300089A023507851882851983AC82AD83127A
:1033C30008A0023507850C08850D097402121DFD3E
:1033D300AC82AD83850882850983123DBE1207BC8A
:1033E3008A0C8B0DAC0CAD0DEC4D6042E4F50CF585
:1033F3000D780C12201C750C80750D03780C1220AF
:103403001C750C81750D03780C12201C7408121D99
:10341300FD1220337916123DB81208DC7408121D10
:10342300C8E9F50C700B123DB412052E800F750C14
:103433000185088285098312354912402C850C08C1
:1034430002350A7402121DFDAC82AD83850C8285A0
:103453000D83123DBE1207BC8A108B11AC10AD1147
:10346300EC4D6043850C82850D83A3A31220337535
:103473001080751103781012201C751081751103CB
:10348300781012201C7408121DFD122033791612B5
:103493003DB81208DC7408121DC8E9F509700B1257
:1034A3003DB4120534800F750901850C82850D83A7
:1034B30012354912402C850908804C8518828519DC
:1034C30083AC82AD831208A6803A8518828519835E
:1034D300AC82AD831208AC802B851882851983AC2E
:1034E30082AD831208B2801C851882851983AC8251
:1034F300AD831208B8800D851882851983AC82AD1F
:10350300831208BEE9F508E50860298E828F83A33C
:10351300E06414601F850E82850F83E090038012A0
:10352300355312487190038112402CE508A31235DC
:103533005B120510EEFAEFFB12083A023F18F50C86
:10354300EF3400F50D221248758518828519832200
:10355300F085188285198322F07C807D03850A8299
:10356300850B83123DC22274EE121E0974FC121DD8
:10357300B28A0A8B0B8C0E8D0FEA2405F508EB3407
:1035830000F5097C157D0079007A807B03121062B7
:10359300E5082402F50CE5091235448518828519DE
:1035A30083858210858311781012201C85088285FB
:1035B3000983A3A3A3A3123A6E12201CE5082405D2
:1035C300F510E5093400F511781012201C850C82E2
:1035D300850D83123DC81207B67406121DC88A10E2
:1035E3008B11AE10AF11E50A2402F50AE50B124068
:1035F30013EE4F700302373080177402121DFD1251
:103603003DBE88828983EAF0A3EBF0900380E00457
:10361300F0900380E0C394054003023730E4F510D3
:10362300F511781012201C751069751103781012AA
:10363300201C75106A751103781012201C74061271
:103643001DFD1220337910EEFCEFFD123DB8120878
:10365300DC7408121DC8E9705E850882850983A39E
:10366300A3A3A3A3A3A3E0F8900369E0687048129F
:103673003A6E12201C7C6A7D03E5082408FAE509EA
:103683003400FB12105C7402121DC8E960298E829B
:103693008F83A3A3A3A3123DBE900380E0F5107410
:1036A300027810121D9F74812510F5827403351161
:1036B300F583EAF0A3EBF07402121DFD85821085F9
:1036C3008311781012201C7402121DFD1220338501
:1036D3000C82850D831248861207C27404121DC81A
:1036E3008A108B11AE10AF11900380E0F5107511A5
:1036F3000074027810121D9F74802510F87403352E
:1037030011F988828983A312325C70030235F4E8CD
:103713002403F8E93400F9EE4F60030235FD888293
:10372300898374FFF0A3F0900380E004F09003809A
:10373300E0600A123DB41205227900800B850882ED
:10374300850983124023790A023F1874EA121E097D
:1037530074FE121DB28C128D13EA2405F50CEB12C4
:1037630049F01231CE750800750900EA2402F510FC
:10377300EB3400F51185188285198385820A8583C8
:103783000B780A12201C850C82850D83A3A3A3A3A7
:1037930012393012201CE50C2405F50AE50D124000
:1037A30013780A12201C850C82850D83124884121B
:1037B30007B67406121DC88A0A8B0BEA450B700301
:1037C3000238E1EA2404F50EEB1239261231CE8ACF
:1037D300828B83A3A3A3E0F9851082851183123D15
:1037E300BE1207A4E9F50960030238E1E4F514F514
:1037F30015781412201C751469751503781412209A
:103803001C75146A751503781412201C7406121D96
:10381300FD1220337913AC0AAD0B85108285118319
:10382300123DBE1208DC7408121DC8E9F5096003D5
:103833000238E1900369E0F8E5087009E02402909A
:103843000381F08017900381E0FCE82402FAE4345A
:1038530000FBEA6C7001EB60030238E5850882AA7D
:1038630082123A659414123A5D5073850E82850F65
:1038730083E0C0E074822A12391DD0E0F005088588
:103883000E82850F83A3E0C0E085080A7482250AAF
:1038930012391DD0E0F00508900369123930122067
:1038A3001C7C6A7D0385080A7482250AFA74033432
:1038B30000FB12104A7402121DC8900369E0250828
:1038C300F50874FF6E700374FF6F6012EE24010E2F
:1038D300EF3400FFE508C394145003023778E5087A
:1038E3006013123CA9851082851183123DBE120517
:1038F3002879008014E509700375090A8512828509
:103903001383EEF0A3EFF0A9097402121DC87F0E12
:10391300021EDB85080C7482250CF58274033400C7
:10392300F583223400F50F850E82F583221245B309
:103933002274EE121E0974FE121DB28C0E8D0FEA54
:103943002405F50CEB123544750B00900380E4F06D
:10395300F50AEA2402F508EB3400F50980499003DF
:1039630080E0FA900369E0F8123A659417123A5D21
:10397300400D900380E0F87416C398900369F01229
:103983003A6E12201C7C6A7D0374812AFA74033414
:1039930000FB12104A7402121DC8900369E0F890EC
:1039A3000380E028F0050AE50C2416F582E50D12E4
:1039B3003921E0F8E50AC3984003023A46900380B0
:1039C300E0C39416507DE50AC333F8E433F9E50CFC
:1039D30028FEE50D39FF851882851983AC82AD83F6
:1039E3008E828F83123DBE1207BC8A108B11AC10DE
:1039F300AD11EC4D7005750B018043E4F510F51125
:103A0300781012201C751069751103781012201C90
:103A130075106A751103781012201C7406121DFDAF
:103A23001220337916850882850983123DBE120858
:103A3300DC7408121DC8E9F50B70030239611240EA
:103A43001F80107C807D03850882850983123DBE1B
:103A530012053AA90B7402023F1AE99400C365D018
:103A63003322EA28F8E43400F9E822E0F51075116E
:103A73000078102274EA121E0974FC121DB28A0C1B
:103A83008B0D8C128D13EA2405F50AEB1240137586
:103A93000800750900E50A2402F510E50B3400F56A
:103AA300117402121DFD85820E85830F780E12207C
:103AB3001C850A82850B83A3A3A3A312455F12204F
:103AC3001CE50A2405F50EE50B3400F50F780E12FC
:103AD300201C851082851183124019123DB81207EC
:103AE300B67406121DC88A0E8B0FAE0EAF0FE50C0F
:103AF3002402F50EE50D3400F50F8040888289839A
:103B030074FFF0050812391674FFF0050890036975
:103B1300E0F50C750D00780C12201C7C6A7D038582
:103B2300080C7482250CFA74033400FB12104A74D7
:103B330002121DC8900369E02508F508EE4F607175
:103B43008E828F83A3A3A3E0F9850E82850F831250
:103B53003DBE1207A4E9F509EE2404123541E970CC
:103B630044E4F514F515781412201C7514697515C1
:103B730003781412201C75146A7515037814122027
:103B83001C7408121DFD1220337911EEFCEFFD8524
:103B93000E82850F83123DBE1208DC7408121DC805
:103BA300E9F5096027850C82850D83123C9F12403D
:103BB3002CE5087003023C85123CA9850E82850F13
:103BC30083123DBE1205407900023C9A850882AA01
:103BD30082EA9003697009E02404900381F0802253
:103BE300E0F8900381E0F514E82404FCE43400FDDC
:103BF300EC65147001ED70C0123A659412123A5DCF
:103C030050B6850C82850D83E0C0E074822A123998
:103C13001DD0E0F00508850C82850D83A3E0C0E08C
:103C2300123916D0E0123CBB85820C85830D780CCB
:103C330012201C7404121DFD12203385108285117D
:103C4300831248861207C27404121DC88A0C8B0D96
:103C5300AE0CAF0D85080C7482250CF87403340088
:103C6300F9EE4F7003023AFF851882851983E088C5
:103C7300828983123CBBA3E0C0E0123916D0E00274
:103C83003B0DE509700375090A850A82850B8312CA
:103C93003C9F12402CA909740402390E1248758501
:103CA300128285138322900381E0F5F0E508849066
:103CB3000380F07C807D0322F00508851882851936
:103CC300832274EC121E0974FE121DB28A088B093A
:103CD3008C0E8D0FEA2405FEEB3400FF85188285D8
:103CE3001983AC82AD838E828F83123DBE1207BCD3
:103CF3008A0A8B0BEE2418123541EA450B70030236
:103D03003D8F123F015032851882851983123DBEC3
:103D13001208D08A108B11EA4511606B7912AC0A34
:103D2300AD0B850882850983123DBE8510828511FE
:103D330083121E07E9F50A7058E4F50AF50B780AB1
:103D430012201C8E828F83A3A3E0F50A780A122027
:103D53001CEE2403124010780A12201C8E828F83DB
:103D6300123DC81208E27406121DC8E9F50A702153
:103D7300850C82850D83E0701F8508828509831277
:103D83003DBE1205468011750A0E8009750A018031
:103D930004E50A600312401F850C82850D83E060F1
:103DA3000479008002A90A7402121DC87F0C021E46
:103DB300DB7C807D03850A82850B83123DC222E072
:103DC300FAA3E0FB22E0FCA3E0FD850882850983DA
:103DD300123DC22274EE121E0974FE121DB28A082D
:103DE3008B098C0C8D0DEA2405FEEB3400FF750E58
:103DF30000851882851983AC82AD838E828F8312EE
:103E03003DBE1207BC8A0A8B0BEA450B7003023EC8
:103E1300ED123F015035851882851983123DBE127C
:103E230008D08A0E8B0FEA450F605E7912AC0AAD9B
:103E33000B850882850983123DBE850E82850F831B
:103E4300121E07E9F50E6003023EF085088285091C
:103E530083124107AA0AFB1208C48A108B11A81007
:103E6300A911E849701E7AFF7BFF1208C48A108BE0
:103E730011A810A911E849606C88828983E50AF0CA
:103E8300A3E50BF0750A008007750E0E805F050A27
:103E9300900366E0FAE50AC39A504AE50A75F017FB
:103EA300A4FAABF088828983A3A3E02AFAA3E03BB8
:103EB300FB8A828B83124019EC4D70D2750A1775F9
:103EC3000B00780A12201CEEFCEFFD12104A74025C
:103ED300121DC8EEFCEFFD850882850983123DBEE5
:103EE30012054C8014750E098003750E0112486D7E
:103EF300850C82850D8312402CA90E023A58E508E1
:103F03002402F508E5093400F5098A828B83A3A30B
:103F1300A3E0A2E5227404121DC87F0A021EDB740B
:103F2300EC121E098C108D11EA2405F50CEB1235E9
:103F330044750F00EA2402F50AEB124013850A8246
:103F4300F583123DBE1208C48A088B09EA4509703D
:103F530003024005750E008071850C82850D83E098
:103F63006401704F8E828F83A3A31220338E828FBE
:103F730083A3A3A3A3E0F512751300781212201CE8
:103F8300EE2405F512EF3400F513781212201C12FB
:103F93003DB81208E27406121DC8E9F50F601485D6
:103FA3000C82850D83E4F012486D851082851183A0
:103FB30012402C7C177D007900EEFAEFFB121062A1
:103FC3008E828F83E4F0A3F0050E900366E0F8E59C
:103FD3000EC398501EE50E75F017A4F8A9F08508D6
:103FE30082850983A3A31249FA124019EC4D600399
:103FF300023F5C85088285098374FFF0A3F0E50F17
:104003007006123DB8120552A90F023DAFF50AEF33
:104013003400F50B22A3E0FCA3E0FD228E828F8304
:10402300124875850E82850F83E8F0A3E9F022C05C
:1040330082C083900362E06A7003A3E06B70067A28
:10404300627B0380047A007B0002331FC082C0833B
:1040530078008C828D83E06A7003A3E06B7010E8B4
:1040630075F003A4F8A9F0EC28FAED39FB801508E4
:104073008C828D83A3A3A3E06A7003A3E06B60DF4C
:104083007A007B0002331F74F6121E0912088E8A0F
:10409300828B83E582458370067A007B008007A3C9
:1040A300A3A3A3123DBE02471E74F2121E09E9FE2A
:1040B300740E121DFD1241077410121DFD12457F6F
:1040C3008C828D83E064027036A312487BF50CA3C7
:1040D300E0F9A80C74026870037429697021750CE7
:1040E30002750D00780C12201C780812201C780A27
:1040F30012201CEEF91209067406121DC8800279FB
:10410300010247A2E0F50AA3E0F50B2274E8121EB0
:104113000974FB121DB2E9851882851983F08A168A
:104123008B17ECFEEDFF751000741D121DFD124878
:1041330071741D121DFD12402C8E828F83A3A3A3C5
:10414300E0A2E4502D741D121DFD123DBE1208D0D5
:104153008A828B83E58245837003024550790AEE98
:10416300FCEFFDAA16AB17121E07E9F51060030258
:104173004553741F121DFD12457F7421121DFD123C
:1041830041077423121DFDE0F50EA3E0F50F8E82A7
:104193008F83E0640260030244FEA3124871850822
:1041A30082850983A3858212858313EE2406123543
:1041B3004188828983E0FAA3E0F9EA2400F514E454
:1041C30039F51578141220A6010000280128F341BF
:1041D30007000228B842032825420029EF4301299A
:1041E3001A440229BB430329EF4304299944FE449B
:1041F300E50E450F60030244F9850C82850D831299
:104203004574FAE9FB8A828B83E0850A82850B83F6
:104213001245AA12201C8A828B83A3E0FCA3E0022E
:104223004483E50E450F60030244F9850A82850B3A
:10423300837401F0124587850882850983F07C0029
:104243007D008E828F83A3A3A3A3E02401FAA3E0BE
:104253003400FB1207BCEA4B60418A828B83E02463
:1042630002F8850A82850B83E028F0EA2404F8EB40
:104273003400F988828983E085128285138312458D
:10428300BC1245AA12201C8A828B83124018E508AF
:104293002403FAE5093400FB024488850A82850B6E
:1042A30083E02404F07C047D007900AA12AB13128E
:1042B3001062024553E50E450F60030244F91245AF
:1042C30087FEA3E0FF850A82850B837404F0EE85E5
:1042D3000882850983F0EF851282851383F07403C6
:1042E300121DFDAC82AD83EEFAEFFB1207BC8A0C04
:1042F3008B0DEA450D700302439C8A828B83A3A333
:104303001231CA7401121DFD85820E85830F780E4A
:1043130012201C7405121DFD1220337CFF7DFF1239
:1043230007C27404121DC88B0FEA450F7033850C46
:1043330082850D8312455F12201C850C82850D83B7
:10434300A31220337C027D007A877B861205EE74EC
:1043530004121DC8E9700A7401121DFD74FFF0A355
:10436300F08E828F83E064027039750C02750D0044
:10437300780C12201C8E828F83124018E5082404C7
:10438300FAE5093400FB12104A7402121DC8850AAB
:1043930082850B83E0240280097401121DFDEEF077
:1043A300A3EFF07401121DFD124570F07401121D8C
:1043B300FDA31245680244F3E50E450F6003024472
:1043C300F9850C82850D83124019AA16AB171208C2
:1043D300FA850A82850B837402F0EA8508828509CF
:1043E30083F0851282851383EB0244F6E50E450FB5
:1043F30060030244F9124587F8A3E0F9850A828530
:104403000B837402F0E8850882850983F0E985123D
:10441300828513830244F6850C82850D83123DBE8B
:10442300121044EAFC8C82A882C3950EE4950F40D7
:104433005FE8650E7002E50F70047C00802285182A
:1044430082851983E0FAE50E2AFAE50F3400FBC3EF
:10445300EA98EB94005003E08005E50ECCC39CFC86
:10446300EC850A82850B83F08C0A750B00780A129F
:10447300201C850C82850D83E0250EFCA3E0350FFF
:10448300FDAA08AB0912104A7402121DC802455353
:10449300751007024553E50E450F705A850C82854A
:1044A3000D83124871850A82850B8374071231D6F6
:1044B3001245681231D6A3E0851282851383F0E892
:1044C3002402FAE93400FB8A828B83124568124581
:1044D30097124570A31245A0124579F0E82405F818
:1044E300E93400F988828983124579A31245BCA374
:1044F300A3A3A3F0805A75100B8055741D121DFDE4
:10450300123DBE12088E8A828B83E5824583603D0D
:10451300124871880C890DE8450D6031780E122020
:104523001C780A12201C780812201C7406121DFD28
:10453300E0F9EEFCEFFDAA16AB17850C82850D831F
:10454300121E077406121DC8E9F510800375100EBC
:10455300A9107405121DC87F10021EDBE0F50E754D
:104563000F00780E22E0850882850983221245C652
:1045730022124875E8221245C6A3A322E0F508A338
:10458300E0F50922850C82850D83E0F8A3E0F5832D
:104593008882E022A3A3F08A828B83A322F08882FD
:1045A3008983A3A3A3A322F08A828B831245B32218
:1045B300E0F50A750B00780A22F088828983A3123A
:1045C30045C622E0850882850983A3A32274EE12DF
:1045D3001E0974FE121DB28A0A8B0BECFAEDFB74F2
:1045E30014121DFDE0F510A3E0F5117416121DFD64
:1045F300E0FE7418121DFDE0F50EA3E0F50F85181B
:1046030082851983AC82AD831207BC8A0C8B0DEAB9
:10461300450D6049851882851983123DBE12088EA7
:104623008A828B83E5824583602FA3A312457FE5AE
:104633000845096024780E12201C781012201CEE05
:10464300F9AC0CAD0DAA0AAB0B8508828509831260
:104653001E077404121DC88006790E8002790102B8
:104663003A5874F6121E0974FE121DB2740C121D10
:10467300FD124574851882851983F07401121DFD9E
:10468300E9F0E4F508F509780812201C75080278AA
:104693000812201C7404121DFD8582088583097885
:1046A3000812201C1208E27406121DC87402121D9F
:1046B300C8806874F7121E09EAFEEBFF89087C992B
:1046C3007D031208FAEA5402600BA908EEFAEFFB25
:1046D3001207B0800279010230D274F6121E0974F7
:1046E300FF6A700374FF6B70168C828D83124723ED
:1046F300E4F08C828D83A3A3A3124723A380181213
:1047030008CA8A088B09A808A909E849600D8882A4
:10471300898374FF1231D4A3A3E4F07F02021EDB6A
:1047230074FFF0A3F08C828D83A3A32274F6121E70
:10473300091208CA8A828B83E58245836006A3A394
:10474300E0FA80027A007B0080D174F2121E098A9B
:10475300088B09ECFEEDFF740E121DFDE0F50A1245
:1047630008CA8A0C8B0DA80CA90DE8497026EEFC2B
:10477300EFFD7AFF7BFF1208CA8A0C8B0DA80CA9E8
:104783000DE84970047911801688828983E508F061
:10479300A3E509F088828983A3A3E50AF079007F62
:1047A30006021EDB74EE121E09EAFEEBFF8C088D77
:1047B30009890C7414121DFD1248717416121DFD23
:1047C300123DBE750D00E849600302486574026539
:1047D3000C60030248607412121DFD12487BFCA397
:1047E300E0F9EC2400F50EE439F50FEAF4F8EBF404
:1047F300F9EC58F8E50F59F9E849705CE508240627
:10480300F8ED3400F9880A890B8882F5831248860B
:104813001208FA8A108B11E50E65107004E50F6516
:10482300116042780E12201C850A82850B83124880
:10483300861209007402121DC8E9F50D7027780E5F
:1048430012201C850882850983A3A31248841209B8
:10485300187402121DC8800D750D808008750D0D2A
:104863008003750D0BA90D023F1D8E828F831248A5
:104873007522E0F8A3E0F92212487588828983E063
:1048830022A3A3E0FCA3E0FDEEFAEFFB2274E812FF
:104893001E0974E7121DB2851882851983EAF0A3F5
:1048A300EBF08C168D17890E7508007509007431AD
:1048B300121DFDE0F512A3E0F5137433121DFDE0A4
:1048C300F514A3E0F5157435121DFDE0F50FE509A8
:1048D30075F003A4F8A9F08518828519831249FAA3
:1048E300E0F47003A3E0F470030249DDEE2402F563
:1048F3000CEF1249F0E070030249DD85160A8517B3
:104903000B780A12201CAC14AD15AA12AB131208B3
:10491300827402121DC88A0A8B0BEA450B700302CC
:1049230049DDE4F510F511781012201C7406121DF0
:10493300FD858210858311781012201C7409121DC5
:10494300FD858210858311781012201C85128285C3
:104953001383A3A3A3A31220337914AC0AAD0B8E44
:10496300828F83123DBE1208DC7408121DC8E970E1
:1049730069850A82850B83A3A3A3A31248717402DA
:10498300121DFD12402C850C82850D83E0A2E050A0
:1049930018A90E7402121DFDAC82AD838E828F8323
:1049A300123DBE1207D4E94208850C82850D83E0CF
:1049B300A2E15026E50FF50A780A122020A90E7409
:1049C30003121DFDAC82AD838E828F83123DBE1216
:1049D30007CE7401121DC8E942080509E509C3940D
:1049E3000250030248D1A90874190245573400F54F
:1049F3000D850C82F58322E028FEA3E039FF8E8229
:104A03008F832274F2121E09EAFEEBFF890B7401F5
:104A1300650B600E7402650B706A7901120AD4E9A2
:104A23007062EEFAEFFB1208C48A088B09EA4509A3
:104A33006047750A00800B7C177D007900121062B5
:104A4300050A900366E0F8E50AC3985021E50A7564
:104A5300F017A4F8A9F0850882850983A3A3E028A9
:104A6300FAA3E039FB8A828B8312332670C9850847
:104A73008285098374FFF0A3F07C997D03EEFAEF3E
:104A8300FB1208F40247A274F2121E098A088B096A
:104A9300ECFEEDFF740E121DFD124107900DF2E0C6
:104AA300F4603D7A097B00121074EA4B60328A820B
:104AB3008B8374B1F0A3E4124599A3124597A3E540
:104AC30008F0A3E509124AE6EEF0A3EF124AE6A3C3
:104AD300A3E50AF0A3E50BF0900DF2E0F9121080C4
:104AE3000247A2F08A828B83A3A3A3A3A322C0823B
:104AF300C0839061907404F0A37448F0A37402F02F
:104B03009061807440F09061BC7403F0906187748D
:104B130019F0906265741BF0906249E0C39413909E
:104B2300619C400A7409F090606674018007740DFB
:104B3300F0906066E4F090619A7433F0A37455F0DA
:104B43009061A0743AF09005BFE064017009C291CE
:104B5300900426746780059004267461F090308E6B
:104B6300E493906186F0903088E493F46027E493B3
:104B7300540FF8906185E0686012E5C6548044499B
:104B8300F5C6E59E547F644970F8E8F053C680E5A6
:104B93009E547F70FA7905120E2E024D4CC082C0CE
:104BA30083E9540FF9906185E0696012E5C654808A
:104BB3004449F5C6E59E547F644970F8E9F053C64D
:104BC30080E59E547F70FA024D4CC082C083E5A8F5
:104BD300F853A87E906181E4F0A3F0A3F0C2BA5326
:104BE3009AFEC289759B00C2C275E9007591007572
:104BF300BF0075A91175B905906181F0A374C0F068
:104C0300A3E4F0D2BA439A0174805842A8024D4CEF
:104C1300C082C08374F8121DB2900424E0F8A3E0AC
:104C2300F9E8497003024D41900424E054406023A5
:104C33007908851882851983AA82AB83120C908523
:104C43001882851983AA82AB83120984900424E015
:104C530054BFF0E054806010790C7AE57B05120CA8
:104C630090900424E0547FF0E0A2E0503190619AE8
:104C73007433F0A37455F09061A0743AF09005BFBB
:104C8300E064017009C29190042674678005900462
:104C9300267461F012098A900424E054FEF0E05473
:104CA30002603190619A743FF0A3745AF09061A04E
:104CB300747FF09005BFE064017009D291900426DF
:104CC30074718005900426746AF012098A90042492
:104CD300E054FDF0E05404601390308CE493906151
:104CE30086F0120990900424E054FBF0E05408602D
:104CF3001390308DE493906186F012099090042410
:104D0300E054F7F0E05410601390308EE493906118
:104D130086F0120990900424E054EFF0E0542060F0
:104D23000A120990900424E054DFF0A3E0540160D8
:104D33000D120BB8120996900425E054FEF0740886
:104D4300121DC8024D4CF0A3F0D083D0820201356E
:104D530074EC121E0974F4121DB28518828519832E
:104D6300AC82AD837583867582147404121CC5905E
:104D7300308C93F46003024EDF907808E0C3940212
:104D83005003024EBF7404121DFDAC82AD837583C4
:104D9300857582A27408121CC585188285198385BE
:104DA30082128583137404121DFDAC82AD83750ECC
:104DB300FF750FFF7FFF7E00750C48750D7880151A
:104DC30074086E7003024E5374096E7003024E53DF
:104DD300740A6E607B850C82850D837808121C82B1
:104DE3008C828D83A909E50AC9F88810741878089C
:104DF300121BB0E5104508F8C3E098A3E099850CB1
:104E030082850D837808121C8240188C828D8374EE
:104E1300187808121BB0E5104508F8E0C398F8A30A
:104E2300E0801C74187808121BB0E5104508FAE9F5
:104E3300FB8C828D83E0F8A3E0F9EAC398F8EB9941
:104E4300F9C3E8950EE9950F5006880E890FEEFF1A
:104E53000EE50C2404F50CE50D3400F50DEEC394BA
:104E6300135003024DC374FF650E700474FF650F86
:104E730060238F0874027808121D9F74482508F573
:104E83008274783509F5837808121C82851282852D
:104E93001383E508F0EC2402FCED3400FD85128257
:104EA300851383A3858212858313740C121DFDE57C
:104EB300826C7003E5836D6003024DB17508017563
:104EC3000900780812201C7402121DFDAC82AD8308
:104ED3007A237B0C1212FC7402121DC8740C121D6F
:104EE300C87F0C021EDBC082C0839061AE7468F081
:104EF300A3746AF090624574FBF0A304F053F4FDCD
:104F030043FE029005BF7401F09061A0E0643A9003
:104F1300619A70237433F0A37455F09061A0743ACE
:104F2300F0740164017009C29190042674678028AB
:104F330090042674618021743FF0A3745AF0906149
:104F4300A0747FF0740164017009D29190042674F7
:104F5300718005900426746A024D4B7F08021EDBA4
:104F6300C082C083900571E06401700A900576E009
:104F73006004790C80027900024D4CC082C08375B5
:104F8300E1F1900574E0605B14600914605F1460E4
:104F93005714705E120BCA90056AE0F97A6B7B05B1
:104FA300120DB07AD67BBE7C897D8E120DE67A55C2
:104FB3007B557C557D00120DBC900575E0F9120DF3
:104FC300C87901120E22900568E0F8A3E0C8241600
:104FD300F582E83400F58374E2F0A3740BF07900F2
:104FE300024D4C120BD080AF120BD680AA120BDCF1
:104FF30080A5791280EA74F0121E0975D90D900507
:1050030055E0A2E0E4331313F890056AE0C43333A8
:1050130054C0484401F5D97868790588828983A307
:10502300A3A3E0F5D988828983A3A882A983E8642E
:105033006E7003E9640570E3785579058882898386
:10504300A3E0F5D988828983A3A882A983E8645B56
:105053007003E9640570E575E195900555E0F97A0B
:10506300567B05120DB6900E147476F0A3740BF0F4
:10507300A374D8F0A3740CF0A374D8F0A3740CF049
:10508300A374D8F0A3740CF0A3747CF0A3740BF096
:10509300A374D8F0A3740CF0A37494F0A3740BF06E
:1050A300900E2274D8F0A3740CF0A374D8F0A374F8
:1050B3000CF0A374D8F0A3740CF0A374D8F0A37409
:1050C3000CF0A374D8F0A3740CF0A374D8F0A374F9
:1050D3000CF0900574E064019005687012E0F8A389
:1050E300E0F5838882A3A37508007509088010E0A2
:1050F300F8A3E0F5838882A3A375080475090075F6
:105103000A00750B007808121BFB750CFF750DFF69
:10511300750EFF750F007808790C121C499005680D
:10512300E0F8A3E0C8240EF582E83400F58378089C
:10513300121C91900568E0F8A3E0C82414F582E8F6
:105143003400F5837413F09004227402F0024F5E6E
:1051530074F7121E0990057AE02407F5D990056AC1
:10516300E0C4333354C0F5D97868790588828983DC
:10517300A3A3A3E0F5D988828983A3A882A983E89E
:10518300646E7003E9640570E390057AE0601F784C
:10519300687905FAE82413F582E93400F583E0F52C
:1051A300D988828983A3A882A9831AEA70E6900525
:1051B3009AE02407F5D990056AE0C4333354C04418
:1051C30004F5D97868790588828983A3A3A3E0F5D8
:1051D300D988828983A3A882A983E8646E7003E9CE
:1051E300640570E390059AE0601F78687905FAE832
:1051F3002433F582E93400F583E0F5D98882898385
:10520300A3A882A9831AEA70E675E195900E147437
:1052130082F0A3740BF0A374D8F0A3740CF0A374FE
:10522300D8F0A3740CF0A374D8F0A3740CF0A37497
:105233007CF0A3740BF0A374D8F0A3740CF0A374E4
:1052430094F0A3740BF0900E2274D8F0A3740CF0B6
:10525300A374D8F0A3740CF0A374D8F0A3740CF067
:10526300A374D8F0A3740CF0A374D8F0A3740CF057
:10527300A374D8F0A3740CF0900568E0F8A3E0C819
:10528300240EF582E83400F58374FFF0A3F0A3F055
:10529300A3F0900568E0F8A3E0C82414F582E8348D
:1052A30000F5837412F09004227401F0FF021EDBF8
:1052B30074F7121E0990057AE02407F5D990056A60
:1052C300E0C4333354C04402F5D978687905888241
:1052D3008983A3A3A3E0F5D988828983A3A882A99C
:1052E30083E8646E7003E9640570E390057AE06017
:1052F3001F78687905FAE82413F582E93400F58309
:10530300E0F5D988828983A3A882A9831AEA70E683
:1053130075E195900E14748EF0A3740BF0A3748E44
:10532300F0A3740BF0A3748EF0A3740BF0A3748E2C
:10533300F0A3740BF0A3748EF0A3740BF0A3748E1C
:10534300F0A3740BF0A37494F0A3740BF0900E22EB
:1053530074D8F0A3740CF0A374D8F0A3740CF0A366
:1053630074D8F0A3740CF0A374D8F0A3740CF0A356
:1053730074D8F0A3740CF0A374D8F0A3740CF09059
:105383000568E0F8A3E0C8240EF582E83400F5834D
:1053930074FFF0A3F0A3F0A3F0900568E0F8A3E096
:1053A300C82414F582E83400F5837414F0900422C1
:1053B3007404F002567A74F7121E0990057AE024F9
:1053C30007F5D990056AE0C4333354C04406F5D9D0
:1053D3007868790588828983A3A3A3E0F5D98882B5
:1053E3008983A3A882A983E8646E7003E9640570C6
:1053F300E390057AE0601F78687905FAE82413F5ED
:1054030082E93400F583E0F5D988828983A3A882F1
:10541300A9831AEA70E690059AE02407F5D9900566
:105423006AE0C4333354C04404F5D97868790588F5
:10543300828983A3A3A3E0F5D988828983A3A88261
:10544300A983E8646E7003E9640570E390059AE04C
:10545300601F78687905FAE82433F582E93400F5AA
:1054630083E0F5D988828983A3A882A9831AEA7085
:10547300E675E195900E147488F0A3740BF0A37491
:10548300D8F0A3740CF0A374D8F0A3740CF0A37435
:10549300D8F0A3740CF0A374D8F0A3740CF0A37425
:1054A300D8F0A3740CF0A37494F0A3740BF0900ED3
:1054B3002274D8F0A3740CF0A374D8F0A3740CF086
:1054C300A374D8F0A3740CF0A374D8F0A3740CF0F5
:1054D300A374D8F0A3740CF0A374D8F0A3740CF0E5
:1054E300900568E0F8A3E0C8240EF582E83400F5DF
:1054F3008374FFF0A3F0A3F0A3F0900568E0F8A392
:10550300E0C82414F582E83400F5837415F09004A0
:10551300227403F002567AC082C083900568E0F8D3
:10552300A3E0C82406F582E83400F583E4024D497C
:1055330074F7121E09900450E0F875F003A4C8AA8A
:10554300F02AF9745228F8740439F9E82405FAE9C1
:105553003400FB8A828B83E0FCA3E0FD888289838D
:10556300A3A3A3A3A3A3A3A3A3ECF0A3EDF0888217
:105573008983A3A3A3A3A3A3A3E024FFF8A3E034F5
:10558300FFF98A828B83E8F0A3E9F002567A74F775
:10559300121E09EAFEEBFF9061D0E0600302566E33
:1055A30075D90E75D90375D904EE248BF582EF34C2
:1055B30000F583E5822408F8E5833400F9E0F5D9A2
:1055C300A3E865827003E9658370F2EE2483F582B4
:1055D300EF3400F583E5822404F8E5833400F9E031
:1055E300F5D9A3E865827003E9658370F275E195E7
:1055F3007908EE248BFAEF3400FB120C847904EE65
:105603002483FAEF3400FB120C847C00EEF8EFF9EC
:10561300ECFAC3E49AFA95E0FBEE2AFAEF3BFBEAD5
:10562300248AF582EB3400F583E0C0E0E824AAF590
:1056330082E93400F583D0E0F00C88828983A3A843
:1056430082A983ECC3940840C7EE246FF582EF343C
:1056530000F583E0F8A3E0F9EE2471F582EF34005E
:10566300F583E8F0A3E9F07901800279008008F07E
:10567300EEA2E092AF79007F01021EDBC082C083FD
:1056830075D90275D90375D90575E195EA246FF5C6
:1056930082EB3400F583E0F8A3E0F9EA2471F582A4
:1056A300EB3400F583E8F0A3E9F07901024D4C7483
:1056B300F6121E09EAFEEBFF9005C57406F07508A5
:1056C300C5750905780812201C7C017903120CCCDE
:1056D3007402121DC875D90675D9037582C5758301
:1056E30005E0F5D9A3E58264CA7004E58364057017
:1056F300F075E195900422E06408701EEE246FF5C6
:1057030082EF3400F583E0F8A3E0F9EE2471F5822B
:10571300EF3400F583E8F0A3E9F0790102598074CE
:10572300F6121E09EAFEEBFF9061D0E07066780185
:105733009005C5740BF0900422E064077019750896
:10574300C5750905780812201C7C017903120CCC5D
:105753007402121DC87805740128F5D975D903752B
:1057630082C5758305E8FAE0F5D9A31AEA70F875DE
:10577300E195EE246FF582EF3400F583E0F8A3E0C2
:10578300F9EE2471F582EF3400F583E8F0A3E9F034
:1057930079018002790002598074F7121E09EAFE2A
:1057A300EBFF75D90375D90375D90DEE24DDF582A9
:1057B300EF3400F583E0F5D975E1957904120DEC2A
:1057C300EE246FF582EF3400F583E0F8A3E0F9EE01
:1057D3002471F582EF3400F583E8F0A3E9F0790151
:1057E30002567A74F6121E09EAFEEBFF9061D0E0CE
:1057F300F87480C398FAEE2482F582EF3400F583BF
:10580300E06004780480027800E8240BF8EAC39887
:1058130050030258AB7D099005C5EDF0EE24E2F884
:10582300EF3400F97AC67B057C0888828983E08A95
:10583300828B83F088828983A3A882A9838A828B3F
:1058430083A3AA82AB831CEC70E0EE2482F582EF83
:105853003400F583E0601D7508C5750905780812E5
:10586300201C7C097903EEFAEFFB120CCC740212B4
:105873001DC87D0D74012DF5D975D9037582C575C4
:1058830083058D08E0F5D9A31508E50870F675E1E1
:10589300957904120DECEE241DF582EF3400F583A7
:1058A300E4F0A3F079018002790002598074F612C2
:1058B3001E09EAFEEBFF9061D0E0F87480C398FA0A
:1058C300EE2482F582EF3400F583E06004780480EF
:1058D300027800E82408F8EAC398500302597E7856
:1058E300069005C5740CF090043FE09005C6F09057
:1058F3000440E09005C7F0900441E09005C8F090A3
:105903000442E09005C9F0900443E09005CAF0EE2C
:105913002482F582EF3400F583E0601B7508C575BA
:105923000905780812201C7C067903EEFA120CCCC8
:105933007402121DC8780A740128F5D975D9037544
:1059430082C57583058808E0F5D9A31508E50870B5
:10595300F675E1957904120DECEE246FF582EF34C0
:1059630000F583E0F8A3E0F9EE2471F582EF34004B
:10597300F583E8F0A3E9F07901800279007F020260
:105983001EDB74F6121E09EAFEEBFF9061D0E0F80D
:105993007480C398FAEE2482F582EF3400F583E035
:1059A3006004780480027800E82404F8EAC398507D
:1059B30003025A5F78029005C5E8F0EE24F4F582FD
:1059C300EF3400F583E09005C6F0EE2482F582EF14
:1059D3003400F583E0601B7508C575090578081266
:1059E300201C7C027903EEFA120CCC7402121DC83F
:1059F3007806740128F5D975D9037582C5758305B1
:105A03008808E0F5D9A31508E50870F675E195EE69
:105A13002473F582EF3400F583E4F0EE247FF582FE
:105A2300EF3400F583E4F0EE241DF582EF3400F546
:105A330083E4F0A3F07904120DECEE240DF582EF6C
:105A43003400F583E0F8A3E0F9EE2471F582EF3436
:105A530000F583E8F0A3E9F07901800279000259A7
:105A63008074F6121E099061D0E0F87480C398FC2C
:105A7300EA2482F582EB3400F583E0600478048045
:105A8300027800E82404F8ECC398405B790290059F
:105A9300C57407F0EA24F5F582EB3400F583E09052
:105AA30005C6F0EA2482F582EB3400F583E0601842
:105AB3007508C5750905780812201C7C0209120CAB
:105AC300CC7402121DC87906740129F5D975D9035E
:105AD3007582C5758305E9F8E0F5D9A318E870F870
:105AE30075E19579018002790002598074F5121EDF
:105AF30009E9FCA2AFE433F50AC2AF7D0080010DD2
:105B0300EA246EF582EB3400F583E0F8EDC3985098
:105B13001A8D08EA2508F8EB3400F9E8246AF582BF
:105B2300E93400F583E06C70D68024EA246EF8EB48
