:020000040000FA
:0600000002011D0222773F
:03002B00022A8D19
:03003300022A6F2F
:03003B00022AECAA
:03004300022A1D71
:030053000222EA9C
:03006B00022AB1B5
:03007B000229ABAC
:100083000220E3E5C754F84401F5C77901220000D3
:100093000080FB120086B90003020107E47921788E
:1000A30008B800028004F709D8FCE479297802B87B
:1000B30000028004F709D8FCE49002817895790C5A
:1000C3008002F0A3D8FCD9FA781A90014D7A01BACC
:1000D30000028007E493A3F608DAF9900E15AA82CA
:1000E300AB8390014E780979048015E493A3AC8225
:1000F300AD838A828B83F0A3AA82AB838C828D83A8
:10010300D8E9D9E77582C07583C1740312012F75CD
:100113008291758300740012012F75D00075813FA1
:10012300751881751902759F00020096C09FF59F8F
:10013300E473D09F22D083D082C09FE493C0E07445
:100143000193C0E0740293F59F2201FF0000B40005
:100153000028002800283075A000A000A000A000FF
:1001630000080008E001F00010001000100010006B
:100173001000100050005000500010001000D00775
:100183000000000000000F000100050030750700AB
:100193001000010081FF00000000FF540672065AA0
:1001A30006FF02020208025000A0000000E803025A
:1001B300CF84010000A78402CB840100006C0E02EF
:1001C300C184010000B30202CB840100006D0E0262
:1001D300BF84010000C90202CB840100006E0E023D
:1001E300BD84010000CB0202CB840100006F0E022C
:1001F300BB84080000CC0202CB84010000700E0215
:10020300B984010000710EFF0100FF2002CF8401B9
:100213000000AD8402CB84010000D50E02B7840038
:100223000000000002C58403000019031E0C1E0C0D
:100233001E0C1E0C1E0C1E0C1E0C1E0C1E0C1E0C6B
:100243001E0C1E0C1E0CB20ECA0EAC0EFFFFE001FC
:10025300020202020202020202010D00000010016A
:1002630002CF84010000B08402CB840100001A0F86
:1002730002B384010000670902CB840100001B0F55
:1002830002B584010000C68302CB840100001C0F69
:1002930002DB840100009D8302CB840100001D0F5B
:1002A30002DD84010000A98202CB840100001E0F3D
:1002B30002DF84010000BB8202CB840100001F0F18
:1002C30002E184010000858202CB84010000200F3B
:1002D30002E384010000978202CB84010000210F16
:1002E30002E584010000AB8302CB84010000220FEE
:1002F30002C984010000230F01E803053F100AFF30
:100303000001307503020106000000000000000038
:1003130000000000000000000000000000000000DA
:1003230000000000FFFF0600800CE8031409000032
:1003330000000000000000000000000000000000BA
:1003430000051250002003020A000201060302F016
:10035300FF7A656B657A616E67000000000000003C
:100363000000000000000016140000000004141C2C
:10037300140A4368617261637465726973746963B3
:10038300203100024368617261637465726973743A
:10039300696320320008436861726163746572693E
:1003A3007374696320330010436861726163746519
:1003B3007269737469632034000243686172616314
:1003C300746572697374696320350002CF84010018
:1003D30000AA8402CB840100003B1002E9840300DD
:1003E30000060E02C7840100003C1002CB8401000A
:1003F300004D1002EB84010000070E02C7840100C8
:10040300004E1002CB840100005F1002ED84020055
:1004130000080E02C784010000601002CB840100B3
:1004230000711002D784000000090E02C584030086
:10043300000A0E02C784010000721002CB8401007F
:1004430000831002D384040000100E02C78401004D
:10045300008410120138A5AF03120138BCAF031298
:100463000138EDAF0312013828B00312013852B03E
:10047300031201387CB00312013893B00312013820
:10048300AAB003120138C1B003120138EAB0031253
:100493000138FDB00312013813B10312013826B13C
:1004A300031201384DB103120138BBB502120138F2
:1004B300BFB602120138F7B6021201381AB7021298
:1004C300013825B70212013848B70212013857B86C
:1004D300021201382CB902120138A7B902120138ED
:1004E3002FBA021201386ABA02120138A1BA0212F3
:1004F30001382FBB0212013808BC0212013868BC54
:100503000212013873BC02120138F2BC0212013824
:10051300F5BC02120138F8BC0212013887BD021281
:1005230001388ABD02120138BABD02120138E4BD96
:1005330002120138D2BE0212013884BF02120138FE
:100543001EEE0212013846EE0212013874EE021258
:100553000138ABEE0212013809EF0212013854EFF1
:10056300021201389FEF02120138DFEF0212013845
:1005730025F00212013853F00212013810F1021271
:1005830001381AF10212013827F1021201385AF127
:100593000212013826F20212013832F20212013835
:1005A3004AF20212013854F2021201380DBE03124C
:1005B30001381BBE0312013833BE031201384BBE90
:1005C300031201383CCD01120138E8CD0112013884
:1005D30063CE0112013884CF01120138C0CF01125A
:1005E300013869D00112013850D101120138B4D257
:1005F300011201380BD3011201388CD301120138D7
:100603007CD401120138C9D4011201384FD501122B
:10061300013881D50112013895D701120138D7D796
:1006230001120138F5D70112013878D801120138C7
:100633004CD90112013814DA01120138C8F8011239
:1006430001389BF90112013844FA0112013897FA73
:100653000112013847FB01120138D3FB01120138A3
:10066300BFFC01120138EEFC0112013801FE011238
:10067300013849FE011201381EFF011201385AFFE9
:100683000112013876FF01120138DDC0031201386F
:10069300F294031201380895031201382E950312C0
:1006A30001384A9603120138549603120138899788
:1006B30003120138819803120138F7E80212013856
:1006C30027EA021201385AEA02120138A4EA021296
:1006D30001386BEC0212013815AE011201387FAEFE
:1006E30001120138DEAF01120138EEAF01120138F9
:1006F3001BB00112013872B0011201381BB1011293
:10070300013822B201120138ECB2011201384CB4A3
:10071300011201388FB40112013834B501120138C6
:1007230081B501120138A7B501120138B5B701121D
:100733000138BAB701120138BFB9011201380CBA36
:10074300011201387FBA01120138B2BA011201381D
:1007530054BB01120138FDBB0112013835BC011233
:10076300013838BC0112013880BC01120138C0BC09
:100773000112013817BD01120138189F0312013805
:10078300309F03120138789F031201388E9F0312A2
:100793000138D59F03120138E9A00312013876A16D
:1007A30003120138C1A103120138602B0012013872
:1007B3006C2B00120138A72B00120138EC2B00120E
:1007C3000138AC2C00120138322D00120138972D5C
:1007D30000120138C32D00120138FC2D001201381C
:1007E3003A30001201381E3200120138043400126C
:1007F3000138473500120138953700120138A73800
:1008030000120138F23900120138023B001201389C
:100813001F3B001201385A3B001201387C3B001287
:100823000138DF3B00120138A04000120138354186
:1008330000120138864100120138AD41001201381F
:10084300FF41001201381D420012013877420012A5
:100853000138604300120138D644001201385A456A
:100863000012013875F7021201387FF702120138BE
:10087300C2F702120138DDF7021201386DF80212D5
:10088300013895F802120138D2F80212013809F939
:100893000212013832F902120138A7F902120138A3
:1008A300BCF902120138D1F90212013802FA02121C
:1008B300013816FA021201383BFA0212013875FAAE
:1008C30002120138A1FA0212013824FB0212013884
:1008D3006DFB0212013897FB02120138C2FB0212B0
:1008E30001381AB903120138E8A80212013816A90F
:1008F3000212013864AA0212013844AB0212013811
:1009030063AB02120138E0AB0212013823AC0212CE
:10091300013879AD021201383AAE02120138C1B082
:100923000212013862B10212013858B202120138C0
:1009330055B302120138AFB4021201383AB50212AC
:1009430001388D7E00120138F67E001201384A7F8D
:1009530000120138717F00120138A27F00120138A2
:100963000080031201386D8003120138B480031232
:100973000138CC8103120138C88203120138AB83DA
:100983000312013874C802120138B6C802120138C2
:1009930088C90212013861CA021201385BCB021204
:1009A30001383DCC02120138A6CC021201385CCDCD
:1009B30002120138D0CD021201383CCE02120138A6
:1009C30065CE02120138DFCE0212013878CF02124F
:1009D3000138DDCF02120138F2CF0212013838D0CC
:1009E3000212013851D002120138B6D00212013876
:1009F300B9D0021201381F9C03120138479C03121D
:100A03000138859C03120138439D03120138AA9DC6
:100A130003120138C69D03120138EE9D03120138FB
:100A23001E9E031201382D9E03120138AA9E031243
:100A33000138D09E0312013804BE01120138E2BF0F
:100A43000112013814C20112013850C201120138D7
:100A53007DC20112013867C301120138B2C301120A
:100A63000138FDC3011201380FC4011201384FC40C
:100A73000112013884C401120138D2C401120138B1
:100A830001C50112013824C50112013871C50112D3
:100A93000138F6C50112013810C8011201384FCAD6
:100AA3000112013890CA0112013832CC0112013807
:100AB30073CC01120138E6CC01120138D39B021228
:100AC3000138D19C021201386AA3021201388BA5A6
:100AD3000212013856A702120138BEA802120138C9
:100AE300C145001201387046001201389D460012BC
:100AF3000138E34600120138234800120138B9498E
:100B030000120138334A001201384E4A00120138EC
:100B1300C94A00120138234C00120138834D0012D8
:100B23000138894E00120138EA4F00120138035090
:100B3300001201386150001201384F510012013880
:100B4300825100120138F251001201386C52001226
:100B53000138B6520012013880530012013855543F
:100B630000120138345500120138BF550012013804
:100B73002D5600120138A15600120138CC5600122E
:100B830001388B5700120138F058001201380D5903
:100B9300001201382C59001201381D5A0012013875
:100BA300425A001201386C5A00120138E75A0012F7
:100BB3000138415B00120138AA5C00120138585D0C
:100BC30000120138995D00120138FF8D02120138BD
:100BD3004D8E02120138598E02120138378F0212DC
:100BE3000138688F02120138998F02120138199067
:100BF30002120138519002120138A39002120138F7
:100C0300E09002120138FD9202120138239502127C
:100C130001380E9702120138F89802120138E87F62
:100C230000120138029A01120138329A0112013876
:100C33000BA10112013890A2011201388DA80112F3
:100C4300013875A901120138B2A901120138D5A9D9
:100C53000112013806AA011201380FAA0112013844
:100C630019AA0112013807AB01120138FDAB0112B9
:100C73000138F38401120138F28801120138F8882F
:100C8300011201383390011201384C9501120138D9
:100C9300249103120138BA9103120138D09103123F
:100CA3000138469203120138BA9203120138F892BE
:100CB300031201386C9303120138E59303120138D0
:100CC300EE9303120138FA93031201380F940312BF
:100CD30001384D9403120138639403120138C2940E
:100CE30003120138BB8803120138C8880312013884
:100CF300E288031201382189031201385F89031244
:100D03000138C48903120138D98903120138E489EF
:100D130003120138F18903120138088A03120138DA
:100D2300168A03120138218A031201382D8A03120D
:100D330001383C8A03120138478A031201386A8A50
:100D430003120138118B03120138218B031201386E
:100D53003B8B03120138588B03120138748B031237
:100D63000138998B03120138A48B03120138B98B14
:100D730003120138CD8B031201382E8C0312013874
:100D8300348C031201383A8C03120138408C03125D
:100D93000138588C031201388B8C031201389EEAF8
:100DA3000112013822EB01120138D1EB0112013893
:100DB30030ED0112013851EF011201383DF00112FB
:100DC300013872F00112013894F00112013843F135
:100DD300011201383BF30112013864F301120138A7
:100DE300F6F30112013828F40112013835F4011227
:100DF30001388CF401120138B2F4011201381FF7E3
:100E03000112013822F8011201387AF8011201386F
:100E13002DDC0112013837DD011201381EDE01120B
:100E2300013828DE011201384ADE0112013856DE8C
:100E330001120138EFDF011201381EE001120138FF
:100E43003AE10112013893E101120138F9E201128A
:100E53000138D8E30112013834E401120138A1E466
:100E630001120138DCE4011201381BE501120138DB
:100E7300D4E701120138EEE7011201387AE80112D2
:100E8300013888E801120138E1E801120138EFE87E
:100E93000112013862E901120138C6E90112013871
:100EA30010EA011201385F730012013881730012D6
:100EB3000138A77500120138BC7800120138D479C3
:100EC30000120138877A00120138697B0012013859
:100ED3005FB10312013884B103120138F6B1031272
:100EE30001387DE10212013886E1021201388FE1F7
:100EF3000212013866E20212013817E402120138C5
:100F03004DE40212013887E402120138BDE40212F3
:100F13000138F7E4021201382BE50212013857E5D4
:100F230002120138A0E502120138DAE50212013893
:100F330023E6021201387BE602120138B0E6021200
:100F430001380BE70212013845E70212013896E730
:100F530002120138CCE70212013806E80212013806
:100F630034E80212013857E8021201389ABF03121B
:100F73000138C6BF0312013821C0031201382BC048
:100F8300031201383BC003120138DDD002120138CD
:100F9300E7D00212013825D1021201386ED10212B4
:100FA3000138A8D10212013802D20212013823D229
:100FB30002120138FBD40212013804D5021201389F
:100FC30051D5021201387AD50212013884D50212A2
:100FD3000138F0D50212013882D602120138CCD67C
:100FE3000212013802D7021201388ED702120138D9
:100FF300CFD70212013806D80212013818D80212CC
:10100300013837D80212013840D8021201380DD9FD
:101013000212013837BB03120138B4AD0312013891
:10102300EAAD0312013820AE031201386BAF03128D
:10103300013845C0031201385BC00312013865C093
:1010430003120138AFC00312013861C10312013822
:10105300DBF202120138F0F202120138A0F302129D
:101063000138E0F302120138F9F30212013834F4C3
:101073000212013881F402120138B3F4021201386A
:10108300F5F402120138F6F60212013868F702127B
:10109300013848B60312013871B603120138A0B6FD
:1010A3000312013838B70312013850B7031201385D
:1010B30092B703120138A3AB03120138ACAB03128E
:1010C30001381DAC0312013831AC0312013886AD6F
:1010D30003120138A8AD03120138EBFF01120138E6
:1010E300EBA10312013810A2031201383AA2031232
:1010F300013818C203120138C95D001201382E608D
:1011030000120138CF6100120138836200120138E6
:101113001663001201389B6300120138C06300128A
:1011230001381667001201389C6700120138CF6836
:10113300001201380969001201383E6900120138B2
:10114300FE6A001201385B6B00120138A46B0012B7
:1011530001380F6C00120138806C00120138B26C38
:1011630000120138CA6C00120138136E00120138E4
:10117300236E001201383E6F00120138606F0012B7
:101183000138966F001201384A7100120138D77185
:10119300001201381672001201383A730012013836
:1011A300E4BE03120138F5BE03120138BBC20312B9
:1011B3000138FAC2031201386EC20312013896C213
:1011C3000312013876C30312013821BD031201381B
:1011D30031BD031201384CBD0312013800BE0312A6
:1011E3000138B7A403120138E8A403120138D2A6C8
:1011F3000312013833BA03120138B8BA03120138A3
:101203001EBB03120138D7B7031201380BB8031200
:10121300013834B803120138ABB80312013804B3F0
:10122300031201382DB30312013893B303120138AB
:10123300B3B30312013804B4031201385FB40312C9
:10124300013899B4031201389CB4031201386D8438
:1012530003120138A68403120138188503120138DA
:101263002D8503120138588603120138D4860312E0
:1012730001389A8703120138B98703120138E087CE
:10128300031201381D88031201383588031201380F
:10129300868803120138088D031201381F8D03124B
:1012A3000138998D031201387D8E03120138549051
:1012B30003120138B9900312013810910312013857
:1012C3002EBC031201387EBC03120138BDBC0312CD
:1012D3000138F87F001201385EA903120138F9AA18
:1012E300031201385AAB03120138A0AB03120138C1
:1012F300EAFB0212013885FC0212013809FD0212D1
:101303000138A2FD0212013864FE02120138D9FE2F
:101313000212013801FF021201380AFF02120138DA
:101323007AFF021201388DFF02120138A3FF021265
:101333000138ACFF02120138BFFF02120138A6B414
:1013430003120138F8B40312013882B503120138CD
:10135300E9B50312013819A70312013843A7031291
:10136300013811A803120138ECA8031201383BD944
:101373000212013802DA0212013839DA0212013894
:1013830063DA02120138C3DA0212013819DB0212DE
:1013930001387EDB0212013816DC0212013825DD2A
:1013A30002120138BCDE0212013849DF0212013891
:1013B300B0DF02120138C7DF02120138E1E0021286
:1013C30001381FE1021201380080021201388183C3
:1013D30002120138098502120138608502120138B0
:1013E3007F8502120138FD850212013893870212AC
:1013F3000138788802120138868C021201385C8D1C
:1014030002120138F5BF0212013868C00212013816
:10141300C4C3021201384FC50212013821C6021299
:101423000138F2C7021201388B9803120138D098A1
:1014330003120138ED9803120138A39903120138FE
:10144300F69903120138CC9A03120138E69B031272
:10145300013804C303120138C2FF0212013830C33A
:101463000312013858C303E066701008A3E06670E6
:101473000A08A3E066700408A3E06622C3E796089F
:1014830009E7960809E7960809E79622C3E0960854
:10149300A3E09608A3E09608A3E09622C008C3E061
:1014A30096F50808A3E096420808A3E096420808C8
:1014B300A3E09645087001D3D00822080808EAC0C3
:1014C300E0EBC0E086F0E7A4FA180986F0E7A42A67
:1014D300FA180986F0E7A42AFA180986F0E7A42A7D
:1014E300FA1986F0E7A4FBE5F02AFA190886F0E773
:1014F300A42BFBE5F03AFA190886F0E7A42BFBE5E9
:10150300F03AFA18180986F0E7A4C5F02BFBE43A81
:10151300FA1908E7C5F0C6A426F6E5F03BFBE43A62
:10152300FA1886F0E7A4F6E5F00826F6E43B08F699
:10153300E43A08F6D0E0FBD0E0FA22E4CFC0E0E4DE
:10154300CEC0E0E4CDC0E0E4CCC0E075F020C3E65B
:1015530033F608E633F608E633F608E633F61818EA
:1015630018EC33FCED33FDEE33FEEF33FFC3EC97A2
:1015730009ED9709EE9709EF97191919400FFFEC39
:1015830097FC09ED97FD09EE97FE191906D5F0BEF4
:10159300ECF709EDF709EEF709EFF7191919D0E0A0
:1015A300FCD0E0FDD0E0FED0E0FF22601608080882
:1015B300C6C313C618C613C618C613C618C613C6A1
:1015C300D5E0EA227009080808226016181818C620
:1015D300C333C608C633C608C633C608C633C6D522
:1015E300E0EA22E627F60809E637F60809E637F6C1
:1015F3000809E637F622E026F608A3E036F608A344
:10160300E036F608A3E036F622E026F008A3E0363B
:10161300F008A3E036F008A3E036F022C3E697F61D
:101623000809E697F60809E697F60809E697F62209
:10163300C3E096F008A3E096F008A3E096F008A3B1
:10164300E096F022E657F60809E657F60809E6574A
:10165300F60809E657F622E056F608A3E056F60820
:10166300A3E056F608A3E056F622E056F008A3E0FE
:1016730056F008A3E056F008A3E056F022E0F6087F
:10168300A3E0F608A3E0F608A3E0F622E6F008A339
:10169300E6F008A3E6F008A3E6F022E0FAA3E0FBF5
:1016A300A3E0FCA3E0FD22EAF0A3EBF0A3ECF0A39C
:1016B300EDF022CAC0E0E6F0A308DAFAD0E0FA229D
:1016C300CAC0E0E0A3C582CCC582C583CDC583F083
:1016D300A3C582CCC582C583CDC583DAE6D0E0CA73
:1016E30022C3E498F8E499F91217258026C3E49AF3
:1016F300FAE49BFBE920E7E9121725E498F8E4995B
:10170300F922C3E498F8E499F9121725E498F8E468
:1017130099F9C3E49AFAE49BFB22EB20E7CFE92093
:10172300E7E0B90010BB0008E88AF084F8AAF022C9
:10173300E4FBC8FA22EB70227B10C833C8C933C953
:10174300335007C39AC3DBF280069A50012ADBEABF
:10175300C833F4C8C933F4C9FA2275F008E4C833AE
:10176300C8C933C933C99AC99B5004C92AC93BD5CF
:10177300F0ECFBC833F4C8E4C9FA22600D08C6A232
:10178300E713C618C613C6D5E0F322600C08C6C318
:1017930013C618C613C6D5E0F422700422600D18D0
:1017A300C6C333C608C633C6D5E0F41822251810BD
:1017B300AF08F518400215198008F51840021519ED
:1017C300D2AF22C0D0251810AF08F5185002051962
:1017D3008008F51850020519D2AFD0D0222518F58C
:1017E3008210AF08F518400215198008F518400259
:1017F3001519D2AF851983222518F582E43519F519
:101803008322E4732518C582C0E0E51934FFC5833C
:10181300C0E0E518C3958224F810AF0885831985C5
:1018230082188008858319858218D2AFCEF0A3E58C
:1018330020F0A37808E608F0A3DEFAEFF0A3E58131
:1018430024FAF8E608F0A3E608F0A3E608F0A308F4
:1018530008E608F0A3E608F0A315811581D0E0FEA1
:10186300D0E0F8158115811581E8C0E0EEC0E022D3
:101873002518C582C0E0E51934FFC583C0E0E5182B
:10188300C3958224F910AF088583198582188008CF
:10189300858319858218D2AFCEF0A3E520F0A37813
:1018A30008E608F0A3DEFAEFF0A3E58124FBF8E6EF
:1018B30008F0A3E608F0A30808E608F0A3E608F09A
:1018C300A315811581D0E0FED0E0F815811581E8DC
:1018D300C0E0EEC0E022851983851882E0A3FEE014
:1018E300A3F5207808E0A3F608DFFAE0A3FFE0A35E
:1018F300C0E0E0A3C0E0E0A3C0E0E0A3C0E0E0A359
:10190300C0E010AF08858218858319800885821886
:10191300858319D2AFD083D082020135851983859F
:101923001882E0A3FEE0A3F5207808E0A3F608DF21
:10193300FAE0A3FFE0A3C0E0E0A3C0E0E0A3C0E0BF
:10194300E0A3C0E010AF088582188583198008855D
:101953008218858319D2AFD083D08222C0D02518B4
:10196300C582C0E0E51934FFC583C0E0E518C3951F
:101973008224F310AF088583198582188008858334
:1019830019858218D2AFC8F0A3E9F0A3EAF0A3EB5C
:10199300F0A37908E709F0A3D8FAECF0A3EDF0A3DC
:1019A300EEF0A3EFF0A3D0E0F0A3D0E0F0A3D0E0FB
:1019B300F0A3E520F0A3E5F0F0A3228519838518B1
:1019C30082E0C0E0A3E0F9A3E0FAA3E0FBA3780878
:1019D300E0F608A3DFFAE0FCA3E0FDA3E0FEA3E04A
:1019E300FFA3E0C0E0A3E0C0E0A3E0F5D0A3E0F5EF
:1019F30020A3E0A3F5F010AF088583198582188032
:101A030008858319858218D2AFD082D083D0E0F8BD
:101A1300D0E03274048006740280027401C0E0F4E2
:101A2300041217E0D0E01216B62274048004740284
:101A33008000CCC0E0EDC0E0E518C39CCCAD1950EC
:101A4300011D10AF068C188D1980068C188D19D2C4
:101A5300AF1216C3D0E0FDD0E0FC22D083D082E9E0
:101A6300C0E0E493A3C386F0C5F095F0F908E493CE
:101A7300A386F0C5F095F0700BE493A3C3994005DA
:101A8300E9048002A3E475F002A42582F582E5F05F
:101A93003583F583D0E0F9E493A3C0E0E493C0E099
:101AA30022D083D082ECC0E0EDC0E0E493A3FCE459
:101AB30093A3FDED4C600D121AF0EC24FFFCED3402
:101AC300FFFD80EFE493A3FCE493A3FDED4C600DD5
:101AD300121B2FEC24FFFCED34FFFD80EFD0E0FD63
:101AE300D0E0FCE493A3C0E0E493C0E022C0E0C3F1
:101AF300E49396087401939618400FE49366700874
:101B030008740193661870007019A3A3C3E4939635
:101B1300087401939618A3A3400DD0E0D0E0D0E061
:101B2300021AE0A3A3A3A3A3A3D0E022C0E0C0F0C2
:101B330088F0E4936670080874019366187000A82F
:101B4300F0A3A3700BD0F0D0E0D0E0D0E0021AE015
:071B5300A3A3D0F0D0E022B3
:101B5C0074F5121873EAFEEBFFEE2434F8EF340040
:101B6C00F988088909EE2435F582EF3400F583E015
:101B7C00F8EE2437F582EF3400F583E0F50AEC85B6
:101B8C000AF0A4FCAAF0850AF0EDA42AFDE82CF8D2
:101B9C00E43DF97A257B00121725EA850882850930
:101BAC0083F0F8740758F97401B900028004C33348
:101BBC00D9FCFAE8131313541FF8EE28F8EF34008D
:101BCC00F9E8245DF582E93400F583E05A6008EE0B
:101BDC002434F582EF802CEE2434F582EF3400F5BA
:101BEC0083E0C0E0EE2436F582EF3400F583E0F5B7
:101BFC00F0D0E084A8F0EE28F8EF3400F9E82438AF
:101C0C00F582E93400F583E0F97F0402191F74F5BD
:101C1C00121873EAFEEBFFEE2434F582EF3400F574
:101C2C0083E0C0E0EE2435F582EF3400F583D0E09C
:101C3C00F08E828F83A3A3A3A3A3A3A3C082C0838C
:101C4C008E828F83A3A3A3A3A3E0F8A3E0F9D08390
:101C5C00D082E0C398F508A3E099F509EE247FF54E
:101C6C0082EF3400F583E064017069EE2480F58224
:101C7C00EF3400F583E0F8A3E0F98E828F83A3A301
:101C8C00A3A3A3A3A3E0FCA3E0FD8E828F83A3A355
:101C9C00A3A3A3E0FAA3E0FBC3EA9CEB9D5010C303
:101CAC00EC98ED99402EC3EA98EB995027800EC31F
:101CBC00EA98EB994007C3EC98ED9940177CDC7DD2
:101CCC0004EEFAEFFB120B7CEE247FF582EF34006E
:101CDC00F583E4F0EE2434F8EF3400F9E8FCE9FD88
:101CEC00EE2435F582EF3400F583E0F8EE2437F579
:101CFC0082EF3400F583E0F50AE508850AF0A4F5D7
:101D0C0008AAF0850AF0E509A42AF509E82508F8DF
:101D1C00E43509F97A257B00121725EA8C828D832C
:101D2C00F0F8740758F97401B900028004C333D970
:101D3C00FCFAE8131313541FF8EE28F8EF3400F9EB
:101D4C00E8245DF582E93400F583E05A6008EE245E
:101D5C0034F582EF802CEE2434F582EF3400F583D9
:101D6C00E0C0E0EE2436F582EF3400F583E0F5F0C8
:101D7C00D0E084A8F0EE28F8EF3400F9E82438F528
:101D8C0082E93400F583E0F9122997021C15C08210
:101D9C00C083851882851983E0F8A3E0F9C3EA9C17
:101DAC00EB9D5010C3EC98ED99401BC3EA98EB994E
:101DBC005014800EC3EA98EB994007C3EC98ED9948
:101DCC004004790180027900D083D08222EAC39C3E
:101DDC00FAEB9DFB2274EF1218739003A2E06408D7
:101DEC006005E06407702A9061C8E060249003D01D
:101DFC00E0F4601DE0F875F003A4C8AAF02AF974A9
:101E0C00D228FE740339FF8E828F83A3A3A3E070C4
:101E1C0003021F11906060E0C0E0EE2468F582EFD1
:101E2C003400F583D0E0F0750C45750D0575080090
:101E3C00750900E5D914F50AE5D95403F50E6017B8
:101E4C007403650E605CE50A6010EE2467F582EFA2
:101E5C003400F583E07003021EF6900540E0640147
:101E6C00602AEE2482F582EF3400F583E06004787A
:101E7C000480027800850A08E508C398FA95E0FB0F
:101E8C00120A4A8A088B09EA45097005120D8080EE
:101E9C0074EE2482F582EF3400F583E070048A0C32
:101EAC008B0DE50A6012850C82850D83F50BE5D947
:101EBC00F0A3150BE50B70F6EE2482F582EF3400DF
:101ECC00F583E0604474FC250AF50A780C121A1AA2
:101EDC00AC0AA90EEEFAEFFB120C1874021217C61C
:101EEC00E97026AA08AB09121344793D8E828F83C0
:101EFC00A3A3A3A3E0FA7B0012091EEEFAEFFB12D8
:101F0C000B94120C2A790080747403650E6056854C
:101F1C000A107511007810121A1AAC0CAD0DAA0823
:101F2C00AB09120BF474021217C6EE2468F582EF9B
:101F3C003400F583E064807004747F8001E0F50C5C
:101F4C00780C121A1EE50EF50C780C121A1EA90A42
:101F5C00AC08AD099003D0E0FA7B001208E27402E1
:101F6C001217C680139003A2E06408600BAC0CAD92
:101F7C000DEEFAEFFB120C84120D8C79017F0A0224
:101F8C00191F74F512187374FC1217B0EAFEEBFFEC
:101F9C008908A2AFE433F509C2AF806AEE2463F876
:101FAC00EF3400F97A007B00A2AFE433F50AC2AF3C
:101FBC0088828983E0FCA3E0FDEC4D603A8882893D
:101FCC0083E0FAA3E0FB8A828B83E0FCA3E0FD882C
:101FDC00828983ECF0A3EDF08A828B83E4F0A3F08A
:101FEC0088828983E0FCA3E0FDEC4D700A8882892D
:101FFC0083A3A3E4F0A3F0E50AA2E092AF1213448A
:10200C009004E3E004F0EE2463F582EF3400F583F2
:10201C00E0F8A3E0F9E849603DEE2463F582EF3483
:10202C0000F583E02402FAA3E03400FBEA2402F575
:10203C000AEB3400F50B780A121A1A8A828B83E0A9
:10204C00FCA3E0F9EEFAEFFB120BB874021217C600
:10205C00E97003021FA89004E3E060639004E4E0DD
:10206C00F89004E3E0C398500C740265087050902B
:10207C0004E5E0604A8E828F83A3A3A3A3E08518B6
:10208C0082851983F0A3E4F09004E3E0F874021263
:10209C0017FBE8F0A3E4F09004E3E0F89004E2E02E
:1020AC0028F074021217FBAC82AD83851882851957
:1020BC0083AA82AB8379011208EE9004E3E4F0E585
:1020CC0009A2E092AF74041217C6021C150000009E
:1020DC008521878522C622C0E0C0D0E8C0E0E9C0D7
:1020EC00E0EAC0E0EBC0E0ECC0E0EDC0E0EEC0E048
:1020FC00C008C009C00AC00BC082C083C0F0A2AF28
:10210C00E433FEC2AF759B00906182E0A2E05012F6
:10211C00E591A2E0500C7591FE74016521700312DB
:10212C001DE1E0A2E55051E591A2E5504B7591DF20
:10213C009003A2E064076005E064087023740165F5
:10214C0021703579019003D0E0FA75F003A4CAA888
:10215C00F028FB74D22AFA74033BFB121F8E8018F2
:10216C00E0640D70139003C4E004F064287002E482
:10217C00F07A00E0F9120D92906182E0A2E6400341
:10218C0002222AE591A2E6400302222A7591BF9011
:10219C0003A2E064057008120CBA120CC68003127C
:1021AC000CC0752100120D20E99003A3F0790012E8
:1021BC000D14120AF27A017B009003A1E0F9120FC0
:1021CC00EA907803E064427055900544E014F07096
:1021DC004DC2AF1221E200782AD0E0F618D0E0F61A
:1021EC00E59F540770057509FF800375097FC4C00E
:1021FC00E07829E6F50808E65509F509740B780826
:10220C0012178ED0E02508F8906270E0A2E740F833
:10221C00E8C333906272F0906270E0D2E0F09061AB
:10222C0081E0A2E35009E5E9A2E3500375E9F7A3C5
:10223C00E0A2E75009E591A2E7500375917FEEA269
:10224C00E092AFD0F0D083D082D00BD00AD009D09E
:10225C0008D0E0FED0E0FDD0E0FCD0E0FBD0E0FA0E
:10226C00D0E0F9D0E0F8D0D0D0E032C0E0C0D0C09F
:10227C0082C083906183E0A2E05009E5BFA2E050E8
:10228C000375BFFEE0A2E15009E5BFA2E150037562
:10229C00BFFDE0A2E25009E5BFA2E2500375BFFB0F
:1022AC00E0A2E35009E5BFA2E3500375BFF7E0A23B
:1022BC00E45009E5BFA2E4500375BFEFE0A2E5507E
:1022CC0009E5BFA2E5500375BFDFE0A2E65009E5C2
:1022DC00BFA2E6500375BFBFD083D0828088C0E018
:1022EC00C0D0E8C0E0E9C0E0EAC0E0EBC0E0ECC080
:1022FC00E0EDC0E0C0F0E5A7A2E6500FE5A1A2E634
:10230C00500953A7BF75A1BF12234FE5A7A2E550F3
:10231C000CE5A1A2E5500653A7DF75A1DFE5A7A246
:10232C00E15009E5A1A2E1500375A1FDE5A7A2E2E8
:10233C00500CE5A1A2E2500653A7FB75A1FBD0F00F
:10234C0002226074F81218737521019003A2E064E4
:10235C00067015120C488A828B83A3A3A3A3A3A394
:10236C00E0FAA3E0FB120CA8A2AFE433FED2AF90CC
:10237C0003A8E0640170187A207B009003A1E0F9B7
:10238C001210747A207B009003A1E0F9120FF090E8
:10239C006182E0D2E6F0900541E0602185C62280A2
:1023AC00169003A7E064017008E5C654F84405F5DF
:1023BC00C653BEFC1220DC7401652160E4EEA2E081
:1023CC0092AF7F0102191F008E238F2485822885EE
:1023DC008327851882851983E0CEA3E0CF852882D8
:1023EC00852783EBC9EAC8EDCBECCA75F010C3E8BE
:1023FC0033C8E933C9EA33CAEB33CBC3EA9EF526BB
:10240C00EB9FF525B35004AB25AA26EC33CCED336A
:10241C00CDD5F0DAAE23AF242274E912187374F818
:10242C001217B0851882851983ECF0A3EDF08A0899
:10243C008B099003A2E024F7C3940550067508019C
:10244C000225BC120C488A0A8B0BAE0AAF0BEE4F5E
:10245C0070030225B9AC08AD0974021217FBAA82ED
:10246C00AB83120CD88E828F83A3A3750CFF750DD2
:10247C00FF750EFF750F00780C12165A74021217A6
:10248C00FB7510FF7511FF7512FF75130078101294
:10249C00165A780C791012147F502A780C79101275
:1024AC00161F7508017509C8750A00750B007808A8
:1024BC00790C12147F5052850C08850D09850E0A73
:1024CC00850F0B80507514017515C875160075179E
:1024DC000085100885110985120A85130B78087977
:1024EC000C12161F7814790812147F401C75080002
:1024FC00750900750A00750B017808791012161F02
:10250C007808790C1215E6800C75080175090075B0
:10251C000A00750B00740978081215C7750C19F5AB
:10252C000DF50EF50F7808790C12153E8E828F83FF
:10253C00A3A3A3A3A3A3E0F8A3E0F97AD07B03128F
:10254C001725880C890DE4F50EF50F7808790C1217
:10255C0015E674061217FBE0F8A3E0F97AD07B03BA
:10256C00121725E8FA8A0CE4F50D7808790C121488
:10257C007F50077808790C12161F9003A2E06408AC
:10258C00600AE064066005E06405702D750C0D783A
:10259C000C790812147F4021750CF4750DFF750E23
:1025AC00FF750FFF7808790C1215E6800C75080082
:1025BC00750900750A00750B00851882851983E072
:1025CC00F8A3E0F5838882780812168F7408121726
:1025DC00C67F1002191F74F7121873120CEA9005BB
:1025EC003FE064017010906245E4F0A3F053F4F303
:1025FC0043FE0C5390F3120C96E5C654804449F5F7
:10260C00C6E59E547F644970F8906185740FF09014
:10261C00053DE0F47002A3E0604E90053EE06008DA
:10262C0014601B14602E804075080175090090051C
:10263C003DE0780812179DE508F45280802A750851
:10264C000175090090053DE0780812179DE508F426
:10265C005290801475080175090090053DE07808CA
:10266C0012179DE508F452A079007F0202191F741D
:10267C00F7121873E9FEEAFF74016E700C7A807B16
:10268C00009003A1E0F9120FEA902B58E493F46048
:10269C0008E493F9120AE6800953C680E59E547F3C
:1026AC0070FA120C9C90053FE064017003120AFE54
:1026BC0090053DE0F47002A3E0604B90053EE060B5
:1026CC000814601A14602C803D750801750900907F
:1026DC00053DE0780812179DE508428080287508B2
:1026EC000175090090053DE0780812179DE5084238
:1026FC0090801375080175090090053DE07808126B
:10270C00179DE50842A0120CEA120C488A088B09A6
:10271C00A808A909E8496015E5E170FCE82414F55E
:10272C0082E93400F583E0F46003E0F5E174016FB5
:10273C00700A7A019003A1E0F912103E0226767419
:10274C00ED1218738A088B098C0A8D0B74131217EF
:10275C00FB780C1216807808790C12147F75100116
:10276C007511C875120075130050127808790C1287
:10277C00161F7810790812147F50168010780C7977
:10278C000812161F7810790C12147F4004790180FE
:10279C000279007F0C02191F74ED1218738A088BD2
:1027AC00098C0A8D0B74131217FB780C1216807897
:1027BC000C790812147F40117808790C12161FAA94
:1027CC0008AB09AC0AAD0B802275100075110075B1
:1027DC0012007513017810790C12161F78107908F5
:1027EC001215E6AA10AB11AC12AD1380A68A828B1F
:1027FC00837508FF7509FF750AFF750B00780812C1
:10280C00166D7F0402191F74F51218738C828D8358
:10281C0078081216808A828B837808121633EA2481
:10282C0004F8EB3400F98C828D83A3A3A3A3E0FC02
:10283C00A3E0FD88828983C3E09CF0A3E09DF0882F
:10284C00828983C3E09420A3E0944E40268A828B35
:10285C00837508FF7509FF750AFF750BFF78081261
:10286C00160C8A828B83A3A3A3A3E02420F0A3E0FD
:10287C00344EF00227F974F5121873E9FE9004F740
:10288C00E0FAA3E0FBEEC333F8E433F9744028F527
:10289C0082748339F583E02AF508A3E03BF50978C7
:1028AC0008121A1A7A407B427C0F7D001223D474D2
:1028BC00021217C68A088B098C0A8D0B74107808C3
:1028CC001215AEAA08AB097F0402191F74F1121875
:1028DC00738A0C8B0D8C0E8D0F740F1217FBE0FA94
:1028EC00A3E0FB74111217FBE0F508A3E0F50978DF
:1028FC0008121A1AEA2401F508EB3400F509E4F57C
:10290C000AF50B780C79081214BE7508717509025A
:10291C00780C79081214BEAA0CAB0DAC0EAD0F12CC
:10292C0023D474021217C68B09EA450960047A0194
:10293C0080027A00EC2AFCED3400FD74131217FBB4
:10294C00E0F8A3E0F9E8FEE9FFECF8EDF97A717B29
:10295C0002121725880889098E828F83780812162F
:10296C008FECF8EDF97A717B021217258A088B0926
:10297C007405780812179D8E828F83A3A3A3A3E5F9
:10298C0008F0A3E509F07F0802191FC082C083E993
:10299C00906000F0D083D08222C2AF02000022C02F
:1029AC00E074EB12195F74F91217B0538AFE90841D
:1029BC00847808121680900963780812160C900916
:1029CC00637808121680908488780C121680780828
:1029DC00790C12153EE50C450D450E450F702690F1
:1029EC00842AC082851882851983AC82AD83758355
:1029FC0084D08274071216C3851882851983AA8223
:102A0C00AB831211E2C2EB74071217C67F080219CE
:102A1C00BEC0E074F212195FA2AFE433FED2AFC2B3
:102A2C00C0E5D1A2E4500653D1EF121338751A0049
:102A3C00EEA2E092AF7F010219BEC0E074F212194F
:102A4C005FA2AFE433FED2AFE589A2E150031212CC
:102A5C003C758900C2C5751A00EEA2E092AF7F01E9
:102A6C000219BEC0E074F212195FA2AFE433FED2B9
:102A7C00AFE58BA2E0500312123C758B00C2E880CC
:102A8C00D5C0E0C0D0E8C0E0E9C0E0E5A8D2AFC254
:102A9C00C7751A00A2E7A2E792AFD0E0F9D0E0F830
:102AAC00D0D0D0E032C0E074F212195FA2AFE433A0
:102ABC00FED2AF758900C2C5900AA17401F0751AD7
:102ACC0000FA900A52E0F912103E900C25E0F8A39F
:102ADC00E0687002D285EEA2E092AF7F010219BECF
:102AEC00C0E0C0D0E8C0E0E9C0E0C008C009C082C6
:102AFC00C083A2AFE433F9D2AF900C25E0F8A3E089
:102B0C00687008539AFBA374018026C2E9900C25C7
:102B1C00E0F50874012508F074A52508F582740BFE
:102B2C003400F583E0F5C1900C25E0C3948040029D
:102B3C00E4F0E9A2E092AFD083D082D009D008D0E3
:0A2B4C00E0F9D0E0F8D0D0D0E0327C
:102B5800FFFFFFFFFFFFFFFFC082C083E9900ED495
:102B6800F0022DEF74F7121807E99002E1F07C19D2
:102B78007D037AFF7BFF12083A9002E274FFF0A30C
:102B8800F0A3E4F0A3F079051207C29002E1E0F99E
:102B98001206E47A587B081209FC7F010218D974DE
:102BA800F41218078A088B09EB548060309002E110
:102BB800E0F9120FD28A0A8B0BAE0AAF0BEE4F6008
:102BC800138E828F83E064B070031207DAEEFAEF97
:102BD800FB120FC0AA08E5096480FB80047A007B19
:102BE80000022DBE74F212180774FC1217B0EAFE28
:102BF800EBFFEE4F603874021217FBEEF0A3EF12F2
:102C08003023ECF0A3ED123023AA82AB831206DE48
:102C1800E9F508707374121217FB123BD7E50A45E1
:102C28000B60658E828F83122C9AEE4F70057508A3
:102C38000280557A067B001210268A0C8B0DA80C90
:102C4800A90DE8497005750813803D88828983E4D9
:102C5800122CA4A3A3EEF0A3EF124070E50AF0A390
:102C6800E50BF09002E7122D2C9002E76017E0FCCC
:102C7800A3E08003EAFCEBFD8C828D83122D2C707F
:102C8800F38C828D83123AFCA90874041217C602C9
:102C98004272A3A3A3A3E0FEA3E0FF22F0A3F0885F
:102CA8008289832274F2121807890AE975F017A439
:102CB800FEAFF09002E6E4F09002E4122D2C600AD8
:102CC80012102C9002E4E4F0A3F0EEFAEFFB1210DD
:102CD800268A088B09EA4509602FEEFCEFFD79008A
:102CE800120FA89002E4E508F0A3E509F07B008044
:102CF80008122D16E4F0A3F00BEBC3950A40F2E599
:102D08000A9002E6F0790080027913024272EB75AC
:102D1800F017A4F8A9F09002E4E028FAA3E0398AB1
:102D280082F58322123892EA4B2274F4121807753E
:102D38000800750900740C1217FB124044FEE9FFE5
:102D4800800CE5082401F508E5093400F509C3E518
:102D5800089CE5099D503285080A85090B7403789B
:102D68000A12179DEA250AF8EB350BF98882898340
:102D7800A3A3A3A3A3A3123BD7EE650A7003EF6531
:102D88000B70BFE8FAE9FB80047A007B00802774A7
:102D9800F41218077900EAA2E0501B750837750984
:102DA800847808121A1A7C047D007AD67B0E1207E2
:102DB800BC74021217C67F040218D9C082C083905F
:102DC80002E7122DF6601C88828983A3A3E06A704B
:102DD80003A3E06B8882898370E8A3A3A3A31238B6
:102DE8008E80047A007B00D083D0820201351243A2
:102DF80045E8492274EE12180774FC1217B0EAFE6F
:102E0800EBFF851882851983E4F0A3F0EE24021203
:102E18003AE0EE2405123011EE2404F50EEF1233D9
:102E2800F6E024FE603924FC604624FE605224FE4D
:102E3800605E24FE7003022F1624FE7003022F8E9C
:102E480024FE7003022F9D24FE7003022FAC24FC85
:102E58007003022FBB24FE7003022FCA02300790B2
:102E680003007417F0A3E412302B12045C0230073D
:102E7800851882851983AC82AD831207E0022FD7AB
:102E8800851882851983AC82AD831207E6022FD795
:102E9800850C08850D0974021217FBAC82AD838579
:102EA800088285098312388E1207028A0C8B0DACB2
:102EB8000CAD0DEC4D6042E4F50CF50D780C121AD2
:102EC8001A750C00750D03780C121A1A750C017519
:102ED8000D03780C121A1A74081217FB121A31799A
:102EE8001612388812082274081217C6E9F50C70F1
:102EF8000B123884120474800F750C0185088285C2
:102F08000983123019123AFC850C08022FDA740270
:102F18001217FBAC82AD83850C82850D8312388E27
:102F28001207028A108B11AC10AD11EC4D6043856D
:102F38000C82850D83A3A3121A3175100075110335
:102F48007810121A1A7510017511037810121A1ACE
:102F580074081217FB121A317916123888120822CF
:102F680074081217C6E9F509700B12388412047A2E
:102F7800800F750901850C82850D83123019123A6C
:102F8800FC850908804C851882851983AC82AD833D
:102F98001207EC803A851882851983AC82AD8312BA
:102FA80007F2802B851882851983AC82AD831207BE
:102FB800F8801C851882851983AC82AD831207FEC0
:102FC800800D851882851983AC82AD83120804E9C7
:102FD800F508E50860298E828F83A3E06414601FDA
:102FE800850E82850F83E09003001230231243413F
:102FF800900301123AFCE508A312302B120456EE96
:10300800FAEFFB1207800239E8F50CEF3400F50DF2
:103018002212434585188285198322F085188285F6
:10302800198322F07C007D03850A82850B83123880
:10303800922274EE12180774FC1217B08A0A8B0BCE
:103048008C0E8D0FEA2405F508EB3400F5097C1584
:103058007D0079007A007B03120FA8E5082402F5A9
:103068000CE509123014851882851983858210852C
:1030780083117810121A1A850882850983A3A3A3DD
:10308800A312353E121A1AE5082405F510E509348D
:1030980000F5117810121A1A850C82850D831238E2
:1030A800981206FC74061217C68A108B11AE10AF60
:1030B80011E50A2402F50AE50B123AE3EE4F700314
:1030C800023200801774021217FB12388E88828928
:1030D80083EAF0A3EBF0900300E004F0900300E033
:1030E800C394054003023200E4F510F5117810127C
:1030F8001A1A7510E97511027810121A1A7510EA61
:103108007511027810121A1A74061217FB121A3166
:103118007910EEFCEFFD1238881208227408121795
:10312800C6E9705E850882850983A3A3A3A3A3A328
:10313800A3E0F89002E9E068704812353E121A1AC6
:103148007CEA7D02E5082408FAE5093400FB120F41
:10315800A274021217C6E960298E828F83A3A3A3E3
:10316800A312388E900300E0F5107402781012173D
:103178009D74012510F58274033511F583EAF0A3D7
:10318800EBF074021217FB858210858311781012F8
:103198001A1A74021217FB121A31850C82850D83D4
:1031A80012435612070874041217C68A108B11AE00
:1031B80010AF11900300E0F510751100740278103B
:1031C80012179D74002510F874033511F988828947
:1031D80083A3122D2C70030230C4E82403F8E934C9
:1031E80000F9EE4F60030230CD8882898374FFF0C6
:1031F800A3F0900300E004F0900300E0600A1238A6
:10320800841204687900800B850882850983123A44
:10321800F3790A0239E874EA12180774FE1217B033
:103228008C128D13EA2405F50CEB1244C0122C9E67
:10323800750800750900EA2402F510EB3400F51151
:1032480085188285198385820A85830B780A121A64
:103258001A850C82850D83A3A3A3A3123400121A26
:103268001AE50C2405F50AE50D123AE3780A121A54
:103278001A850C82850D831243541206FC740612BB
:1032880017C68A0A8B0BEA450B70030233B1EA248E
:1032980004F50EEB1233F6122C9E8A828B83A3A3BD
:1032A800A3E0F985108285118312388E1206EAE9A7
:1032B800F50960030233B1E4F514F5157814121A10
:1032C8001A7514E97515027814121A1A7514EA7524
:1032D80015027814121A1A74061217FB121A317989
:1032E80013AC0AAD0B85108285118312388E120833
:1032F8002274081217C6E9F50960030233B1900277
:10330800E9E0F8E5087009E02402900301F080176D
:10331800900301E0FCE82402FAE43400FBEA6C7054
:1033280001EB60030233B5850882AA821235359411
:103338001412352D5073850E82850F83E0C0E0741A
:10334800022A1233EDD0E0F00508850E82850F833E
:10335800A3E0C0E085080A7402250A1233EDD0E024
:10336800F005089002E9123400121A1A7CEA7D026C
:1033780085080A7402250AFA74033400FB120F90B8
:1033880074021217C69002E9E02508F50874FF6E6A
:10339800700374FF6F6012EE24010EEF3400FFE536
:1033A80008C394145003023248E5086013123779B1
:1033B80085108285118312388E12046E790080146C
:1033C800E509700375090A851282851383EEF0A357
:1033D800EFF0A90974021217C67F0E0218D98508E2
:1033E8000C7402250CF58274033400F58322340032
:1033F800F50F850E82F583221240832274EE12188F
:103408000774FE1217B08C0E8D0FEA2405F50CEB2D
:10341800123014750B00900300E4F0F50AEA240258
:10342800F508EB3400F5098049900300E0FA9002B2
:10343800E9E0F8123535941712352D400D90030048
:10344800E0F87416C3989002E9F012353E121A1A81
:103458007CEA7D0274012AFA74033400FB120F908F
:1034680074021217C69002E9E0F8900300E028F011
:10347800050AE50C2416F582E50D1233F1E0F8E5AE
:103488000AC3984003023516900300E0C39416500F
:103498007DE50AC333F8E433F9E50C28FEE50D3978
:1034A800FF851882851983AC82AD838E828F831243
:1034B800388E1207028A108B11AC10AD11EC4D70CA
:1034C80005750B018043E4F510F5117810121A1AEE
:1034D8007510E97511027810121A1A7510EA75112B
:1034E800027810121A1A74061217FB121A3179167A
:1034F80085088285098312388E12082274081217EB
:10350800C6E9F50B7003023431123AEF80107C00E3
:103518007D0385088285098312388E120480A90BE1
:1035280074020239EAE99400C365D03322EA28F824
:10353800E43400F9E822E0F51075110078102274DF
:10354800EA12180774FC1217B08A0C8B0D8C128DB6
:1035580013EA2405F50AEB123AE375080075090029
:10356800E50A2402F510E50B3400F5117402121770
:10357800FB85820E85830F780E121A1A850A8285BA
:103588000B83A3A3A3A312402F121A1AE50A24053A
:10359800F50EE50B3400F50F780E121A1A85108215
:1035A800851183123AE91238881206FC740612173C
:1035B800C68A0E8B0FAE0EAF0FE50C2402F50EE592
:1035C8000D3400F50F80408882898374FFF0050868
:1035D8001233E674FFF005089002E9E0F50C750D6A
:1035E80000780C121A1A7CEA7D0285080C740225F0
:1035F8000CFA74033400FB120F9074021217C69071
:1036080002E9E02508F508EE4F60718E828F83A3EA
:10361800A3A3E0F9850E82850F8312388E1206EA7D
:10362800E9F509EE2404123011E97044E4F514F5C3
:10363800157814121A1A7514E97515027814121AE5
:103648001A7514EA7515027814121A1A74081217E2
:10365800FB121A317911EEFCEFFD850E82850F837E
:1036680012388E12082274081217C6E9F509602765
:10367800850C82850D8312376F123AFCE5087003BA
:10368800023755123779850E82850F8312388E12CC
:103698000486790002376A850882AA82EA9002E9DC
:1036A8007009E02404900301F08022E0F8900301FF
:1036B800E0F514E82404FCE43400FDEC6514700122
:1036C800ED70C0123535941212352D50B6850C8226
:1036D800850D83E0C0E074022A1233EDD0E0F005D6
:1036E80008850C82850D83A3E0C0E01233E6D0E0A4
:1036F80012378B85820C85830D780C121A1A740484
:103708001217FB121A318510828511831243561243
:10371800070874041217C68A0C8B0DAE0CAF0D8502
:10372800080C7402250CF874033400F9EE4F70038A
:103738000235CF851882851983E0888289831237FC
:103748008BA3E0C0E01233E6D0E00235DDE5097076
:103758000375090A850A82850B8312376F123AFCB2
:10376800A90974040233DE12434585128285138346
:1037780022900301E0F5F0E50884900300F07C0056
:103788007D0322F005088518828519832274EC12BE
:10379800180774FE1217B08A088B098C0E8D0FEA71
:1037A8002405FEEB3400FF851882851983AC82ADB1
:1037B800838E828F8312388E1207028A0A8B0BEE51
:1037C8002418123011EA450B700302385F1239D100
:1037D800503285188285198312388E1208168A107D
:1037E8008B11EA4511606B7912AC0AAD0B85088222
:1037F80085098312388E851082851183121805E990
:10380800F50A7058E4F50AF50B780A121A1A8E822E
:103818008F83A3A3E0F50A780A121A1AEE2403127A
:103828003AE0780A121A1A8E828F83123898120890
:103838002874061217C6E9F50A7021850C82850DD1
:1038480083E0701F85088285098312388E12048CE4
:103858008011750A0E8009750A018004E50A600363
:10386800123AEF850C82850D83E0600479008002AE
:10387800A90A74021217C67F0C0218D97C007D03AE
:10388800850A82850B8312389222E0FAA3E0FB2294
:10389800E0FCA3E0FD850882850983123892227432
:1038A800EE12180774FE1217B08A088B098C0C8D5B
:1038B8000DEA2405FEEB3400FF750E00851882859D
:1038C8001983AC82AD838E828F8312388E120702E1
:1038D8008A0A8B0BEA450B70030239BD1239D150A5
:1038E8003585188285198312388E1208168A0E8B30
:1038F8000FEA450F605E7912AC0AAD0B8508828528
:10390800098312388E850E82850F83121805E9F512
:103918000E60030239C0850882850983123BD7AA45
:103928000AFB12080A8A108B11A810A911E849701D
:103938001E7AFF7BFF12080A8A108B11A810A911A2
:10394800E849606C88828983E50AF0A3E50BF07585
:103958000A008007750E0E805F050A9002E6E0FAFD
:10396800E50AC39A504AE50A75F017A4FAABF0883D
:10397800828983A3A3E02AFAA3E03BFB8A828B8394
:10398800123AE9EC4D70D2750A17750B00780A12D5
:103998001A1AEEFCEFFD120F9074021217C6EEFC15
:1039A800EFFD85088285098312388E1204928014EF
:1039B800750E098003750E0112433D850C82850D35
:1039C80083123AFCA90E023528E5082402F508E519
:1039D800093400F5098A828B83A3A3A3E0A2E52218
:1039E80074041217C67F0A0218D974EC1218078CCF
:1039F800108D11EA2405F50CEB123014750F00EA4E
:103A08002402F50AEB123AE3850A82F58312388E0E
:103A180012080A8A088B09EA45097003023AD57523
:103A28000E008071850C82850D83E06401704F8ED5
:103A3800828F83A3A3121A318E828F83A3A3A3A399
:103A4800E0F5127513007812121A1AEE2405F51211
:103A5800EF3400F5137812121A1A1238881208284F
:103A680074061217C6E9F50F6014850C82850D835C
:103A7800E4F012433D851082851183123AFC7C17CD
:103A88007D007900EEFAEFFB120FA88E828F83E497
:103A9800F0A3F0050E9002E6E0F8E50EC398501E7C
:103AA800E50E75F017A4F8A9F0850882850983A3A7
:103AB800A31244CA123AE9EC4D6003023A2C850875
:103AC8008285098374FFF0A3F0E50F700612388829
:103AD800120498A90F02387FF50AEF3400F50B227B
:103AE800A3E0FCA3E0FD228E828F83124345850E5E
:103AF80082850F83E8F0A3E9F022C082C083900298
:103B0800E2E06A7003A3E06B70067AE27B0280044D
:103B18007A007B00022DEFC082C08378008C828DF2
:103B280083E06A7003A3E06B7010E875F003A4F8F3
:103B3800A9F0EC28FAED39FB8015088C828D83A357
:103B4800A3A3E06A7003A3E06B60DF7A007B000246
:103B58002DEF74F61218071207D48A828B83E58238
:103B6800458370067A007B008007A3A3A3A31238BD
:103B78008E0241EE74F2121807E9FE740E1217FB5A
:103B8800123BD774101217FB12404F8C828D83E0C2
:103B980064027036A312434BF50CA3E0F9A80C7429
:103BA800026870037429697021750C02750D00781C
:103BB8000C121A1A7808121A1A780A121A1AEEF936
:103BC80012084C74061217C680027901024272E08C
:103BD800F50AA3E0F50B2274E812180774FB121714
:103BE800B0E9851882851983F08A168B17ECFEEDEB
:103BF800FF751000741D1217FB124341741D121734
:103C0800FB123AFC8E828F83A3A3A3E0A2E4502D7B
:103C1800741D1217FB12388E1208168A828B83E5E0
:103C28008245837003024020790AEEFCEFFDAA1654
:103C3800AB17121805E9F5106003024023741F1230
:103C480017FB12404F74211217FB123BD774231233
:103C580017FBE0F50EA3E0F50F8E828F83E0640278
:103C68006003023FCEA3124341850882850983A3DE
:103C7800858212858313EE24061230118882898387
:103C8800E0FAA3E0F9EA2400F514E439F51578140C
:103C9800121AA4010000280128C33C070002288842
:103CA8003D0328F53C0029BF3E0129EA3E02298B45
:103CB8003E0329BF3E0429693FCE3FE50E450F600C
:103CC80003023FC9850C82850D83124044FAE9FB43
:103CD8008A828B83E0850A82850B8312407A121AC6
:103CE8001A8A828B83A3E0FCA3E0023F53E50E45CA
:103CF8000F6003023FC9850A82850B837401F012A5
:103D08004057850882850983F07C007D008E828F6C
:103D180083A3A3A3A3E02401FAA3E03400FB1207C2
:103D280002EA4B60418A828B83E02402F8850A828A
:103D3800850B83E028F0EA2404F8EB3400F9888244
:103D48008983E085128285138312408C12407A128F
:103D58001A1A8A828B83123AE8E5082403FAE509DD
:103D68003400FB023F58850A82850B83E02404F067
:103D78007C047D007900AA12AB13120FA80240231D
:103D8800E50E450F6003023FC9124057FEA3E0FF4E
:103D9800850A82850B837404F0EE85088285098381
:103DA800F0EF851282851383F074031217FBAC823F
:103DB800AD83EEFAEFFB1207028A0C8B0DEA450D74
:103DC8007003023E6C8A828B83A3A3122C9A74011F
:103DD8001217FB85820E85830F780E121A1A740546
:103DE8001217FB121A317CFF7DFF120708740412A8
:103DF80017C68B0FEA450F7033850C82850D831229
:103E0800402F121A1A850C82850D83A3121A317C51
:103E1800027D007ACD7B8412053474041217C6E93A
:103E2800700A74011217FB74FFF0A3F08E828F835F
:103E3800E064027039750C02750D00780C121A1ABC
:103E48008E828F83123AE8E5082404FAE5093400E3
:103E5800FB120F9074021217C6850A82850B83E045
:103E68002402800974011217FBEEF0A3EFF074012D
:103E78001217FB124040F074011217FBA3124038CE
:103E8800023FC3E50E450F6003023FC9850C8285DA
:103E98000D83123AE9AA16AB17120840850A8285E3
:103EA8000B837402F0EA850882850983F085128203
:103EB800851383EB023FC6E50E450F6003023FC939
:103EC800124057F8A3E0F9850A82850B837402F043
:103ED800E8850882850983F0E985128285138302C3
:103EE8003FC6850C82850D8312388E120F8AEAFC34
:103EF8008C82A882C3950EE4950F405FE8650E702A
:103F080002E50F70047C008022851882851983E001
:103F1800FAE50E2AFAE50F3400FBC3EA98EB9400A1
:103F28005003E08005E50ECCC39CFCEC850A828535
:103F38000B83F08C0A750B00780A121A1A850C820A
:103F4800850D83E0250EFCA3E0350FFDAA08AB091B
:103F5800120F9074021217C6024023751007024010
:103F680023E50E450F705A850C82850D8312434157
:103F7800850A82850B837407122CA6124038122CEE
:103F8800A6A3E0851282851383F0E82402FAE934B7
:103F980000FB8A828B83124038124067124040A38C
:103FA800124070124049F0E82405F8E93400F98815
:103FB800828983124049A312408CA3A3A3A3F08053
:103FC8005A75100B8055741D1217FB12388E120784
:103FD800D48A828B83E5824583603D124341880CF5
:103FE800890DE8450D6031780E121A1A780A121AEE
:103FF8001A7808121A1A74061217FBE0F9EEFCEF89
:10400800FDAA16AB17850C82850D83121805740658
:104018001217C6E9F510800375100EA91074051261
:1040280017C67F100218D9E0F50E750F00780E221A
:10403800E08508828509832212409622124345E8CA
:1040480022124096A3A322E0F508A3E0F5092285F1
:104058000C82850D83E0F8A3E0F5838882E022A333
:10406800A3F08A828B83A322F088828983A3A3A3E7
:10407800A322F08A828B8312408322E0F50A750B13
:1040880000780A22F088828983A312409622E0856C
:104098000882850983A3A32274EE12180774FE12FE
:1040A80017B08A0A8B0BECFAEDFB74141217FBE0BD
:1040B800F510A3E0F51174161217FBE0FE74181240
:1040C80017FBE0F50EA3E0F50F851882851983AC80
:1040D80082AD831207028A0C8B0DEA450D60498573
:1040E800188285198312388E1207D48A828B83E549
:1040F800824583602FA3A312404FE5084509602439
:10410800780E121A1A7810121A1AEEF9AC0CAD0DB4
:10411800AA0AAB0B85088285098312180574041254
:1041280017C68006790E8002790102352874F612C6
:10413800180774FE1217B0740C1217FB124044854E
:104148001882851983F074011217FBE9F0E4F50869
:10415800F5097808121A1A7508027808121A1A74DA
:10416800041217FB8582088583097808121A1A1227
:10417800082874061217C674021217C6806874F7E6
:10418800121807EAFEEBFF89087C197D0312084024
:10419800EA5402600BA908EEFAEFFB1206F6800259
:1041A8007901022BA274F612180774FF6A7003745F
:1041B800FF6B70168C828D831241F3E4F08C828D34
:1041C80083A3A3A31241F3A380181208108A088BB3
:1041D80009A808A909E849600D8882898374FF1233
:1041E8002CA4A3A3E4F07F020218D974FFF0A3F073
:1041F8008C828D83A3A32274F61218071208108AE2
:10420800828B83E58245836006A3A3E0FA80027A65
:10421800007B0080D174F21218078A088B09ECFE23
:10422800EDFF740E1217FBE0F50A1208108A0C8BCA
:104238000DA80CA90DE8497026EEFCEFFD7AFF7B6E
:10424800FF1208108A0C8B0DA80CA90DE849700400
:104258007911801688828983E508F0A3E509F0883A
:10426800828983A3A3E50AF079007F060218D9742E
:10427800EE121807EAFEEBFF8C088D09890C7414FE
:104288001217FB12434174161217FB12388E750D64
:1042980000E84960030243357402650C6003024379
:1042A8003074121217FB12434BFCA3E0F9EC240004
:1042B800F50EE439F50FEAF4F8EBF4F9EC58F8E503
:1042C8000F59F9E849705CE5082406F8ED3400F95F
:1042D800880A890B8882F5831243561208408A108F
:1042E8008B11E50E65107004E50F65116042780EBC
:1042F800121A1A850A82850B8312435612084674CD
:10430800021217C6E9F50D7027780E121A1A8508D9
:1043180082850983A3A312435412085E74021217FC
:10432800C6800D750D808008750D0D8003750D0B09
:10433800A90D0239ED8E828F8312434522E0F8A33E
:10434800E0F92212434588828983E022A3A3E0FC96
:10435800A3E0FDEEFAEFFB2274E812180774E712E7
:1043680017B0851882851983EAF0A3EBF08C168DB7
:1043780017890E75080075090074311217FBE0F5EE
:1043880012A3E0F51374331217FBE0F514A3E0F55C
:104398001574351217FBE0F50FE50975F003A4F85D
:1043A800A9F08518828519831244CAE0F47003A322
:1043B800E0F470030244ADEE2402F50CEF1244C0A1
:1043C800E070030244AD85160A85170B780A121AA5
:1043D8001AAC14AD15AA12AB131207C8740212173F
:1043E800C68A0A8B0BEA450B70030244ADE4F5104C
:1043F800F5117810121A1A74061217FB85821085A7
:1044080083117810121A1A74091217FB8582108505
:1044180083117810121A1A851282851383A3A3A315
:10442800A3121A317914AC0AAD0B8E828F8312381D
:104438008E12082274081217C6E97069850A8285E7
:104448000B83A3A3A3A312434174021217FB123ACE
:10445800FC850C82850D83E0A2E05018A90E740239
:104468001217FBAC82AD838E828F8312388E1207AF
:104478001AE94208850C82850D83E0A2E15026E501
:104488000FF50A780A121A1EA90E74031217FBAC4C
:1044980082AD838E828F8312388E120714740112B4
:1044A80017C6E942080509E509C394025003024307
:1044B800A1A90874190240273400F50D850C82F56E
:1044C8008322E028FEA3E039FF8E828F832274F2D4
:1044D800121807EAFEEBFF890B7401650B600E7476
:1044E80002650B706A7901120A1AE97062EEFAEF36
:1044F800FB12080A8A088B09EA45096047750A0011
:10450800800B7C177D007900120FA8050A9002E63F
:10451800E0F8E50AC3985021E50A75F017A4F8A950
:10452800F0850882850983A3A3E028FAA3E039FB74
:104538008A828B83122DF670C98508828509837457
:10454800FFF0A3F07C197D03EEFAEFFB12083A02A4
:10455800427274F21218078A088B09ECFEEDFF7498
:104568000E1217FB123BD7900ED4E0F4603D7A0987
:104578007B00120FBAEA4B60328A828B8374B1F0E7
:10458800A3E4124069A3124067A3E508F0A3E50974
:104598001245B6EEF0A3EF1245B6A3A3E50AF0A3C1
:1045A800E50BF0900ED4E0F9120FC6024272F08AC1
:1045B800828B83A3A3A3A3A322C082C0839061900C
:1045C8007404F0A37448F0A37402F09061807440FE
:1045D800F09061BC7403F09061877419F090626583
:1045E800741BF0906249E0C3941390619C400A7474
:1045F80009F090606674018007740DF0906066E4BD
:10460800F090619A7433F0A37455F09061A0743AF5
:10461800F090053FE064017009C2919003A67467A9
:1046280080059003A67461F0902B5EE493906186F8
:10463800F0902B58E493F46027E493540FF89061BA
:1046480085E0686012E5C654804449F5C6E59E5485
:104658007F644970F8E8F053C680E59E547F70FA8D
:104668007905120D7402481CC082C083E9540FF901
:10467800906185E0696012E5C654804449F5C6E555
:104688009E547F644970F8E9F053C680E59E547FD4
:1046980070FA02481CC082C083E5A8F853A87E902F
:1046A8006181E4F0A3F0A3F0C2BA539AFEC28975FF
:1046B8009B00C2C275E90075910075BF0075A9110C
:1046C80075B905906181F0A374C0F0A3E4F0D2BA83
:1046D800439A0174805842A802481CC082C083745F
:1046E800F81217B09003A4E0F8A3E0F9E8497003C2
:1046F8000248119003A4E054406023790885188289
:10470800851983AA82AB83120BD6851882851983F3
:10471800AA82AB831208CA9003A4E054BFF0E05405
:10472800806010790C7A657B05120BD69003A4E0A3
:10473800547FF0E0A2E0503190619A7433F0A37492
:1047480055F09061A0743AF090053FE0640170095B
:10475800C2919003A6746780059003A67461F01255
:1047680008D09003A4E054FEF0E054026031906158
:104778009A743FF0A3745AF09061A0747FF090058A
:104788003FE064017009D2919003A674718005908E
:1047980003A6746AF01208D09003A4E054FDF0E078
:1047A80054046013902B5CE493906186F01208D651
:1047B8009003A4E054FBF0E054086013902B5DE4F0
:1047C80093906186F01208D69003A4E054F7F0E0C5
:1047D80054106013902B5EE493906186F01208D613
:1047E8009003A4E054EFF0E05420600A1208D69039
:1047F80003A4E054DFF0A3E05401600D120AFE1296
:1048080008DC9003A5E054FEF074081217C60248AD
:104818001CF0A3F0D083D08202013574EC12180783
:1048280074F41217B0851882851983AC82AD83752C
:10483800838475827474041216C3902B5C93F4609D
:10484800030249AF907808E0C39402500302498FED
:1048580074041217FBAC82AD83758384758222744D
:10486800081216C3851882851983858212858313D9
:1048780074041217FBAC82AD83750EFF750FFF7FB2
:10488800FF7E00750C48750D78801574086E7003EE
:1048980002492374096E7003024923740A6E607B0F
:1048A800850C82850D8378081216808C828D83A9E9
:1048B80009E50AC9F88810741878081215AEE510C9
:1048C8004508F8C3E098A3E099850C82850D8378A4
:1048D8000812168040188C828D8374187808121577
:1048E800AEE5104508F8E0C398F8A3E0801C7418FA
:1048F80078081215AEE5104508FAE9FB8C828D831D
:10490800E0F8A3E0F9EAC398F8EB99F9C3E8950E43
:10491800E9950F5006880E890FEEFF0EE50C24046A
:10492800F50CE50D3400F50DEEC394135003024861
:104938009374FF650E700474FF650F60238F08740D
:1049480002780812179D74482508F582747835098D
:10495800F5837808121680851282851383E508F09E
:10496800EC2402FCED3400FD851282851383A385B7
:104978008212858313740C1217FBE5826C7003E5B1
:10498800836D600302488175080175090078081273
:104998001A1A74021217FBAC82AD837AD77B0A12FB
:1049A80011FA74021217C6740C1217C67F0C02187B
:1049B800D9C082C0839061AE7468F0A3746AF09025
:1049C800624574FBF0A304F053F4FD43FE02900526
:1049D8003F7401F09061A0E0643A90619A7023748A
:1049E80033F0A37455F09061A0743AF07401640137
:1049F8007009C2919003A6746780289003A6746119
:104A08008021743FF0A3745AF09061A0747FF07411
:104A18000164017009D2919003A674718005900316
:104A2800A6746A02481B7F080218D9C082C0839006
:104A380004F1E06401700A9004F6E06004790C80E7
:104A480002790002481CC082C08375E1F19004F429
:104A5800E0605B14600914605F14605714705E12A4
:104A68000B109004EAE0F97AEB7B04120CF67AD684
:104A78007BBE7C897D8E120D2C7A557B557C557DAD
:104A880000120D029004F5E0F9120D0E7901120DD5
:104A9800689004E8E0F8A3E0C82416F582E834003A
:104AA800F5837428F0A3740BF0790002481C120BEC
:104AB8001680AF120B1C80AA120B2280A5791280D7
:104AC800EA74F012180775D90D9004D5E0A2E0E455
:104AD800331313F89004EAE0C4333354C048440154
:104AE800F5D978E8790488828983A3A3A3E0F5D966
:104AF80088828983A3A882A983E864EE7003E964A5
:104B08000470E378D5790488828983A3E0F5D9888D
:104B1800828983A3A882A983E864DB7003E964041B
:104B280070E575E1959004D5E0F97AD67B04120C0E
:104B3800FC900EF674BCF0A3740AF0A3741EF0A3E4
:104B4800740CF0A3741EF0A3740CF0A3741EF0A3ED
:104B5800740CF0A374C2F0A3740AF0A3741EF0A33B
:104B6800740CF0A374DAF0A3740AF0900F04741EA6
:104B7800F0A3740CF0A3741EF0A3740CF0A3741EBD
:104B8800F0A3740CF0A3741EF0A3740CF0A3741EAD
:104B9800F0A3740CF0A3741EF0A3740CF09004F44A
:104BA800E064019004E87012E0F8A3E0F5838882DD
:104BB800A3A37508007509088010E0F8A3E0F58341
:104BC8008882A3A3750804750900750A00750B008F
:104BD80078081215F9750CFF750DFF750EFF750F26
:104BE800007808790C1216479004E8E0F8A3E0C8AA
:104BF800240EF582E83400F583780812168F9004A5
:104C0800E8E0F8A3E0C82414F582E83400F58374DA
:104C180013F09003A27402F0024A2E74F7121807D8
:104C28009004FAE02407F5D99004EAE0C433335439
:104C3800C0F5D978E8790488828983A3A3A3E0F52D
:104C4800D988828983A3A882A983E864EE7003E9DE
:104C5800640470E39004FAE0601F78E87904FAE8E5
:104C68002413F582E93400F583E0F5D98882898335
:104C7800A3A882A9831AEA70E690051AE02407F52A
:104C8800D99004EAE0C4333354C04404F5D978E831
:104C9800790488828983A3A3A3E0F5D988828983CC
:104CA800A3A882A983E864EE7003E9640470E39022
:104CB800051AE0601F78E87904FAE82433F582E9F8
:104CC8003400F583E0F5D988828983A3A882A98373
:104CD8001AEA70E675E195900EF674C8F0A3740AA6
:104CE800F0A3741EF0A3740CF0A3741EF0A3740C4C
:104CF800F0A3741EF0A3740CF0A374C2F0A3740A9A
:104D0800F0A3741EF0A3740CF0A374DAF0A3740A71
:104D1800F0900F04741EF0A3740CF0A3741EF0A39B
:104D2800740CF0A3741EF0A3740CF0A3741EF0A30B
:104D3800740CF0A3741EF0A3740CF0A3741EF0A3FB
:104D4800740CF09004E8E0F8A3E0C8240EF582E8BB
:104D58003400F58374FFF0A3F0A3F0A3F09004E807
:104D6800E0F8A3E0C82414F582E83400F58374124F
:104D7800F09003A27401F0FF0218D974F712180713
:104D88009004FAE02407F5D99004EAE0C4333354D8
:104D9800C04402F5D978E8790488828983A3A3A35B
:104DA800E0F5D988828983A3A882A983E864EE7094
:104DB80003E9640470E39004FAE0601F78E879047A
:104DC800FAE82413F582E93400F583E0F5D98882FE
:104DD8008983A3A882A9831AEA70E675E195900EE3
:104DE800F674D4F0A3740AF0A374D4F0A3740AF090
:104DF800A374D4F0A3740AF0A374D4F0A3740AF0D3
:104E0800A374D4F0A3740AF0A374D4F0A3740AF0C2
:104E1800A374DAF0A3740AF0900F04741EF0A3745C
:104E28000CF0A3741EF0A3740CF0A3741EF0A3740A
:104E38000CF0A3741EF0A3740CF0A3741EF0A374FA
:104E48000CF0A3741EF0A3740CF09004E8E0F8A32F
:104E5800E0C8240EF582E83400F58374FFF0A3F06F
:104E6800A3F0A3F09004E8E0F8A3E0C82414F582C6
:104E7800E83400F5837414F09003A27404F002512E
:104E88004A74F71218079004FAE02407F5D9900439
:104E9800EAE0C4333354C04406F5D978E879048885
:104EA800828983A3A3A3E0F5D988828983A3A882F2
:104EB800A983E864EE7003E9640470E39004FAE0FF
:104EC800601F78E87904FAE82413F582E93400F5DC
:104ED80083E0F5D988828983A3A882A9831AEA7016
:104EE800E690051AE02407F5D99004EAE0C43333C4
:104EF80054C04404F5D978E8790488828983A3A347
:104F0800A3E0F5D988828983A3A882A983E864EEFF
:104F18007003E9640470E390051AE0601F78E8798B
:104F280004FAE82433F582E93400F583E0F5D988FA
:104F3800828983A3A882A9831AEA70E675E195900D
:104F48000EF674CEF0A3740AF0A3741EF0A3740CCA
:104F5800F0A3741EF0A3740CF0A3741EF0A3740CD9
:104F6800F0A3741EF0A3740CF0A3741EF0A3740CC9
:104F7800F0A374DAF0A3740AF0900F04741EF0A37F
:104F8800740CF0A3741EF0A3740CF0A3741EF0A3A9
:104F9800740CF0A3741EF0A3740CF0A3741EF0A399
:104FA800740CF0A3741EF0A3740CF09004E8E0F8FD
:104FB800A3E0C8240EF582E83400F58374FFF0A35B
:104FC800F0A3F0A3F09004E8E0F8A3E0C82414F5F7
:104FD80082E83400F5837415F09003A27403F0029C
:104FE800514AC082C0839004E8E0F8A3E0C82406D0
:104FF800F582E83400F583E402481974F7121807BB
:105008009003D0E0F875F003A4C8AAF02AF974D286
:1050180028F8740339F9E82405FAE93400FB8A8290
:105028008B83E0FCA3E0FD88828983A3A3A3A3A3C9
:10503800A3A3A3A3ECF0A3EDF088828983A3A3A381
:10504800A3A3A3A3E024FFF8A3E034FFF98A828B8B
:1050580083E8F0A3E9F002514A74F7121807EAFE50
:10506800EBFF9061D0E0600302513E75D90E75D90F
:105078000375D904EE248BF582EF3400F583E582BD
:105088002408F8E5833400F9E0F5D9A3E8658270CF
:1050980003E9658370F2EE2483F582EF3400F5832B
:1050A800E5822404F8E5833400F9E0F5D9A3E8653E
:1050B800827003E9658370F275E1957908EE248BB7
:1050C800FAEF3400FB120BCA7904EE2483FAEF34AA
:1050D80000FB120BCA7C00EEF8EFF9ECFAC3E49A75
:1050E800FA95E0FBEE2AFAEF3BFBEA248AF582EB1D
:1050F8003400F583E0C0E0E824AAF582E93400F53D
:1051080083D0E0F00C88828983A3A882A983ECC3AA
:10511800940840C7EE246FF582EF3400F583E0F879
:10512800A3E0F9EE2471F582EF3400F583E8F0A3EB
:10513800E9F07901800279008008F0EEA2E092AFF0
:1051480079007F010218D9C082C08375D90275D948
:105158000375D90575E195EA246FF582EB3400F5FE
:1051680083E0F8A3E0F9EA2471F582EB3400F583D3
:10517800E8F0A3E9F0790102481C74F6121807EA6E
:10518800FEEBFF9005457406F0750845750905782E
:1051980008121A1A7C017903120C1274021217C62B
:1051A80075D90675D903758245758305E0F5D9A3C8
:1051B800E582644A7004E583640570F075E19590B2
:1051C80003A2E06408701EEE246FF582EF3400F548
:1051D80083E0F8A3E0F9EE2471F582EF3400F5835B
:1051E800E8F0A3E9F0790102545074F6121807EABE
:1051F800FEEBFF9061D0E070667801900545740B76
:10520800F09003A2E06407701975084575090578E0
:1052180008121A1A7C017903120C1274021217C6AA
:105228007805740128F5D975D90375824575830504
:10523800E8FAE0F5D9A31AEA70F875E195EE246F5B
:10524800F582EF3400F583E0F8A3E0F9EE2471F578
:1052580082EF3400F583E8F0A3E9F0790180027960
:105268000002545074F7121807EAFEEBFF75D903D1
:1052780075D90375D90DEE24DDF582EF3400F58379
:10528800E0F5D975E1957904120D32EE246FF582B7
:10529800EF3400F583E0F8A3E0F9EE2471F582EF2E
:1052A8003400F583E8F0A3E9F0790102514A74F675
:1052B800121807EAFEEBFF9061D0E0F87480C398FB
:1052C800FAEE2482F582EF3400F583E06004780476
:1052D80080027800E8240BF8EAC398500302537B55
:1052E8007D09900545EDF0EE24E2F8EF3400F97AF7
:1052F800467B057C0888828983E08A828B83F088D4
:10530800828983A3A882A9838A828B83A3AA82AB7A
:10531800831CEC70E0EE2482F582EF3400F583E024
:10532800601D7508457509057808121A1A7C0979EF
:1053380003EEFAEFFB120C1274021217C67D0D74FD
:10534800012DF5D975D9037582457583058D08E05A
:10535800F5D9A31508E50870F675E1957904120DDD
:1053680032EE241DF582EF3400F583E4F0A3F079E2
:10537800018002790002545074F6121807EAFEEB15
:10538800FF9061D0E0F87480C398FAEE2482F58229
:10539800EF3400F583E06004780480027800E824A4
:1053A80008F8EAC398500302544E780690054574ED
:1053B8000CF09003BFE0900546F09003C0E0900524
:1053C80047F09003C1E0900548F09003C2E09005D3
:1053D80049F09003C3E090054AF0EE2482F582EF8D
:1053E8003400F583E0601B750845750905780812D7
:1053F8001A1A7C067903EEFA120C1274021217C6F6
:10540800780A740128F5D975D9037582457583051D
:105418008808E0F5D9A31508E50870F675E19579CF
:1054280004120D32EE246FF582EF3400F583E0F8B4
:10543800A3E0F9EE2471F582EF3400F583E8F0A3D8
:10544800E9F07901800279007F020218D974F61216
:105458001807EAFEEBFF9061D0E0F87480C398FA71
:10546800EE2482F582EF3400F583E060047804804E
:10547800027800E82404F8EAC398500302552F780C
:1054880002900545E8F0EE24F4F582EF3400F58348
:10549800E0900546F0EE2482F582EF3400F583E0D3
:1054A800601B7508457509057808121A1A7C027977
:1054B80003EEFA120C1274021217C6780674012849
:1054C800F5D975D9037582457583058808E0F5D93E
:1054D800A31508E50870F675E195EE2473F582EFDB
:1054E8003400F583E4F0EE247FF582EF3400F58391
:1054F800E4F0EE241DF582EF3400F583E4F0A3F028
:105508007904120D32EE240DF582EF3400F583E0B4
:10551800F8A3E0F9EE2471F582EF3400F583E8F0A2
:10552800A3E9F079018002790002545074F6121848
:10553800079061D0E0F87480C398FCEA2482F58271
:10554800EB3400F583E06004780480027800E824F6
:1055580004F8ECC398405B79029005457407F0EABB
:1055680024F5F582EB3400F583E0900546F0EA2453
:1055780082F582EB3400F583E060187508457509FB
:10558800057808121A1A7C0209120C1274021217F2
:10559800C67906740129F5D975D9037582457583CD
:1055A80005E9F8E0F5D9A318E870F875E1957901EF
:1055B8008002790002545074F5121807E9FCA2AF72
:1055C800E433F50AC2AF7D0080010DEA246EF5824E
:1055D800EB3400F583E0F8EDC398501A8D08EA25FE
:1055E80008F8EB3400F9E8246AF582E93400F58319
:1055F800E06C70D68024EA246EF8EB3400F9E0FE03
:10560800EA2EFAEB3400FBEA246AF582EB3400F563
:1056180083ECF088828983E004F0E50AA2E092AF87
:105628007F030218D974F6121807A2AFE433FDC23B
:10563800AFEA246EF582EB3400F583E014F07C00C9
:1056480060368C08EA2508F8EB3400F9E8246BF595
:1056580082E93400F583E0C0E0E8246AF582E934A1
:1056680000F583D0E0F00CEA246EF582EB3400F507
:1056780083E0F8ECC39840CAEA246DF582EB340065
:10568800F58374FFF0EA2469F582EB3400F583E4CE
:10569800F0EDA2E092AF025450C082C083E5A8F8B2
:1056A800C2AFEA246AF582EB3400F583E9F0EA2414
:1056B80069F582EB3400F583E4F0E8A2E7A2E7920B
:1056C800AF02481C74F3121807EAFEEBFFECFAED80
:1056D800FB8A828B83A3A3A3A3E0541FF0EE243696
:1056E800F582EF3400F583E4F0F50AEEFCEFFD8A6D
:1056F800828B83E0C0E0EC245DF582ED3400F58315
:10570800D0E0F0750B00E50A33333354F8F50C8A12
:10571800828B83E0F508750900E50B780812177E7F
:10572800E508A2E0502FEE2436F8EF3400F988821D
:105738008983E0F508EE2508F508EF3400F509E55A
:10574800082438F582E5093400F583E50CF08882F1
:105758008983E004F0050B050CE50BC3940840AF02
:10576800050A8A828B83A3AA82AB838C828D83A34A
:10577800AC82AD83E50AC3940550030256F77F0552
:105788000218D974F71218079003CEE06401700369
:105798000258E97A009003D4E060030258E97401E2
:1057A800F0A3E4F0A3F090043404F0900439F090EE
:1057B80003D7E4F0A3F0A3F0A3F09003E104F09082
:1057C8000407E4F09003EAF0A3F0A3F0A3F0A3F039
:1057D800A3F0A3F0900451F0900445F090043A74BB
:1057E80080F0A3E4F0900440F09004BCF0A3F0A390
:1057F800F0A3F0A3F0A3F0A3F0A3F09004C5F090F9
:105808000454F09004A4F0A3F0A3F0A3F0A3F0A331
:10581800F0A3F0A3F0A3F0A3F09004B0F09004B2CA
:10582800F09004AEF09004C8F0A3F0A3F0A3F0A3A6
:10583800F0A3F0A3F0A3F078CE7903E8246EF58204
:10584800E93400F58374FFF00A88828983A3A8826B
:10585800A983EAC3940440E37ACE7B0378DC790415
:1058680088828983E0C0E0EA2461F582EB3400F5A0
:1058780083D0E0F088828983A3A882A9838A828B57
:1058880083A3AA82AB83E864E17003E9640470D05F
:105898007ACE7B0378B5790388828983A3E0C0E058
:1058A800EA24E6F582EB3400F583D0E0F0888289BB
:1058B80083A3A882A9838A828B83A3AA82AB83E865
:1058C80064BD7003E9640370CF9003CEE004F06414
:1058D8000170089003D6E09003D0F07AD27B038061
:1058E800047A007B0002514AC082C0839003D5E449
:1058F800F09003D4F09003CEF0A3F0A374FFF075FA
:10590800E1F102481CC082C083780079009003D579
:10591800E0600478D2790388828983A3A3A3A3E0F3
:10592800F902481C74F6121807EAFEEBFFEE24632E
:10593800F582EF3400F583E0F8A3E0F9E849700355
:105948000259D1EE2463F8EF3400F97A007B00A203
:10595800AFE433F508C2AF88828983E0FCA3E0FD99
:10596800EC4D603A88828983E0FAA3E0FB8A828B57
:1059780083E0FCA3E0FD88828983ECF0A3EDF08A44
:10598800828B83E4F0A3F088828983E0FCA3E0FDA6
:10599800EC4D700A88828983A3A3E4F0A3F0E5089C
:1059A800A2E092AF1213449004E2E004F09004E302
:1059B800E004F0EE2463F582EF3400F583E0F8A309
:1059C800E0F9E849600302594B8E828F83A3A3A3B1
:1059D800E0600F8E828F83A3A3A3E4F09003CFE04F
:1059E80014F09003CEE014F070069003D074FFF02A
:1059F8008E828F83A3A3E4F09004E1E0700D9003FE
:105A0800CFE0640170057900120D14EEFAEFFB1275
:105A18000C4202545074F7121807EAFEEBFF8E820C
:105A28008F83A3A3A3A3E0FA7B0012091EEEFAEF6B
:105A3800FB120B94120C2A02514AC082C08378B51B
:105A4800790388828983A3E4F088828983A3A88262
:105A5800A983E864BD7003E9640370E69003B67433
:105A68000102481B74F6121807EAFEEBFFEC240348
:105A7800F8ED3400F988088909EC2407F8ED3400BA
:105A8800F9E8FCE9FD8C828D83E0F8A3E0F985084C
:105A980082850983E0FAA3E0FB121725EE240DF5B1
:105AA80082EF3400F583E8F0A3E9F08C828D83E07F
:105AB800F8A3E0F9850882850983E0FAA3E0FB12E0
:105AC80017258B09EA45096013EE240DF582EF349A
:105AD80000F583E02401F0A3E03400F00254507490
:105AE800F6121807EAFEEBFFEE242EF582EF3400DB
:105AF800F583E0FCA3E0FD780079FAECFAEDFB12FF
:105B08001725EE246FF582EF3400F583E8F0A3E95A
:105B1800F0780079FAECFAEDFB1217258B09EA45C3
