:020000040000FA
:0600000002011D0222BBFB
:03002B00022AD1D5
:03003300022AB3EB
:03003B00022B3065
:03004300022A612D
:0300530002232E57
:03006B00022AF571
:03007B000229EF68
:10008300022127E5C754F84401F5C779012200008E
:100093000080FB120086B90003020107E47921788E
:1000A30008B800028004F709D8FCE479297802B87B
:1000B30000028004F709D8FCE490028178DA790C15
:1000C3008002F0A3D8FCD9FA781A90014D7A01BACC
:1000D30000028007E493A3F608DAF9900E5AAA8285
:1000E300AB8390014E782B79048015E493A3AC8203
:1000F300AD838A828B83F0A3AA82AB838C828D83A8
:10010300D8E9D9E775826F7583C7740312012F7518
:100113008291758300740012012F75D000758137A9
:10012300751881751902759F00020096C09FF59F8F
:10013300E473D09F22D083D082C09FE493C0E07445
:100143000193C0E0740293F59F2201FF0000B40005
:100153000028002800283075A000A000A000A000FF
:1001630000080008E001F00010001000100010006B
:100173001000100050005000500010001000D00775
:100183000000000000000F000100050030750700AB
:100193001000010081FF00000000FF760694067C3A
:1001A30006FF02020208025000A0000000E803025A
:1001B30025850100000785021985010000B10E02A3
:1001C3001385010000B302021985010000B20E027B
:1001D3001185010000C902021985010000B30E0256
:1001E3000F85010000CB02021985010000B40E0245
:1001F3002385080000CC02021985010000B50E0218
:100203002F85010000B60EFF0100FF2002258501A6
:100213000000FE840219850100001A0F024D8500BB
:10022300000000000215850300001903400C400C78
:10023300400C400C400C400C400C400C400C400C5B
:10024300400C400C400CD40EEC0ECE0EFFFFE061D0
:1002530069636F2D656767110199010F12640401CA
:100263000225850100000A850219850100006B0F34
:100273000221850100006C0F0215850300008A0925
:100283000241850100006D0F020202020202020216
:1002930002010D00000010010225850100006D849C
:1002A300021985010000970F020D850100009009D6
:1002B300021985010000980F021F85010000EA83DF
:1002C300021985010000990F022B85010000C083EC
:1002D3000219850100009A0F022D85010000C682D4
:1002E3000219850100009B0F023185010000FC8289
:1002F3000219850100009C0F023385010000EA8288
:100303000219850100009D0F023F85010000D8827C
:100313000219850100009E0F024585010000DC8360
:100323000219850100009F0F024785010000A00FFD
:1003330001E803053F100AFF0001307503020106BF
:1003430000000000000000000000000000000000AA
:10035300000000000000000000000000FFFF060096
:10036300800CE803140900000000000000000000F6
:1003730000000000000000000005125000B400025D
:100383000A000201060302F0FF56140000000044B5
:10039300145C140A436861726163746572697374EF
:1003A30069632031000A436861726163746572692D
:1003B300737469632032000A436861726163746510
:1003C30072697374696320330010436861726163F7
:1003D30074657269737469632034000243686172DF
:1003E30061637465726973746963203500022585DE
:1003F3000100000185021985010000A210024B854E
:10040300030000120E021785010000A310021985D4
:10041300010000B410023D85030000260E0217857B
:10042300010000B510021985010000C610023B85CA
:100433000300003A0E021785010000C71002198558
:10044300010000D8100239850000004E0E02158508
:100453000300004F0E021785010000D91002198511
:10046300010000EA10023785040000550E021785CB
:10047300010000EB101201382BB60312013842B60B
:100483000312013873B603120138AEB603120138F2
:10049300D8B60312013802B70312013819B7031291
:1004A300013830B70312013847B70312013870B768
:1004B3000312013883B70312013899B703120138C5
:1004C300ACB703120138D3B703120138BBB502121C
:1004D3000138BFB602120138F7B6021201381AB753
:1004E3000212013825B70212013848B70212013847
:1004F30057B8021201382CB902120138A7B90212F7
:1005030001382FBA021201386ABA02120138A1BAAD
:10051300021201382FBB0212013808BC0212013843
:1005230068BC0212013873BC02120138F2BC021219
:100533000138F5BC02120138F8BC0212013887BD3C
:10054300021201388ABD02120138BABD0212013803
:10055300E4BD02120138D2BE0212013884BF021276
:10056300013837EF021201385FEF021201388DEFC5
:1005730002120138C4EF0212013822F002120138CC
:100583006DF002120138B8F002120138F8F00212CD
:1005930001383EF1021201386CF10212013829F2DE
:1005A3000212013833F20212013840F2021201380A
:1005B30073F2021201383FF3021201384BF30212B5
:1005C300013863F3021201386DF302120138B1C32B
:1005D30003120138BFC303120138D7C30312013812
:1005E300EFC3031201389DCD0112013849CE011228
:1005F3000138C4CE01120138E5CF0112013821D0F0
:1006030001120138CAD001120138B1D101120138E7
:1006130015D3011201386CD301120138EDD3011245
:100623000138DDD4011201382AD501120138B0D5C1
:1006330001120138E2D501120138F6D7011201384F
:1006430038D80112013856D801120138D9D801120D
:100653000138ADD90112013875DA0112013814E8F5
:1006630002120138E7E80212013890E90212013858
:10067300E3E90212013893EA021201381FEB021276
:1006830001380BEC021201383AEC021201384DED3D
:100693000212013895ED021201386AEE0212013896
:1006A300A6EE02120138C2EE021201388CC6031202
:1006B30001386799031201387D9903120138A39910
:1006C30003120138BF9A03120138C99A0312013881
:1006D300FE9B03120138F69C0312013829F901121B
:1006E300013859FA011201388CFA01120138D6FA8D
:1006F300011201389DFC0112013876AE0112013856
:10070300E0AE011201383FB0011201384FB00112BF
:1007130001387CB001120138D3B0011201387CB129
:100723000112013883B2011201384DB301120138AD
:10073300ADB401120138F0B40112013895B50112BC
:100743000138E2B50112013808B60112013816B8B2
:10075300011201381BB80112013820BA0112013805
:100763006DBA01120138E0BA0112013813BB01124C
:100773000138B5BB011201385EBC0112013896BCC9
:100783000112013899BC01120138E1BC0112013890
:1007930021BD0112013878BD011201380FFD02128B
:1007A300013827FD021201386FFD0212013885FD61
:1007B30002120138CCFD02120138E0FE02120138A8
:1007C3006DFF02120138B8FF02120138A42B001288
:1007D3000138B02B00120138EB2B00120138302CFA
:1007E30000120138F02C00120138762D0012013866
:1007F300DB2D00120138072E00120138402E0012A3
:1008030001387E3000120138623200120138483458
:10081300001201388B3500120138D9370012013824
:10082300EB3800120138363A00120138463B001209
:100833000138633B001201389E3B00120138C03B74
:1008430000120138233C00120138E4400012013841
:10085300794100120138CA4100120138F1410012F6
:100863000138434200120138614200120138BB4291
:1008730000120138A443001201381A45001201384E
:100883009E45001201380080031201380A800312CA
:1008930001384D8003120138688003120138F88053
:1008A300031201382081031201385D8103120138DC
:1008B300948103120138BD8103120138328203127D
:1008C30001384782031201385C82031201388D829A
:1008D30003120138A18203120138C68203120138C0
:1008E3000083031201382C8303120138AF830312F0
:1008F3000138F883031201382284031201384D842E
:1009030003120138D17E00120138E8A8021201381F
:1009130016A90212013864AA0212013844AB02126A
:10092300013863AB02120138E0AB0212013823AC89
:100933000212013879AD021201383AAE02120138BF
:10094300C1B00212013862B10212013858B2021268
:10095300013855B302120138AFB4021201383AB567
:10096300021201382CBE0312013895BE031201385E
:10097300E9BE0312013810BF0312013841BF03124D
:100983000138758403120138E28403120138298582
:10099300031201384186031201383D8703120138DF
:1009A300208803120138F5BF0212013837C0021242
:1009B300013809C102120138E2C102120138DCC256
:1009C30002120138BEC30212013827C402120138D1
:1009D300DDC40212013851C502120138BDC502122D
:1009E3000138E6C50212013860C602120138F9C6A1
:1009F300021201385EC70212013873C702120138AE
:100A0300B9C702120138D2C70212013837C802121D
:100A130001383AC8021201383AA30312013862A31B
:100A230003120138A0A3031201385EA40312013894
:100A3300C5A403120138E1A40312013809A5031266
:100A4300013839A50312013848A503120138C5A599
:100A530003120138EBA50312013865BE01120138F8
:100A630043C00112013875C201120138B1C201122B
:100A73000138DEC201120138C8C30112013813C4A0
:100A8300011201385EC40112013870C40112013829
:100A9300B0C401120138E5C40112013833C5011293
:100AA300013862C50112013885C501120138D2C56A
:100AB3000112013857C60112013871C801120138F9
:100AC300B0CA01120138F1CA0112013893CC0112E4
:100AD3000138D4CC0112013847CD01120138D39B20
:100AE30002120138D19C021201386AA302120138A2
:100AF3008BA50212013856A702120138BEA80212B2
:100B03000138054600120138B44600120138E146A7
:100B130000120138274700120138674800120138D4
:100B2300FD4900120138774A00120138924A001237
:100B330001380D4B00120138674C00120138C74DC4
:100B430000120138CD4E001201382E500012013828
:100B5300475000120138A55000120138935100127A
:100B63000138C65100120138365200120138B05212
:100B730000120138FA5200120138C453001201382E
:100B830099540012013878550012013803560012A7
:100B93000138715600120138E5560012013810571A
:100BA30000120138CF5700120138345900120138AE
:100BB300515900120138705900120138615A00125C
:100BC3000138865A00120138B05A001201382B5BE3
:100BD30000120138855B00120138EE5C0012013807
:100BE3009C5D00120138DD5D00120138FF8D021299
:100BF30001384D8E02120138598E02120138378F97
:100C030002120138688F02120138998F02120138DB
:100C1300199002120138519002120138A390021266
:100C23000138E09002120138FD9202120138239537
:100C3300021201380E9702120138F8980212013895
:100C4300EA7F00120138639A01120138939A011264
:100C530001386CA101120138F1A201120138EEA88A
:100C630001120138D6A90112013813AA0112013861
:100C730036AA0112013867AA0112013870AA0112BB
:100C830001387AAA0112013868AB011201385EAC4F
:100C930001120138548501120138538901120138B8
:100CA300598901120138949001120138AD9501124E
:100CB30001389995031201382F960312013845968E
:100CC30003120138BB96031201382F970312013820
:100CD3006D9703120138E197031201385A980312F2
:100CE30001386398031201386F980312013884980E
:100CF30003120138C29803120138D898031201383D
:100D0300379903120138308D031201383D8D0312D8
:100D13000138578D03120138968D03120138D48D93
:100D230003120138398E031201384E8E0312013833
:100D3300598E03120138668E031201387D8E031219
:100D430001388B8E03120138968E03120138A28E5E
:100D530003120138B18E03120138BC8E031201381D
:100D6300DF8E03120138868F03120138968F031228
:100D73000138B08F03120138CD8F03120138E98F88
:100D8300031201380E90031201381990031201382F
:100D93002E9003120138429003120138A3900312DC
:100DA3000138A99003120138AF9003120138B590AE
:100DB30003120138CD900312013800910312013858
:100DC300FFEA0112013883EB0112013832EC011200
:100DD300013891ED01120138B2EF011201389EF092
:100DE30001120138D3F001120138F5F00112013874
:100DF300A4F1011201389CF301120138C5F3011269
:100E0300013857F40112013889F40112013896F4BC
:100E130001120138EDF40112013813F50112013802
:100E230080F70112013883F801120138DBF801124F
:100E330001388EDC0112013898DD011201387FDEA2
:100E43000112013889DE01120138ABDE01120138CB
:100E5300B7DE0112013850E0011201387FE00112C0
:100E630001389BE101120138F4E1011201385AE320
:100E73000112013839E40112013895E401120138F5
:100E830002E5011201383DE5011201387CE501124A
:100E9300013835E8011201384FE801120138DBE867
:100EA30001120138E9E80112013842E9011201385F
:100EB30050E901120138C3E90112013827EA01128E
:100EC300013871EA01120138A37300120138C573A6
:100ED30000120138EB750012013800790012013855
:100EE300187A00120138CB7A00120138AD7B001258
:100EF300013850FE0112013875FE01120138E7FE78
:100F0300011201389AE002120138A3E002120138FB
:100F1300ACE00212013883E10212013834E3021219
:100F230001386AE302120138A4E302120138DAE35A
:100F33000212013814E40212013848E402120138A3
:100F430074E402120138BDE402120138F7E402121C
:100F5300013840E50212013898E502120138CDE567
:100F63000212013828E60212013862E60212013841
:100F7300B3E602120138E9E60212013823E702124E
:100F8300013851E70212013874E70212013849C5EA
:100F93000312013875C503120138D0C50312013895
:100FA300DAC503120138EAC5031201385EC802121A
:100FB300013868C802120138A6C802120138EFC806
:100FC3000212013829C90212013883C902120138F9
:100FD300A4C9021201387CCC0212013885CC02125A
:100FE3000138D2CC02120138FBCC0212013805CDF4
:100FF3000212013871CD0212013803CE02120138F8
:101003004DCE0212013883CE021201380FCF0212E5
:10101300013850CF0212013887CF0212013899CF1D
:1010230002120138B8CF02120138C1CF02120138BF
:101033008ED002120138CEC1031201383AB4031222
:10104300013870B403120138A6B403120138F1B5A4
:1010530003120138F4C5031201380AC6031201381A
:1010630014C6031201385EC60312013810C70312F7
:101073000138F4F30212013809F402120138B9F409
:1010830002120138F9F40212013812F50212013882
:101093004DF5021201389AF502120138CCF502120D
:1010A30001380EF6021201380FF80212013881F8E6
:1010B3000212013829BB0312013852BB0312013853
:1010C30081BB0312013819BC0312013831BC03126E
:1010D300013873BC03120138B8BC03120138C3BC16
:1010E3000312013864BD0312013835B2031201380B
:1010F3003EB203120138AFB203120138C3B2031276
:10110300013818B4031201383BC9031201382EA069
:1011130003120138DAA003120138BAA1031201380D
:1011230021A20312013861AB0312013891AB031200
:1011330001383CAC03120138DEAC0312013833A68C
:101143000312013858A60312013882A6031201388C
:10115300C7C7031201380D5E001201387260001216
:101163000138136200120138C762001201385A6352
:1011730000120138DF6300120138046400120138E1
:101183005A6700120138E067001201381369001230
:1011930001384D6900120138826900120138426B2F
:1011A300001201389F6B00120138E86B00120138FE
:1011B300536C00120138C46C00120138F66C001233
:1011C30001380E6D00120138576E00120138676E38
:1011D30000120138826F00120138A46F0012013827
:1011E300DA6F001201388E71001201381B7200127F
:1011F30001385A72001201387E730012013888C414
:101203000312013899C4031201383EC50312013891
:1012130068C803120138A7C80312013853C903125F
:101223000138C5C203120138D5C203120138F0C216
:1012330003120138A4C303120138FFA803120138B3
:1012430030A9031201381AAB03120138CAC00312C2
:1012530001384FC103120138B5C10312013887BFEA
:1012630003120138BBBF03120138E4BF0312013874
:101273005BC003120138E5B7031201380EB803123D
:10128300013874B80312013894B803120138E5B871
:101293000312013840B9031201387AB90312013835
:1012A3007DB903120138E288031201381B89031246
:1012B30001388D8903120138A28903120138CD8ABE
:1012C30003120138498B031201380F8C03120138C2
:1012D3002E8C03120138558C03120138928C0312A1
:1012E3000138AA8C03120138FB8C031201387D915B
:1012F300031201389491031201380E92031201383C
:10130300F29203120138C994031201382E95031285
:1013130001388595031201381DC803120138F87F7F
:1013230000120138ABAD0312013846AF0312013886
:10133300A7AF03120138EDAF03120138009D03126A
:1013430001389B9D031201381F9E03120138E19E51
:1013530003120138569F031201387E9F031201388E
:10136300879F03120138F79F031201380FA003125E
:10137300013818A0031201382BA00312013887B9D2
:1013830003120138D9B90312013863BA03120138C1
:10139300CABA03120138F0AF031201381AB00312AC
:1013A3000138E8B003120138C3B103120138BCD0CD
:1013B3000212013883D102120138BAD10212013864
:1013C300E4D10212013844D2021201389AD2021235
:1013D3000138FFD20212013897D302120138A6D482
:1013E300021201383DD602120138CAD60212013860
:1013F30031D70212013848D70212013862D80212DB
:101403000138A0D80212013800800212013881830A
:10141300021201380985021201386085021201386F
:101423007F8502120138FD8502120138938702126B
:101433000138788802120138868C021201385C8DDB
:1014430002120138FED80212013871D90212013892
:101453008CDB021201380DDC021201383FDD02126F
:10146300013891DF0212013801E0021201388EF8CF
:1014730002120138D3F802120138F0F802120138CF
:10148300BEF90212013832FA021201381EFB0212AF
:101493000138D6FC02120138E7C803120138B1C87B
:1014A3000312013813C903120138E2FF02E0667028
:1014B3001008A3E066700A08A3E066700408A3E0BE
:1014C3006622C3E7960809E7960809E7960809E73D
:1014D3009622C3E09608A3E09608A3E09608A3E04B
:1014E3009622C008C3E096F50808A3E096420808D0
:1014F300A3E096420808A3E09645087001D3D008FC
:1015030022080808EAC0E0EBC0E086F0E7A4FA1876
:101513000986F0E7A42AFA180986F0E7A42AFA183C
:101523000986F0E7A42AFA1986F0E7A4FBE5F02A76
:10153300FA190886F0E7A42BFBE5F03AFA190886B6
:10154300F0E7A42BFBE5F03AFA18180986F0E7A4B4
:10155300C5F02BFBE43AFA1908E7C5F0C6A426F652
:10156300E5F03BFBE43AFA1886F0E7A4F6E5F00869
:1015730026F6E43B08F6E43A08F6D0E0FBD0E0FABE
:1015830022E4CFC0E0E4CEC0E0E4CDC0E0E4CCC0D0
:10159300E075F020C3E633F608E633F608E633F6E3
:1015A30008E633F6181818EC33FCED33FDEE33FE82
:1015B300EF33FFC3EC9709ED9709EE9709EF9719FE
:1015C3001919400FFFEC97FC09ED97FD09EE97FE03
:1015D300191906D5F0BEECF709EDF709EEF709EF97
:1015E300F7191919D0E0FCD0E0FDD0E0FED0E0FF00
:1015F300226016080808C6C313C618C613C618C641
:1016030013C618C613C6D5E0EA22700908080822D3
:101613006016181818C6C333C608C633C608C633BF
:10162300C608C633C6D5E0EA22E627F60809E63738
:10163300F60809E637F60809E637F622E026F60843
:10164300A3E036F608A3E036F608A3E036F622E078
:1016530026F008A3E036F008A3E036F008A3E0364E
:10166300F022C3E697F60809E697F60809E697F627
:101673000809E697F622C3E096F008A3E096F0087F
:10168300A3E096F008A3E096F022E657F60809E6F1
:1016930057F60809E657F60809E657F622E056F624
:1016A30008A3E056F608A3E056F608A3E056F62290
:1016B300E056F008A3E056F008A3E056F008A3E0D4
:1016C30056F022E0F608A3E0F608A3E0F608A3E04C
:1016D300F622E6F008A3E6F008A3E6F008A3E6F096
:1016E30022E0FAA3E0FBA3E0FCA3E0FD22EAF0A3DF
:1016F300EBF0A3ECF0A3EDF022CAC0E0E6F0A30800
:10170300DAFAD0E0FA22CAC0E0E0A3C582CCC582EF
:10171300C583CDC583F0A3C582CCC582C583CDC5A2
:1017230083DAE6D0E0CA22C3E498F8E499F9121701
:101733006B8026C3E49AFAE49BFBE920E7E91217DE
:101743006BE498F8E499F922C3E498F8E499F91260
:10175300176BE498F8E499F9C3E49AFAE49BFB2243
:10176300EB20E7CFE920E7E0B90010BB0008E88AE7
:10177300F084F8AAF022E4FBC8FA22EB70227B1073
:10178300C833C8C933C9335007C39AC3DBF28006D1
:101793009A50012ADBEAC833F4C8C933F4C9FA22E0
:1017A30075F008E4C833C8C933C933C99AC99B5013
:1017B30004C92AC93BD5F0ECFBC833F4C8E4C9FA21
:1017C30022600D08C6A2E713C618C613C6D5E0F3F8
:1017D30022600C08C6C313C618C613C6D5E0F4228C
:1017E300700422600D18C6C333C608C633C6D5E0DD
:1017F300F41822251810AF08F518400215198008AF
:10180300F51840021519D2AF22C0D0251810AF0821
:10181300F518500205198008F51850020519D2AFC2
:10182300D0D0222518F58210AF08F51840021519FB
:101833008008F51840021519D2AF8519832225189F
:10184300F582E43519F58322E4732518C582C0E0D7
:10185300E51934FFC583C0E0E518C3958224F81069
:10186300AF088583198582188008858319858218B6
:10187300D2AFCEF0A3E520F0A37808E608F0A3DE0C
:10188300FAEFF0A3E58124FAF8E608F0A3E608F0FE
:10189300A3E608F0A30808E608F0A3E608F0A315FA
:1018A300811581D0E0FED0E0F8158115811581E81E
:1018B300C0E0EEC0E0222518C582C0E0E51934FF80
:1018C300C583C0E0E518C3958224F910AF0885836A
:1018D300198582188008858319858218D2AFCEF0C6
:1018E300A3E520F0A37808E608F0A3DEFAEFF0A35F
:1018F300E58124FBF8E608F0A3E608F0A30808E670
:1019030008F0A3E608F0A315811581D0E0FED0E02E
:10191300F815811581E8C0E0EEC0E02285198385C2
:101923001882E0A3FEE0A3F5207808E0A3F608DF21
:10193300FAE0A3FFE0A3C0E0E0A3C0E0E0A3C0E0BF
:10194300E0A3C0E0E0A3C0E010AF08858218858360
:10195300198008858218858319D2AFD083D082027B
:101963000135851983851882E0A3FEE0A3F520786D
:1019730008E0A3F608DFFAE0A3FFE0A3C0E0E0A3DA
:10198300C0E0E0A3C0E0E0A3C0E010AF0885821888
:101993008583198008858218858319D2AFD083D0B7
:1019A3008222C0D02518C582C0E0E51934FFC58363
:1019B300C0E0E518C3958224F310AF088583198529
:1019C30082188008858319858218D2AFC8F0A3E9ED
:1019D300F0A3EAF0A3EBF0A37908E709F0A3D8FAA0
:1019E300ECF0A3EDF0A3EEF0A3EFF0A3D0E0F0A3AF
:1019F300D0E0F0A3D0E0F0A3E520F0A3E5F0F0A35E
:101A030022851983851882E0C0E0A3E0F9A3E0FAF8
:101A1300A3E0FBA37808E0F608A3DFFAE0FCA3E069
:101A2300FDA3E0FEA3E0FFA3E0C0E0A3E0C0E0A3CA
:101A3300E0F5D0A3E0F520A3E0A3F5F010AF08850F
:101A430083198582188008858319858218D2AFD0BF
:101A530082D083D0E0F8D0E0327404800674028030
:101A6300027401C0E0F404121826D0E01216FC221E
:101A73007404800474028000CCC0E0EDC0E0E5187B
:101A8300C39CCCAD1950011D10AF068C188D198065
:101A9300068C188D19D2AF121709D0E0FDD0E0FCE7
:101AA30022D083D082E9C0E0E493A3C386F0C5F0DB
:101AB30095F0F908E493A386F0C5F095F0700BE474
:101AC30093A3C3994005E9048002A3E475F002A43B
:101AD3002582F582E5F03583F583D0E0F9E493A31D
:101AE300C0E0E493C0E022D083D082ECC0E0EDC03C
:101AF300E0E493A3FCE493A3FDED4C600D121B36CD
:101B0300EC24FFFCED34FFFD80EFE493A3FCE493AE
:101B1300A3FDED4C600D121B75EC24FFFCED34FFAF
:101B2300FD80EFD0E0FDD0E0FCE493A3C0E0E493BC
:101B3300C0E022C0E0C3E493960874019396184072
:101B43000FE49366700808740193661870007019A7
:101B5300A3A3C3E49396087401939618A3A3400D1B
:101B6300D0E0D0E0D0E0021B26A3A3A3A3A3A3D07D
:101B7300E022C0E0C0F088F0E493667008087401C6
:101B83009366187000A8F0A3A3700BD0F0D0E0D038
:101B9300E0D0E0021B26A3A3D0F0D0E02274F5121C
:101BA30018B9EAFEEBFFEE2434F8EF3400F98808A5
:101BB3008909EE2435F582EF3400F583E0F8EE244D
:101BC30037F582EF3400F583E0F50AEC850AF0A4DB
:101BD300FCAAF0850AF0EDA42AFDE82CF8E43DF90F
:101BE3007A257B0012176BEA850882850983F0F852
:101BF300740758F97401B900028004C333D9FCFA9D
:101C0300E8131313541FF8EE28F8EF3400F9E8240F
:101C13005DF582E93400F583E05A6008EE2434F57B
:101C230082EF802CEE2434F582EF3400F583E0C09C
:101C3300E0EE2436F582EF3400F583E0F5F0D0E0F2
:101C430084A8F0EE28F8EF3400F9E82438F582E9A7
:101C53003400F583E0F97F0402196574F51218B9AD
:101C6300EAFEEBFFEE2434F582EF3400F583E0C0A7
:101C7300E0EE2435F582EF3400F583D0E0F08E8278
:101C83008F83A3A3A3A3A3A3A3C082C0838E828FA6
:101C930083A3A3A3A3A3E0F8A3E0F9D083D082E0B6
:101CA300C398F508A3E099F509EE247FF582EF3494
:101CB30000F583E064017069EE2480F582EF34005F
:101CC300F583E0F8A3E0F98E828F83A3A3A3A3A3F4
:101CD300A3A3E0FCA3E0FD8E828F83A3A3A3A3A30E
:101CE300E0FAA3E0FBC3EA9CEB9D5010C3EC98ED34
:101CF30099402EC3EA98EB995027800EC3EA98EBDC
:101D0300994007C3EC98ED9940177CDC7D04EEFA0B
:101D1300EFFB120B9EEE247FF582EF3400F583E494
:101D2300F0EE2434F8EF3400F9E8FCE9FDEE243555
:101D3300F582EF3400F583E0F8EE2437F582EF34D3
:101D430000F583E0F50AE508850AF0A4F508AAF092
:101D5300850AF0E509A42AF509E82508F8E4350918
:101D6300F97A257B0012176BEA8C828D83F0F87465
:101D73000758F97401B900028004C333D9FCFAE8A7
:101D8300131313541FF8EE28F8EF3400F9E8245D19
:101D9300F582E93400F583E05A6008EE2434F582D5
:101DA300EF802CEE2434F582EF3400F583E0C0E0BD
:101DB300EE2436F582EF3400F583E0F5F0D0E084CD
:101DC300A8F0EE28F8EF3400F9E82438F582E93476
:101DD30000F583E0F91229DB021C59C082C0838518
:101DE3001882851983E0F8A3E0F9C3EA9CEB9D50C0
:101DF30010C3EC98ED99401BC3EA98EB99501480FB
:101E03000EC3EA98EB994007C3EC98ED9940047927
:101E13000180027900D083D08222EAC39CFAEB9D31
:101E2300FB2274EF1218B99003A2E064086005E086
:101E33006407702A9061C8E060249003D0E0F460E6
:101E43001DE0F875F003A4C8AAF02AF974D228FE9D
:101E5300740339FF8E828F83A3A3A3E07003021F51
:101E630055906060E0C0E0EE2468F582EF3400F541
:101E730083D0E0F0750C45750D05750800750900F4
:101E8300E5D914F50AE5D95403F50E601774036513
:101E93000E605CE50A6010EE2467F582EF3400F50E
:101EA30083E07003021F3A900540E06401602AEE6C
:101EB3002482F582EF3400F583E060047804800225
:101EC3007800850A08E508C398FA95E0FB120A6CC6
:101ED3008A088B09EA45097005120DA28074EE2465
:101EE30082F582EF3400F583E070048A0C8B0DE5F4
:101EF3000A6012850C82850D83F50BE5D9F0A315D5
:101F03000BE50B70F6EE2482F582EF3400F583E0E7
:101F1300604474FC250AF50A780C121A60AC0AA90D
:101F23000EEEFAEFFB120C3A740212180CE970264B
:101F3300AA08AB09121384793D8E828F83A3A3A3CE
:101F4300A3E0FA7B00120940EEFAEFFB120BB61284
:101F53000C4C790080747403650E6056850A107505
:101F630011007810121A60AC0CAD0DAA08AB09125F
:101F73000C16740212180CEE2468F582EF3400F587
:101F830083E064807004747F8001E0F50C780C12A8
:101F93001A64E50EF50C780C121A64A90AAC08ADA4
:101FA300099003D0E0FA7B00120904740212180CA2
:101FB30080139003A2E06408600BAC0CAD0DEEFA45
:101FC300EFFB120CA6120DAE79017F0A021965749C
:101FD300F51218B974FC1217F6EAFEEBFF8908A292
:101FE300AFE433F509C2AF806AEE2463F8EF34003F
:101FF300F97A007B00A2AFE433F50AC2AF88828985
:1020030083E0FCA3E0FDEC4D603A88828983E0FA2B
:10201300A3E0FB8A828B83E0FCA3E0FD88828983B3
:10202300ECF0A3EDF08A828B83E4F0A3F08882893D
:1020330083E0FCA3E0FDEC4D700A88828983A3A3AF
:10204300E4F0A3F0E50AA2E092AF1213849004E354
:10205300E004F0EE2463F582EF3400F583E0F8A3A7
:10206300E0F9E849603DEE2463F582EF3400F5833F
:10207300E02402FAA3E03400FBEA2402F50AEB347D
:1020830000F50B780A121A608A828B83E0FCA3E0C6
:10209300F9EEFAEFFB120BDA740212180CE9700373
:1020A300021FEC9004E3E060639004E4E0F8900422
:1020B300E3E0C398500C7402650870509004E5E0A7
:1020C300604A8E828F83A3A3A3A3E0851882851918
:1020D30083F0A3E4F09004E3E0F87402121841E8FB
:1020E300F0A3E4F09004E3E0F89004E2E028F07455
:1020F30002121841AC82AD83851882851983AA82A6
:10210300AB8379011209109004E3E4F0E509A2E03E
:1021130092AF740412180C021C5900000085218729
:102123008522C622C0E0C0D0E8C0E0E9C0E0EAC032
:10213300E0EBC0E0ECC0E0EDC0E0EEC0E0C008C002
:1021430009C00AC00BC082C083C0F0A2AFE433FE53
:10215300C2AF759B00906182E0A2E05012E591A2AC
:10216300E0500C7591FE740165217003121E25E089
:10217300A2E55051E591A2E5504B7591DF9003A282
:10218300E064076005E0640870237401652170351D
:1021930079019003D0E0FA75F003A4CAA8F028FBF4
:1021A30074D22AFA74033BFB121FD28018E0640D29
:1021B30070139003C4E004F064287002E4F07A0022
:1021C300E0F9120DB4906182E0A2E6400302226EB0
:1021D300E591A2E6400302226E7591BF9003A2E04F
:1021E30064057008120CDC120CE88003120CE27513
:1021F3002100120D42E99003A3F07900120D36126B
:102203000B147A017B009003A1E0F912100C907873
:1022130003E064427055900544E014F0704DC2AF82
:1022230012222600782AD0E0F618D0E0F6E59F5473
:102233000770057509FF800375097FC4C0E078291D
:10224300E6F50808E65509F509740B78081217D462
:10225300D0E02508F8906270E0A2E740F8E8C333C5
:10226300906272F0906270E0D2E0F0906181E0A23F
:10227300E35009E5E9A2E3500375E9F7A3E0A2E718
:102283005009E591A2E7500375917FEEA2E092AF6A
:10229300D0F0D083D082D00BD00AD009D008D0E0C0
:1022A300FED0E0FDD0E0FCD0E0FBD0E0FAD0E0F9D6
:1022B300D0E0F8D0D0D0E032C0E0C0D0C082C0833C
:1022C300906183E0A2E05009E5BFA2E0500375BF2F
:1022D300FEE0A2E15009E5BFA2E1500375BFFDE0B6
:1022E300A2E25009E5BFA2E2500375BFFBE0A2E3FF
:1022F3005009E5BFA2E3500375BFF7E0A2E450091C
:10230300E5BFA2E4500375BFEFE0A2E55009E5BFC6
:10231300A2E5500375BFDFE0A2E65009E5BFA2E6E0
:10232300500375BFBFD083D0828088C0E0C0D0E89F
:10233300C0E0E9C0E0EAC0E0EBC0E0ECC0E0EDC023
:10234300E0C0F0E5A7A2E6500FE5A1A2E6500953CD
:10235300A7BF75A1BF122393E5A7A2E5500CE5A182
:10236300A2E5500653A7DF75A1DFE5A7A2E1500957
:10237300E5A1A2E1500375A1FDE5A7A2E2500CE59A
:10238300A1A2E2500653A7FB75A1FBD0F00222A441
:1023930074F81218B97521019003A2E06406701550
:1023A300120C6A8A828B83A3A3A3A3A3A3E0FAA339
:1023B300E0FB120CCAA2AFE433FED2AF9003A8E055
:1023C300640170187A207B009003A1E0F912109643
:1023D3007A207B009003A1E0F9121012906182E051
:1023E300D2E6F0900541E0602185C6228016900375
:1023F300A7E064017008E5C654F84405F5C653BE6A
:10240300FC1221207401652160E4EEA2E092AF7F0B
:1024130001021965008E238F2485822885832785F1
:102423001882851983E0CEA3E0CF85288285278390
:10243300EBC9EAC8EDCBECCA75F010C3E833C8E9C1
:1024430033C9EA33CAEB33CBC3EA9EF526EB9FF5D8
:1024530025B35004AB25AA26EC33CCED33CDD5F010
:10246300DAAE23AF242274E91218B974F81217F6FE
:10247300851882851983ECF0A3EDF08A088B099007
:1024830003A2E024F7C39405500675080102260051
:10249300120C6A8A0A8B0BAE0AAF0BEE4F70030263
:1024A30025FDAC08AD097402121841AA82AB831250
:1024B3000CFA8E828F83A3A3750CFF750DFF750E27
:1024C300FF750F00780C1216A074021218417510D4
:1024D300FF7511FF7512FF75130078101216A0789F
:1024E3000C79101214C5502A780C791012166575E0
:1024F30008017509C8750A00750B007808790C1274
:1025030014C55052850C08850D09850E0A850F0BDD
:1025130080507514017515C8751600751700851060
:102523000885110985120A85130B7808790C121690
:1025330065781479081214C5401C750800750900E4
:10254300750A00750B0178087910121665780879F9
:102553000C12162C800C750801750900750A00759C
:102563000B007409780812160D750C19F50DF50E8C
:10257300F50F7808790C1215848E828F83A3A3A399
:10258300A3A3A3E0F8A3E0F97AD07B0312176B8827
:102593000C890DE4F50EF50F7808790C12162C74DE
:1025A30006121841E0F8A3E0F97AD07B0312176B07
:1025B300E8FA8A0CE4F50D7808790C1214C5500773
:1025C3007808790C1216659003A2E06408600AE0AB
:1025D30064066005E06405702D750C0D780C7908B0
:1025E3001214C54021750CF4750DFF750EFF750FA0
:1025F300FF7808790C12162C800C750800750900F9
:10260300750A00750B00851882851983E0F8A3E02D
:10261300F583888278081216D5740812180C7F1077
:1026230002196574F71218B9120D0C90053FE06496
:10263300017010906245E4F0A3F053F4F343FE0CF1
:102643005390F3120CB8E5C654804449F5C6E59E91
:10265300547F644970F8906185740FF090053DE0F4
:10266300F47002A3E0604E90053EE0600814601B26
:1026730014602E804075080175090090053DE078CF
:10268300081217E3E508F45280802A7508017509DA
:102693000090053DE078081217E3E508F4529080B6
:1026A3001475080175090090053DE078081217E3D9
:1026B300E508F452A079007F0202196574F7121835
:1026C300B9E9FEEAFF74016E700C7A807B00900317
:1026D300A1E0F912100C902B9CE493F46008E493AE
:1026E300F9120B08800953C680E59E547F70FA12D5
:1026F3000CBE90053FE064017003120B2090053D72
:10270300E0F47002A3E0604B90053EE060081460C3
:102713001A14602C803D75080175090090053DE091
:1027230078081217E3E508428080287508017509C7
:102733000090053DE078081217E3E5084290801306
:1027430075080175090090053DE078081217E3E567
:102753000842A0120D0C120C6A8A088B09A808A95A
:1027630009E8496015E5E170FCE82414F582E934D1
:1027730000F583E0F46003E0F5E174016F700A7A19
:10278300019003A1E0F91210600226BA74ED121849
:10279300B98A088B098C0A8D0B7413121841780CB3
:1027A3001216C67808790C1214C57510017511C874
:1027B30075120075130050127808790C121665789B
:1027C3001079081214C550168010780C7908121667
:1027D300657810790C1214C54004790180027900E0
:1027E3007F0C02196574ED1218B98A088B098C0ADB
:1027F3008D0B7413121841780C1216C6780C7908D5
:102803001214C540117808790C121665AA08AB0991
:10281300AC0AAD0B8022751000751100751200759E
:1028230013017810790C1216657810790812162C9A
:10283300AA10AB11AC12AD1380A68A828B837508E4
:10284300FF7509FF750AFF750B0078081216B37F31
:102853000402196574F51218B98C828D83780812F5
:1028630016C68A828B837808121679EA2404F8EB59
:102873003400F98C828D83A3A3A3A3E0FCA3E0FD22
:1028830088828983C3E09CF0A3E09DF088828983DA
:10289300C3E09420A3E0944E40268A828B8375087C
:1028A300FF7509FF750AFF750BFF78081216528A28
:1028B300828B83A3A3A3A3E02420F0A3E0344EF0F0
:1028C30002283D74F51218B9E9FE9004F7E0FAA363
:1028D300E0FBEEC333F8E433F9745128F5827483D3
:1028E30039F583E02AF508A3E03BF5097808121AC5
:1028F300607A407B427C0F7D001224187402121808
:102903000C8A088B098C0A8D0B741078081215F445
:10291300AA08AB097F0402196574F11218B98A0C6D
:102923008B0D8C0E8D0F740F121841E0FAA3E0FB90
:102933007411121841E0F508A3E0F5097808121A9A
:1029430060EA2401F508EB3400F509E4F50AF50B18
:10295300780C7908121504750871750902780C79D9
:1029630008121504AA0CAB0DAC0EAD0F122418748B
:102973000212180C8B09EA450960047A0180027A75
:1029830000EC2AFCED3400FD7413121841E0F8A3A7
:10299300E0F9E8FEE9FFECF8EDF97A717B02121732
:1029A3006B880889098E828F8378081216D5ECF814
:1029B300EDF97A717B0212176B8A088B097405781B
:1029C300081217E38E828F83A3A3A3A3E508F0A3C2
:1029D300E509F07F08021965C082C083E9906000B1
:1029E300F0D083D08222C2AF02000022C0E074EB99
:1029F3001219A574F91217F6538AFE9084CE78083B
:102A03001216C69009637808121652900963780863
:102A13001216C69084D6780C1216C67808790C1252
:102A23001584E50C450D450E450F7026908476C040
:102A330082851882851983AC82AD83758384D082A5
:102A43007407121709851882851983AA82AB83122A
:102A5300123AC2EB740712180C7F08021A04C0E082
:102A630074F21219A5A2AFE433FED2AFC2C0E5D10E
:102A7300A2E4500653D1EF121378751A00EEA2E0C8
:102A830092AF7F01021A04C0E074F21219A5A2AF3B
:102A9300E433FED2AFE589A2E150031212947589A3
:102AA30000C2C5751A00EEA2E092AF7F01021A04BC
:102AB300C0E074F21219A5A2AFE433FED2AFE58BE6
:102AC300A2E05003121294758B00C2E880D5C0E0D7
:102AD300C0D0E8C0E0E9C0E0E5A8D2AFC2C7751A2C
:102AE30000A2E7A2E792AFD0E0F9D0E0F8D0D0D0CF
:102AF300E032C0E074F21219A5A2AFE433FED2AF04
:102B0300758900C2C5900AAE7401F0751A00FA9077
:102B13000A7BE0F9121060900C32E0F8A3E06870D1
:102B230002D285EEA2E092AF7F01021A04C0E0C098
:102B3300D0E8C0E0E9C0E0C008C009C082C083A2F9
:102B4300AFE433F9D2AF900C32E0F8A3E068700839
:102B5300539AFBA374018026C2E9900C32E0F50876
:102B630074012508F074B22508F582740B3400F55E
:102B730083E0F5C1900C32E0C394804002E4F0E9B5
:102B8300A2E092AFD083D082D009D008D0E0F9D0B0
:072B9300E0F8D0D0D0E032E1
:102B9C00FFFFFFFFFFFFFFFFC082C083E9900F190B
:102BAC00F0022E3374F712184DE99002E1F07C1903
:102BBC007D037AFF7BFF12085C9002E274FFF0A3A6
:102BCC00F0A3E4F0A3F079051207E49002E1E0F938
:102BDC001207067A7A7B08120A1E7F0102191F74EB
:102BEC00F412184D8A088B09EB548060309002E186
:102BFC00E0F9120FF48A0A8B0BAE0AAF0BEE4F60A2
:102C0C00138E828F83E064B070031207FCEEFAEF30
:102C1C00FB120FE2AA08E5096480FB80047A007BB2
:102C2C0000022E0274F212184D74FC1217F6EAFE12
:102C3C00EBFFEE4F60387402121841EEF0A3EF1266
:102C4C003067ECF0A3ED123067AA82AB8312070059
:102C5C00E9F50870737412121841123C1BE50A4511
:102C6C000B60658E828F83122CDEEE4F700575081B
:102C7C000280557A067B001210488A0C8B0DA80C2A
:102C8C00A90DE8497005750813803D88828983E495
:102C9C00122CE8A3A3EEF0A3EF1240B4E50AF0A3C4
:102CAC00E50BF09002E7122D709002E76017E0FC44
:102CBC00A3E08003EAFCEBFD8C828D83122D7070F7
:102CCC00F38C828D83123B40A908740412180C02F9
:102CDC0042B6A3A3A3A3E0FEA3E0FF22F0A3F088D7
:102CEC008289832274F212184D890AE975F017A4AF
:102CFC00FEAFF09002E6E4F09002E4122D70600A50
:102D0C0012104E9002E4E4F0A3F0EEFAEFFB121076
:102D1C00488A088B09EA4509602FEEFCEFFD790023
:102D2C00120FCA9002E4E508F0A3E509F07B0080DD
:102D3C0008122D5AE4F0A3F00BEBC3950A40F2E510
:102D4C000A9002E6F07900800279130242B6EB7524
:102D5C00F017A4F8A9F09002E4E028FAA3E0398A6D
:102D6C0082F583221238D6EA4B2274F412184D7570
:102D7C000800750900740C121841124088FEE9FF16
:102D8C00800CE5082401F508E5093400F509C3E5D4
:102D9C00089CE5099D503285080A85090B74037857
:102DAC000A1217E3EA250AF8EB350BF988828983B6
:102DBC00A3A3A3A3A3A3123C1BEE650A7003EF65A8
:102DCC000B70BFE8FAE9FB80047A007B0080277463
:102DDC00F412184D7900EAA2E0501B75088F7509A2
:102DEC00847808121A607C047D007A1B7B0F120712
:102DFC00DE740212180C7F0402191FC082C083906B
:102E0C0002E7122E3A601C88828983A3A3E06A70C1
:102E1C0003A3E06B8882898370E8A3A3A3A3123871
:102E2C00D280047A007B00D083D082020135124319
:102E3C0089E8492274EE12184D74FC1217F6EAFE5A
:102E4C00EBFF851882851983E4F0A3F0EE240212BF
:102E5C003B24EE2405123055EE2404F50EEF12340B
:102E6C003AE024FE603924FC604624FE605224FEC5
:102E7C00605E24FE7003022F5A24FE7003022FD2D0
:102E8C0024FE7003022FE124FE7003022FF024FCB9
:102E9C007003022FFF24FE700302300E02304B90A1
:102EAC0003007417F0A3E412306F12047E02304B4F
:102EBC00851882851983AC82AD8312080202301BFF
:102ECC00851882851983AC82AD8312080802301BE9
:102EDC00850C08850D097402121841AC82AD8385EE
:102EEC0008828509831238D21207248A0C8B0DAC08
:102EFC000CAD0DEC4D6042E4F50CF50D780C121A8E
:102F0C0060750C00750D03780C121A60750C017548
:102F1C000D03780C121A607408121841121A777982
:102F2C00161238CC120844740812180CE9F50C70FF
:102F3C000B1238C8120496800F750C018508828517
:102F4C00098312305D123B40850C0802301E74025E
:102F5C00121841AC82AD83850C82850D831238D258
:102F6C001207248A108B11AC10AD11EC4D60438507
:102F7C000C82850D83A3A3121A77751000751103AB
:102F8C007810121A607510017511037810121A60FE
:102F9C007408121841121A7779161238CC12084498
:102FAC00740812180CE9F509700B1238C812049C3D
:102FBC00800F750901850C82850D8312305D123BE3
:102FCC0040850908804C851882851983AC82AD83B5
:102FDC0012080E803A851882851983AC82AD831253
:102FEC000814802B851882851983AC82AD83120856
:102FFC001A801C851882851983AC82AD8312082037
:10300C00800D851882851983AC82AD83120826E960
:10301C00F508E50860298E828F83A3E06414601F95
:10302C00850E82850F83E090030012306712438572
:10303C00900301123B40E508A312306F120478EEA6
:10304C00FAEFFB1207A2023A2CF50CEF3400F50D47
:10305C002212438985188285198322F0851882856E
:10306C00198322F07C007D03850A82850B8312383C
:10307C00D62274EE12184D74FC1217F68A0A8B0BBA
:10308C008C0E8D0FEA2405F508EB3400F5097C1540
:10309C007D0079007A007B03120FCAE5082402F543
:1030AC000CE50912305885188285198385821085A4
:1030BC0083117810121A60850882850983A3A3A353
:1030CC00A3123582121A60E5082405F510E50934BF
:1030DC0000F5117810121A60850C82850D83123858
:1030EC00DC12071E740612180C8A108B11AE10AF6E
:1030FC0011E50A2402F50AE50B123B27EE4F70038B
:10310C00023244801774021218411238D288828914
:10311C0083EAF0A3EBF0900300E004F0900300E0EE
:10312C00C394054003023244E4F510F511781012F3
:10313C001A607510E97511027810121A607510EA90
:10314C007511027810121A607406121841121A774F
:10315C007910EEFCEFFD1238CC12084474081218EA
:10316C000CE9705E850882850983A3A3A3A3A3A39E
:10317C00A3E0F89002E9E0687048123582121A60F8
:10318C007CEA7D02E5082408FAE5093400FB120FFD
:10319C00C4740212180CE960298E828F83A3A3A336
:1031AC00A31238D2900300E0F510740278101217B5
:1031BC00E374012510F58274033511F583EAF0A34D
:1031CC00EBF074021218418582108583117810126D
:1031DC001A607402121841121A77850C82850D83BD
:1031EC0012439A12072A740412180C8A108B11AE0F
:1031FC0010AF11900300E0F51075110074027810F7
:10320C001217E374002510F874033511F9888289BC
:10321C0083A3122D707003023108E82403F8E934FB
:10322C0000F9EE4F60030231118882898374FFF03C
:10323C00A3F0900300E004F0900300E0600A123861
:10324C00C812048A7900800B850882850983123B99
:10325C0037790A023A2C74EA12184D74FE1217F6DA
:10326C008C128D13EA2405F50CEB124504122CE29A
:10327C00750800750900EA2402F510EB3400F5110D
:10328C0085188285198385820A85830B780A121A20
:10329C0060850C82850D83A3A3A3A3123444121A58
:1032AC0060E50C2405F50AE50D123B27780A121A85
:1032BC0060850C82850D8312439812071E740612CA
:1032CC00180C8A0A8B0BEA450B70030233F5EA24BF
:1032DC0004F50EEB12343A122CE28A828B83A3A3F0
:1032EC00A3E0F98510828511831238D212070CE9FC
:1032FC00F50960030233F5E4F514F5157814121A88
:10330C00607514E97515027814121A607514EA7553
:10331C0015027814121A607406121841121A777971
:10332C0013AC0AAD0B8510828511831238D21208AA
:10333C0044740812180CE9F50960030233F5900285
:10334C00E9E0F8E5087009E02402900301F0801729
:10335C00900301E0FCE82402FAE43400FBEA6C7010
:10336C0001EB60030233F9850882AA821235799445
:10337C00141235715073850E82850F83E0C0E07492
:10338C00022A123431D0E0F00508850E82850F83B5
:10339C00A3E0C0E085080A7402250A123431D0E09B
:1033AC00F005089002E9123444121A607CEA7D029E
:1033BC0085080A7402250AFA74033400FB120FB252
:1033CC00740212180C9002E9E02508F50874FF6EDF
:1033DC00700374FF6F6012EE24010EEF3400FFE5F2
:1033EC0008C39414500302328CE50860131237BDE5
:1033FC008510828511831238D212049079008014C2
:10340C00E509700375090A851282851383EEF0A312
:10341C00EFF0A909740212180C7F0E02191F85080F
:10342C000C7402250CF58274033400F583223400ED
:10343C00F50F850E82F583221240C72274EE121806
:10344C004D74FE1217F68C0E8D0FEA2405F50CEB5D
:10345C00123058750B00900300E4F0F50AEA2402D0
:10346C00F508EB3400F5098049900300E0FA90026E
:10347C00E9E0F81235799417123571400D9003007C
:10348C00E0F87416C3989002E9F0123582121A60B3
:10349C007CEA7D0274012AFA74033400FB120FB229
:1034AC00740212180C9002E9E0F8900300E028F086
:1034BC00050AE50C2416F582E50D123435E0F8E525
:1034CC000AC398400302355A900300E0C394165087
:1034DC007DE50AC333F8E433F9E50C28FEE50D3934
:1034EC00FF851882851983AC82AD838E828F8312FF
:1034FC0038D21207248A108B11AC10AD11EC4D7020
:10350C0005750B018043E4F510F5117810121A6063
:10351C007510E97511027810121A607510EA7511A0
:10352C00027810121A607406121841121A77791662
:10353C008508828509831238D2120844740812183F
:10354C000CE9F50B7003023475123B3380107C00D0
:10355C007D038508828509831238D21204A2A90B37
:10356C007402023A2EE99400C365D03322EA28F89B
:10357C00E43400F9E822E0F510751100781022749B
:10358C00EA12184D74FC1217F68A0C8B0D8C128DE6
:10359C0013EA2405F50AEB123B27750800750900A0
:1035AC00E50A2402F510E50B3400F511740212182B
:1035BC004185820E85830F780E121A60850A8285EA
:1035CC000B83A3A3A3A3124073121A60E50A24056C
:1035DC00F50EE50B3400F50F780E121A608510828B
:1035EC00851183123B2D1238CC12071E740612184B
:1035FC000C8A0E8B0FAE0EAF0FE50C2402F50EE508
:10360C000D3400F50F80408882898374FFF0050823
:10361C0012342A74FFF005089002E9E0F50C750DE0
:10362C0000780C121A607CEA7D0285080C74022565
:10363C000CFA74033400FB120FB2740212180C90C3
:10364C0002E9E02508F508EE4F60718E828F83A3A6
:10365C00A3A3E0F9850E82850F831238D212070CD2
:10366C00E9F509EE2404123055E97044E4F514F53B
:10367C00157814121A607514E97515027814121A5B
:10368C00607514EA7515027814121A607408121811
:10369C0041121A777911EEFCEFFD850E82850F83AE
:1036AC001238D2120844740812180CE9F509602774
:1036BC00850C82850D831237B3123B40E5087003ED
:1036CC000237991237BD850E82850F831238D212BC
:1036DC0004A879000237AE850882AA82EA9002E932
:1036EC007009E02404900301F08022E0F8900301BB
:1036FC00E0F514E82404FCE43400FDEC65147001DE
:10370C00ED70C0123579941212357150B6850C8259
:10371C00850D83E0C0E074022A123431D0E0F0054C
:10372C0008850C82850D83A3E0C0E012342AD0E01A
:10373C001237CF85820C85830D780C121A607404B5
:10374C00121841121A7785108285118312439A122E
:10375C00072A740412180C8A0C8B0DAE0CAF0D8555
:10376C00080C7402250CF874033400F9EE4F700346
:10377C00023613851882851983E088828983123773
:10378C00CFA3E0C0E012342AD0E0023621E5097064
:10379C000375090A850A82850B831237B3123B40E5
:1037AC00A909740402342212438985128285138379
:1037BC0022900301E0F5F0E50884900300F07C0012
:1037CC007D0322F005088518828519832274EC127A
:1037DC00184D74FE1217F68A088B098C0E8D0FEAA1
:1037EC002405FEEB3400FF851882851983AC82AD6D
:1037FC00838E828F831238D21207248A0A8B0BEEA7
:10380C002418123055EA450B70030238A3123A15EE
:10381C0050328518828519831238D21208388A10D2
:10382C008B11EA4511606B7912AC0AAD0B850882DD
:10383C008509831238D285108285118312184BE9C1
:10384C00F50A7058E4F50AF50B780A121A608E82A4
:10385C008F83A3A3E0F50A780A121A60EE240312F0
:10386C003B24780A121A608E828F831238DC12087D
:10387C004A740612180CE9F50A7021850C82850D24
:10388C0083E0701F8508828509831238D21204AE3A
:10389C008011750A0E8009750A018004E50A60031F
:1038AC00123B33850C82850D83E060047900800225
:1038BC00A90A740212180C7F0C02191F7C007D03DC
:1038CC00850A82850B831238D622E0FAA3E0FB220C
:1038DC00E0FCA3E0FD8508828509831238D62274AA
:1038EC00EE12184D74FE1217F68A088B098C0C8D8B
:1038FC000DEA2405FEEB3400FF750E008518828559
:10390C001983AC82AD838E828F831238D212072436
:10391C008A0A8B0BEA450B7003023A01123A1550D6
:10392C00358518828519831238D21208388A0E8B85
:10393C000FEA450F605E7912AC0AAD0B85088285E3
:10394C0009831238D2850E82850F8312184BE9F544
:10395C000E6003023A04850882850983123C1BAA77
:10396C000AFB12082C8A108B11A810A911E84970B7
:10397C001E7AFF7BFF12082C8A108B11A810A9113C
:10398C00E849606C88828983E50AF0A3E50BF07541
:10399C000A008007750E0E805F050A9002E6E0FAB9
:1039AC00E50AC39A504AE50A75F017A4FAABF088F9
:1039BC00828983A3A3E02AFAA3E03BFB8A828B8350
:1039CC00123B2DEC4D70D2750A17750B00780A124C
:1039DC001A60EEFCEFFD120FB2740212180CEEFC22
:1039EC00EFFD8508828509831238D21204B4801445
:1039FC00750E098003750E01124381850C82850DAD
:103A0C0083123B40A90E02356CE5082402F508E54B
:103A1C00093400F5098A828B83A3A3A3E0A2E522D3
:103A2C00740412180C7F0A02191F74EC12184D8CB6
:103A3C00108D11EA2405F50CEB123058750F00EAC5
:103A4C002402F50AEB123B27850A82F5831238D241
:103A5C0012082C8A088B09EA45097003023B197578
:103A6C000E008071850C82850D83E06401704F8E91
:103A7C00828F83A3A3121A778E828F83A3A3A3A30F
:103A8C00E0F5127513007812121A60EE2405F51287
:103A9C00EF3400F5137812121A601238CC12084A5F
:103AAC00740612180CE9F50F6014850C82850D83D1
:103ABC00E4F0124381851082851183123B407C1700
:103ACC007D007900EEFAEFFB120FCA8E828F83E431
:103ADC00F0A3F0050E9002E6E0F8E50EC398501E38
:103AEC00E50E75F017A4F8A9F0850882850983A363
:103AFC00A312450E123B2DEC4D6003023A70850863
:103B0C008285098374FFF0A3F0E50F70061238CCA0
:103B1C001204BAA90F0238C3F50AEF3400F50B22D0
:103B2C00A3E0FCA3E0FD228E828F83124389850ED5
:103B3C0082850F83E8F0A3E9F022C082C083900253
:103B4C00E2E06A7003A3E06B70067AE27B02800409
:103B5C007A007B00022E33C082C08378008C828D69
:103B6C0083E06A7003A3E06B7010E875F003A4F8AF
:103B7C00A9F0EC28FAED39FB8015088C828D83A313
:103B8C00A3A3E06A7003A3E06B60DF7A007B000202
:103B9C002E3374F612184D1207F68A828B83E58247
:103BAC00458370067A007B008007A3A3A3A3123879
:103BBC00D202423274F212184DE9FE740E12184100
:103BCC00123C1B74101218411240938C828D83E0AE
:103BDC0064027036A312438FF50CA3E0F9A80C74A1
:103BEC00026870037429697021750C02750D0078D8
:103BFC000C121A607808121A60780A121A60EEF920
:103C0C0012086E740612180C800279010242B6E09A
:103C1C00F50AA3E0F50B2274E812184D74FB121789
:103C2C00F6E9851882851983F08A168B17ECFEED60
:103C3C00FF751000741D121841124385741D121863
:103C4C0041123B408E828F83A3A3A3E0A2E4502DAC
:103C5C00741D1218411238D21208388A828B83E5EF
:103C6C008245837003024064790AEEFCEFFDAA16CC
:103C7C00AB1712184BE9F5106003024067741F1262
:103C8C0018411240937421121841123C1B742312D8
:103C9C001841E0F50EA3E0F50F8E828F83E06402ED
:103CAC006003024012A3124385850882850983A311
:103CBC00858212858313EE240612305588828983FF
:103CCC00E0FAA3E0F9EA2400F514E439F5157814C8
:103CDC00121AEA010000280128073D07000228CC2F
:103CEC003D0328393D0029033F01292E3F0229CFEE
:103CFC003E0329033F0429AD3F1240E50E450F60FA
:103D0C000302400D850C82850D83124088FAE9FB75
:103D1C008A828B83E0850A82850B831240BE121A3D
:103D2C00608A828B83A3E0FCA3E0023F97E50E45FB
:103D3C000F600302400D850A82850B837401F0121B
:103D4C00409B850882850983F07C007D008E828FE4
:103D5C0083A3A3A3A3E02401FAA3E03400FB12077E
:103D6C0024EA4B60418A828B83E02402F8850A8224
:103D7C00850B83E028F0EA2404F8EB3400F9888200
:103D8C008983E08512828513831240D01240BE12C3
:103D9C001A608A828B83123B2CE5082403FAE5090E
:103DAC003400FB023F9C850A82850B83E02404F0DF
:103DBC007C047D007900AA12AB13120FCA02406773
:103DCC00E50E450F600302400D12409BFEA3E0FF81
:103DDC00850A82850B837404F0EE8508828509833D
:103DEC00F0EF851282851383F07403121841AC82B4
:103DFC00AD83EEFAEFFB1207248A0C8B0DEA450D0E
:103E0C007003023EB08A828B83A3A3122CDE740152
:103E1C0012184185820E85830F780E121A60740574
:103E2C00121841121A777CFF7DFF12072A740412B4
:103E3C00180C8B0FEA450F7033850C82850D83129D
:103E4C004073121A60850C82850D83A3121A777C3D
:103E5C00027D007A1B7B85120556740412180CE93E
:103E6C00700A740112184174FFF0A3F08E828F83D4
:103E7C00E064027039750C02750D00780C121A6032
:103E8C008E828F83123B2CE5082404FAE50934005A
:103E9C00FB120FB2740212180C850A82850B83E098
:103EAC00240280097401121841EEF0A3EFF07401A2
:103EBC00121841124084F07401121841A312407C74
:103ECC00024007E50E450F600302400D850C82850C
:103EDC000D83123B2DAA16AB17120862850A828538
:103EEC000B837402F0EA850882850983F0851282BF
:103EFC00851383EB02400AE50E450F600302400D6B
:103F0C0012409BF8A3E0F9850A82850B837402F0BA
:103F1C00E8850882850983F0E9851282851383027E
:103F2C00400A850C82850D831238D2120FACEAFC44
:103F3C008C82A882C3950EE4950F405FE8650E70E5
:103F4C0002E50F70047C008022851882851983E0BD
:103F5C00FAE50E2AFAE50F3400FBC3EA98EB94005D
:103F6C005003E08005E50ECCC39CFCEC850A8285F1
:103F7C000B83F08C0A750B00780A121A60850C8280
:103F8C00850D83E0250EFCA3E0350FFDAA08AB09D7
:103F9C00120FB2740212180C02406775100702401F
:103FAC0067E50E450F705A850C82850D831243858B
:103FBC00850A82850B837407122CEA12407C122C22
:103FCC00EAA3E0851282851383F0E82402FAE9342F
:103FDC0000FB8A828B8312407C1240AB124084A37C
:103FEC001240B412408DF0E82405F8E93400F98849
:103FFC0082898312408DA31240D0A3A3A3A3F08087
:10400C005A75100B8055741D1218411238D21207B4
:10401C00F68A828B83E5824583603D124385880C4A
:10402C00890DE8450D6031780E121A60780A121A63
:10403C00607808121A607406121841E0F9EEFCEF71
:10404C00FDAA16AB17850C82850D8312184B7406CE
:10405C0012180CE9F510800375100EA910740512D6
:10406C00180C7F1002191FE0F50E750F00780E2248
:10407C00E0850882850983221240DA22124389E8FE
:10408C00221240DAA3A322E0F508A3E0F509228569
:10409C000C82850D83E0F8A3E0F5838882E022A3EF
:1040AC00A3F08A828B83A322F088828983A3A3A3A3
:1040BC00A322F08A828B831240C722E0F50A750B8B
:1040CC0000780A22F088828983A31240DA22E085E4
:1040DC000882850983A3A32274EE12184D74FE1274
:1040EC0017F68A0A8B0BECFAEDFB7414121841E0EC
:1040FC00F510A3E0F5117416121841E0FE741812B5
:10410C001841E0F50EA3E0F50F851882851983ACF4
:10411C0082AD831207248A0C8B0DEA450D6049850C
:10412C0018828519831238D21207F68A828B83E59E
:10413C00824583602FA3A3124093E50845096024B0
:10414C00780E121A607810121A60EEF9AC0CAD0DE4
:10415C00AA0AAB0B85088285098312184B740412CA
:10416C00180C8006790E8002790102356C74F612F7
:10417C00184D74FE1217F6740C12184112408885F3
:10418C001882851983F07401121841E9F0E4F508DE
:10419C00F5097808121A607508027808121A60740A
:1041AC00041218418582088583097808121A601256
:1041BC00084A740612180C740212180C806874F7F2
:1041CC0012184DEAFEEBFF89087C197D0312086278
:1041DC00EA5402600BA908EEFAEFFB1207188002F2
:1041EC007901022BE674F612184D74FF6A70037491
:1041FC00FF6B70168C828D83124237E4F08C828DAB
:10420C0083A3A3A3124237A380181208328A088B07
:10421C0009A808A909E849600D8882898374FF12EE
:10422C002CE8A3A3E4F07F0202191F74FFF0A3F0A3
:10423C008C828D83A3A32274F612184D1208328A35
:10424C00828B83E58245836006A3A3E0FA80027A21
:10425C00007B0080D174F212184D8A088B09ECFE99
:10426C00EDFF740E121841E0F50A1208328A0C8B1D
:10427C000DA80CA90DE8497026EEFCEFFD7AFF7B2A
:10428C00FF1208328A0C8B0DA80CA90DE84970049A
:10429C007911801688828983E508F0A3E509F088F6
:1042AC00828983A3A3E50AF079007F0602191F74A3
:1042BC00EE12184DEAFEEBFF8C088D09890C741474
:1042CC0012184112438574161218411238D2750D0A
:1042DC0000E84960030243797402650C60030243F1
:1042EC0074741212184112438FFCA3E0F9EC2400F1
:1042FC00F50EE439F50FEAF4F8EBF4F9EC58F8E5BF
:10430C000F59F9E849705CE5082406F8ED3400F91A
:10431C00880A890B8882F58312439A1208628A10E4
:10432C008B11E50E65107004E50F65116042780E77
:10433C00121A60850A82850B8312439A12086874DC
:10434C000212180CE9F50D7027780E121A60850808
:10435C0082850983A3A31243981208807402121851
:10436C000C800D750D808008750D0D8003750D0B7F
:10437C00A90D023A318E828F8312438922E0F8A371
:10438C00E0F92212438988828983E022A3A3E0FC0E
:10439C00A3E0FDEEFAEFFB2274E812184D74E7125D
:1043AC0017F6851882851983EAF0A3EBF08C168D2D
:1043BC0017890E7508007509007431121841E0F563
:1043CC0012A3E0F5137433121841E0F514A3E0F5D1
:1043DC00157435121841E0F50FE50975F003A4F8D2
:1043EC00A9F085188285198312450EE0F47003A399
:1043FC00E0F470030244F1EE2402F50CEF124504D4
:10440C00E070030244F185160A85170B780A121A1C
:10441C0060AC14AD15AA12AB131207EA7402121891
:10442C000C8A0A8B0BEA450B70030244F1E4F5107D
:10443C00F5117810121A60740612184185821085D5
:10444C0083117810121A6074091218418582108534
:10445C0083117810121A60851282851383A3A3A38B
:10446C00A3121A777914AC0AAD0B8E828F83123893
:10447C00D2120844740812180CE97069850A8285F6
:10448C000B83A3A3A3A31243857402121841123BFE
:10449C0040850C82850D83E0A2E05018A90E7402B1
:1044AC00121841AC82AD838E828F831238D21207E0
:1044BC003CE94208850C82850D83E0A2E15026E59B
:1044CC000FF50A780A121A64A90E7403121841AC7B
:1044DC0082AD838E828F831238D21207367401120A
:1044EC00180CE942080509E509C39402500302437C
:1044FC00E5A908741902406B3400F50D850C82F5A2
:10450C008322E028FEA3E039FF8E828F832274F28F
:10451C0012184DEAFEEBFF890B7401650B600E74EB
:10452C0002650B706A7901120A3CE97062EEFAEFCF
:10453C00FB12082C8A088B09EA45096047750A00AA
:10454C00800B7C177D007900120FCA050A9002E6D9
:10455C00E0F8E50AC3985021E50A75F017A4F8A90C
:10456C00F0850882850983A3A3E028FAA3E039FB30
:10457C008A828B83122E3A70C985088285098374CE
:10458C00FFF0A3F07C197D03EEFAEFFB12085C023E
:10459C0042B674F212184D8A088B09ECFEEDFF74CA
:1045AC000E121841123C1B900F19E0F4603D7A0971
:1045BC007B00120FDCEA4B60328A828B8374B1F081
:1045CC00A3E41240ADA31240ABA3E508F0A3E509A8
:1045DC001245FAEEF0A3EF1245FAA3A3E50AF0A3F5
:1045EC00E50BF0900F19E0F9120FE80242B6F08AD1
:1045FC00828B83A3A3A3A3A322C082C083906190C8
:10460C007404F0A37448F0A37402F09061807440B9
:10461C00F09061BC7403F09061877419F09062653E
:10462C00741BF0906249E0C3941390619C400A742F
:10463C0009F090606674018007740DF0906066E478
:10464C00F090619A7433F0A37455F09061A0743AB1
:10465C00F090053FE064017009C2919003A6746765
:10466C0080059003A67461F0902BA2E49390618670
:10467C00F0902B9CE493F46027E493540FF8906132
:10468C0085E0686012E5C654804449F5C6E59E5441
:10469C007F644970F8E8F053C680E59E547F70FA49
:1046AC007905120D96024860C082C083E9540FF957
:1046BC00906185E0696012E5C654804449F5C6E511
:1046CC009E547F644970F8E9F053C680E59E547F90
:1046DC0070FA024860C082C083E5A8F853A87E90A7
:1046EC006181E4F0A3F0A3F0C2BA539AFEC28975BB
:1046FC009B00C2C275E90075910075BF0075A911C8
:10470C0075B905906181F0A374C0F0A3E4F0D2BA3E
:10471C00439A0174805842A8024860C082C08374D6
:10472C00F81217F69003A4E0F8A3E0F9E849700337
:10473C000248559003A4E054406023790885188200
:10474C00851983AA82AB83120BF88518828519838D
:10475C00AA82AB831208EC9003A4E054BFF0E0549F
:10476C00806010790C7A657B05120BF89003A4E03D
:10477C00547FF0E0A2E0503190619A7433F0A3744E
:10478C0055F09061A0743AF090053FE06401700917
:10479C00C2919003A6746780059003A67461F01211
:1047AC0008F29003A4E054FEF0E0540260319061F2
:1047BC009A743FF0A3745AF09061A0747FF0900546
:1047CC003FE064017009D2919003A674718005904A
:1047DC0003A6746AF01208F29003A4E054FDF0E012
:1047EC0054046013902BA0E493906186F01208F8A7
:1047FC009003A4E054FBF0E054086013902BA1E468
:10480C0093906186F01208F89003A4E054F7F0E05E
:10481C0054106013902BA2E493906186F01208F868
:10482C009003A4E054EFF0E05420600A1208F890D2
:10483C0003A4E054DFF0A3E05401600D120B20122E
:10484C0008FE9003A5E054FEF0740812180C024800
:10485C0060F0A3F0D083D08202013574EC12184DB5
:10486C0074F41217F6851882851983AC82AD8375A2
:10487C0083847582BA7404121709902BA093F46088
:10488C00030249F3907808E0C3940250030249D321
:10489C007404121841AC82AD83758384758265747F
:1048AC00081217098518828519838582128583134E
:1048BC007404121841AC82AD83750EFF750FFF7F27
:1048CC00FF7E00750C48750D78801574086E7003AA
:1048DC0002496774096E7003024967740A6E607B43
:1048EC00850C82850D8378081216C68C828D83A95F
:1048FC0009E50AC9F88810741878081215F4E5103F
:10490C004508F8C3E098A3E099850C82850D83785F
:10491C00081216C640188C828D83741878081215EC
:10492C00F4E5104508F8E0C398F8A3E0801C74186F
:10493C0078081215F4E5104508FAE9FB8C828D8392
:10494C00E0F8A3E0F9EAC398F8EB99F9C3E8950EFF
:10495C00E9950F5006880E890FEEFF0EE50C240426
:10496C00F50CE50D3400F50DEEC39413500302481D
:10497C00D774FF650E700474FF650F60238F087485
:10498C000278081217E374482508F5827478350903
:10499C00F58378081216C6851282851383E508F014
:1049AC00EC2402FCED3400FD851282851383A38573
:1049BC008212858313740C121841E5826C7003E526
:1049CC00836D60030248C5750801750900780812EB
:1049DC001A607402121841AC82AD837AE87B0A1219
:1049EC001252740212180C740C12180C7F0C02194F
:1049FC001FC082C0839061AE7468F0A3746AF0909B
:104A0C00624574FBF0A304F053F4FD43FE029005E1
:104A1C003F7401F09061A0E0643A90619A70237445
:104A2C0033F0A37455F09061A0743AF074016401F2
:104A3C007009C2919003A6746780289003A67461D4
:104A4C008021743FF0A3745AF09061A0747FF074CD
:104A5C000164017009D2919003A6747180059003D2
:104A6C00A6746A02485F7F0802191FC082C0839037
:104A7C0004F1E06401700A9004F6E06004790C80A3
:104A8C00027900024860C082C08375E1F19004F4A1
:104A9C00E0605B14600914605F14605714705E1260
:104AAC000B329004EAE0F97AEB7B04120D187AD6FB
:104ABC007BBE7C897D8E120D4E7A557B557C557D47
:104ACC0000120D249004F5E0F9120D307901120D4D
:104ADC008A9004E8E0F8A3E0C82416F582E83400D4
:104AEC00F583744AF0A3740BF07900024860120B42
:104AFC003880AF120B3E80AA120B4480A57912802D
:104B0C00EA74F012184D75D90D9004D5E0A2E0E4CA
:104B1C00331313F89004EAE0C4333354C04844010F
:104B2C00F5D978E8790488828983A3A3A3E0F5D921
:104B3C0088828983A3A882A983E864EE7003E96460
:104B4C000470E378D5790488828983A3E0F5D98849
:104B5C00828983A3A882A983E864DB7003E96404D7
:104B6C0070E575E1959004D5E0F97AD67B04120DC9
:104B7C001E900F3B74DEF0A3740AF0A37440F0A3F4
:104B8C00740CF0A37440F0A3740CF0A37440F0A365
:104B9C00740CF0A374E4F0A3740AF0A37440F0A3B3
:104BAC00740CF0A374FCF0A3740AF0900F497440D9
:104BBC00F0A3740CF0A37440F0A3740CF0A3744035
:104BCC00F0A3740CF0A37440F0A3740CF0A3744025
:104BDC00F0A3740CF0A37440F0A3740CF09004F4E4
:104BEC00E064019004E87012E0F8A3E0F583888299
:104BFC00A3A37508007509088010E0F8A3E0F583FD
:104C0C008882A3A3750804750900750A00750B004A
:104C1C00780812163F750CFF750DFF750EFF750F9A
:104C2C00007808790C12168D9004E8E0F8A3E0C81F
:104C3C00240EF582E83400F58378081216D590041A
:104C4C00E8E0F8A3E0C82414F582E83400F5837496
:104C5C0013F09003A27402F0024A7274F712184D0A
:104C6C009004FAE02407F5D99004EAE0C4333354F5
:104C7C00C0F5D978E8790488828983A3A3A3E0F5E9
:104C8C00D988828983A3A882A983E864EE7003E99A
:104C9C00640470E39004FAE0601F78E87904FAE8A1
:104CAC002413F582E93400F583E0F5D988828983F1
:104CBC00A3A882A9831AEA70E690051AE02407F5E6
:104CCC00D99004EAE0C4333354C04404F5D978E8ED
:104CDC00790488828983A3A3A3E0F5D98882898388
:104CEC00A3A882A983E864EE7003E9640470E390DE
:104CFC00051AE0601F78E87904FAE82433F582E9B4
:104D0C003400F583E0F5D988828983A3A882A9832E
:104D1C001AEA70E675E195900F3B74EAF0A3740AF9
:104D2C00F0A37440F0A3740CF0A37440F0A3740CC3
:104D3C00F0A37440F0A3740CF0A374E4F0A3740A11
:104D4C00F0A37440F0A3740CF0A374FCF0A3740AE9
:104D5C00F0900F497440F0A3740CF0A37440F0A3CE
:104D6C00740CF0A37440F0A3740CF0A37440F0A383
:104D7C00740CF0A37440F0A3740CF0A37440F0A373
:104D8C00740CF09004E8E0F8A3E0C8240EF582E877
:104D9C003400F58374FFF0A3F0A3F0A3F09004E8C3
:104DAC00E0F8A3E0C82414F582E83400F58374120B
:104DBC00F09003A27401F0FF02191F74F712184D42
:104DCC009004FAE02407F5D99004EAE0C433335494
:104DDC00C04402F5D978E8790488828983A3A3A317
:104DEC00E0F5D988828983A3A882A983E864EE7050
:104DFC0003E9640470E39004FAE0601F78E8790436
:104E0C00FAE82413F582E93400F583E0F5D98882B9
:104E1C008983A3A882A9831AEA70E675E195900F9D
:104E2C003B74F6F0A3740AF0A374F6F0A3740AF0C2
:104E3C00A374F6F0A3740AF0A374F6F0A3740AF04A
:104E4C00A374F6F0A3740AF0A374F6F0A3740AF03A
:104E5C00A374FCF0A3740AF0900F497440F0A3748F
:104E6C000CF0A37440F0A3740CF0A37440F0A37482
:104E7C000CF0A37440F0A3740CF0A37440F0A37472
:104E8C000CF0A37440F0A3740CF09004E8E0F8A3C9
:104E9C00E0C8240EF582E83400F58374FFF0A3F02B
:104EAC00A3F0A3F09004E8E0F8A3E0C82414F58282
:104EBC00E83400F5837414F09003A27404F00251EA
:104ECC008E74F712184D9004FAE02407F5D990046B
:104EDC00EAE0C4333354C04406F5D978E879048841
:104EEC00828983A3A3A3E0F5D988828983A3A882AE
:104EFC00A983E864EE7003E9640470E39004FAE0BB
:104F0C00601F78E87904FAE82413F582E93400F597
:104F1C0083E0F5D988828983A3A882A9831AEA70D1
:104F2C00E690051AE02407F5D99004EAE0C433337F
:104F3C0054C04404F5D978E8790488828983A3A302
:104F4C00A3E0F5D988828983A3A882A983E864EEBB
:104F5C007003E9640470E390051AE0601F78E87947
:104F6C0004FAE82433F582E93400F583E0F5D988B6
:104F7C00828983A3A882A9831AEA70E675E19590C9
:104F8C000F3B74F0F0A3740AF0A37440F0A3740CFC
:104F9C00F0A37440F0A3740CF0A37440F0A3740C51
:104FAC00F0A37440F0A3740CF0A37440F0A3740C41
:104FBC00F0A374FCF0A3740AF0900F497440F0A3B2
:104FCC00740CF0A37440F0A3740CF0A37440F0A321
:104FDC00740CF0A37440F0A3740CF0A37440F0A311
:104FEC00740CF0A37440F0A3740CF09004E8E0F897
:104FFC00A3E0C8240EF582E83400F58374FFF0A317
:10500C00F0A3F0A3F09004E8E0F8A3E0C82414F5B2
:10501C0082E83400F5837415F09003A27403F00257
:10502C00518EC082C0839004E8E0F8A3E0C8240647
:10503C00F582E83400F583E402485D74F712184DEC
:10504C009003D0E0F875F003A4C8AAF02AF974D242
:10505C0028F8740339F9E82405FAE93400FB8A824C
:10506C008B83E0FCA3E0FD88828983A3A3A3A3A385
:10507C00A3A3A3A3ECF0A3EDF088828983A3A3A33D
:10508C00A3A3A3A3E024FFF8A3E034FFF98A828B47
:10509C0083E8F0A3E9F002518E74F712184DEAFE82
:1050AC00EBFF9061D0E0600302518275D90E75D987
:1050BC000375D904EE248BF582EF3400F583E58279
:1050CC002408F8E5833400F9E0F5D9A3E86582708B
:1050DC0003E9658370F2EE2483F582EF3400F583E7
:1050EC00E5822404F8E5833400F9E0F5D9A3E865FA
:1050FC00827003E9658370F275E1957908EE248B73
:10510C00FAEF3400FB120BEC7904EE2483FAEF3443
:10511C0000FB120BEC7C00EEF8EFF9ECFAC3E49A0E
:10512C00FA95E0FBEE2AFAEF3BFBEA248AF582EBD8
:10513C003400F583E0C0E0E824AAF582E93400F5F8
:10514C0083D0E0F00C88828983A3A882A983ECC366
:10515C00940840C7EE246FF582EF3400F583E0F835
:10516C00A3E0F9EE2471F582EF3400F583E8F0A3A7
:10517C00E9F07901800279008008F0EEA2E092AFAC
:10518C0079007F0102191FC082C08375D90275D9BD
:10519C000375D90575E195EA246FF582EB3400F5BA
:1051AC0083E0F8A3E0F9EA2471F582EB3400F5838F
:1051BC00E8F0A3E9F0790102486074F612184DEAA0
:1051CC00FEEBFF9005457406F075084575090578EA
:1051DC0008121A607C017903120C34740212180C38
:1051EC0075D90675D903758245758305E0F5D9A384
:1051FC00E582644A7004E583640570F075E195906E
:10520C0003A2E06408701EEE246FF582EF3400F503
:10521C0083E0F8A3E0F9EE2471F582EF3400F58316
:10522C00E8F0A3E9F0790102549474F612184DEAEF
:10523C00FEEBFF9061D0E070667801900545740B31
:10524C00F09003A2E064077019750845750905789C
:10525C0008121A607C017903120C34740212180CB7
:10526C007805740128F5D975D903758245758305C0
:10527C00E8FAE0F5D9A31AEA70F875E195EE246F17
:10528C00F582EF3400F583E0F8A3E0F9EE2471F534
:10529C0082EF3400F583E8F0A3E9F079018002791C
:1052AC000002549474F712184DEAFEEBFF75D90303
:1052BC0075D90375D90DEE24DDF582EF3400F58335
:1052CC00E0F5D975E1957904120D54EE246FF58251
:1052DC00EF3400F583E0F8A3E0F9EE2471F582EFEA
:1052EC003400F583E8F0A3E9F0790102518E74F6ED
:1052FC0012184DEAFEEBFF9061D0E0F87480C39871
:10530C00FAEE2482F582EF3400F583E06004780431
:10531C0080027800E8240BF8EAC39850030253BFCC
:10532C007D09900545EDF0EE24E2F8EF3400F97AB2
:10533C00467B057C0888828983E08A828B83F0888F
:10534C00828983A3A882A9838A828B83A3AA82AB36
:10535C00831CEC70E0EE2482F582EF3400F583E0E0
:10536C00601D7508457509057808121A607C097965
:10537C0003EEFAEFFB120C34740212180C7D0D7450
:10538C00012DF5D975D9037582457583058D08E016
:10539C00F5D9A31508E50870F675E1957904120D99
:1053AC0054EE241DF582EF3400F583E4F0A3F0797C
:1053BC00018002790002549474F612184DEAFEEB47
:1053CC00FF9061D0E0F87480C398FAEE2482F582E5
:1053DC00EF3400F583E06004780480027800E82460
:1053EC0008F8EAC398500302549278069005457465
:1053FC000CF09003BFE0900546F09003C0E09005E0
:10540C0047F09003C1E0900548F09003C2E090058E
:10541C0049F09003C3E090054AF0EE2482F582EF48
:10542C003400F583E0601B75084575090578081292
:10543C001A607C067903EEFA120C34740212180C02
:10544C00780A740128F5D975D903758245758305D9
:10545C008808E0F5D9A31508E50870F675E195798B
:10546C0004120D54EE246FF582EF3400F583E0F84E
:10547C00A3E0F9EE2471F582EF3400F583E8F0A394
:10548C00E9F07901800279007F0202191F74F6128B
:10549C00184DEAFEEBFF9061D0E0F87480C398FAE7
:1054AC00EE2482F582EF3400F583E060047804800A
:1054BC00027800E82404F8EAC39850030255737884
:1054CC0002900545E8F0EE24F4F582EF3400F58304
:1054DC00E0900546F0EE2482F582EF3400F583E08F
:1054EC00601B7508457509057808121A607C0279ED
:1054FC0003EEFA120C34740212180C78067401289C
:10550C00F5D975D9037582457583058808E0F5D9F9
:10551C00A31508E50870F675E195EE2473F582EF96
:10552C003400F583E4F0EE247FF582EF3400F5834C
:10553C00E4F0EE241DF582EF3400F583E4F0A3F0E3
:10554C007904120D54EE240DF582EF3400F583E04E
:10555C00F8A3E0F9EE2471F582EF3400F583E8F05E
:10556C00A3E9F079018002790002549474F61218C0
:10557C004D9061D0E0F87480C398FCEA2482F582E7
:10558C00EB3400F583E06004780480027800E824B2
:10559C0004F8ECC398405B79029005457407F0EA77
:1055AC0024F5F582EB3400F583E0900546F0EA240F
:1055BC0082F582EB3400F583E060187508457509B7
:1055CC00057808121A607C0209120C347402121845
:1055DC000C7906740129F5D975D903758245758343
:1055EC0005E9F8E0F5D9A318E870F875E1957901AB
:1055FC008002790002549474F512184DE9FCA2AFA4
:10560C00E433F50AC2AF7D0080010DEA246EF58209
:10561C00EB3400F583E0F8EDC398501A8D08EA25B9
:10562C0008F8EB3400F9E8246AF582E93400F583D4
:10563C00E06C70D68024EA246EF8EB3400F9E0FEBE
:10564C00EA2EFAEB3400FBEA246AF582EB3400F51F
:10565C0083ECF088828983E004F0E50AA2E092AF43
:10566C007F0302191F74F612184DA2AFE433FDC26A
:10567C00AFEA246EF582EB3400F583E014F07C0085
:10568C0060368C08EA2508F8EB3400F9E8246BF551
:10569C0082E93400F583E0C0E0E8246AF582E9345D
:1056AC0000F583D0E0F00CEA246EF582EB3400F5C3
:1056BC0083E0F8ECC39840CAEA246DF582EB340021
:1056CC00F58374FFF0EA2469F582EB3400F583E48A
:1056DC00F0EDA2E092AF025494C082C083E5A8F82A
:1056EC00C2AFEA246AF582EB3400F583E9F0EA24D0
:1056FC0069F582EB3400F583E4F0E8A2E7A2E792C7
:10570C00AF02486074F312184DEAFEEBFFECFAEDB1
:10571C00FB8A828B83A3A3A3A3E0541FF0EE243651
:10572C00F582EF3400F583E4F0F50AEEFCEFFD8A28
:10573C00828B83E0C0E0EC245DF582ED3400F583D0
:10574C00D0E0F0750B00E50A33333354F8F50C8ACE
:10575C00828B83E0F508750900E50B78081217C4F5
:10576C00E508A2E0502FEE2436F8EF3400F98882D9
:10577C008983E0F508EE2508F508EF3400F509E516
:10578C00082438F582E5093400F583E50CF08882AD
:10579C008983E004F0050B050CE50BC3940840AFBE
:1057AC00050A8A828B83A3AA82AB838C828D83A306
:1057BC00AC82AD83E50AC39405500302573B7F05C9
:1057CC0002191F74F712184D9003CEE06401700398
:1057DC0002592D7A009003D4E0600302592D740114
:1057EC00F0A3E4F0A3F090043404F0900439F090AA
:1057FC0003D7E4F0A3F0A3F0A3F09003E104F0903E
:10580C000407E4F09003EAF0A3F0A3F0A3F0A3F0F4
:10581C00A3F0A3F0900451F0900445F090043A7476
:10582C0080F0A3E4F0900440F09004BCF0A3F0A34B
:10583C00F0A3F0A3F0A3F0A3F0A3F09004C5F090B4
:10584C000454F09004A4F0A3F0A3F0A3F0A3F0A3ED
:10585C00F0A3F0A3F0A3F0A3F09004B0F09004B286
:10586C00F09004AEF09004C8F0A3F0A3F0A3F0A362
:10587C00F0A3F0A3F0A3F078CE7903E8246EF582C0
:10588C00E93400F58374FFF00A88828983A3A88227
:10589C00A983EAC3940440E37ACE7B0378DC7904D1
:1058AC0088828983E0C0E0EA2461F582EB3400F55C
:1058BC0083D0E0F088828983A3A882A9838A828B13
:1058CC0083A3AA82AB83E864E17003E9640470D01B
:1058DC007ACE7B0378B5790388828983A3E0C0E014
:1058EC00EA24E6F582EB3400F583D0E0F088828977
:1058FC0083A3A882A9838A828B83A3AA82AB83E821
:10590C0064BD7003E9640370CF9003CEE004F064CF
:10591C000170089003D6E09003D0F07AD27B03801C
:10592C00047A007B0002518EC082C0839003D5E4C0
:10593C00F09003D4F09003CEF0A3F0A374FFF075B5
:10594C00E1F1024860C082C083780079009003D5F1
:10595C00E0600478D2790388828983A3A3A3A3E0AF
:10596C00F902486074F612184DEAFEEBFFEE246360
:10597C00F582EF3400F583E0F8A3E0F9E849700311
:10598C00025A15EE2463F8EF3400F97A007B00A27A
:10599C00AFE433F508C2AF88828983E0FCA3E0FD55
:1059AC00EC4D603A88828983E0FAA3E0FB8A828B13
:1059BC0083E0FCA3E0FD88828983ECF0A3EDF08A00
:1059CC00828B83E4F0A3F088828983E0FCA3E0FD62
:1059DC00EC4D700A88828983A3A3E4F0A3F0E50858
:1059EC00A2E092AF1213849004E2E004F09004E37E
:1059FC00E004F0EE2463F582EF3400F583E0F8A3C5
:105A0C00E0F9E849600302598F8E828F83A3A3A328
:105A1C00E0600F8E828F83A3A3A3E4F09003CFE00A
:105A2C0014F09003CEE014F070069003D074FFF0E5
:105A3C008E828F83A3A3E4F09004E1E0700D9003B9
:105A4C00CFE0640170057900120D36EEFAEFFB120F
:105A5C000C6402549474F712184DEAFEEBFF8E821C
:105A6C008F83A3A3A3A3E0FA7B00120940EEFAEF05
:105A7C00FB120BB6120C4C02518EC082C08378B54F
:105A8C00790388828983A3E4F088828983A3A8821E
:105A9C00A983E864BD7003E9640370E69003B674EF
:105AAC000102485F74F612184DEAFEEBFFEC24037A
:105ABC00F8ED3400F988088909EC2407F8ED340076
:105ACC00F9E8FCE9FD8C828D83E0F8A3E0F9850808
:105ADC0082850983E0FAA3E0FB12176BEE240DF527
:105AEC0082EF3400F583E8F0A3E9F08C828D83E03B
:105AFC00F8A3E0F9850882850983E0FAA3E0FB129C
:105B0C00176B8B09EA45096013EE240DF582EF340F
:105B1C0000F583E02401F0A3E03400F00254947407
