:020000040000FA
:0600000002011D0223179E
:03002B00022B2D78
:03003300022B0F8E
:03003B00022B8C09
:03004300022ABDD1
:0300530002238AFB
:03006B00022B5114
:03007B00022A4B0B
:10008300022183E5C754F84401F5C7790122000032
:100093000080FB120086B90003020107E47921788E
:1000A30008B800028004F709D8FCE479297802B87B
:1000B30000028004F709D8FCE49003017811790D5C
:1000C3008002F0A3D8FCD9FA781A90014D7A01BACC
:1000D30000028007E493A3F608DAF9900F11AA82CD
:1000E300AB8390014E788779048015E493A3AC82A7
:1000F300AD838A828B83F0A3AA82AB838C828D83A8
:10010300D8E9D9E77582ED7583C9740312012F7598
:100113008291758300740012012F75D000758137A9
:10012300751801751903759F00020096C09FF59F0E
:10013300E473D09F22D083D082C09FE493C0E07445
:100143000193C0E0740293F59F2201FF0000B40005
:100153000028002800283075A000A000A000A000FF
:1001630000080008E001F00010001000100010006B
:100173001000100050005000500010001000D00775
:100183000000000000000F000100050030750700AB
:100193001000010081FF00000000FFD206F006D826
:1001A30006FF02020208025000A0000000E803025A
:1001B300C4850100007A8502A085010000680F0252
:1001C3009A85010000330302A085010000690F0234
:1001D3008485010000490302A0850100006A0F0223
:1001E30082850100004B0302A0850100006B0F0212
:1001F30080850800004C0302A0850100006C0F02FB
:1002030094850100006D0FFF0100FF2002C48501EA
:100213000000718502A085010000D10F02968500C0
:1002230000000000029C8503000099039C0C9C0CB9
:100233009C0C9C0C9C0C9C0C9C0C9C0C9C0C9C0C7B
:100243009C0C9C0C9C0C300F480F2A0FFFFFE061A5
:1002530069636F2D656767110199010F12640401CA
:1002630002C4850100007D8502A0850100002210E3
:1002730002B6850100002310029C850300000A0AD0
:1002830002A28501000024100202020202020202FD
:1002930002010D000000100102C485010000DD848D
:1002A30002A0850100004E10029085010000100A93
:1002B30002A0850100004F10028E850100006284B8
:1002C30002A0850100005010028C850100004684C5
:1002D30002A0850100005110028A85010000748389
:1002E30002A08501000052100288850100003E83B0
:1002F30002A085010000531002868501000062837D
:1003030002A085010000541002B48501000050834F
:1003130002A085010000551002BA85010000548433
:1003230002A085010000561002A6850100005710A7
:1003330001E803053F100AFF0001307503020106BF
:1003430000000000000000000000000000000000AA
:10035300000000000000000000000000FFFF060096
:10036300800CE803140900000000000000000000F6
:1003730000000000000000000005125000B400025D
:100383000A000201060302F0FFB21400000000A0FD
:1003930014B8140A43686172616374657269737493
:1003A30069632031000A436861726163746572692D
:1003B300737469632032000A436861726163746510
:1003C30072697374696320330010436861726163F7
:1003D30074657269737469632034000A43686172D7
:1003E300616374657269737469632035000A4368D5
:1003F3006172616374657269737469632036000A9C
:1004030043686172616374657269737469632037E9
:100413000002C485010000778502A0850100005910
:100423001102BE85030000920E029E850100005A50
:100433001102A0850100006B1102C085030000A614
:100443000E029E850100006C1102A0850100007D53
:100453001102C285030000BA0E029E850100007ED0
:100463001102A0850100008F1102B085000000CEAB
:100473000E029C85030000CF0E029E8501000090B2
:100483001102A085010000A11102AE85030000D571
:100493000E029E85010000A21102A085010000B397
:1004A3001102AC85030000E90E029E85010000B431
:1004B3001102A085010000C51102AA85030000FDF9
:1004C3000E029E85010000C611000000000000001E
:1004D3000012013836FE021201384DFE02120138B5
:1004E3007EFE02120138B9FE02120138E3FE021247
:1004F30001380DFF0212013824FF021201383BFFBD
:100503000212013852FF021201387BFF0212013836
:100513008EFF02120138A4FF02120138B7FF021244
:100523000138DEFF02120138BBB502120138BFB633
:1005330002120138F7B6021201381AB70212013853
:1005430025B70212013848B70212013857B8021210
:1005530001382CB902120138A7B9021201382FBA97
:10056300021201386ABA02120138A1BA0212013822
:100573002FBB0212013808BC0212013868BC0212F8
:10058300013873BC02120138F2BC02120138F5BC07
:1005930002120138F8BC0212013887BD0212013879
:1005A3008ABD02120138BABD02120138E4BD02123B
:1005B3000138D2BE0212013884BF02120138DFF4BF
:1005C3000212013807F50212013835F5021201381B
:1005D3006CF502120138CAF50212013815F602123F
:1005E300013860F602120138A0F602120138E6F66D
:1005F3000212013814F702120138D1F7021201383E
:10060300DBF702120138E8F7021201381BF8021275
:100613000138E7F802120138F3F8021201380BF936
:100623000212013815F90212013888C70312013882
:1006330096C703120138AEC703120138C6C70312A7
:10064300013814CE01120138C0CE011201383BCF5C
:10065300011201385CD00112013898D0011201381F
:1006630041D10112013828D2011201388CD3011271
:100673000138E3D30112013864D40112013854D58F
:1006830001120138A1D50112013827D60112013810
:1006930059D6011201386DD801120138AFD80112B1
:1006A3000138CDD80112013850D90112013824DAAA
:1006B30001120138ECDA0112013895E8021201380F
:1006C30068E90212013811EA0212013864EA0212DF
:1006D300013814EB02120138A0EB021201388CEC42
:1006E30002120138BBEC02120138CEED02120138BE
:1006F30016EE02120138EBEE0212013827EF021256
:10070300013843EF021201380AC90312013867990D
:10071300031201387D9903120138A399031201389A
:10072300BF9A03120138C99A03120138FE9B0312C0
:100733000138F69C03120138B8EF02120138E8F0D1
:10074300021201381BF10212013865F1021201385D
:100753002CF302120138EDAE0112013857AF01122A
:100763000138B6B001120138C6B001120138F3B036
:10077300011201384AB101120138F3B101120138F3
:10078300FAB201120138C4B30112013824B50112BF
:10079300013867B5011201380CB60112013859B698
:1007A300011201387FB6011201388DB801120138E8
:1007B30092B80112013897BA01120138E4BA011252
:1007C300013857BB011201388ABB011201382CBC16
:1007D30001120138D5BC011201380DBD01120138D7
:1007E30010BD0112013858BD0112013898BD011224
:1007F3000138EFBD0112013833A6031201384BA6AD
:100803000312013893A603120138A9A60312013873
:10081300F0A60312013804A80312013891A80312A9
:100823000138DCA803120138002C001201380C2C0B
:1008330000120138472C001201388C2C00120138A9
:100843004C2D00120138D22D00120138372E001220
:100853000138632E001201389C2E00120138DA3061
:1008630000120138BE3200120138A43400120138DC
:10087300E7350012013835380012013847390012C4
:100883000138923A00120138A23B00120138BF3BF3
:1008930000120138FA3B001201381C3C00120138E7
:1008A3007F3C00120138404100120138D54100124B
:1008B30001382642001201384D42001201389F428E
:1008C30000120138BD4200120138174300120138EB
:1008D300004400120138764500120138FA4500122F
:1008E30001380080031201380A80031201384D8059
:1008F30003120138688003120138F88003120138AB
:100903002081031201385D8103120138948103129F
:100913000138BD8103120138328203120138478244
:10092300031201385C82031201388D8203120138ED
:10093300A18203120138C682031201380083031215
:1009430001382C8303120138AF8303120138F88373
:10095300031201382284031201384D840312013833
:1009630088C303120138E8A80212013816A902123B
:10097300013864AA0212013844AB0212013863AB96
:1009830002120138E0AB0212013823AC0212013823
:1009930079AD021201383AAE02120138C1B0021227
:1009A300013862B10212013858B20212013855B34C
:1009B30002120138AFB4021201383AB502120138FB
:1009C300EAC00312013853C103120138A7C103124D
:1009D3000138CEC103120138FFC1031201387584F7
:1009E30003120138E2840312013829850312013806
:1009F3004186031201383D87031201382088031210
:100A03000138F5BF0212013837C00212013809C19B
:100A130002120138E2C102120138DCC202120138AB
:100A2300BEC30212013827C402120138DDC4021208
:100A3300013851C502120138BDC502120138E6C59D
:100A43000212013860C602120138F9C602120138D7
:100A53005EC70212013873C702120138B9C7021206
:100A63000138D2C70212013837C8021201383AC816
:100A7300021201383AA30312013862A303120138A8
:100A8300A0A3031201385EA403120138C5A4031204
:100A93000138E1A40312013809A50312013839A56D
:100AA3000312013848A503120138C5A50312013802
:100AB300EBA503120138DCBE01120138BAC00112E2
:100AC3000138ECC20112013828C30112013855C3A1
:100AD300011201383FC4011201388AC401120138DE
:100AE300D5C401120138E7C40112013827C5011228
:100AF30001385CC501120138AAC501120138D9C5F4
:100B030001120138FCC50112013849C6011201382E
:100B1300CEC601120138E8C80112013827CB0112F1
:100B2300013868CB011201380ACD011201384BCDCF
:100B330001120138BECD01120138D39B02120138D4
:100B4300D19C021201386AA3021201388BA502124A
:100B5300013856A702120138BEA8021201386146B5
:100B6300001201381047001201383D4700120138C6
:100B7300834700120138C34800120138594A001252
:100B83000138D34A00120138EE4A00120138694B8A
:100B930000120138C34C00120138234E00120138F1
:100BA300294F001201388A5000120138A350001255
:100BB3000138015100120138EF510012013822525D
:100BC300001201389252001201380C5300120138FE
:100BD300565300120138205400120138F554001204
:100BE3000138D455001201385F5600120138CD5632
:100BF300001201384157001201386C5700120138B6
:100C03002B5800120138905900120138AD590012C7
:100C13000138CC5900120138BD5A00120138E25A8A
:100C2300001201380C5B00120138875B0012013897
:100C3300E15B001201384A5D00120138F85D0012D1
:100C43000138395E00120138FF8D021201384D8ED2
:100C530002120138598E02120138378F02120138FD
:100C6300688F02120138998F02120138199002120B
:100C73000138519002120138A39002120138E0901A
:100C830002120138FD920212013823950212013833
:100C93000E9702120138F89802120138EE7F001203
:100CA3000138DA9A011201380A9B01120138E3A1D3
:100CB3000112013868A30112013865A90112013834
:100CC3004DAA011201388AAA01120138ADAA0112F4
:100CD3000138DEAA01120138E7AA01120138F1AA8C
:100CE30001120138DFAB01120138D5AC0112013812
:100CF300CB8501120138CA8901120138D08901124A
:100D030001380B910112013824960112013899958B
:100D1300031201382F960312013845960312013846
:100D2300BB96031201382F97031201386D970312F4
:100D33000138E197031201385A9803120138639876
:100D4300031201386F980312013884980312013893
:100D5300C29803120138D898031201383799031245
:100D63000138308D031201383D8D03120138578D40
:100D730003120138968D03120138D48D0312013802
:100D8300398E031201384E8E03120138598E031225
:100D93000138668E031201387D8E031201388B8E63
:100DA30003120138968E03120138A28E0312013802
:100DB300B18E03120138BC8E03120138DF8E031289
:100DC3000138868F03120138968F03120138B08FD2
:100DD30003120138CD8F03120138E98F0312013852
:100DE3000E90031201381990031201382E9003124A
:100DF3000138429003120138A39003120138A990DD
:100E030003120138AF9003120138B5900312013871
:100E1300CD900312013800910312013876EB0112D1
:100E23000138FAEB01120138A9EC0112013808EE7E
:100E33000112013829F00112013815F101120138AC
:100E43004AF1011201386CF1011201381BF201124F
:100E5300013813F4011201383CF401120138CEF4C5
:100E63000112013800F5011201380DF501120138A4
:100E730064F5011201388AF501120138F7F70112FE
:100E83000138FAF80112013852F90112013805DD6F
:100E9300011201380FDE01120138F6DE01120138AA
:100EA30000DF0112013822DF011201382EDF0112A7
:100EB3000138C7E001120138F6E00112013812E2ED
:100EC300011201386BE201120138D1E3011201383A
:100ED300B0E4011201380CE50112013879E5011281
:100EE3000138B4E501120138F3E501120138ACE829
:100EF30001120138C6E80112013852E90112013822
:100F030060E901120138B9E901120138C7E9011298
:100F130001383AEA011201389EEA01120138E8EA7F
:100F230001120138FF7300120138217400120138D5
:100F33004776001201385C7900120138747A001286
:100F43000138277B00120138097C00120138FEB8F2
:100F53000312013823B90312013895B9031201387A
:100F63001BE10212013824E1021201382DE10212C1
:100F7300013804E202120138B5E302120138EBE34F
:100F83000212013825E4021201385BE4021201382F
:100F930095E402120138C9E402120138F5E40212A1
:100FA30001383EE50212013878E502120138C1E545
:100FB3000212013819E6021201384EE60212013814
:100FC300A9E602120138E3E60212013834E70212FD
:100FD30001386AE702120138A4E702120138D2E7A6
:100FE30002120138F5E7021201385FC80312013813
:100FF3008BC803120138E6C803120138F0C8031284
:10100300013800C9031201385EC80212013868C8EA
:1010130002120138A6C802120138EFC802120138C1
:1010230029C90212013883C902120138A4C9021264
:1010330001387CCC0212013885CC02120138D2CCA3
:1010430002120138FBCC0212013805CD021201381D
:1010530071CD0212013803CE021201384DCE0212B5
:10106300013883CE021201380FCF0212013850CF5C
:101073000212013887CF0212013899CF02120138C8
:10108300B8CF02120138C1CF021201388ED002123A
:101093000138A5C5031201380DB70312013843B750
:1010A3000312013879B703120138C4B803120138A7
:1010B30065FF011201387BFF0112013885FF011220
:1010C3000138CFFF011201388EC9031201389CF990
:1010D30002120138B1F90212013861FA0212013821
:1010E300A1FA02120138BAFA02120138F5FA021211
:1010F300013842FB0212013874FB02120138B6FBBD
:1011030002120138B7FD0212013829FE021201381A
:10111300E7BD0312013810BE031201383FBE0312AC
:101123000138D7BE03120138EFBE0312013831BFB5
:101133000312013876BF0312013881BF031201384D
:1011430022C00312013808B50312013811B5031286
:10115300013882B50312013896B503120138EBB694
:1011630003120138D7CB031201382EA00312013822
:10117300DAA003120138BAA10312013821A2031223
:10118300013834AE0312013864AE031201380FAFD5
:1011930003120138B1AF0312013806A90312013853
:1011A3002BA90312013855A90312013845CA0312AA
:1011B3000138695E00120138CE60001201386F6297
:1011C30000120138236300120138B663001201389C
:1011D3003B6400120138606400120138B6670012E4
:1011E30001383C68001201386F6900120138A9699F
:1011F30000120138DE69001201389E6B00120138BB
:10120300FB6B00120138446C00120138AF6C001202
:101213000138206D00120138526D001201386A6DD9
:1012230000120138B36E00120138C36E0012013888
:10123300DE6F0012013800700012013836700012A0
:101243000138EA7100120138777200120138B67260
:1012530000120138DA73001201382D7F00120138B1
:101263003E7F00120138E37F00120138E6CA031201
:10127300013825CB03120138EFCB031201389CC68A
:1012830003120138ACC603120138C7C60312013872
:101293007BC703120138D2AB0312013803AC03122C
:1012A3000138EDAD03120138A1C40312013826C57C
:1012B300031201388CC50312013845C203120138E9
:1012C30079C203120138A2C20312013819C30312EF
:1012D3000138A3BA03120138CCBA0312013832BB66
:1012E3000312013852BB03120138A3BB03120138A6
:1012F300FEBB0312013838BC031201383BBC031296
:101303000138E288031201381B89031201388D89E1
:1013130003120138A28903120138CD8A031201385E
:10132300498B031201380F8C031201382E8C0312E0
:101333000138558C03120138928C03120138AA8CA0
:1013430003120138FB8C031201387D91031201381B
:101353009491031201380E9203120138F292031290
:101363000138C994031201382E950312013885956B
:10137300031201389BCA03120138F87F00120138A7
:101383007EB00312013819B2031201387AB2031284
:101393000138C0B203120138009D031201389B9D2E
:1013A300031201381F9E03120138E19E0312013814
:1013B300569F031201387E9F03120138879F031241
:1013C3000138F79F031201380FA00312013818A048
:1013D300031201382BA00312013845BC0312013854
:1013E30097BC0312013821BD0312013888BD0312D3
:1013F3000138C3B203120138EDB203120138BBB393
:101403000312013896B403120138BCD0021201381A
:1014130083D102120138BAD102120138E4D1021287
:10142300013844D2021201389AD202120138FFD293
:101433000212013897D302120138A6D402120138DE
:101443003DD602120138CAD60212013831D7021230
:10145300013848D70212013862D802120138A0D8E5
:10146300021201380080021201388183021201380E
:101473000985021201386085021201387F85021244
:101483000138FD85021201389387021201387888EA
:1014930002120138868C021201385C8D0212013867
:1014A300FED80212013871D9021201380DDC021282
:1014B30001388EDC02120138C0DD0212013812E05D
:1014C3000212013882E002120138A0F90112013838
:1014D300E5F90112013802FA0112013808FB011281
:1014E3000138A2FB0112013889FC011201382CFFDB
:1014F3000112013865CB031201382FCB03120138D7
:1015030091CB03120138B9CB03E066701008A3E056
:1015130066700A08A3E066700408A3E06622C3E7C6
:10152300960809E7960809E7960809E79622C3E0B3
:101533009608A3E09608A3E09608A3E09622C008C5
:10154300C3E096F50808A3E096420808A3E0964294
:101553000808A3E09645087001D3D00822080808BC
:10156300EAC0E0EBC0E086F0E7A4FA180986F0E7EA
:10157300A42AFA180986F0E7A42AFA180986F0E7DC
:10158300A42AFA1986F0E7A4FBE5F02AFA190886DB
:10159300F0E7A42BFBE5F03AFA190886F0E7A42B51
:1015A300FBE5F03AFA18180986F0E7A4C5F02BFB1F
:1015B300E43AFA1908E7C5F0C6A426F6E5F03BFBC2
:1015C300E43AFA1886F0E7A4F6E5F00826F6E43BD9
:1015D30008F6E43A08F6D0E0FBD0E0FA22E4CFC004
:1015E300E0E4CEC0E0E4CDC0E0E4CCC0E075F020A0
:1015F300C3E633F608E633F608E633F608E633F6D1
:10160300181818EC33FCED33FDEE33FEEF33FFC354
:10161300EC9709ED9709EE9709EF97191919400F00
:10162300FFEC97FC09ED97FD09EE97FE191906D516
:10163300F0BEECF709EDF709EEF709EFF719191901
:10164300D0E0FCD0E0FDD0E0FED0E0FF2260160841
:101653000808C6C313C618C613C618C613C618C6C9
:1016630013C6D5E0EA227009080808226016181884
:1016730018C6C333C608C633C608C633C608C6333E
:10168300C6D5E0EA22E627F60809E637F60809E6B2
:1016930037F60809E637F622E026F608A3E036F621
:1016A30008A3E036F608A3E036F622E026F008A306
:1016B300E036F008A3E036F008A3E036F022C3E6F4
:1016C30097F60809E697F60809E697F60809E697F4
:1016D300F622C3E096F008A3E096F008A3E096F0A4
:1016E30008A3E096F022E657F60809E657F608093C
:1016F300E657F60809E657F622E056F608A3E05641
:10170300F608A3E056F608A3E056F622E056F008E2
:10171300A3E056F008A3E056F008A3E056F022E059
:10172300F608A3E0F608A3E0F608A3E0F622E6F045
:1017330008A3E6F008A3E6F008A3E6F022E0FAA384
:10174300E0FBA3E0FCA3E0FD22EAF0A3EBF0A3ECB3
:10175300F0A3EDF022CAC0E0E6F0A308DAFAD0E085
:10176300FA22CAC0E0E0A3C582CCC582C583CDC539
:1017730083F0A3C582CCC582C583CDC583DAE6D009
:10178300E0CA22C3E498F8E499F91217C78026C384
:10179300E49AFAE49BFBE920E7E91217C7E498F817
:1017A300E499F922C3E498F8E499F91217C7E49885
:1017B300F8E499F9C3E49AFAE49BFB22EB20E7CF20
:1017C300E920E7E0B90010BB0008E88AF084F8AA32
:1017D300F022E4FBC8FA22EB70227B10C833C8C99D
:1017E30033C9335007C39AC3DBF280069A50012AE8
:1017F300DBEAC833F4C8C933F4C9FA2275F008E444
:10180300C833C8C933C933C99AC99B5004C92AC943
:101813003BD5F0ECFBC833F4C8E4C9FA22600D08E9
:10182300C6A2E713C618C613C6D5E0F322600C0898
:10183300C6C313C618C613C6D5E0F42270042260CB
:101843000D18C6C333C608C633C6D5E0F41822251F
:101853001810AF08F518400215198008F518400252
:101863001519D2AF22C0D0251810AF08F5185002B1
:1018730005198008F51850020519D2AFD0D02225DA
:1018830018F58210AF08F518400215198008F518ED
:1018930040021519D2AF851983222518F582E43544
:1018A30019F58322E4732518C582C0E0E51934FFD6
:1018B300C583C0E0E518C3958224F810AF0885837B
:1018C300198582188008858319858218D2AFCEF0D6
:1018D300A3E520F0A37808E608F0A3DEFAEFF0A36F
:1018E300E58124FAF8E608F0A3E608F0A3E608F099
:1018F300A30808E608F0A3E608F0A315811581D034
:10190300E0FED0E0F8158115811581E8C0E0EEC056
:10191300E0222518C582C0E0E51934FFC583C0E085
:10192300E518C3958224F910AF08858319858218B9
:101933008008858319858218D2AFCEF0A3E520F005
:10194300A37808E608F0A3DEFAEFF0A3E58124FB11
:10195300F8E608F0A3E608F0A30808E608F0A3E613
:1019630008F0A315811581D0E0FED0E0F8158115AC
:1019730081E8C0E0EEC0E022851983851882E0A3E8
:10198300FEE0A3F5207808E0A3F608DFFAE0A3FF62
:10199300E0A3C0E0E0A3C0E0E0A3C0E0E0A3C0E0B8
:1019A300E0A3C0E010AF08858218858319800885FD
:1019B3008218858319D2AFD083D08202013585196D
:1019C30083851882E0A3FEE0A3F5207808E0A3F660
:1019D30008DFFAE0A3FFE0A3C0E0E0A3C0E0E0A3D8
:1019E300C0E0E0A3C0E010AF0885821885831980AA
:1019F30008858218858319D2AFD083D08222C0D0C4
:101A03002518C582C0E0E51934FFC583C0E0E51899
:101A1300C3958224F310AF08858319858218800843
:101A2300858319858218D2AFC8F0A3E9F0A3EAF041
:101A3300A3EBF0A37908E709F0A3D8FAECF0A3ED40
:101A4300F0A3EEF0A3EFF0A3D0E0F0A3D0E0F0A377
:101A5300D0E0F0A3E520F0A3E5F0F0A322851983FD
:101A6300851882E0C0E0A3E0F9A3E0FAA3E0FBA3BA
:101A73007808E0F608A3DFFAE0FCA3E0FDA3E0FEAC
:101A8300A3E0FFA3E0C0E0A3E0C0E0A3E0F5D0A3A0
:101A9300E0F520A3E0A3F5F010AF08858319858254
:101AA300188008858319858218D2AFD082D083D05D
:101AB300E0F8D0E03274048006740280027401C03E
:101AC300E0F404121882D0E0121758227404800440
:101AD30074028000CCC0E0EDC0E0E518C39CCCAD3F
:101AE3001950011D10AF068C188D1980068C188DA6
:101AF30019D2AF121765D0E0FDD0E0FC22D083D01D
:101B030082E9C0E0E493A3C386F0C5F095F0F90839
:101B1300E493A386F0C5F095F0700BE493A3C39907
:101B23004005E9048002A3E475F002A42582F5824E
:101B3300E5F03583F583D0E0F9E493A3C0E0E493C3
:101B4300C0E022D083D082ECC0E0EDC0E0E493A3F8
:101B5300FCE493A3FDED4C600D121B92EC24FFFCFF
:101B6300ED34FFFD80EFE493A3FCE493A3FDED4C80
:101B7300600D121BD1EC24FFFCED34FFFD80EFD090
:101B8300E0FDD0E0FCE493A3C0E0E493C0E022C016
:101B9300E0C3E49396087401939618400FE49366A8
:101BA300700808740193661870007019A3A3C3E446
:101BB3009396087401939618A3A3400DD0E0D0E048
:101BC300D0E0021B82A3A3A3A3A3A3D0E022C0E07F
:101BD300C0F088F0E4936670080874019366187087
:101BE30000A8F0A3A3700BD0F0D0E0D0E0D0E002C7
:101BF3001B82A3A3D0F0D0E02274F5121915EAFEDC
:101C0300EBFFEE2434F8EF3400F988088909EE2459
:101C130035F582EF3400F583E0F8EE2437F582EFF3
:101C23003400F583E0F50AEC850AF0A4FCAAF085FC
:101C33000AF0EDA42AFDE82CF8E43DF97A257B00AF
:101C43001217C7EA850882850983F0F8740758F9E3
:101C53007401B900028004C333D9FCFAE8131313E7
:101C6300541FF8EE28F8EF3400F9E8245DF582E913
:101C73003400F583E05A6008EE2434F582EF802CBB
:101C8300EE2434F582EF3400F583E0C0E0EE243631
:101C9300F582EF3400F583E0F5F0D0E084A8F0EEB0
:101CA30028F8EF3400F9E82438F582E93400F583A5
:101CB300E0F97F040219C174F5121915EAFEEBFF6E
:101CC300EE2434F582EF3400F583E0C0E0EE2435F2
:101CD300F582EF3400F583D0E0F08E828F83A3A3E7
:101CE300A3A3A3A3A3C082C0838E828F83A3A3A332
:101CF300A3A3E0F8A3E0F9D083D082E0C398F5086A
:101D0300A3E099F509EE247FF582EF3400F583E033
:101D130064017069EE2480F582EF3400F583E0F806
:101D2300A3E0F98E828F83A3A3A3A3A3A3A3E0FCC1
:101D3300A3E0FD8E828F83A3A3A3A3A3E0FAA3E072
:101D4300FBC3EA9CEB9D5010C3EC98ED99402EC366
:101D5300EA98EB995027800EC3EA98EB994007C3A2
:101D6300EC98ED9940177C5C7D05EEFAEFFB120BC6
:101D7300FAEE247FF582EF3400F583E4F0EE2434A9
:101D8300F8EF3400F9E8FCE9FDEE2435F582EF3491
:101D930000F583E0F8EE2437F582EF3400F583E0B5
:101DA300F50AE508850AF0A4F508AAF0850AF0E526
:101DB30009A42AF509E82508F8E43509F97A257B09
:101DC300001217C7EA8C828D83F0F8740758F974F0
:101DD30001B900028004C333D9FCFAE81313135486
:101DE3001FF8EE28F8EF3400F9E8245DF582E934B2
:101DF30000F583E05A6008EE2434F582EF802CEE80
:101E03002434F582EF3400F583E0C0E0EE2436F5A8
:101E130082EF3400F583E0F5F0D0E084A8F0EE28FB
:101E2300F8EF3400F9E82438F582E93400F583E06B
:101E3300F9122A37021CB5C082C08385188285191E
:101E430083E0F8A3E0F9C3EA9CEB9D5010C3EC9840
:101E5300ED99401BC3EA98EB995014800EC3EA989E
:101E6300EB994007C3EC98ED99400479018002791E
:101E730000D083D08222EAC39CFAEB9DFB2274EF4D
:101E8300121915900422E064086005E06407702AC3
:101E93009061C8E06024900450E0F4601DE0F875A0
:101EA300F003A4C8AAF02AF9745228FE740439FF77
:101EB3008E828F83A3A3A3E07003021FB19060609F
:101EC300E0C0E0EE2468F582EF3400F583D0E0F063
:101ED300750CC5750D05750800750900E5D914F570
:101EE3000AE5D95403F50E60177403650E605CE5CB
:101EF3000A6010EE2467F582EF3400F583E0700387
:101F0300021F969005C0E06401602AEE2482F582E8
:101F1300EF3400F583E06004780480027800850ADA
:101F230008E508C398FA95E0FB120AC88A088B09EA
:101F3300EA45097005120DFE8074EE2482F582EFE6
:101F43003400F583E070048A0C8B0DE50A6012857A
:101F53000C82850D83F50BE5D9F0A3150BE50B700A
:101F6300F6EE2482F582EF3400F583E0604474FCDE
:101F7300250AF50A780C121ABCAC0AA90EEEFAEF80
:101F8300FB120C967402121868E97026AA08AB09B2
:101F93001213E0793D8E828F83A3A3A3A3E0FA7B80
:101FA3000012099CEEFAEFFB120C12120CA8790036
:101FB30080747403650E6056850A107511007810DD
:101FC300121ABCAC0CAD0DAA08AB09120C72740248
:101FD300121868EE2468F582EF3400F583E064801C
:101FE3007004747F8001E0F50C780C121AC0E50EC2
:101FF300F50C780C121AC0A90AAC08AD099004506C
:10200300E0FA7B00120960740212186880139004CE
:1020130022E06408600BAC0CAD0DEEFAEFFB120D81
:1020230002120E0A79017F0A0219C174F5121915F9
:1020330074FC121852EAFEEBFF8908A2AFE433F5F1
:1020430009C2AF806AEE2463F8EF3400F97A007BAB
:1020530000A2AFE433F50AC2AF88828983E0FCA310
:10206300E0FDEC4D603A88828983E0FAA3E0FB8AC5
:10207300828B83E0FCA3E0FD88828983ECF0A3EDEF
:10208300F08A828B83E4F0A3F088828983E0FCA347
:10209300E0FDEC4D700A88828983A3A3E4F0A3F0EA
:1020A300E50AA2E092AF1213E0900563E004F0EEBC
:1020B3002463F582EF3400F583E0F8A3E0F9E849FF
:1020C300603DEE2463F582EF3400F583E02402FAE9
:1020D300A3E03400FBEA2402F50AEB3400F50B78A5
:1020E3000A121ABC8A828B83E0FCA3E0F9EEFAEFB2
:1020F300FB120C367402121868E970030220489030
:102103000563E06063900564E0F8900563E0C398BD
:10211300500C740265087050900565E0604A8E8229
:102123008F83A3A3A3A3E0851882851983F0A3E477
:10213300F0900563E0F8740212189DE8F0A3E4F050
:10214300900563E0F8900562E028F0740212189D90
:10215300AC82AD83851882851983AA82AB8379010A
:1021630012096C900563E4F0E509A2E092AF7404F0
:10217300121868021CB50000008521878522C6223B
:10218300C0E0C0D0E8C0E0E9C0E0EAC0E0EBC0E0F6
:10219300ECC0E0EDC0E0EEC0E0C008C009C00AC07A
:1021A3000BC082C083C0F0A2AFE433FEC2AF759B05
:1021B30000906182E0A2E05012E591A2E0500C751C
:1021C30091FE740165217003121E81E0A2E5505156
:1021D300E591A2E5504B7591DF900422E06407601E
:1021E30005E064087023740165217035790190045A
:1021F30050E0FA75F003A4CAA8F028FB74522AFA37
:1022030074043BFB12202E8018E0640D70139004BD
:1022130044E004F064287002E4F07A00E0F9120E5E
:1022230010906182E0A2E640030222CAE591A2E691
:1022330040030222CA7591BF900422E0640570082E
:10224300120D38120D448003120D3E752100120D3C
:102253009EE9900423F07900120D92120B707A011B
:102263007B00900421E0F9121068907803E0644247
:1022730070559005C4E014F0704DC2AF1222820075
:10228300782AD0E0F618D0E0F6E59F54077005757C
:1022930009FF800375097FC4C0E07829E6F50808C3
:1022A300E65509F509740B7808121830D0E02508B3
:1022B300F8906270E0A2E740F8E8C333906272F0EE
:1022C300906270E0D2E0F0906181E0A2E35009E512
:1022D300E9A2E3500375E9F7A3E0A2E75009E5910A
:1022E300A2E7500375917FEEA2E092AFD0F0D083C6
:1022F300D082D00BD00AD009D008D0E0FED0E0FDC8
:10230300D0E0FCD0E0FBD0E0FAD0E0F9D0E0F8D0A8
:10231300D0D0E032C0E0C0D0C082C083906183E0FF
:10232300A2E05009E5BFA2E0500375BFFEE0A2E1C1
:102333005009E5BFA2E1500375BFFDE0A2E25009D9
:10234300E5BFA2E2500375BFFBE0A2E35009E5BF7E
:10235300A2E3500375BFF7E0A2E45009E5BFA2E48E
:10236300500375BFEFE0A2E55009E5BFA2E55003B6
:1023730075BFDFE0A2E65009E5BFA2E6500375BFD3
:10238300BFD083D0828088C0E0C0D0E8C0E0E9C07D
:10239300E0EAC0E0EBC0E0ECC0E0EDC0E0C0F0E597
:1023A300A7A2E6500FE5A1A2E6500953A7BF75A166
:1023B300BF1223EFE5A7A2E5500CE5A1A2E5500665
:1023C30053A7DF75A1DFE5A7A2E15009E5A1A2E1CB
:1023D300500375A1FDE5A7A2E2500CE5A1A2E250CE
:1023E3000653A7FB75A1FBD0F002230074F8121962
:1023F30015752101900422E064067015120CC68A3B
:10240300828B83A3A3A3A3A3A3E0FAA3E0FB120DF0
:1024130026A2AFE433FED2AF900428E06401701823
:102423007A207B00900421E0F91210F27A207B00DD
:10243300900421E0F912106E906182E0D2E6F090F0
:1024430005C1E0602185C6228016900427E064015F
:102453007008E5C654F84405F5C653BEFC12217C4A
:102463007401652160E4EEA2E092AF7F010219C11D
:10247300008E238F248582288583278518828519DA
:1024830083E0CEA3E0CF852882852783EBC9EAC802
:10249300EDCBECCA75F010C3E833C8E933C9EA33AE
:1024A300CAEB33CBC3EA9EF526EB9FF525B3500465
:1024B300AB25AA26EC33CCED33CDD5F0DAAE23AF82
:1024C300242274E912191574F8121852851882859A
:1024D3001983ECF0A3EDF08A088B09900422E02421
:1024E300F7C39405500675080102265C120CC68AD0
:1024F3000A8B0BAE0AAF0BEE4F7003022659AC08E2
:10250300AD09740212189DAA82AB83120D568E82F6
:102513008F83A3A3750CFF750DFF750EFF750F0059
:10252300780C1216FC740212189D7510FF7511FFBA
:102533007512FF75130078101216FC780C791012BF
:102543001521502A780C79101216C17508017509E6
:10255300C8750A00750B007808790C1215215052C2
:10256300850C08850D09850E0A850F0B805075149F
:10257300017515C8751600751700851008851109B2
:1025830085120A85130B7808790C1216C178147911
:1025930008121521401C750800750900750A00759D
:1025A3000B01780879101216C17808790C12168875
:1025B300800C750801750900750A00750B00740914
:1025C3007808121669750C19F50DF50EF50F7808D4
:1025D300790C1215E08E828F83A3A3A3A3A3A3E098
:1025E300F8A3E0F97AD07B031217C7880C890DE4AE
:1025F300F50EF50F7808790C121688740612189DDB
:10260300E0F8A3E0F97AD07B031217C7E8FA8A0C43
:10261300E4F50D7808790C12152150077808790C28
:102623001216C1900422E06408600AE064066005A3
:10263300E06405702D750C0D780C79081215214096
:1026430021750CF4750DFF750EFF750FFF78087972
:102653000C121688800C750800750900750A007540
:102663000B00851882851983E0F8A3E0F58388823F
:10267300780812173174081218687F100219C17490
:10268300F7121915120D689005BFE06401701090E0
:102693006245E4F0A3F053F4F343FE0C5390F312BA
:1026A3000D14E5C654804449F5C6E59E547F64493C
:1026B30070F8906185740FF09005BDE0F47002A38B
:1026C300E0604E9005BEE0600814601B14602E802D
:1026D300407508017509009005BDE0780812183FA0
:1026E300E508F45280802A7508017509009005BD3C
:1026F300E0780812183FE508F45290801475080139
:102703007509009005BDE0780812183FE508F452FA
:10271300A079007F020219C174F7121915E9FEEAC4
:10272300FF74016E700C7A807B00900421E0F91233
:102733001068902BF8E493F46008E493F9120B64A7
:10274300800953C680E59E547F70FA120D1A9005D6
:10275300BFE064017003120B7C9005BDE0F47002CE
:10276300A3E0604B9005BEE0600814601A14602C6F
:10277300803D7508017509009005BDE078081218C1
:102783003FE508428080287508017509009005BD62
:10279300E0780812183FE508429080137508017528
:1027A30009009005BDE0780812183FE50842A01221
:1027B3000D68120CC68A088B09A808A909E84960A4
:1027C30015E5E170FCE82414F582E93400F583E0B3
:1027D300F46003E0F5E174016F700A7A019004215B
:1027E300E0F91210BC02271674ED1219158A088B32
:1027F300098C0A8D0B741312189D780C121722780A
:1028030008790C1215217510017511C87512007520
:10281300130050127808790C1216C1781079081237
:10282300152150168010780C79081216C17810798A
:102833000C12152140047901800279007F0C0219E2
:10284300C174ED1219158A088B098C0A8D0B741348
:1028530012189D780C121722780C79081215214052
:10286300117808790C1216C1AA08AB09AC0AAD0B92
:102873008022751000751100751200751301781010
:10288300790C1216C178107908121688AA10AB11A8
:10289300AC12AD1380A68A828B837508FF7509FF7E
:1028A300750AFF750B00780812170F7F040219C110
:1028B30074F51219158C828D8378081217228A8277
:1028C3008B8378081216D5EA2404F8EB3400F98CCC
:1028D300828D83A3A3A3A3E0FCA3E0FD8882898365
:1028E300C3E09CF0A3E09DF088828983C3E0942039
:1028F300A3E0944E40268A828B837508FF7509FFF7
:10290300750AFF750BFF78081216AE8A828B83A3B4
:10291300A3A3A3E02420F0A3E0344EF0022899748B
:10292300F5121915E9FE900577E0FAA3E0FBEEC373
:1029330033F8E433F974D928F582748339F583E0E5
:102943002AF508A3E03BF5097808121ABC7A407B04
:10295300427C0F7D0012247474021218688A088B5B
:10296300098C0A8D0B74107808121650AA08AB094B
:102973007F040219C174F11219158A0C8B0D8C0E88
:102983008D0F740F12189DE0FAA3E0FB7411121857
:102993009DE0F508A3E0F5097808121ABCEA2401C2
:1029A300F508EB3400F509E4F50AF50B780C790822
:1029B300121560750871750902780C790812156093
:1029C300AA0CAB0DAC0EAD0F12247474021218686E
:1029D3008B09EA450960047A0180027A00EC2AFC3B
:1029E300ED3400FD741312189DE0F8A3E0F9E8FE3E
:1029F300E9FFECF8EDF97A717B021217C7880889B1
:102A0300098E828F837808121731ECF8EDF97A7109
:102A13007B021217C78A088B097405780812183FBE
:102A23008E828F83A3A3A3A3E508F0A3E509F07F18
:102A3300080219C1C082C083E9906000F0D083D03E
:102A43008222C2AF02000022C0E074EB121A0174AA
:102A5300F9121852538AFE9085457808121722906E
:102A630009E378081216AE9009E37808121722904A
:102A73008549780C1217227808790C1215E0E50CB9
:102A8300450D450E450F70269084EEC08285188251
:102A9300851983AC82AD83758384D0827407121742
:102AA30065851882851983AA82AB83121296C2EBBD
:102AB30074071218687F08021A60C0E074F2121AD1
:102AC30001A2AFE433FED2AFC2C0E5D1A2E4500607
:102AD30053D1EF1213D4751A00EEA2E092AF7F0127
:102AE300021A60C0E074F2121A01A2AFE433FED2FC
:102AF300AFE589A2E150031212F0758900C2C575D2
:102B03001A00EEA2E092AF7F01021A60C0E074F2F5
:102B1300121A01A2AFE433FED2AFE58BA2E0500359
:102B23001212F0758B00C2E880D5C0E0C0D0E8C0B7
:102B3300E0E9C0E0E5A8D2AFC2C7751A00A2E7A2D8
:102B4300E792AFD0E0F9D0E0F8D0D0D0E032C0E0E7
:102B530074F2121A01A2AFE433FED2AF758900C238
:102B6300C5900B2E7401F0751A00FA900AFBE0F978
:102B73001210BC900CB2E0F8A3E0687002D285EEAC
:102B8300A2E092AF7F01021A60C0E0C0D0E8C0E0CB
:102B9300E9C0E0C008C009C082C083A2AFE433F932
:102BA300D2AF900CB2E0F8A3E0687008539AFBA38D
:102BB30074018026C2E9900CB2E0F508740125087F
:102BC300F074322508F582740C3400F583E0F5C106
:102BD300900CB2E0C394804002E4F0E9A2E092AF2B
:102BE300D083D082D009D008D0E0F9D0E0F8D0D09B
:032BF300D0E032FD
:102BF800FFFFFFFFFFFFFFFFC082C083E9900FD0F8
:102C0800F0022E8F74F71218A9E9900361F07C99ED
:102C18007D037AFF7BFF1208B890036274FFF0A36C
:102C2800F0A3E4F0A3F07905120840900361E0F9FD
:102C38001207627AD67B08120A7A7F0102197B741E
:102C4800F41218A98A088B09EB548060309003614C
:102C5800E0F91210508A0A8B0BAE0AAF0BEE4F60E8
:102C6800138E828F83E064B07003120858EEFAEF77
:102C7800FB12103EAA08E5096480FB80047A007BF9
:102C880000022E5E74F21218A974FC121852EAFEA1
:102C9800EBFFEE4F6038740212189DEEF0A3EF12AE
:102CA80030C3ECF0A3ED1230C3AA82AB8312075CE9
:102CB800E9F5087073741212189D123C77E50A45FD
:102CC8000B60658E828F83122D3AEE4F7005750862
:102CD8000280557A067B001210A48A0C8B0DA80C72
:102CE800A90DE8497005750813803D88828983E439
:102CF800122D44A3A3EEF0A3EF124110E50AF0A3AE
:102D0800E50BF0900367122DCC9003676017E0FC89
:102D1800A3E08003EAFCEBFD8C828D83122DCC703E
:102D2800F38C828D83123B9CA908740412186802E4
:102D38004312A3A3A3A3E0FEA3E0FF22F0A3F0881D
:102D48008289832274F21218A9890AE975F017A4F6
:102D5800FEAFF0900366E4F0900364122DCC600A95
:102D68001210AA900364E4F0A3F0EEFAEFFB12103D
:102D7800A48A088B09EA4509602FEEFCEFFD79006B
:102D8800121026900364E508F0A3E509F07B0080A3
:102D980008122DB6E4F0A3F00BEBC3950A40F2E558
:102DA8000A900366F0790080027913024312EB75EA
:102DB800F017A4F8A9F0900364E028FAA3E0398A90
:102DC80082F58322123932EA4B2274F41218A9755B
:102DD8000800750900740C12189D1240E4FEE9FF02
:102DE800800CE5082401F508E5093400F509C3E578
:102DF800089CE5099D503285080A85090B740378FB
:102E08000A12183FEA250AF8EB350BF988828983FC
:102E1800A3A3A3A3A3A3123C77EE650A7003EF65EF
:102E28000B70BFE8FAE9FB80047A007B0080277406
:102E3800F41218A97900EAA2E0501B75080D75096B
:102E4800857808121ABC7C047D007AD27B0F1208A0
:102E58003A74021218687F0402197BC082C08390FA
:102E68000367122E96601C88828983A3A3E06A7088
:102E780003A3E06B8882898370E8A3A3A3A3123914
:102E88002E80047A007B00D083D082020135124361
:102E9800E5E8492274EE1218A974FC121852EAFEE9
:102EA800EBFF851882851983E4F0A3F0EE24021263
:102EB8003B80EE24051230B1EE2404F50EEF1234F7
:102EC80096E024FE603924FC604624FE605224FE0D
:102ED800605E24FE7003022FB624FE700302302EBB
:102EE80024FE700302303D24FE700302304C24FCA3
:102EF800700302305B24FE700302306A0230A79030
:102F080003807417F0A3E41230CB1204DA0230A75E
:102F1800851882851983AC82AD8312085E023077EA
:102F2800851882851983AC82AD83120864023077D4
:102F3800850C08850D09740212189DAC82AD838535
:102F4800088285098312392E1207808A0C8B0DACF2
:102F58000CAD0DEC4D6042E4F50CF50D780C121A31
:102F6800BC750C80750D03780C121ABC750C817534
:102F78000D03780C121ABC740812189D121AD37912
:102F8800161239281208A07408121868E9F50C708E
:102F98000B1239241204F2800F750C018508828502
:102FA80009831230B9123B9C850C0802307A7402EE
:102FB80012189DAC82AD83850C82850D8312392E43
:102FC8001207808A108B11AC10AD11EC4D6043854F
:102FD8000C82850D83A3A3121AD375108075110373
:102FE8007810121ABC7510817511037810121ABC6A
:102FF800740812189D121AD379161239281208A0CB
:103008007408121868E9F509700B1239241204F8CB
:10301800800F750901850C82850D831230B9123B2A
:103028009C850908804C851882851983AC82AD83FC
:1030380012086A803A851882851983AC82AD83129A
:103048000870802B851882851983AC82AD8312089D
:1030580076801C851882851983AC82AD8312087C22
:10306800800D851882851983AC82AD83120882E9A8
:10307800F508E50860298E828F83A3E06414601F39
:10308800850E82850F83E09003801230C31243E1DE
:10309800900381123B9CE508A31230CB1204D4EEB6
:1030A800FAEFFB1207FE023A88F50CEF3400F50D33
:1030B800221243E585188285198322F085188285B6
:1030C800198322F07C807D03850A82850B8312395F
:1030D800322274EE1218A974FC1218528A0A8B0B49
:1030E8008C0E8D0FEA2405F508EB3400F5097C15E4
:1030F8007D0079007A807B03121026E5082402F50A
:103108000CE5091230B485188285198385821085EB
:1031180083117810121ABC850882850983A3A3A39A
:10312800A31235DE121ABCE5082405F510E50934AA
:1031380000F5117810121ABC850C82850D8312399E
:103148003812077A74061218688A108B11AE10AFFD
:1031580011E50A2402F50AE50B123B83EE4F7003D2
:103168000232A08017740212189D12392E888289A3
:1031780083EAF0A3EBF0900380E004F0900380E092
:10318800C3940540030232A0E4F510F5117810123B
:103198001ABC7510697511037810121ABC75106A7B
:1031A8007511037810121ABC740612189D121AD3DE
:1031B8007910EEFCEFFD1239281208A074081218D5
:1031C80068E9705E850882850983A3A3A3A3A3A3E6
:1031D800A3E0F8900369E06870481235DE121ABC63
:1031E8007C6A7D03E5082408FAE5093400FB12101F
:1031F800207402121868E960298E828F83A3A3A322
:10320800A312392E900380E0F5107402781012187A
:103218003F74812510F58274033511F583EAF0A314
:10322800EBF0740212189D858210858311781012B4
:103238001ABC740212189D121AD3850C82850D834C
:103248001243F612078674041218688A108B11AE9E
:1032580010AF11900380E0F510751100740278101A
:1032680012183F74802510F874033511F988828983
:1032780083A3122DCC7003023164E82403F8E934E7
:1032880000F9EE4F600302316D8882898374FFF084
:10329800A3F0900380E004F0900380E0600A123904
:1032A800241204E67900800B850882850983123B85
:1032B80093790A023A8874EA1218A974FE1218520D
:1032C8008C128D13EA2405F50CEB124560122D3E85
:1032D800750800750900EA2402F510EB3400F511B1
:1032E80085188285198385820A85830B780A121AC4
:1032F800BC850C82850D83A3A3A3A31234A0121A44
:10330800BCE50C2405F50AE50D123B83780A121A70
:10331800BC850C82850D831243F412077A74061259
:1033280018688A0A8B0BEA450B7003023451EA24A9
:1033380004F50EEB123496122D3E8A828B83A3A3DA
:10334800A3E0F985108285118312392E120768E9E6
:10335800F5096003023451E4F514F5157814121ACE
:10336800BC7514697515037814121ABC75146A753E
:1033780015037814121ABC740612189D121AD37900
:1033880013AC0AAD0B85108285118312392E1208F1
:10339800A07408121868E9F5096003023451900313
:1033A80069E0F8E5087009E02402900381F08017CD
:1033B800900381E0FCE82402FAE43400FBEA6C7034
:1033C80001EB6003023455850882AA821235D59430
:1033D800141235CD5073850E82850F83E0C0E074DA
:1033E800822A12348DD0E0F00508850E82850F837D
:1033F800A3E0C0E085080A7482250A12348DD0E063
:10340800F005089003691234A0121ABC7C6A7D0387
:1034180085080A7482250AFA74033400FB12100E18
:103428007402121868900369E02508F50874FF6EA5
:10343800700374FF6F6012EE24010EEF3400FFE595
:1034480008C3941450030232E8E5086013123819CF
:1034580085108285118312392E1204EC79008014AC
:10346800E509700375090A851282851383EEF0A3B6
:10347800EFF0A90974021218687F0E02197B8508FB
:103488000C7482250CF58274033400F58322340011
:10349800F50F850E82F583221241232274EE12184D
:1034A800A974FE1218528C0E8D0FEA2405F50CEB48
:1034B8001230B4750B00900380E4F0F50AEA240298
:1034C800F508EB3400F5098049900380E0FA900391
:1034D80069E0F81235D594171235CD400D90038068
:1034E800E0F87416C398900369F01235DE121ABC1E
:1034F8007C6A7D0374812AFA74033400FB12100E6F
:103508007402121868900369E0F8900380E028F0CC
:10351800050AE50C2416F582E50D123491E0F8E56C
:103528000AC39840030235B6900380E0C39416504E
:103538007DE50AC333F8E433F9E50C28FEE50D39D7
:10354800FF851882851983AC82AD838E828F8312A2
:10355800392E1207808A108B11AC10AD11EC4D700A
:1035680005750B018043E4F510F5117810121ABCAB
:103578007510697511037810121ABC75106A7511E7
:10358800037810121ABC740612189D121AD37916F1
:1035980085088285098312392E1208A0740812182A
:1035A80068E9F50B70030234D1123B8F80107C80E0
:1035B8007D0385088285098312392E1204FEA90B22
:1035C8007402023A8AE99400C365D03322EA28F8E3
:1035D800E43400F9E822E0F510751100781022743F
:1035E800EA1218A974FC1218528A0C8B0D8C128DD1
:1035F80013EA2405F50AEB123B83750800750900E8
:10360800E50A2402F510E50B3400F51174021218CE
:103618009D85820E85830F780E121ABC850A8285D5
:103628000B83A3A3A3A31240CF121ABCE50A240557
:10363800F50EE50B3400F50F780E121ABC851082D2
:10364800851183123B8912392812077A74061218D9
:10365800688A0E8B0FAE0EAF0FE50C2402F50EE54F
:103668000D3400F50F80408882898374FFF00508C7
:1036780012348674FFF00508900369E0F50C750DA7
:1036880000780C121ABC7C6A7D0385080C748225AC
:103698000CFA74033400FB12100E740212186890AE
:1036A8000369E02508F508EE4F60718E828F83A3C9
:1036B800A3A3E0F9850E82850F8312392E120768BD
:1036C800E9F509EE24041230B1E97044E4F514F583
:1036D800157814121ABC7514697515037814121A22
:1036E800BC75146A7515037814121ABC740812187C
:1036F8009D121AD37911EEFCEFFD850E82850F839A
:1037080012392E1208A07408121868E9F509602702
:10371800850C82850D8312380F123B9CE5087003D7
:103728000237F5123819850E82850F8312392E1249
:103738000504790002380A850882AA82EA9003699A
:103748007009E02404900381F08022E0F89003815E
:10375800E0F514E82404FCE43400FDEC6514700181
:10376800ED70C01235D594121235CD50B6850C8245
:10377800850D83E0C0E074822A12348DD0E0F00514
:1037880008850C82850D83A3E0C0E0123486D0E062
:1037980012382B85820C85830D780C121ABC7404A0
:1037A80012189D121AD38510828511831243F612BE
:1037B800078674041218688A0C8B0DAE0CAF0D8541
:1037C800080C7482250CF874033400F9EE4F70036A
:1037D80002366F851882851983E0888289831238BA
:1037E8002BA3E0C0E0123486D0E002367DE50970F4
:1037F8000375090A850A82850B8312380F123B9CD0
:10380800A909740402347E1243E585128285138364
:1038180022900381E0F5F0E50884900380F07C8035
:103828007D0322F005088518828519832274EC121D
:1038380018A974FE1218528A088B098C0E8D0FEA8B
:103848002405FEEB3400FF851882851983AC82AD10
:10385800838E828F8312392E1207808A0A8B0BEE91
:1038680024181230B1EA450B70030238FF123A717E
:10387800503285188285198312392E1208948A10BD
:103888008B11EA4511606B7912AC0AAD0B85088281
:1038980085098312392E8510828511831218A7E9AC
:1038A800F50A7058E4F50AF50B780A121ABC8E82EC
:1038B8008F83A3A3E0F50A780A121ABCEE24031238
:1038C8003B80780A121ABC8E828F8312393812080C
:1038D800A67406121868E9F50A7021850C82850D10
:1038E80083E0701F85088285098312392E12050A24
:1038F8008011750A0E8009750A018004E50A6003C3
:10390800123B8F850C82850D83E06004790080026C
:10391800A90A74021218687F0C02197B7C807D0347
:10392800850A82850B8312393222E0FAA3E0FB2252
:10393800E0FCA3E0FD8508828509831239322274F0
:10394800EE1218A974FE1218528A088B098C0C8D75
:103958000DEA2405FEEB3400FF750E0085188285FC
:103968001983AC82AD838E828F8312392E12078021
:103978008A0A8B0BEA450B7003023A5D123A7150C2
:103988003585188285198312392E1208948A0E8B70
:103998000FEA450F605E7912AC0AAD0B8508828587
:1039A800098312392E850E82850F831218A7E9F52F
:1039B8000E6003023A60850882850983123C77AA63
:1039C8000AFB1208888A108B11A810A911E84970FF
:1039D8001E7AFF7BFF1208888A108B11A810A91184
:1039E800E849606C88828983E50AF0A3E50BF075E5
:1039F8000A008007750E0E805F050A900366E0FADC
:103A0800E50AC39A504AE50A75F017A4FAABF0889C
:103A1800828983A3A3E02AFAA3E03BFB8A828B83F3
:103A2800123B89EC4D70D2750A17750B00780A1293
:103A38001ABCEEFCEFFD12100E7402121868EEFCB0
:103A4800EFFD85088285098312392E12051080142E
:103A5800750E098003750E011243DD850C82850DF4
:103A680083123B9CA90E0235C8E5082402F508E537
:103A7800093400F5098A828B83A3A3A3E0A2E52277
:103A880074041218687F0A02197B74EC1218A98C46
:103A9800108D11EA2405F50CEB1230B4750F00EA0D
:103AA8002402F50AEB123B83850A82F58312392E2C
:103AB8001208888A088B09EA45097003023B757564
:103AC8000E008071850C82850D83E06401704F8E35
:103AD800828F83A3A3121AD38E828F83A3A3A3A357
:103AE800E0F5127513007812121ABCEE2405F512CF
:103AF800EF3400F5137812121ABC1239281208A6EE
:103B08007406121868E9F50F6014850C82850D8318
:103B1800E4F01243DD851082851183123B9C7C17EB
:103B28007D007900EEFAEFFB1210268E828F83E477
:103B3800F0A3F0050E900366E0F8E50EC398501E5A
:103B4800E50E75F017A4F8A9F0850882850983A306
:103B5800A312456A123B89EC4D6003023ACC8508F2
:103B68008285098374FFF0A3F0E50F7006123928E7
:103B7800120516A90F02391FF50AEF3400F50B22BA
:103B8800A3E0FCA3E0FD228E828F831243E5850E1D
:103B980082850F83E8F0A3E9F022C082C0839003F6
:103BA80062E06A7003A3E06B70067A627B038004AC
:103BB8007A007B00022E8FC082C08378008C828DB1
:103BC80083E06A7003A3E06B7010E875F003A4F853
:103BD800A9F0EC28FAED39FB8015088C828D83A3B7
:103BE800A3A3E06A7003A3E06B60DF7A007B0002A6
:103BF8002E8F74F61218A91208528A828B83E582D6
:103C0800458370067A007B008007A3A3A3A312391B
:103C18002E02428E74F21218A9E9FE740E12189D33
:103C2800123C77741012189D1240EF8C828D83E03D
:103C380064027036A31243EBF50CA3E0F9A80C74E8
:103C4800026870037429697021750C02750D00787B
:103C58000C121ABC7808121ABC780A121ABCEEF9AF
:103C68001208CA740612186880027901024312E029
:103C7800F50AA3E0F50B2274E81218A974FB1218D0
:103C880052E9851882851983F08A168B17ECFEEDA8
:103C9800FF751000741D12189D1243E1741D12184F
:103CA8009D123B9C8E828F83A3A3A3E0A2E4502D98
:103CB800741D12189D12392E1208948A828B83E57E
:103CC80082458370030240C0790AEEFCEFFDAA1614
:103CD800AB171218A7E9F51060030240C3741F124E
:103CE800189D1240EF742112189D123C777423120C
:103CF800189DE0F50EA3E0F50F8E828F83E0640235
:103D0800600302406EA31243E1850882850983A3FC
:103D1800858212858313EE24061230B18882898346
:103D2800E0FAA3E0F9EA2400F514E439F51578146B
:103D3800121B46010000280128633D0700022828BD
:103D48003E0328953D00295F3F01298A3F02292B20
:103D58003F03295F3F042909406E40E50E450F6087
:103D680003024069850C82850D831240E4FAE9FB61
:103D78008A828B83E0850A82850B8312411A121A84
:103D8800BC8A828B83A3E0FCA3E0023FF3E50E45E7
:103D98000F6003024069850A82850B837401F01263
:103DA80040F7850882850983F07C007D008E828F2C
:103DB80083A3A3A3A3E02401FAA3E03400FB120722
:103DC80080EA4B60418A828B83E02402F8850A826C
:103DD800850B83E028F0EA2404F8EB3400F98882A4
:103DE8008983E085128285138312412C12411A12AD
:103DF8001ABC8A828B83123B88E5082403FAE509FA
:103E08003400FB023FF8850A82850B83E02404F026
:103E18007C047D007900AA12AB131210260240C35D
:103E2800E50E450F60030240691240F7FEA3E0FF6C
:103E3800850A82850B837404F0EE850882850983E0
:103E4800F0EF851282851383F0740312189DAC82FB
:103E5800AD83EEFAEFFB1207808A0C8B0DEA450D55
:103E68007003023F0C8A828B83A3A3122D3A74013C
:103E780012189D85820E85830F780E121ABC740560
:103E880012189D121AD37CFF7DFF12078674041244
:103E980018688B0FEA450F7033850C82850D8312E5
:103EA80040CF121ABC850C82850D83A3121AD37CCD
:103EB800027D007AA47B851205B27404121868E9A1
:103EC800700A740112189D74FFF0A3F08E828F831C
:103ED800E064027039750C02750D00780C121ABC7A
:103EE8008E828F83123B88E5082404FAE5093400A2
:103EF800FB12100E7402121868850A82850B83E083
:103F080024028009740112189DEEF0A3EFF07401E9
:103F180012189D1240E0F0740112189DA31240D8A7
:103F2800024063E50E450F6003024069850C8285F7
:103F38000D83123B89AA16AB171208BE850A828523
:103F48000B837402F0EA850882850983F085128262
:103F5800851383EB024066E50E450F600302406956
:103F68001240F7F8A3E0F9850A82850B837402F002
:103F7800E8850882850983F0E98512828513830222
:103F88004066850C82850D8312392E121008EAFCD2
:103F98008C82A882C3950EE4950F405FE8650E7089
:103FA80002E50F70047C008022851882851983E061
:103FB800FAE50E2AFAE50F3400FBC3EA98EB940001
:103FC8005003E08005E50ECCC39CFCEC850A828595
:103FD8000B83F08C0A750B00780A121ABC850C82C8
:103FE800850D83E0250EFCA3E0350FFDAA08AB097B
:103FF80012100E74021218680240C37510070240AE
:10400800C3E50E450F705A850C82850D831243E176
:10401800850A82850B837407122D461240D8122D0B
:1040280046A3E0851282851383F0E82402FAE93476
:1040380000FB8A828B831240D81241071240E0A30A
:104048001241101240E9F0E82405F8E93400F98833
:104058008289831240E9A312412CA3A3A3A3F08071
:104068005A75100B8055741D12189D12392E12089E
:10407800528A828B83E5824583603D1243E1880C36
:10408800890DE8450D6031780E121ABC780A121AAB
:10409800BC7808121ABC740612189DE0F9EEFCEF01
:1040A800FDAA16AB17850C82850D831218A7740616
:1040B800121868E9F510800375100EA9107405121E
:1040C80018687F1002197BE0F50E750F00780E2234
:1040D800E085088285098322124136221243E5E8E9
:1040E80022124136A3A322E0F508A3E0F5092285B0
:1040F8000C82850D83E0F8A3E0F5838882E022A393
:10410800A3F08A828B83A322F088828983A3A3A346
:10411800A322F08A828B8312412322E0F50A750BD1
:1041280000780A22F088828983A312413622E0852A
:104138000882850983A3A32274EE1218A974FE12BB
:1041480018528A0A8B0BECFAEDFB741412189DE0D6
:10415800F510A3E0F511741612189DE0FE741812FC
:10416800189DE0F50EA3E0F50F851882851983AC3C
:1041780082AD831207808A0C8B0DEA450D60498554
:10418800188285198312392E1208528A828B83E588
:10419800824583602FA3A31240EFE50845096024F8
:1041A800780E121ABC7810121ABCEEF9AC0CAD0DD0
:1041B800AA0AAB0B8508828509831218A774041212
:1041C80018688006790E800279010235C874F612E3
:1041D80018A974FE121852740C12189D1240E48526
:1041E8001882851983F0740112189DE9F0E4F50826
:1041F800F5097808121ABC7508027808121ABC74F6
:104208000412189D8582088583097808121ABC1241
:1042180008A674061218687402121868806874F781
:104228001218A9EAFEEBFF89087C997D031208BEE3
:10423800EA5402600BA908EEFAEFFB120774800239
:104248007901022C4274F61218A974FF6A7003747B
:10425800FF6B70168C828D83124293E4F08C828DF2
:1042680083A3A3A3124293A3801812088E8A088BF3
:1042780009A808A909E849600D8882898374FF1292
:104288002D44A3A3E4F07F0202197B74FFF0A3F08E
:104298008C828D83A3A32274F61218A912088E8A21
:1042A800828B83E58245836006A3A3E0FA80027AC5
:1042B800007B0080D174F21218A98A088B09ECFEE1
:1042C800EDFF740E12189DE0F50A12088E8A0C8B09
:1042D8000DA80CA90DE8497026EEFCEFFD7AFF7BCE
:1042E800FF12088E8A0C8B0DA80CA90DE8497004E2
:1042F8007911801688828983E508F0A3E509F0889A
:10430800828983A3A3E50AF079007F0602197B74EA
:10431800EE1218A9EAFEEBFF8C088D09890C7414BB
:1043280012189D1243E1741612189D12392E750D3C
:1043380000E84960030243D57402650C6003024338
:10434800D0741212189D1243EBFCA3E0F9EC240080
:10435800F50EE439F50FEAF4F8EBF4F9EC58F8E562
:104368000F59F9E849705CE5082406F8ED3400F9BE
:10437800880A890B8882F5831243F61208BE8A10D0
:104388008B11E50E65107004E50F65116042780E1B
:10439800121ABC850A82850B831243F61208C4746C
:1043A80002121868E9F50D7027780E121ABC8508F4
:1043B80082850983A3A31243F41208DC740212183D
:1043C80068800D750D808008750D0D8003750D0BC7
:1043D800A90D023A8D8E828F831243E522E0F8A35D
:1043E800E0F9221243E588828983E022A3A3E0FC56
:1043F800A3E0FDEEFAEFFB2274E81218A974E712A5
:104408001852851882851983EAF0A3EBF08C168D73
:1044180017890E750800750900743112189DE0F5AA
:1044280012A3E0F513743312189DE0F514A3E0F518
:1044380015743512189DE0F50FE50975F003A4F819
:10444800A9F085188285198312456AE0F47003A3E0
:10445800E0F4700302454DEE2402F50CEF124560BE
:10446800E0700302454D85160A85170B780A121A63
:10447800BCAC14AD15AA12AB13120846740212187C
:10448800688A0A8B0BEA450B700302454DE4F51068
:10449800F5117810121ABC740612189D85821085C1
:1044A80083117810121ABC740912189D8582108520
:1044B80083117810121ABC851282851383A3A3A3D3
:1044C800A3121AD37914AC0AAD0B8E828F831239DA
:1044D8002E1208A07408121868E97069850A828586
:1044E8000B83A3A3A3A31243E1740212189D123BEA
:1044F8009C850C82850D83E0A2E05018A90E7402F9
:1045080012189DAC82AD838E828F8312392E1207CA
:1045180098E94208850C82850D83E0A2E15026E5E2
:104528000FF50A780A121AC0A90E740312189DAC66
:1045380082AD838E828F8312392E120792740112F4
:104548001868E942080509E509C3940250030244C2
:1045580041A90874190240C73400F50D850C82F58D
:104568008322E028FEA3E039FF8E828F832274F233
:104578001218A9EAFEEBFF890B7401650B600E7433
:1045880002650B706A7901120A98E97062EEFAEF17
:10459800FB1208888A088B09EA45096047750A00F2
:1045A800800B7C177D007900121026050A9003669F
:1045B800E0F8E50AC3985021E50A75F017A4F8A9B0
:1045C800F0850882850983A3A3E028FAA3E039FBD4
:1045D8008A828B83122E9670C98508828509837416
:1045E800FFF0A3F07C997D03EEFAEFFB1208B80206
:1045F800431274F21218A98A088B09ECFEEDFF74B5
:104608000E12189D123C77900FD0E0F4603D7A09A5
:104618007B00121038EA4B60328A828B8374B1F0C7
:10462800A3E4124109A3124107A3E508F0A3E50991
:10463800124656EEF0A3EF124656A3A3E50AF0A3DE
:10464800E50BF0900FD0E0F9121044024312F08A03
:10465800828B83A3A3A3A3A322C082C0839061906B
:104668007404F0A37448F0A37402F090618074405D
:10467800F09061BC7403F09061877419F0906265E2
:10468800741BF0906249E0C3941390619C400A74D3
:1046980009F090606674018007740DF0906066E41C
:1046A800F090619A7433F0A37455F09061A0743A55
:1046B800F09005BFE064017009C291900426746708
:1046C80080059004267461F0902BFEE49390618637
:1046D800F0902BF8E493F46027E493540FF890617A
:1046E80085E0686012E5C654804449F5C6E59E54E5
:1046F8007F644970F8E8F053C680E59E547F70FAED
:104708007905120DF20248BCC082C083E9540FF942
:10471800906185E0696012E5C654804449F5C6E5B4
:104728009E547F644970F8E9F053C680E59E547F33
:1047380070FA0248BCC082C083E5A8F853A87E90EE
:104748006181E4F0A3F0A3F0C2BA539AFEC289755E
:104758009B00C2C275E90075910075BF0075A9116B
:1047680075B905906181F0A374C0F0A3E4F0D2BAE2
:10477800439A0174805842A80248BCC082C083741E
:10478800F8121852900424E0F8A3E0F9E8497003FD
:104798000248B1900424E0544060237908851882C7
:1047A800851983AA82AB83120C54851882851983D4
:1047B800AA82AB83120948900424E054BFF0E05465
:1047C800806010790C7AE57B05120C54900424E083
:1047D800547FF0E0A2E0503190619A7433F0A374F2
:1047E80055F09061A0743AF09005BFE0640170093B
:1047F800C291900426746780059004267461F012B3
:10480800094E900424E054FEF0E0540260319061B7
:104818009A743FF0A3745AF09061A0747FF09005E9
:10482800BFE064017009D2919004267471800590EC
:104838000426746AF012094E900424E054FDF0E056
:1048480054046013902BFCE493906186F012095491
:10485800900424E054FBF0E054086013902BFDE42E
:1048680093906186F0120954900424E054F7F0E024
:1048780054106013902BFEE493906186F012095453
:10488800900424E054EFF0E05420600A1209549098
:104898000424E054DFF0A3E05401600D120B7C12F5
:1048A800095A900425E054FEF0740812186802486A
:1048B800BCF0A3F0D083D08202013574EC1218A9A1
:1048C80074F4121852851882851983AC82AD8375E9
:1048D80083857582317404121765902BFC93F460FC
:1048E80003024A4F907808E0C394025003024A2F0B
:1048F800740412189DAC82AD837583847582E67446
:104908000812176585188285198385821285831395
:10491800740412189DAC82AD83750EFF750FFF7F6E
:10492800FF7E00750C48750D78801574086E70034D
:104938000249C374096E70030249C3740A6E607B2E
:10494800850C82850D8378081217228C828D83A9A5
:1049580009E50AC9F8881074187808121650E51085
:104968004508F8C3E098A3E099850C82850D837803
:104978000812172240188C828D8374187808121632
:1049880050E5104508F8E0C398F8A3E0801C7418B7
:104998007808121650E5104508FAE9FB8C828D83D9
:1049A800E0F8A3E0F9EAC398F8EB99F9C3E8950EA3
:1049B800E9950F5006880E890FEEFF0EE50C2404CA
:1049C800F50CE50D3400F50DEEC3941350030249C0
:1049D8003374FF650E700474FF650F60238F0874CD
:1049E80002780812183F74482508F582747835094A
:1049F800F5837808121722851282851383E508F05B
:104A0800EC2402FCED3400FD851282851383A38516
:104A18008212858313740C12189DE5826C7003E56D
:104A2800836D600302492175080175090078081231
:104A38001ABC740212189DAC82AD837AFF7B0A12ED
:104A480012AE7402121868740C1218687F0C0219DE
:104A58007BC082C0839061AE7468F0A3746AF090E2
:104A6800624574FBF0A304F053F4FD43FE02900585
:104A7800BF7401F09061A0E0643A90619A70237469
:104A880033F0A37455F09061A0743AF07401640196
:104A98007009C29190042674678028900426746176
:104AA8008021743FF0A3745AF09061A0747FF07471
:104AB8000164017009D291900426747180059004F4
:104AC80026746A0248BB7F0802197BC082C08390A3
:104AD8000571E06401700A900576E06004790C8045
:104AE8000279000248BCC082C08375E1F190057468
:104AF800E0605B14600914605F14605714705E1204
:104B08000B8E90056AE0F97A6B7B05120D747AD6E4
:104B18007BBE7C897D8E120DAA7A557B557C557D8E
:104B280000120D80900575E0F9120D8C7901120DB7
:104B3800E6900568E0F8A3E0C82416F582E834009A
:104B4800F58374A6F0A3740BF079000248BC120B2D
:104B58009480AF120B9A80AA120BA080A5791280BC
:104B6800EA74F01218A975D90D900555E0A2E0E491
:104B7800331313F890056AE0C4333354C048440132
:104B8800F5D97868790588828983A3A3A3E0F5D944
:104B980088828983A3A882A983E8646E7003E96484
:104BA8000570E37855790588828983A3E0F5D9886B
:104BB800828983A3A882A983E8645B7003E96405FA
:104BC80070E575E195900555E0F97A567B05120D6B
:104BD8007A900FF2743AF0A3740BF0A3749CF0A3CC
:104BE800740CF0A3749CF0A3740CF0A3749CF0A351
:104BF800740CF0A37440F0A3740BF0A3749CF0A39E
:104C0800740CF0A37458F0A3740BF0901000749C0B
:104C1800F0A3740CF0A3749CF0A3740CF0A3749C20
:104C2800F0A3740CF0A3749CF0A3740CF0A3749C10
:104C3800F0A3740CF0A3749CF0A3740CF0900574AA
:104C4800E064019005687012E0F8A3E0F5838882BB
:104C5800A3A37508007509088010E0F8A3E0F583A0
:104C68008882A3A3750804750900750A00750B00EE
:104C7800780812169B750CFF750DFF750EFF750FE2
:104C8800007808790C1216E9900568E0F8A3E0C8E6
:104C9800240EF582E83400F5837808121731900560
:104CA80068E0F8A3E0C82414F582E83400F58374BA
:104CB80013F09004227402F0024ACE74F71218A975
:104CC80090057AE02407F5D990056AE0C433335497
:104CD800C0F5D97868790588828983A3A3A3E0F50C
:104CE800D988828983A3A882A983E8646E7003E9BE
:104CF800640570E390057AE0601F78687905FAE842
:104D08002413F582E93400F583E0F5D98882898394
:104D1800A3A882A9831AEA70E690059AE02407F509
:104D2800D990056AE0C4333354C04404F5D978688F
:104D3800790588828983A3A3A3E0F5D9888289832A
:104D4800A3A882A983E8646E7003E9640570E39000
:104D5800059AE0601F78687905FAE82433F582E956
:104D68003400F583E0F5D988828983A3A882A983D2
:104D78001AEA70E675E195900FF27446F0A3740B89
:104D8800F0A3749CF0A3740CF0A3749CF0A3740CAF
:104D9800F0A3749CF0A3740CF0A37440F0A3740BFC
:104DA800F0A3749CF0A3740CF0A37458F0A3740BD4
:104DB800F0901000749CF0A3740CF0A3749CF0A302
:104DC800740CF0A3749CF0A3740CF0A3749CF0A36F
:104DD800740CF0A3749CF0A3740CF0A3749CF0A35F
:104DE800740CF0900568E0F8A3E0C8240EF582E89A
:104DF8003400F58374FFF0A3F0A3F0A3F0900568E6
:104E0800E0F8A3E0C82414F582E83400F5837412AE
:104E1800F09004227401F0FF02197B74F71218A9AC
:104E280090057AE02407F5D990056AE0C433335435
:104E3800C04402F5D97868790588828983A3A3A339
:104E4800E0F5D988828983A3A882A983E8646E7073
:104E580003E9640570E390057AE0601F78687905D6
:104E6800FAE82413F582E93400F583E0F5D988825D
:104E78008983A3A882A9831AEA70E675E195900F41
:104E8800F27452F0A3740BF0A37452F0A3740BF0F5
:104E9800A37452F0A3740BF0A37452F0A3740BF034
:104EA800A37452F0A3740BF0A37452F0A3740BF024
:104EB800A37458F0A3740BF0901000749CF0A374C2
:104EC8000CF0A3749CF0A3740CF0A3749CF0A3746E
:104ED8000CF0A3749CF0A3740CF0A3749CF0A3745E
:104EE8000CF0A3749CF0A3740CF0900568E0F8A390
:104EF800E0C8240EF582E83400F58374FFF0A3F0CF
:104F0800A3F0A3F0900568E0F8A3E0C82414F582A4
:104F1800E83400F5837414F09004227404F002510C
:104F2800EA74F71218A990057AE02407F5D99005D4
:104F38006AE0C4333354C04406F5D97868790588E3
:104F4800828983A3A3A3E0F5D988828983A3A88251
:104F5800A983E8646E7003E9640570E390057AE05C
:104F6800601F78687905FAE82413F582E93400F5BA
:104F780083E0F5D988828983A3A882A9831AEA7075
:104F8800E690059AE02407F5D990056AE0C4333322
:104F980054C04404F5D97868790588828983A3A325
:104FA800A3E0F5D988828983A3A882A983E8646EDF
:104FB8007003E9640570E390059AE0601F786879EA
:104FC80005FAE82433F582E93400F583E0F5D98859
:104FD800828983A3A882A9831AEA70E675E195906D
:104FE8000FF2744CF0A3740BF0A3749CF0A3740C30
:104FF800F0A3749CF0A3740CF0A3749CF0A3740C3D
:10500800F0A3749CF0A3740CF0A3749CF0A3740C2C
:10501800F0A37458F0A3740BF0901000749CF0A3E4
:10502800740CF0A3749CF0A3740CF0A3749CF0A30C
:10503800740CF0A3749CF0A3740CF0A3749CF0A3FC
:10504800740CF0A3749CF0A3740CF0900568E0F85D
:10505800A3E0C8240EF582E83400F58374FFF0A3BA
:10506800F0A3F0A3F0900568E0F8A3E0C82414F5D5
:1050780082E83400F5837415F09004227403F0027A
:1050880051EAC082C083900568E0F8A3E0C824060E
:10509800F582E83400F583E40248B974F71218A9D8
:1050A800900450E0F875F003A4C8AAF02AF97452E5
:1050B80028F8740439F9E82405FAE93400FB8A82EF
:1050C8008B83E0FCA3E0FD88828983A3A3A3A3A329
:1050D800A3A3A3A3ECF0A3EDF088828983A3A3A3E1
:1050E800A3A3A3A3E024FFF8A3E034FFF98A828BEB
:1050F80083E8F0A3E9F00251EA74F71218A9EAFE6E
:10510800EBFF9061D0E060030251DE75D90E75D9CE
:105118000375D904EE248BF582EF3400F583E5821C
:105128002408F8E5833400F9E0F5D9A3E86582702E
:1051380003E9658370F2EE2483F582EF3400F5838A
:10514800E5822404F8E5833400F9E0F5D9A3E8659D
:10515800827003E9658370F275E1957908EE248B16
:10516800FAEF3400FB120C487904EE2483FAEF348A
:1051780000FB120C487C00EEF8EFF9ECFAC3E49A55
:10518800FA95E0FBEE2AFAEF3BFBEA248AF582EB7C
:105198003400F583E0C0E0E824AAF582E93400F59C
:1051A80083D0E0F00C88828983A3A882A983ECC30A
:1051B800940840C7EE246FF582EF3400F583E0F8D9
:1051C800A3E0F9EE2471F582EF3400F583E8F0A34B
:1051D800E9F07901800279008008F0EEA2E092AF50
:1051E80079007F0102197BC082C08375D90275D905
:1051F8000375D90575E195EA246FF582EB3400F55E
:1052080083E0F8A3E0F9EA2471F582EB3400F58332
:10521800E8F0A3E9F079010248BC74F61218A9EA8B
:10522800FEEBFF9005C57406F07508C5750905788D
:1052380008121ABC7C017903120C907402121868C7
:1052480075D90675D9037582C5758305E0F5D9A3A7
:10525800E58264CA7004E583640570F075E1959091
:105268000422E06408701EEE246FF582EF3400F526
:1052780083E0F8A3E0F9EE2471F582EF3400F583BA
:10528800E8F0A3E9F079010254F074F61218A9EADB
:10529800FEEBFF9061D0E0706678019005C5740B55
:1052A800F0900422E0640770197508C5750905783F
:1052B80008121ABC7C017903120C90740212186847
:1052C8007805740128F5D975D9037582C5758305E4
:1052D800E8FAE0F5D9A31AEA70F875E195EE246FBB
:1052E800F582EF3400F583E0F8A3E0F9EE2471F5D8
:1052F80082EF3400F583E8F0A3E9F07901800279C0
:10530800000254F074F71218A9EAFEEBFF75D903EE
:1053180075D90375D90DEE24DDF582EF3400F583D8
:10532800E0F5D975E1957904120DB0EE246FF58298
:10533800EF3400F583E0F8A3E0F9EE2471F582EF8D
:105348003400F583E8F0A3E9F079010251EA74F634
:105358001218A9EAFEEBFF9061D0E0F87480C398B8
:10536800FAEE2482F582EF3400F583E060047804D5
:1053780080027800E8240BF8EAC398500302541B13
:105388007D099005C5EDF0EE24E2F8EF3400F97AD6
:10539800C67B057C0888828983E08A828B83F088B3
:1053A800828983A3A882A9838A828B83A3AA82ABDA
:1053B800831CEC70E0EE2482F582EF3400F583E084
:1053C800601D7508C57509057808121ABC7C09792D
:1053D80003EEFAEFFB120C9074021218687D0D743C
:1053E800012DF5D975D9037582C57583058D08E03A
:1053F800F5D9A31508E50870F675E1957904120D3D
:10540800B0EE241DF582EF3400F583E4F0A3F079C3
:1054180001800279000254F074F61218A9EAFEEB32
:10542800FF9061D0E0F87480C398FAEE2482F58288
:10543800EF3400F583E06004780480027800E82403
:1054480008F8EAC39850030254EE78069005C5742C
:105458000CF090043FE09005C6F0900440E0900501
:10546800C7F0900441E09005C8F0900442E0900530
:10547800C9F0900443E09005CAF0EE2482F582EF6B
:105488003400F583E0601B7508C5750905780812B6
:105498001ABC7C067903EEFA120C90740212186892
:1054A800780A740128F5D975D9037582C5758305FD
:1054B8008808E0F5D9A31508E50870F675E195792F
:1054C80004120DB0EE246FF582EF3400F583E0F896
:1054D800A3E0F9EE2471F582EF3400F583E8F0A338
:1054E800E9F07901800279007F0202197B74F612D3
:1054F80018A9EAFEEBFF9061D0E0F87480C398FA2F
:10550800EE2482F582EF3400F583E06004780480AD
:10551800027800E82404F8EAC39850030255CF78CB
:10552800029005C5E8F0EE24F4F582EF3400F58327
:10553800E09005C6F0EE2482F582EF3400F583E0B2
:10554800601B7508C57509057808121ABC7C0279B4
:1055580003EEFA120C907402121868780674012887
:10556800F5D975D9037582C57583058808E0F5D91D
:10557800A31508E50870F675E195EE2473F582EF3A
:105588003400F583E4F0EE247FF582EF3400F583F0
:10559800E4F0EE241DF582EF3400F583E4F0A3F087
:1055A8007904120DB0EE240DF582EF3400F583E096
:1055B800F8A3E0F9EE2471F582EF3400F583E8F002
:1055C800A3E9F07901800279000254F074F6121808
:1055D800A99061D0E0F87480C398FCEA2482F5822F
:1055E800EB3400F583E06004780480027800E82456
:1055F80004F8ECC398405B79029005C57407F0EA9B
:1056080024F5F582EB3400F583E09005C6F0EA2432
:1056180082F582EB3400F583E060187508C57509DA
:10562800057808121ABC7C0209120C907402121830
:10563800687906740129F5D975D9037582C575830A
:1056480005E9F8E0F5D9A318E870F875E19579014E
:10565800800279000254F074F51218A9E9FCA2AF8F
:10566800E433F50AC2AF7D0080010DEA246EF582AD
:10567800EB3400F583E0F8EDC398501A8D08EA255D
:1056880008F8EB3400F9E8246AF582E93400F58378
:10569800E06C70D68024EA246EF8EB3400F9E0FE62
:1056A800EA2EFAEB3400FBEA246AF582EB3400F5C3
:1056B80083ECF088828983E004F0E50AA2E092AFE7
:1056C8007F0302197B74F61218A9A2AFE433FDC256
:1056D800AFEA246EF582EB3400F583E014F07C0029
:1056E80060368C08EA2508F8EB3400F9E8246BF5F5
:1056F80082E93400F583E0C0E0E8246AF582E93401
:1057080000F583D0E0F00CEA246EF582EB3400F566
:1057180083E0F8ECC39840CAEA246DF582EB3400C4
:10572800F58374FFF0EA2469F582EB3400F583E42D
:10573800F0EDA2E092AF0254F0C082C083E5A8F871
:10574800C2AFEA246AF582EB3400F583E9F0EA2473
:1057580069F582EB3400F583E4F0E8A2E7A2E7926A
:10576800AF0248BC74F31218A9EAFEEBFFECFAED9D
:10577800FB8A828B83A3A3A3A3E0541FF0EE2436F5
:10578800F582EF3400F583E4F0F50AEEFCEFFD8ACC
:10579800828B83E0C0E0EC245DF582ED3400F58374
:1057A800D0E0F0750B00E50A33333354F8F50C8A72
:1057B800828B83E0F508750900E50B78081218203C
:1057C800E508A2E0502FEE2436F8EF3400F988827D
:1057D8008983E0F508EE2508F508EF3400F509E5BA
:1057E800082438F582E5093400F583E50CF0888251
:1057F8008983E004F0050B050CE50BC3940840AF62
:10580800050A8A828B83A3AA82AB838C828D83A3A9
:10581800AC82AD83E50AC3940550030257977F0510
:1058280002197B74F71218A990044EE06401700302
:105838000259897A00900454E0600302598974017E
:10584800F0A3E4F0A3F09004B404F09004B9F0904D
:105858000457E4F0A3F0A3F0A3F090046104F090DF
:105868000487E4F090046AF0A3F0A3F0A3F0A3F097
:10587800A3F0A3F09004D1F09004C5F09004BA749A
:1058880080F0A3E4F09004C0F090053CF0A3F0A3EE
:10589800F0A3F0A3F0A3F0A3F0A3F0900545F090D7
:1058A80004D4F0900524F0A3F0A3F0A3F0A3F0A390
:1058B800F0A3F0A3F0A3F0A3F0900530F090053228
:1058C800F090052EF0900548F0A3F0A3F0A3F0A304
:1058D800F0A3F0A3F0A3F0784E7904E8246EF582E3
:1058E800E93400F58374FFF00A88828983A3A882CB
:1058F800A983EAC3940440E37A4E7B04785C790573
:1059080088828983E0C0E0EA2461F582EB3400F5FF
:1059180083D0E0F088828983A3A882A9838A828BB6
:1059280083A3AA82AB83E864617003E9640570D03D
:105938007A4E7B047835790488828983A3E0C0E0B5
:10594800EA24E6F582EB3400F583D0E0F08882891A
:1059580083A3A882A9838A828B83A3AA82AB83E8C4
:10596800643D7003E9640470CF90044EE004F06471
:10597800017008900456E0900450F07A527B04803D
:10598800047A007B000251EAC082C083900455E487
:10599800F0900454F090044EF0A3F0A374FFF07557
:1059A800E1F10248BCC082C08378007900900455B8
:1059B800E060047852790488828983A3A3A3A3E0D2
:1059C800F90248BC74F61218A9EAFEEBFFEE24634C
:1059D800F582EF3400F583E0F8A3E0F9E8497003B5
:1059E800025A71EE2463F8EF3400F97A007B00A2C2
:1059F800AFE433F508C2AF88828983E0FCA3E0FDF9
:105A0800EC4D603A88828983E0FAA3E0FB8A828BB6
:105A180083E0FCA3E0FD88828983ECF0A3EDF08AA3
:105A2800828B83E4F0A3F088828983E0FCA3E0FD05
:105A3800EC4D700A88828983A3A3E4F0A3F0E508FB
:105A4800A2E092AF1213E0900562E004F0900563C3
:105A5800E004F0EE2463F582EF3400F583E0F8A368
:105A6800E0F9E84960030259EB8E828F83A3A3A370
:105A7800E0600F8E828F83A3A3A3E4F090044FE02D
:105A880014F090044EE014F0700690045074FFF087
:105A98008E828F83A3A3E4F0900561E0700D9004DB
:105AA8004FE0640170057900120D92EEFAEFFB12D7
:105AB8000CC00254F074F71218A9EAFEEBFF8E82AC
:105AC8008F83A3A3A3A3E0FA7B0012099CEEFAEF4D
:105AD800FB120C12120CA80251EAC082C08378355E
:105AE800790488828983A3E4F088828983A3A882C1
:105AF800A983E8643D7003E9640470E69004367491
:105B0800010248BB74F61218A9EAFEEBFFEC240365
:105B1800F8ED3400F988088909EC2407F8ED340019
