:020000040000FA
:0600000002011D0223278E
:03002B00022B3D68
:03003300022B1F7E
:03003B00022B9CF9
:03004300022ACDC1
:0300530002239AEB
:03006B00022B6104
:03007B00022A5BFB
:10008300022193E5C754F84401F5C7790122000022
:100093000080FB120086B90003020107E47921788E
:1000A30008B800028004F709D8FCE479297802B87B
:1000B30000028004F709D8FCE49003017828790D45
:1000C3008002F0A3D8FCD9FA781A90014D7A01BACC
:1000D30000028007E493A3F608DAF9900F28AA82B6
:1000E300AB8390014E789479048015E493A3AC829A
:1000F300AD838A828B83F0A3AA82AB838C828D83A8
:10010300D8E9D9E775820C7583D0740312012F7572
:100113008291758300740012012F75D000758137A9
:10012300751801751903759F00020096C09FF59F0E
:10013300E473D09F22D083D082C09FE493C0E07445
:100143000193C0E0740293F59F2201FF0000B40005
:100153000028002800283075A000A000A000A000FF
:1001630000080008E001F00010001000100010006B
:100173001000100050005000500010001000D00775
:100183000000000000000F000100050030750700AB
:100193001000010081FF00000000FFDF06FD06E5FF
:1001A30006FF02020208025000A0000000E803025A
:1001B300668601000099850268860100007F0F02B0
:1001C30052860100003303026886010000800F029B
:1001D30054860100004903026886010000810F0272
:1001E30056860100004B03026886010000820F025D
:1001F30078860800004C03026886010000830F0222
:100203005A86010000840FFF0100FF200266860169
:1002130000003186026886010000E80F025C860058
:10022300000000000250860300009903A90CA90CEA
:10023300A90CA90CA90CA90CA90CA90CA90CA90C13
:10024300A90CA90CA90C3D0F550F370FFFFFE06157
:1002530069636F2D656767110199010F12640401CA
:100263000266860100002B860268860100003910B1
:10027300024A860100003A100250860300000A0A6F
:10028300026E860100003B10020202020202020219
:1002930002010D00000010010266860100002E8697
:1002A3000268860100006510024486010000100AFE
:1002B3000268860100006610024286010000BF84C6
:1002C3000268860100006710024086010000A484D2
:1002D3000268860100006810023E86010000A083C8
:1002E3000268860100006910023C86010000B283A7
:1002F3000268860100006A10023A86010000C48386
:100303000268860100006B10026C860100008E8378
:100313000268860100006C10023686010000968494
:100323000268860100006D100234860100006E1021
:1003330001E803053F100AFF0001307503020106BF
:1003430000000000000000000000000000000000AA
:10035300000000000000000000000000FFFF060096
:10036300800CE80301000000000000000000000012
:10037300001409000000000000000000000000005D
:1003830000000000000005125000B400020A000241
:1003930001060302F0FFBF1400000000AD14C514F2
:1003A3000A43686172616374657269737469632077
:1003B30031000A43686172616374657269737469B9
:1003C300632032000A436861726163746572697302
:1003D30074696320330010436861726163746572EA
:1003E30069737469632034000A43686172616374DA
:1003F300657269737469632035000A4368617261C9
:100403006374657269737469632036000A436861B3
:10041300726163746572697374696320370002667D
:100423008601000028860268860100007D110272A1
:1004330086030000A90E0238860100007E110268BF
:10044300860100008F11027486030000BD0E02387E
:10045300860100009011026886010000A111027656
:1004630086030000D10E023886010000A211026843
:1004730086010000B311026486000000E50E0250FD
:1004830086030000E60E023886010000B4110268FC
:1004930086010000C511026286030000EC0E0238DB
:1004A30086010000C611026886010000D7110260B0
:1004B30086030000000F023886010000D81102688D
:1004C30086010000E911025886030000140F023868
:1004D30086010000EA110000000000000000120184
:1004E3003898BD03120138AFBD03120138E0BD03D4
:1004F3001201381BBE0312013845BE031201386FC7
:10050300BE0312013886BE031201389DBE031201D9
:1005130038B4BE03120138DDBE03120138F0BE0346
:1005230012013806BF0312013819BF031201384004
:10053300BF031201381BC3021201381FC402120188
:100543003857C4021201387AC40212013885C40232
:10055300120138A8C402120138B7C5021201388C3F
:10056300C60212013807C7021201388FC7021201EF
:1005730038CAC70212013801C8021201388FC802F3
:1005830012013868C902120138C8C902120138D3EE
:10059300C90212013852CA0212013855CA021201A5
:1005A3003858CA02120138E7CA02120138EACA02ED
:1005B3001201381ACB0212013844CB02120138322D
:1005C300CC02120138E4CC02120138C0FA02120143
:1005D30038E8FA0212013816FB021201384DFB0209
:1005E300120138ABFB02120138F6FB02120138414B
:1005F300FC0212013881FC02120138C7FC0212010D
:1006030038F5FC02120138B2FD02120138BCFD02BA
:10061300120138C9FD02120138FCFD02120138C86B
:10062300FE02120138D4FE02120138ECFE0212015E
:1006330038F6FE02120138DCCD03120138EACD038D
:1006430012013802CE031201381ACE03120138C840
:10065300CE0112013874CF01120138EFCF0112011C
:100663003810D1011201384CD101120138F5D101F2
:10067300120138DCD20112013840D401120138973B
:10068300D40112013818D50112013808D60112011C
:100693003855D601120138DBD6011201380DD701C6
:1006A30012013821D90112013863D90112013881AD
:1006B300D90112013804DA01120138D8DA01120122
:1006C30038A0DB01120138D8ED02120138ABEE027B
:1006D30012013854EF02120138A7EF021201385702
:1006E300F002120138E3F002120138CFF1021201D5
:1006F30038FEF10212013811F30212013859F302E4
:100703001201382EF4021201386AF40212013886FB
:10071300F4021201387BFF01120138019E0312011A
:1007230038179E031201383D9E03120138599F0367
:10073300120138639F0312013898A0031201389005
:10074300A10312013854FA0112013884FB0112018A
:1007530038B7FB0112013801FC01120138C8FD0151
:10076300120138A1AF011201380BB0011201386A2E
:10077300B1011201387AB101120138A7B101120196
:1007830038FEB101120138A7B201120138AEB3012C
:1007930012013878B401120138D8B5011201381B9F
:1007A300B601120138C0B6011201380DB7011201AA
:1007B3003833B70112013841B90112013846B90182
:1007C3001201384BBB0112013898BB011201380BDF
:1007D300BC011201383EBC01120138E0BC01120118
:1007E3003889BD01120138C1BD01120138C4BD01F0
:1007F3001201380CBE011201384CBE01120138A39C
:10080300BE01120138CDAA03120138E5AA03120171
:10081300382DAB0312013843AB031201388AAB0303
:100823001201389EAC031201382BAD031201387646
:10083300AD03120138102C001201381C2C001201D8
:1008430038572C001201389C2C001201385C2D0003
:10085300120138E22D00120138472E0012013873BD
:100863002E00120138AC2E00120138EA30001201BA
:1008730038CE3200120138B43400120138F7350093
:10088300120138453800120138573900120138A2D5
:100893003A00120138B23B00120138CF3B0012017B
:1008A300380A3C001201382C3C001201388F3C00FE
:1008B300120138504100120138E541001201383667
:1008C30042001201385D4200120138AF42001201AA
:1008D30038CD42001201382743001201381044007A
:1008E3001201388645001201380A46001201389A6F
:1008F3008403120138A48403120138E7840312012C
:1009030038028503120138928503120138BA850330
:10091300120138F785031201382E86031201385766
:100923008603120138CC8603120138E186031201D3
:1009330038F686031201382787031201383B8703F1
:100943001201386087031201389A8703120138C6EF
:100953008703120138498803120138928803120170
:1009630038BC8803120138E78803120138DCC90355
:1009730012013848B60212013876B602120138C4A1
:10098300B702120138A4B802120138C3B802120127
:100993003840B90212013883B902120138D9BA02B8
:1009A3001201389ABB0212013821BE02120138C269
:1009B300BE02120138B8BF02120138B5C0021201DB
:1009C300380FC2021201389AC2021201383EC7031D
:1009D300120138A7C703120138FBC70312013822DB
:1009E300C80312013853C8031201380F89031201D7
:1009F300387C8903120138C38903120138DB8A0367
:100A0300120138D78B03120138BA8C0312013855FF
:100A1300CD0212013897CD0212013869CE021201BC
:100A23003842CF021201383CD0021201381ED102E3
:100A330012013887D1021201383DD202120138B1B6
:100A4300D2021201381DD30212013846D302120119
:100A530038C0D30212013859D402120138BED4026D
:100A6300120138D3D40212013819D50212013832D7
:100A7300D50212013897D5021201389AD502120114
:100A830038D4A703120138FCA7031201383AA8038C
:100A9300120138F8A8031201385FA9031201387B49
:100AA300A903120138A3A903120138D3A903120120
:100AB30038E2A9031201385FAA0312013885AA0399
:100AC30012013890BF011201386EC101120138A022
:100AD300C301120138DCC30112013809C401120138
:100AE30038F3C4011201383EC50112013889C5012A
:100AF3001201389BC501120138DBC5011201381000
:100B0300C6011201385EC6011201388DC6011201F9
:100B130038B0C601120138FDC60112013882C7017F
:100B23001201389CC901120138DBCB011201381CB8
:100B3300CC01120138BECD01120138FFCD011201E3
:100B43003872CE0112013833A90212013831AA02D8
:100B5300120138CAB002120138EBB202120138B6E0
:100B6300B4021201381EB602120138714600120196
:100B7300382047001201384D4700120138934700CF
:100B8300120138D34800120138694A00120138E3D0
:100B93004A00120138FE4A00120138794B00120153
:100BA30038D34C00120138334E00120138394F004C
:100BB3001201389A5000120138B350001201381153
:100BC3005100120138FF5100120138325200120154
:100BD30038A252001201381C530012013866530028
:100BE300120138305400120138055500120138E45F
:100BF30055001201386F5600120138DD56001201FC
:100C0300385157001201387C57001201383B580005
:100C1300120138A05900120138BD5900120138DC05
:100C23005900120138CD5A00120138F25A0012014C
:100C3300381C5B00120138975B00120138F15B002E
:100C43001201385A5D00120138085E00120138495A
:100C53005E00120138FF8D021201384D8E0212011F
:100C630038598E02120138378F02120138688F0209
:100C7300120138998F02120138199002120138516A
:100C83009002120138A39002120138E0900212017F
:100C930038FD92021201382395021201380E970291
:100CA300120138F89802120138E87F001201388ED9
:100CB3009B01120138BE9B0112013897A201120158
:100CC300381CA40112013819AA0112013801AB0121
:100CD3001201383EAB0112013861AB0112013892A7
:100CE300AB011201389BAB01120138A5AB01120114
:100CF3003893AC0112013889AD011201387F8601A6
:100D03001201387E8A01120138848A01120138BF28
:100D13009101120138D89601120138339A03120156
:100D230038C99A03120138DF9A03120138559B031D
:100D3300120138C99B03120138079C031201387B47
:100D43009C03120138F49C03120138FD9C03120129
:100D530038099D031201381E9D031201385C9D035F
:100D6300120138729D03120138D19D03120138CA52
:100D73009103120138D79103120138F19103120143
:100D8300383092031201386E9203120138D3920362
:100D9300120138E89203120138F39203120138006A
:100DA3009303120138179303120138259303120199
:100DB300383093031201383C93031201384B9303E9
:100DC3001201385693031201387993031201382024
:100DD30094031201383094031201384A9403120128
:100DE30038679403120138839403120138A89403DB
:100DF300120138B39403120138C89403120138DC8A
:100E030094031201383D95031201384395031201EF
:100E1300384995031201384F95031201386795033A
:100E23001201389A95031201382AEC01120138AEE7
:100E3300EC011201385DED01120138BCEE01120123
:100E430038DDF001120138C9F101120138FEF10158
:100E530012013820F201120138CFF201120138C712
:100E6300F401120138F0F40112013882F501120184
:100E730038B4F501120138C1F50112013818F60131
:100E83001201383EF601120138ABF801120138AEF7
:100E9300F90112013806FA01120138B9DD01120114
:100EA30038C3DE01120138AADF01120138B4DF01B1
:100EB300120138D6DF01120138E2DF011201387B5B
:100EC300E101120138AAE101120138C6E20112015F
:100ED300381FE30112013885E40112013864E5018A
:100EE300120138C0E5011201382DE60112013868FC
:100EF300E601120138A7E60112013860E901120187
:100F0300387AE90112013806EA0112013814EA01BC
:100F13001201386DEA011201387BEA01120138EE41
:100F2300EA0112013852EB011201389CEB01120164
:100F3300380F7400120138317400120138577600EB
:100F43001201386C7900120138847A0012013837A3
:100F53007B00120138197C0012013852BF031201C1
:100F63003877BF03120138E9BF031201385EE60286
:100F730012013867E60212013870E602120138479F
:100F8300E702120138F8E8021201382EE9021201D1
:100F93003868E9021201389EE902120138D8E902E1
:100FA3001201380CEA0212013838EA0212013881C0
:100FB300EA02120138BBEA0212013804EB02120101
:100FC300385CEB0212013891EB02120138ECEB02B0
:100FD30012013826EC0212013877EC02120138AD07
:100FE300EC02120138E7EC0212013815ED0212018E
:100FF3003838ED021201383D7F00120138697F0055
:10100300120138C47F00120138CE7F00120138DE8E
:101013007F00120138BED502120138C8D502120171
:101023003806D6021201384FD60212013889D60289
:10103300120138E3D60212013804D702120138DC58
:10104300D902120138E5D90212013832DA0212014B
:10105300385BDA0212013865DA02120138D1DA029A
:1010630012013863DB02120138ADDB02120138E3EF
:10107300DB021201386FDC02120138B0DC0212010C
:1010830038E7DC02120138F9DC0212013818DD02FC
:1010930012013821DD02120138EEDD02120138F9A6
:1010A300CB03120138A7BB03120138DDBB031201C6
:1010B3003813BC031201385EBD0312013874CF0329
:1010C3001201388ACF0312013894CF03120138DE9C
:1010D300CF031201387DFF02120138008003120191
:1010E30038158003120138C58003120138058103C6
:1010F3001201381E8103120138598103120138A6E7
:101103008103120138D881031201381A82031201B4
:10111300381B84031201388D84031201383BC40346
:1011230012013864C40312013893C4031201382B2B
:10113300C50312013843C50312013885C5031201E3
:1011430038CAC503120138D5C50312013876C60360
:10115300120138A2B903120138ABB9031201381CCA
:10116300BA0312013830BA0312013885BB031201E6
:1011730038D8D103120138C8A40312013874A50367
:1011830012013854A603120138BBA603120138CE4C
:10119300B203120138FEB203120138A9B3031201DC
:1011A300384BB403120138A0AD03120138C5AD03A7
:1011B300120138EFAD0312013864D00312013879FC
:1011C3005E00120138DE60001201387F62001201F6
:1011D30038336300120138C663001201384B6400D0
:1011E300120138706400120138C667001201384CCE
:1011F30068001201387F6900120138B969001201D1
:1012030038EE6900120138AE6B001201380B6C0026
:10121300120138546C00120138BF6C0012013830CF
:101223006D00120138626D001201387A6D001201EF
:1012330038C36E00120138D36E00120138EE6F000E
:10124300120138107000120138467000120138FA8A
:101253007100120138877200120138C67200120140
:1012630038EA7300120138B3CE03120138C4CE0337
:1012730012013869CF0312013805D1031201384432
:10128300D103120138F0D103120138F0CC0312015B
:101293003800CD031201381BCD03120138CFCD0323
:1012A3001201386CB0031201389DB0031201388764
:1012B300B203120138F5CA031201387ACB031201C3
:1012C30038E0CB0312013899C803120138CDC803A3
:1012D300120138F6C8031201386DC903120138F739
:1012E300C00312013820C10312013886C103120161
:1012F30038A6C103120138F7C10312013852C203E1
:101303001201388CC2031201388FC2031201387CD8
:101313008D03120138B58D03120138278E03120194
:10132300383C8E03120138678F03120138E38F03B1
:10133300120138A99003120138C89003120138EF43
:1013430090031201382C91031201384491031201C6
:10135300389591031201381796031201382E96031C
:10136300120138A896031201388C970312013863CF
:101373009903120138C899031201381F9A03120105
:1013830038BAD003120138F87F0012013818B503B8
:10139300120138B3B60312013814B7031201385AD5
:1013A300B7031201389AA10312013835A2031201BF
:1013B30038B9A2031201387BA303120138F0A30347
:1013C30012013818A40312013821A4031201389121
:1013D300A403120138A9A403120138B2A403120111
:1013E30038C5A40312013899C203120138EBC203B2
:1013F30012013875C303120138DCC3031201385DCF
:10140300B70312013887B70312013855B803120125
:101413003830B9031201381CDE02120138E3DE0250
:101423001201381ADF0212013844DF02120138A414
:10143300DF02120138FADF021201385FE002120103
:1014430038F7E00212013806E2021201389DE30286
:101453001201382AE40212013891E402120138A879
:10146300E402120138C2E50212013800E602120159
:101473003800800212013881830212013809850283
:101483001201386085021201387F8502120138FD8E
:1014930085021201389387021201387888021201FB
:1014A30038868C021201385C8D02120138D39B02FC
:1014B300120138469C02120138E29E021201386082
:1014C300A20212013892A3021201382AA8021201C1
:1014D300389AA802120138FBF40212013840F502CF
:1014E3001201385DF50212013863F602120138FD6C
:1014F300F602120138E4F70212013887FA021201E8
:101503003884D1031201384ED103120138B0D1030C
:10151300120138DCFF02E066701008A3E066700A6F
:1015230008A3E066700408A3E06622C3E7960809EF
:10153300E7960809E7960809E79622C3E09608A309
:10154300E09608A3E09608A3E09622C008C3E096BD
:10155300F50808A3E096420808A3E096420808A30A
:10156300E09645087001D3D00822080808EAC0E0D5
:10157300EBC0E086F0E7A4FA180986F0E7A42AFA9C
:10158300180986F0E7A42AFA180986F0E7A42AFACC
:101593001986F0E7A4FBE5F02AFA190886F0E7A418
:1015A3002BFBE5F03AFA190886F0E7A42BFBE5F0EC
:1015B3003AFA18180986F0E7A4C5F02BFBE43AFAC7
:1015C3001908E7C5F0C6A426F6E5F03BFBE43AFAB2
:1015D3001886F0E7A4F6E5F00826F6E43B08F6E4FF
:1015E3003A08F6D0E0FBD0E0FA22E4CFC0E0E4CE44
:1015F300C0E0E4CDC0E0E4CCC0E075F020C3E63346
:10160300F608E633F608E633F608E633F618181854
:10161300EC33FCED33FDEE33FEEF33FFC3EC970900
:10162300ED9709EE9709EF97191919400FFFEC97FA
:10163300FC09ED97FD09EE97FE191906D5F0BEECEE
:10164300F709EDF709EEF709EFF7191919D0E0FCDF
:10165300D0E0FDD0E0FED0E0FF226016080808C607
:10166300C313C618C613C618C613C618C613C6D5E1
:10167300E0EA227009080808226016181818C6C381
:1016830033C608C633C608C633C608C633C6D5E054
:10169300EA22E627F60809E637F60809E637F608E8
:1016A30009E637F622E026F608A3E036F608A3E0BB
:1016B30036F608A3E036F622E026F008A3E036F07B
:1016C30008A3E036F008A3E036F022C3E697F60855
:1016D30009E697F60809E697F60809E697F622C39E
:1016E300E096F008A3E096F008A3E096F008A3E0E4
:1016F30096F022E657F60809E657F60809E657F684
:101703000809E657F622E056F608A3E056F608A3C2
:10171300E056F608A3E056F622E056F008A3E0569A
:10172300F008A3E056F008A3E056F022E0F608A381
:10173300E0F608A3E0F608A3E0F622E6F008A3E645
:10174300F008A3E6F008A3E6F022E0FAA3E0FBA387
:10175300E0FCA3E0FD22EAF0A3EBF0A3ECF0A3EDA1
:10176300F022CAC0E0E6F0A308DAFAD0E0FA22CA0F
:10177300C0E0E0A3C582CCC582C583CDC583F0A3F9
:10178300C582CCC582C583CDC583DAE6D0E0CA2243
:10179300C3E498F8E499F91217D48026C3E49AFABB
:1017A300E49BFBE920E7E91217D4E498F8E499F9FC
:1017B30022C3E498F8E499F91217D4E498F8E49969
:1017C300F9C3E49AFAE49BFB22EB20E7CFE920E795
:1017D300E0B90010BB0008E88AF084F8AAF022E41C
:1017E300FBC8FA22EB70227B10C833C8C933C93354
:1017F3005007C39AC3DBF280069A50012ADBEAC87A
:1018030033F4C8C933F4C9FA2275F008E4C833C8FD
:10181300C933C933C99AC99B5004C92AC93BD5F0F6
:10182300ECFBC833F4C8E4C9FA22600D08C6A2E78A
:1018330013C618C613C6D5E0F322600C08C6C3133B
:10184300C618C613C6D5E0F422700422600D18C66C
:10185300C333C608C633C6D5E0F41822251810AF23
:1018630008F518400215198008F51840021519D219
:10187300AF22C0D0251810AF08F518500205198003
:1018830008F51850020519D2AFD0D0222518F582D9
:1018930010AF08F518400215198008F51840021515
:1018A30019D2AF851983222518F582E43519F583FA
:1018B30022E4732518C582C0E0E51934FFC583C04F
:1018C300E0E518C3958224F810AF08858319858253
:1018D300188008858319858218D2AFCEF0A3E5203E
:1018E300F0A37808E608F0A3DEFAEFF0A3E581247D
:1018F300FAF8E608F0A3E608F0A3E608F0A3080860
:10190300E608F0A3E608F0A315811581D0E0FED028
:10191300E0F8158115811581E8C0E0EEC0E02225CD
:1019230018C582C0E0E51934FFC583C0E0E518C3DC
:10193300958224F910AF088583198582188008855C
:101943008319858218D2AFCEF0A3E520F0A37808DF
:10195300E608F0A3DEFAEFF0A3E58124FBF8E6083E
:10196300F0A3E608F0A30808E608F0A3E608F0A34E
:1019730015811581D0E0FED0E0F815811581E8C00E
:10198300E0EEC0E022851983851882E0A3FEE0A380
:10199300F5207808E0A3F608DFFAE0A3FFE0A3C090
:1019A300E0E0A3C0E0E0A3C0E0E0A3C0E0E0A3C0A8
:1019B300E010AF0885821885831980088582188511
:1019C3008319D2AFD083D08202013585198385185C
:1019D30082E0A3FEE0A3F5207808E0A3F608DFFA8F
:1019E300E0A3FFE0A3C0E0E0A3C0E0E0A3C0E0E029
:1019F300A3C0E010AF08858218858319800885820B
:101A030018858319D2AFD083D08222C0D02518C5C0
:101A130082C0E0E51934FFC583C0E0E518C39582B1
:101A230024F310AF088583198582188008858319EC
:101A3300858218D2AFC8F0A3E9F0A3EAF0A3EBF0D4
:101A4300A37908E709F0A3D8FAECF0A3EDF0A3EE2D
:101A5300F0A3EFF0A3D0E0F0A3D0E0F0A3D0E0F048
:101A6300A3E520F0A3E5F0F0A3228519838518826E
:101A7300E0C0E0A3E0F9A3E0FAA3E0FBA37808E069
:101A8300F608A3DFFAE0FCA3E0FDA3E0FEA3E0FF7A
:101A9300A3E0C0E0A3E0C0E0A3E0F5D0A3E0F5201D
:101AA300A3E0A3F5F010AF08858319858218800899
:101AB300858319858218D2AFD082D083D0E0F8D045
:101AC300E03274048006740280027401C0E0F404FE
:101AD30012188FD0E01217652274048004740280F8
:101AE30000CCC0E0EDC0E0E518C39CCCAD195001BB
:101AF3001D10AF068C188D1980068C188D19D2AF66
:101B0300121772D0E0FDD0E0FC22D083D082E9C06E
:101B1300E0E493A3C386F0C5F095F0F908E493A33A
:101B230086F0C5F095F0700BE493A3C3994005E9E3
:101B3300048002A3E475F002A42582F582E5F03562
:101B430083F583D0E0F9E493A3C0E0E493C0E022FB
:101B5300D083D082ECC0E0EDC0E0E493A3FCE49337
:101B6300A3FDED4C600D121B9FEC24FFFCED34FF35
:101B7300FD80EFE493A3FCE493A3FDED4C600D1211
:101B83001BDEEC24FFFCED34FFFD80EFD0E0FDD045
:101B9300E0FCE493A3C0E0E493C0E022C0E0C3E42C
:101BA3009396087401939618400FE493667008089F
:101BB300740193661870007019A3A3C3E493960885
:101BC3007401939618A3A3400DD0E0D0E0D0E002B7
:101BD3001B8FA3A3A3A3A3A3D0E022C0E0C0F088DC
:101BE300F0E4936670080874019366187000A8F017
:101BF300A3A3700BD0F0D0E0D0E0D0E0021B8FA302
:061C0300A3D0F0D0E022A6
:101C0C0074F5121922EAFEEBFFEE2434F8EF3400DF
:101C1C00F988088909EE2435F582EF3400F583E064
:101C2C00F8EE2437F582EF3400F583E0F50AEC8505
:101C3C000AF0A4FCAAF0850AF0EDA42AFDE82CF821
:101C4C00E43DF97A257B001217D4EA8508828509D0
:101C5C0083F0F8740758F97401B900028004C33397
:101C6C00D9FCFAE8131313541FF8EE28F8EF3400DC
:101C7C00F9E8245DF582E93400F583E05A6008EE5A
:101C8C002434F582EF802CEE2434F582EF3400F509
:101C9C0083E0C0E0EE2436F582EF3400F583E0F506
:101CAC00F0D0E084A8F0EE28F8EF3400F9E82438FE
:101CBC00F582E93400F583E0F97F040219CE74F55E
:101CCC00121922EAFEEBFFEE2434F582EF3400F514
:101CDC0083E0C0E0EE2435F582EF3400F583D0E0EC
:101CEC00F08E828F83A3A3A3A3A3A3A3C082C083DC
:101CFC008E828F83A3A3A3A3A3E0F8A3E0F9D083E0
:101D0C00D082E0C398F508A3E099F509EE247FF59D
:101D1C0082EF3400F583E064017069EE2480F58273
:101D2C00EF3400F583E0F8A3E0F98E828F83A3A350
:101D3C00A3A3A3A3A3E0FCA3E0FD8E828F83A3A3A4
:101D4C00A3A3A3E0FAA3E0FBC3EA9CEB9D5010C352
:101D5C00EC98ED99402EC3EA98EB995027800EC36E
:101D6C00EA98EB994007C3EC98ED9940177C5C7DA1
:101D7C0005EEFAEFFB120C07EE247FF582EF340030
:101D8C00F583E4F0EE2434F8EF3400F9E8FCE9FDD7
:101D9C00EE2435F582EF3400F583E0F8EE2437F5C8
:101DAC0082EF3400F583E0F50AE508850AF0A4F526
:101DBC0008AAF0850AF0E509A42AF509E82508F82F
:101DCC00E43509F97A257B001217D4EA8C828D83CD
:101DDC00F0F8740758F97401B900028004C333D9C0
:101DEC00FCFAE8131313541FF8EE28F8EF3400F93B
:101DFC00E8245DF582E93400F583E05A6008EE24AE
:101E0C0034F582EF802CEE2434F582EF3400F58328
:101E1C00E0C0E0EE2436F582EF3400F583E0F5F017
:101E2C00D0E084A8F0EE28F8EF3400F9E82438F577
:101E3C0082E93400F583E0F9122A47021CC5C082FE
:101E4C00C083851882851983E0F8A3E0F9C3EA9C66
:101E5C00EB9D5010C3EC98ED99401BC3EA98EB999D
:101E6C005014800EC3EA98EB994007C3EC98ED9997
:101E7C004004790180027900D083D08222EAC39C8D
:101E8C00FAEB9DFB2274EF121922900422E06408F5
:101E9C006005E06407702A9061C8E06024900450EB
:101EAC00E0F4601DE0F875F003A4C8AAF02AF974F8
:101EBC005228FE740439FF8E828F83A3A3A3E07093
:101ECC0003021FC1906060E0C0E0EE2468F582EF71
:101EDC003400F583D0E0F0750CC5750D0575080060
:101EEC00750900E5D914F50AE5D95403F50E601708
:101EFC007403650E605CE50A6010EE2467F582EFF2
:101F0C003400F583E07003021FA69005C0E0640165
:101F1C00602AEE2482F582EF3400F583E0600478C9
:101F2C000480027800850A08E508C398FA95E0FB5E
:101F3C00120AD58A088B09EA45097005120E0B8026
:101F4C0074EE2482F582EF3400F583E070048A0C81
:101F5C008B0DE50A6012850C82850D83F50BE5D996
:101F6C00F0A3150BE50B70F6EE2482F582EF34002E
:101F7C00F583E0604474FC250AF50A780C121AC942
:101F8C00AC0AA90EEEFAEFFB120CA3740212187530
:101F9C00E97026AA08AB091213ED793D8E828F8366
:101FAC00A3A3A3A3E0FA7B001209A9EEFAEFFB129C
:101FBC000C1F120CB5790080747403650E60568585
:101FCC000A107511007810121AC9AC0CAD0DAA08C4
:101FDC00AB09120C7F7402121875EE2468F582EFAF
:101FEC003400F583E064807004747F8001E0F50CAC
:101FFC00780C121ACDE50EF50C780C121ACDA90A34
:10200C00AC08AD09900450E0FA7B0012096D740223
:10201C001218758013900422E06408600BAC0CADB0
:10202C000DEEFAEFFB120D0F120E1779017F0A025B
:10203C0019CE74F512192274FC12185FEAFEEBFF2C
:10204C008908A2AFE433F509C2AF806AEE2463F8C5
:10205C00EF3400F97A007B00A2AFE433F50AC2AF8B
:10206C0088828983E0FCA3E0FDEC4D603A8882898C
:10207C0083E0FAA3E0FB8A828B83E0FCA3E0FD887B
:10208C00828983ECF0A3EDF08A828B83E4F0A3F0D9
:10209C0088828983E0FCA3E0FDEC4D700A8882897C
:1020AC0083A3A3E4F0A3F0E50AA2E092AF1213ED30
:1020BC00900563E004F0EE2463F582EF3400F583C1
:1020CC00E0F8A3E0F9E849603DEE2463F582EF34D3
:1020DC0000F583E02402FAA3E03400FBEA2402F5C5
:1020EC000AEB3400F50B780A121AC98A828B83E04A
:1020FC00FCA3E0F9EEFAEFFB120C43740212187514
:10210C00E97003022058900563E06063900564E079
:10211C00F8900563E0C398500C74026508705090F9
:10212C000565E0604A8E828F83A3A3A3A3E0851884
:10213C0082851983F0A3E4F0900563E0F874021231
:10214C0018AAE8F0A3E4F0900563E0F8900562E0CB
:10215C0028F074021218AAAC82AD838518828519F6
:10216C0083AA82AB837901120979900563E4F0E5C7
:10217C0009A2E092AF7404121875021CC50000008D
:10218C008521878522C622C0E0C0D0E8C0E0E9C026
:10219C00E0EAC0E0EBC0E0ECC0E0EDC0E0EEC0E097
:1021AC00C008C009C00AC00BC082C083C0F0A2AF77
:1021BC00E433FEC2AF759B00906182E0A2E0501246
:1021CC00E591A2E0500C7591FE740165217003122B
:1021DC001E91E0A2E55051E591A2E5504B7591DFBF
:1021EC00900422E064076005E064087023740165C4
:1021FC002170357901900450E0FA75F003A4CAA857
:10220C00F028FB74522AFA74043BFB12203E80180F
:10221C00E0640D7013900444E004F064287002E450
:10222C00F07A00E0F9120E1D906182E0A2E6400304
:10223C000222DAE591A2E640030222DA7591BF9000
:10224C000422E064057008120D45120D5180031232
:10225C000D4B752100120DABE9900423F07900129F
:10226C000D9F120B7D7A017B00900421E0F9121076
:10227C0075907803E0644270559005C4E014F070DA
:10228C004DC2AF12229200782AD0E0F618D0E0F6B8
:10229C00E59F540770057509FF800375097FC4C05D
:1022AC00E07829E6F50808E65509F509740B780875
:1022BC0012183DD0E02508F8906270E0A2E740F8D3
:1022CC00E8C333906272F0906270E0D2E0F09061FB
:1022DC0081E0A2E35009E5E9A2E3500375E9F7A315
:1022EC00E0A2E75009E591A2E7500375917FEEA2B9
:1022FC00E092AFD0F0D083D082D00BD00AD009D0EE
:10230C0008D0E0FED0E0FDD0E0FCD0E0FBD0E0FA5D
:10231C00D0E0F9D0E0F8D0D0D0E032C0E0C0D0C0EE
:10232C0082C083906183E0A2E05009E5BFA2E05037
:10233C000375BFFEE0A2E15009E5BFA2E1500375B1
:10234C00BFFDE0A2E25009E5BFA2E2500375BFFB5E
:10235C00E0A2E35009E5BFA2E3500375BFF7E0A28A
:10236C00E45009E5BFA2E4500375BFEFE0A2E550CD
:10237C0009E5BFA2E5500375BFDFE0A2E65009E511
:10238C00BFA2E6500375BFBFD083D0828088C0E067
:10239C00C0D0E8C0E0E9C0E0EAC0E0EBC0E0ECC0CF
:1023AC00E0EDC0E0C0F0E5A7A2E6500FE5A1A2E683
:1023BC00500953A7BF75A1BF1223FFE5A7A2E55093
:1023CC000CE5A1A2E5500653A7DF75A1DFE5A7A296
:1023DC00E15009E5A1A2E1500375A1FDE5A7A2E238
:1023EC00500CE5A1A2E2500653A7FB75A1FBD0F05F
:1023FC0002231074F8121922752101900422E06452
:10240C00067015120CD38A828B83A3A3A3A3A3A358
:10241C00E0FAA3E0FB120D33A2AFE433FED2AF908F
:10242C000428E0640170187A207B00900421E0F904
:10243C001210FF7A207B00900421E0F912107B909F
:10244C006182E0D2E6F09005C1E0602185C6228071
:10245C0016900427E064017008E5C654F84405F5AD
:10246C00C653BEFC12218C7401652160E4EEA2E01F
:10247C0092AF7F010219CE008E238F24858228858E
:10248C008327851882851983E0CEA3E0CF85288227
:10249C00852783EBC9EAC8EDCBECCA75F010C3E80D
:1024AC0033C8E933C9EA33CAEB33CBC3EA9EF5260A
:1024BC00EB9FF525B35004AB25AA26EC33CCED33BA
:1024CC00CDD5F0DAAE23AF242274E912192274F8B8
:1024DC0012185F851882851983ECF0A3EDF08A0839
:1024EC008B09900422E024F7C3940550067508016B
:1024FC0002266C120CD38A0A8B0BAE0AAF0BEE4F72
:10250C007003022669AC08AD0974021218AAAA82DB
:10251C00AB83120D638E828F83A3A3750CFF750D95
:10252C00FF750EFF750F00780C1217097402121844
:10253C00AA7510FF7511FF7512FF75130078101234
:10254C001709780C791012152E502A780C79101264
:10255C0016CE7508017509C8750A00750B00780848
:10256C00790C12152E5052850C08850D09850E0A12
:10257C00850F0B80507514017515C87516007517ED
:10258C000085100885110985120A85130B780879C6
:10259C000C1216CE7814790812152E401C750800F2
:1025AC00750900750A00750B01780879101216CEA2
:1025BC007808790C121695800C7508017509007550
:1025CC000A00750B0074097808121676750C19F54B
:1025DC000DF50EF50F7808790C1215ED8E828F83A0
:1025EC00A3A3A3A3A3A3E0F8A3E0F97AD07B0312DF
:1025FC0017D4880C890DE4F50EF50F7808790C12B8
:10260C00169574061218AAE0F8A3E0F97AD07B03A9
:10261C001217D4E8FA8A0CE4F50D7808790C121527
:10262C002E50077808790C1216CE900422E064081C
:10263C00600AE064066005E06405702D750C0D7889
:10264C000C790812152E4021750CF4750DFF750EC2
:10265C00FF750FFF7808790C121695800C75080021
:10266C00750900750A00750B00851882851983E0C1
:10267C00F8A3E0F5838882780812173E74081218C4
:10268C00757F100219CE74F7121922120D75900570
:10269C00BFE064017010906245E4F0A3F053F4F3D2
:1026AC0043FE0C5390F3120D21E5C654804449F5BA
:1026BC00C6E59E547F644970F8906185740FF09064
:1026CC0005BDE0F47002A3E0604E9005BEE060082A
:1026DC0014601B14602E804075080175090090056C
:1026EC00BDE0780812184CE508F45280802A750871
:1026FC00017509009005BDE0780812184CE508F446
:10270C00529080147508017509009005BDE0780899
:10271C0012184CE508F452A079007F020219CE740D
:10272C00F7121922E9FEEAFF74016E700C7A807BB5
:10273C0000900421E0F9121075902C08E493F460D9
:10274C0008E493F9120B71800953C680E59E547FFF
:10275C0070FA120D279005BFE064017003120B890B
:10276C009005BDE0F47002A3E0604B9005BEE06004
:10277C000814601A14602C803D75080175090090CE
:10278C0005BDE0780812184CE508428080287508D1
:10279C00017509009005BDE0780812184CE5084257
:1027AC009080137508017509009005BDE07808123A
:1027BC00184CE50842A0120D75120CD38A088B092F
:1027CC00A808A909E8496015E5E170FCE82414F5AE
:1027DC0082E93400F583E0F46003E0F5E174016F05
:1027EC00700A7A01900421E0F91210C902272674AC
:1027FC00ED1219228A088B098C0A8D0B741312188E
:10280C00AA780C12172F7808790C12152E75100156
:10281C007511C875120075130050127808790C12D6
:10282C0016CE7810790812152E50168010780C7967
:10283C00081216CE7810790C12152E4004790180EE
:10284C000279007F0C0219CE74ED1219228A088BC2
:10285C00098C0A8D0B74131218AA780C12172F7886
:10286C000C790812152E40117808790C1216CEAA84
:10287C0008AB09AC0AAD0B80227510007511007500
:10288C0012007513017810790C1216CE7810790895
:10289C00121695AA10AB11AC12AD1380A68A828BBE
:1028AC00837508FF7509FF750AFF750B0078081210
:1028BC00171C7F040219CE74F51219228C828D8399
:1028CC00780812172F8A828B8378081216E2EA2472
:1028DC0004F8EB3400F98C828D83A3A3A3A3E0FC52
:1028EC00A3E0FD88828983C3E09CF0A3E09DF0887F
:1028FC00828983C3E09420A3E0944E40268A828B85
:10290C00837508FF7509FF750AFF750BFF780812B0
:10291C0016BB8A828B83A3A3A3A3E02420F0A3E09D
:10292C00344EF00228A974F5121922E9FE900577AD
:10293C00E0FAA3E0FBEEC333F8E433F9741928F59D
:10294C0082748439F583E02AF508A3E03BF5097815
:10295C0008121AC97A407B427C0F7D0012248474C1
:10296C00021218758A088B098C0A8D0B7410780862
:10297C0012165DAA08AB097F040219CE74F1121964
:10298C00228A0C8B0D8C0E8D0F740F1218AAE0FA84
:10299C00A3E0FB74111218AAE0F508A3E0F509787E
:1029AC0008121AC9EA2401F508EB3400F509E4F51C
:1029BC000AF50B780C790812156D750871750902FA
:1029CC00780C790812156DAA0CAB0DAC0EAD0F126C
:1029DC00248474021218758B09EA450960047A0183
:1029EC0080027A00EC2AFCED3400FD74131218AA54
:1029FC00E0F8A3E0F9E8FEE9FFECF8EDF97A717B79
:102A0C00021217D4880889098E828F8378081217CE
:102A1C003EECF8EDF97A717B021217D48A088B0917
:102A2C007405780812184C8E828F83A3A3A3A3E598
:102A3C0008F0A3E509F07F080219CEC082C083E933
:102A4C00906000F0D083D08222C2AF02000022C07E
:102A5C00E074EB121A0E74F912185F538AFE90860A
:102A6C0015780812172F9009E378081216BB9009F5
:102A7C00E3780812172F908619780C12172F780804
:102A8C00790C1215EDE50C450D450E450F70269091
:102A9C0085A2C082851882851983AC82AD8375832B
:102AAC0085D0827407121772851882851983AA82C1
:102ABC00AB831212A3C2EB74071218757F08021AAB
:102ACC006DC0E074F2121A0EA2AFE433FED2AFC2A4
:102ADC00C0E5D1A2E4500653D1EF1213E1751A00F0
:102AEC00EEA2E092AF7F01021A6DC0E074F2121AEE
:102AFC000EA2AFE433FED2AFE589A2E1500312126D
:102B0C00FD758900C2C5751A00EEA2E092AF7F0177
:102B1C00021A6DC0E074F2121A0EA2AFE433FED2A8
:102B2C00AFE58BA2E050031212FD758B00C2E8805A
:102B3C00D5C0E0C0D0E8C0E0E9C0E0E5A8D2AFC2A3
:102B4C00C7751A00A2E7A2E792AFD0E0F9D0E0F87F
:102B5C00D0D0D0E032C0E074F2121A0EA2AFE4333F
:102B6C00FED2AF758900C2C5900B2E7401F0751A98
:102B7C0000FA900AFBE0F91210C9900CB2E0F8A32D
:102B8C00E0687002D285EEA2E092AF7F01021A6D6E
:102B9C00C0E0C0D0E8C0E0E9C0E0C008C009C08215
:102BAC00C083A2AFE433F9D2AF900CB2E0F8A3E04B
:102BBC00687008539AFBA374018026C2E9900CB28A
:102BCC00E0F50874012508F074322508F582740CC0
:102BDC003400F583E0F5C1900CB2E0C39480400260
:102BEC00E4F0E9A2E092AFD083D082D009D008D033
:0A2BFC00E0F9D0E0F8D0D0D0E032CC
:102C0800FFFFFFFFFFFFFFFFC082C083E9900FE7D0
:102C1800F0022E9F74F71218B6E9900361F07C99C0
:102C28007D037AFF7BFF1208C590036274FFF0A34F
:102C3800F0A3E4F0A3F0790512084D900361E0F9E0
:102C480012076F7AE37B08120A877F0102198874DA
:102C5800F41218B68A088B09EB548060309003612F
:102C6800E0F912105D8A0A8B0BAE0AAF0BEE4F60CB
:102C7800138E828F83E064B07003120865EEFAEF5A
:102C8800FB12104BAA08E5096480FB80047A007BDC
:102C980000022E6E74F21218B674FC12185FEAFE67
:102CA800EBFFEE4F603874021218AAEEF0A3EF1291
:102CB80030D3ECF0A3ED1230D3AA82AB83120769AC
:102CC800E9F508707374121218AA123C87E50A45D0
:102CD8000B60658E828F83122D4AEE4F7005750842
:102CE8000280557A067B001210B18A0C8B0DA80C55
:102CF800A90DE8497005750813803D88828983E429
:102D0800122D54A3A3EEF0A3EF124120E50AF0A37D
:102D1800E50BF0900367122DDC9003676017E0FC69
:102D2800A3E08003EAFCEBFD8C828D83122DDC701E
:102D3800F38C828D83123BACA908740412187502B7
:102D48004322A3A3A3A3E0FEA3E0FF22F0A3F088FD
:102D58008289832274F21218B6890AE975F017A4D9
:102D6800FEAFF0900366E4F0900364122DDC600A75
:102D78001210B7900364E4F0A3F0EEFAEFFB121020
:102D8800B18A088B09EA4509602FEEFCEFFD79004E
:102D9800121033900364E508F0A3E509F07B008086
:102DA80008122DC6E4F0A3F00BEBC3950A40F2E538
:102DB8000A900366F0790080027913024322EB75CA
:102DC800F017A4F8A9F0900364E028FAA3E0398A80
:102DD80082F58322123942EA4B2274F41218B6752E
:102DE8000800750900740C1218AA1240F4FEE9FFD5
:102DF800800CE5082401F508E5093400F509C3E568
:102E0800089CE5099D503285080A85090B740378EA
:102E18000A12184CEA250AF8EB350BF988828983DF
:102E2800A3A3A3A3A3A3123C87EE650A7003EF65CF
:102E38000B70BFE8FAE9FB80047A007B00802774F6
:102E4800F41218B67900EAA2E0501B7508AF7509AC
:102E5800857808121AC97C047D007AE97B0F12086C
:102E68004774021218757F04021988C082C08390C3
:102E78000367122EA6601C88828983A3A3E06A7068
:102E880003A3E06B8882898370E8A3A3A3A3123904
:102E98003E80047A007B00D083D082020135124341
:102EA800F5E8492274EE1218B674FC12185FEAFEAF
:102EB800EBFF851882851983E4F0A3F0EE24021253
:102EC8003B90EE24051230C1EE2404F50EEF1234C7
:102ED800A6E024FE603924FC604624FE605224FEED
:102EE800605E24FE7003022FC624FE700302303E8B
:102EF80024FE700302304D24FE700302305C24FC73
:102F0800700302306B24FE700302307A0230B790EF
:102F180003807417F0A3E41230DB1204E70230B721
:102F2800851882851983AC82AD8312086B023087BD
:102F3800851882851983AC82AD83120871023087A7
:102F4800850C08850D0974021218AAAC82AD838518
:102F5800088285098312393E12078D8A0C8B0DACC5
:102F68000CAD0DEC4D6042E4F50CF50D780C121A21
:102F7800C9750C80750D03780C121AC9750C81750A
:102F88000D03780C121AC974081218AA121AE079DB
:102F9800161239381208AD7408121875E9F50C7054
:102FA8000B1239341204FF800F750C0185088285D5
:102FB80009831230C9123BAC850C0802308A7402AE
:102FC8001218AAAC82AD83850C82850D8312393E16
:102FD80012078D8A108B11AC10AD11EC4D60438532
:102FE8000C82850D83A3A3121AE075108075110356
:102FF8007810121AC97510817511037810121AC940
:1030080074081218AA121AE079161239381208AD83
:103018007408121875E9F509700B12393412050590
:10302800800F750901850C82850D831230C9123B0A
:10303800AC850908804C851882851983AC82AD83DC
:10304800120877803A851882851983AC82AD83127D
:10305800087D802B851882851983AC82AD83120880
:1030680083801C851882851983AC82AD83120889F8
:10307800800D851882851983AC82AD8312088FE98B
:10308800F508E50860298E828F83A3E06414601F29
:10309800850E82850F83E09003801230D31243F1AE
:1030A800900381123BACE508A31230DB1204E1EE79
:1030B800FAEFFB12080B023A98F50CEF3400F50D05
:1030C800221243F585188285198322F08518828596
:1030D800198322F07C807D03850A82850B8312394F
:1030E800422274EE1218B674FC12185F8A0A8B0B0F
:1030F8008C0E8D0FEA2405F508EB3400F5097C15D4
:103108007D0079007A807B03121033E5082402F5EC
:103118000CE5091230C485188285198385821085CB
:1031280083117810121AC9850882850983A3A3A37D
:10313800A31235EE121AC9E5082405F510E509347D
:1031480000F5117810121AC9850C82850D83123981
:103158004812078774061218758A108B11AE10AFC3
:1031680011E50A2402F50AE50B123B93EE4F7003B2
:103178000232B0801774021218AA12393E88828966
:1031880083EAF0A3EBF0900380E004F0900380E082
:10319800C3940540030232B0E4F510F5117810121B
:1031A8001AC97510697511037810121AC975106A51
:1031B8007511037810121AC974061218AA121AE0A7
:1031C8007910EEFCEFFD1239381208AD74081218A8
:1031D80075E9705E850882850983A3A3A3A3A3A3C9
:1031E800A3E0F8900369E06870481235EE121AC936
:1031F8007C6A7D03E5082408FAE5093400FB12100F
:103208002D7402121875E960298E828F83A3A3A3F7
:10321800A312393E900380E0F5107402781012185A
:103228004C74812510F58274033511F583EAF0A3F7
:10323800EBF074021218AA85821085831178101297
:103248001AC974021218AA121AE0850C82850D8315
:1032580012440612079374041218758A108B11AE63
:1032680010AF11900380E0F510751100740278100A
:1032780012184C74802510F874033511F988828966
:1032880083A3122DDC7003023174E82403F8E934B7
:1032980000F9EE4F600302317D8882898374FFF064
:1032A800A3F0900380E004F0900380E0600A1239F4
:1032B800341204F37900800B850882850983123B58
:1032C800A3790A023A9874EA1218B674FE12185FC3
:1032D8008C128D13EA2405F50CEB124570122D4E55
:1032E800750800750900EA2402F510EB3400F511A1
:1032F80085188285198385820A85830B780A121AB4
:10330800C9850C82850D83A3A3A3A31234B0121A16
:10331800C9E50C2405F50AE50D123B93780A121A43
:10332800C9850C82850D831244041207877406121E
:1033380018758A0A8B0BEA450B7003023461EA247C
:1033480004F50EEB1234A6122D4E8A828B83A3A3AA
:10335800A3E0F985108285118312393E120775E9B9
:10336800F5096003023461E4F514F5157814121AAE
:10337800C97514697515037814121AC975146A7514
:1033880015037814121AC974061218AA121AE079C9
:1033980013AC0AAD0B85108285118312393E1208D1
:1033A800AD7408121875E9F50960030234619003D9
:1033B80069E0F8E5087009E02402900381F08017BD
:1033C800900381E0FCE82402FAE43400FBEA6C7024
:1033D80001EB6003023465850882AA821235E59400
:1033E800141235DD5073850E82850F83E0C0E074BA
:1033F800822A12349DD0E0F00508850E82850F835D
:10340800A3E0C0E085080A7482250A12349DD0E042
:10341800F005089003691234B0121AC97C6A7D035A
:1034280085080A7482250AFA74033400FB12101BFB
:103438007402121875900369E02508F50874FF6E88
:10344800700374FF6F6012EE24010EEF3400FFE585
:1034580008C3941450030232F8E50860131238299F
:1034680085108285118312393E1204F9790080147F
:10347800E509700375090A851282851383EEF0A3A6
:10348800EFF0A90974021218757F0E0219888508D1
:103498000C7482250CF58274033400F58322340001
:1034A800F50F850E82F583221241332274EE12182D
:1034B800B674FE12185F8C0E8D0FEA2405F50CEB1E
:1034C8001230C4750B00900380E4F0F50AEA240278
:1034D800F508EB3400F5098049900380E0FA900381
:1034E80069E0F81235E594171235DD400D90038038
:1034F800E0F87416C398900369F01235EE121AC9F1
:103508007C6A7D0374812AFA74033400FB12101B51
:103518007402121875900369E0F8900380E028F0AF
:10352800050AE50C2416F582E50D1234A1E0F8E54C
:103538000AC39840030235C6900380E0C39416502E
:103548007DE50AC333F8E433F9E50C28FEE50D39C7
:10355800FF851882851983AC82AD838E828F831292
:10356800393E12078D8A108B11AC10AD11EC4D70DD
:1035780005750B018043E4F510F5117810121AC98E
:103588007510697511037810121AC975106A7511CA
:10359800037810121AC974061218AA121AE07916BA
:1035A80085088285098312393E1208AD74081218FD
:1035B80075E9F50B70030234E1123B9F80107C80A3
:1035C8007D0385088285098312393E12050BA90BF4
:1035D8007402023A9AE99400C365D03322EA28F8C3
:1035E800E43400F9E822E0F510751100781022742F
:1035F800EA1218B674FC12185F8A0C8B0D8C128DA7
:1036080013EA2405F50AEB123B93750800750900C7
:10361800E50A2402F510E50B3400F51174021218BE
:10362800AA85820E85830F780E121AC9850A8285AB
:103638000B83A3A3A3A31240DF121AC9E50A24052A
:10364800F50EE50B3400F50F780E121AC9851082B5
:10365800851183123B99123938120787740612189C
:10366800758A0E8B0FAE0EAF0FE50C2402F50EE532
:103678000D3400F50F80408882898374FFF00508B7
:1036880012349674FFF00508900369E0F50C750D87
:1036980000780C121AC97C6A7D0385080C7482258F
:1036A8000CFA74033400FB12101B74021218759084
:1036B8000369E02508F508EE4F60718E828F83A3B9
:1036C800A3A3E0F9850E82850F8312393E12077590
:1036D800E9F509EE24041230C1E97044E4F514F563
:1036E800157814121AC97514697515037814121A05
:1036F800C975146A7515037814121AC97408121852
:10370800AA121AE07911EEFCEFFD850E82850F836F
:1037180012393E1208AD7408121875E9F5096027C8
:10372800850C82850D8312381F123BACE5087003A7
:10373800023805123829850E82850F8312393E1208
:103748000511790002381A850882AA82EA9003696D
:103758007009E02404900381F08022E0F89003814E
:10376800E0F514E82404FCE43400FDEC6514700171
:10377800ED70C01235E594121235DD50B6850C8215
:10378800850D83E0C0E074822A12349DD0E0F005F4
:1037980008850C82850D83A3E0C0E0123496D0E042
:1037A80012383B85820C85830D780C121AC9740473
:1037B8001218AA121AE08510828511831244061283
:1037C800079374041218758A0C8B0DAE0CAF0D8517
:1037D800080C7482250CF874033400F9EE4F70035A
:1037E80002367F851882851983E08882898312389A
:1037F8003BA3E0C0E0123496D0E002368DE50970B4
:103808000375090A850A82850B8312381F123BAC9F
:10381800A909740402348E1243F585128285138334
:1038280022900381E0F5F0E50884900380F07C8025
:103838007D0322F005088518828519832274EC120D
:1038480018B674FE12185F8A088B098C0E8D0FEA61
:103858002405FEEB3400FF851882851983AC82AD00
:10386800838E828F8312393E12078D8A0A8B0BEE64
:1038780024181230C1EA450B700302390F123A813D
:10388800503285188285198312393E1208A18A1090
:103898008B11EA4511606B7912AC0AAD0B85088271
:1038A80085098312393E8510828511831218B4E97F
:1038B800F50A7058E4F50AF50B780A121AC98E82CF
:1038C8008F83A3A3E0F50A780A121AC9EE2403121B
:1038D8003B90780A121AC98E828F831239481208CF
:1038E800B37406121875E9F50A7021850C82850DE6
:1038F80083E0701F85088285098312393E120517F7
:103908008011750A0E8009750A018004E50A6003B2
:10391800123B9F850C82850D83E06004790080024C
:10392800A90A74021218757F0C0219887C807D031D
:10393800850A82850B8312394222E0FAA3E0FB2232
:10394800E0FCA3E0FD8508828509831239422274D0
:10395800EE1218B674FE12185F8A088B098C0C8D4B
:103968000DEA2405FEEB3400FF750E0085188285EC
:103978001983AC82AD838E828F8312393E12078DF4
:103988008A0A8B0BEA450B7003023A6D123A815092
:103998003585188285198312393E1208A18A0E8B43
:1039A8000FEA450F605E7912AC0AAD0B8508828577
:1039B800098312393E850E82850F831218B4E9F502
:1039C8000E6003023A70850882850983123C87AA33
:1039D8000AFB1208958A108B11A810A911E84970E2
:1039E8001E7AFF7BFF1208958A108B11A810A91167
:1039F800E849606C88828983E50AF0A3E50BF075D5
:103A08000A008007750E0E805F050A900366E0FACB
:103A1800E50AC39A504AE50A75F017A4FAABF0888C
:103A2800828983A3A3E02AFAA3E03BFB8A828B83E3
:103A3800123B99EC4D70D2750A17750B00780A1273
:103A48001AC9EEFCEFFD12101B7402121875EEFC79
:103A5800EFFD85088285098312393E12051D801401
:103A6800750E098003750E011243ED850C82850DD4
:103A780083123BACA90E0235D8E5082402F508E507
:103A8800093400F5098A828B83A3A3A3E0A2E52267
:103A980074041218757F0A02198874EC1218B68C0F
:103AA800108D11EA2405F50CEB1230C4750F00EAED
:103AB8002402F50AEB123B93850A82F58312393EFC
:103AC8001208958A088B09EA45097003023B857537
:103AD8000E008071850C82850D83E06401704F8E25
:103AE800828F83A3A3121AE08E828F83A3A3A3A33A
:103AF800E0F5127513007812121AC9EE2405F512B2
:103B0800EF3400F5137812121AC91239381208B3B3
:103B18007406121875E9F50F6014850C82850D83FB
:103B2800E4F01243ED851082851183123BAC7C17BB
:103B38007D007900EEFAEFFB1210338E828F83E45A
:103B4800F0A3F0050E900366E0F8E50EC398501E4A
:103B5800E50E75F017A4F8A9F0850882850983A3F6
:103B6800A312457A123B99EC4D6003023ADC8508B2
:103B78008285098374FFF0A3F0E50F7006123938C7
:103B8800120523A90F02392FF50AEF3400F50B228D
:103B9800A3E0FCA3E0FD228E828F831243F5850EFD
:103BA80082850F83E8F0A3E9F022C082C0839003E6
:103BB80062E06A7003A3E06B70067A627B0380049C
:103BC8007A007B00022E9FC082C08378008C828D91
:103BD80083E06A7003A3E06B7010E875F003A4F843
:103BE800A9F0EC28FAED39FB8015088C828D83A3A7
:103BF800A3A3E06A7003A3E06B60DF7A007B000296
:103C08002E9F74F61218B612085F8A828B83E5829B
:103C1800458370067A007B008007A3A3A3A312390B
:103C28003E02429E74F21218B6E9FE740E1218AAE9
:103C3800123C8774101218AA1240FF8C828D83E000
:103C480064027036A31243FBF50CA3E0F9A80C74C8
:103C5800026870037429697021750C02750D00786B
:103C68000C121AC97808121AC9780A121AC9EEF978
:103C78001208D7740612187580027901024322E0EF
:103C8800F50AA3E0F50B2274E81218B674FB1218B3
:103C98005FE9851882851983F08A168B17ECFEED8B
:103CA800FF751000741D1218AA1243F1741D121822
:103CB800AA123BAC8E828F83A3A3A3E0A2E4502D6B
:103CC800741D1218AA12393E1208A18A828B83E544
:103CD80082458370030240D0790AEEFCEFFDAA16F4
:103CE800AB171218B4E9F51060030240D3741F1221
:103CF80018AA1240FF74211218AA123C87742312C2
:103D080018AAE0F50EA3E0F50F8E828F83E0640217
:103D1800600302407EA31243F1850882850983A3CC
:103D2800858212858313EE24061230C18882898326
:103D3800E0FAA3E0F9EA2400F514E439F51578145B
:103D4800121B53010000280128733D070002283880
:103D58003E0328A53D00296F3F01299A3F02293BD0
:103D68003F03296F3F042919407E40E50E450F6047
:103D780003024079850C82850D831240F4FAE9FB31
:103D88008A828B83E0850A82850B8312412A121A64
:103D9800C98A828B83A3E0FCA3E0024003E50E45B9
:103DA8000F6003024079850A82850B837401F01243
:103DB8004107850882850983F07C007D008E828F0B
:103DC80083A3A3A3A3E02401FAA3E03400FB120712
:103DD8008DEA4B60418A828B83E02402F8850A824F
:103DE800850B83E028F0EA2404F8EB3400F9888294
:103DF8008983E085128285138312413C12412A127D
:103E08001AC98A828B83123B98E5082403FAE509CC
:103E18003400FB024008850A82850B83E02404F005
:103E28007C047D007900AA12AB131210330240D330
:103E3800E50E450F6003024079124107FEA3E0FF3B
:103E4800850A82850B837404F0EE850882850983D0
:103E5800F0EF851282851383F074031218AAAC82DE
:103E6800AD83EEFAEFFB12078D8A0C8B0DEA450D38
:103E78007003023F1C8A828B83A3A3122D4A74010C
:103E88001218AA85820E85830F780E121AC9740536
:103E98001218AA121AE07CFF7DFF1207937404120D
:103EA80018758B0FEA450F7033850C82850D8312C8
:103EB80040DF121AC9850C82850D83A3121AE07C93
:103EC800027D007A6A7B861205BF7404121875E9B0
:103ED800700A74011218AA74FFF0A3F08E828F83FF
:103EE800E064027039750C02750D00780C121AC95D
:103EF8008E828F83123B98E5082404FAE509340082
:103F0800FB12101B7402121875850A82850B83E058
:103F18002402800974011218AAEEF0A3EFF07401CC
:103F28001218AA1240F0F074011218AAA31240E85D
:103F3800024073E50E450F6003024079850C8285C7
:103F48000D83123B99AA16AB171208CB850A8285F6
:103F58000B837402F0EA850882850983F085128252
:103F6800851383EB024076E50E450F600302407926
:103F7800124107F8A3E0F9850A82850B837402F0E1
:103F8800E8850882850983F0E98512828513830212
:103F98004076850C82850D8312393E121015EAFC95
:103FA8008C82A882C3950EE4950F405FE8650E7079
:103FB80002E50F70047C008022851882851983E051
:103FC800FAE50E2AFAE50F3400FBC3EA98EB9400F1
:103FD8005003E08005E50ECCC39CFCEC850A828585
:103FE8000B83F08C0A750B00780A121AC9850C82AB
:103FF800850D83E0250EFCA3E0350FFDAA08AB096B
:1040080012101B74021218750240D3751007024073
:10401800D3E50E450F705A850C82850D831243F146
:10402800850A82850B837407122D561240E8122DDB
:1040380056A3E0851282851383F0E82402FAE93456
:1040480000FB8A828B831240E81241171240F0A3CA
:104058001241201240F9F0E82405F8E93400F98803
:104068008289831240F9A312413CA3A3A3A3F08041
:104078005A75100B8055741D1218AA12393E120871
:104088005F8A828B83E5824583603D1243F1880C09
:10409800890DE8450D6031780E121AC9780A121A8E
:1040A800C97808121AC974061218AAE0F9EEFCEFCA
:1040B800FDAA16AB17850C82850D831218B47406F9
:1040C800121875E9F510800375100EA91074051201
:1040D80018757F10021988E0F50E750F00780E220A
:1040E800E085088285098322124146221243F5E8B9
:1040F80022124146A3A322E0F508A3E0F509228590
:104108000C82850D83E0F8A3E0F5838882E022A382
:10411800A3F08A828B83A322F088828983A3A3A336
:10412800A322F08A828B8312413322E0F50A750BB1
:1041380000780A22F088828983A312414622E0850A
:104148000882850983A3A32274EE1218B674FE129E
:10415800185F8A0A8B0BECFAEDFB74141218AAE0AC
:10416800F510A3E0F51174161218AAE0FE741812DF
:1041780018AAE0F50EA3E0F50F851882851983AC1F
:1041880082AD8312078D8A0C8B0DEA450D60498537
:10419800188285198312393E12085F8A828B83E55B
:1041A800824583602FA3A31240FFE50845096024D8
:1041B800780E121AC97810121AC9EEF9AC0CAD0DA6
:1041C800AA0AAB0B8508828509831218B4740412F5
:1041D80018758006790E800279010235D874F612B6
:1041E80018B674FE12185F740C1218AA1240F485DF
:1041F8001882851983F074011218AAE9F0E4F50809
:10420800F5097808121AC97508027808121AC974CB
:10421800041218AA8582088583097808121AC91217
:1042280008B374061218757402121875806874F74A
:104238001218B6EAFEEBFF89087C997D031208CBB9
:10424800EA5402600BA908EEFAEFFB12078180021C
:104258007901022C5274F61218B674FF6A7003744E
:10426800FF6B70168C828D831242A3E4F08C828DD2
:1042780083A3A3A31242A3A3801812089B8A088BC6
:1042880009A808A909E849600D8882898374FF1282
:104298002D54A3A3E4F07F0202198874FFF0A3F061
:1042A8008C828D83A3A32274F61218B612089B8AF7
:1042B800828B83E58245836006A3A3E0FA80027AB5
:1042C800007B0080D174F21218B68A088B09ECFEC4
:1042D800EDFF740E1218AAE0F50A12089B8A0C8BDF
:1042E8000DA80CA90DE8497026EEFCEFFD7AFF7BBE
:1042F800FF12089B8A0C8B0DA80CA90DE8497004C5
:104308007911801688828983E508F0A3E509F08889
:10431800828983A3A3E50AF079007F0602198874CD
:10432800EE1218B6EAFEEBFF8C088D09890C74149E
:104338001218AA1243F174161218AA12393E750DF2
:1043480000E84960030243E57402650C6003024318
:10435800E074121218AA1243FBFCA3E0F9EC240043
:10436800F50EE439F50FEAF4F8EBF4F9EC58F8E552
:104378000F59F9E849705CE5082406F8ED3400F9AE
:10438800880A890B8882F5831244061208CB8A10A2
:104398008B11E50E65107004E50F65116042780E0B
:1043A800121AC9850A82850B831244061208D17431
:1043B80002121875E9F50D7027780E121AC98508CA
:1043C80082850983A3A31244041208E9740212180F
:1043D80075800D750D808008750D0D8003750D0BAA
:1043E800A90D023A9D8E828F831243F522E0F8A32D
:1043F800E0F9221243F588828983E022A3A3E0FC36
:10440800A3E0FDEEFAEFFB2274E81218B674E71287
:10441800185F851882851983EAF0A3EBF08C168D56
:1044280017890E75080075090074311218AAE0F58D
:1044380012A3E0F51374331218AAE0F514A3E0F5FB
:104448001574351218AAE0F50FE50975F003A4F8FC
:10445800A9F085188285198312457AE0F47003A3C0
:10446800E0F4700302455DEE2402F50CEF1245708E
:10447800E0700302455D85160A85170B780A121A43
:10448800C9AC14AD15AA12AB131208537402121852
:10449800758A0A8B0BEA450B700302455DE4F5103B
:1044A800F5117810121AC974061218AA8582108597
:1044B80083117810121AC974091218AA85821085F6
:1044C80083117810121AC9851282851383A3A3A3B6
:1044D800A3121AE07914AC0AAD0B8E828F831239BD
:1044E8003E1208AD7408121875E97069850A82854C
:1044F8000B83A3A3A3A31243F174021218AA123BBD
:10450800AC850C82850D83E0A2E05018A90E7402D8
:104518001218AAAC82AD838E828F8312393E12079D
:10452800A5E94208850C82850D83E0A2E15026E5C5
:104538000FF50A780A121ACDA90E74031218AAAC3C
:1045480082AD838E828F8312393E12079F740112C7
:104558001875E942080509E509C3940250030244A5
:1045680051A90874190240D73400F50D850C82F55D
:104578008322E028FEA3E039FF8E828F832274F223
:104588001218B6EAFEEBFF890B7401650B600E7416
:1045980002650B706A7901120AA5E97062EEFAEFFA
:1045A800FB1208958A088B09EA45096047750A00D5
:1045B800800B7C177D007900121033050A90036682
:1045C800E0F8E50AC3985021E50A75F017A4F8A9A0
:1045D800F0850882850983A3A3E028FAA3E039FBC4
:1045E8008A828B83122EA670C985088285098374F6
:1045F800FFF0A3F07C997D03EEFAEFFB1208C502E9
:10460800432274F21218B68A088B09ECFEEDFF7487
:104618000E1218AA123C87900FE7E0F4603D7A0961
:104628007B00121045EA4B60328A828B8374B1F0AA
:10463800A3E4124119A3124117A3E508F0A3E50961
:10464800124666EEF0A3EF124666A3A3E50AF0A3AE
:10465800E50BF0900FE7E0F9121051024322F08ABF
:10466800828B83A3A3A3A3A322C082C0839061905B
:104678007404F0A37448F0A37402F090618074404D
:10468800F09061BC7403F09061877419F0906265D2
:10469800741BF0906249E0C3941390619C400A74C3
:1046A80009F090606674018007740DF0906066E40C
:1046B800F090619A7433F0A37455F09061A0743A45
:1046C800F09005BFE064017009C2919004267467F8
:1046D80080059004267461F0902C0EE49390618616
:1046E800F0902C08E493F46027E493540FF8906159
:1046F80085E0686012E5C654804449F5C6E59E54D5
:104708007F644970F8E8F053C680E59E547F70FADC
:104718007905120DFF0248CCC082C083E9540FF915
:10472800906185E0696012E5C654804449F5C6E5A4
:104738009E547F644970F8E9F053C680E59E547F23
:1047480070FA0248CCC082C083E5A8F853A87E90CE
:104758006181E4F0A3F0A3F0C2BA539AFEC289754E
:104768009B00C2C275E90075910075BF0075A9115B
:1047780075B905906181F0A374C0F0A3E4F0D2BAD2
:10478800439A0174805842A80248CCC082C08374FE
:10479800F812185F900424E0F8A3E0F9E8497003E0
:1047A8000248C1900424E0544060237908851882A7
:1047B800851983AA82AB83120C61851882851983B7
:1047C800AA82AB83120955900424E054BFF0E05448
:1047D800806010790C7AE57B05120C61900424E066
:1047E800547FF0E0A2E0503190619A7433F0A374E2
:1047F80055F09061A0743AF09005BFE0640170092B
:10480800C291900426746780059004267461F012A2
:10481800095B900424E054FEF0E05402603190619A
:104828009A743FF0A3745AF09061A0747FF09005D9
:10483800BFE064017009D2919004267471800590DC
:104848000426746AF012095B900424E054FDF0E039
:1048580054046013902C0CE493906186F012096163
:10486800900424E054FBF0E054086013902C0DE40D
:1048780093906186F0120961900424E054F7F0E007
:1048880054106013902C0EE493906186F012096125
:10489800900424E054EFF0E05420600A120961907B
:1048A8000424E054DFF0A3E05401600D120B8912D8
:1048B8000967900425E054FEF07408121875024840
:1048C800CCF0A3F0D083D08202013574EC1218B674
:1048D80074F412185F851882851983AC82AD8375CC
:1048E80083857582E17404121772902C0C93F4601E
:1048F80003024A5F907808E0C394025003024A3FDB
:1049080074041218AAAC82AD83758385758281748C
:104918000812177285188285198385821285831378
:1049280074041218AAAC82AD83750EFF750FFF7F51
:10493800FF7E00750C48750D78801574086E70033D
:104948000249D374096E70030249D3740A6E607BFE
:10495800850C82850D83780812172F8C828D83A988
:1049680009E50AC9F888107418780812165DE51068
:104978004508F8C3E098A3E099850C82850D8378F3
:104988000812172F40188C828D8374187808121615
:104998005DE5104508F8E0C398F8A3E0801C74189A
:1049A800780812165DE5104508FAE9FB8C828D83BC
:1049B800E0F8A3E0F9EAC398F8EB99F9C3E8950E93
:1049C800E9950F5006880E890FEEFF0EE50C2404BA
:1049D800F50CE50D3400F50DEEC3941350030249B0
:1049E8004374FF650E700474FF650F60238F0874AD
:1049F80002780812184C74482508F582747835092D
:104A0800F583780812172F851282851383E508F03D
:104A1800EC2402FCED3400FD851282851383A38506
:104A28008212858313740C1218AAE5826C7003E550
:104A3800836D600302493175080175090078081211
:104A48001AC974021218AAAC82AD837A037B0B12BE
:104A580012BB7402121875740C1218757F0C0219A7
:104A680088C082C0839061AE7468F0A3746AF090C5
:104A7800624574FBF0A304F053F4FD43FE02900575
:104A8800BF7401F09061A0E0643A90619A70237459
:104A980033F0A37455F09061A0743AF07401640186
:104AA8007009C29190042674678028900426746166
:104AB8008021743FF0A3745AF09061A0747FF07461
:104AC8000164017009D291900426747180059004E4
:104AD80026746A0248CB7F08021988C082C0839076
:104AE8000571E06401700A900576E06004790C8035
:104AF8000279000248CCC082C08375E1F190057448
:104B0800E0605B14600914605F14605714705E12F3
:104B18000B9B90056AE0F97A6B7B05120D817AD6BA
:104B28007BBE7C897D8E120DB77A557B557C557D71
:104B380000120D8D900575E0F9120D997901120D8D
:104B4800F3900568E0F8A3E0C82416F582E834007D
:104B5800F58374B3F0A3740BF079000248CC120B00
:104B6800A180AF120BA780AA120BAD80A579128085
:104B7800EA74F01218B675D90D900555E0A2E0E474
:104B8800331313F890056AE0C4333354C048440122
:104B9800F5D97868790588828983A3A3A3E0F5D934
:104BA80088828983A3A882A983E8646E7003E96474
:104BB8000570E37855790588828983A3E0F5D9885B
:104BC800828983A3A882A983E8645B7003E96405EA
:104BD80070E575E195900555E0F97A567B05120D5B
:104BE800879010097447F0A3740BF0A374A9F0A37D
:104BF800740CF0A374A9F0A3740CF0A374A9F0A327
:104C0800740CF0A3744DF0A3740BF0A374A9F0A373
:104C1800740CF0A37465F0A3740BF090101774A9CA
:104C2800F0A3740CF0A374A9F0A3740CF0A374A9F6
:104C3800F0A3740CF0A374A9F0A3740CF0A374A9E6
:104C4800F0A3740CF0A374A9F0A3740CF09005748D
:104C5800E064019005687012E0F8A3E0F5838882AB
:104C6800A3A37508007509088010E0F8A3E0F58390
:104C78008882A3A3750804750900750A00750B00DE
:104C880078081216A8750CFF750DFF750EFF750FC5
:104C9800007808790C1216F6900568E0F8A3E0C8C9
:104CA800240EF582E83400F583780812173E900543
:104CB80068E0F8A3E0C82414F582E83400F58374AA
:104CC80013F09004227402F0024ADE74F71218B648
:104CD80090057AE02407F5D990056AE0C433335487
:104CE800C0F5D97868790588828983A3A3A3E0F5FC
:104CF800D988828983A3A882A983E8646E7003E9AE
:104D0800640570E390057AE0601F78687905FAE831
:104D18002413F582E93400F583E0F5D98882898384
:104D2800A3A882A9831AEA70E690059AE02407F5F9
:104D3800D990056AE0C4333354C04404F5D978687F
:104D4800790588828983A3A3A3E0F5D9888289831A
:104D5800A3A882A983E8646E7003E9640570E390F0
:104D6800059AE0601F78687905FAE82433F582E946
:104D78003400F583E0F5D988828983A3A882A983C2
:104D88001AEA70E675E1959010097453F0A3740B54
:104D9800F0A374A9F0A3740CF0A374A9F0A3740C85
:104DA800F0A374A9F0A3740CF0A3744DF0A3740BD2
:104DB800F0A374A9F0A3740CF0A37465F0A3740BAA
:104DC800F090101774A9F0A3740CF0A374A9F0A3C1
:104DD800740CF0A374A9F0A3740CF0A374A9F0A345
:104DE800740CF0A374A9F0A3740CF0A374A9F0A335
:104DF800740CF0900568E0F8A3E0C8240EF582E88A
:104E08003400F58374FFF0A3F0A3F0A3F0900568D5
:104E1800E0F8A3E0C82414F582E83400F58374129E
:104E2800F09004227401F0FF02198874F71218B682
:104E380090057AE02407F5D990056AE0C433335425
:104E4800C04402F5D97868790588828983A3A3A329
:104E5800E0F5D988828983A3A882A983E8646E7063
:104E680003E9640570E390057AE0601F78687905C6
:104E7800FAE82413F582E93400F583E0F5D988824D
:104E88008983A3A882A9831AEA70E675E195901030
:104E980009745FF0A3740BF0A3745FF0A3740BF0B4
:104EA800A3745FF0A3740BF0A3745FF0A3740BF00A
:104EB800A3745FF0A3740BF0A3745FF0A3740BF0FA
:104EC800A37465F0A3740BF090101774A9F0A37481
:104ED8000CF0A374A9F0A3740CF0A374A9F0A37444
:104EE8000CF0A374A9F0A3740CF0A374A9F0A37434
:104EF8000CF0A374A9F0A3740CF0900568E0F8A373
:104F0800E0C8240EF582E83400F58374FFF0A3F0BE
:104F1800A3F0A3F0900568E0F8A3E0C82414F58294
:104F2800E83400F5837414F09004227404F00251FC
:104F3800FA74F71218B690057AE02407F5D99005A7
:104F48006AE0C4333354C04406F5D97868790588D3
:104F5800828983A3A3A3E0F5D988828983A3A88241
:104F6800A983E8646E7003E9640570E390057AE04C
:104F7800601F78687905FAE82413F582E93400F5AA
:104F880083E0F5D988828983A3A882A9831AEA7065
:104F9800E690059AE02407F5D990056AE0C4333312
:104FA80054C04404F5D97868790588828983A3A315
:104FB800A3E0F5D988828983A3A882A983E8646ECF
:104FC8007003E9640570E390059AE0601F786879DA
:104FD80005FAE82433F582E93400F583E0F5D98849
:104FE800828983A3A882A9831AEA70E675E195905D
:104FF80010097459F0A3740BF0A374A9F0A3740CEE
:10500800F0A374A9F0A3740CF0A374A9F0A3740C12
:10501800F0A374A9F0A3740CF0A374A9F0A3740C02
:10502800F0A37465F0A3740BF090101774A9F0A3A3
:10503800740CF0A374A9F0A3740CF0A374A9F0A3E2
:10504800740CF0A374A9F0A3740CF0A374A9F0A3D2
:10505800740CF0A374A9F0A3740CF0900568E0F840
:10506800A3E0C8240EF582E83400F58374FFF0A3AA
:10507800F0A3F0A3F0900568E0F8A3E0C82414F5C5
:1050880082E83400F5837415F09004227403F0026A
:1050980051FAC082C083900568E0F8A3E0C82406EE
:1050A800F582E83400F583E40248C974F71218B6AB
:1050B800900450E0F875F003A4C8AAF02AF97452D5
:1050C80028F8740439F9E82405FAE93400FB8A82DF
:1050D8008B83E0FCA3E0FD88828983A3A3A3A3A319
:1050E800A3A3A3A3ECF0A3EDF088828983A3A3A3D1
:1050F800A3A3A3A3E024FFF8A3E034FFF98A828BDB
:1051080083E8F0A3E9F00251FA74F71218B6EAFE40
:10511800EBFF9061D0E060030251EE75D90E75D9AE
:105128000375D904EE248BF582EF3400F583E5820C
:105138002408F8E5833400F9E0F5D9A3E86582701E
:1051480003E9658370F2EE2483F582EF3400F5837A
:10515800E5822404F8E5833400F9E0F5D9A3E8658D
:10516800827003E9658370F275E1957908EE248B06
:10517800FAEF3400FB120C557904EE2483FAEF346D
:1051880000FB120C557C00EEF8EFF9ECFAC3E49A38
:10519800FA95E0FBEE2AFAEF3BFBEA248AF582EB6C
:1051A8003400F583E0C0E0E824AAF582E93400F58C
:1051B80083D0E0F00C88828983A3A882A983ECC3FA
:1051C800940840C7EE246FF582EF3400F583E0F8C9
:1051D800A3E0F9EE2471F582EF3400F583E8F0A33B
:1051E800E9F07901800279008008F0EEA2E092AF40
:1051F80079007F01021988C082C08375D90275D9E8
:105208000375D90575E195EA246FF582EB3400F54D
:1052180083E0F8A3E0F9EA2471F582EB3400F58322
:10522800E8F0A3E9F079010248CC74F61218B6EA5E
:10523800FEEBFF9005C57406F07508C5750905787D
:1052480008121AC97C017903120C9D740212187590
:1052580075D90675D9037582C5758305E0F5D9A397
:10526800E58264CA7004E583640570F075E1959081
:105278000422E06408701EEE246FF582EF3400F516
:1052880083E0F8A3E0F9EE2471F582EF3400F583AA
:10529800E8F0A3E9F0790102550074F61218B6EAAD
:1052A800FEEBFF9061D0E0706678019005C5740B45
:1052B800F0900422E0640770197508C5750905782F
:1052C80008121AC97C017903120C9D740212187510
:1052D8007805740128F5D975D9037582C5758305D4
:1052E800E8FAE0F5D9A31AEA70F875E195EE246FAB
:1052F800F582EF3400F583E0F8A3E0F9EE2471F5C8
:1053080082EF3400F583E8F0A3E9F07901800279AF
:105318000002550074F71218B6EAFEEBFF75D903C0
:1053280075D90375D90DEE24DDF582EF3400F583C8
:10533800E0F5D975E1957904120DBDEE246FF5827B
:10534800EF3400F583E0F8A3E0F9EE2471F582EF7D
:105358003400F583E8F0A3E9F079010251FA74F614
:105368001218B6EAFEEBFF9061D0E0F87480C3989B
:10537800FAEE2482F582EF3400F583E060047804C5
:1053880080027800E8240BF8EAC398500302542BF3
:105398007D099005C5EDF0EE24E2F8EF3400F97AC6
:1053A800C67B057C0888828983E08A828B83F088A3
:1053B800828983A3A882A9838A828B83A3AA82ABCA
:1053C800831CEC70E0EE2482F582EF3400F583E074
:1053D800601D7508C57509057808121AC97C097910
:1053E80003EEFAEFFB120C9D74021218757D0D7412
:1053F800012DF5D975D9037582C57583058D08E02A
:10540800F5D9A31508E50870F675E1957904120D2C
:10541800BDEE241DF582EF3400F583E4F0A3F079A6
:10542800018002790002550074F61218B6EAFEEB04
:10543800FF9061D0E0F87480C398FAEE2482F58278
:10544800EF3400F583E06004780480027800E824F3
:1054580008F8EAC39850030254FE78069005C5740C
:105468000CF090043FE09005C6F0900440E09005F1
:10547800C7F0900441E09005C8F0900442E0900520
:10548800C9F0900443E09005CAF0EE2482F582EF5B
:105498003400F583E0601B7508C5750905780812A6
:1054A8001AC97C067903EEFA120C9D74021218755B
:1054B800780A740128F5D975D9037582C5758305ED
:1054C8008808E0F5D9A31508E50870F675E195791F
:1054D80004120DBDEE246FF582EF3400F583E0F879
:1054E800A3E0F9EE2471F582EF3400F583E8F0A328
:1054F800E9F07901800279007F0202198874F612B6
:1055080018B6EAFEEBFF9061D0E0F87480C398FA11
:10551800EE2482F582EF3400F583E060047804809D
:10552800027800E82404F8EAC39850030255DF78AB
:10553800029005C5E8F0EE24F4F582EF3400F58317
:10554800E09005C6F0EE2482F582EF3400F583E0A2
:10555800601B7508C57509057808121AC97C027997
:1055680003EEFA120C9D740212187578067401285D
:10557800F5D975D9037582C57583058808E0F5D90D
:10558800A31508E50870F675E195EE2473F582EF2A
:105598003400F583E4F0EE247FF582EF3400F583E0
:1055A800E4F0EE241DF582EF3400F583E4F0A3F077
:1055B8007904120DBDEE240DF582EF3400F583E079
:1055C800F8A3E0F9EE2471F582EF3400F583E8F0F2
:1055D800A3E9F079018002790002550074F61218E7
:1055E800B69061D0E0F87480C398FCEA2482F58212
:1055F800EB3400F583E06004780480027800E82446
:1056080004F8ECC398405B79029005C57407F0EA8A
:1056180024F5F582EB3400F583E09005C6F0EA2422
:1056280082F582EB3400F583E060187508C57509CA
:10563800057808121AC97C0209120C9D7402121806
:10564800757906740129F5D975D9037582C57583ED
:1056580005E9F8E0F5D9A318E870F875E19579013E
:105668008002790002550074F51218B6E9FCA2AF61
:10567800E433F50AC2AF7D0080010DEA246EF5829D
:10568800EB3400F583E0F8EDC398501A8D08EA254D
:1056980008F8EB3400F9E8246AF582E93400F58368
:1056A800E06C70D68024EA246EF8EB3400F9E0FE52
:1056B800EA2EFAEB3400FBEA246AF582EB3400F5B3
:1056C80083ECF088828983E004F0E50AA2E092AFD7
:1056D8007F0302198874F61218B6A2AFE433FDC22C
:1056E800AFEA246EF582EB3400F583E014F07C0019
:1056F80060368C08EA2508F8EB3400F9E8246BF5E5
:1057080082E93400F583E0C0E0E8246AF582E934F0
:1057180000F583D0E0F00CEA246EF582EB3400F556
:1057280083E0F8ECC39840CAEA246DF582EB3400B4
:10573800F58374FFF0EA2469F582EB3400F583E41D
:10574800F0EDA2E092AF025500C082C083E5A8F850
:10575800C2AFEA246AF582EB3400F583E9F0EA2463
:1057680069F582EB3400F583E4F0E8A2E7A2E7925A
:10577800AF0248CC74F31218B6EAFEEBFFECFAED70
:10578800FB8A828B83A3A3A3A3E0541FF0EE2436E5
:10579800F582EF3400F583E4F0F50AEEFCEFFD8ABC
:1057A800828B83E0C0E0EC245DF582ED3400F58364
:1057B800D0E0F0750B00E50A33333354F8F50C8A62
:1057C800828B83E0F508750900E50B780812182D1F
:1057D800E508A2E0502FEE2436F8EF3400F988826D
:1057E8008983E0F508EE2508F508EF3400F509E5AA
:1057F800082438F582E5093400F583E50CF0888241
:105808008983E004F0050B050CE50BC3940840AF51
:10581800050A8A828B83A3AA82AB838C828D83A399
:10582800AC82AD83E50AC3940550030257A77F05F0
:1058380002198874F71218B690044EE064017003D8
:105848000259997A00900454E0600302599974014E
:10585800F0A3E4F0A3F09004B404F09004B9F0903D
:105868000457E4F0A3F0A3F0A3F090046104F090CF
:105878000487E4F090046AF0A3F0A3F0A3F0A3F087
:10588800A3F0A3F09004D1F09004C5F09004BA748A
:1058980080F0A3E4F09004C0F090053CF0A3F0A3DE
:1058A800F0A3F0A3F0A3F0A3F0A3F0900545F090C7
:1058B80004D4F0900524F0A3F0A3F0A3F0A3F0A380
:1058C800F0A3F0A3F0A3F0A3F0900530F090053218
:1058D800F090052EF0900548F0A3F0A3F0A3F0A3F4
:1058E800F0A3F0A3F0A3F0784E7904E8246EF582D3
:1058F800E93400F58374FFF00A88828983A3A882BB
:10590800A983EAC3940440E37A4E7B04785C790562
:1059180088828983E0C0E0EA2461F582EB3400F5EF
:1059280083D0E0F088828983A3A882A9838A828BA6
:1059380083A3AA82AB83E864617003E9640570D02D
:105948007A4E7B047835790488828983A3E0C0E0A5
:10595800EA24E6F582EB3400F583D0E0F08882890A
:1059680083A3A882A9838A828B83A3AA82AB83E8B4
:10597800643D7003E9640470CF90044EE004F06461
:10598800017008900456E0900450F07A527B04802D
:10599800047A007B000251FAC082C083900455E467
:1059A800F0900454F090044EF0A3F0A374FFF07547
:1059B800E1F10248CCC082C0837800790090045598
:1059C800E060047852790488828983A3A3A3A3E0C2
:1059D800F90248CC74F61218B6EAFEEBFFEE24631F
:1059E800F582EF3400F583E0F8A3E0F9E8497003A5
:1059F800025A81EE2463F8EF3400F97A007B00A2A2
:105A0800AFE433F508C2AF88828983E0FCA3E0FDE8
:105A1800EC4D603A88828983E0FAA3E0FB8A828BA6
:105A280083E0FCA3E0FD88828983ECF0A3EDF08A93
:105A3800828B83E4F0A3F088828983E0FCA3E0FDF5
:105A4800EC4D700A88828983A3A3E4F0A3F0E508EB
:105A5800A2E092AF1213ED900562E004F0900563A6
:105A6800E004F0EE2463F582EF3400F583E0F8A358
:105A7800E0F9E84960030259FB8E828F83A3A3A350
:105A8800E0600F8E828F83A3A3A3E4F090044FE01D
:105A980014F090044EE014F0700690045074FFF077
:105AA8008E828F83A3A3E4F0900561E0700D9004CB
:105AB8004FE0640170057900120D9FEEFAEFFB12BA
:105AC8000CCD02550074F71218B6EAFEEBFF8E8271
:105AD8008F83A3A3A3A3E0FA7B001209A9EEFAEF30
:105AE800FB120C1F120CB50251FAC082C083783524
:105AF800790488828983A3E4F088828983A3A882B1
:105B0800A983E8643D7003E9640470E69004367480
:105B1800010248CB74F61218B6EAFEEBFFEC240338
