:020000040000FA
:0600000002011D02283B75
:03002B000230514F
:0300330002303365
:03003B000230B0E0
:03004300022FE1A8
:030053000228AED2
:03006B00023075EB
:03007B00022F6FE2
:100083000226A7E5C754F84401F5C7790122000009
:100093000080FB120086B90003020107E47921788E
:1000A30008B800028004F709D8FCE479297802B87B
:1000B30000028004F709D8FCE490028178E6790B0A
:1000C3008002F0A3D8FCD9FA781A90014D7A01BACC
:1000D30000028007E493A3F608DAF9900D66AA827A
:1000E300AB8390014E782C79048015E493A3AC8202
:1000F300AD838A828B83F0A3AA82AB838C828D83A8
:10010300D8E9D9E77582717583CE740312012F750F
:100113008291758300740012012F75D000758137A9
:10012300751881751902759F00020096C09FF59F8F
:10013300E473D09F22D083D082C09FE493C0E07445
:100143000193C0E0740293F59F2201FF0000B40005
:100153000028002800283075A000A000A000A000FF
:1001630000080008E001F00010001000100010006B
:100173001000100050005000500010001000D00775
:100183000000000000000F000100050030750700AB
:100193001000010081FF00000000FF770695067D37
:1001A30006FF02020208025000A0000000E803025A
:1001B3001485010000FD84021085010000BD0D02BD
:1001C3000685010000B302021085010000BE0D0286
:1001D3000485010000C902021085010000BF0D0261
:1001E3000285010000CB02021085010000C00D0250
:1001F3000085080000CC02021085010000C10D0239
:100203001285010000C20DFF0100FF2002148501C9
:100213000000F484021085010000260E022C8500E4
:10022300000000000208850300001903410C410C83
:10023300410C410C410C410C410C410C410C410C53
:10024300410C410C410CD50EED0ECF0EFFFFE0012A
:100253006169636F2D656767110199010F1264046A
:1002630001021485010000FA840210850100007860
:100273000E020C85010000790E0208850300008A36
:10028300090240850100007A0E0202020202020204
:100293000202010D0000001001021485010000EEAE
:1002A30084021085010000A40E021A85010000904B
:1002B30009021085010000A50E021E85010000C37E
:1002C30083021085010000A60E0220850100009A1A
:1002D30083021085010000A70E022A85010000C4D5
:1002E30082021085010000A80E023285010000D6AB
:1002F30082021085010000A90E023485010000A0CE
:1003030082021085010000AA0E023685010000B2A8
:1003130082021085010000AB0E023885010000A89F
:1003230083021085010000AC0E023A85010000AD86
:100333000E01E803053F100AFF00013075030201B7
:1003430006000000000000000000000000000000A4
:1003530000000000000000000000000000FFFF0696
:1003630000800CE8031409000000000000000000F6
:1003730000000000000000000000051250002003F0
:10038300020A000201060302F0FF931400000000BA
:100393007B1499140A4368617261637465726973AB
:1003A3007469632031000A43686172616374657222
:1003B300697374696320320008436861726163740E
:1003C30065726973746963203300104368617261F5
:1003D30063746572697374696320340002436861EE
:1003E3007261637465726973746963203500021402
:1003F30085010000F784021085010000AF0F023E63
:1004030085030000310D020A85010000B00F0210C0
:1004130085010000C10F023085030000450D020A6B
:1004230085010000C20F021085010000D30F0228CE
:1004330085030000460D020A85010000D40F021057
:1004430085010000E50F0226850000005A0D020811
:10045300850300005B0D020A85010000E60F021010
:1004630085010000F70F022485040000610D020AD4
:1004730085010000F80F12013842FE0112013859BC
:10048300FE011201388AFE01120138C5FE01120174
:1004930038EFFE0112013819FF0112013830FF0154
:1004A30012013847FF011201385EFF01120138873C
:1004B300FF011201389AFF01120138B0FF01120146
:1004C30038C3FF01120138EAFF01120138E9C00203
:1004D300120138EDC10212013825C2021201384857
:1004E300C20212013853C20212013876C20212014B
:1004F3003885C3021201385AC402120138D5C40226
:100503001201385DC50212013898C502120138CFB5
:10051300C5021201385DC60212013836C702120144
:100523003896C702120138A1C70212013820C80247
:1005330012013823C80212013826C802120138B545
:10054300C802120138B8C802120138E8C802120101
:100553003812C90212013800CA02120138B2CA02A3
:10056300120138BDF902120138E5F90212013813FC
:10057300FA021201384AFA02120138A8FA021201E9
:1005830038F3FA021201383EFB021201387EFB02F5
:10059300120138C4FB02120138F2FB02120138AF18
:1005A300FC02120138B9FC02120138C6FC02120126
:1005B30038F9FC02120138C5FD02120138D1FD02DF
:1005C300120138E9FD02120138F3FD021201384F1E
:1005D300CA031201385DCA0312013875CA03120136
:1005E300388DCA031201388FCD011201383BCE0179
:1005F300120138B6CE01120138D7CF0112013813D8
:10060300D001120138BCD001120138A3D10112016B
:100613003807D3011201385ED301120138DFD30149
:10062300120138CFD4011201381CD501120138A2AE
:10063300D501120138D4D501120138E8D7011201CE
:10064300382AD80112013848D801120138CBD80111
:100653001201389FD90112013867DA01120138A655
:10066300EB0212013879EC0212013822ED02120179
:100673003875ED0212013825EE02120138B1EE028F
:100683001201389DEF02120138CCEF02120138DF5C
:10069300F00212013827F102120138FCF1021201B3
:1006A3003838F20212013854F2021201382ACD030B
:1006B300120138E7A103120138FDA1031201382307
:1006C300A2031201383FA30312013849A303120105
:1006D300387EA40312013876A5031201381BF901F1
:1006E3001201384BFA011201387EFA01120138C89F
:1006F300FA011201388FFC0112013868AE011201B0
:1007030038D2AE0112013831B00112013841B001C3
:100713001201386EB001120138C5B0011201386EF2
:10072300B10112013875B2011201383FB301120150
:10073300389FB401120138E2B40112013887B501C0
:10074300120138D4B501120138FAB5011201380883
:10075300B8011201380DB80112013812BA011201A1
:10076300385FBA01120138D2BA0112013805BB0150
:10077300120138A7BB0112013850BC01120138889D
:10078300BC011201388BBC01120138D3BC01120128
:100793003813BD011201386ABD01120138DDAB0304
:1007A300120138F5AB031201383DAC031201385383
:1007B300AC031201389AAC03120138AEAD03120137
:1007C300383BAE0312013886AE03120138243100E0
:1007D3001201383031001201386B3100120138B088
:1007E3003100120138703200120138F63200120162
:1007F300385B3300120138873300120138C03300ED
:10080300120138FE3500120138E23700120138C8F0
:1008130039001201380B3B00120138593D00120117
:10082300386B3E00120138B63F00120138C6400053
:10083300120138E340001201381E41001201384012
:100843004100120138A3410012013864460012012D
:1008530038F946001201384A47001201387147003F
:10086300120138C34700120138E147001201383B37
:1008730048001201382449001201389A4A00120133
:10088300381E4B001201389A8403120138A48403E2
:10089300120138E7840312013802850312013892EA
:1008A3008503120138BA8503120138F78503120153
:1008B300382E8603120138578603120138CC86037B
:1008C300120138E18603120138F686031201382734
:1008D30087031201383B8703120138608703120133
:1008E300389A8703120138C68703120138498803EF
:1008F300120138928803120138BC8803120138E7C9
:1009030088031201384FC603120138E8A802120106
:100913003816A90212013864AA0212013844AB0244
:1009230012013863AB02120138E0AB021201382323
:10093300AC0212013879AD021201383AAE0212014B
:1009430038C1B00212013862B10212013858B20242
:1009530012013855B302120138AFB4021201383A0A
:10096300B5021201387D7E00120138E67E001201C5
:10097300383A7F00120138617F00120138927F00FC
:100983001201380F89031201387C8903120138C31D
:100993008903120138DB8A03120138D78B03120152
:1009A30038BA8C0312013823CB0212013865CB020B
:1009B30012013837CC0212013810CD021201380A65
:1009C300CE02120138ECCE0212013855CF021201C9
:1009D300380BD0021201387FD002120138EBD0025B
:1009E30012013814D1021201388ED10212013827B4
:1009F300D2021201388CD202120138A1D2021201A2
:100A030038E7D20212013800D30212013865D3024B
:100A130012013868D302120138E4A8031201380C1A
:100A2300A9031201384AA90312013808AA031201C3
:100A3300386FAA031201388BAA03120138B3AA0331
:100A4300120138E3AA03120138F2AA031201386F24
:100A5300AB0312013895AB0312013857BE011201E3
:100A63003835C00112013867C201120138A3C2012F
:100A7300120138D0C201120138BAC301120138057C
:100A8300C40112013850C40112013862C4011201B9
:100A930038A2C401120138D7C40112013825C50197
:100AA30012013854C50112013877C501120138C447
:100AB300C50112013849C60112013863C801120188
:100AC30038A2CA01120138E3CA0112013885CC01E8
:100AD300120138C6CC0112013839CD01120138D3C5
:100AE3009B02120138D19C021201386AA30212013F
:100AF300388BA50212013856A702120138BEA8028C
:100B0300120138854B00120138344C001201386150
:100B13004C00120138A74C00120138E74D001201B6
:100B2300387D4F00120138F74F0012013812500080
:100B33001201388D5000120138E751001201384775
:100B430053001201384D5400120138AE5500120102
:100B530038C75500120138255600120138135700C3
:100B6300120138465700120138B6570012013830C7
:100B730058001201387A5800120138445900120102
:100B830038195A00120138F85A00120138835B00F1
:100B9300120138F15B00120138655C0012013890D4
:100BA3005C001201384F5D00120138B45E0012017F
:100BB30038D15E00120138F05E00120138E15F00A7
:100BC300120138066000120138306000120138ABA0
:100BD30060001201380561001201386E62001201D3
:100BE300381C63001201385D6300120138FF8D0267
:100BF3001201384D8E02120138598E021201383714
:100C03008F02120138688F02120138998F02120184
:100C130038199002120138519002120138A3900240
:100C2300120138E09002120138FD920212013823BA
:100C330095021201380E9702120138F89802120138
:100C430038FCFF01120138559A01120138859A01C7
:100C53001201385EA101120138E3A201120138E04A
:100C6300A801120138C8A90112013805AA0112010D
:100C73003828AA0112013859AA0112013862AA01BF
:100C83001201386CAA011201385AAB011201385013
:100C9300AC01120138468501120138458901120160
:100CA300384B89011201388690011201389F950152
:100CB300120138199E03120138AF9E03120138C581
:100CC3009E031201383B9F03120138AF9F031201A9
:100CD30038ED9F0312013861A003120138DAA00333
:100CE300120138E3A003120138EFA0031201380404
:100CF300A10312013842A10312013858A1031201C2
:100D030038B7A103120138D89103120138E59103D2
:100D1300120138FF91031201383E92031201387C0D
:100D23009203120138E19203120138F69203120181
:100D3300380193031201380E9303120138259303EC
:100D43001201383393031201383E93031201384AD8
:100D53009303120138599303120138649303120168
:100D6300388793031201382E94031201383E9403FB
:100D73001201385894031201387594031201389103
:100D83009403120138B69403120138C1940312017B
:100D930038D69403120138EA94031201384B9503B1
:100DA3001201385195031201385795031201385D2A
:100DB3009503120138759503120138A895031201A2
:100DC30038F1EA0112013875EB0112013824EC0104
:100DD30012013883ED01120138A4EF01120138909A
:100DE300F001120138C5F001120138E7F0011201D8
:100DF3003896F1011201388EF301120138B7F3016D
:100E030012013849F4011201387BF40112013888C8
:100E1300F401120138DFF40112013805F501120162
:100E23003872F70112013875F801120138CDF80153
:100E330012013880DC011201388ADD011201387198
:100E4300DE011201387BDE011201389DDE01120141
:100E530038A9DE0112013842E00112013871E001C4
:100E63001201388DE101120138E6E1011201384C1B
:100E7300E3011201382BE40112013887E401120166
:100E830038F4E4011201382FE5011201386EE5014F
:100E930012013827E80112013841E801120138CD67
:100EA300E801120138DBE80112013834E9011201CB
:100EB3003842E901120138B5E90112013819EA0192
:100EC30012013863EA01120138BBB502120138DDA1
:100ED300B50212013803B80212013818BB0212011D
:100EE3003830BC02120138E3BC02120138C5BD021E
:100EF300120138B4BE03120138D9BE031201384BB4
:100F0300BF031201382CE40212013835E402120146
:100F1300383EE40212013815E502120138C6E60232
:100F2300120138FCE60212013836E7021201386C6E
:100F3300E702120138A6E702120138DAE7021201CA
:100F43003806E8021201384FE80212013889E80234
:100F5300120138D2E8021201382AE9021201385F7D
:100F6300E902120138BAE902120138F4E902120166
:100F73003845EA021201387BEA02120138B5EA0267
:100F8300120138E3EA0212013806EB02120138E7D4
:100F9300CB0312013813CC031201386ECC031201B8
:100FA3003878CC0312013888CC031201388CD30271
:100FB30012013896D302120138D4D3021201381D1C
:100FC300D40212013857D402120138B1D4021201EB
:100FD30038D2D402120138AAD702120138B3D70289
:100FE30012013800D80212013829D802120138330D
:100FF300D8021201389FD80212013831D9021201E6
:10100300387BD902120138B1D9021201383DDA0214
:101013001201387EDA02120138B5DA02120138C73A
:10102300DA02120138E6DA02120138EFDA021201AB
:1010330038BCDB021201386CC803120138C3BC038D
:10104300120138F9BC031201382FBD031201387A9B
:10105300BE0312013892CC03120138A8CC0312014B
:1010630038B2CC03120138FCCC0312013812CE0380
:10107300120138008003120138158003120138C5AC
:1010830080031201380581031201381E8103120106
:1010930038598103120138A68103120138D881031C
:1010A3001201381A82031201381B84031201388D8E
:1010B30084031201389DC303120138C6C30312010E
:1010C30038F5C3031201388DC403120138A5C403D4
:1010D300120138E7C403120138B2BA03120138BB54
:1010E300BA031201382CBB0312013840BB031201AF
:1010F3003895BC03120138B7BC031201382CC50361
:1011030012013844C50312013880C503120138C2E5
:10111300C503120138F7C5031201380AC6031201C9
:1011230038AECD03120138BACD0312013880A503BE
:101133001201382CA6031201380CA70312013864DC
:10114300A703120138CBA703120138DEB303120140
:10115300380EB403120138B9B4031201385BB50376
:10116300120138B0AE03120138D5AE03120138FFB5
:10117300AE03120138C9CE031201388D6300120188
:1011830038F265001201389367001201384768008E
:10119300120138DA68001201385F690012013884DD
:1011A3006900120138DA6C00120138606D00120117
:1011B30038936E00120138CD6E00120138026F00B1
:1011C300120138C270001201381F71001201386811
:1011D3007100120138D371001201384472001201F8
:1011E300387672001201388E7200120138D77300FC
:1011F300120138E773001201380275001201382416
:1012030075001201385A75001201380E7700120169
:10121300389B7700120138DA7700120138FE780024
:1012230012013826CB0312013837CB03120138DC05
:10123300CB031201386ACF03120138A9CF0312017D
:101243003807D00312013863C90312013873C90385
:101253001201388EC90312013842CA031201387CC5
:10126300B103120138ADB10312013897B303120170
:101273003868C703120138EDC70312013853C80396
:101283001201387AFE02120138AEFE02120138D77B
:10129300FE021201384EFF0212013859C003120137
:1012A3003882C003120138E8C00312013808C103B1
:1012B30012013859C103120138B4C103120138EEC7
:1012C300C103120138F1C10312013823790012015D
:1012D300385C7900120138CE7900120138E37900C5
:1012E3001201380E7B001201388A7B0012013896F6
:1012F3007C001201385C7D001201387B7D001201F5
:1013030038A27D00120138DF7D00120138F77D001D
:10131300120138487E001201382596031201383C29
:101323009603120138B696031201389A97031201F5
:1013330038719903120138D699031201382D9A0393
:101343001201381FCF03120138F87F001201382829
:10135300B603120138C3B70312013824B8031201CC
:10136300386AB803120138419A03120138DC9A0330
:10137300120138609B03120138F99B03120138BB39
:101383009C03120138309D03120138589D0312014A
:1013930038619D03120138D19D03120138E49D0386
:1013A300120138FA9D03120138039E031201381605
:1013B3009E03120138FBC1031201384DC20312010F
:1013C30038D7C2031201383EC3031201386DB80384
:1013D30012013897B80312013865B9031201384076
:1013E300BA03120138EADB02120138B1DC0212013E
:1013F30038E8DC0212013812DD0212013872DD0214
:10140300120138C8DD021201382DDE02120138C57F
:10141300DE02120138D4DF021201386BE10212013D
:1014230038F8E1021201385FE20212013876E20273
:1014330012013890E302120138CEE30212013800A0
:1014430080021201388183021201380985021201D8
:10145300386085021201387F8502120138FD85024A
:1014630012013893870212013878880212013886F4
:101473008C021201385C8D02120138C9F20212018A
:10148300383CF302120138EDF30212013803F6027D
:10149300120138B2F702120138E3F8021201383CA4
:1014A300F9021201387C8D03120138C18D03120138
:1014B30038DE8D03120138A38E031201380C8F031B
:1014C300120138F08F031201389F9103120138B3D0
:1014D300CF03120138BDFF02120138DFCF0312011F
:1014E30038D87F00E066701008A3E066700A08A38E
:1014F300E066700408A3E06622C3E7960809E7964E
:101503000809E7960809E79622C3E09608A3E09640
:1015130008A3E09608A3E09622C008C3E096F50866
:1015230008A3E096420808A3E096420808A3E096C1
:1015330045087001D3D00822E9799EC608CAC608B7
:10154300CBC608CCC6C370207996CACBCC701979A8
:101553008ECBCC70137986CC700EF9802ACA33CA2D
:10156300CB33CBCC33CC331930E7F2CCCBCA3350AB
:10157300147004EA30E00DE4CA3ACACB3BCBCC3C4E
:10158300CC500209C3E913C6CC182313C6CB18C623
:10159300CA18C6F9221215D820F01430E72B74FFAD
:1015A300FCFBFA747F8022E4FCFBFA7480801AB49B
:1015B3008008BC00F2BB00EF800F50EBF9E4C39A44
:1015C300FAE49BFBE49CFCE499C6CC18C6CB18C692
:1015D300CA18C6F922E4C9C608CAC608CBC6D3339B
:1015E3000308CCC63392F0C3947F402E941840195D
:1015F300C9B90704CACBCC225025C309CA33CACB05
:1016030033CBCC33CC33D9F422F4600DC9CCC31320
:10161300CB13CBCA13CAD9F6CC22E4FCFBFA2214AF
:10162300FCFBFA22E6C33318461846184622E7C3E2
:101633003319471947194722181818E6084608703E
:101643000AE608C3337005E633F422082219191990
:10165300E7094709700AE709C3337005E733F42242
:101663000922E6084608C3134608336002E633F44A
:1016730022E7094709C3134709336002E733F4221A
:10168300121665601D1216747005191919801A1245
:10169300163B701F121650C37003E66733191919EE
:1016A30040071818182208080874FFF618F618F6E9
:1016B30018F6221216506017121631702192F0128A
:1016C30016277019501720F014080808090909E7AC
:1016D300F61819E7F61819E7F61819E7F62212169D
:1016E3002760E6E869701F0808E62480F608E436F8
:1016F300F618547FB47F0CE654806007F6E418F6BE
:1017030018F622181822E9C6CC08C6CD08C6CE089A
:10171300C6CFC0E0E8C0E0EAC0E0EBC0E009E9F80A
:1017230009E7FA09E7FBE6F918E6F8C3EC98ED993F
:10173300EE9AEBC2E7F5F0EFC2E795F0500E600CBE
:10174300EBCFFBEACEFAE9CDF9E8CCF8EAA2E7D28F
:10175300E7FAEB33FB13F5F0EEA2E7D2E7FEEF3344
:10176300FFC5F013A2E730E601B313C5F0C3C0E031
:10177300C0F07F00C39BFB605E9418600F401D1494
:10178300601AD0E023F9D0E0F80218648AF0E9483F
:101793006003D2F0E4AFF0FAF9F8803BEB30E40DEC
:1017A30089F0EA6003D2F0E4AFF0F9CAF8EB30E372
:1017B3000D88F0EF6002D2F0AFF0E4CAC9F8EB5441
:1017C300076014FBC3EA13FAE913F9E813F8EF13FC
:1017D3005002D2E0FFDBEDD0E0C0E030E739C3E4F4
:1017E3009FFFF5F0EC98FC42F0ED99FD42F0EE9A84
:1017F300FE42F0D0E0F9D0E0F8E5F0607AE923F9B1
:10180300EE20E742D8028067C3EF33FFEC33FCEDF1
:1018130033FDEE33FE80EAEC28FCED39FDEE3AFEB3
:10182300D0E023F9D0E0F84002801BC3EE13FEEDB5
:1018330013FDEC13FCEF135002D2E0FF08B80006CF
:101843007F7F74FF802EEF3350178CF020F00260FF
:10185300100CBC000C0DBD00080EBE000408E860AF
:10186300DFE933E813FFEE2313FE4F4D4C8008E905
:101873005480FFE4FEFDFCEE33EF33F47004FCFD13
:101883007E80D0E0FBD0E0FAD0E0F8D0E0CFC618FD
:10189300CEC618CDC618CCC6F92212166570041828
:1018A300181822121674700D74FFF61819F6181909
:1018B300F61819F622E7548066F6121627700F12EF
:1018C300163170F014F608F608F608F680D11216F1
:1018D30031700CF608F608768008E6447F80EC1237
:1018E3001653700C12163E60BFE65480F6E480BBBC
:1018F30012163E700519191980A5E869700C763F18
:1019030018768018F618F6E8F922E6CDC0E018EC50
:10191300C0E0E633CD33CDD313F6E719FCE719194D
:1019230033CC33C3947F400ECD9D502408E65480BE
:10193300F6E418F6800FF4043D14501408E6447FCF
:10194300F6187680E418F618F6D0E0FCD0E0FD2215
:10195300CCD313CCFD18E4C6CBC0E018E4C6CAC090
:10196300E00808ED08C633E613F618E433C675F04D
:1019730003C3CA97CA09CB97CB199C40047D08803F
:101983002EBD0003021A4616B6FF050606081618F2
:10199300C3CA33CACB33CB33CA27CA09CB37CB1914
:1019A3003CC37D08803E187D0820E75CC633C6CA69
:1019B30033CACB33CB33DDF1D5F0EB30E77BCA97BA
:1019C300CA09CB974ACB199C406F4B7025E620E0A0
:1019D300218066187D08C3CA97CA09CB97CB199C87
:1019E300D3C633C6CA33CACB33CB3350C9DDE7D5ED
:1019F300F0E1D3E4C636C608C636C608C636C608FE
:101A0300C636C61818188031C3CA97CA09CB97CBF4
:101A1300199CB34097C633C6CA33CACB33CB33DD25
:101A230034D5F02EC6A2E0C640C8CA27CA09CB37B0
:101A3300194A70BECB3CB480B90808E63308E633D4
:101A4300601F181818D0E0FAD0E0FBD0E0FCD0E01B
:101A5300FD22187D08CA27CA09CB37CB193CD3808E
:101A63008013F618E4B67F11F618B6FF0EF618C603
:101A73000470D20808768080CAF618F618F680C576
:101A8300080808EAC0E0EBC0E086F0E7A4FA18090A
:101A930086F0E7A42AFA180986F0E7A42AFA1809B7
:101AA30086F0E7A42AFA1986F0E7A4FBE5F02AFA00
:101AB300190886F0E7A42BFBE5F03AFA190886F03B
:101AC300E7A42BFBE5F03AFA18180986F0E7A4C55A
:101AD300F02BFBE43AFA1908E7C5F0C6A426F6E5AD
:101AE300F03BFBE43AFA1886F0E7A4F6E5F00826A3
:101AF300F6E43B08F6E43A08F6D0E0FBD0E0FA223D
:101B0300E4CFC0E0E4CEC0E0E4CDC0E0E4CCC0E08C
:101B130075F020C3E633F608E633F608E633F60835
:101B2300E633F6181818EC33FCED33FDEE33FEEF15
:101B330033FFC3EC9709ED9709EE9709EF9719194E
:101B430019400FFFEC97FC09ED97FD09EE97FE197D
:101B53001906D5F0BEECF709EDF709EEF709EFF733
:101B6300191919D0E0FCD0E0FDD0E0FED0E0FF224F
:101B73006016080808C6C313C618C613C618C613CA
:101B8300C618C613C6D5E0EA227009080808226001
:101B930016181818C6C333C608C633C608C633C6D4
:101BA30008C633C6D5E0EA22E627F60809E637F683
:101BB3000809E637F60809E637F622E026F608A311
:101BC300E036F608A3E036F608A3E036F622E02670
:101BD300F008A3E036F008A3E036F008A3E036F0FF
:101BE30022C3E697F60809E697F60809E697F6088A
:101BF30009E697F622C3E096F008A3E096F008A35F
:101C0300E096F008A3E096F022E657F60809E657B7
:101C1300F60809E657F60809E657F622E056F608ED
:101C2300A3E056F608A3E056F608A3E056F622E032
:101C330056F008A3E056F008A3E056F008A3E056D8
:101C4300F022E0F608A3E0F608A3E0F608A3E0F626
:101C530022E6F008A3E6F008A3E6F008A3E6F022E4
:101C6300E0FAA3E0FBA3E0FCA3E0FD22EAF0A3EB90
:101C7300F0A3ECF0A3EDF022CAC0E0E6F0A308DA8B
:101C8300FAD0E0FA22CAC0E0E0A3C582CCC582C57F
:101C930083CDC583F0A3C582CCC582C583CDC5835F
:101CA300DAE6D0E0CA22C3E498F8E499F9121CEA10
:101CB3008026C3E49AFAE49BFBE920E7E9121CEAD5
:101CC300E498F8E499F922C3E498F8E499F9121C2A
:101CD300EAE498F8E499F9C3E49AFAE49BFB22EB6B
:101CE30020E7CFE920E7E0B90010BB0008E88AF05D
:101CF30084F8AAF022E4FBC8FA22EB70227B10C816
:101D030033C8C933C9335007C39AC3DBF280069A79
:101D130050012ADBEAC833F4C8C933F4C9FA22757F
:101D2300F008E4C833C8C933C933C99AC99B5004FE
:101D3300C92AC93BD5F0ECFBC833F4C8E4C9FA227D
:101D4300600D08C6A2E713C618C613C6D5E0F32272
:101D5300600C08C6C313C618C613C6D5E0F42270B8
:101D63000422600D18C6C333C608C633C6D5E0F4D3
:101D73001822251810AF08F518400215198008F528
:101D83001840021519D2AF22C0D0251810AF08F59C
:101D930018500205198008F51850020519D2AFD062
:101DA300D0222518F58210AF08F5184002151980C6
:101DB30008F51840021519D2AF851983222518F5A5
:101DC30082E43519F58322E4732518C582C0E0E562
:101DD3001934FFC583C0E0E518C3958224F810AF1A
:101DE300088583198582188008858319858218D20E
:101DF300AFCEF0A3E520F0A37808E608F0A3DEFA5F
:101E0300EFF0A3E58124FAF8E608F0A3E608F0A3CF
:101E1300E608F0A30808E608F0A3E608F0A3158196
:101E23001581D0E0FED0E0F8158115811581E8C059
:101E3300E0EEC0E0222518C582C0E0E51934FFC5F5
:101E430083C0E0E518C3958224F910AF0885831990
:101E53008582188008858319858218D2AFCEF0A3B6
:101E6300E520F0A37808E608F0A3DEFAEFF0A3E597
:101E73008124FBF8E608F0A3E608F0A30808E608C7
:101E8300F0A3E608F0A315811581D0E0FED0E0F8B9
:101E930015811581E8C0E0EEC0E02285198385181D
:101EA30082E0A3FEE0A3F5207808E0A3F608DFFABA
:101EB300E0A3FFE0A3C0E0E0A3C0E0E0A3C0E0E054
:101EC300A3C0E0E0A3C0E010AF08858218858319A2
:101ED3008008858218858319D2AFD083D08202010E
:101EE30035851983851882E0A3FEE0A3F5207808E1
:101EF300E0A3F608DFFAE0A3FFE0A3C0E0E0A3C09D
:101F0300E0E0A3C0E0E0A3C0E010AF08858218853D
:101F130083198008858218858319D2AFD083D08234
:101F230022C0D02518C582C0E0E51934FFC583C09F
:101F3300E0E518C3958224F310AF088583198582E1
:101F4300188008858319858218D2AFC8F0A3E9F0F9
:101F5300A3EAF0A3EBF0A37908E709F0A3D8FAEC1E
:101F6300F0A3EDF0A3EEF0A3EFF0A3D0E0F0A3D045
:101F7300E0F0A3D0E0F0A3E520F0A3E5F0F0A32286
:101F8300851983851882E0C0E0A3E0F9A3E0FAA3F2
:101F9300E0FBA37808E0F608A3DFFAE0FCA3E0FD8A
:101FA300A3E0FEA3E0FFA3E0C0E0A3E0C0E0A3E062
:101FB300F5D0A3E0F520A3E0A3F5F010AF088583E7
:101FC300198582188008858319858218D2AFD0823B
:101FD300D083D0E0F8D0E03274048006740280022B
:101FE3007401C0E0F404121DA5D0E0121C7B22741E
:101FF30004800474028000CCC0E0EDC0E0E518C3A7
:102003009CCCAD1950011D10AF068C188D1980069C
:102013008C188D19D2AF121C88D0E0FDD0E0FC22C1
:10202300D083D082E9C0E0E493A3C386F0C5F095E2
:10203300F0F908E493A386F0C5F095F0700BE493F0
:10204300A3C3994005E9048002A3E475F002A42523
:1020530082F582E5F03583F583D0E0F9E493A3C0FC
:10206300E0E493C0E022D083D082ECC0E0EDC0E096
:10207300E493A3FCE493A3FDED4C600D1220B5ECB7
:1020830024FFFCED34FFFD80EFE493A3FCE493A372
:10209300FDED4C600D1220F4EC24FFFCED34FFFD4C
:1020A30080EFD0E0FDD0E0FCE493A3C0E0E493C074
:1020B300E022C0E0C3E49396087401939618400F9E
:1020C300E49366700808740193661870007019A38E
:1020D300A3C3E49396087401939618A3A3400DD069
:1020E300E0D0E0D0E00220A5A3A3A3A3A3A3D0E064
:1020F30022C0E0C0F088F0E493667008087401938E
:1021030066187000A8F0A3A3700BD0F0D0E0D0E065
:0C211300D0E00220A5A3A3D0F0D0E02271
:1021200074F5121E38EAFEEBFFEE2434F8EF3400AB
:10213000F988088909EE2435F582EF3400F583E04B
:10214000F8EE2437F582EF3400F583E0F50AEC85EC
:102150000AF0A4FCAAF0850AF0EDA42AFDE82CF808
:10216000E43DF97A257B00121CEAEA85088285099C
:1021700083F0F8740758F97401B900028004C3337E
:10218000D9FCFAE8131313541FF8EE28F8EF3400C3
:10219000F9E8245DF582E93400F583E05A6008EE41
:1021A0002434F582EF802CEE2434F582EF3400F5F0
:1021B00083E0C0E0EE2436F582EF3400F583E0F5ED
:1021C000F0D0E084A8F0EE28F8EF3400F9E82438E5
:1021D000F582E93400F583E0F97F04021EE474F52A
:1021E000121E38EAFEEBFFEE2434F582EF3400F5E0
:1021F00083E0C0E0EE2435F582EF3400F583D0E0D3
:10220000F08E828F83A3A3A3A3A3A3A3C082C083C2
:102210008E828F83A3A3A3A3A3E0F8A3E0F9D083C6
:10222000D082E0C398F508A3E099F509EE247FF584
:1022300082EF3400F583E064017069EE2480F5825A
:10224000EF3400F583E0F8A3E0F98E828F83A3A337
:10225000A3A3A3A3A3E0FCA3E0FD8E828F83A3A38B
:10226000A3A3A3E0FAA3E0FBC3EA9CEB9D5010C339
:10227000EC98ED99402EC3EA98EB995027800EC355
:10228000EA98EB994007C3EC98ED9940177CDC7D08
:1022900004EEFAEFFB120B9FEE247FF582EF340081
:1022A000F583E4F0EE2434F8EF3400F9E8FCE9FDBE
:1022B000EE2435F582EF3400F583E0F8EE2437F5AF
:1022C00082EF3400F583E0F50AE508850AF0A4F50D
:1022D00008AAF0850AF0E509A42AF509E82508F816
:1022E000E43509F97A257B00121CEAEA8C828D8399
:1022F000F0F8740758F97401B900028004C333D9A7
:10230000FCFAE8131313541FF8EE28F8EF3400F921
:10231000E8245DF582E93400F583E05A6008EE2494
:1023200034F582EF802CEE2434F582EF3400F5830F
:10233000E0C0E0EE2436F582EF3400F583E0F5F0FE
:10234000D0E084A8F0EE28F8EF3400F9E82438F55E
:1023500082E93400F583E0F9122F5B0221D9C082B3
:10236000C083851882851983E0F8A3E0F9C3EA9C4D
:10237000EB9D5010C3EC98ED99401BC3EA98EB9984
:102380005014800EC3EA98EB994007C3EC98ED997E
:102390004004790180027900D083D08222EAC39C74
:1023A000FAEB9DFB2274EF121E389003A2E0640842
:1023B0006005E06407702A9061C8E060249003D053
:1023C000E0F4601DE0F875F003A4C8AAF02AF974DF
:1023D000D228FE740339FF8E828F83A3A3A3E070FB
:1023E000030224D5906060E0C0E0EE2468F582EF3F
:1023F0003400F583D0E0F0750C45750D05750800C7
:10240000750900E5D914F50AE5D95403F50E6017EE
:102410007403650E605CE50A6010EE2467F582EFD8
:102420003400F583E070030224BA900540E06401B3
:10243000602AEE2482F582EF3400F583E0600478B0
:102440000480027800850A08E508C398FA95E0FB45
:10245000120A6D8A088B09EA45097005120DA380DE
:1024600074EE2482F582EF3400F583E070048A0C68
:102470008B0DE50A6012850C82850D83F50BE5D97D
:10248000F0A3150BE50B70F6EE2482F582EF340015
:10249000F583E0604474FC250AF50A780C121FDF0E
:1024A000AC0AA90EEEFAEFFB120C3B7402121D8B64
:1024B000E97026AA08AB091213BB793D8E828F837F
:1024C000A3A3A3A3E0FA7B00120941EEFAEFFB12EB
:1024D0000BB7120C4D790080747403650E6056853D
:1024E0000A107511007810121FDFAC0CAD0DAA0890
:1024F000AB09120C177402121D8BEE2468F582EFE3
:102500003400F583E064807004747F8001E0F50C92
:10251000780C121FE3E50EF50C780C121FE3A90AE4
:10252000AC08AD099003D0E0FA7B001209057402F3
:10253000121D8B80139003A2E06408600BAC0CADFD
:102540000DEEFAEFFB120CA7120DAF79017F0A0214
:102550001EE474F5121E3874FC121D75EAFEEBFFC2
:102560008908A2AFE433F509C2AF806AEE2463F8AC
:10257000EF3400F97A007B00A2AFE433F50AC2AF72
:1025800088828983E0FCA3E0FDEC4D603A88828973
:1025900083E0FAA3E0FB8A828B83E0FCA3E0FD8862
:1025A000828983ECF0A3EDF08A828B83E4F0A3F0C0
:1025B00088828983E0FCA3E0FDEC4D700A88828963
:1025C00083A3A3E4F0A3F0E50AA2E092AF1213BB49
:1025D0009004E3E004F0EE2463F582EF3400F58329
:1025E000E0F8A3E0F9E849603DEE2463F582EF34BA
:1025F00000F583E02402FAA3E03400FBEA2402F5AC
:102600000AEB3400F50B780A121FDF8A828B83E015
:10261000FCA3E0F9EEFAEFFB120BDB7402121D8B48
:10262000E9700302256C9004E3E060639004E4E049
:10263000F89004E3E0C398500C7402650870509061
:1026400004E5E0604A8E828F83A3A3A3A3E08518EC
:1026500082851983F0A3E4F09004E3E0F874021299
:102660001DC0E8F0A3E4F09004E3E0F89004E2E099
:1026700028F07402121DC0AC82AD838518828519C2
:1026800083AA82AB8379011209119004E3E4F0E597
:1026900009A2E092AF7404121D8B0221D900000040
:1026A0008521878522C622C0E0C0D0E8C0E0E9C00D
:1026B000E0EAC0E0EBC0E0ECC0E0EDC0E0EEC0E07E
:1026C000C008C009C00AC00BC082C083C0F0A2AF5E
:1026D000E433FEC2AF759B00906182E0A2E050122D
:1026E000E591A2E0500C7591FE7401652170031212
:1026F00023A5E0A2E55051E591A2E5504B7591DF8D
:102700009003A2E064076005E0640870237401652B
:1027100021703579019003D0E0FA75F003A4CAA8BE
:10272000F028FB74D22AFA74033BFB12255280185E
:10273000E0640D70139003C4E004F064287002E4B8
:10274000F07A00E0F9120DB5906182E0A2E6400354
:102750000227EEE591A2E640030227EE7591BF90B5
:1027600003A2E064057008120CDD120CE98003126C
:102770000CE3752100120D43E99003A3F0790012D8
:102780000D37120B157A017B009003A1E0F91210AE
:102790000D907803E064427055900544E014F070A9
:1027A0004DC2AF1227A600782AD0E0F618D0E0F686
:1027B000E59F540770057509FF800375097FC4C044
:1027C000E07829E6F50808E65509F509740B78085C
:1027D000121D53D0E02508F8906270E0A2E740F89F
:1027E000E8C333906272F0906270E0D2E0F09061E2
:1027F00081E0A2E35009E5E9A2E3500375E9F7A3FC
:10280000E0A2E75009E591A2E7500375917FEEA29F
:10281000E092AFD0F0D083D082D00BD00AD009D0D4
:1028200008D0E0FED0E0FDD0E0FCD0E0FBD0E0FA44
:10283000D0E0F9D0E0F8D0D0D0E032C0E0C0D0C0D5
:1028400082C083906183E0A2E05009E5BFA2E0501E
:102850000375BFFEE0A2E15009E5BFA2E150037598
:10286000BFFDE0A2E25009E5BFA2E2500375BFFB45
:10287000E0A2E35009E5BFA2E3500375BFF7E0A271
:10288000E45009E5BFA2E4500375BFEFE0A2E550B4
:1028900009E5BFA2E5500375BFDFE0A2E65009E5F8
:1028A000BFA2E6500375BFBFD083D0828088C0E04E
:1028B000C0D0E8C0E0E9C0E0EAC0E0EBC0E0ECC0B6
:1028C000E0EDC0E0C0F0E5A7A2E6500FE5A1A2E66A
:1028D000500953A7BF75A1BF122913E5A7A2E55060
:1028E0000CE5A1A2E5500653A7DF75A1DFE5A7A27D
:1028F000E15009E5A1A2E1500375A1FDE5A7A2E21F
:10290000500CE5A1A2E2500653A7FB75A1FBD0F045
:1029100002282474F8121E387521019003A2E06485
:10292000067015120C6B8A828B83A3A3A3A3A3A3A7
:10293000E0FAA3E0FB120CCBA2AFE433FED2AF90DF
:1029400003A8E0640170187A207B009003A1E0F9ED
:102950001210977A207B009003A1E0F912101390D7
:102960006182E0D2E6F0900541E0602185C62280D8
:10297000169003A7E064017008E5C654F84405F515
:10298000C653BEFC1226A07401652160E4EEA2E0ED
:1029900092AF7F01021EE4008E238F24858228855A
:1029A0008327851882851983E0CEA3E0CF8528820E
:1029B000852783EBC9EAC8EDCBECCA75F010C3E8F4
:1029C00033C8E933C9EA33CAEB33CBC3EA9EF526F1
:1029D000EB9FF525B35004AB25AA26EC33CCED33A1
:1029E000CDD5F0DAAE23AF242274E9121E3874F884
:1029F000121D75851882851983ECF0A3EDF08A0805
:102A00008B099003A2E024F7C394055006750801D2
:102A1000022B80120C6B8A0A8B0BAE0AAF0BEE4FA7
:102A20007003022B7DAC08AD097402121DC0AA828E
:102A3000AB83120CFB8E828F83A3A3750CFF750DE5
:102A4000FF750EFF750F00780C121C1F7402121D0B
:102A5000C07510FF7511FF7512FF75130078101205
:102A60001C1F780C79101214FC502A780C79101263
:102A70001BE47508017509C8750A00750B00780814
:102A8000790C1214FC5052850C08850D09850E0A2C
:102A9000850F0B80507514017515C87516007517D4
:102AA0000085100885110985120A85130B780879AD
:102AB0000C121BE4781479081214FC401C750800F1
:102AC000750900750A00750B0178087910121BE46E
:102AD0007808790C121BAB800C750801750900751C
:102AE0000A00750B0074097808121B8C750C19F517
:102AF0000DF50EF50F7808790C121B038E828F836B
:102B0000A3A3A3A3A3A3E0F8A3E0F97AD07B0312C5
:102B10001CEA880C890DE4F50EF50F7808790C1283
:102B20001BAB7406121DC0E0F8A3E0F97AD07B035A
:102B3000121CEAE8FA8A0CE4F50D7808790C1214F4
:102B4000FC50077808790C121BE49003A2E064089B
:102B5000600AE064066005E06405702D750C0D7870
:102B60000C79081214FC4021750CF4750DFF750EDC
:102B7000FF750FFF7808790C121BAB800C750800ED
:102B8000750900750A00750B00851882851983E0A8
:102B9000F8A3E0F58388827808121C547408121D8B
:102BA0008B7F10021EE474F7121E38120D0D900573
:102BB0003FE064017010906245E4F0A3F053F4F339
:102BC00043FE0C5390F3120CB9E5C654804449F50A
:102BD000C6E59E547F644970F8906185740FF0904B
:102BE000053DE0F47002A3E0604E90053EE0600811
:102BF00014601B14602E8040750801750900900553
:102C00003DE07808121D62E508F45280802A7508BC
:102C10000175090090053DE07808121D62E508F491
:102C20005290801475080175090090053DE0780800
:102C3000121D62E508F452A079007F02021EE474BE
:102C4000F7121E38E9FEEAFF74016E700C7A807B81
:102C5000009003A1E0F912100D90311CE493F46090
:102C600008E493F9120B09800953C680E59E547F4E
:102C700070FA120CBF90053FE064017003120B2143
:102C800090053DE0F47002A3E0604B90053EE060EB
:102C90000814601A14602C803D75080175090090B5
:102CA000053DE07808121D62E5084280802875081D
:102CB0000175090090053DE07808121D62E50842A3
:102CC00090801375080175090090053DE0780812A1
:102CD0001D62E50842A0120D0D120C6B8A088B09CB
:102CE000A808A909E8496015E5E170FCE82414F595
:102CF00082E93400F583E0F46003E0F5E174016FEC
:102D0000700A7A019003A1E0F9121061022C3A7462
:102D1000ED121E388A088B098C0A8D0B7413121D54
:102D2000C0780C121C457808790C1214FC7510013F
:102D30007511C875120075130050127808790C12BD
:102D40001BE4781079081214FC50168010780C7966
:102D500008121BE47810790C1214FC4004790180ED
:102D60000279007F0C021EE474ED121E388A088B73
:102D7000098C0A8D0B7413121DC0780C121C457837
:102D80000C79081214FC40117808790C121BE4AA83
:102D900008AB09AC0AAD0B802275100075110075E7
:102DA00012007513017810790C121BE47810790861
:102DB000121BABAA10AB11AC12AD1380A68A828B8A
:102DC000837508FF7509FF750AFF750B00780812F7
:102DD0001C327F04021EE474F5121E388C828D832F
:102DE0007808121C458A828B837808121BF8EA2423
:102DF00004F8EB3400F98C828D83A3A3A3A3E0FC39
:102E0000A3E0FD88828983C3E09CF0A3E09DF08865
:102E1000828983C3E09420A3E0944E40268A828B6B
:102E2000837508FF7509FF750AFF750BFF78081297
:102E30001BD18A828B83A3A3A3A3E02420F0A3E069
:102E4000344EF0022DBD74F5121E38E9FE9004F7E1
:102E5000E0FAA3E0FBEEC333F8E433F9747B28F522
:102E600082748339F583E02AF508A3E03BF50978FD
:102E700008121FDF7A407B427C0F7D001229987474
:102E800002121D8B8A088B098C0A8D0B741078082E
:102E9000121B73AA08AB097F04021EE474F1121E10
:102EA000388A0C8B0D8C0E8D0F740F121DC0E0FA3A
:102EB000A3E0FB7411121DC0E0F508A3E0F509784A
:102EC00008121FDFEA2401F508EB3400F509E4F5E8
:102ED0000AF50B780C7908121A83750871750902C6
:102EE000780C7908121A83AA0CAB0DAC0EAD0F1238
:102EF00029987402121D8B8B09EA450960047A0136
:102F000080027A00EC2AFCED3400FD7413121DC01F
:102F1000E0F8A3E0F9E8FEE9FFECF8EDF97A717B5F
:102F200002121CEA880889098E828F837808121C95
:102F300054ECF8EDF97A717B02121CEA8A088B09CD
:102F400074057808121D628E828F83A3A3A3A3E564
:102F500008F0A3E509F07F08021EE4C082C083E9FF
:102F6000906000F0D083D08222C2AF02000022C065
:102F7000E074EB121F2474F9121D75538AFE9084BD
:102F8000BA7808121C459009637808121BD1900981
:102F9000637808121C459084BE780C121C45780892
:102FA000790C121B03E50C450D450E450F7026905C
:102FB0008456C082851882851983AC82AD8375835F
:102FC00084D0827407121C88851882851983AA828E
:102FD000AB8312125FC2EB7407121D8B7F08021FB6
:102FE00083C0E074F2121F24A2AFE433FED2AFC25A
:102FF000C0E5D1A2E4500653D1EF1213AF751A0009
:10300000EEA2E092AF7F01021F83C0E074F2121FB4
:1030100024A2AFE433FED2AFE589A2E1500312123D
:10302000B9758900C2C5751A00EEA2E092AF7F01A2
:10303000021F83C0E074F2121F24A2AFE433FED259
:10304000AFE58BA2E050031212B9758B00C2E88085
:10305000D5C0E0C0D0E8C0E0E9C0E0E5A8D2AFC28A
:10306000C7751A00A2E7A2E792AFD0E0F9D0E0F866
:10307000D0D0D0E032C0E074F2121F24A2AFE4330B
:10308000FED2AF758900C2C5900AAE7401F0751A00
:1030900000FA900A7BE0F9121061900C32E0F8A37C
:1030A000E0687002D285EEA2E092AF7F01021F833A
:1030B000C0E0C0D0E8C0E0E9C0E0C008C009C082FC
:1030C000C083A2AFE433F9D2AF900C32E0F8A3E0B2
:1030D000687008539AFBA374018026C2E9900C32F1
:1030E000E0F50874012508F074B22508F582740B28
:1030F0003400F583E0F5C1900C32E0C394804002C7
:10310000E4F0E9A2E092AFD083D082D009D008D019
:0A311000E0F9D0E0F8D0D0D0E032B2
:10311C00FFFFFFFFFFFFFFFFC082C083E9900E257A
:10312C00F00233B374F7121DCCE99002E1F07C1974
:10313C007D037AFF7BFF12085D9002E274FFF0A31F
:10314C00F0A3E4F0A3F079051207E59002E1E0F9B1
:10315C001207077A7B7B08120A1F7F01021E9E74DE
:10316C00F4121DCC8A088B09EB548060309002E17C
:10317C00E0F9120FF58A0A8B0BAE0AAF0BEE4F601B
:10318C00138E828F83E064B070031207FDEEFAEFAA
:10319C00FB120FE3AA08E5096480FB80047A007B2C
:1031AC000002338274F2121DCC74FC121D75EAFEFF
:1031BC00EBFFEE4F60387402121DC0EEF0A3EF125D
:1031CC0035E7ECF0A3ED1235E7AA82AB83120701C9
:1031DC00E9F50870737412121DC012419BE50A4583
:1031EC000B60658E828F8312325EEE4F7005750810
:1031FC000280557A067B001210498A0C8B0DA80CA4
:10320C00A90DE8497005750813803D88828983E40F
:10321C00123268A3A3EEF0A3EF124634E50AF0A332
:10322C00E50BF09002E71232F09002E76017E0FC39
:10323C00A3E08003EAFCEBFD8C828D831232F070EC
:10324C00F38C828D831240C0A9087404121D8B026A
:10325C004836A3A3A3A3E0FEA3E0FF22F0A3F088CB
:10326C008289832274F2121DCC890AE975F017A4A5
:10327C00FEAFF09002E6E4F09002E41232F0600A45
:10328C0012104F9002E4E4F0A3F0EEFAEFFB1210F0
:10329C00498A088B09EA4509602FEEFCEFFD79009D
:1032AC00120FCB9002E4E508F0A3E509F07B008057
:1032BC00081232DAE4F0A3F00BEBC3950A40F2E506
:1032CC000A9002E6F0790080027913024836EB7519
:1032DC00F017A4F8A9F09002E4E028FAA3E0398AE8
:1032EC0082F58322123E56EA4B2274F4121DCC75E1
:1032FC000800750900740C121DC0124608FEE9FF87
:10330C00800CE5082401F508E5093400F509C3E54E
:10331C00089CE5099D503285080A85090B740378D1
:10332C000A121D62EA250AF8EB350BF988828983AB
:10333C00A3A3A3A3A3A312419BEE650A7003EF659D
:10334C000B70BFE8FAE9FB80047A007B00802774DD
:10335C00F4121DCC7900EAA2E0501B7508697509BE
:10336C00847808121FDF7C047D007A277B0E1207FD
:10337C00DF7402121D8B7F04021E9EC082C08390DC
:10338C0002E71233BA601C88828983A3A3E06A70B7
:10339C0003A3E06B8882898370E8A3A3A3A3123EE6
:1033AC005280047A007B00D083D08202013512490E
:1033BC0009E8492274EE121DCC74FC121D75EAFE4C
:1033CC00EBFF851882851983E4F0A3F0EE2402123A
:1033DC0040A4EE24051235D5EE2404F50EEF123977
:1033EC00BAE024FE603924FC604624FE605224FEC0
:1033FC00605E24FE70030234DA24FE700302355240
:10340C0024FE700302356124FE700302357024FC27
:10341C00700302357F24FE700302358E0235CB908B
:10342C0003007417F0A3E41235EF12047F0235CBBE
:10343C00851882851983AC82AD8312080302359BF3
:10344C00851882851983AC82AD8312080902359BDD
:10345C00850C08850D097402121DC0AC82AD8385E4
:10346C000882850983123E521207258A0C8B0DACFB
:10347C000CAD0DEC4D6042E4F50CF50D780C121F03
:10348C00DF750C00750D03780C121FDF750C0175C0
:10349C000D03780C121FDF7408121DC0121FF67971
:1034AC0016123E4C1208457408121D8BE9F50C706F
:1034BC000B123E48120497800F750C01850882850B
:1034CC0009831235DD1240C0850C0802359E74024A
:1034DC00121DC0AC82AD83850C82850D83123E52C9
:1034EC001207258A108B11AC10AD11EC4D60438581
:1034FC000C82850D83A3A3121FF6751000751103A2
:10350C007810121FDF7510017511037810121FDF70
:10351C007408121DC0121FF67916123E4C12084583
:10352C007408121D8BE9F509700B123E4812049DAC
:10353C00800F750901850C82850D831235DD1240D3
:10354C00C0850908804C851882851983AC82AD83AF
:10355C0012080F803A851882851983AC82AD8312CC
:10356C000815802B851882851983AC82AD831208CF
:10357C001B801C851882851983AC82AD83120821AF
:10358C00800D851882851983AC82AD83120827E9DA
:10359C00F508E50860298E828F83A3E06414601F10
:1035AC00850E82850F83E09003001235E7124905E2
:1035BC009003011240C0E508A31235EF120479EE16
:1035CC00FAEFFB1207A3023FACF50CEF3400F50D3C
:1035DC002212490985188285198322F08518828563
:1035EC00198322F07C007D03850A82850B83123EB1
:1035FC00562274EE121DCC74FC121D758A0A8B0BAC
:10360C008C0E8D0FEA2405F508EB3400F5097C15BA
:10361C007D0079007A007B03120FCBE5082402F5BC
:10362C000CE5091235D88518828519838582108599
:10363C0083117810121FDF850882850983A3A3A349
:10364C00A3123B02121FDFE5082405F510E509342F
:10365C0000F5117810121FDF850C82850D83123E48
:10366C005C12071F7406121D8B8A108B11AE10AFE3
:10367C0011E50A2402F50AE50B1240A7EE4F700380
:10368C000237C480177402121DC0123E5288828900
:10369C0083EAF0A3EBF0900300E004F0900300E069
:1036AC00C3940540030237C4E4F510F511781012E9
:1036BC001FDF7510E97511027810121FDF7510EA03
:1036CC007511027810121FDF7406121DC0121FF63E
:1036DC007910EEFCEFFD123E4C1208457408121DD9
:1036EC008BE9705E850882850983A3A3A3A3A3A39A
:1036FC00A3E0F89002E9E0687048123B02121FDF69
:10370C007CEA7D02E5082408FAE5093400FB120F77
:10371C00C57402121D8BE960298E828F83A3A3A32B
:10372C00A3123E52900300E0F51074027810121DA3
:10373C006274012510F58274033511F583EAF0A348
:10374C00EBF07402121DC085821085831178101263
:10375C001FDF7402121DC0121FF6850C82850D83AB
:10376C0012491A12072B7404121D8B8A108B11AE7E
:10377C0010AF11900300E0F5107511007402781071
:10378C00121D6274002510F874033511F9888289B2
:10379C0083A31232F07003023688E82403F8E9346C
:1037AC0000F9EE4F60030236918882898374FFF032
:1037BC00A3F0900300E004F0900300E0600A123ED6
:1037CC004812048B7900800B85088285098312408E
:1037DC00B7790A023FAC74EA121DCC74FE121D7547
:1037EC008C128D13EA2405F50CEB124A841232620A
:1037FC00750800750900EA2402F510EB3400F51188
:10380C0085188285198385820A85830B780A121F95
:10381C00DF850C82850D83A3A3A3A31239C4121FC9
:10382C00DFE50C2405F50AE50D1240A7780A121FF6
:10383C00DF850C82850D8312491812071F7406123E
:10384C001D8B8A0A8B0BEA450B7003023975EA242F
:10385C0004F50EEB1239BA1232628A828B83A3A35F
:10386C00A3E0F9851082851183123E5212070DE9EF
:10387C00F5096003023975E4F514F5157814121F77
:10388C00DF7514E97515027814121FDF7514EA75CB
:10389C0015027814121FDF7406121DC0121FF67960
:1038AC0013AC0AAD0B851082851183123E5212089F
:1038BC00457408121D8BE9F50960030239759002F5
:1038CC00E9E0F8E5087009E02402900301F08017A4
:1038DC00900301E0FCE82402FAE43400FBEA6C708B
:1038EC0001EB6003023979850882AA82123AF994B5
:1038FC0014123AF15073850E82850F83E0C0E07488
:10390C00022A1239B1D0E0F00508850E82850F83AA
:10391C00A3E0C0E085080A7402250A1239B1D0E090
:10392C00F005089002E91239C4121FDF7CEA7D020F
:10393C0085080A7402250AFA74033400FB120FB3CB
:10394C007402121D8B9002E9E02508F50874FF6ED5
:10395C00700374FF6F6012EE24010EEF3400FFE56C
:10396C0008C39414500302380CE5086013123D3D53
:10397C00851082851183123E5212049179008014B5
:10398C00E509700375090A851282851383EEF0A38D
:10399C00EFF0A9097402121D8B7F0E021E9E850882
:1039AC000C7402250CF58274033400F58322340068
:1039BC00F50F850E82F583221246472274EE121DF6
:1039CC00CC74FE121D758C0E8D0FEA2405F50CEBD4
:1039DC001235D8750B00900300E4F0F50AEA2402C6
:1039EC00F508EB3400F5098049900300E0FA9002E9
:1039FC00E9E0F8123AF99417123AF1400D900300ED
:103A0C00E0F87416C3989002E9F0123B02121FDF23
:103A1C007CEA7D0274012AFA74033400FB120FB3A2
:103A2C007402121D8B9002E9E0F8900300E028F07C
:103A3C00050AE50C2416F582E50D1239B5E0F8E51A
:103A4C000AC3984003023ADA900300E0C39416507C
:103A5C007DE50AC333F8E433F9E50C28FEE50D39AE
:103A6C00FF851882851983AC82AD838E828F831279
:103A7C003E521207258A108B11AC10AD11EC4D7013
:103A8C0005750B018043E4F510F5117810121FDF5A
:103A9C007510E97511027810121FDF7510EA751197
:103AAC00027810121FDF7406121DC0121FF6791651
:103ABC00850882850983123E521208457408121D2E
:103ACC008BE9F50B70030239F51240B380107C00C2
:103ADC007D03850882850983123E521204A3A90B2B
:103AEC007402023FAEE99400C365D03322EA28F891
:103AFC00E43400F9E822E0F5107511007810227416
:103B0C00EA121DCC74FC121D758A0C8B0D8C128D57
:103B1C0013EA2405F50AEB1240A775080075090095
:103B2C00E50A2402F510E50B3400F5117402121DA0
:103B3C00C085820E85830F780E121FDF850A828561
:103B4C000B83A3A3A3A31245F3121FDFE50A2405DD
:103B5C00F50EE50B3400F50F780E121FDF85108281
:103B6C008511831240AD123E4C12071F7406121DB4
:103B7C008B8A0E8B0FAE0EAF0FE50C2402F50EE503
:103B8C000D3400F50F80408882898374FFF005089E
:103B9C001239AA74FFF005089002E9E0F50C750DD6
:103BAC0000780C121FDF7CEA7D0285080C7402255C
:103BBC000CFA74033400FB120FB37402121D8B90B9
:103BCC0002E9E02508F508EE4F60718E828F83A321
:103BDC00A3A3E0F9850E82850F83123E5212070DC6
:103BEC00E9F509EE24041235D5E97044E4F514F531
:103BFC00157814121FDF7514E97515027814121F4D
:103C0C00DF7514EA7515027814121FDF7408121D83
:103C1C00C0121FF67911EEFCEFFD850E82850F8325
:103C2C00123E521208457408121D8BE9F5096027E3
:103C3C00850C82850D83123D331240C0E50870035C
:103C4C00023D19123D3D850E82850F83123E5212A4
:103C5C0004A97900023D2E850882AA82EA9002E925
:103C6C007009E02404900301F08022E0F890030135
:103C7C00E0F514E82404FCE43400FDEC6514700158
:103C8C00ED70C0123AF99412123AF150B6850C82CA
:103C9C00850D83E0C0E074022A1239B1D0E0F00542
:103CAC0008850C82850D83A3E0C0E01239AAD0E010
:103CBC00123D4F85820C85830D780C121FDF740426
:103CCC00121DC0121FF685108285118312491A121B
:103CDC00072B7404121D8B8A0C8B0DAE0CAF0D854B
:103CEC00080C7402250CF874033400F9EE4F7003C1
:103CFC00023B93851882851983E088828983123D63
:103D0C004FA3E0C0E01239AAD0E0023BA1E5097054
:103D1C000375090A850A82850B83123D331240C054
:103D2C00A90974040239A2124909851282851383E8
:103D3C0022900301E0F5F0E50884900300F07C008C
:103D4C007D0322F005088518828519832274EC12F4
:103D5C001DCC74FE121D758A088B098C0E8D0FEA12
:103D6C002405FEEB3400FF851882851983AC82ADE7
:103D7C00838E828F83123E521207258A0A8B0BEE9A
:103D8C0024181235D5EA450B7003023E23123F95D9
:103D9C005032851882851983123E521208398A10C6
:103DAC008B11EA4511606B7912AC0AAD0B85088258
:103DBC00850983123E52851082851183121DCAE932
:103DCC00F50A7058E4F50AF50B780A121FDF8E829B
:103DDC008F83A3A3E0F50A780A121FDFEE240312E7
:103DEC0040A4780A121FDF8E828F83123E5C120869
:103DFC004B7406121D8BE9F50A7021850C82850D1A
:103E0C0083E0701F850882850983123E521204AF2D
:103E1C008011750A0E8009750A018004E50A600399
:103E2C001240B3850C82850D83E06004790080021A
:103E3C00A90A7402121D8B7F0C021E9E7C007D034E
:103E4C00850A82850B83123E5622E0FAA3E0FB2200
:103E5C00E0FCA3E0FD850882850983123E5622749E
:103E6C00EE121DCC74FE121D758A088B098C0C8DFC
:103E7C000DEA2405FEEB3400FF750E0085188285D3
:103E8C001983AC82AD838E828F83123E521207252A
:103E9C008A0A8B0BEA450B7003023F81123F955047
:103EAC0035851882851983123E521208398A0E8B79
:103EBC000FEA450F605E7912AC0AAD0B850882855E
:103ECC000983123E52850E82850F83121DCAE9F5B5
:103EDC000E6003023F8485088285098312419BAAE8
:103EEC000AFB12082D8A108B11A810A911E8497031
:103EFC001E7AFF7BFF12082D8A108B11A810A911B6
:103F0C00E849606C88828983E50AF0A3E50BF075BB
:103F1C000A008007750E0E805F050A9002E6E0FA33
:103F2C00E50AC39A504AE50A75F017A4FAABF08873
:103F3C00828983A3A3E02AFAA3E03BFB8A828B83CA
:103F4C001240ADEC4D70D2750A17750B00780A1241
:103F5C001FDFEEFCEFFD120FB37402121D8BEEFC93
:103F6C00EFFD850882850983123E521204B5801438
:103F7C00750E098003750E01124901850C82850DA1
:103F8C00831240C0A90E023AECE5082402F508E5BC
:103F9C00093400F5098A828B83A3A3A3E0A2E5224E
:103FAC007404121D8B7F0A021E9E74EC121DCC8CA5
:103FBC00108D11EA2405F50CEB1235D8750F00EABB
:103FCC002402F50AEB1240A7850A82F583123E52B1
:103FDC0012082D8A088B09EA45097003024099756D
:103FEC000E008071850C82850D83E06401704F8E0C
:103FFC00828F83A3A3121FF68E828F83A3A3A3A306
:10400C00E0F5127513007812121FDFEE2405F5127D
:10401C00EF3400F5137812121FDF123E4C12084BCE
:10402C007406121D8BE9F50F6014850C82850D83C7
:10403C00E4F01249018510828511831240C07C176F
:10404C007D007900EEFAEFFB120FCB8E828F83E4AA
:10405C00F0A3F0050E9002E6E0F8E50EC398501EB2
:10406C00E50E75F017A4F8A9F0850882850983A3DD
:10407C00A3124A8E1240ADEC4D6003023FF085084E
:10408C008285098374FFF0A3F0E50F7006123E4C95
:10409C001204BBA90F023E43F50AEF3400F50B22C4
:1040AC00A3E0FCA3E0FD228E828F83124909850ECA
:1040BC0082850F83E8F0A3E9F022C082C0839002CE
:1040CC00E2E06A7003A3E06B70067AE27B02800484
:1040DC007A007B000233B3C082C08378008C828D5F
:1040EC0083E06A7003A3E06B7010E875F003A4F82A
:1040FC00A9F0EC28FAED39FB8015088C828D83A38E
:10410C00A3A3E06A7003A3E06B60DF7A007B00027C
:10411C0033B374F6121DCC1207F78A828B83E582B7
:10412C00458370067A007B008007A3A3A3A3123EED
:10413C00520247B274F2121DCCE9FE740E121DC06D
:10414C0012419B7410121DC01246138C828D83E099
:10415C0064027036A312490FF50CA3E0F9A80C7495
:10416C00026870037429697021750C02750D007852
:10417C000C121FDF7808121FDF780A121FDFEEF90E
:10418C0012086F7406121D8B80027901024836E00A
:10419C00F50AA3E0F50B2274E8121DCC74FB121D7A
:1041AC0075E9851882851983F08A168B17ECFEED5C
:1041BC00FF751000741D121DC0124905741D121DCF
:1041CC00C01240C08E828F83A3A3A3E0A2E4502D23
:1041DC00741D121DC0123E521208398A828B83E55F
:1041EC0082458370030245E4790AEEFCEFFDAA16C2
:1041FC00AB17121DCAE9F51060030245E7741F12D4
:10420C001DC01246137421121DC012419B7423123F
:10421C001DC0E0F50EA3E0F50F8E828F83E06402E3
:10422C006003024592A3124905850882850983A380
:10423C00858212858313EE24061235D588828983F4
:10424C00E0FAA3E0F9EA2400F514E439F515781442
:10425C001220690100002801288742070002284C1F
:10426C00430328B942002983440129AE4402294F53
:10427C00440329834404292D459245E50E450F60DE
:10428C000302458D850C82850D83124608FAE9FBE5
:10429C008A828B83E0850A82850B8312463E121F2D
:1042AC00DF8A828B83A3E0FCA3E0024517E50E4571
:1042BC000F600302458D850A82850B837401F01211
:1042CC00461B850882850983F07C007D008E828FD9
:1042DC0083A3A3A3A3E02401FAA3E03400FB1207F9
:1042EC0025EA4B60418A828B83E02402F8850A829E
:1042FC00850B83E028F0EA2404F8EB3400F988827B
:10430C008983E085128285138312465012463E1231
:10431C001FDF8A828B831240ACE5082403FAE5097F
:10432C003400FB02451C850A82850B83E02404F0D3
:10433C007C047D007900AA12AB13120FCB0245E767
:10434C00E50E450F600302458D12461BFEA3E0FFF0
:10435C00850A82850B837404F0EE850882850983B7
:10436C00F0EF851282851383F07403121DC0AC82AA
:10437C00AD83EEFAEFFB1207258A0C8B0DEA450D87
:10438C0070030244308A828B83A3A312325E7401C1
:10439C00121DC085820E85830F780E121FDF7405E7
:1043AC00121DC0121FF67CFF7DFF12072B74041226
:1043BC001D8B8B0FEA450F7033850C82850D831294
:1043CC0045F3121FDF850C82850D83A3121FF67C2B
:1043DC00027D007A2E7B851205577404121D8BE921
:1043EC00700A7401121DC074FFF0A3F08E828F83CB
:1043FC00E064027039750C02750D00780C121FDF29
:10440C008E828F831240ACE5082404FAE50934004F
:10441C00FB120FB37402121D8B850A82850B83E08D
:10442C00240280097401121DC0EEF0A3EFF0740198
:10443C00121DC0124604F07401121DC0A31245FCDB
:10444C00024587E50E450F600302458D850C82857C
:10445C000D831240ADAA16AB17120863850A82852C
:10446C000B837402F0EA850882850983F085128239
:10447C00851383EB02458AE50E450F600302458DDB
:10448C0012461BF8A3E0F9850A82850B837402F0AF
:10449C00E8850882850983F0E985128285138302F9
:1044AC00458A850C82850D83123E52120FADEAFCB3
:1044BC008C82A882C3950EE4950F405FE8650E7060
:1044CC0002E50F70047C008022851882851983E038
:1044DC00FAE50E2AFAE50F3400FBC3EA98EB9400D8
:1044EC005003E08005E50ECCC39CFCEC850A82856C
:1044FC000B83F08C0A750B00780A121FDF850C8277
:10450C00850D83E0250EFCA3E0350FFDAA08AB0951
:10451C00120FB37402121D8B0245E775100702458A
:10452C00E7E50E450F705A850C82850D83124905FF
:10453C00850A82850B83740712326A1245FC12328B
:10454C006AA3E0851282851383F0E82402FAE93429
:10455C0000FB8A828B831245FC12462B124604A365
:10456C0012463412460DF0E82405F8E93400F988B7
:10457C0082898312460DA3124650A3A3A3A3F080F5
:10458C005A75100B8055741D121DC0123E52120725
:10459C00F78A828B83E5824583603D124905880C3E
:1045AC00890DE8450D6031780E121FDF780A121F55
:1045BC00DF7808121FDF7406121DC0E0F9EEFCEF65
:1045CC00FDAA16AB17850C82850D83121DCA7406C5
:1045DC00121D8BE9F510800375100EA910740512CD
:1045EC001D8B7F10021E9EE0F50E750F00780E22BB
:1045FC00E08508828509832212465A22124909E86D
:10460C002212465AA3A322E0F508A3E0F50922855D
:10461C000C82850D83E0F8A3E0F5838882E022A369
:10462C00A3F08A828B83A322F088828983A3A3A31D
:10463C00A322F08A828B8312464722E0F50A750B7F
:10464C0000780A22F088828983A312465A22E085D8
:10465C000882850983A3A32274EE121DCC74FE126A
:10466C001D758A0A8B0BECFAEDFB7414121DC0E05D
:10467C00F510A3E0F5117416121DC0E0FE741812AB
:10468C001DC0E0F50EA3E0F50F851882851983ACEB
:10469C0082AD831207258A0C8B0DEA450D60498586
:1046AC001882851983123E521207F78A828B83E592
:1046BC00824583602FA3A3124613E50845096024A5
:1046CC00780E121FDF7810121FDFEEF9AC0CAD0D57
:1046DC00AA0AAB0B850882850983121DCA740412C1
:1046EC001D8B8006790E80027901023AEC74F61269
:1046FC001DCC74FE121D75740C121DC0124608855B
:10470C001882851983F07401121DC0E9F0E4F508D4
:10471C00F5097808121FDF7508027808121FDF747C
:10472C0004121DC08582088583097808121FDF12C8
:10473C00084B7406121D8B7402121D8B806874F763
:10474C00121DCCEAFEEBFF89087C197D031208636D
:10475C00EA5402600BA908EEFAEFFB12071980026B
:10476C00790102316674F6121DCC74FF6A70037401
:10477C00FF6B70168C828D831247B7E4F08C828DA0
:10478C0083A3A3A31247B7A380181208338A088BFC
:10479C0009A808A909E849600D8882898374FF1269
:1047AC003268A3A3E4F07F02021E9E74FFF0A3F014
:1047BC008C828D83A3A32274F6121DCC1208338A2B
:1047CC00828B83E58245836006A3A3E0FA80027A9C
:1047DC00007B0080D174F2121DCC8A088B09ECFE90
:1047EC00EDFF740E121DC0E0F50A1208338A0C8B13
:1047FC000DA80CA90DE8497026EEFCEFFD7AFF7BA5
:10480C00FF1208338A0C8B0DA80CA90DE849700413
:10481C007911801688828983E508F0A3E509F08870
:10482C00828983A3A3E50AF079007F06021E9E7499
:10483C00EE121DCCEAFEEBFF8C088D09890C74146A
:10484C00121DC01249057416121DC0123E52750D70
:10485C0000E84960030248F97402650C60030248E1
:10486C00F47412121DC012490FFCA3E0F9EC2400E1
:10487C00F50EE439F50FEAF4F8EBF4F9EC58F8E539
:10488C000F59F9E849705CE5082406F8ED3400F995
:10489C00880A890B8882F58312491A1208638A10D8
:1048AC008B11E50E65107004E50F65116042780EF2
:1048BC00121FDF850A82850B8312491A120869744C
:1048CC0002121D8BE9F50D7027780E121FDF85087B
:1048DC0082850983A3A31249181208817402121D40
:1048EC008B800D750D808008750D0D8003750D0B7B
:1048FC00A90D023FB18E828F8312490922E0F8A3E1
:10490C00E0F92212490988828983E022A3A3E0FC02
:10491C00A3E0FDEEFAEFFB2274E8121DCC74E71253
:10492C001D75851882851983EAF0A3EBF08C168D22
:10493C0017890E7508007509007431121DC0E0F559
:10494C0012A3E0F5137433121DC0E0F514A3E0F5C7
:10495C00157435121DC0E0F50FE50975F003A4F8C8
:10496C00A9F0851882851983124A8EE0F47003A38E
:10497C00E0F47003024A71EE2402F50CEF124A8443
:10498C00E07003024A7185160A85170B780A121F0C
:10499C00DFAC14AD15AA12AB131207EB7402121D87
:1049AC008B8A0A8B0BEA450B7003024A71E4F510F3
:1049BC00F5117810121FDF7406121DC08582108548
:1049CC0083117810121FDF7409121DC085821085A7
:1049DC0083117810121FDF851282851383A3A3A382
:1049EC00A3121FF67914AC0AAD0B8E828F83123E84
:1049FC00521208457408121D8BE97069850A82856C
:104A0C000B83A3A3A3A31249057402121DC0124069
:104A1C00C0850C82850D83E0A2E05018A90E7402AB
:104A2C00121DC0AC82AD838E828F83123E52120750
:104A3C003DE94208850C82850D83E0A2E15026E514
:104A4C000FF50A780A121FE3A90E7403121DC0ACED
:104A5C0082AD838E828F83123E52120737740112FD
:104A6C001D8BE942080509E509C39402500302496C
:104A7C0065A90874190245EB3400F50D850C82F517
:104A8C008322E028FEA3E039FF8E828F832274F20A
:104A9C00121DCCEAFEEBFF890B7401650B600E74E2
:104AAC0002650B706A7901120A3DE97062EEFAEF49
:104ABC00FB12082D8A088B09EA45096047750A0024
:104ACC00800B7C177D007900120FCB050A9002E653
:104ADC00E0F8E50AC3985021E50A75F017A4F8A987
:104AEC00F0850882850983A3A3E028FAA3E039FBAB
:104AFC008A828B831233BA70C985088285098374C4
:104B0C00FFF0A3F07C197D03EEFAEFFB12085D02B7
:104B1C00483674F2121DCC8A088B09ECFEEDFF743A
:104B2C000E121DC012419B900E25E0F4603D7A09D7
:104B3C007B00120FDDEA4B60328A828B8374B1F0FA
:104B4C00A3E412462DA312462BA3E508F0A3E50916
:104B5C00124B7AEEF0A3EF124B7AA3A3E50AF0A363
:104B6C00E50BF0900E25E0F9120FE9024836F08AB9
:104B7C00828B83A3A3A3A3A322C082C08390619042
:104B8C007404F0A37448F0A37402F0906180744034
:104B9C00F09061BC7403F09061877419F0906265B9
:104BAC00741BF0906249E0C3941390619C400A74AA
:104BBC0009F090606674018007740DF0906066E4F3
:104BCC00F090619A7433F0A37455F09061A0743A2C
:104BDC00F090053FE064017009C2919003A67467E0
:104BEC0080059003A67461F0903122E49390618665
:104BFC00F090311CE493F46027E493540FF8906127
:104C0C0085E0686012E5C654804449F5C6E59E54BB
:104C1C007F644970F8E8F053C680E59E547F70FAC3
:104C2C007905120D97024DE0C082C083E9540FF94B
:104C3C00906185E0696012E5C654804449F5C6E58B
:104C4C009E547F644970F8E9F053C680E59E547F0A
:104C5C0070FA024DE0C082C083E5A8F853A87E909C
:104C6C006181E4F0A3F0A3F0C2BA539AFEC2897535
:104C7C009B00C2C275E90075910075BF0075A91142
:104C8C0075B905906181F0A374C0F0A3E4F0D2BAB9
:104C9C00439A0174805842A8024DE0C082C08374CC
:104CAC00F8121D759003A4E0F8A3E0F9E84970032D
:104CBC00024DD59003A4E0544060237908851882F6
:104CCC00851983AA82AB83120BF985188285198307
:104CDC00AA82AB831208ED9003A4E054BFF0E05419
:104CEC00806010790C7A657B05120BF99003A4E0B7
:104CFC00547FF0E0A2E0503190619A7433F0A374C9
:104D0C0055F09061A0743AF090053FE06401700991
:104D1C00C2919003A6746780059003A67461F0128B
:104D2C0008F39003A4E054FEF0E05402603190616B
:104D3C009A743FF0A3745AF09061A0747FF09005C0
:104D4C003FE064017009D2919003A67471800590C4
:104D5C0003A6746AF01208F39003A4E054FDF0E08B
:104D6C0054046013903120E493906186F01208F99A
:104D7C009003A4E054FBF0E054086013903121E45C
:104D8C0093906186F01208F99003A4E054F7F0E0D8
:104D9C0054106013903122E493906186F01208F95C
:104DAC009003A4E054EFF0E05420600A1208F9904C
:104DBC0003A4E054DFF0A3E05401600D120B2112A8
:104DCC0008FF9003A5E054FEF07408121D8B024DF1
:104DDC00E0F0A3F0D083D08202013574EC121DCC2C
:104DEC0074F4121D75851882851983AC82AD837598
:104DFC0083847582A67404121C8890312093F4600D
:104E0C0003024F73907808E0C394025003024F538F
:104E1C007404121DC0AC82AD8375838475824E748C
:104E2C0008121C8885188285198385821285831344
:104E3C007404121DC0AC82AD83750EFF750FFF7F1D
:104E4C00FF7E00750C48750D78801574086E700324
:104E5C00024EE774096E7003024EE7740A6E607BB3
:104E6C00850C82850D837808121C458C828D83A954
:104E7C0009E50AC9F8881074187808121B73E51034
:104E8C004508F8C3E098A3E099850C82850D8378DA
:104E9C0008121C4540188C828D8374187808121BDC
:104EAC0073E5104508F8E0C398F8A3E0801C74186B
:104EBC007808121B73E5104508FAE9FB8C828D8388
:104ECC00E0F8A3E0F9EAC398F8EB99F9C3E8950E7A
:104EDC00E9950F5006880E890FEEFF0EE50C2404A1
:104EEC00F50CE50D3400F50DEEC394135003024E92
:104EFC005774FF650E700474FF650F60238F087480
:104F0C00027808121D6274482508F58274783509F8
:104F1C00F5837808121C45851282851383E508F009
:104F2C00EC2402FCED3400FD851282851383A385ED
:104F3C008212858313740C121DC0E5826C7003E51C
:104F4C00836D6003024E45750801750900780812DF
:104F5C001FDF7402121DC0AC82AD837A487B0C1229
:104F6C0012777402121D8B740C121D8B7F0C021E97
:104F7C009EC082C0839061AE7468F0A3746AF09096
:104F8C00624574FBF0A304F053F4FD43FE0290055C
:104F9C003F7401F09061A0E0643A90619A702374C0
:104FAC0033F0A37455F09061A0743AF0740164016D
:104FBC007009C2919003A6746780289003A674614F
:104FCC008021743FF0A3745AF09061A0747FF07448
:104FDC000164017009D2919003A67471800590034D
:104FEC00A6746A024DDF7F08021E9EC082C08390A9
:104FFC0004F1E06401700A9004F6E06004790C801E
:10500C00027900024DE0C082C08375E1F19004F496
:10501C00E0605B14600914605F14605714705E12DA
:10502C000B339004EAE0F97AEB7B04120D197AD673
:10503C007BBE7C897D8E120D4F7A557B557C557DC0
:10504C0000120D259004F5E0F9120D317901120DC5
:10505C008B9004E8E0F8A3E0C82416F582E834004D
:10506C00F583744BF0A3740BF07900024DE0120B36
:10507C003980AF120B3F80AA120B4580A5791280A4
:10508C00EA74F0121DCC75D90D9004D5E0A2E0E4C1
:10509C00331313F89004EAE0C4333354C04844018A
:1050AC00F5D978E8790488828983A3A3A3E0F5D99C
:1050BC0088828983A3A882A983E864EE7003E964DB
:1050CC000470E378D5790488828983A3E0F5D988C4
:1050DC00828983A3A882A983E864DB7003E9640452
:1050EC0070E575E1959004D5E0F97AD67B04120D44
:1050FC001F900E4774DFF0A3740AF0A37441F0A361
:10510C00740CF0A37441F0A3740CF0A37441F0A3DD
:10511C00740CF0A374E5F0A3740AF0A37441F0A32B
:10512C00740CF0A374FDF0A3740AF0900E55744146
:10513C00F0A3740CF0A37441F0A3740CF0A37441AD
:10514C00F0A3740CF0A37441F0A3740CF0A374419D
:10515C00F0A3740CF0A37441F0A3740CF09004F45D
:10516C00E064019004E87012E0F8A3E0F583888213
:10517C00A3A37508007509088010E0F8A3E0F58377
:10518C008882A3A3750804750900750A00750B00C5
:10519C007808121BBE750CFF750DFF750EFF750F91
:1051AC00007808790C121C0C9004E8E0F8A3E0C815
:1051BC00240EF582E83400F5837808121C54900410
:1051CC00E8E0F8A3E0C82414F582E83400F5837411
:1051DC0013F09003A27402F0024FF274F7121DCC7C
:1051EC009004FAE02407F5D99004EAE0C433335470
:1051FC00C0F5D978E8790488828983A3A3A3E0F564
:10520C00D988828983A3A882A983E864EE7003E914
:10521C00640470E39004FAE0601F78E87904FAE81B
:10522C002413F582E93400F583E0F5D9888289836B
:10523C00A3A882A9831AEA70E690051AE02407F560
:10524C00D99004EAE0C4333354C04404F5D978E867
:10525C00790488828983A3A3A3E0F5D98882898302
:10526C00A3A882A983E864EE7003E9640470E39058
:10527C00051AE0601F78E87904FAE82433F582E92E
:10528C003400F583E0F5D988828983A3A882A983A9
:10529C001AEA70E675E195900E4774EBF0A3740A68
:1052AC00F0A37441F0A3740CF0A37441F0A3740C3C
:1052BC00F0A37441F0A3740CF0A374E5F0A3740A8A
:1052CC00F0A37441F0A3740CF0A374FDF0A3740A62
:1052DC00F0900E557441F0A3740CF0A37441F0A33C
:1052EC00740CF0A37441F0A3740CF0A37441F0A3FC
:1052FC00740CF0A37441F0A3740CF0A37441F0A3EC
:10530C00740CF09004E8E0F8A3E0C8240EF582E8F1
:10531C003400F58374FFF0A3F0A3F0A3F09004E83D
:10532C00E0F8A3E0C82414F582E83400F583741285
:10533C00F09003A27401F0FF021E9E74F7121DCCB4
:10534C009004FAE02407F5D99004EAE0C43333540E
:10535C00C04402F5D978E8790488828983A3A3A391
:10536C00E0F5D988828983A3A882A983E864EE70CA
:10537C0003E9640470E39004FAE0601F78E87904B0
:10538C00FAE82413F582E93400F583E0F5D9888234
:10539C008983A3A882A9831AEA70E675E195900E19
:1053AC004774F7F0A3740AF0A374F7F0A3740AF02F
:1053BC00A374F7F0A3740AF0A374F7F0A3740AF0C3
:1053CC00A374F7F0A3740AF0A374F7F0A3740AF0B3
:1053DC00A374FDF0A3740AF0900E557441F0A374FD
:1053EC000CF0A37441F0A3740CF0A37441F0A374FB
:1053FC000CF0A37441F0A3740CF0A37441F0A374EB
:10540C000CF0A37441F0A3740CF09004E8E0F8A342
:10541C00E0C8240EF582E83400F58374FFF0A3F0A5
:10542C00A3F0A3F09004E8E0F8A3E0C82414F582FC
:10543C00E83400F5837414F09003A27404F002575E
:10544C000E74F7121DCC9004FAE02407F5D99004E1
:10545C00EAE0C4333354C04406F5D978E8790488BB
:10546C00828983A3A3A3E0F5D988828983A3A88228
:10547C00A983E864EE7003E9640470E39004FAE035
:10548C00601F78E87904FAE82413F582E93400F512
:10549C0083E0F5D988828983A3A882A9831AEA704C
:1054AC00E690051AE02407F5D99004EAE0C43333FA
:1054BC0054C04404F5D978E8790488828983A3A37D
:1054CC00A3E0F5D988828983A3A882A983E864EE36
:1054DC007003E9640470E390051AE0601F78E879C2
:1054EC0004FAE82433F582E93400F583E0F5D98831
:1054FC00828983A3A882A9831AEA70E675E1959044
:10550C000E4774F1F0A3740AF0A37441F0A3740C69
:10551C00F0A37441F0A3740CF0A37441F0A3740CC9
:10552C00F0A37441F0A3740CF0A37441F0A3740CB9
:10553C00F0A374FDF0A3740AF0900E557441F0A31F
:10554C00740CF0A37441F0A3740CF0A37441F0A399
:10555C00740CF0A37441F0A3740CF0A37441F0A389
:10556C00740CF0A37441F0A3740CF09004E8E0F810
:10557C00A3E0C8240EF582E83400F58374FFF0A391
:10558C00F0A3F0A3F09004E8E0F8A3E0C82414F52D
:10559C0082E83400F5837415F09003A27403F002D2
:1055AC00570EC082C0839004E8E0F8A3E0C824063C
:1055BC00F582E83400F583E4024DDD74F7121DCC5E
:1055CC009003D0E0F875F003A4C8AAF02AF974D2BD
:1055DC0028F8740339F9E82405FAE93400FB8A82C7
:1055EC008B83E0FCA3E0FD88828983A3A3A3A3A300
:1055FC00A3A3A3A3ECF0A3EDF088828983A3A3A3B8
:10560C00A3A3A3A3E024FFF8A3E034FFF98A828BC1
:10561C0083E8F0A3E9F002570E74F7121DCCEAFEF2
:10562C00EBFF9061D0E0600302570275D90E75D97B
:10563C000375D904EE248BF582EF3400F583E582F3
:10564C002408F8E5833400F9E0F5D9A3E865827005
:10565C0003E9658370F2EE2483F582EF3400F58361
:10566C00E5822404F8E5833400F9E0F5D9A3E86574
:10567C00827003E9658370F275E1957908EE248BED
:10568C00FAEF3400FB120BED7904EE2483FAEF34BD
:10569C0000FB120BED7C00EEF8EFF9ECFAC3E49A88
:1056AC00FA95E0FBEE2AFAEF3BFBEA248AF582EB53
:1056BC003400F583E0C0E0E824AAF582E93400F573
:1056CC0083D0E0F00C88828983A3A882A983ECC3E1
:1056DC00940840C7EE246FF582EF3400F583E0F8B0
:1056EC00A3E0F9EE2471F582EF3400F583E8F0A322
:1056FC00E9F07901800279008008F0EEA2E092AF27
:10570C0079007F01021E9EC082C08375D90275D9B3
:10571C000375D90575E195EA246FF582EB3400F534
:10572C0083E0F8A3E0F9EA2471F582EB3400F58309
:10573C00E8F0A3E9F07901024DE074F6121DCCEA11
:10574C00FEEBFF9005457406F07508457509057864
:10575C0008121FDF7C017903120C357402121D8BA9
:10576C0075D90675D903758245758305E0F5D9A3FE
:10577C00E582644A7004E583640570F075E19590E8
:10578C0003A2E06408701EEE246FF582EF3400F57E
:10579C0083E0F8A3E0F9EE2471F582EF3400F58391
:1057AC00E8F0A3E9F07901025A1474F6121DCCEA60
:1057BC00FEEBFF9061D0E070667801900545740BAC
:1057CC00F09003A2E0640770197508457509057817
:1057DC0008121FDF7C017903120C357402121D8B29
:1057EC007805740128F5D975D9037582457583053B
:1057FC00E8FAE0F5D9A31AEA70F875E195EE246F92
:10580C00F582EF3400F583E0F8A3E0F9EE2471F5AE
:10581C0082EF3400F583E8F0A3E9F0790180027996
:10582C0000025A1474F7121DCCEAFEEBFF75D90373
:10583C0075D90375D90DEE24DDF582EF3400F583AF
:10584C00E0F5D975E1957904120D55EE246FF582CA
:10585C00EF3400F583E0F8A3E0F9EE2471F582EF64
:10586C003400F583E8F0A3E9F0790102570E74F6E1
:10587C00121DCCEAFEEBFF9061D0E0F87480C39867
:10588C00FAEE2482F582EF3400F583E060047804AC
:10589C0080027800E8240BF8EAC398500302593FC1
:1058AC007D09900545EDF0EE24E2F8EF3400F97A2D
:1058BC00467B057C0888828983E08A828B83F0880A
:1058CC00828983A3A882A9838A828B83A3AA82ABB1
:1058DC00831CEC70E0EE2482F582EF3400F583E05B
:1058EC00601D7508457509057808121FDF7C09795C
:1058FC0003EEFAEFFB120C357402121D8B7D0D7446
:10590C00012DF5D975D9037582457583058D08E090
:10591C00F5D9A31508E50870F675E1957904120D13
:10592C0055EE241DF582EF3400F583E4F0A3F079F5
:10593C000180027900025A1474F6121DCCEAFEEBB7
:10594C00FF9061D0E0F87480C398FAEE2482F5825F
:10595C00EF3400F583E06004780480027800E824DA
:10596C0008F8EAC3985003025A1278069005457459
:10597C000CF09003BFE0900546F09003C0E090055A
:10598C0047F09003C1E0900548F09003C2E0900509
:10599C0049F09003C3E090054AF0EE2482F582EFC3
:1059AC003400F583E0601B7508457509057808120D
:1059BC001FDF7C067903EEFA120C357402121D8B74
:1059CC00780A740128F5D975D90375824575830554
:1059DC008808E0F5D9A31508E50870F675E1957906
:1059EC0004120D55EE246FF582EF3400F583E0F8C8
:1059FC00A3E0F9EE2471F582EF3400F583E8F0A30F
:105A0C00E9F07901800279007F02021E9E74F61281
:105A1C001DCCEAFEEBFF9061D0E0F87480C398FADD
:105A2C00EE2482F582EF3400F583E0600478048084
:105A3C00027800E82404F8EAC3985003025AF37879
:105A4C0002900545E8F0EE24F4F582EF3400F5837E
:105A5C00E0900546F0EE2482F582EF3400F583E009
:105A6C00601B7508457509057808121FDF7C0279E3
:105A7C0003EEFA120C357402121D8B780674012891
:105A8C00F5D975D9037582457583058808E0F5D974
:105A9C00A31508E50870F675E195EE2473F582EF11
:105AAC003400F583E4F0EE247FF582EF3400F583C7
:105ABC00E4F0EE241DF582EF3400F583E4F0A3F05E
:105ACC007904120D55EE240DF582EF3400F583E0C8
:105ADC00F8A3E0F9EE2471F582EF3400F583E8F0D9
:105AEC00A3E9F0790180027900025A1474F6121DB0
:105AFC00CC9061D0E0F87480C398FCEA2482F582E3
:105B0C00EB3400F583E06004780480027800E8242C
:105B1C0004F8ECC398405B79029005457407F0EAF1
