:020000040000FA
:0600000002011D02283F71
:03002B000230554B
:0300330002303761
:03003B000230B4DC
:03004300022FE5A4
:030053000228B2CE
:03006B00023079E7
:03007B00022F73DE
:100083000226ABE5C754F84401F5C7790122000005
:100093000080FB120086B90003020107E47921788E
:1000A30008B800028004F709D8FCE479297802B87B
:1000B30000028004F709D8FCE490028178D1790B1F
:1000C3008002F0A3D8FCD9FA781A90014D7A01BACC
:1000D30000028007E493A3F608DAF9900D51AA828F
:1000E300AB8390014E783A79048015E493A3AC82F4
:1000F300AD838A828B83F0A3AA82AB838C828D83A8
:10010300D8E9D9E775826C7583CC740312012F7516
:100113008291758300740012012F75D000758137A9
:10012300751881751902759F00020096C09FF59F8F
:10013300E473D09F22D083D082C09FE493C0E07445
:100143000193C0E0740293F59F2201FF0000B40005
:100153000028002800283075A000A000A000A000FF
:1001630000080008E001F00010001000100010006B
:100173001000100050005000500010001000D00775
:100183000000000000000F000100050030750700AB
:100193001000010081FF00000000FF8506A3068B0D
:1001A30006FF02020208025000A0000000E803025A
:1001B300B484010000998402B084010000A80D02F8
:1001C300A884010000B30202B084010000A90D025B
:1001D300E884010000C90202B084010000AA0D02F4
:1001E300C684010000CB0202B084010000AB0D0203
:1001F300D084080000CC0202B084010000AC0D02E0
:10020300C284010000AD0DFF0100FF2002B4840190
:100213000000F58302B084010000110E02BC8400CB
:100223000000000002AA8403000019034F0C4F0CC6
:100233004F0C4F0C4F0C4F0C4F0C4F0C4F0C4F0CE3
:100243004F0C4F0C4F0CE30EFB0EDD0EFFFFE001D6
:10025300110199010F1264040102B4840100009F8B
:100263008402B0840100005B0E02DE840100005CA6
:100273000E02AA840300006F0902AC840100005D32
:100283000E020202020202020202010D000000102D
:100293000102B4840100009C8402B0840100008741
:1002A3000E02D884010000750902B08401000088A1
:1002B3000E02D684010000A28302B08401000089EB
:1002C3000E02D4840100007A8302B0840100008A04
:1002D3000E02D284010000848202B0840100008BEC
:1002E3000E02CE84010000968202B0840100008CCD
:1002F3000E02CC84010000A88202B0840100008DAC
:100303000E02CA84010000728202B0840100008ED2
:100313000E02C8840100006C8302B0840100008FC8
:100323000E02C484010000900E01E803053F100A89
:10033300FF00013075030201060000000000000009
:1003430000000000000000000000000000000000AA
:100353000000000000FFFF0600800CE80314090002
:10036300000000000000000000000000000000008A
:100373000000051250002003020A000201060302D6
:10038300F0FF7A656B657A616E670000000000001C
:1003930000000000000000009514000000007D1420
:1003A3009B140A436861726163746572697374694B
:1003B300632031000A436861726163746572697313
:1003C3007469632032000843686172616374657203
:1003D30069737469632033001043686172616374E5
:1003E30065726973746963203400024368617261E2
:1003F30063746572697374696320350002B48401A0
:100403000000A28402B084010000A80F02E4840368
:1004130000002A0D02AE84010000A90F02B084017E
:100423000000BA0F02E6840300003E0D02AE840111
:100433000000BB0F02B084010000CC0F02C0840394
:1004430000003F0D02AE84010000CD0F02B0840115
:100453000000DE0F02DC84000000450D02AA8403C5
:100463000000460D02AE84010000DF0F02B08401DC
:100473000000F00F02BA840400004C0D02AE8401A8
:100483000000F10F12013857B8031201386EB80398
:100493001201389FB803120138DAB8031201380485
:1004A300B9031201382EB90312013845B9031201F9
:1004B300385CB90312013873B9031201389CB903CC
:1004C300120138AFB903120138C5B903120138D884
:1004D300B903120138FFB903120138E9C00212014E
:1004E30038EDC10212013825C20212013848C20296
:1004F30012013853C20212013876C2021201388542
:10050300C3021201385AC402120138D5C4021201BF
:10051300385DC50212013898C502120138CFC502F1
:100523001201385DC60212013836C702120138962D
:10053300C702120138A1C70212013820C8021201F2
:100543003823C80212013826C802120138B5C8027E
:10055300120138B8C802120138E8C8021201381271
:10056300C90212013800CA02120138B2CA021201CA
:10057300381FF80212013847F80212013875F802E1
:10058300120138ACF8021201380AF9021201385587
:10059300F902120138A0F902120138E0F90212013E
:1005A3003826FA0212013854FA0212013811FB02FA
:1005B3001201381BFB0212013828FB021201385BBF
:1005C300FB0212013827FC0212013833FC0212012C
:1005D300384BFC0212013855FC021201384AC80399
:1005E30012013858C80312013870C8031201388841
:1005F300C80312013837CD01120138E3CD011201CE
:10060300385ECE011201387FCF01120138BBCF0112
:1006130012013864D0011201384BD101120138AFF5
:10062300D20112013806D30112013887D301120116
:100633003877D401120138C4D4011201384AD501E4
:100643001201387CD50112013890D701120138D23A
:10065300D701120138F0D70112013873D801120102
:100663003847D9011201380FDA01120138C3F801F2
:1006730012013896F9011201383FFA01120138923A
:10068300FA0112013842FB01120138CEFB011201BB
:1006930038BAFC01120138E9FC01120138FCFD01F2
:1006A30012013844FE0112013819FF0112013855B5
:1006B300FF0112013871FF0112013825CB0312012A
:1006C30038E7A103120138FDA10312013823A20365
:1006D3001201383FA30312013849A3031201387EE4
:1006E300A40312013876A503120138F8F2021201AD
:1006F3003828F4021201385BF402120138A5F4021F
:100703001201386CF60212013810AE011201387A68
:10071300AE01120138D9AF01120138E9AF0112015C
:100723003816B0011201386DB00112013816B1014B
:100733001201381DB201120138E7B2011201384724
:10074300B4011201388AB4011201382FB501120124
:10075300387CB501120138A2B501120138B0B701D6
:10076300120138B5B701120138BAB90112013807BD
:10077300BA011201387ABA01120138ADBA01120175
:10078300384FBB01120138F8BB0112013830BC01EC
:1007930012013833BC011201387BBC01120138BB92
:1007A300BC0112013812BD0112013880A5031201E8
:1007B3003898A503120138E0A503120138F6A50302
:1007C3001201383DA60312013851A703120138DE86
:1007D300A70312013829A803120138283100120196
:1007E300383431001201386F3100120138B431004E
:1007F300120138743200120138FA32001201385FE4
:1008030033001201388B3300120138C43300120154
:1008130038023600120138E63700120138CC3900AD
:100823001201380F3B001201385D3D001201386F91
:100833003E00120138BA3F00120138CA40001201CB
:1008430038E74000120138224100120138444100C8
:10085300120138A74100120138684600120138FD21
:1008630046001201384E4700120138754700120145
:1008730038C74700120138E547001201383F4800E6
:100883001201382849001201389E4A001201382209
:100893004B001201389A8403120138A48403120115
:1008A30038E7840312013802850312013892850365
:1008B300120138BA8503120138F785031201382E65
:1008C3008603120138578603120138CC86031201BE
:1008D30038E18603120138F68603120138278703AD
:1008E3001201383B87031201386087031201389ADB
:1008F3008703120138C6870312013849880312019E
:1009030038928803120138BC8803120138E7880340
:100913001201384AC403120138E8A802120138163A
:10092300A90212013864AA0212013844AB0212016F
:100933003863AB02120138E0AB0212013823AC0278
:1009430012013879AD021201383AAE02120138C1F0
:10095300B00212013862B10212013858B202120118
:100963003855B302120138AFB4021201383AB50256
:1009730012013889C003120138F2C003120138464C
:10098300C1031201386DC1031201389EC103120164
:10099300380F89031201387C8903120138C3890394
:1009A300120138DB8A03120138D78B03120138BADC
:1009B3008C0312013823CB0212013865CB021201DA
:1009C3003837CC0212013810CD021201380ACE0298
:1009D300120138ECCE0212013855CF021201380B46
:1009E300D0021201387FD002120138EBD00212017B
:1009F3003814D1021201388ED10212013827D202E3
:100A03001201388CD202120138A1D202120138E746
:100A1300D20212013800D30212013865D302120147
:100A23003868D302120138DCFC0212013804FD02DB
:100A330012013842FD0212013800FE02120138672A
:100A4300FE0212013883FE02120138ABFE021201CC
:100A530038DBFE02120138EAFE0212013867FF0298
:100A63001201388DFF02120138FFBD01120138DD7A
:100A7300BF011201380FC2011201384BC20112012A
:100A83003878C20112013862C301120138ADC301C3
:100A9300120138F8C3011201380AC4011201384A9D
:100AA300C4011201387FC401120138CDC4011201FF
:100AB30038FCC4011201381FC5011201386CC5018D
:100AC300120138F1C5011201380BC8011201384A6D
:100AD300CA011201388BCA011201382DCC0112014F
:100AE300386ECC01120138E1CC01120138D39B02DC
:100AF300120138D19C021201386AA3021201388B09
:100B0300A50212013856A702120138BEA80212012B
:100B130038894B00120138384C00120138654C00FB
:100B2300120138AB4C00120138EB4D001201388131
:100B33004F00120138FB4F0012013816500012010A
:100B430038915000120138EB51001201384B530019
:100B5300120138515400120138B25500120138CB3A
:100B63005500120138295600120138175700120197
:100B7300384A5700120138BA570012013834580066
:100B83001201387E58001201384859001201381DED
:100B93005A00120138FC5A00120138875B00120117
:100BA30038F55B00120138695C00120138945C006F
:100BB300120138535D00120138B85E00120138D5B6
:100BC3005E00120138F45E00120138E55F00120185
:100BD300380A6000120138346000120138AF600037
:100BE30012013809610012013872620012013820C3
:100BF3006300120138616300120138FF8D02120194
:100C0300384D8E02120138598E02120138378F0285
:100C1300120138688F02120138998F0212013819B4
:100C23009002120138519002120138A3900212016E
:100C330038E09002120138FD920212013823950226
:100C43001201380E9702120138F89802120138F592
:100C53007F00120138FD99011201382D9A0112010A
:100C63003806A1011201388BA20112013888A801AC
:100C730012013870A901120138ADA901120138D04F
:100C8300A90112013801AA011201380AAA011201AD
:100C93003814AA0112013802AB01120138F8AB0172
:100CA300120138EE8401120138ED8801120138F384
:100CB30088011201382E9001120138479501120163
:100CC30038199E03120138AF9E03120138C59E03E3
:100CD3001201383B9F03120138AF9F03120138ED15
:100CE3009F0312013861A003120138DAA003120135
:100CF30038E3A003120138EFA00312013804A10363
:100D030012013842A10312013858A103120138B766
:100D1300A103120138D89103120138E5910312019E
:100D230038FF91031201383E92031201387C92037B
:100D3300120138E19203120138F6920312013801CD
:100D430093031201380E9303120138259303120102
:100D5300383393031201383E93031201384A930345
:100D6300120138599303120138649303120138872F
:100D730093031201382E94031201383E9403120197
:100D8300385894031201387594031201389194036F
:100D9300120138B69403120138C19403120138D6F4
:100DA3009403120138EA94031201384B950312019C
:100DB300385195031201385795031201385D950395
:100DC300120138759503120138A895031201389959
:100DD300EA011201381DEB01120138CCEB011201BB
:100DE300382BED011201384CEF0112013838F001B4
:100DF3001201386DF0011201388FF0011201383EF3
:100E0300F10112013836F3011201385FF3011201C7
:100E130038F1F30112013823F40112013830F401DF
:100E230012013887F401120138ADF4011201381AA6
:100E3300F7011201381DF80112013875F80112018A
:100E43003828DC0112013832DD0112013819DE01C4
:100E530012013823DE0112013845DE011201385137
:100E6300DE01120138EADF0112013819E001120133
:100E73003835E1011201388EE101120138F4E20143
:100E8300120138D3E3011201382FE4011201389C17
:100E9300E401120138D7E40112013816E501120109
:100EA30038CFE701120138E9E70112013875E8018B
:100EB30012013883E801120138DCE801120138EA33
:100EC300E8011201385DE901120138C1E90112019B
:100ED300380BEA01120138BBB502120138DDB50245
:100EE30012013803B80212013818BB02120138305C
:100EF300BC02120138E3BC02120138C5BD02120163
:100F03003811BA0312013836BA03120138A8BA03EA
:100F13001201382CE40212013835E4021201383E82
:100F2300E40212013815E502120138C6E602120185
:100F330038FCE60212013836E7021201386CE70288
:100F4300120138A6E702120138DAE7021201380665
:100F5300E8021201384FE80212013889E80212014F
:100F630038D2E8021201382AE9021201385FE90295
:100F7300120138BAE902120138F4E90212013845C4
:100F8300EA021201387BEA02120138B5EA021201C1
:100F930038E3EA0212013806EB02120138E2C90310
:100FA3001201380ECA0312013869CA0312013873D9
:100FB300CA0312013883CA031201388CD302120107
:100FC3003896D302120138D4D3021201381DD40249
:100FD30012013857D402120138B1D402120138D2A7
:100FE300D402120138AAD702120138B3D702120170
:100FF3003800D80212013829D80212013833D80236
:101003001201389FD80212013831D9021201387BFC
:10101300D902120138B1D9021201383DDA021201A4
:10102300387EDA02120138B5DA02120138C7DA0261
:10103300120138E6DA02120138EFDA02120138BC83
:10104300DB0212013867C60312013866B6031201C8
:10105300389CB603120138D2B6031201381DB80307
:101063001201388DCA03120138A3CA03120138AD25
:10107300CA03120138F7CA031201380DCC03120157
:1010830038008003120138158003120138C580032C
:101093001201380581031201381E810312013859E8
:1010A3008103120138A68103120138D8810312018A
:1010B300381A82031201381B84031201388D84030A
:1010C300120138FABE0312013823BF03120138524A
:1010D300BF03120138EABF0312013802C003120131
:1010E3003844C003120138817E001201388C7E001F
:1010F3001201382D7F0012013855B4031201385EF6
:10110300B403120138CFB403120138E3B40312015C
:101113003838B6031201385AB60312013827C3030D
:101123001201383FC3031201387BC303120138BDD8
:10113300C303120138F2C30312013805C4031201B9
:1011430038A9CB03120138B5CB0312013881AD03A3
:10115300120138B1AD031201385CAE03120138FE3F
:10116300AE0312013853A80312013878A803120101
:1011730038A2A803120138C4CC03120138916300CA
:10118300120138F665001201389767001201384BD7
:101193006800120138DE6800120138636900120129
:1011A30038886900120138DE6C00120138646D0062
:1011B300120138976E00120138D16E001201380601
:1011C3006F00120138C6700012013823710012013A
:1011D300386C7100120138D771001201384872005F
:1011E3001201387A7200120138927200120138DB50
:1011F3007300120138EB73001201380675001201F7
:10120300382875001201385E750012013812770014
:101213001201389F7700120138DE7700120138027D
:10122300790012013821C90312013832C9031201AE
:1012330038D7C90312013865CD03120138A4CD0391
:10124300120138E6FF011201385EC7031201386E3E
:10125300C70312013889C7031201383DC8031201BD
:10126300381FAB0312013850AB031201383AAD03F8
:1012730012013863C503120138E8C5031201384E61
:10128300C603120138E4C10312013818C203120164
:101293003841C203120138B8C20312013858BD03E2
:1012A30012013881BD03120138E7BD03120138076B
:1012B300BE0312013858BE03120138B3BE03120134
:1012C30038EDBE03120138F0BE031201382779004E
:1012D300120138607900120138D27900120138E71F
:1012E3007900120138127B001201388E7B00120143
:1012F300389A7C00120138607D001201387F7D002E
:10130300120138A67D00120138E37D00120138FB7B
:101313007D001201384C7E0012013825960312011C
:10132300383C9603120138B696031201389A970394
:10133300120138719903120138D699031201382D1D
:101343009A031201381ACD03120138F87F001201F3
:101353003810B203120138ABB3031201380CB403D3
:1013630012013852B403120138419A03120138DCD6
:101373009A03120138609B03120138F99B0312018F
:1013830038BB9C03120138309D03120138589D036A
:10139300120138619D03120138D19D03120138E413
:1013A3009D03120138FA9D03120138039E031201B3
:1013B30038169E03120138B6BB0312013808BC036A
:1013C30012013892BC03120138F9BC03120138CB65
:1013D300AF03120138F5AF03120138C3B003120192
:1013E300389EB103120138EADB02120138B1DC0284
:1013F300120138E8DC0212013812DD0212013872E0
:10140300DD02120138C8DD021201382DDE0212019D
:1014130038C5DE02120138D4DF021201386BE10253
:10142300120138F8E1021201385FE2021201387644
:10143300E20212013890E302120138CEE3021201F4
:1014430038008002120138818302120138098502B3
:101453001201386085021201387F8502120138FDBE
:10146300850212013893870212013878880212012B
:1014730038868C021201385C8D02120138A6EB0209
:1014830012013819EC02120138CAEC021201388039
:10149300EF021201382CF102120138F9F1021201A4
:1014A3003876F2021201387C8D03120138C18D03A4
:1014B300120138DE8D03120138A38E031201380C9A
:1014C3008F03120138F08F031201389F9103120129
:1014D30038E4CD03120138AECD03120138D5FF0233
:1014E30012013810CE03E066701008A3E066700A9C
:1014F30008A3E066700408A3E06622C3E796080920
:10150300E7960809E7960809E79622C3E09608A339
:10151300E09608A3E09608A3E09622C008C3E096ED
:10152300F50808A3E096420808A3E096420808A33A
:10153300E09645087001D3D00822E9799EC608CA0F
:10154300C608CBC608CCC6C370207996CACBCC706C
:1015530019798ECBCC70137986CC700EF9802ACA98
:1015630033CACB33CBCC33CC331930E7F2CCCBCA31
:101573003350147004EA30E00DE4CA3ACACB3BCBD3
:10158300CC3CCC500209C3E913C6CC182313C6CBF9
:1015930018C6CA18C6F9221215DA20F01430E72B40
:1015A30074FFFCFBFA747F8022E4FCFBFA748080F6
:1015B3001AB48008BC00F2BB00EF800F50EBF9E4D3
:1015C300C39AFAE49BFBE49CFCE499C6CC18C6CB13
:1015D30018C6CA18C6F922E4C9C608CAC608CBC6C3
:1015E300D3330308CCC63392F0C3947F402E9418B0
:1015F3004019C9B90704CACBCC225025C309CA3341
:10160300CACB33CBCC33CC33D9F422F4600DC9CC61
:10161300C313CB13CBCA13CAD9F6CC22E4FCFBFA0F
:101623002214FCFBFA22E6C3331846184618462256
:10163300E7C33319471947194722181818E608460C
:1016430008700AE608C3337005E633F4220822194A
:101653001919E7094709700AE709C3337005E73326
:10166300F4220922E6084608C3134608336002E65B
:1016730033F422E7094709C3134709336002E73309
:10168300F422121667601D12167670051919198057
:101693001A12163D701F121652C37003E6673319F0
:1016A300191940071818182208080874FFF618F6C5
:1016B30018F618F62212165260171216337021927A
:1016C300F01216297019501720F014080808090998
:1016D30009E7F61819E7F61819E7F61819E7F622D5
:1016E30012162960E6E869701F0808E62480F608E8
:1016F300E436F618547FB47F0CE654806007F6E4B2
:1017030018F618F622181822E9C6CC08C6CD08C662
:10171300CE08C6CFC0E0E8C0E0EAC0E0EBC0E00915
:10172300E9F809E7FA09E7FBE6F918E6F8C3EC98E4
:10173300ED99EE9AEBC2E7F5F0EFC2E795F0500EA4
:10174300600CEBCFFBEACEFAE9CDF9E8CCF8EAA2DC
:10175300E7D2E7FAEB33FB13F5F0EEA2E7D2E7FEAD
:10176300EF33FFC5F013A2E730E601B313C5F0C3AF
:10177300C0E0C0F07F00C39BFB605E9418600F4025
:101783001D14601AD0E023F9D0E0F80218668AF03D
:10179300E9486003D2F0E4AFF0FAF9F8803BEB30AC
:1017A300E40D89F0EA6003D2F0E4AFF0F9CAF8EB94
:1017B30030E30D88F0EF6002D2F0AFF0E4CAC9F86D
:1017C300EB54076014FBC3EA13FAE913F9E813F8BF
:1017D300EF135002D2E0FFDBEDD0E0C0E030E73999
:1017E300C3E49FFFF5F0EC98FC42F0ED99FD42F065
:1017F300EE9AFE42F0D0E0F9D0E0F8E5F0607AE945
:1018030023F9EE20E742D8028067C3EF33FFEC33BE
:10181300FCED33FDEE33FE80EAEC28FCED39FDEE02
:101823003AFED0E023F9D0E0F84002801BC3EE1368
:10183300FEED13FDEC13FCEF135002D2E0FF08B8EA
:1018430000067F7F74FF802EEF3350178CF020F05B
:101853000260100CBC000C0DBD00080EBE00040895
:10186300E860DFE933E813FFEE2313FE4F4D4C80AE
:1018730008E95480FFE4FEFDFCEE33EF33F470041B
:10188300FCFD7E80D0E0FBD0E0FAD0E0F8D0E0CFE2
:10189300C618CEC618CDC618CCC6F9221216677064
:1018A3000418181822121676700D74FFF61819F61C
:1018B3001819F61819F622E7548066F612162970DD
:1018C3000F12163370F014F608F608F608F680D1F6
:1018D300121633700CF608F608768008E6447F800B
:1018E300EC121655700C12164060BFE65480F6E4F5
:1018F30080BB121640700519191980A5E869700C90
:10190300763F18768018F618F6E8F922E6CDC0E09F
:1019130018ECC0E0E633CD33CDD313F6E719FCE77B
:10192300191933CC33C3947F400ECD9D502408E660
:101933005480F6E418F6800FF4043D14501408E6BE
:10194300447FF6187680E418F618F6D0E0FCD0E071
:10195300FD22CCD313CCFD18E4C6CBC0E018E4C6FB
:10196300CAC0E00808ED08C633E613F618E433C628
:1019730075F003C3CA97CA09CB97CB199C40047D62
:1019830008802EBD0003021A4816B6FF0506060896
:101993001618C3CA33CACB33CB33CA27CA09CB37CA
:1019A300CB193CC37D08803E187D0820E75CC63315
:1019B300C6CA33CACB33CB33DDF1D5F0EB30E77B8B
:1019C300CA97CA09CB974ACB199C406F4B7025E63F
:1019D30020E0218066187D08C3CA97CA09CB97CB3C
:1019E300199CD3C633C6CA33CACB33CB3350C9DDF4
:1019F300E7D5F0E1D3E4C636C608C636C608C63610
:101A0300C608C636C61818188031C3CA97CA09CB88
:101A130097CB199CB34097C633C6CA33CACB33CBD3
:101A230033DD34D5F02EC6A2E0C640C8CA27CA09A2
:101A3300CB37194A70BECB3CB480B90808E63308EB
:101A4300E633601F181818D0E0FAD0E0FBD0E0FCB2
:101A5300D0E0FD22187D08CA27CA09CB37CB193C31
:101A6300D3808013F618E4B67F11F618B6FF0EF68E
:101A730018C60470D20808768080CAF618F618F6DD
:101A830080C5080808EAC0E0EBC0E086F0E7A4FAE6
:101A9300180986F0E7A42AFA180986F0E7A42AFAB7
:101AA300180986F0E7A42AFA1986F0E7A4FBE5F003
:101AB3002AFA190886F0E7A42BFBE5F03AFA19088D
:101AC30086F0E7A42BFBE5F03AFA18180986F0E74D
:101AD300A4C5F02BFBE43AFA1908E7C5F0C6A4261F
:101AE300F6E5F03BFBE43AFA1886F0E7A4F6E5F0F6
:101AF3000826F6E43B08F6E43A08F6D0E0FBD0E02B
:101B0300FA22E4CFC0E0E4CEC0E0E4CDC0E0E4CC10
:101B1300C0E075F020C3E633F608E633F608E63393
:101B2300F608E633F6181818EC33FCED33FDEE3304
:101B3300FEEF33FFC3EC9709ED9709EE9709EF9793
:101B4300191919400FFFEC97FC09ED97FD09EE9762
:101B5300FE191906D5F0BEECF709EDF709EEF70902
:101B6300EFF7191919D0E0FCD0E0FDD0E0FED0E08A
:101B7300FF226016080808C6C313C618C613C61882
:101B8300C613C618C613C6D5E0EA227009080808AA
:101B9300226016181818C6C333C608C633C608C64B
:101BA30033C608C633C6D5E0EA22E627F60809E6B7
:101BB30037F60809E637F60809E637F622E026F68F
:101BC30008A3E036F608A3E036F608A3E036F622CB
:101BD300E026F008A3E036F008A3E036F008A3E01F
:101BE30036F022C3E697F60809E697F60809E69762
:101BF300F60809E697F622C3E096F008A3E096F00C
:101C030008A3E096F008A3E096F022E657F6080949
:101C1300E657F60809E657F60809E657F622E056AE
:101C2300F608A3E056F608A3E056F608A3E056F636
:101C330022E056F008A3E056F008A3E056F008A30C
:101C4300E056F022E0F608A3E0F608A3E0F608A3C6
:101C5300E0F622E6F008A3E6F008A3E6F008A3E620
:101C6300F022E0FAA3E0FBA3E0FCA3E0FD22EAF00C
:101C7300A3EBF0A3ECF0A3EDF022CAC0E0E6F0A3DF
:101C830008DAFAD0E0FA22CAC0E0E0A3C582CCC5E4
:101C930082C583CDC583F0A3C582CCC582C583CD60
:101CA300C583DAE6D0E0CA22C3E498F8E499F912CE
:101CB3001CEC8026C3E49AFAE49BFBE920E7E912D3
:101CC3001CECE498F8E499F922C3E498F8E499F950
:101CD300121CECE498F8E499F9C3E49AFAE49BFB48
:101CE30022EB20E7CFE920E7E0B90010BB0008E8CA
:101CF3008AF084F8AAF022E4FBC8FA22EB70227B74
:101D030010C833C8C933C9335007C39AC3DBF28041
:101D1300069A50012ADBEAC833F4C8C933F4C9FA76
:101D23002275F008E4C833C8C933C933C99AC99BBB
:101D33005004C92AC93BD5F0ECFBC833F4C8E4C945
:101D4300FA22600D08C6A2E713C618C613C6D5E06B
:101D5300F322600C08C6C313C618C613C6D5E0F435
:101D630022700422600D18C6C333C608C633C6D515
:101D7300E0F41822251810AF08F518400215198051
:101D830008F51840021519D2AF22C0D0251810AF9C
:101D930008F518500205198008F51850020519D2E4
:101DA300AFD0D0222518F58210AF08F518400215E0
:101DB300198008F51840021519D2AF851983222519
:101DC30018F582E43519F58322E4732518C582C01A
:101DD300E0E51934FFC583C0E0E518C3958224F814
:101DE30010AF088583198582188008858319858239
:101DF30018D2AFCEF0A3E520F0A37808E608F0A34D
:101E0300DEFAEFF0A3E58124FAF8E608F0A3E6088A
:101E1300F0A3E608F0A30808E608F0A3E608F0A399
:101E230015811581D0E0FED0E0F81581158115816B
:101E3300E8C0E0EEC0E0222518C582C0E0E5193411
:101E4300FFC583C0E0E518C3958224F910AF088568
:101E530083198582188008858319858218D2AFCEAD
:101E6300F0A3E520F0A37808E608F0A3DEFAEFF08C
:101E7300A3E58124FBF8E608F0A3E608F0A308082D
:101E8300E608F0A3E608F0A315811581D0E0FED0A3
:101E9300E0F815811581E8C0E0EEC0E022851983E2
:101EA300851882E0A3FEE0A3F5207808E0A3F608F6
:101EB300DFFAE0A3FFE0A3C0E0E0A3C0E0E0A3C03B
:101EC300E0E0A3C0E0E0A3C0E010AF08858218857E
:101ED30083198008858218858319D2AFD083D08275
:101EE300020135851983851882E0A3FEE0A3F5205E
:101EF3007808E0A3F608DFFAE0A3FFE0A3C0E0E080
:101F0300A3C0E0E0A3C0E0E0A3C0E010AF08858277
:101F1300188583198008858218858319D2AFD083E9
:101F2300D08222C0D02518C582C0E0E51934FFC590
:101F330083C0E0E518C3958224F310AF08858319A5
:101F43008582188008858319858218D2AFC8F0A3CB
:101F5300E9F0A3EAF0A3EBF0A37908E709F0A3D82B
:101F6300FAECF0A3EDF0A3EEF0A3EFF0A3D0E0F0D2
:101F7300A3D0E0F0A3D0E0F0A3E520F0A3E5F0F0D8
:101F8300A322851983851882E0C0E0A3E0F9A3E0CA
:101F9300FAA3E0FBA37808E0F608A3DFFAE0FCA3CA
:101FA300E0FDA3E0FEA3E0FFA3E0C0E0A3E0C0E008
:101FB300A3E0F5D0A3E0F520A3E0A3F5F010AF086C
:101FC3008583198582188008858319858218D2AF85
:101FD300D082D083D0E0F8D0E0327404800674025B
:101FE30080027401C0E0F404121DA7D0E0121C7D2E
:101FF300227404800474028000CCC0E0EDC0E0E5EC
:1020030018C39CCCAD1950011D10AF068C188D1947
:1020130080068C188D19D2AF121C8AD0E0FDD0E057
:10202300FC22D083D082E9C0E0E493A3C386F0C549
:10203300F095F0F908E493A386F0C5F095F0700BE2
:10204300E493A3C3994005E9048002A3E475F00275
:10205300A42582F582E5F03583F583D0E0F9E49396
:10206300A3C0E0E493C0E022D083D082ECC0E0EDD3
:10207300C0E0E493A3FCE493A3FDED4C600D1220B8
:10208300B7EC24FFFCED34FFFD80EFE493A3FCE405
:1020930093A3FDED4C600D1220F6EC24FFFCED3410
:1020A300FFFD80EFD0E0FDD0E0FCE493A3C0E0E4CB
:1020B30093C0E022C0E0C3E493960874019396189A
:1020C300400FE493667008087401936618700070FB
:1020D30019A3A3C3E49396087401939618A3A3408A
:1020E3000DD0E0D0E0D0E00220A7A3A3A3A3A3A335
:1020F300D0E022C0E0C0F088F0E493667008087472
:10210300019366187000A8F0A3A3700BD0F0D0E081
:0E211300D0E0D0E00220A7A3A3D0F0D0E022BD
:1021240074F5121E3AEAFEEBFFEE2434F8EF3400A5
:10213400F988088909EE2435F582EF3400F583E047
:10214400F8EE2437F582EF3400F583E0F50AEC85E8
:102154000AF0A4FCAAF0850AF0EDA42AFDE82CF804
:10216400E43DF97A257B00121CECEA850882850996
:1021740083F0F8740758F97401B900028004C3337A
:10218400D9FCFAE8131313541FF8EE28F8EF3400BF
:10219400F9E8245DF582E93400F583E05A6008EE3D
:1021A4002434F582EF802CEE2434F582EF3400F5EC
:1021B40083E0C0E0EE2436F582EF3400F583E0F5E9
:1021C400F0D0E084A8F0EE28F8EF3400F9E82438E1
:1021D400F582E93400F583E0F97F04021EE674F524
:1021E400121E3AEAFEEBFFEE2434F582EF3400F5DA
:1021F40083E0C0E0EE2435F582EF3400F583D0E0CF
:10220400F08E828F83A3A3A3A3A3A3A3C082C083BE
:102214008E828F83A3A3A3A3A3E0F8A3E0F9D083C2
:10222400D082E0C398F508A3E099F509EE247FF580
:1022340082EF3400F583E064017069EE2480F58256
:10224400EF3400F583E0F8A3E0F98E828F83A3A333
:10225400A3A3A3A3A3E0FCA3E0FD8E828F83A3A387
:10226400A3A3A3E0FAA3E0FBC3EA9CEB9D5010C335
:10227400EC98ED99402EC3EA98EB995027800EC351
:10228400EA98EB994007C3EC98ED9940177CDC7D04
:1022940004EEFAEFFB120BADEE247FF582EF34006F
:1022A400F583E4F0EE2434F8EF3400F9E8FCE9FDBA
:1022B400EE2435F582EF3400F583E0F8EE2437F5AB
:1022C40082EF3400F583E0F50AE508850AF0A4F509
:1022D40008AAF0850AF0E509A42AF509E82508F812
:1022E400E43509F97A257B00121CECEA8C828D8393
:1022F400F0F8740758F97401B900028004C333D9A3
:10230400FCFAE8131313541FF8EE28F8EF3400F91D
:10231400E8245DF582E93400F583E05A6008EE2490
:1023240034F582EF802CEE2434F582EF3400F5830B
:10233400E0C0E0EE2436F582EF3400F583E0F5F0FA
:10234400D0E084A8F0EE28F8EF3400F9E82438F55A
:1023540082E93400F583E0F9122F5F0221DDC082A7
:10236400C083851882851983E0F8A3E0F9C3EA9C49
:10237400EB9D5010C3EC98ED99401BC3EA98EB9980
:102384005014800EC3EA98EB994007C3EC98ED997A
:102394004004790180027900D083D08222EAC39C70
:1023A400FAEB9DFB2274EF121E3A9003A2E064083C
:1023B4006005E06407702A9061C8E060249003D04F
:1023C400E0F4601DE0F875F003A4C8AAF02AF974DB
:1023D400D228FE740339FF8E828F83A3A3A3E070F7
:1023E400030224D9906060E0C0E0EE2468F582EF37
:1023F4003400F583D0E0F0750C45750D05750800C3
:10240400750900E5D914F50AE5D95403F50E6017EA
:102414007403650E605CE50A6010EE2467F582EFD4
:102424003400F583E070030224BE900540E06401AB
:10243400602AEE2482F582EF3400F583E0600478AC
:102444000480027800850A08E508C398FA95E0FB41
:10245400120A7B8A088B09EA45097005120DB180BE
:1024640074EE2482F582EF3400F583E070048A0C64
:102474008B0DE50A6012850C82850D83F50BE5D979
:10248400F0A3150BE50B70F6EE2482F582EF340011
:10249400F583E0604474FC250AF50A780C121FE108
:1024A400AC0AA90EEEFAEFFB120C497402121D8D50
:1024B400E97026AA08AB091213BD793D8E828F8379
:1024C400A3A3A3A3E0FA7B0012094FEEFAEFFB12D9
:1024D4000BC5120C5B790080747403650E6056851D
:1024E4000A107511007810121FE1AC0CAD0DAA088A
:1024F400AB09120C257402121D8DEE2468F582EFCF
:102504003400F583E064807004747F8001E0F50C8E
:10251400780C121FE5E50EF50C780C121FE5A90ADC
:10252400AC08AD099003D0E0FA7B001209137402E1
:10253400121D8D80139003A2E06408600BAC0CADF7
:102544000DEEFAEFFB120CB5120DBD79017F0A02F4
:102554001EE674F5121E3A74FC121D77EAFEEBFFB8
:102564008908A2AFE433F509C2AF806AEE2463F8A8
:10257400EF3400F97A007B00A2AFE433F50AC2AF6E
:1025840088828983E0FCA3E0FDEC4D603A8882896F
:1025940083E0FAA3E0FB8A828B83E0FCA3E0FD885E
:1025A400828983ECF0A3EDF08A828B83E4F0A3F0BC
:1025B40088828983E0FCA3E0FDEC4D700A8882895F
:1025C40083A3A3E4F0A3F0E50AA2E092AF1213BD43
:1025D4009004E3E004F0EE2463F582EF3400F58325
:1025E400E0F8A3E0F9E849603DEE2463F582EF34B6
:1025F40000F583E02402FAA3E03400FBEA2402F5A8
:102604000AEB3400F50B780A121FE18A828B83E00F
:10261400FCA3E0F9EEFAEFFB120BE97402121D8D34
:10262400E970030225709004E3E060639004E4E041
:10263400F89004E3E0C398500C740265087050905D
:1026440004E5E0604A8E828F83A3A3A3A3E08518E8
:1026540082851983F0A3E4F09004E3E0F874021295
:102664001DC2E8F0A3E4F09004E3E0F89004E2E093
:1026740028F07402121DC2AC82AD838518828519BC
:1026840083AA82AB83790112091F9004E3E4F0E585
:1026940009A2E092AF7404121D8D0221DD00000036
:1026A4008521878522C622C0E0C0D0E8C0E0E9C009
:1026B400E0EAC0E0EBC0E0ECC0E0EDC0E0EEC0E07A
:1026C400C008C009C00AC00BC082C083C0F0A2AF5A
:1026D400E433FEC2AF759B00906182E0A2E0501229
:1026E400E591A2E0500C7591FE740165217003120E
:1026F40023A9E0A2E55051E591A2E5504B7591DF85
:102704009003A2E064076005E06408702374016527
:1027140021703579019003D0E0FA75F003A4CAA8BA
:10272400F028FB74D22AFA74033BFB122556801856
:10273400E0640D70139003C4E004F064287002E4B4
:10274400F07A00E0F9120DC3906182E0A2E6400342
:102754000227F2E591A2E640030227F27591BF90A9
:1027640003A2E064057008120CEB120CF78003124C
:102774000CF1752100120D51E99003A3F0790012B8
:102784000D45120B237A017B009003A1E0F912108E
:102794001B907803E064427055900544E014F07097
:1027A4004DC2AF1227AA00782AD0E0F618D0E0F67E
:1027B400E59F540770057509FF800375097FC4C040
:1027C400E07829E6F50808E65509F509740B780858
:1027D400121D55D0E02508F8906270E0A2E740F899
:1027E400E8C333906272F0906270E0D2E0F09061DE
:1027F40081E0A2E35009E5E9A2E3500375E9F7A3F8
:10280400E0A2E75009E591A2E7500375917FEEA29B
:10281400E092AFD0F0D083D082D00BD00AD009D0D0
:1028240008D0E0FED0E0FDD0E0FCD0E0FBD0E0FA40
:10283400D0E0F9D0E0F8D0D0D0E032C0E0C0D0C0D1
:1028440082C083906183E0A2E05009E5BFA2E0501A
:102854000375BFFEE0A2E15009E5BFA2E150037594
:10286400BFFDE0A2E25009E5BFA2E2500375BFFB41
:10287400E0A2E35009E5BFA2E3500375BFF7E0A26D
:10288400E45009E5BFA2E4500375BFEFE0A2E550B0
:1028940009E5BFA2E5500375BFDFE0A2E65009E5F4
:1028A400BFA2E6500375BFBFD083D0828088C0E04A
:1028B400C0D0E8C0E0E9C0E0EAC0E0EBC0E0ECC0B2
:1028C400E0EDC0E0C0F0E5A7A2E6500FE5A1A2E666
:1028D400500953A7BF75A1BF122917E5A7A2E55058
:1028E4000CE5A1A2E5500653A7DF75A1DFE5A7A279
:1028F400E15009E5A1A2E1500375A1FDE5A7A2E21B
:10290400500CE5A1A2E2500653A7FB75A1FBD0F041
:1029140002282874F8121E3A7521019003A2E0647B
:10292400067015120C798A828B83A3A3A3A3A3A395
:10293400E0FAA3E0FB120CD9A2AFE433FED2AF90CD
:1029440003A8E0640170187A207B009003A1E0F9E9
:102954001210A57A207B009003A1E0F912102190B7
:102964006182E0D2E6F0900541E0602185C62280D4
:10297400169003A7E064017008E5C654F84405F511
:10298400C653BEFC1226A47401652160E4EEA2E0E5
:1029940092AF7F01021EE6008E238F248582288554
:1029A4008327851882851983E0CEA3E0CF8528820A
:1029B400852783EBC9EAC8EDCBECCA75F010C3E8F0
:1029C40033C8E933C9EA33CAEB33CBC3EA9EF526ED
:1029D400EB9FF525B35004AB25AA26EC33CCED339D
:1029E400CDD5F0DAAE23AF242274E9121E3A74F87E
:1029F400121D77851882851983ECF0A3EDF08A08FF
:102A04008B099003A2E024F7C394055006750801CE
:102A1400022B84120C798A0A8B0BAE0AAF0BEE4F91
:102A24007003022B81AC08AD097402121DC2AA8284
:102A3400AB83120D098E828F83A3A3750CFF750DD2
:102A4400FF750EFF750F00780C121C217402121D05
:102A5400C27510FF7511FF7512FF751300781012FF
:102A64001C21780C79101214FE502A780C7910125B
:102A74001BE67508017509C8750A00750B0078080E
:102A8400790C1214FE5052850C08850D09850E0A26
:102A9400850F0B80507514017515C87516007517D0
:102AA4000085100885110985120A85130B780879A9
:102AB4000C121BE6781479081214FE401C750800E9
:102AC400750900750A00750B0178087910121BE668
:102AD4007808790C121BAD800C7508017509007516
:102AE4000A00750B0074097808121B8E750C19F511
:102AF4000DF50EF50F7808790C121B058E828F8365
:102B0400A3A3A3A3A3A3E0F8A3E0F97AD07B0312C1
:102B14001CEC880C890DE4F50EF50F7808790C127D
:102B24001BAD7406121DC2E0F8A3E0F97AD07B0352
:102B3400121CECE8FA8A0CE4F50D7808790C1214EE
:102B4400FE50077808790C121BE69003A2E0640893
:102B5400600AE064066005E06405702D750C0D786C
:102B64000C79081214FE4021750CF4750DFF750ED6
:102B7400FF750FFF7808790C121BAD800C750800E7
:102B8400750900750A00750B00851882851983E0A4
:102B9400F8A3E0F58388827808121C567408121D85
:102BA4008D7F10021EE674F7121E3A120D1B90055B
:102BB4003FE064017010906245E4F0A3F053F4F335
:102BC40043FE0C5390F3120CC7E5C654804449F5F8
:102BD400C6E59E547F644970F8906185740FF09047
:102BE400053DE0F47002A3E0604E90053EE060080D
:102BF40014601B14602E804075080175090090054F
:102C04003DE07808121D64E508F45280802A7508B6
:102C14000175090090053DE07808121D64E508F48B
:102C24005290801475080175090090053DE07808FC
:102C3400121D64E508F452A079007F02021EE674B6
:102C4400F7121E3AE9FEEAFF74016E700C7A807B7B
:102C5400009003A1E0F912101B903120E493F4607A
:102C640008E493F9120B17800953C680E59E547F3C
:102C740070FA120CCD90053FE064017003120B2F23
:102C840090053DE0F47002A3E0604B90053EE060E7
:102C94000814601A14602C803D75080175090090B1
:102CA400053DE07808121D64E50842808028750817
:102CB4000175090090053DE07808121D64E508429D
:102CC40090801375080175090090053DE07808129D
:102CD4001D64E50842A0120D1B120C798A088B09A9
:102CE400A808A909E8496015E5E170FCE82414F591
:102CF40082E93400F583E0F46003E0F5E174016FE8
:102D0400700A7A019003A1E0F912106F022C3E744C
:102D1400ED121E3A8A088B098C0A8D0B7413121D4E
:102D2400C2780C121C477808790C1214FE75100135
:102D34007511C875120075130050127808790C12B9
:102D44001BE6781079081214FE50168010780C795E
:102D540008121BE67810790C1214FE4004790180E5
:102D64000279007F0C021EE674ED121E3A8A088B6B
:102D7400098C0A8D0B7413121DC2780C121C47782F
:102D84000C79081214FE40117808790C121BE6AA7B
:102D940008AB09AC0AAD0B802275100075110075E3
:102DA40012007513017810790C121BE6781079085B
:102DB400121BADAA10AB11AC12AD1380A68A828B84
:102DC400837508FF7509FF750AFF750B00780812F3
:102DD4001C347F04021EE674F5121E3A8C828D8325
:102DE4007808121C478A828B837808121BFAEA241B
:102DF40004F8EB3400F98C828D83A3A3A3A3E0FC35
:102E0400A3E0FD88828983C3E09CF0A3E09DF08861
:102E1400828983C3E09420A3E0944E40268A828B67
:102E2400837508FF7509FF750AFF750BFF78081293
:102E34001BD38A828B83A3A3A3A3E02420F0A3E063
:102E4400344EF0022DC174F5121E3AE9FE9004F7D7
:102E5400E0FAA3E0FBEEC333F8E433F9741D28F57C
:102E640082748339F583E02AF508A3E03BF50978F9
:102E740008121FE17A407B427C0F7D0012299C746A
:102E840002121D8D8A088B098C0A8D0B7410780828
:102E9400121B75AA08AB097F04021EE674F1121E08
:102EA4003A8A0C8B0D8C0E8D0F740F121DC2E0FA32
:102EB400A3E0FB7411121DC2E0F508A3E0F5097844
:102EC40008121FE1EA2401F508EB3400F509E4F5E2
:102ED4000AF50B780C7908121A85750871750902C0
:102EE400780C7908121A85AA0CAB0DAC0EAD0F1232
:102EF400299C7402121D8D8B09EA450960047A012C
:102F040080027A00EC2AFCED3400FD7413121DC219
:102F1400E0F8A3E0F9E8FEE9FFECF8EDF97A717B5B
:102F240002121CEC880889098E828F837808121C8F
:102F340056ECF8EDF97A717B02121CEC8A088B09C5
:102F440074057808121D648E828F83A3A3A3A3E55E
:102F540008F0A3E509F07F08021EE6C082C083E9F9
:102F6400906000F0D083D08222C2AF02000022C061
:102F7400E074EB121F2674F9121D77538AFE9084B5
:102F8400697808121C479009637808121BD39009CA
:102F9400637808121C4790845D780C121C477808EB
:102FA400790C121B05E50C450D450E450F70269056
:102FB40083FEC082851882851983AC82AD837583B4
:102FC40083D0827407121C8A851882851983AA8289
:102FD400AB83121261C2EB7407121D8D7F08021FAE
:102FE40085C0E074F2121F26A2AFE433FED2AFC252
:102FF400C0E5D1A2E4500653D1EF1213B1751A0003
:10300400EEA2E092AF7F01021F85C0E074F2121FAE
:1030140026A2AFE433FED2AFE589A2E15003121237
:10302400BB758900C2C5751A00EEA2E092AF7F019C
:10303400021F85C0E074F2121F26A2AFE433FED251
:10304400AFE58BA2E050031212BB758B00C2E8807F
:10305400D5C0E0C0D0E8C0E0E9C0E0E5A8D2AFC286
:10306400C7751A00A2E7A2E792AFD0E0F9D0E0F862
:10307400D0D0D0E032C0E074F2121F26A2AFE43305
:10308400FED2AF758900C2C5900A937401F0751A17
:1030940000FA900A60E0F912106F900C17E0F8A3A0
:1030A400E0687002D285EEA2E092AF7F01021F8534
:1030B400C0E0C0D0E8C0E0E9C0E0C008C009C082F8
:1030C400C083A2AFE433F9D2AF900C17E0F8A3E0C9
:1030D400687008539AFBA374018026C2E9900C1708
:1030E400E0F50874012508F074972508F582740B3F
:1030F4003400F583E0F5C1900C17E0C394804002DE
:10310400E4F0E9A2E092AFD083D082D009D008D015
:0A311400E0F9D0E0F8D0D0D0E032AE
:10312000FFFFFFFFFFFFFFFFC082C083E9900E108B
:10313000F00233B774F7121DCEE99002E1F07C196A
:103140007D037AFF7BFF12086B9002E274FFF0A30D
:10315000F0A3E4F0A3F079051207F39002E1E0F99F
:103160001207157A897B08120A2D7F01021EA074AE
:10317000F4121DCE8A088B09EB548060309002E176
:10318000E0F91210038A0A8B0BAE0AAF0BEE4F6008
:10319000138E828F83E064B0700312080BEEFAEF97
:1031A000FB120FF1AA08E5096480FB80047A007B1A
:1031B0000002338674F2121DCE74FC121D77EAFEF3
:1031C000EBFFEE4F60387402121DC2EEF0A3EF1257
:1031D00035EBECF0A3ED1235EBAA82AB8312070FAF
:1031E000E9F50870737412121DC212419FE50A4579
:1031F0000B60658E828F83123262EE4F7005750808
:103200000280557A067B001210578A0C8B0DA80C91
:10321000A90DE8497005750813803D88828983E40B
:1032200012326CA3A3EEF0A3EF124638E50AF0A326
:10323000E50BF09002E71232F49002E76017E0FC31
:10324000A3E08003EAFCEBFD8C828D831232F470E4
:10325000F38C828D831240C4A9087404121D8D0260
:10326000483AA3A3A3A3E0FEA3E0FF22F0A3F088C3
:103270008289832274F2121DCE890AE975F017A49F
:10328000FEAFF09002E6E4F09002E41232F4600A3D
:1032900012105D9002E4E4F0A3F0EEFAEFFB1210DE
:1032A000578A088B09EA4509602FEEFCEFFD79008B
:1032B000120FD99002E4E508F0A3E509F07B008045
:1032C000081232DEE4F0A3F00BEBC3950A40F2E5FE
:1032D0000A9002E6F079008002791302483AEB7511
:1032E000F017A4F8A9F09002E4E028FAA3E0398AE4
:1032F00082F58322123E5AEA4B2274F4121DCE75D7
:103300000800750900740C121DC212460CFEE9FF7C
:10331000800CE5082401F508E5093400F509C3E54A
:10332000089CE5099D503285080A85090B740378CD
:103330000A121D64EA250AF8EB350BF988828983A5
:10334000A3A3A3A3A3A312419FEE650A7003EF6595
:103350000B70BFE8FAE9FB80047A007B00802774D9
:10336000F4121DCE7900EAA2E0501B7508247509FD
:10337000847808121FE17C047D007A127B0E12070C
:10338000ED7402121D8D7F04021EA0C082C08390C6
:1033900002E71233BE601C88828983A3A3E06A70AF
:1033A00003A3E06B8882898370E8A3A3A3A3123EE2
:1033B0005680047A007B00D083D082020135124906
:1033C0000DE8492274EE121DCE74FC121D77EAFE40
:1033D000EBFF851882851983E4F0A3F0EE24021236
:1033E00040A8EE24051235D9EE2404F50EEF12396B
:1033F000BEE024FE603924FC604624FE605224FEB8
:10340000605E24FE70030234DE24FE700302355633
:1034100024FE700302356524FE700302357424FC1B
:10342000700302358324FE70030235920235CF907B
:1034300003007417F0A3E41235F312048D0235CFA4
:10344000851882851983AC82AD8312081102359FDD
:10345000851882851983AC82AD8312081702359FC7
:10346000850C08850D097402121DC2AC82AD8385DE
:103470000882850983123E561207338A0C8B0DACE5
:103480000CAD0DEC4D6042E4F50CF50D780C121FFF
:10349000E1750C00750D03780C121FE1750C0175B8
:1034A0000D03780C121FE17408121DC2121FF87967
:1034B00016123E501208537408121D8DE9F50C7057
:1034C0000B123E4C1204A5800F750C0185088285F5
:1034D00009831235E11240C4850C080235A274023A
:1034E000121DC2AC82AD83850C82850D83123E56BF
:1034F0001207338A108B11AC10AD11EC4D6043856F
:103500000C82850D83A3A3121FF87510007511039B
:103510007810121FE17510017511037810121FE168
:103520007408121DC2121FF87916123E5012085369
:103530007408121D8DE9F509700B123E4C1204AB94
:10354000800F750901850C82850D831235E11240CB
:10355000C4850908804C851882851983AC82AD83A7
:1035600012081D803A851882851983AC82AD8312BA
:103570000823802B851882851983AC82AD831208BD
:1035800029801C851882851983AC82AD8312082F8F
:10359000800D851882851983AC82AD83120835E9C8
:1035A000F508E50860298E828F83A3E06414601F0C
:1035B000850E82850F83E09003001235EB124909D6
:1035C0009003011240C4E508A31235F3120487EEFC
:1035D000FAEFFB1207B1023FB0F50CEF3400F50D26
:1035E0002212490D85188285198322F0851882855B
:1035F000198322F07C007D03850A82850B83123EAD
:103600005A2274EE121DCE74FC121D778A0A8B0B9F
:103610008C0E8D0FEA2405F508EB3400F5097C15B6
:103620007D0079007A007B03120FD9E5082402F5AA
:103630000CE5091235DC8518828519838582108591
:1036400083117810121FE1850882850983A3A3A343
:10365000A3123B06121FE1E5082405F510E5093425
:1036600000F5117810121FE1850C82850D83123E42
:103670006012072D7406121D8D8A108B11AE10AFCB
:1036800011E50A2402F50AE50B1240ABEE4F700378
:103690000237C880177402121DC2123E56888289F2
:1036A00083EAF0A3EBF0900300E004F0900300E065
:1036B000C3940540030237C8E4F510F511781012E1
:1036C0001FE17510E97511027810121FE17510EAFB
:1036D0007511027810121FE17406121DC2121FF834
:1036E0007910EEFCEFFD123E501208537408121DC3
:1036F0008DE9705E850882850983A3A3A3A3A3A394
:10370000A3E0F89002E9E0687048123B06121FE15E
:103710007CEA7D02E5082408FAE5093400FB120F73
:10372000D37402121D8DE960298E828F83A3A3A317
:10373000A3123E56900300E0F51074027810121D9B
:103740006474012510F58274033511F583EAF0A342
:10375000EBF07402121DC28582108583117810125D
:103760001FE17402121DC2121FF8850C82850D83A1
:1037700012491E1207397404121D8D8A108B11AE66
:1037800010AF11900300E0F510751100740278106D
:10379000121D6474002510F874033511F9888289AC
:1037A00083A31232F4700302368CE82403F8E93460
:1037B00000F9EE4F60030236958882898374FFF02A
:1037C000A3F0900300E004F0900300E0600A123ED2
:1037D0004C1204997900800B850882850983124078
:1037E000BB790A023FB074EA121DCE74FE121D7737
:1037F0008C128D13EA2405F50CEB124A88123266FE
:10380000750800750900EA2402F510EB3400F51183
:1038100085188285198385820A85830B780A121F91
:10382000E1850C82850D83A3A3A3A31239C8121FBF
:10383000E1E50C2405F50AE50D1240AB780A121FEC
:10384000E1850C82850D8312491C12072D74061226
:103850001D8D8A0A8B0BEA450B7003023979EA2425
:1038600004F50EEB1239BE1232668A828B83A3A353
:10387000A3E0F9851082851183123E5612071BE9D9
:10388000F5096003023979E4F514F5157814121F6F
:10389000E17514E97515027814121FE17514EA75C3
:1038A00015027814121FE17406121DC2121FF87956
:1038B00013AC0AAD0B851082851183123E56120897
:1038C000537408121D8DE9F50960030239799002DD
:1038D000E9E0F8E5087009E02402900301F08017A0
:1038E000900301E0FCE82402FAE43400FBEA6C7087
:1038F00001EB600302397D850882AA82123AFD94A9
:1039000014123AF55073850E82850F83E0C0E0747F
:10391000022A1239B5D0E0F00508850E82850F83A2
:10392000A3E0C0E085080A7402250A1239B5D0E088
:10393000F005089002E91239C8121FE17CEA7D0205
:1039400085080A7402250AFA74033400FB120FC1B9
:103950007402121D8D9002E9E02508F50874FF6ECF
:10396000700374FF6F6012EE24010EEF3400FFE568
:1039700008C394145003023810E5086013123D4147
:10398000851082851183123E5612049F790080149F
:10399000E509700375090A851282851383EEF0A389
:1039A000EFF0A9097402121D8D7F0E021EA085087A
:1039B0000C7402250CF58274033400F58322340064
:1039C000F50F850E82F5832212464B2274EE121DEE
:1039D000CE74FE121D778C0E8D0FEA2405F50CEBCC
:1039E0001235DC750B00900300E4F0F50AEA2402BE
:1039F000F508EB3400F5098049900300E0FA9002E5
:103A0000E9E0F8123AFD9417123AF5400D900300E0
:103A1000E0F87416C3989002E9F0123B06121FE119
:103A20007CEA7D0274012AFA74033400FB120FC190
:103A30007402121D8D9002E9E0F8900300E028F076
:103A4000050AE50C2416F582E50D1239B9E0F8E512
:103A50000AC3984003023ADE900300E0C394165074
:103A60007DE50AC333F8E433F9E50C28FEE50D39AA
:103A7000FF851882851983AC82AD838E828F831275
:103A80003E561207338A108B11AC10AD11EC4D70FD
:103A900005750B018043E4F510F5117810121FE154
:103AA0007510E97511027810121FE17510EA751191
:103AB000027810121FE17406121DC2121FF8791647
:103AC000850882850983123E561208537408121D18
:103AD0008DE9F50B70030239F91240B780107C00B4
:103AE0007D03850882850983123E561204B1A90B15
:103AF0007402023FB2E99400C365D03322EA28F889
:103B0000E43400F9E822E0F5107511007810227411
:103B1000EA121DCE74FC121D778A0C8B0D8C128D4F
:103B200013EA2405F50AEB1240AB7508007509008D
:103B3000E50A2402F510E50B3400F5117402121D9C
:103B4000C285820E85830F780E121FE1850A828559
:103B50000B83A3A3A3A31245F7121FE1E50A2405D3
:103B6000F50EE50B3400F50F780E121FE18510827B
:103B70008511831240B1123E5012072D7406121D9A
:103B80008D8A0E8B0FAE0EAF0FE50C2402F50EE5FD
:103B90000D3400F50F80408882898374FFF005089A
:103BA0001239AE74FFF005089002E9E0F50C750DCE
:103BB00000780C121FE17CEA7D0285080C74022556
:103BC0000CFA74033400FB120FC17402121D8D90A5
:103BD00002E9E02508F508EE4F60718E828F83A31D
:103BE000A3A3E0F9850E82850F83123E5612071BB0
:103BF000E9F509EE24041235D9E97044E4F514F529
:103C0000157814121FE17514E97515027814121F46
:103C1000E17514EA7515027814121FE17408121D7B
:103C2000C2121FF87911EEFCEFFD850E82850F831D
:103C3000123E561208537408121D8DE9F5096027CB
:103C4000850C82850D83123D371240C4E508700350
:103C5000023D1D123D41850E82850F83123E561294
:103C600004B77900023D32850882AA82EA9002E90F
:103C70007009E02404900301F08022E0F890030131
:103C8000E0F514E82404FCE43400FDEC6514700154
:103C9000ED70C0123AFD9412123AF550B6850C82BE
:103CA000850D83E0C0E074022A1239B5D0E0F0053A
:103CB00008850C82850D83A3E0C0E01239AED0E008
:103CC000123D5385820C85830D780C121FE174041C
:103CD000121DC2121FF885108285118312491E120F
:103CE00007397404121D8D8A0C8B0DAE0CAF0D8537
:103CF000080C7402250CF874033400F9EE4F7003BD
:103D0000023B97851882851983E088828983123D5A
:103D100053A3E0C0E01239AED0E0023BA5E5097044
:103D20000375090A850A82850B83123D371240C448
:103D3000A90974040239A612490D851282851383DC
:103D400022900301E0F5F0E50884900300F07C0088
:103D50007D0322F005088518828519832274EC12F0
:103D60001DCE74FE121D778A088B098C0E8D0FEA0A
:103D70002405FEEB3400FF851882851983AC82ADE3
:103D8000838E828F83123E561207338A0A8B0BEE84
:103D900024181235D9EA450B7003023E27123F99C9
:103DA0005032851882851983123E561208478A10B0
:103DB0008B11EA4511606B7912AC0AAD0B85088254
:103DC000850983123E56851082851183121DCCE928
:103DD000F50A7058E4F50AF50B780A121FE18E8295
:103DE0008F83A3A3E0F50A780A121FE1EE240312E1
:103DF00040A8780A121FE18E828F83123E6012085B
:103E0000597406121D8DE9F50A7021850C82850D05
:103E100083E0701F850882850983123E561204BD17
:103E20008011750A0E8009750A018004E50A600395
:103E30001240B7850C82850D83E060047900800212
:103E4000A90A7402121D8D7F0C021EA07C007D0346
:103E5000850A82850B83123E5A22E0FAA3E0FB22F8
:103E6000E0FCA3E0FD850882850983123E5A227496
:103E7000EE121DCE74FE121D778A088B098C0C8DF4
:103E80000DEA2405FEEB3400FF750E0085188285CF
:103E90001983AC82AD838E828F83123E5612073314
:103EA0008A0A8B0BEA450B7003023F85123F99503B
:103EB00035851882851983123E561208478A0E8B63
:103EC0000FEA450F605E7912AC0AAD0B850882855A
:103ED0000983123E56850E82850F83121DCCE9F5AB
:103EE0000E6003023F8885088285098312419FAADC
:103EF0000AFB12083B8A108B11A810A911E849701F
:103F00001E7AFF7BFF12083B8A108B11A810A911A3
:103F1000E849606C88828983E50AF0A3E50BF075B7
:103F20000A008007750E0E805F050A9002E6E0FA2F
:103F3000E50AC39A504AE50A75F017A4FAABF0886F
:103F4000828983A3A3E02AFAA3E03BFB8A828B83C6
:103F50001240B1EC4D70D2750A17750B00780A1239
:103F60001FE1EEFCEFFD120FC17402121D8DEEFC7D
:103F7000EFFD850882850983123E561204C3801422
:103F8000750E098003750E01124905850C82850D99
:103F9000831240C4A90E023AF0E5082402F508E5B0
:103FA000093400F5098A828B83A3A3A3E0A2E5224A
:103FB0007404121D8D7F0A021EA074EC121DCE8C9B
:103FC000108D11EA2405F50CEB1235DC750F00EAB3
:103FD0002402F50AEB1240AB850A82F583123E56A5
:103FE00012083B8A088B09EA4509700302409D7557
:103FF0000E008071850C82850D83E06401704F8E08
:10400000828F83A3A3121FF88E828F83A3A3A3A3FF
:10401000E0F5127513007812121FE1EE2405F51277
:10402000EF3400F5137812121FE1123E50120859B6
:104030007406121D8DE9F50F6014850C82850D83C1
:10404000E4F01249058510828511831240C47C1763
:104050007D007900EEFAEFFB120FD98E828F83E498
:10406000F0A3F0050E9002E6E0F8E50EC398501EAE
:10407000E50E75F017A4F8A9F0850882850983A3D9
:10408000A3124A921240B1EC4D6003023FF485083E
:104090008285098374FFF0A3F0E50F7006123E508D
:1040A0001204C9A90F023E47F50AEF3400F50B22AE
:1040B000A3E0FCA3E0FD228E828F8312490D850EC2
:1040C00082850F83E8F0A3E9F022C082C0839002CA
:1040D000E2E06A7003A3E06B70067AE27B02800480
:1040E0007A007B000233B7C082C08378008C828D57
:1040F00083E06A7003A3E06B7010E875F003A4F826
:10410000A9F0EC28FAED39FB8015088C828D83A389
:10411000A3A3E06A7003A3E06B60DF7A007B000278
:1041200033B774F6121DCE1208058A828B83E5829E
:10413000458370067A007B008007A3A3A3A3123EE9
:10414000560247B674F2121DCEE9FE740E121DC25D
:1041500012419F7410121DC21246178C828D83E08B
:1041600064027036A3124913F50CA3E0F9A80C748D
:10417000026870037429697021750C02750D00784E
:104180000C121FE17808121FE1780A121FE1EEF904
:1041900012087D7406121D8D8002790102483AE0F2
:1041A000F50AA3E0F50B2274E8121DCE74FB121D74
:1041B00077E9851882851983F08A168B17ECFEED56
:1041C000FF751000741D121DC2124909741D121DC5
:1041D000C21240C48E828F83A3A3A3E0A2E4502D19
:1041E000741D121DC2123E561208478A828B83E547
:1041F00082458370030245E8790AEEFCEFFDAA16BA
:10420000AB17121DCCE9F51060030245EB741F12C9
:104210001DC21246177421121DC212419F7423122F
:104220001DC2E0F50EA3E0F50F8E828F83E06402DD
:104230006003024596A3124909850882850983A374
:10424000858212858313EE24061235D988828983EC
:10425000E0FAA3E0F9EA2400F514E439F51578143E
:1042600012206B0100002801288B42070002285011
:10427000430328BD42002987440129B2440229533F
:104280004403298744042931459645E50E450F60CE
:1042900003024591850C82850D8312460CFAE9FBD9
:1042A0008A828B83E0850A82850B83124642121F25
:1042B000E18A828B83A3E0FCA3E002451BE50E4567
:1042C0000F6003024591850A82850B837401F01209
:1042D000461F850882850983F07C007D008E828FD1
:1042E00083A3A3A3A3E02401FAA3E03400FB1207F5
:1042F00033EA4B60418A828B83E02402F8850A828C
:10430000850B83E028F0EA2404F8EB3400F9888276
:104310008983E08512828513831246541246421225
:104320001FE18A828B831240B0E5082403FAE50975
:104330003400FB024520850A82850B83E02404F0CB
:104340007C047D007900AA12AB13120FD90245EB51
:10435000E50E450F600302459112461FFEA3E0FFE4
:10436000850A82850B837404F0EE850882850983B3
:10437000F0EF851282851383F07403121DC2AC82A4
:10438000AD83EEFAEFFB1207338A0C8B0DEA450D75
:1043900070030244348A828B83A3A31232627401B5
:1043A000121DC285820E85830F780E121FE17405DF
:1043B000121DC2121FF87CFF7DFF12073974041210
:1043C0001D8D8B0FEA450F7033850C82850D83128E
:1043D00045F7121FE1850C82850D83A3121FF87C1F
:1043E000027D007AB27B841205657404121D8DE98A
:1043F000700A7401121DC274FFF0A3F08E828F83C5
:10440000E064027039750C02750D00780C121FE122
:104410008E828F831240B0E5082404FAE509340047
:10442000FB120FC17402121D8D850A82850B83E079
:10443000240280097401121DC2EEF0A3EFF0740192
:10444000121DC2124608F07401121DC2A3124600CA
:1044500002458BE50E450F6003024591850C828570
:104460000D831240B1AA16AB17120871850A828516
:104470000B837402F0EA850882850983F085128235
:10448000851383EB02458EE50E450F6003024591CF
:1044900012461FF8A3E0F9850A82850B837402F0A7
:1044A000E8850882850983F0E985128285138302F5
:1044B000458E850C82850D83123E56120FBBEAFC99
:1044C0008C82A882C3950EE4950F405FE8650E705C
:1044D00002E50F70047C008022851882851983E034
:1044E000FAE50E2AFAE50F3400FBC3EA98EB9400D4
:1044F0005003E08005E50ECCC39CFCEC850A828568
:104500000B83F08C0A750B00780A121FE1850C8270
:10451000850D83E0250EFCA3E0350FFDAA08AB094D
:10452000120FC17402121D8D0245EB751007024572
:10453000EBE50E450F705A850C82850D83124909F3
:10454000850A82850B83740712326E12460012327E
:104550006EA3E0851282851383F0E82402FAE93421
:1045600000FB8A828B8312460012462F124608A354
:10457000124638124611F0E82405F8E93400F988AB
:10458000828983124611A3124654A3A3A3A3F080E9
:104590005A75100B8055741D121DC2123E5612081A
:1045A000058A828B83E5824583603D124909880C28
:1045B000890DE8450D6031780E121FE1780A121F4F
:1045C000E17808121FE17406121DC2E0F9EEFCEF5B
:1045D000FDAA16AB17850C82850D83121DCC7406BF
:1045E000121D8DE9F510800375100EA910740512C7
:1045F0001D8D7F10021EA0E0F50E750F00780E22B3
:10460000E08508828509832212465E2212490DE860
:104610002212465EA3A322E0F508A3E0F509228555
:104620000C82850D83E0F8A3E0F5838882E022A365
:10463000A3F08A828B83A322F088828983A3A3A319
:10464000A322F08A828B8312464B22E0F50A750B77
:1046500000780A22F088828983A312465E22E085D0
:104660000882850983A3A32274EE121DCE74FE1264
:104670001D778A0A8B0BECFAEDFB7414121DC2E055
:10468000F510A3E0F5117416121DC2E0FE741812A5
:104690001DC2E0F50EA3E0F50F851882851983ACE5
:1046A00082AD831207338A0C8B0DEA450D60498574
:1046B0001882851983123E561208058A828B83E57B
:1046C000824583602FA3A3124617E508450960249D
:1046D000780E121FE17810121FE1EEF9AC0CAD0D4F
:1046E000AA0AAB0B850882850983121DCC740412BB
:1046F0001D8D8006790E80027901023AF074F6125F
:104700001DCE74FE121D77740C121DC212460C854C
:104710001882851983F07401121DC2E9F0E4F508CE
:10472000F5097808121FE17508027808121FE17474
:1047300004121DC28582088583097808121FE112C0
:1047400008597406121D8D7402121D8D806874F74D
:10475000121DCEEAFEEBFF89087C197D0312087159
:10476000EA5402600BA908EEFAEFFB120727800259
:10477000790102316A74F6121DCE74FF6A700374F7
:10478000FF6B70168C828D831247BBE4F08C828D98
:1047900083A3A3A31247BBA380181208418A088BE6
:1047A00009A808A909E849600D8882898374FF1265
:1047B000326CA3A3E4F07F02021EA074FFF0A3F00A
:1047C0008C828D83A3A32274F6121DCE1208418A17
:1047D000828B83E58245836006A3A3E0FA80027A98
:1047E000007B0080D174F2121DCE8A088B09ECFE8A
:1047F000EDFF740E121DC2E0F50A1208418A0C8BFF
:104800000DA80CA90DE8497026EEFCEFFD7AFF7BA0
:10481000FF1208418A0C8B0DA80CA90DE849700401
:104820007911801688828983E508F0A3E509F0886C
:10483000828983A3A3E50AF079007F06021EA07493
:10484000EE121DCEEAFEEBFF8C088D09890C741464
:10485000121DC21249097416121DC2123E56750D60
:1048600000E84960030248FD7402650C60030248D9
:10487000F87412121DC2124913FCA3E0F9EC2400D3
:10488000F50EE439F50FEAF4F8EBF4F9EC58F8E535
:104890000F59F9E849705CE5082406F8ED3400F991
:1048A000880A890B8882F58312491E1208718A10C2
:1048B0008B11E50E65107004E50F65116042780EEE
:1048C000121FE1850A82850B8312491E1208777434
:1048D00002121D8DE9F50D7027780E121FE1850873
:1048E00082850983A3A312491C12088F7402121D2A
:1048F0008D800D750D808008750D0D8003750D0B75
:10490000A90D023FB58E828F8312490D22E0F8A3D4
:10491000E0F92212490D88828983E022A3A3E0FCFA
:10492000A3E0FDEEFAEFFB2274E8121DCE74E7124D
:104930001D77851882851983EAF0A3EBF08C168D1C
:1049400017890E7508007509007431121DC2E0F553
:1049500012A3E0F5137433121DC2E0F514A3E0F5C1
:10496000157435121DC2E0F50FE50975F003A4F8C2
:10497000A9F0851882851983124A92E0F47003A386
:10498000E0F47003024A75EE2402F50CEF124A8837
:10499000E07003024A7585160A85170B780A121F04
:1049A000E1AC14AD15AA12AB131207F97402121D73
:1049B0008D8A0A8B0BEA450B7003024A75E4F510E9
:1049C000F5117810121FE17406121DC28582108540
:1049D00083117810121FE17409121DC2858210859F
:1049E00083117810121FE1851282851383A3A3A37C
:1049F000A3121FF87914AC0AAD0B8E828F83123E7E
:104A0000561208537408121D8DE97069850A828553
:104A10000B83A3A3A3A31249097402121DC212405F
:104A2000C4850C82850D83E0A2E05018A90E7402A3
:104A3000121DC2AC82AD838E828F83123E56120746
:104A40004BE94208850C82850D83E0A2E15026E502
:104A50000FF50A780A121FE5A90E7403121DC2ACE5
:104A600082AD838E828F83123E56120745740112E7
:104A70001D8DE942080509E509C394025003024966
:104A800069A90874190245EF3400F50D850C82F50B
:104A90008322E028FEA3E039FF8E828F832274F206
:104AA000121DCEEAFEEBFF890B7401650B600E74DC
:104AB00002650B706A7901120A4BE97062EEFAEF37
:104AC000FB12083B8A088B09EA45096047750A0012
:104AD000800B7C177D007900120FD9050A9002E641
:104AE000E0F8E50AC3985021E50A75F017A4F8A983
:104AF000F0850882850983A3A3E028FAA3E039FBA7
:104B00008A828B831233BE70C985088285098374BB
:104B1000FFF0A3F07C197D03EEFAEFFB12086B02A5
:104B2000483A74F2121DCE8A088B09ECFEEDFF7430
:104B30000E121DC212419F900E10E0F4603D7A09E2
:104B40007B00120FEBEA4B60328A828B8374B1F0E8
:104B5000A3E4124631A312462FA3E508F0A3E5090A
:104B6000124B7EEEF0A3EF124B7EA3A3E50AF0A357
:104B7000E50BF0900E10E0F9120FF702483AF08AB8
:104B8000828B83A3A3A3A3A322C082C0839061903E
:104B90007404F0A37448F0A37402F0906180744030
:104BA000F09061BC7403F09061877419F0906265B5
:104BB000741BF0906249E0C3941390619C400A74A6
:104BC00009F090606674018007740DF0906066E4EF
:104BD000F090619A7433F0A37455F09061A0743A28
:104BE000F090053FE064017009C2919003A67467DC
:104BF00080059003A67461F0903126E4939061865D
:104C0000F0903120E493F46027E493540FF890611E
:104C100085E0686012E5C654804449F5C6E59E54B7
:104C20007F644970F8E8F053C680E59E547F70FABF
:104C30007905120DA5024DE4C082C083E9540FF935
:104C4000906185E0696012E5C654804449F5C6E587
:104C50009E547F644970F8E9F053C680E59E547F06
:104C600070FA024DE4C082C083E5A8F853A87E9094
:104C70006181E4F0A3F0A3F0C2BA539AFEC2897531
:104C80009B00C2C275E90075910075BF0075A9113E
:104C900075B905906181F0A374C0F0A3E4F0D2BAB5
:104CA000439A0174805842A8024DE4C082C08374C4
:104CB000F8121D779003A4E0F8A3E0F9E849700327
:104CC000024DD99003A4E0544060237908851882EE
:104CD000851983AA82AB83120C07851882851983F4
:104CE000AA82AB831208FB9003A4E054BFF0E05407
:104CF000806010790C7A657B05120C079003A4E0A4
:104D0000547FF0E0A2E0503190619A7433F0A374C4
:104D100055F09061A0743AF090053FE0640170098D
:104D2000C2919003A6746780059003A67461F01287
:104D300009019003A4E054FEF0E054026031906158
:104D40009A743FF0A3745AF09061A0747FF09005BC
:104D50003FE064017009D2919003A67471800590C0
:104D600003A6746AF01209019003A4E054FDF0E078
:104D700054046013903124E493906186F012090783
:104D80009003A4E054FBF0E054086013903125E454
:104D900093906186F01209079003A4E054F7F0E0C5
:104DA00054106013903126E493906186F012090745
:104DB0009003A4E054EFF0E05420600A1209079039
:104DC00003A4E054DFF0A3E05401600D120B2F1296
:104DD000090D9003A5E054FEF07408121D8D024DDC
:104DE000E4F0A3F0D083D08202013574EC121DCE22
:104DF00074F4121D77851882851983AC82AD837592
:104E000083847582517404121C8A90312493F46057
:104E100003024F77907808E0C394025003024F5783
:104E20007404121DC2AC82AD837583837582ED74E8
:104E300008121C8A8518828519838582128583133E
:104E40007404121DC2AC82AD83750EFF750FFF7F17
:104E5000FF7E00750C48750D78801574086E700320
:104E6000024EEB74096E7003024EEB740A6E607BA7
:104E7000850C82850D837808121C478C828D83A94E
:104E800009E50AC9F8881074187808121B75E5102E
:104E90004508F8C3E098A3E099850C82850D8378D6
:104EA00008121C4740188C828D8374187808121BD6
:104EB00075E5104508F8E0C398F8A3E0801C741865
:104EC0007808121B75E5104508FAE9FB8C828D8382
:104ED000E0F8A3E0F9EAC398F8EB99F9C3E8950E76
:104EE000E9950F5006880E890FEEFF0EE50C24049D
:104EF000F50CE50D3400F50DEEC394135003024E8E
:104F00005B74FF650E700474FF650F60238F087477
:104F1000027808121D6474482508F58274783509F2
:104F2000F5837808121C47851282851383E508F003
:104F3000EC2402FCED3400FD851282851383A385E9
:104F40008212858313740C121DC2E5826C7003E516
:104F5000836D6003024E49750801750900780812D7
:104F60001FE17402121DC2AC82AD837A497B0C1220
:104F700012797402121D8D740C121D8D7F0C021E8D
:104F8000A0C082C0839061AE7468F0A3746AF09090
:104F9000624574FBF0A304F053F4FD43FE02900558
:104FA0003F7401F09061A0E0643A90619A702374BC
:104FB00033F0A37455F09061A0743AF07401640169
:104FC0007009C2919003A6746780289003A674614B
:104FD0008021743FF0A3745AF09061A0747FF07444
:104FE0000164017009D2919003A674718005900349
:104FF000A6746A024DE37F08021EA0C082C083909F
:1050000004F1E06401700A9004F6E06004790C8019
:10501000027900024DE4C082C08375E1F19004F48E
:10502000E0605B14600914605F14605714705E12D6
:105030000B419004EAE0F97AEB7B04120D277AD653
:105040007BBE7C897D8E120D5D7A557B557C557DAE
:1050500000120D339004F5E0F9120D3F7901120DA5
:10506000999004E8E0F8A3E0C82416F582E834003B
:10507000F5837459F0A3740BF07900024DE4120B20
:105080004780AF120B4D80AA120B5380A579128076
:10509000EA74F0121DCE75D90D9004D5E0A2E0E4BB
:1050A000331313F89004EAE0C4333354C048440186
:1050B000F5D978E8790488828983A3A3A3E0F5D998
:1050C00088828983A3A882A983E864EE7003E964D7
:1050D0000470E378D5790488828983A3E0F5D988C0
:1050E000828983A3A882A983E864DB7003E964044E
:1050F00070E575E1959004D5E0F97AD67B04120D40
:105100002D900E3274EDF0A3740AF0A3744FF0A347
:10511000740CF0A3744FF0A3740CF0A3744FF0A3BD
:10512000740CF0A374F3F0A3740AF0A3744FF0A30B
:10513000740CF0A3740BF0A3740BF0900E40744F3A
:10514000F0A3740CF0A3744FF0A3740CF0A3744F8D
:10515000F0A3740CF0A3744FF0A3740CF0A3744F7D
:10516000F0A3740CF0A3744FF0A3740CF09004F44B
:10517000E064019004E87012E0F8A3E0F58388820F
:10518000A3A37508007509088010E0F8A3E0F58373
:105190008882A3A3750804750900750A00750B00C1
:1051A0007808121BC0750CFF750DFF750EFF750F8B
:1051B000007808790C121C0E9004E8E0F8A3E0C80F
:1051C000240EF582E83400F5837808121C5690040A
:1051D000E8E0F8A3E0C82414F582E83400F583740D
:1051E00013F09003A27402F0024FF674F7121DCE72
:1051F0009004FAE02407F5D99004EAE0C43333546C
:10520000C0F5D978E8790488828983A3A3A3E0F55F
:10521000D988828983A3A882A983E864EE7003E910
:10522000640470E39004FAE0601F78E87904FAE817
:105230002413F582E93400F583E0F5D98882898367
:10524000A3A882A9831AEA70E690051AE02407F55C
:10525000D99004EAE0C4333354C04404F5D978E863
:10526000790488828983A3A3A3E0F5D988828983FE
:10527000A3A882A983E864EE7003E9640470E39054
:10528000051AE0601F78E87904FAE82433F582E92A
:105290003400F583E0F5D988828983A3A882A983A5
:1052A0001AEA70E675E195900E3274F9F0A3740A6B
:1052B000F0A3744FF0A3740CF0A3744FF0A3740C1C
:1052C000F0A3744FF0A3740CF0A374F3F0A3740A6A
:1052D000F0A3744FF0A3740CF0A3740BF0A3740B41
:1052E000F0900E40744FF0A3740CF0A3744FF0A331
:1052F000740CF0A3744FF0A3740CF0A3744FF0A3DC
:10530000740CF0A3744FF0A3740CF0A3744FF0A3CB
:10531000740CF09004E8E0F8A3E0C8240EF582E8ED
:105320003400F58374FFF0A3F0A3F0A3F09004E839
:10533000E0F8A3E0C82414F582E83400F583741281
:10534000F09003A27401F0FF021EA074F7121DCEAC
:105350009004FAE02407F5D99004EAE0C43333540A
:10536000C04402F5D978E8790488828983A3A3A38D
:10537000E0F5D988828983A3A882A983E864EE70C6
:1053800003E9640470E39004FAE0601F78E87904AC
:10539000FAE82413F582E93400F583E0F5D9888230
:1053A0008983A3A882A9831AEA70E675E195900E15
:1053B000327405F0A3740BF0A37405F0A3740BF022
:1053C000A37405F0A3740BF0A37405F0A3740BF0A1
:1053D000A37405F0A3740BF0A37405F0A3740BF091
:1053E000A3740BF0A3740BF0900E40744FF0A374F1
:1053F0000CF0A3744FF0A3740CF0A3744FF0A374DB
:105400000CF0A3744FF0A3740CF0A3744FF0A374CA
:105410000CF0A3744FF0A3740CF09004E8E0F8A330
:10542000E0C8240EF582E83400F58374FFF0A3F0A1
:10543000A3F0A3F09004E8E0F8A3E0C82414F582F8
:10544000E83400F5837414F09003A27404F002575A
:105450001274F7121DCE9004FAE02407F5D99004D7
:10546000EAE0C4333354C04406F5D978E8790488B7
:10547000828983A3A3A3E0F5D988828983A3A88224
:10548000A983E864EE7003E9640470E39004FAE031
:10549000601F78E87904FAE82413F582E93400F50E
:1054A00083E0F5D988828983A3A882A9831AEA7048
:1054B000E690051AE02407F5D99004EAE0C43333F6
:1054C00054C04404F5D978E8790488828983A3A379
:1054D000A3E0F5D988828983A3A882A983E864EE32
:1054E0007003E9640470E390051AE0601F78E879BE
:1054F00004FAE82433F582E93400F583E0F5D9882D
:10550000828983A3A882A9831AEA70E675E195903F
:105510000E3274FFF0A3740AF0A3744FF0A3740C5E
:10552000F0A3744FF0A3740CF0A3744FF0A3740CA9
:10553000F0A3744FF0A3740CF0A3744FF0A3740C99
:10554000F0A3740BF0A3740BF0900E40744FF0A313
:10555000740CF0A3744FF0A3740CF0A3744FF0A379
:10556000740CF0A3744FF0A3740CF0A3744FF0A369
:10557000740CF0A3744FF0A3740CF09004E8E0F8FE
:10558000A3E0C8240EF582E83400F58374FFF0A38D
:10559000F0A3F0A3F09004E8E0F8A3E0C82414F529
:1055A00082E83400F5837415F09003A27403F002CE
:1055B0005712C082C0839004E8E0F8A3E0C8240634
:1055C000F582E83400F583E4024DE174F7121DCE54
:1055D0009003D0E0F875F003A4C8AAF02AF974D2B9
:1055E00028F8740339F9E82405FAE93400FB8A82C3
:1055F0008B83E0FCA3E0FD88828983A3A3A3A3A3FC
:10560000A3A3A3A3ECF0A3EDF088828983A3A3A3B3
:10561000A3A3A3A3E024FFF8A3E034FFF98A828BBD
:1056200083E8F0A3E9F002571274F7121DCEEAFEE8
:10563000EBFF9061D0E0600302570675D90E75D973
:105640000375D904EE248BF582EF3400F583E582EF
:105650002408F8E5833400F9E0F5D9A3E865827001
:1056600003E9658370F2EE2483F582EF3400F5835D
:10567000E5822404F8E5833400F9E0F5D9A3E86570
:10568000827003E9658370F275E1957908EE248BE9
:10569000FAEF3400FB120BFB7904EE2483FAEF34AB
:1056A00000FB120BFB7C00EEF8EFF9ECFAC3E49A76
:1056B000FA95E0FBEE2AFAEF3BFBEA248AF582EB4F
:1056C0003400F583E0C0E0E824AAF582E93400F56F
:1056D00083D0E0F00C88828983A3A882A983ECC3DD
:1056E000940840C7EE246FF582EF3400F583E0F8AC
:1056F000A3E0F9EE2471F582EF3400F583E8F0A31E
:10570000E9F07901800279008008F0EEA2E092AF22
:1057100079007F01021EA0C082C08375D90275D9AD
:105720000375D90575E195EA246FF582EB3400F530
:1057300083E0F8A3E0F9EA2471F582EB3400F58305
:10574000E8F0A3E9F07901024DE474F6121DCEEA07
:10575000FEEBFF9005457406F07508457509057860
:1057600008121FE17C017903120C437402121D8D93
:1057700075D90675D903758245758305E0F5D9A3FA
:10578000E582644A7004E583640570F075E19590E4
:1057900003A2E06408701EEE246FF582EF3400F57A
:1057A00083E0F8A3E0F9EE2471F582EF3400F5838D
:1057B000E8F0A3E9F07901025A1874F6121DCEEA56
:1057C000FEEBFF9061D0E070667801900545740BA8
:1057D000F09003A2E0640770197508457509057813
:1057E00008121FE17C017903120C437402121D8D13
:1057F0007805740128F5D975D90375824575830537
:10580000E8FAE0F5D9A31AEA70F875E195EE246F8D
:10581000F582EF3400F583E0F8A3E0F9EE2471F5AA
:1058200082EF3400F583E8F0A3E9F0790180027992
:1058300000025A1874F7121DCEEAFEEBFF75D90369
:1058400075D90375D90DEE24DDF582EF3400F583AB
:10585000E0F5D975E1957904120D63EE246FF582B8
:10586000EF3400F583E0F8A3E0F9EE2471F582EF60
:105870003400F583E8F0A3E9F0790102571274F6D9
:10588000121DCEEAFEEBFF9061D0E0F87480C39861
:10589000FAEE2482F582EF3400F583E060047804A8
:1058A00080027800E8240BF8EAC3985003025943B9
:1058B0007D09900545EDF0EE24E2F8EF3400F97A29
:1058C000467B057C0888828983E08A828B83F08806
:1058D000828983A3A882A9838A828B83A3AA82ABAD
:1058E000831CEC70E0EE2482F582EF3400F583E057
:1058F000601D7508457509057808121FE17C097956
:1059000003EEFAEFFB120C437402121D8D7D0D7431
:10591000012DF5D975D9037582457583058D08E08C
:10592000F5D9A31508E50870F675E1957904120D0F
:1059300063EE241DF582EF3400F583E4F0A3F079E3
:105940000180027900025A1874F6121DCEEAFEEBAD
:10595000FF9061D0E0F87480C398FAEE2482F5825B
:10596000EF3400F583E06004780480027800E824D6
:1059700008F8EAC3985003025A1678069005457451
:105980000CF09003BFE0900546F09003C0E0900556
:1059900047F09003C1E0900548F09003C2E0900505
:1059A00049F09003C3E090054AF0EE2482F582EFBF
:1059B0003400F583E0601B75084575090578081209
:1059C0001FE17C067903EEFA120C437402121D8D5E
:1059D000780A740128F5D975D90375824575830550
:1059E0008808E0F5D9A31508E50870F675E1957902
:1059F00004120D63EE246FF582EF3400F583E0F8B6
:105A0000A3E0F9EE2471F582EF3400F583E8F0A30A
:105A1000E9F07901800279007F02021EA074F6127B
:105A20001DCEEAFEEBFF9061D0E0F87480C398FAD7
:105A3000EE2482F582EF3400F583E0600478048080
:105A4000027800E82404F8EAC3985003025AF77871
:105A500002900545E8F0EE24F4F582EF3400F5837A
:105A6000E0900546F0EE2482F582EF3400F583E005
:105A7000601B7508457509057808121FE17C0279DD
:105A800003EEFA120C437402121D8D78067401287D
:105A9000F5D975D9037582457583058808E0F5D970
:105AA000A31508E50870F675E195EE2473F582EF0D
:105AB0003400F583E4F0EE247FF582EF3400F583C3
:105AC000E4F0EE241DF582EF3400F583E4F0A3F05A
:105AD0007904120D63EE240DF582EF3400F583E0B6
:105AE000F8A3E0F9EE2471F582EF3400F583E8F0D5
:105AF000A3E9F0790180027900025A1874F6121DA8
:105B0000CE9061D0E0F87480C398FCEA2482F582DC
:105B1000EB3400F583E06004780480027800E82428
:105B200004F8ECC398405B79029005457407F0EAED
