:020000040000FA
:0600000002011D0228139D
:03002B0002302977
:0300330002300B8D
:03003B0002308808
:03004300022FB9D0
:03005300022886FA
:03006B0002304D13
:03007B00022F470A
:1000830002267FE5C754F84401F5C7790122000031
:100093000080FB120086B90003020107E47921788E
:1000A30008B800028004F709D8FCE479297802B87B
:1000B30000028004F709D8FCE490028178DA790B16
:1000C3008002F0A3D8FCD9FA781A90014D7A01BACC
:1000D30000028007E493A3F608DAF9900D5AAA8286
:1000E300AB8390014E783A79048015E493A3AC82F4
:1000F300AD838A828B83F0A3AA82AB838C828D83A8
:10010300D8E9D9E775825C7583CA740312012F7528
:100113008291758300740012012F75D000758137A9
:10012300751881751902759F00020096C09FF59F8F
:10013300E473D09F22D083D082C09FE493C0E07445
:100143000193C0E0740293F59F2201FF0000B40005
:100153000028002800283075A000A000A000A000FF
:1001630000080008E001F00010001000100010006B
:100173001000100050005000500010001000D00775
:100183000000000000000F000100050030750700AB
:100193001000010081FF00000000FF8506A3068B0D
:1001A30006FF02020208025000A0000000E803025A
:1001B300C684010000B68402C284010000B10D02AE
:1001C300BE84010000B30202C284010000B20D022A
:1001D300BC84010000C90202C284010000B30D0205
:1001E300EE84010000CB0202C284010000B40D02C0
:1001F300D884080000CC0202C284010000B50D02BD
:10020300D484010000B60DFF0100FF2002C6840163
:100213000000AD8402C2840100001A0E02CC8400E7
:100223000000000002C08403000019034F0C4F0CB0
:100233004F0C4F0C4F0C4F0C4F0C4F0C4F0C4F0CE3
:100243004F0C4F0C4F0CE30EFB0EDD0EFFFFE001D6
:10025300110199010F1264040102C684010000090F
:100263008402C284010000640E02F0840100006570
:100273000E02C0840300006F0902CA8401000066F5
:100283000E020202020202020202010D000000102D
:100293000102C684010000B08402C2840100009000
:1002A3000E02EA84010000750902C2840100009174
:1002B3000E02E884010000888302C28401000092D8
:1002C3000E02E6840100007A8302C28401000093D7
:1002D3000E02E284010000968202C28401000094AF
:1002E3000E02E084010000728202C28401000095C4
:1002F3000E02DE84010000848202C28401000096A3
:100303000E02DC84010000A88202C284010000976F
:100313000E02DA840100006C8302C284010000989B
:100323000E02D684010000990E01E803053F100A6E
:10033300FF00013075030201060000000000000009
:1003430000000000000000000000000000000000AA
:100353000000000000FFFF0600800CE80314090002
:10036300000000000000000000000000000000008A
:100373000000051250002003020A000201060302D6
:10038300F0FF7A656B657A616E670000000000001C
:1003930000000000000000006B140000000059146E
:1003A30071140A4368617261637465726973746975
:1003B300632031000A436861726163746572697313
:1003C3007469632032000843686172616374657203
:1003D30069737469632033001043686172616374E5
:1003E30065726973746963203400024368617261E2
:1003F30063746572697374696320350002C684018E
:100403000000B38402C284010000B10F02F8840328
:100413000000330D02FC84010000B20F02C284010C
:100423000000C30F02FA84030000470D02FC84019D
:100433000000C40F02C284010000D50F02F484033C
:100443000000480D02FC84010000D60F02C28401A3
:100453000000E70F02D0840000004E0D02C08403A9
:1004630000004F0D02FC84010000E80F02C284016A
:100473000000F90F02CE84040000550D02FC840134
:100483000000FA0F120138227E00120138397E0073
:100493001201386A7E00120138A57E00120138CF9E
:1004A3007E00120138F97E00120138107F0012011C
:1004B30038277F001201383E7F00120138677F0022
:1004C3001201387A7F00120138907F00120138A39D
:1004D3007F00120138CA7F00120138E9C0021201FD
:1004E30038EDC10212013825C20212013848C20296
:1004F30012013853C20212013876C2021201388542
:10050300C3021201385AC402120138D5C4021201BF
:10051300385DC50212013898C502120138CFC502F1
:100523001201385DC60212013836C702120138962D
:10053300C702120138A1C70212013820C8021201F2
:100543003823C80212013826C802120138B5C8027E
:10055300120138B8C802120138E8C8021201381271
:10056300C90212013800CA02120138B2CA021201CA
:1005730038DFF20212013807F30212013835F302B1
:100583001201386CF302120138CAF3021201381552
:10059300F40212013860F402120138A0F4021201CD
:1005A30038E6F40212013814F502120138D1F502CB
:1005B300120138DBF502120138E8F5021201381B8B
:1005C300F602120138E7F602120138F3F6021201BD
:1005D300380BF70212013815F702120138F5C5037B
:1005E30012013803C6031201381BC6031201383344
:1005F300C6031201384BCD01120138F7CD011201A8
:100603003872CE0112013893CF01120138CFCF01D6
:1006130012013878D0011201385FD101120138C3B9
:10062300D2011201381AD3011201389BD3011201EE
:10063300388BD401120138D8D4011201385ED501A8
:1006430012013890D501120138A4D701120138E6FE
:10065300D70112013804D80112013887D8011201D9
:10066300385BD90112013823DA01120138D7F801B6
:10067300120138AAF90112013853FA01120138A6FE
:10068300FA0112013856FB01120138E2FB01120193
:1006930038CEFC01120138FDFC0112013810FE01B5
:1006A30012013858FE011201382DFF011201386979
:1006B300FF0112013885FF0112013879C9031201C4
:1006C3003836FC021201384CFC0212013872FC026B
:1006D3001201388EFD0212013898FD02120138CD45
:1006E300FE02120138C5FF02120138FB7800120125
:1006F300382B7A001201385E7A00120138A87A008A
:100703001201386F7C0012013824AE011201388EB9
:10071300AE01120138EDAF01120138FDAF01120134
:10072300382AB00112013881B0011201382AB1010F
:1007330012013831B201120138FBB2011201385BE8
:10074300B4011201389EB40112013843B5011201FC
:100753003890B501120138B6B501120138C4B7019A
:10076300120138C9B701120138CEB9011201381B81
:10077300BA011201388EBA01120138C1BA0112014D
:100783003863BB011201380CBC0112013844BC01AF
:1007930012013847BC011201388FBC01120138CF56
:1007A300BC0112013826BD0112013894A4031201C1
:1007B30038ACA403120138F4A4031201380AA503C8
:1007C30012013851A50312013865A603120138F24C
:1007D300A6031201383DA703120138FC30001201B1
:1007E30038083100120138433100120138883100D2
:1007F300120138483200120138CE32001201383368
:1008030033001201385F33001201389833001201AC
:1008130038D63500120138BA3700120138A0390032
:10082300120138E33A00120138313D001201384316
:100833003E001201388E3F001201389E4000120123
:1008430038BB4000120138F640001201381841004D
:100853001201387B41001201383C4600120138D1A5
:10086300460012013822470012013849470012019D
:10087300389B4700120138B947001201381348006A
:10088300120138FC4800120138724A00120138F68E
:100893004A001201380080031201380A8003120152
:1008A300384D8003120138688003120138F8800341
:1008B3001201382081031201385D8103120138943B
:1008C3008103120138BD8103120138328203120100
:1008D300384782031201385C82031201388D820388
:1008E300120138A18203120138C6820312013800B3
:1008F30083031201382C8303120138AF83031201DF
:1009030038F883031201382284031201384D84031B
:10091300120138F5C103120138E8A8021201381692
:10092300A90212013864AA0212013844AB0212016F
:100933003863AB02120138E0AB0212013823AC0278
:1009430012013879AD021201383AAE02120138C1F0
:10095300B00212013862B10212013858B202120118
:100963003855B302120138AFB4021201383AB50256
:1009730012013857BF03120138C0BF0312013814E4
:10098300C0031201383BC0031201386CC0031201CB
:1009930038758403120138E2840312013829850370
:1009A3001201384186031201383D870312013820B2
:1009B300880312013823CB0212013865CB021201DE
:1009C3003837CC0212013810CD021201380ACE0298
:1009D300120138ECCE0212013855CF021201380B46
:1009E300D0021201387FD002120138EBD00212017B
:1009F3003814D1021201388ED10212013827D202E3
:100A03001201388CD202120138A1D202120138E746
:100A1300D20212013800D30212013865D302120147
:100A23003868D3021201389BA103120138C3A10312
:100A330012013801A203120138BFA20312013826A2
:100A4300A30312013842A3031201386AA30312015C
:100A5300389AA303120138A9A30312013826A40369
:100A63001201384CA40312013813BE01120138F1EC
:100A7300BF0112013823C2011201385FC201120102
:100A8300388CC20112013876C301120138C1C30187
:100A93001201380CC4011201381EC4011201385E60
:100AA300C40112013893C401120138E1C4011201D7
:100AB3003810C50112013833C50112013880C50150
:100AC30012013805C6011201381FC8011201385E30
:100AD300CA011201389FCA0112013841CC01120127
:100AE3003882CC01120138F5CC01120138D39B02B4
:100AF300120138D19C021201386AA3021201388B09
:100B0300A50212013856A702120138BEA80212012B
:100B1300385D4B001201380C4C00120138394C007F
:100B23001201387F4C00120138BF4D0012013855B5
:100B33004F00120138CF4F00120138EA4F00120163
:100B430038655000120138BF51001201381F53009D
:100B53001201382554001201388655001201389FBE
:100B63005500120138FD5500120138EB56001201F1
:100B7300381E57001201388E5700120138085800EA
:100B83001201385258001201381C5900120138F171
:100B93005900120138D05A001201385B5B00120170
:100BA30038C95B001201383D5C00120138685C00F3
:100BB300120138275D001201388C5E00120138A93A
:100BC3005E00120138C85E00120138B95F001201DD
:100BD30038DE5F00120138086000120138836000BC
:100BE300120138DD6000120138466200120138F448
:100BF3006200120138356300120138FF8D021201C1
:100C0300384D8E02120138598E02120138378F0285
:100C1300120138688F02120138998F0212013819B4
:100C23009002120138519002120138A3900212016E
:100C330038E09002120138FD920212013823950226
:100C43001201380E9702120138F89802120138F493
:100C53007F00120138119A01120138419A011201E1
:100C6300381AA1011201389FA2011201389CA80170
:100C730012013884A901120138C1A901120138E413
:100C8300A90112013815AA011201381EAA01120185
:100C93003828AA0112013816AB011201380CAC0135
:100CA3001201380285011201380189011201380746
:100CB30089011201384290011201385B950112013A
:100CC30038CD9D03120138639E03120138799E03C8
:100CD300120138EF9E03120138639F03120138A1FA
:100CE3009F0312013815A0031201388EA0031201CD
:100CF3003897A003120138A3A003120138B8A00348
:100D0300120138F6A0031201380CA1031201386B4B
:100D1300A1031201388C9103120138999103120136
:100D230038B39103120138F2910312013830920360
:100D3300120138959203120138AA9203120138B5B1
:100D43009203120138C29203120138D9920312019D
:100D530038E79203120138F29203120138FE92032C
:100D63001201380D93031201381893031201383B13
:100D73009303120138E29303120138F29303120131
:100D8300380C940312013829940312013845940353
:100D93001201386A94031201387594031201388AD8
:100DA30094031201389E9403120138FF9403120135
:100DB300380595031201380B950312013811950379
:100DC3001201382995031201385C9503120138ADDD
:100DD300EA0112013831EB01120138E0EB01120193
:100DE300383FED0112013860EF011201384CF00178
:100DF30012013881F001120138A3F00112013852B7
:100E0300F1011201384AF30112013873F30112019F
:100E13003805F40112013837F40112013844F401A2
:100E23001201389BF401120138C1F4011201382E6A
:100E3300F70112013831F80112013889F801120162
:100E4300383CDC0112013846DD011201382DDE0188
:100E530012013837DE0112013859DE0112013865FB
:100E6300DE01120138FEDF011201382DE00112010B
:100E73003849E101120138A2E10112013808E30106
:100E8300120138E7E30112013843E401120138B0DB
:100E9300E401120138EBE4011201382AE5011201E1
:100EA30038E3E701120138FDE70112013889E8014F
:100EB30012013897E801120138F0E801120138FEF7
:100EC300E80112013871E901120138D5E901120173
:100ED300381FEA01120138BBB502120138DDB50231
:100EE30012013803B80212013818BB02120138305C
:100EF300BC02120138E3BC02120138C5BD02120163
:100F0300386BB70312013890B70312013802B803E4
:100F13001201382CE40212013835E4021201383E82
:100F2300E40212013815E502120138C6E602120185
:100F330038FCE60212013836E7021201386CE70288
:100F4300120138A6E702120138DAE7021201380665
:100F5300E8021201384FE80212013889E80212014F
:100F630038D2E8021201382AE9021201385FE90295
:100F7300120138BAE902120138F4E90212013845C4
:100F8300EA021201387BEA02120138B5EA021201C1
:100F930038E3EA0212013806EB021201388DC70367
:100FA300120138B9C70312013814C8031201381EDD
:100FB300C8031201382EC8031201388CD302120160
:100FC3003896D302120138D4D3021201381DD40249
:100FD30012013857D402120138B1D402120138D2A7
:100FE300D402120138AAD702120138B3D702120170
:100FF3003800D80212013829D80212013833D80236
:101003001201389FD80212013831D9021201387BFC
:10101300D902120138B1D9021201383DDA021201A4
:10102300387EDA02120138B5DA02120138C7DA0261
:10103300120138E6DA02120138EFDA02120138BC83
:10104300DB0212013812C4031201387AB50312010C
:1010530038B0B503120138E6B50312013831B703CE
:10106300120138E1C803120138F7C803120138012D
:10107300C9031201384BC903120138FDC903120118
:10108300389CF702120138B1F70212013861F802F5
:10109300120138A1F802120138BAF802120138F528
:1010A300F80212013842F90212013874F9021201EE
:1010B30038B6F902120138B7FB0212013829FC02D3
:1010C30012013854BC031201387DBC03120138AC41
:1010D300BC0312013844BD031201385CBD03120185
:1010E300389EBD03120138E3BD03120138EEBD0380
:1010F3001201388FBE0312013869B303120138722B
:10110300B303120138E3B303120138F7B303120137
:10111300384CB5031201386EB503120138DC7F0079
:1011230012013838C80312013844C8031201389534
:10113300AC03120138C5AC0312013870AD031201C0
:101143003812AE0312013867A7031201388CA703C4
:10115300120138B6A703120138B4CA031201386565
:101163006300120138CA65001201386B670012016F
:10117300381F6800120138B268001201383769005D
:101183001201385C6900120138B26C001201383860
:101193006D001201386B6E00120138A56E0012014A
:1011A30038DA6E001201389A7000120138F77000B5
:1011B300120138407100120138AB71001201381C62
:1011C30072001201384E7200120138667200120169
:1011D30038AF7300120138BF7300120138DA74009C
:1011E300120138FC7400120138327500120138E61E
:1011F3007600120138737700120138B277001201BA
:1012030038D67800120138CCC603120138DDC60384
:1012130012013882C70312013855CB0312013894E7
:10122300CB031201381ACC0312013809C50312018A
:101233003819C50312013834C503120138E8C50350
:1012430012013833AA0312013864AA031201384E7B
:10125300AC031201380EC30312013893C303120106
:1012630038F9C303120138B2C003120138E6C003D0
:101273001201380FC10312013886C103120138105D
:10128300B90312013839B9031201389FB9031201A6
:1012930038BFB90312013810BA031201386BBA030D
:1012A300120138A5BA03120138A8BA031201383E55
:1012B3008D03120138778D03120138E98D03120172
:1012C30038FE8D03120138298F03120138A58F03CD
:1012D3001201386B90031201388A9003120138B15E
:1012E3009003120138EE90031201380691031201A4
:1012F30038579103120138D99503120138F0950339
:101303001201386A96031201384E970312013825E9
:1013130099031201388A9903120138E199031201E2
:10132300380ACB03120138F87F0012013824B103C5
:10133300120138BFB20312013820B3031201386619
:10134300B303120138F59903120138909A0312017D
:1013530038149B03120138AD9B031201386F9C03B1
:10136300120138E49C031201380C9D031201381555
:101373009D03120138859D03120138989D031201C4
:1013830038AE9D03120138B79D03120138CA9D037D
:10139300120138B2BA0312013804BB031201388EAA
:1013A300BB03120138F5BB03120138DFAE03120190
:1013B3003809AF03120138D7AF03120138B2B003B3
:1013C300120138EADB02120138B1DC02120138E8FB
:1013D300DC0212013812DD0212013872DD02120141
:1013E30038C8DD021201382DDE02120138C5DE02D3
:1013F300120138D4DF021201386BE102120138F80E
:10140300E1021201385FE20212013876E2021201B0
:101413003890E302120138CEE30212013800800251
:1014230012013881830212013809850212013860E2
:1014330085021201387F8502120138FD85021201EF
:1014430038938702120138788802120138868C0299
:101453001201385C8D02120138A6EB021201381911
:10146300EC02120138CFEE0212013811F10212011F
:1014730038DEF1021201385DF202120138E288030C
:1014830012013827890312013844890312013809EC
:101493008A03120138728A03120138568B03120130
:1014A30038058D03120138CFFF021201389ECB039A
:1014B300120138D4CB03120138FCCB03E066701061
:1014C30008A3E066700A08A3E066700408A3E06658
:1014D30022C3E7960809E7960809E7960809E796FD
:1014E30022C3E09608A3E09608A3E09608A3E0963B
:1014F30022C008C3E096F50808A3E096420808A3B3
:10150300E096420808A3E09645087001D3D008226C
:10151300E9799EC608CAC608CBC608CCC6C37020E4
:101523007996CACBCC7019798ECBCC70137986CCD3
:10153300700EF9802ACA33CACB33CBCC33CC3319E0
:1015430030E7F2CCCBCA3350147004EA30E00DE438
:10155300CA3ACACB3BCBCC3CCC500209C3E913C635
:10156300CC182313C6CB18C6CA18C6F9221215B055
:1015730020F01430E72B74FFFCFBFA747F8022E425
:10158300FCFBFA7480801AB48008BC00F2BB00EF45
:10159300800F50EBF9E4C39AFAE49BFBE49CFCE470
:1015A30099C6CC18C6CB18C6CA18C6F922E4C9C650
:1015B30008CAC608CBC6D3330308CCC63392F0C3DC
:1015C300947F402E94184019C9B90704CACBCC2282
:1015D3005025C309CA33CACB33CBCC33CC33D9F46C
:1015E30022F4600DC9CCC313CB13CBCA13CAD9F6EB
:1015F300CC22E4FCFBFA2214FCFBFA22E6C33318E8
:10160300461846184622E7C3331947194719472294
:10161300181818E6084608700AE608C3337005E68A
:1016230033F4220822191919E7094709700AE7094F
:10163300C3337005E733F4220922E6084608C313CF
:101643004608336002E633F422E7094709C3134728
:1016530009336002E733F42212163D601D12164C63
:101663007005191919801A121613701F121628C340
:101673007003E66733191919400718181822080868
:101683000874FFF618F618F618F6221216286017D3
:10169300121609702192F01215FF7019501720F0DD
:1016A30014080808090909E7F61819E7F61819E7ED
:1016B300F61819E7F6221215FF60E6E869701F08AD
:1016C30008E62480F608E436F618547FB47F0CE667
:1016D30054806007F6E418F618F622181822E9C6B3
:1016E300CC08C6CD08C6CE08C6CFC0E0E8C0E0EA45
:1016F300C0E0EBC0E009E9F809E7FA09E7FBE6F91E
:1017030018E6F8C3EC98ED99EE9AEBC2E7F5F0EF23
:10171300C2E795F0500E600CEBCFFBEACEFAE9CDB1
:10172300F9E8CCF8EAA2E7D2E7FAEB33FB13F5F0DA
:10173300EEA2E7D2E7FEEF33FFC5F013A2E730E6F0
:1017430001B313C5F0C3C0E0C0F07F00C39BFB60CF
:101753005E9418600F401D14601AD0E023F9D0E0A6
:10176300F802183C8AF0E9486003D2F0E4AFF0FADB
:10177300F9F8803BEB30E40D89F0EA6003D2F0E442
:10178300AFF0F9CAF8EB30E30D88F0EF6002D2F066
:10179300AFF0E4CAC9F8EB54076014FBC3EA13FAC9
:1017A300E913F9E813F8EF135002D2E0FFDBEDD0B1
:1017B300E0C0E030E739C3E49FFFF5F0EC98FC426A
:1017C300F0ED99FD42F0EE9AFE42F0D0E0F9D0E060
:1017D300F8E5F0607AE923F9EE20E742D802806762
:1017E300C3EF33FFEC33FCED33FDEE33FE80EAEC65
:1017F30028FCED39FDEE3AFED0E023F9D0E0F840C5
:1018030002801BC3EE13FEED13FDEC13FCEF13502C
:1018130002D2E0FF08B800067F7F74FF802EEF330B
:1018230050178CF020F00260100CBC000C0DBD00B2
:10183300080EBE000408E860DFE933E813FFEE2377
:1018430013FE4F4D4C8008E95480FFE4FEFDFCEE8F
:1018530033EF33F47004FCFD7E80D0E0FBD0E0FA7C
:10186300D0E0F8D0E0CFC618CEC618CDC618CCC687
:10187300F92212163D70041818182212164C700D16
:1018830074FFF61819F61819F61819F622E754809A
:1018930066F61215FF700F12160970F014F608F6AB
:1018A30008F608F680D1121609700CF608F60876C9
:1018B3008008E6447F80EC12162B700C121616601B
:1018C300BFE65480F6E480BB121616700519191989
:1018D30080A5E869700C763F18768018F618F6E84C
:1018E300F922E6CDC0E018ECC0E0E633CD33CDD32A
:1018F30013F6E719FCE7191933CC33C3947F400E71
:10190300CD9D502408E65480F6E418F6800FF404C5
:101913003D14501408E6447FF6187680E418F61850
:10192300F6D0E0FCD0E0FD22CCD313CCFD18E4C606
:10193300CBC0E018E4C6CAC0E00808ED08C633E629
:1019430013F618E433C675F003C3CA97CA09CB97D5
:10195300CB199C40047D08802EBD0003021A1E167D
:10196300B6FF050606081618C3CA33CACB33CB33F2
:10197300CA27CA09CB37CB193CC37D08803E187DE3
:101983000820E75CC633C6CA33CACB33CB33DDF199
:10199300D5F0EB30E77BCA97CA09CB974ACB199CA2
:1019A300406F4B7025E620E0218066187D08C3CA8E
:1019B30097CA09CB97CB199CD3C633C6CA33CACBB4
:1019C30033CB3350C9DDE7D5F0E1D3E4C636C608DF
:1019D300C636C608C636C608C636C61818188031B5
:1019E300C3CA97CA09CB97CB199CB34097C633C6D2
:1019F300CA33CACB33CB33DD34D5F02EC6A2E0C60F
:101A030040C8CA27CA09CB37194A70BECB3CB48039
:101A1300B90808E63308E633601F181818D0E0FA4F
:101A2300D0E0FBD0E0FCD0E0FD22187D08CA27CA35
:101A330009CB37CB193CD3808013F618E4B67F115A
:101A4300F618B6FF0EF618C60470D2080876808022
:101A5300CAF618F618F680C5080808EAC0E0EBC015
:101A6300E086F0E7A4FA180986F0E7A42AFA180931
:101A730086F0E7A42AFA180986F0E7A42AFA198659
:101A8300F0E7A4FBE5F02AFA190886F0E7A42BFB9C
:101A9300E5F03AFA190886F0E7A42BFBE5F03AFAE9
:101AA30018180986F0E7A4C5F02BFBE43AFA1908E5
:101AB300E7C5F0C6A426F6E5F03BFBE43AFA188640
:101AC300F0E7A4F6E5F00826F6E43B08F6E43A0866
:101AD300F6D0E0FBD0E0FA22E4CFC0E0E4CEC0E0F1
:101AE300E4CDC0E0E4CCC0E075F020C3E633F608F3
:101AF300E633F608E633F608E633F6181818EC333F
:101B0300FCED33FDEE33FEEF33FFC3EC9709ED97A6
:101B130009EE9709EF97191919400FFFEC97FC0984
:101B2300ED97FD09EE97FE191906D5F0BEECF709FE
:101B3300EDF709EEF709EFF7191919D0E0FCD0E03A
:101B4300FDD0E0FED0E0FF226016080808C6C313EC
:101B5300C618C613C618C613C618C613C6D5E0EAF8
:101B6300227009080808226016181818C6C333C65D
:101B730008C633C608C633C608C633C6D5E0EA224C
:101B8300E627F60809E637F60809E637F60809E610
:101B930037F622E026F608A3E036F608A3E036F689
:101BA30008A3E036F622E026F008A3E036F008A307
:101BB300E036F008A3E036F022C3E697F60809E61C
:101BC30097F60809E697F60809E697F622C3E09622
:101BD300F008A3E096F008A3E096F008A3E096F0DF
:101BE30022E657F60809E657F60809E657F6080904
:101BF300E657F622E056F608A3E056F608A3E056A9
:101C0300F608A3E056F622E056F008A3E056F008E3
:101C1300A3E056F008A3E056F022E0F608A3E0F6AE
:101C230008A3E0F608A3E0F622E6F008A3E6F0082E
:101C3300A3E6F008A3E6F022E0FAA3E0FBA3E0FCAE
:101C4300A3E0FD22EAF0A3EBF0A3ECF0A3EDF02276
:101C5300CAC0E0E6F0A308DAFAD0E0FA22CAC0E08C
:101C6300E0A3C582CCC582C583CDC583F0A3C5825D
:101C7300CCC582C583CDC583DAE6D0E0CA22C3E4EE
:101C830098F8E499F9121CC28026C3E49AFAE49BFB
:101C9300FBE920E7E9121CC2E498F8E499F922C3AE
:101CA300E498F8E499F9121CC2E498F8E499F9C3AA
:101CB300E49AFAE49BFB22EB20E7CFE920E7E0B9C3
:101CC3000010BB0008E88AF084F8AAF022E4FBC8FD
:101CD300FA22EB70227B10C833C8C933C9335007CB
:101CE300C39AC3DBF280069A50012ADBEAC833F4B5
:101CF300C8C933F4C9FA2275F008E4C833C8C93334
:101D0300C933C99AC99B5004C92AC93BD5F0ECFB16
:101D1300C833F4C8E4C9FA22600D08C6A2E713C6A3
:101D230018C613C6D5E0F322600C08C6C313C61841
:101D3300C613C6D5E0F422700422600D18C6C3335F
:101D4300C608C633C6D5E0F41822251810AF08F527
:101D530018400215198008F51840021519D2AF2250
:101D6300C0D0251810AF08F518500205198008F5E2
:101D73001850020519D2AFD0D0222518F58210AF22
:101D830008F518400215198008F51840021519D2F4
:101D9300AF851983222518F582E43519F58322E4EA
:101DA300732518C582C0E0E51934FFC583C0E0E59B
:101DB30018C3958224F810AF08858319858218808B
:101DC30008858319858218D2AFCEF0A3E520F0A34E
:101DD3007808E608F0A3DEFAEFF0A3E58124FAF829
:101DE300E608F0A3E608F0A3E608F0A30808E6086F
:101DF300F0A3E608F0A315811581D0E0FED0E0F84A
:101E0300158115811581E8C0E0EEC0E0222518C5D3
:101E130082C0E0E51934FFC583C0E0E518C39582AD
:101E230024F910AF088583198582188008858319E2
:101E3300858218D2AFCEF0A3E520F0A37808E60898
:101E4300F0A3DEFAEFF0A3E58124FBF8E608F0A3A4
:101E5300E608F0A30808E608F0A3E608F0A3158156
:101E63001581D0E0FED0E0F815811581E8C0E0EEE1
:101E7300C0E022851983851882E0A3FEE0A3F52044
:101E83007808E0A3F608DFFAE0A3FFE0A3C0E0E0F0
:101E9300A3C0E0E0A3C0E0E0A3C0E0E0A3C0E01083
:101EA300AF08858218858319800885821885831970
:101EB300D2AFD083D082020135851983851882E0A1
:101EC300A3FEE0A3F5207808E0A3F608DFFAE0A379
:101ED300FFE0A3C0E0E0A3C0E0E0A3C0E0E0A3C054
:101EE300E010AF08858218858319800885821885DC
:101EF3008319D2AFD083D08222C0D02518C582C027
:101F0300E0E51934FFC583C0E0E518C3958224F3E7
:101F130010AF088583198582188008858319858207
:101F230018D2AFC8F0A3E9F0A3EAF0A3EBF0A379CA
:101F330008E709F0A3D8FAECF0A3EDF0A3EEF0A3C1
:101F4300EFF0A3D0E0F0A3D0E0F0A3D0E0F0A3E55E
:101F530020F0A3E5F0F0A322851983851882E0C061
:101F6300E0A3E0F9A3E0FAA3E0FBA37808E0F60816
:101F7300A3DFFAE0FCA3E0FDA3E0FEA3E0FFA3E000
:101F8300C0E0A3E0C0E0A3E0F5D0A3E0F520A3E028
:101F9300A3F5F010AF08858319858218800885831F
:101FA30019858218D2AFD082D083D0E0F8D0E03246
:101FB30074048006740280027401C0E0F404121DEC
:101FC3007DD0E0121C53227404800474028000CC80
:101FD300C0E0EDC0E0E518C39CCCAD1950011D1065
:101FE300AF068C188D1980068C188D19D2AF121C70
:101FF30060D0E0FDD0E0FC22D083D082E9C0E0E4F1
:1020030093A3C386F0C5F095F0F908E493A386F093
:10201300C5F095F0700BE493A3C3994005E90480E0
:1020230002A3E475F002A42582F582E5F03583F579
:1020330083D0E0F9E493A3C0E0E493C0E022D0832B
:10204300D082ECC0E0EDC0E0E493A3FCE493A3FDF5
:10205300ED4C600D12208DEC24FFFCED34FFFD8070
:10206300EFE493A3FCE493A3FDED4C600D1220CCAD
:10207300EC24FFFCED34FFFD80EFD0E0FDD0E0FC6D
:10208300E493A3C0E0E493C0E022C0E0C3E49396EA
:10209300087401939618400FE4936670080874015E
:1020A30093661870007019A3A3C3E4939608740190
:1020B300939618A3A3400DD0E0D0E0D0E002207D9A
:1020C300A3A3A3A3A3A3D0E022C0E0C0F088F0E4BD
:1020D300936670080874019366187000A8F0A3A3B0
:1020E300700BD0F0D0E0D0E0D0E002207DA3A3D0ED
:0420F300F0D0E02227
:1020F80074F5121E10EAFEEBFFEE2434F8EF3400FC
:10210800F988088909EE2435F582EF3400F583E073
:10211800F8EE2437F582EF3400F583E0F50AEC8514
:102128000AF0A4FCAAF0850AF0EDA42AFDE82CF830
:10213800E43DF97A257B00121CC2EA8508828509EC
:1021480083F0F8740758F97401B900028004C333A6
:10215800D9FCFAE8131313541FF8EE28F8EF3400EB
:10216800F9E8245DF582E93400F583E05A6008EE69
:102178002434F582EF802CEE2434F582EF3400F518
:1021880083E0C0E0EE2436F582EF3400F583E0F515
:10219800F0D0E084A8F0EE28F8EF3400F9E824380D
:1021A800F582E93400F583E0F97F04021EBC74F57A
:1021B800121E10EAFEEBFFEE2434F582EF3400F530
:1021C80083E0C0E0EE2435F582EF3400F583D0E0FB
:1021D800F08E828F83A3A3A3A3A3A3A3C082C083EB
:1021E8008E828F83A3A3A3A3A3E0F8A3E0F9D083EF
:1021F800D082E0C398F508A3E099F509EE247FF5AD
:1022080082EF3400F583E064017069EE2480F58282
:10221800EF3400F583E0F8A3E0F98E828F83A3A35F
:10222800A3A3A3A3A3E0FCA3E0FD8E828F83A3A3B3
:10223800A3A3A3E0FAA3E0FBC3EA9CEB9D5010C361
:10224800EC98ED99402EC3EA98EB995027800EC37D
:10225800EA98EB994007C3EC98ED9940177CDC7D30
:1022680004EEFAEFFB120BADEE247FF582EF34009B
:10227800F583E4F0EE2434F8EF3400F9E8FCE9FDE6
:10228800EE2435F582EF3400F583E0F8EE2437F5D7
:1022980082EF3400F583E0F50AE508850AF0A4F535
:1022A80008AAF0850AF0E509A42AF509E82508F83E
:1022B800E43509F97A257B00121CC2EA8C828D83E9
:1022C800F0F8740758F97401B900028004C333D9CF
:1022D800FCFAE8131313541FF8EE28F8EF3400F94A
:1022E800E8245DF582E93400F583E05A6008EE24BD
:1022F80034F582EF802CEE2434F582EF3400F58338
:10230800E0C0E0EE2436F582EF3400F583E0F5F026
:10231800D0E084A8F0EE28F8EF3400F9E82438F586
:1023280082E93400F583E0F9122F330221B1C0822B
:10233800C083851882851983E0F8A3E0F9C3EA9C75
:10234800EB9D5010C3EC98ED99401BC3EA98EB99AC
:102358005014800EC3EA98EB994007C3EC98ED99A6
:102368004004790180027900D083D08222EAC39C9C
:10237800FAEB9DFB2274EF121E109003A2E0640892
:102388006005E06407702A9061C8E060249003D07B
:10239800E0F4601DE0F875F003A4C8AAF02AF97407
:1023A800D228FE740339FF8E828F83A3A3A3E07023
:1023B800030224AD906060E0C0E0EE2468F582EF8F
:1023C8003400F583D0E0F0750C45750D05750800EF
:1023D800750900E5D914F50AE5D95403F50E601717
:1023E8007403650E605CE50A6010EE2467F582EF01
:1023F8003400F583E07003022492900540E0640104
:10240800602AEE2482F582EF3400F583E0600478D8
:102418000480027800850A08E508C398FA95E0FB6D
:10242800120A7B8A088B09EA45097005120DB180EA
:1024380074EE2482F582EF3400F583E070048A0C90
:102448008B0DE50A6012850C82850D83F50BE5D9A5
:10245800F0A3150BE50B70F6EE2482F582EF34003D
:10246800F583E0604474FC250AF50A780C121FB75E
:10247800AC0AA90EEEFAEFFB120C497402121D63A6
:10248800E97026AA08AB09121399793D8E828F83C9
:10249800A3A3A3A3E0FA7B0012094FEEFAEFFB1205
:1024A8000BC5120C5B790080747403650E60568549
:1024B8000A107511007810121FB7AC0CAD0DAA08E0
:1024C800AB09120C257402121D63EE2468F582EF25
:1024D8003400F583E064807004747F8001E0F50CBB
:1024E800780C121FBBE50EF50C780C121FBBA90A5D
:1024F800AC08AD099003D0E0FA7B0012091374020E
:10250800121D6380139003A2E06408600BAC0CAD4D
:102518000DEEFAEFFB120CB5120DBD79017F0A0220
:102528001EBC74F5121E1074FC121D4DEAFEEBFF62
:102538008908A2AFE433F509C2AF806AEE2463F8D4
:10254800EF3400F97A007B00A2AFE433F50AC2AF9A
:1025580088828983E0FCA3E0FDEC4D603A8882899B
:1025680083E0FAA3E0FB8A828B83E0FCA3E0FD888A
:10257800828983ECF0A3EDF08A828B83E4F0A3F0E8
:1025880088828983E0FCA3E0FDEC4D700A8882898B
:1025980083A3A3E4F0A3F0E50AA2E092AF12139993
:1025A8009004E3E004F0EE2463F582EF3400F58351
:1025B800E0F8A3E0F9E849603DEE2463F582EF34E2
:1025C80000F583E02402FAA3E03400FBEA2402F5D4
:1025D8000AEB3400F50B780A121FB78A828B83E066
:1025E800FCA3E0F9EEFAEFFB120BE97402121D638B
:1025F800E970030225449004E3E060639004E4E09A
:10260800F89004E3E0C398500C7402650870509089
:1026180004E5E0604A8E828F83A3A3A3A3E0851814
:1026280082851983F0A3E4F09004E3E0F8740212C1
:102638001D98E8F0A3E4F09004E3E0F89004E2E0E9
:1026480028F07402121D98AC82AD83851882851912
:1026580083AA82AB83790112091F9004E3E4F0E5B1
:1026680009A2E092AF7404121D630221B1000000B8
:102678008521878522C622C0E0C0D0E8C0E0E9C035
:10268800E0EAC0E0EBC0E0ECC0E0EDC0E0EEC0E0A6
:10269800C008C009C00AC00BC082C083C0F0A2AF86
:1026A800E433FEC2AF759B00906182E0A2E0501255
:1026B800E591A2E0500C7591FE740165217003123A
:1026C800237DE0A2E55051E591A2E5504B7591DFDD
:1026D8009003A2E064076005E06408702374016554
:1026E80021703579019003D0E0FA75F003A4CAA8E7
:1026F800F028FB74D22AFA74033BFB12252A8018AF
:10270800E0640D70139003C4E004F064287002E4E0
:10271800F07A00E0F9120DC3906182E0A2E640036E
:102728000227C6E591A2E640030227C67591BF902D
:1027380003A2E064057008120CEB120CF780031278
:102748000CF1752100120D51E99003A3F0790012E4
:102758000D45120B237A017B009003A1E0F91210BA
:102768001B907803E064427055900544E014F070C3
:102778004DC2AF12277E00782AD0E0F618D0E0F6D6
:10278800E59F540770057509FF800375097FC4C06C
:10279800E07829E6F50808E65509F509740B780884
:1027A800121D2BD0E02508F8906270E0A2E740F8EF
:1027B800E8C333906272F0906270E0D2E0F090610A
:1027C80081E0A2E35009E5E9A2E3500375E9F7A324
:1027D800E0A2E75009E591A2E7500375917FEEA2C8
:1027E800E092AFD0F0D083D082D00BD00AD009D0FD
:1027F80008D0E0FED0E0FDD0E0FCD0E0FBD0E0FA6D
:10280800D0E0F9D0E0F8D0D0D0E032C0E0C0D0C0FD
:1028180082C083906183E0A2E05009E5BFA2E05046
:102828000375BFFEE0A2E15009E5BFA2E1500375C0
:10283800BFFDE0A2E25009E5BFA2E2500375BFFB6D
:10284800E0A2E35009E5BFA2E3500375BFF7E0A299
:10285800E45009E5BFA2E4500375BFEFE0A2E550DC
:1028680009E5BFA2E5500375BFDFE0A2E65009E520
:10287800BFA2E6500375BFBFD083D0828088C0E076
:10288800C0D0E8C0E0E9C0E0EAC0E0EBC0E0ECC0DE
:10289800E0EDC0E0C0F0E5A7A2E6500FE5A1A2E692
:1028A800500953A7BF75A1BF1228EBE5A7A2E550B1
:1028B8000CE5A1A2E5500653A7DF75A1DFE5A7A2A5
:1028C800E15009E5A1A2E1500375A1FDE5A7A2E247
:1028D800500CE5A1A2E2500653A7FB75A1FBD0F06E
:1028E8000227FC74F8121E107521019003A2E064FF
:1028F800067015120C798A828B83A3A3A3A3A3A3C2
:10290800E0FAA3E0FB120CD9A2AFE433FED2AF90F9
:1029180003A8E0640170187A207B009003A1E0F915
:102928001210A57A207B009003A1E0F912102190E3
:102938006182E0D2E6F0900541E0602185C6228000
:10294800169003A7E064017008E5C654F84405F53D
:10295800C653BEFC1226787401652160E4EEA2E03D
:1029680092AF7F01021EBC008E238F2485822885AA
:102978008327851882851983E0CEA3E0CF85288236
:10298800852783EBC9EAC8EDCBECCA75F010C3E81C
:1029980033C8E933C9EA33CAEB33CBC3EA9EF52619
:1029A800EB9FF525B35004AB25AA26EC33CCED33C9
:1029B800CDD5F0DAAE23AF242274E9121E1074F8D4
:1029C800121D4D851882851983ECF0A3EDF08A0855
:1029D8008B099003A2E024F7C394055006750801FB
:1029E800022B58120C798A0A8B0BAE0AAF0BEE4FEA
:1029F8007003022B55AC08AD097402121D98AA8207
:102A0800AB83120D098E828F83A3A3750CFF750DFE
:102A1800FF750EFF750F00780C121BF77402121D5C
:102A2800987510FF7511FF7512FF75130078101255
:102A38001BF7780C79101214D4502A780C791012DC
:102A48001BBC7508017509C8750A00750B00780864
:102A5800790C1214D45052850C08850D09850E0A7C
:102A6800850F0B80507514017515C87516007517FC
:102A78000085100885110985120A85130B780879D5
:102A88000C121BBC781479081214D4401C75080069
:102A9800750900750A00750B0178087910121BBCBE
:102AA8007808790C121B83800C750801750900756C
:102AB8000A00750B0074097808121B64750C19F567
:102AC8000DF50EF50F7808790C121ADB8E828F83BC
:102AD800A3A3A3A3A3A3E0F8A3E0F97AD07B0312EE
:102AE8001CC2880C890DE4F50EF50F7808790C12D4
:102AF8001B837406121D98E0F8A3E0F97AD07B03D3
:102B0800121CC2E8FA8A0CE4F50D7808790C121444
:102B1800D450077808790C121BBC9003A2E0640813
:102B2800600AE064066005E06405702D750C0D7898
:102B38000C79081214D44021750CF4750DFF750E2C
:102B4800FF750FFF7808790C121B83800C7508003D
:102B5800750900750A00750B00851882851983E0D0
:102B6800F8A3E0F58388827808121C2C7408121DDB
:102B7800637F10021EBC74F7121E10120D1B900505
:102B88003FE064017010906245E4F0A3F053F4F361
:102B980043FE0C5390F3120CC7E5C654804449F524
:102BA800C6E59E547F644970F8906185740FF09073
:102BB800053DE0F47002A3E0604E90053EE0600839
:102BC80014601B14602E804075080175090090057B
:102BD8003DE07808121D3AE508F45280802A75080D
:102BE8000175090090053DE07808121D3AE508F4E2
:102BF8005290801475080175090090053DE0780829
:102C0800121D3AE508F452A079007F02021EBC7436
:102C1800F7121E10E9FEEAFF74016E700C7A807BD1
:102C2800009003A1E0F912101B9030F4E493F460D3
:102C380008E493F9120B17800953C680E59E547F68
:102C480070FA120CCD90053FE064017003120B2F4F
:102C580090053DE0F47002A3E0604B90053EE06013
:102C68000814601A14602C803D75080175090090DD
:102C7800053DE07808121D3AE5084280802875086D
:102C88000175090090053DE07808121D3AE50842F3
:102C980090801375080175090090053DE0780812C9
:102CA8001D3AE50842A0120D1B120C798A088B09FF
:102CB800A808A909E8496015E5E170FCE82414F5BD
:102CC80082E93400F583E0F46003E0F5E174016F14
:102CD800700A7A019003A1E0F912106F022C1274A5
:102CE800ED121E108A088B098C0A8D0B7413121DA5
:102CF80098780C121C1D7808790C1214D4751001E0
:102D08007511C875120075130050127808790C12E5
:102D18001BBC781079081214D450168010780C79DE
:102D280008121BBC7810790C1214D4400479018065
:102D38000279007F0C021EBC74ED121E108A088BEB
:102D4800098C0A8D0B7413121D98780C121C1D78AF
:102D58000C79081214D440117808790C121BBCAAFB
:102D680008AB09AC0AAD0B8022751000751100750F
:102D780012007513017810790C121BBC78107908B1
:102D8800121B83AA10AB11AC12AD1380A68A828BDA
:102D9800837508FF7509FF750AFF750B007808121F
:102DA8001C0A7F04021EBC74F5121E108C828D83CF
:102DB8007808121C1D8A828B837808121BD0EA249B
:102DC80004F8EB3400F98C828D83A3A3A3A3E0FC61
:102DD800A3E0FD88828983C3E09CF0A3E09DF0888E
:102DE800828983C3E09420A3E0944E40268A828B94
:102DF800837508FF7509FF750AFF750BFF780812C0
:102E08001BA98A828B83A3A3A3A3E02420F0A3E0B9
:102E1800344EF0022D9574F5121E10E9FE9004F759
:102E2800E0FAA3E0FBEEC333F8E433F974ED28F5D8
:102E380082748239F583E02AF508A3E03BF5097826
:102E480008121FB77A407B427C0F7D0012297074EC
:102E580002121D638A088B098C0A8D0B741078087E
:102E6800121B4BAA08AB097F04021EBC74F1121E88
:102E7800108A0C8B0D8C0E8D0F740F121D98E0FAB2
:102E8800A3E0FB7411121D98E0F508A3E0F509789A
:102E980008121FB7EA2401F508EB3400F509E4F538
:102EA8000AF50B780C7908121A5B75087175090216
:102EB800780C7908121A5BAA0CAB0DAC0EAD0F1288
:102EC80029707402121D638B09EA450960047A01AE
:102ED80080027A00EC2AFCED3400FD7413121D9870
:102EE800E0F8A3E0F9E8FEE9FFECF8EDF97A717B88
:102EF80002121CC2880889098E828F837808121CE6
:102F08002CECF8EDF97A717B02121CC28A088B0945
:102F180074057808121D3A8E828F83A3A3A3A3E5B4
:102F280008F0A3E509F07F08021EBCC082C083E94F
:102F3800906000F0D083D08222C2AF02000022C08D
:102F4800E074EB121EFC74F9121D4D538AFE908436
:102F5800817808121C1D9009637808121BA9900932
:102F6800637808121C1D908451780C121C1D780877
:102F7800790C121ADBE50C450D450E450F702690AD
:102F88008412C082851882851983AC82AD837583CB
:102F980084D0827407121C60851882851983AA82DE
:102FA800AB83121243C2EB7407121D637F08021F22
:102FB8005BC0E074F2121EFCA2AFE433FED2AFC2D3
:102FC800C0E5D1A2E4500653D1EF12138D751A0053
:102FD800EEA2E092AF7F01021F5BC0E074F2121E06
:102FE800FCA2AFE433FED2AFE589A2E1500312128E
:102FF8009D758900C2C5751A00EEA2E092AF7F01E7
:10300800021F5BC0E074F2121EFCA2AFE433FED2D2
:10301800AFE58BA2E0500312129D758B00C2E880C9
:10302800D5C0E0C0D0E8C0E0E9C0E0E5A8D2AFC2B2
:10303800C7751A00A2E7A2E792AFD0E0F9D0E0F88E
:10304800D0D0D0E032C0E074F2121EFCA2AFE4335C
:10305800FED2AF758900C2C5900A937401F0751A43
:1030680000FA900A60E0F912106F900C17E0F8A3CC
:10307800E0687002D285EEA2E092AF7F01021F5B8A
:10308800C0E0C0D0E8C0E0E9C0E0C008C009C08224
:10309800C083A2AFE433F9D2AF900C17E0F8A3E0F5
:1030A800687008539AFBA374018026C2E9900C1734
:1030B800E0F50874012508F074972508F582740B6B
:1030C8003400F583E0F5C1900C17E0C3948040020A
:1030D800E4F0E9A2E092AFD083D082D009D008D042
:0A30E800E0F9D0E0F8D0D0D0E032DB
:1030F400FFFFFFFFFFFFFFFFC082C083E9900E19AF
:10310400F002338B74F7121DA4E99002E1F07C19EC
:103114007D037AFF7BFF12086B9002E274FFF0A339
:10312400F0A3E4F0A3F079051207F39002E1E0F9CB
:103134001207157A897B08120A2D7F01021E767404
:10314400F4121DA48A088B09EB548060309002E1CC
:10315400E0F91210038A0A8B0BAE0AAF0BEE4F6034
:10316400138E828F83E064B0700312080BEEFAEFC3
:10317400FB120FF1AA08E5096480FB80047A007B46
:103184000002335A74F2121DA474FC121D4DEAFE9F
:10319400EBFFEE4F60387402121D98EEF0A3EF12AD
:1031A40035BFECF0A3ED1235BFAA82AB8312070F33
:1031B400E9F50870737412121D98124173E50A45FB
:1031C4000B60658E828F83123236EE4F7005750860
:1031D4000280557A067B001210578A0C8B0DA80CBE
:1031E400A90DE8497005750813803D88828983E438
:1031F400123240A3A3EEF0A3EF12460CE50AF0A3AB
:10320400E50BF09002E71232C89002E76017E0FC89
:10321400A3E08003EAFCEBFD8C828D831232C8703C
:10322400F38C828D83124098A9087404121D6302E2
:10323400480EA3A3A3A3E0FEA3E0FF22F0A3F0881B
:103244008289832274F2121DA4890AE975F017A4F5
:10325400FEAFF09002E6E4F09002E41232C8600A95
:1032640012105D9002E4E4F0A3F0EEFAEFFB12100A
:10327400578A088B09EA4509602FEEFCEFFD7900B7
:10328400120FD99002E4E508F0A3E509F07B008071
:10329400081232B2E4F0A3F00BEBC3950A40F2E556
:1032A4000A9002E6F079008002791302480EEB7569
:1032B400F017A4F8A9F09002E4E028FAA3E0398A10
:1032C40082F58322123E2EEA4B2274F4121DA47559
:1032D4000800750900740C121D981245E0FEE9FF00
:1032E400800CE5082401F508E5093400F509C3E577
:1032F400089CE5099D503285080A85090B740378FA
:103304000A121D3AEA250AF8EB350BF988828983FB
:10331400A3A3A3A3A3A3124173EE650A7003EF65ED
:103324000B70BFE8FAE9FB80047A007B0080277405
:10333400F4121DA47900EAA2E0501B750832750945
:10334400847808121FB77C047D007A1B7B0E120759
:10335400ED7402121D637F04021E76C082C0839046
:1033640002E7123392601C88828983A3A3E06A7007
:1033740003A3E06B8882898370E8A3A3A3A3123E0E
:103384002A80047A007B00D083D08202013512485F
:10339400E1E8492274EE121DA474FC121D4DEAFEEC
:1033A400EBFF851882851983E4F0A3F0EE24021262
:1033B400407CEE24051235ADEE2404F50EEF1239EF
:1033C40092E024FE603924FC604624FE605224FE10
:1033D400605E24FE70030234B224FE700302352AB8
:1033E40024FE700302353924FE700302354824FCA0
:1033F400700302355724FE70030235660235A3902C
:1034040003007417F0A3E41235C712048D0235A328
:10341400851882851983AC82AD8312081102357335
:10342400851882851983AC82AD831208170235731F
:10343400850C08850D097402121D98AC82AD838534
:103444000882850983123E2A1207338A0C8B0DAC3D
:103454000CAD0DEC4D6042E4F50CF50D780C121F2B
:10346400B7750C00750D03780C121FB7750C017538
:103474000D03780C121FB77408121D98121FCE7911
:1034840016123E241208537408121D63E9F50C70D9
:103494000B123E201204A5800F750C01850882854D
:1034A40009831235B5124098850C080235767402EA
:1034B400121D98AC82AD83850C82850D83123E2A41
:1034C4001207338A108B11AC10AD11EC4D6043859B
:1034D4000C82850D83A3A3121FCE751000751103F2
:1034E4007810121FB77510017511037810121FB7E9
:1034F4007408121D98121FCE7916123E2412085316
:103504007408121D63E9F509700B123E201204AB16
:10351400800F750901850C82850D831235B5124023
:1035240098850908804C851882851983AC82AD83FF
:1035340012081D803A851882851983AC82AD8312E6
:103544000823802B851882851983AC82AD831208E9
:1035540029801C851882851983AC82AD8312082FBB
:10356400800D851882851983AC82AD83120835E9F4
:10357400F508E50860298E828F83A3E06414601F38
:10358400850E82850F83E09003001235BF1248DD5B
:10359400900301124098E508A31235C7120487EE80
:1035A400FAEFFB1207B1023F84F50CEF3400F50D7E
:1035B400221248E185188285198322F085188285B4
:1035C400198322F07C007D03850A82850B83123ED9
:1035D4002E2274EE121DA474FC121D4D8A0A8B0B4C
:1035E4008C0E8D0FEA2405F508EB3400F5097C15E3
:1035F4007D0079007A007B03120FD9E5082402F5D7
:103604000CE5091235B085188285198385821085E9
:1036140083117810121FB7850882850983A3A3A399
:10362400A3123ADA121FB7E5082405F510E50934A8
:1036340000F5117810121FB7850C82850D83123E98
:103644003412072D7406121D638A108B11AE10AF4D
:1036540011E50A2402F50AE50B12407FEE4F7003D0
:1036640002379C80177402121D98123E2A888289A0
:1036740083EAF0A3EBF0900300E004F0900300E091
:10368400C39405400302379CE4F510F51178101239
:103694001FB77510E97511027810121FB77510EA7B
:1036A4007511027810121FB77406121D98121FCEDE
:1036B4007910EEFCEFFD123E241208537408121D1B
:1036C40063E9705E850882850983A3A3A3A3A3A3EA
:1036D400A3E0F89002E9E0687048123ADA121FB7E2
:1036E4007CEA7D02E5082408FAE5093400FB120FA0
:1036F400D37402121D63E960298E828F83A3A3A36E
:10370400A3123E2A900300E0F51074027810121DF3
:103714003A74012510F58274033511F583EAF0A398
:10372400EBF07402121D98858210858311781012B3
:103734001FB77402121D98121FCE850C82850D834B
:103744001248F21207397404121D638A108B11AEE9
:1037540010AF11900300E0F5107511007402781099
:10376400121D3A74002510F874033511F988828902
:1037740083A31232C87003023660E82403F8E934E4
:1037840000F9EE4F60030236698882898374FFF082
:10379400A3F0900300E004F0900300E0600A123EFE
:1037A400201204997900800B8508828509831240D0
:1037B4008F790A023F8474EA121DA474FE121D4D0F
:1037C4008C128D13EA2405F50CEB124A5C12323A82
:1037D400750800750900EA2402F510EB3400F511B0
:1037E40085188285198385820A85830B780A121FBE
:1037F400B7850C82850D83A3A3A3A312399C121F42
:10380400B7E50C2405F50AE50D12407F780A121F6E
:10381400B7850C82850D831248F012072D740612A9
:103824001D638A0A8B0BEA450B700302394DEA24A7
:1038340004F50EEB12399212323A8A828B83A3A3D7
:10384400A3E0F9851082851183123E2A12071BE931
:10385400F509600302394DE4F514F5157814121FC7
:10386400B77514E97515027814121FB77514EA7543
:1038740015027814121FB77406121D98121FCE7900
:1038840013AC0AAD0B851082851183123E2A1208EF
:10389400537408121D63E9F509600302394D90025F
:1038A400E9E0F8E5087009E02402900301F08017CC
:1038B400900301E0FCE82402FAE43400FBEA6C70B3
:1038C40001EB6003023951850882AA82123AD1942D
:1038D40014123AC95073850E82850F83E0C0E074D8
:1038E400022A123989D0E0F00508850E82850F83FB
:1038F400A3E0C0E085080A7402250A123989D0E0E1
:10390400F005089002E912399C121FB77CEA7D0287
:1039140085080A7402250AFA74033400FB120FC1E5
:103924007402121D639002E9E02508F50874FF6E25
:10393400700374FF6F6012EE24010EEF3400FFE594
:1039440008C3941450030237E4E5086013123D15CC
:10395400851082851183123E2A12049F79008014F7
:10396400E509700375090A851282851383EEF0A3B5
:10397400EFF0A9097402121D637F0E021E768508FA
:103984000C7402250CF58274033400F58322340090
:10399400F50F850E82F5832212461F2274EE121D46
:1039A400A474FE121D4D8C0E8D0FEA2405F50CEB4C
:1039B4001235B0750B00900300E4F0F50AEA240216
:1039C400F508EB3400F5098049900300E0FA900211
:1039D400E9E0F8123AD19417123AC9400D90030065
:1039E400E0F87416C3989002E9F0123ADA121FB79D
:1039F4007CEA7D0274012AFA74033400FB120FC1BD
:103A04007402121D639002E9E0F8900300E028F0CC
:103A1400050AE50C2416F582E50D12398DE0F8E56A
:103A24000AC3984003023AB2900300E0C3941650CC
:103A34007DE50AC333F8E433F9E50C28FEE50D39D6
:103A4400FF851882851983AC82AD838E828F8312A1
:103A54003E2A1207338A108B11AC10AD11EC4D7055
:103A640005750B018043E4F510F5117810121FB7AA
:103A74007510E97511027810121FB77510EA7511E7
:103A8400027810121FB77406121D98121FCE7916F1
:103A9400850882850983123E2A1208537408121D70
:103AA40063E9F50B70030239CD12408B80107C0062
:103AB4007D03850882850983123E2A1204B1A90B6D
:103AC4007402023F86E99400C365D03322EA28F8E1
:103AD400E43400F9E822E0F510751100781022743E
:103AE400EA121DA474FC121D4D8A0C8B0D8C128DD0
:103AF40013EA2405F50AEB12407F750800750900E6
:103B0400E50A2402F510E50B3400F5117402121DC8
:103B14009885820E85830F780E121FB7850A8285D9
:103B24000B83A3A3A3A31245CB121FB7E50A240555
:103B3400F50EE50B3400F50F780E121FB7851082D1
:103B4400851183124085123E2412072D7406121D1E
:103B5400638A0E8B0FAE0EAF0FE50C2402F50EE553
:103B64000D3400F50F80408882898374FFF00508C6
:103B740012398274FFF005089002E9E0F50C750D26
:103B840000780C121FB77CEA7D0285080C740225AC
:103B94000CFA74033400FB120FC17402121D6390FB
:103BA40002E9E02508F508EE4F60718E828F83A349
:103BB400A3A3E0F9850E82850F83123E2A12071B08
:103BC400E9F509EE24041235ADE97044E4F514F581
:103BD400157814121FB77514E97515027814121F9D
:103BE400B77514EA7515027814121FB77408121DFC
:103BF40098121FCE7911EEFCEFFD850E82850F839E
:103C0400123E2A1208537408121D63E9F50960274D
:103C1400850C82850D83123D0B124098E5087003D4
:103C2400023CF1123D15850E82850F83123E2A1245
:103C340004B77900023D06850882AA82EA9002E967
:103C44007009E02404900301F08022E0F89003015D
:103C5400E0F514E82404FCE43400FDEC6514700180
:103C6400ED70C0123AD19412123AC950B6850C8242
:103C7400850D83E0C0E074022A123989D0E0F00592
:103C840008850C82850D83A3E0C0E0123982D0E060
:103C9400123D2785820C85830D780C121FB774049E
:103CA400121D98121FCE8510828511831248F212BC
:103CB40007397404121D638A0C8B0DAE0CAF0D858D
:103CC400080C7402250CF874033400F9EE4F7003E9
:103CD400023B6B851882851983E088828983123DB3
:103CE40027A3E0C0E0123982D0E0023B79E50970F5
:103CF4000375090A850A82850B83123D0B124098CD
:103D0400A909740402397A1248E185128285138361
:103D140022900301E0F5F0E50884900300F07C00B4
:103D24007D0322F005088518828519832274EC121C
:103D34001DA474FE121D4D8A088B098C0E8D0FEA8A
:103D44002405FEEB3400FF851882851983AC82AD0F
:103D5400838E828F83123E2A1207338A0A8B0BEEDC
:103D640024181235ADEA450B7003023DFB123F6D7A
:103D74005032851882851983123E2A1208478A1008
:103D84008B11EA4511606B7912AC0AAD0B85088280
:103D9400850983123E2A851082851183121DA2E9AA
:103DA400F50A7058E4F50AF50B780A121FB78E82EB
:103DB4008F83A3A3E0F50A780A121FB7EE24031237
:103DC400407C780A121FB78E828F83123E34120809
:103DD400597406121D63E9F50A7021850C82850D5C
:103DE40083E0701F850882850983123E2A1204BD70
:103DF4008011750A0E8009750A018004E50A6003C2
:103E040012408B850C82850D83E06004790080026A
:103E1400A90A7402121D637F0C021E767C007D03C6
:103E2400850A82850B83123E2E22E0FAA3E0FB2250
:103E3400E0FCA3E0FD850882850983123E2E2274EE
:103E4400EE121DA474FE121D4D8A088B098C0C8D74
:103E54000DEA2405FEEB3400FF750E0085188285FB
:103E64001983AC82AD838E828F83123E2A1207336C
:103E74008A0A8B0BEA450B7003023F59123F6D50BF
:103E840035851882851983123E2A1208478A0E8BBB
:103E94000FEA450F605E7912AC0AAD0B8508828586
:103EA4000983123E2A850E82850F83121DA2E9F52D
:103EB4000E6003023F5C850882850983124173AA60
:103EC4000AFB12083B8A108B11A810A911E849704B
:103ED4001E7AFF7BFF12083B8A108B11A810A911D0
:103EE400E849606C88828983E50AF0A3E50BF075E4
:103EF4000A008007750E0E805F050A9002E6E0FA5C
:103F0400E50AC39A504AE50A75F017A4FAABF0889B
:103F1400828983A3A3E02AFAA3E03BFB8A828B83F2
:103F2400124085EC4D70D2750A17750B00780A1291
:103F34001FB7EEFCEFFD120FC17402121D63EEFCFD
:103F4400EFFD850882850983123E2A1204C380147A
:103F5400750E098003750E011248D9850C82850DF2
:103F640083124098A90E023AC4E5082402F508E534
:103F7400093400F5098A828B83A3A3A3E0A2E52276
:103F84007404121D637F0A021E7674EC121DA48C45
:103F9400108D11EA2405F50CEB1235B0750F00EA0B
:103FA4002402F50AEB12407F850A82F583123E2A29
:103FB40012083B8A088B09EA4509700302407175AF
:103FC4000E008071850C82850D83E06401704F8E34
:103FD400828F83A3A3121FCE8E828F83A3A3A3A356
:103FE400E0F5127513007812121FB7EE2405F512CE
:103FF400EF3400F5137812121FB7123E2412085939
:104004007406121D63E9F50F6014850C82850D8317
:10401400E4F01248D98510828511831240987C17E8
:104024007D007900EEFAEFFB120FD98E828F83E4C4
:10403400F0A3F0050E9002E6E0F8E50EC398501EDA
:10404400E50E75F017A4F8A9F0850882850983A305
:10405400A3124A66124085EC4D6003023FC88508EE
:104064008285098374FFF0A3F0E50F7006123E24E5
:104074001204C9A90F023E1BF50AEF3400F50B2206
:10408400A3E0FCA3E0FD228E828F831248E1850E1B
:1040940082850F83E8F0A3E9F022C082C0839002F6
:1040A400E2E06A7003A3E06B70067AE27B028004AC
:1040B4007A007B0002338BC082C08378008C828DAF
:1040C40083E06A7003A3E06B7010E875F003A4F852
:1040D400A9F0EC28FAED39FB8015088C828D83A3B6
:1040E400A3A3E06A7003A3E06B60DF7A007B0002A5
:1040F400338B74F6121DA41208058A828B83E58221
:10410400458370067A007B008007A3A3A3A3123E15
:104114002A02478A74F2121DA4E9FE740E121D9835
:104124001241737410121D981245EB8C828D83E03A
:1041340064027036A31248E7F50CA3E0F9A80C74E6
:10414400026870037429697021750C02750D00787A
:104154000C121FB77808121FB7780A121FB7EEF9AE
:1041640012087D7406121D638002790102480EE074
:10417400F50AA3E0F50B2274E8121DA474FB121DCA
:104184004DE9851882851983F08A168B17ECFEEDAC
:10419400FF751000741D121D981248DD741D121D48
:1041A400981240988E828F83A3A3A3E0A2E4502D9B
:1041B400741D121D98123E2A1208478A828B83E5C9
:1041C40082458370030245BC790AEEFCEFFDAA1612
:1041D400AB17121DA2E9F51060030245BF741F124C
:1041E4001D981245EB7421121D9812417374231209
:1041F4001D98E0F50EA3E0F50F8E828F83E0640234
:10420400600302456AA31248DD850882850983A3F9
:10421400858212858313EE24061235AD8882898344
:10422400E0FAA3E0F9EA2400F514E439F51578146A
:104234001220410100002801285F420700022824BF
:10424400430328914200295B44012986440229271B
:104254004403295B44042905456A45E50E450F607E
:1042640003024565850C82850D831245E0FAE9FB5E
:104274008A828B83E0850A82850B83124616121F7D
:10428400B78A828B83A3E0FCA3E00244EFE50E45EA
:104294000F6003024565850A82850B837401F01261
:1042A40045F3850882850983F07C007D008E828F2A
:1042B40083A3A3A3A3E02401FAA3E03400FB120721
:1042C40033EA4B60418A828B83E02402F8850A82B8
:1042D400850B83E028F0EA2404F8EB3400F98882A3
:1042E4008983E085128285138312462812461612AA
:1042F4001FB78A828B83124084E5082403FAE509F8
:104304003400FB0244F4850A82850B83E02404F024
:104314007C047D007900AA12AB13120FD90245BFA9
:10432400E50E450F60030245651245F3FEA3E0FF69
:10433400850A82850B837404F0EE850882850983DF
:10434400F0EF851282851383F07403121D98AC82FA
:10435400AD83EEFAEFFB1207338A0C8B0DEA450DA1
:1043640070030244088A828B83A3A3123236740139
:10437400121D9885820E85830F780E121FB774055F
:10438400121D98121FCE7CFF7DFF12073974041290
:104394001D638B0FEA450F7033850C82850D8312E4
:1043A40045CB121FB7850C82850D83A3121FCE7CCB
:1043B400027D007AC47B841205657404121D63E9CE
:1043C400700A7401121D9874FFF0A3F08E828F831B
:1043D400E064027039750C02750D00780C121FB779
:1043E4008E828F83124084E5082404FAE5093400A0
:1043F400FB120FC17402121D63850A82850B83E0D0
:10440400240280097401121D98EEF0A3EFF07401E8
:10441400121D981245DCF07401121D98A31245D4A4
:1044240002455FE50E450F6003024565850C8285F4
:104434000D83124085AA16AB17120871850A82856E
:104444000B837402F0EA850882850983F085128261
:10445400851383EB024562E50E450F600302456553
:104464001245F3F8A3E0F9850A82850B837402F000
:10447400E8850882850983F0E98512828513830221
:104484004562850C82850D83123E2A120FBBEAFC1D
:104494008C82A882C3950EE4950F405FE8650E7088
:1044A40002E50F70047C008022851882851983E060
:1044B400FAE50E2AFAE50F3400FBC3EA98EB940000
:1044C4005003E08005E50ECCC39CFCEC850A828594
:1044D4000B83F08C0A750B00780A121FB7850C82C7
:1044E400850D83E0250EFCA3E0350FFDAA08AB097A
:1044F400120FC17402121D630245BF7510070245F5
:10450400BFE50E450F705A850C82850D831248DD78
:10451400850A82850B8374071232421245D4123203
:1045240042A3E0851282851383F0E82402FAE93479
:1045340000FB8A828B831245D41246031245DCA306
:1045440012460C1245E5F0E82405F8E93400F98830
:104554008289831245E5A3124628A3A3A3A3F0806E
:104564005A75100B8055741D121D98123E2A12089C
:10457400058A828B83E5824583603D1248DD880C81
:10458400890DE8450D6031780E121FB7780A121FA5
:10459400B77808121FB77406121D98E0F9EEFCEF05
:1045A400FDAA16AB17850C82850D83121DA2740615
:1045B400121D63E9F510800375100EA9107405121D
:1045C4001D637F10021E76E0F50E750F00780E2233
:1045D400E085088285098322124632221248E1E8E6
:1045E40022124632A3A322E0F508A3E0F5092285AE
:1045F4000C82850D83E0F8A3E0F5838882E022A392
:10460400A3F08A828B83A322F088828983A3A3A345
:10461400A322F08A828B8312461F22E0F50A750BCF
:1046240000780A22F088828983A312463222E08528
:104634000882850983A3A32274EE121DA474FE12BA
:104644001D4D8A0A8B0BECFAEDFB7414121D98E0D5
:10465400F510A3E0F5117416121D98E0FE741812FB
:104664001D98E0F50EA3E0F50F851882851983AC3B
:1046740082AD831207338A0C8B0DEA450D604985A0
:104684001882851983123E2A1208058A828B83E5D3
:10469400824583602FA3A31245EBE50845096024F6
:1046A400780E121FB77810121FB7EEF9AC0CAD0DCF
:1046B400AA0AAB0B850882850983121DA274041211
:1046C4001D638006790E80027901023AC474F612E1
:1046D4001DA474FE121D4D740C121D981245E08524
:1046E4001882851983F07401121D98E9F0E4F50825
:1046F400F5097808121FB77508027808121FB774F5
:1047040004121D988582088583097808121FB71240
:1047140008597406121D637402121D63806874F7CD
:10472400121DA4EAFEEBFF89087C197D03120871AF
:10473400EA5402600BA908EEFAEFFB120727800285
:10474400790102313E74F6121DA474FF6A70037479
:10475400FF6B70168C828D8312478FE4F08C828DF0
:1047640083A3A3A312478FA380181208418A088B3E
:1047740009A808A909E849600D8882898374FF1291
:104784003240A3A3E4F07F02021E7674FFF0A3F08C
:104794008C828D83A3A32274F6121DA41208418A6D
:1047A400828B83E58245836006A3A3E0FA80027AC4
:1047B400007B0080D174F2121DA48A088B09ECFEE0
:1047C400EDFF740E121D98E0F50A1208418A0C8B55
:1047D4000DA80CA90DE8497026EEFCEFFD7AFF7BCD
:1047E400FF1208418A0C8B0DA80CA90DE84970042E
:1047F4007911801688828983E508F0A3E509F08899
:10480400828983A3A3E50AF079007F06021E7674E9
:10481400EE121DA4EAFEEBFF8C088D09890C7414BA
:10482400121D981248DD7416121D98123E2A750D39
:1048340000E84960030248D17402650C6003024831
:10484400CC7412121D981248E7FCA3E0F9EC240082
:10485400F50EE439F50FEAF4F8EBF4F9EC58F8E561
:104864000F59F9E849705CE5082406F8ED3400F9BD
:10487400880A890B8882F5831248F21208718A101B
:104884008B11E50E65107004E50F65116042780E1A
:10489400121FB7850A82850B831248F212087774B7
:1048A40002121D63E9F50D7027780E121FB78508F3
:1048B40082850983A3A31248F012088F7402121D83
:1048C40063800D750D808008750D0D8003750D0BCB
:1048D400A90D023F898E828F831248E122E0F8A35A
:1048E400E0F9221248E188828983E022A3A3E0FC54
:1048F400A3E0FDEEFAEFFB2274E8121DA474E712A4
:104904001D4D851882851983EAF0A3EBF08C168D72
:1049140017890E7508007509007431121D98E0F5A9
:1049240012A3E0F5137433121D98E0F514A3E0F517
:10493400157435121D98E0F50FE50975F003A4F818
:10494400A9F0851882851983124A66E0F47003A3DE
:10495400E0F47003024A49EE2402F50CEF124A5CBB
:10496400E07003024A4985160A85170B780A121F5C
:10497400B7AC14AD15AA12AB131207F97402121DC9
:10498400638A0A8B0BEA450B7003024A49E4F5106B
:10499400F5117810121FB77406121D9885821085C0
:1049A40083117810121FB77409121D98858210851F
:1049B40083117810121FB7851282851383A3A3A3D2
:1049C400A3121FCE7914AC0AAD0B8E828F83123ED4
:1049D4002A1208537408121D63E97069850A8285D6
:1049E4000B83A3A3A3A31248DD7402121D981240E3
:1049F40098850C82850D83E0A2E05018A90E7402FC
:104A0400121D98AC82AD838E828F83123E2A1207C8
:104A14004BE94208850C82850D83E0A2E15026E52E
:104A24000FF50A780A121FBBA90E7403121D98AC65
:104A340082AD838E828F83123E2A1207457401123F
:104A44001D63E942080509E509C3940250030249BC
:104A54003DA90874190245C33400F50D850C82F58F
:104A64008322E028FEA3E039FF8E828F832274F232
:104A7400121DA4EAFEEBFF890B7401650B600E7432
:104A840002650B706A7901120A4BE97062EEFAEF63
:104A9400FB12083B8A088B09EA45096047750A003E
:104AA400800B7C177D007900120FD9050A9002E66D
:104AB400E0F8E50AC3985021E50A75F017A4F8A9AF
:104AC400F0850882850983A3A3E028FAA3E039FBD3
:104AD4008A828B8312339270C98508828509837414
:104AE400FFF0A3F07C197D03EEFAEFFB12086B02D2
:104AF400480E74F2121DA48A088B09ECFEEDFF74B3
:104B04000E121D98124173900E19E0F4603D7A095B
:104B14007B00120FEBEA4B60328A828B8374B1F014
:104B2400A3E4124605A3124603A3E508F0A3E5098E
:104B3400124B52EEF0A3EF124B52A3A3E50AF0A3DB
:104B4400E50BF0900E19E0F9120FF702480EF08A07
:104B5400828B83A3A3A3A3A322C082C0839061906A
:104B64007404F0A37448F0A37402F090618074405C
:104B7400F09061BC7403F09061877419F0906265E1
:104B8400741BF0906249E0C3941390619C400A74D2
:104B940009F090606674018007740DF0906066E41B
:104BA400F090619A7433F0A37455F09061A0743A54
:104BB400F090053FE064017009C2919003A6746708
:104BC40080059003A67461F09030FAE493906186B6
:104BD400F09030F4E493F46027E493540FF8906178
:104BE40085E0686012E5C654804449F5C6E59E54E4
:104BF4007F644970F8E8F053C680E59E547F70FAEC
:104C04007905120DA5024DB8C082C083E9540FF98D
:104C1400906185E0696012E5C654804449F5C6E5B3
:104C24009E547F644970F8E9F053C680E59E547F32
:104C340070FA024DB8C082C083E5A8F853A87E90EC
:104C44006181E4F0A3F0A3F0C2BA539AFEC289755D
:104C54009B00C2C275E90075910075BF0075A9116A
:104C640075B905906181F0A374C0F0A3E4F0D2BAE1
:104C7400439A0174805842A8024DB8C082C083741C
:104C8400F8121D4D9003A4E0F8A3E0F9E84970037D
:104C9400024DAD9003A4E054406023790885188246
:104CA400851983AA82AB83120C0785188285198320
:104CB400AA82AB831208FB9003A4E054BFF0E05433
:104CC400806010790C7A657B05120C079003A4E0D0
:104CD400547FF0E0A2E0503190619A7433F0A374F1
:104CE40055F09061A0743AF090053FE064017009BA
:104CF400C2919003A6746780059003A67461F012B4
:104D040009019003A4E054FEF0E054026031906184
:104D14009A743FF0A3745AF09061A0747FF09005E8
:104D24003FE064017009D2919003A67471800590EC
:104D340003A6746AF01209019003A4E054FDF0E0A4
:104D4400540460139030F8E493906186F0120907DC
:104D54009003A4E054FBF0E0540860139030F9E4AD
:104D640093906186F01209079003A4E054F7F0E0F1
:104D7400541060139030FAE493906186F01209079E
:104D84009003A4E054EFF0E05420600A1209079065
:104D940003A4E054DFF0A3E05401600D120B2F12C2
:104DA400090D9003A5E054FEF07408121D63024D32
:104DB400B8F0A3F0D083D08202013574EC121DA4A4
:104DC40074F4121D4D851882851983AC82AD8375E8
:104DD40083847582697404121C609030F893F460C3
:104DE40003024F4B907808E0C394025003024F2B08
:104DF4007404121D98AC82AD83758384758201742A
:104E040008121C6085188285198385821285831394
:104E14007404121D98AC82AD83750EFF750FFF7F6D
:104E2400FF7E00750C48750D78801574086E70034C
:104E3400024EBF74096E7003024EBF740A6E607B2B
:104E4400850C82850D837808121C1D8C828D83A9A4
:104E540009E50AC9F8881074187808121B4BE51084
:104E64004508F8C3E098A3E099850C82850D837802
:104E740008121C1D40188C828D8374187808121B2C
:104E84004BE5104508F8E0C398F8A3E0801C7418BB
:104E94007808121B4BE5104508FAE9FB8C828D83D8
:104EA400E0F8A3E0F9EAC398F8EB99F9C3E8950EA2
:104EB400E9950F5006880E890FEEFF0EE50C2404C9
:104EC400F50CE50D3400F50DEEC394135003024EBA
:104ED4002F74FF650E700474FF650F60238F0874D0
:104EE400027808121D3A74482508F5827478350949
:104EF400F5837808121C1D851282851383E508F05A
:104F0400EC2402FCED3400FD851282851383A38515
:104F14008212858313740C121D98E5826C7003E56C
:104F2400836D6003024E1D7508017509007808122F
:104F34001FB77402121D98AC82AD837A3E7B0C12AB
:104F4400125B7402121D63740C121D637F0C021E2B
:104F540076C082C0839061AE7468F0A3746AF090E6
:104F6400624574FBF0A304F053F4FD43FE02900584
:104F74003F7401F09061A0E0643A90619A702374E8
:104F840033F0A37455F09061A0743AF07401640195
:104F94007009C2919003A6746780289003A6746177
:104FA4008021743FF0A3745AF09061A0747FF07470
:104FB4000164017009D2919003A674718005900375
:104FC400A6746A024DB77F08021E76C082C0839021
:104FD40004F1E06401700A9004F6E06004790C8046
:104FE400027900024DB8C082C08375E1F19004F4E7
:104FF400E0605B14600914605F14605714705E1203
:105004000B419004EAE0F97AEB7B04120D277AD67F
:105014007BBE7C897D8E120D5D7A557B557C557DDA
:1050240000120D339004F5E0F9120D3F7901120DD1
:10503400999004E8E0F8A3E0C82416F582E8340067
:10504400F5837459F0A3740BF07900024DB8120B78
:105054004780AF120B4D80AA120B5380A5791280A2
:10506400EA74F0121DA475D90D9004D5E0A2E0E411
:10507400331313F89004EAE0C4333354C0484401B2
:10508400F5D978E8790488828983A3A3A3E0F5D9C4
:1050940088828983A3A882A983E864EE7003E96403
:1050A4000470E378D5790488828983A3E0F5D988EC
:1050B400828983A3A882A983E864DB7003E964047A
:1050C40070E575E1959004D5E0F97AD67B04120D6C
:1050D4002D900E3B74EDF0A3740AF0A3744FF0A36B
:1050E400740CF0A3744FF0A3740CF0A3744FF0A3EA
:1050F400740CF0A374F3F0A3740AF0A3744FF0A338
:10510400740CF0A3740BF0A3740BF0900E49744F5D
:10511400F0A3740CF0A3744FF0A3740CF0A3744FB9
:10512400F0A3740CF0A3744FF0A3740CF0A3744FA9
:10513400F0A3740CF0A3744FF0A3740CF09004F477
:10514400E064019004E87012E0F8A3E0F58388823B
:10515400A3A37508007509088010E0F8A3E0F5839F
:105164008882A3A3750804750900750A00750B00ED
:105174007808121B96750CFF750DFF750EFF750FE1
:10518400007808790C121BE49004E8E0F8A3E0C866
:10519400240EF582E83400F5837808121C2C900460
:1051A400E8E0F8A3E0C82414F582E83400F5837439
:1051B40013F09003A27402F0024FCA74F7121DA4F4
:1051C4009004FAE02407F5D99004EAE0C433335498
:1051D400C0F5D978E8790488828983A3A3A3E0F58C
:1051E400D988828983A3A882A983E864EE7003E93D
:1051F400640470E39004FAE0601F78E87904FAE844
:105204002413F582E93400F583E0F5D98882898393
:10521400A3A882A9831AEA70E690051AE02407F588
:10522400D99004EAE0C4333354C04404F5D978E88F
:10523400790488828983A3A3A3E0F5D9888289832A
:10524400A3A882A983E864EE7003E9640470E39080
:10525400051AE0601F78E87904FAE82433F582E956
:105264003400F583E0F5D988828983A3A882A983D1
:105274001AEA70E675E195900E3B74F9F0A3740A8E
:10528400F0A3744FF0A3740CF0A3744FF0A3740C48
:10529400F0A3744FF0A3740CF0A374F3F0A3740A96
:1052A400F0A3744FF0A3740CF0A3740BF0A3740B6D
:1052B400F0900E49744FF0A3740CF0A3744FF0A354
:1052C400740CF0A3744FF0A3740CF0A3744FF0A308
:1052D400740CF0A3744FF0A3740CF0A3744FF0A3F8
:1052E400740CF09004E8E0F8A3E0C8240EF582E81A
:1052F4003400F58374FFF0A3F0A3F0A3F09004E866
:10530400E0F8A3E0C82414F582E83400F5837412AD
:10531400F09003A27401F0FF021E7674F7121DA42C
:105324009004FAE02407F5D99004EAE0C433335436
:10533400C04402F5D978E8790488828983A3A3A3B9
:10534400E0F5D988828983A3A882A983E864EE70F2
:1053540003E9640470E39004FAE0601F78E87904D8
:10536400FAE82413F582E93400F583E0F5D988825C
:105374008983A3A882A9831AEA70E675E195900E41
:105384003B7405F0A3740BF0A37405F0A3740BF045
:10539400A37405F0A3740BF0A37405F0A3740BF0CD
:1053A400A37405F0A3740BF0A37405F0A3740BF0BD
:1053B400A3740BF0A3740BF0900E49744FF0A37414
:1053C4000CF0A3744FF0A3740CF0A3744FF0A37407
:1053D4000CF0A3744FF0A3740CF0A3744FF0A374F7
:1053E4000CF0A3744FF0A3740CF09004E8E0F8A35D
:1053F400E0C8240EF582E83400F58374FFF0A3F0CE
:10540400A3F0A3F09004E8E0F8A3E0C82414F58224
:10541400E83400F5837414F09003A27404F0025687
:10542400E674F7121DA49004FAE02407F5D9900459
:10543400EAE0C4333354C04406F5D978E8790488E3
:10544400828983A3A3A3E0F5D988828983A3A88250
:10545400A983E864EE7003E9640470E39004FAE05D
:10546400601F78E87904FAE82413F582E93400F53A
:1054740083E0F5D988828983A3A882A9831AEA7074
:10548400E690051AE02407F5D99004EAE0C4333322
:1054940054C04404F5D978E8790488828983A3A3A5
:1054A400A3E0F5D988828983A3A882A983E864EE5E
:1054B4007003E9640470E390051AE0601F78E879EA
:1054C40004FAE82433F582E93400F583E0F5D98859
:1054D400828983A3A882A9831AEA70E675E195906C
:1054E4000E3B74FFF0A3740AF0A3744FF0A3740C82
:1054F400F0A3744FF0A3740CF0A3744FF0A3740CD6
:10550400F0A3744FF0A3740CF0A3744FF0A3740CC5
:10551400F0A3740BF0A3740BF0900E49744FF0A336
:10552400740CF0A3744FF0A3740CF0A3744FF0A3A5
:10553400740CF0A3744FF0A3740CF0A3744FF0A395
:10554400740CF0A3744FF0A3740CF09004E8E0F82A
:10555400A3E0C8240EF582E83400F58374FFF0A3B9
:10556400F0A3F0A3F09004E8E0F8A3E0C82414F555
:1055740082E83400F5837415F09003A27403F002FA
:1055840056E6C082C0839004E8E0F8A3E0C824068D
:10559400F582E83400F583E4024DB574F7121DA4D6
:1055A4009003D0E0F875F003A4C8AAF02AF974D2E5
:1055B40028F8740339F9E82405FAE93400FB8A82EF
:1055C4008B83E0FCA3E0FD88828983A3A3A3A3A328
:1055D400A3A3A3A3ECF0A3EDF088828983A3A3A3E0
:1055E400A3A3A3A3E024FFF8A3E034FFF98A828BEA
:1055F40083E8F0A3E9F00256E674F7121DA4EAFE6C
:10560400EBFF9061D0E060030256DA75D90E75D9CC
:105614000375D904EE248BF582EF3400F583E5821B
:105624002408F8E5833400F9E0F5D9A3E86582702D
:1056340003E9658370F2EE2483F582EF3400F58389
:10564400E5822404F8E5833400F9E0F5D9A3E8659C
:10565400827003E9658370F275E1957908EE248B15
:10566400FAEF3400FB120BFB7904EE2483FAEF34D7
:1056740000FB120BFB7C00EEF8EFF9ECFAC3E49AA2
:10568400FA95E0FBEE2AFAEF3BFBEA248AF582EB7B
:105694003400F583E0C0E0E824AAF582E93400F59B
:1056A40083D0E0F00C88828983A3A882A983ECC309
:1056B400940840C7EE246FF582EF3400F583E0F8D8
:1056C400A3E0F9EE2471F582EF3400F583E8F0A34A
:1056D400E9F07901800279008008F0EEA2E092AF4F
:1056E40079007F01021E76C082C08375D90275D904
:1056F4000375D90575E195EA246FF582EB3400F55D
:1057040083E0F8A3E0F9EA2471F582EB3400F58331
:10571400E8F0A3E9F07901024DB874F6121DA4EA89
:10572400FEEBFF9005457406F0750845750905788C
:1057340008121FB77C017903120C437402121D6313
:1057440075D90675D903758245758305E0F5D9A326
:10575400E582644A7004E583640570F075E1959010
:1057640003A2E06408701EEE246FF582EF3400F5A6
:1057740083E0F8A3E0F9EE2471F582EF3400F583B9
:10578400E8F0A3E9F079010259EC74F6121DA4EAD9
:10579400FEEBFF9061D0E070667801900545740BD4
:1057A400F09003A2E064077019750845750905783F
:1057B40008121FB77C017903120C437402121D6393
:1057C4007805740128F5D975D90375824575830563
:1057D400E8FAE0F5D9A31AEA70F875E195EE246FBA
:1057E400F582EF3400F583E0F8A3E0F9EE2471F5D7
:1057F40082EF3400F583E8F0A3E9F07901800279BF
:10580400000259EC74F7121DA4EAFEEBFF75D903EC
:1058140075D90375D90DEE24DDF582EF3400F583D7
:10582400E0F5D975E1957904120D63EE246FF582E4
:10583400EF3400F583E0F8A3E0F9EE2471F582EF8C
:105844003400F583E8F0A3E9F079010256E674F632
:10585400121DA4EAFEEBFF9061D0E0F87480C398B7
:10586400FAEE2482F582EF3400F583E060047804D4
:1058740080027800E8240BF8EAC398500302591711
:105884007D09900545EDF0EE24E2F8EF3400F97A55
:10589400467B057C0888828983E08A828B83F08832
:1058A400828983A3A882A9838A828B83A3AA82ABD9
:1058B400831CEC70E0EE2482F582EF3400F583E083
:1058C400601D7508457509057808121FB77C0979AC
:1058D40003EEFAEFFB120C437402121D637D0D7488
:1058E400012DF5D975D9037582457583058D08E0B9
:1058F400F5D9A31508E50870F675E1957904120D3C
:1059040063EE241DF582EF3400F583E4F0A3F0790F
:1059140001800279000259EC74F6121DA4EAFEEB30
:10592400FF9061D0E0F87480C398FAEE2482F58287
:10593400EF3400F583E06004780480027800E82402
:1059440008F8EAC39850030259EA780690054574AA
:105954000CF09003BFE0900546F09003C0E0900582
:1059640047F09003C1E0900548F09003C2E0900531
:1059740049F09003C3E090054AF0EE2482F582EFEB
:105984003400F583E0601B75084575090578081235
:105994001FB77C067903EEFA120C437402121D63DE
:1059A400780A740128F5D975D9037582457583057C
:1059B4008808E0F5D9A31508E50870F675E195792E
:1059C40004120D63EE246FF582EF3400F583E0F8E2
:1059D400A3E0F9EE2471F582EF3400F583E8F0A337
:1059E400E9F07901800279007F02021E7674F612D2
:1059F4001DA4EAFEEBFF9061D0E0F87480C398FA2E
:105A0400EE2482F582EF3400F583E06004780480AC
:105A1400027800E82404F8EAC3985003025ACB78C9
:105A240002900545E8F0EE24F4F582EF3400F583A6
:105A3400E0900546F0EE2482F582EF3400F583E031
:105A4400601B7508457509057808121FB77C027933
:105A540003EEFA120C437402121D637806740128D3
:105A6400F5D975D9037582457583058808E0F5D99C
:105A7400A31508E50870F675E195EE2473F582EF39
:105A84003400F583E4F0EE247FF582EF3400F583EF
:105A9400E4F0EE241DF582EF3400F583E4F0A3F086
:105AA4007904120D63EE240DF582EF3400F583E0E2
:105AB400F8A3E0F9EE2471F582EF3400F583E8F001
:105AC400A3E9F07901800279000259EC74F6121D01
:105AD400A49061D0E0F87480C398FCEA2482F58233
:105AE400EB3400F583E06004780480027800E82455
:105AF40004F8ECC398405B79029005457407F0EA1A
:105B040024F5F582EB3400F583E0900546F0EA24B1
:105B140082F582EB3400F583E06018750845750959
