:020000040000FA
:0600000002011D0222C7EF
:03002B00022ADDC9
:03003300022ABFDF
:03003B00022B3C59
:03004300022A6D21
:0300530002233A4B
:03006B00022B0164
:03007B000229FB5C
:10008300022133E5C754F84401F5C7790122000082
:100093000080FB120086B90003020107E47921788E
:1000A30008B800028004F709D8FCE479297802B87B
:1000B30000028004F709D8FCE490028178B1790B3F
:1000C3008002F0A3D8FCD9FA781A90014D7A01BACC
:1000D30000028007E493A3F608DAF9900D31AA82AF
:1000E300AB8390014E783A79048015E493A3AC82F4
:1000F300AD838A828B83F0A3AA82AB838C828D83A8
:10010300D8E9D9E77582137583C4740312012F7577
:100113008291758300740012012F75D000758137A9
:10012300751881751902759F00020096C09FF59F8F
:10013300E473D09F22D083D082C09FE493C0E07445
:100143000193C0E0740293F59F2201FF0000B40005
:100153000028002800283075A000A000A000A000FF
:1001630000080008E001F00010001000100010006B
:100173001000100050005000500010001000D00775
:100183000000000000000F000100050030750700AB
:100193001000010081FF00000000FF8506A3068B0D
:1001A30006FF02020208025000A0000000E803025A
:1001B300E184010000A68402C184010000880D02CD
:1001C300B584010000B30202C184010000890D025D
:1001D300F584010000C90202C1840100008A0D02F6
:1001E300DF84010000CB0202C1840100008B0D02F9
:1001F300D784080000CC0202C1840100008C0D02E8
:10020300D5840100008D0DFF0100FF2002E1840170
:100213000000A98402C184010000F10D02C584001D
:100223000000000002B98403000019034F0C4F0CB7
:100233004F0C4F0C4F0C4F0C4F0C4F0C4F0C4F0CE3
:100243004F0C4F0C4F0CE30EFB0EDD0EFFFFE001D6
:10025300110199010F1264040102E184010000AC51
:100263008402C1840100003B0E02DB840100003CD8
:100273000E02B9840300006F0902B7840100003D38
:100283000E020202020202020202010D000000102D
:100293000102E184010000158402C18401000067AA
:1002A3000E02BD84010000750902C18401000068CB
:1002B3000E02E584010000B88302C18401000069D5
:1002C3000E02CB84010000828302C1840100006A14
:1002D3000E02CD84010000A98202C1840100006BDB
:1002E3000E02E384010000858202C1840100006CD8
:1002F3000E02ED84010000978202C1840100006DAB
:100303000E02EB84010000BB8202C1840100006E77
:100313000E02E984010000908302C1840100006F92
:100323000E02E784010000700E01E803053F100A86
:10033300FF00013075030201060000000000000009
:1003430000000000000000000000000000000000AA
:100353000000000000FFFF0600800CE80314090002
:10036300000000000000000000000000000000008A
:100373000000051250002003020A000201060302D6
:10038300F0FF7A656B657A616E670000000000001C
:10039300000000000000000065140000000053147A
:1003A3006B140A436861726163746572697374697B
:1003B300632031000A436861726163746572697313
:1003C3007469632032000843686172616374657203
:1003D30069737469632033001043686172616374E5
:1003E30065726973746963203400024368617261E2
:1003F30063746572697374696320350002E1840173
:100403000000AF8402C184010000880F02F184035D
:1004130000000A0D02BF84010000890F02C184019C
:1004230000009A0F02F3840300001E0D02BF840133
:1004330000009B0F02C184010000AC0F02BB8403C8
:1004430000001F0D02BF84010000AD0F02C1840133
:100453000000BE0F02D184000000250D02B9840301
:100463000000260D02BF84010000BF0F02C18401FA
:100473000000D00F02D3840400002C0D02BF8401BE
:100483000000D10F12013839FE0212013850FE026A
:1004930012013881FE02120138BCFE02120138E655
:1004A300FE0212013810FF0212013827FF02120167
:1004B300383EFF0212013855FF021201387EFF0257
:1004C30012013891FF02120138A7FF02120138BA54
:1004D300FF02120138E1FF02120138BBB50212011B
:1004E30038BFB602120138F7B6021201381AB70242
:1004F30012013825B70212013848B70212013857E2
:10050300B8021201382CB902120138A7B90212013C
:10051300382FBA021201386ABA02120138A1BA029C
:100523001201382FBB0212013808BC0212013868CD
:10053300BC0212013873BC02120138F2BC02120170
:1005430038F5BC02120138F8BC0212013887BD022B
:100553001201388ABD02120138BABD02120138E411
:10056300BD02120138D2BE0212013884BF02120149
:100573003800EC0212013828EC0212013856EC0262
:100583001201388DEC02120138EBEC0212013836FD
:10059300ED0212013881ED02120138C1ED021201A0
:1005A3003807EE0212013835EE02120138F2EE027C
:1005B300120138FCEE0212013809EF021201383C35
:1005C300EF0212013808F00212013814F00212018E
:1005D300382CF00212013836F00212013855C003EC
:1005E30012013863C0031201387BC0031201389330
:1005F300C00312013844CD01120138F0CD011201BC
:10060300386BCE011201388CCF01120138C8CF01EB
:1006130012013871D00112013858D101120138BCCE
:10062300D20112013813D30112013894D3011201FC
:100633003884D401120138D1D40112013857D501BD
:1006430012013889D5011201389DD701120138DF13
:10065300D701120138FDD70112013880D8011201E8
:100663003854D9011201381CDA01120138D0F801CB
:10067300120138A3F9011201384CFA011201389F13
:10068300FA011201384FFB01120138DBFB011201A1
:1006930038C7FC01120138F6FC0112013809FE01CA
:1006A30012013851FE0112013826FF01120138628E
:1006B300FF011201387EFF0112013830C30312011A
:1006C30038B99803120138CF9803120138F598030B
:1006D300120138119A031201381B9A031201385080
:1006E3009B03120138489C03120138D9E602120118
:1006F3003809E8021201383CE80212013886E802A0
:100703001201384DEA021201381DAE011201388779
:10071300AE01120138E6AF01120138F6AF01120142
:100723003823B0011201387AB00112013823B10124
:100733001201382AB201120138F4B20112013854FD
:10074300B40112013897B4011201383CB50112010A
:100753003889B501120138AFB501120138BDB701AF
:10076300120138C2B701120138C7B9011201381496
:10077300BA0112013887BA01120138BABA0112015B
:10078300385CBB0112013805BC011201383DBC01C4
:1007930012013840BC0112013888BC01120138C86B
:1007A300BC011201381FBD0112013857A203120107
:1007B300386FA203120138B7A203120138CDA20386
:1007C30012013814A30312013828A403120138B507
:1007D300A40312013800A503120138B02B00120143
:1007E30038BC2B00120138F72B001201383C2C00C7
:1007F300120138FC2C00120138822D00120138E757
:100803002D00120138132E001201384C2E00120154
:10081300388A30001201386E320012013854340025
:10082300120138973500120138E53700120138F705
:100833003800120138423A00120138523B001201CB
:10084300386F3B00120138AA3B00120138CC3B0041
:100853001201382F3C00120138F040001201388594
:100863004100120138D64100120138FD4100120146
:10087300384F42001201386D4200120138C742005E
:10088300120138B04300120138264500120138AA7C
:10089300450012013857F50212013861F5021201C1
:1008A30038A4F502120138BFF5021201384FF602DF
:1008B30012013877F602120138B4F602120138EB4E
:1008C300F60212013814F70212013889F7021201F5
:1008D300389EF702120138B3F702120138E4F70227
:1008E300120138F8F7021201381DF80212013857C5
:1008F300F80212013883F80212013806F9021201D4
:10090300384FF90212013879F902120138A4F902B9
:10091300120138DD7E00120138E8A80212013816F0
:10092300A90212013864AA0212013844AB0212016F
:100933003863AB02120138E0AB0212013823AC0278
:1009430012013879AD021201383AAE02120138C1F0
:10095300B00212013862B10212013858B202120118
:100963003855B302120138AFB4021201383AB50256
:10097300120138D0BA0312013839BB031201388D82
:10098300BB03120138B4BB03120138E5BB031201E8
:1009930038CCF90212013839FA0212013880FA020E
:1009A30012013898FB0212013894FC0212013877C5
:1009B300FD02120138F5BF0212013837C0021201DD
:1009C3003809C102120138E2C102120138DCC20245
:1009D300120138BEC30212013827C402120138DDE6
:1009E300C40212013851C502120138BDC5021201F9
:1009F30038E6C50212013860C602120138F9C60290
:100A03001201385EC70212013873C702120138B9E6
:100A1300C702120138D2C70212013837C8021201C5
:100A2300383AC8021201385E9F03120138869F03C9
:100A3300120138C49F0312013882A003120138E95E
:100A4300A00312013805A1031201382DA1031201DD
:100A5300385DA1031201386CA103120138E9A10327
:100A63001201380FA2031201380CBE01120138EA39
:100A7300BF011201381CC20112013858C201120110
:100A83003885C2011201386FC301120138BAC3019C
:100A930012013805C40112013817C4011201385775
:100AA300C4011201388CC401120138DAC4011201E5
:100AB3003809C5011201382CC50112013879C50165
:100AC300120138FEC50112013818C8011201385746
:100AD300CA0112013898CA011201383ACC01120135
:100AE300387BCC01120138EECC01120138D39B02C2
:100AF300120138D19C021201386AA3021201388B09
:100B0300A50212013856A702120138BEA80212012B
:100B130038114600120138C04600120138ED460074
:100B230012013833470012013873480012013809A3
:100B33004A00120138834A001201389E4A0012010A
:100B430038194B00120138734C00120138D34D0091
:100B5300120138D94E001201383A500012013853AD
:100B63005000120138B150001201389F5100120198
:100B730038D25100120138425200120138BC5200DF
:100B8300120138065300120138D05300120138A560
:100B930054001201388455001201380F5600120117
:100BA300387D5600120138F156001201381C5700E7
:100BB300120138DB57001201384059001201385D29
:100BC30059001201387C59001201386D5A00120184
:100BD30038925A00120138BC5A00120138375B00B0
:100BE300120138915B00120138FA5C00120138A837
:100BF3005D00120138E95D00120138FF8D02120118
:100C0300384D8E02120138598E02120138378F0285
:100C1300120138688F02120138998F0212013819B4
:100C23009002120138519002120138A3900212016E
:100C330038E09002120138FD920212013823950226
:100C43001201380E9702120138F89802120138F394
:100C5300FF011201380A9A011201383A9A0112016E
:100C63003813A10112013898A20112013895A80185
:100C73001201387DA901120138BAA901120138DD28
:100C8300A9011201380EAA0112013817AA01120193
:100C93003821AA011201380FAB0112013805AC014A
:100CA300120138FB8401120138FA8801120138005D
:100CB30089011201383B9001120138549501120148
:100CC30038EB940312013881950312013897950389
:100CD3001201380D9603120138819603120138BFB1
:100CE3009603120138339703120138AC97031201AC
:100CF30038B59703120138C19703120138D6970309
:100D03001201381498031201382A98031201388902
:100D13009803120138AA8803120138B78803120115
:100D230038D188031201381089031201384E890320
:100D3300120138B38903120138C88903120138D369
:100D43008903120138E08903120138F7890312017C
:100D530038058A03120138108A031201381C8A03EA
:100D63001201382B8A03120138368A0312013859CB
:100D73008A03120138008B03120138108B0312010E
:100D8300382A8B03120138478B03120138638B0314
:100D9300120138888B03120138938B03120138A890
:100DA3008B03120138BC8B031201381D8C03120113
:100DB30038238C03120138298C031201382F8C033A
:100DC300120138478C031201387A8C03120138A6BA
:100DD300EA011201382AEB01120138D9EB011201A1
:100DE3003838ED0112013859EF0112013845F0018D
:100DF3001201387AF0011201389CF0011201384BCC
:100E0300F10112013843F3011201386CF3011201AD
:100E130038FEF30112013830F4011201383DF401B8
:100E230012013894F401120138BAF401120138277F
:100E3300F7011201382AF80112013882F801120170
:100E43003835DC011201383FDD0112013826DE019D
:100E530012013830DE0112013852DE011201385E10
:100E6300DE01120138F7DF0112013826E001120119
:100E73003842E1011201389BE10112013801E3011B
:100E8300120138E0E3011201383CE401120138A9F0
:100E9300E401120138E4E40112013823E5011201EF
:100EA30038DCE701120138F6E70112013882E80164
:100EB30012013890E801120138E9E801120138F70C
:100EC300E8011201386AE901120138CEE901120181
:100ED3003818EA01120138AF7300120138D17300D8
:100EE300120138F775001201380C79001201382409
:100EF3007A00120138D77A00120138B97B00120147
:100F030038E4B20312013809B3031201387BB30387
:100F1300120138FED80212013807D9021201381023
:100F2300D902120138E7D90212013898DB02120103
:100F330038CEDB0212013808DC021201383EDC0233
:100F430012013878DC02120138ACDC02120138D805
:100F5300DC0212013821DD021201385BDD021201CD
:100F630038A4DD02120138FCDD0212013831DE0241
:100F73001201388CDE02120138C6DE021201381764
:100F8300DF021201384DDF0212013887DF0212013E
:100F930038B5DF02120138D8DF02120138EDC10380
:100FA30012013819C20312013874C2031201387EC8
:100FB300C2031201388EC2031201385EC802120145
:100FC3003868C802120138A6C802120138EFC802F5
:100FD30012013829C90212013883C902120138A447
:100FE300C9021201387CCC0212013885CC021201ED
:100FF30038D2CC02120138FBCC0212013805CD02E3
:1010030012013871CD0212013803CE021201384D9C
:10101300CE0212013883CE021201380FCF02120121
:101023003850CF0212013887CF0212013899CF020C
:10103300120138B8CF02120138C1CF021201388E23
:10104300D00212013872BE03120138F3B003120149
:101053003829B1031201385FB103120138AAB20370
:1010630012013898C203120138AEC203120138B814
:10107300C20312013802C303120138B4C3031201BD
:1010830038BDF002120138D2F00212013882F102A7
:10109300120138C2F102120138DBF10212013816D3
:1010A300F20212013863F20212013895F2021201C0
:1010B30038D7F202120138D8F4021201384AF50285
:1010C300120138CDB703120138F6B70312013825E0
:1010D300B803120138BDB803120138D5B8031201A1
:1010E3003817B9031201385CB90312013867B90321
:1010F30012013808BA03120138E2AE03120138EBC9
:10110300AE031201385CAF0312013870AF03120152
:1011130038C5B003120138E7B003120138529C03FB
:10112300120138829C03120138C99C0312013874DE
:101133009D03120138099E03120138919E03120187
:10114300382AA5031201384FA50312013879A503E4
:101153001201386BC403120138195E001201387E84
:1011630060001201381F6200120138D362001201BD
:1011730038666300120138EB630012013810640013
:10118300120138666700120138EC67001201381F3C
:1011930069001201385969001201388E6900120181
:1011A300384E6B00120138AB6B00120138F46B0040
:1011B3001201385F6C00120138D06C001201380242
:1011C3006D001201381A6D00120138636E001201AE
:1011D30038736E001201388E6F00120138B06F0041
:1011E300120138E66F001201389A71001201382794
:1011F30072001201386672001201388A73001201FC
:10120300382CC1031201383DC103120138E2C10376
:101213001201380CC5031201384BC503120138FD06
:10122300C50312013869BF0312013879BF031201E4
:101233003894BF0312013848C003120138F6A703DC
:1012430012013827A80312013811AA031201386EBC
:10125300BD03120138F3BD0312013859BE03120155
:10126300382BBC031201385FBC0312013888BC035E
:10127300120138FFBC031201382BB6031201385494
:10128300B603120138BAB603120138DAB6031201F3
:10129300382BB70312013886B703120138C0B703DE
:1012A300120138C3B7031201385C84031201389565
:1012B30084031201380785031201381C85031201C8
:1012C30038478603120138C386031201388987031E
:1012D300120138A88703120138CF87031201380C93
:1012E3008803120138248803120138758803120118
:1012F30038F78C031201380E8D03120138888D03E1
:101303001201386C8E03120138439003120138A87E
:101313009003120138FF9003120138C1C403120174
:1013230038F87F0012013858AA03120138F3AB03CF
:1013330012013854AC031201389AAC03120138136A
:101343009103120138AE9103120138329203120154
:1013530038CB92031201388D9303120138029403A0
:101363001201382A9403120138339403120138A36B
:101373009403120138B69403120138CC940312017A
:1013830038D59403120138E8940312013889B40361
:10139300120138DBB40312013865B503120138CCEE
:1013A300B5031201389DAC03120138C7AC03120117
:1013B3003895AD0312013870AE03120138BCD00268
:1013C30012013883D102120138BAD102120138E472
:1013D300D10212013844D2021201389AD202120108
:1013E30038FFD20212013897D302120138A6D40271
:1013F3001201383DD602120138CAD6021201383121
:10140300D70212013848D70212013862D8021201FA
:1014130038A0D802120138008002120138818302F9
:101423001201380985021201386085021201387FE2
:101433008502120138FD85021201389387021201D9
:1014430038788802120138868C021201385C8D02CA
:1014530012013878E002120138EBE002120138A1E0
:10146300E3021201380BE502120138D8E50212013A
:101473003857E60212013800800312013845800311
:101483001201386280031201382781031201389058
:101493008103120138748203120138238403120179
:1014A300388BC50312013855C503120138B7C5037C
:1014B300120138DFC503E066701008A3E066700A06
:1014C30008A3E066700408A3E06622C3E796080950
:1014D300E7960809E7960809E79622C3E09608A36A
:1014E300E09608A3E09608A3E09622C008C3E0961E
:1014F300F50808A3E096420808A3E096420808A36B
:10150300E09645087001D3D00822080808EAC0E035
:10151300EBC0E086F0E7A4FA180986F0E7A42AFAFC
:10152300180986F0E7A42AFA180986F0E7A42AFA2C
:101533001986F0E7A4FBE5F02AFA190886F0E7A478
:101543002BFBE5F03AFA190886F0E7A42BFBE5F04C
:101553003AFA18180986F0E7A4C5F02BFBE43AFA27
:101563001908E7C5F0C6A426F6E5F03BFBE43AFA12
:101573001886F0E7A4F6E5F00826F6E43B08F6E45F
:101583003A08F6D0E0FBD0E0FA22E4CFC0E0E4CEA4
:10159300C0E0E4CDC0E0E4CCC0E075F020C3E633A6
:1015A300F608E633F608E633F608E633F6181818B5
:1015B300EC33FCED33FDEE33FEEF33FFC3EC970961
:1015C300ED9709EE9709EF97191919400FFFEC975B
:1015D300FC09ED97FD09EE97FE191906D5F0BEEC4F
:1015E300F709EDF709EEF709EFF7191919D0E0FC40
:1015F300D0E0FDD0E0FED0E0FF226016080808C668
:10160300C313C618C613C618C613C618C613C6D541
:10161300E0EA227009080808226016181818C6C3E1
:1016230033C608C633C608C633C608C633C6D5E0B4
:10163300EA22E627F60809E637F60809E637F60848
:1016430009E637F622E026F608A3E036F608A3E01B
:1016530036F608A3E036F622E026F008A3E036F0DB
:1016630008A3E036F008A3E036F022C3E697F608B5
:1016730009E697F60809E697F60809E697F622C3FE
:10168300E096F008A3E096F008A3E096F008A3E044
:1016930096F022E657F60809E657F60809E657F6E4
:1016A3000809E657F622E056F608A3E056F608A323
:1016B300E056F608A3E056F622E056F008A3E056FB
:1016C300F008A3E056F008A3E056F022E0F608A3E2
:1016D300E0F608A3E0F608A3E0F622E6F008A3E6A6
:1016E300F008A3E6F008A3E6F022E0FAA3E0FBA3E8
:1016F300E0FCA3E0FD22EAF0A3EBF0A3ECF0A3ED02
:10170300F022CAC0E0E6F0A308DAFAD0E0FA22CA6F
:10171300C0E0E0A3C582CCC582C583CDC583F0A359
:10172300C582CCC582C583CDC583DAE6D0E0CA22A3
:10173300C3E498F8E499F91217748026C3E49AFA7B
:10174300E49BFBE920E7E9121774E498F8E499F9BC
:1017530022C3E498F8E499F9121774E498F8E49929
:10176300F9C3E49AFAE49BFB22EB20E7CFE920E7F5
:10177300E0B90010BB0008E88AF084F8AAF022E47C
:10178300FBC8FA22EB70227B10C833C8C933C933B4
:101793005007C39AC3DBF280069A50012ADBEAC8DA
:1017A30033F4C8C933F4C9FA2275F008E4C833C85E
:1017B300C933C933C99AC99B5004C92AC93BD5F057
:1017C300ECFBC833F4C8E4C9FA22600D08C6A2E7EB
:1017D30013C618C613C6D5E0F322600C08C6C3139C
:1017E300C618C613C6D5E0F422700422600D18C6CD
:1017F300C333C608C633C6D5E0F41822251810AF84
:1018030008F518400215198008F51840021519D279
:10181300AF22C0D0251810AF08F518500205198063
:1018230008F51850020519D2AFD0D0222518F58239
:1018330010AF08F518400215198008F51840021575
:1018430019D2AF851983222518F582E43519F5835A
:1018530022E4732518C582C0E0E51934FFC583C0AF
:10186300E0E518C3958224F810AF088583198582B3
:10187300188008858319858218D2AFCEF0A3E5209E
:10188300F0A37808E608F0A3DEFAEFF0A3E58124DD
:10189300FAF8E608F0A3E608F0A3E608F0A30808C0
:1018A300E608F0A3E608F0A315811581D0E0FED089
:1018B300E0F8158115811581E8C0E0EEC0E022252E
:1018C30018C582C0E0E51934FFC583C0E0E518C33D
:1018D300958224F910AF08858319858218800885BD
:1018E3008319858218D2AFCEF0A3E520F0A3780840
:1018F300E608F0A3DEFAEFF0A3E58124FBF8E6089F
:10190300F0A3E608F0A30808E608F0A3E608F0A3AE
:1019130015811581D0E0FED0E0F815811581E8C06E
:10192300E0EEC0E022851983851882E0A3FEE0A3E0
:10193300F5207808E0A3F608DFFAE0A3FFE0A3C0F0
:10194300E0E0A3C0E0E0A3C0E0E0A3C0E0E0A3C008
:10195300E010AF0885821885831980088582188571
:101963008319D2AFD083D0820201358519838518BC
:1019730082E0A3FEE0A3F5207808E0A3F608DFFAEF
:10198300E0A3FFE0A3C0E0E0A3C0E0E0A3C0E0E089
:10199300A3C0E010AF08858218858319800885826B
:1019A30018858319D2AFD083D08222C0D02518C521
:1019B30082C0E0E51934FFC583C0E0E518C3958212
:1019C30024F310AF0885831985821880088583194D
:1019D300858218D2AFC8F0A3E9F0A3EAF0A3EBF035
:1019E300A37908E709F0A3D8FAECF0A3EDF0A3EE8E
:1019F300F0A3EFF0A3D0E0F0A3D0E0F0A3D0E0F0A9
:101A0300A3E520F0A3E5F0F0A322851983851882CE
:101A1300E0C0E0A3E0F9A3E0FAA3E0FBA37808E0C9
:101A2300F608A3DFFAE0FCA3E0FDA3E0FEA3E0FFDA
:101A3300A3E0C0E0A3E0C0E0A3E0F5D0A3E0F5207D
:101A4300A3E0A3F5F010AF088583198582188008F9
:101A5300858319858218D2AFD082D083D0E0F8D0A5
:101A6300E03274048006740280027401C0E0F4045E
:101A730012182FD0E0121705227404800474028018
:101A830000CCC0E0EDC0E0E518C39CCCAD1950011B
:101A93001D10AF068C188D1980068C188D19D2AFC6
:101AA300121712D0E0FDD0E0FC22D083D082E9C02F
:101AB300E0E493A3C386F0C5F095F0F908E493A39B
:101AC30086F0C5F095F0700BE493A3C3994005E944
:101AD300048002A3E475F002A42582F582E5F035C3
:101AE30083F583D0E0F9E493A3C0E0E493C0E0225C
:101AF300D083D082ECC0E0EDC0E0E493A3FCE49398
:101B0300A3FDED4C600D121B3FEC24FFFCED34FFF5
:101B1300FD80EFE493A3FCE493A3FDED4C600D1271
:101B23001B7EEC24FFFCED34FFFD80EFD0E0FDD005
:101B3300E0FCE493A3C0E0E493C0E022C0E0C3E48C
:101B43009396087401939618400FE49366700808FF
:101B5300740193661870007019A3A3C3E4939608E5
:101B63007401939618A3A3400DD0E0D0E0D0E00217
:101B73001B2FA3A3A3A3A3A3D0E022C0E0C0F0889C
:101B8300F0E4936670080874019366187000A8F077
:101B9300A3A3700BD0F0D0E0D0E0D0E0021B2FA3C2
:061BA300A3D0F0D0E02207
:101BAC0074F51218C2EAFEEBFFEE2434F8EF3400A1
:101BBC00F988088909EE2435F582EF3400F583E0C5
:101BCC00F8EE2437F582EF3400F583E0F50AEC8566
:101BDC000AF0A4FCAAF0850AF0EDA42AFDE82CF882
:101BEC00E43DF97A257B00121774EA850882850991
:101BFC0083F0F8740758F97401B900028004C333F8
:101C0C00D9FCFAE8131313541FF8EE28F8EF34003C
:101C1C00F9E8245DF582E93400F583E05A6008EEBA
:101C2C002434F582EF802CEE2434F582EF3400F569
:101C3C0083E0C0E0EE2436F582EF3400F583E0F566
:101C4C00F0D0E084A8F0EE28F8EF3400F9E824385E
:101C5C00F582E93400F583E0F97F0402196E74F51E
:101C6C001218C2EAFEEBFFEE2434F582EF3400F5D5
:101C7C0083E0C0E0EE2435F582EF3400F583D0E04C
:101C8C00F08E828F83A3A3A3A3A3A3A3C082C0833C
:101C9C008E828F83A3A3A3A3A3E0F8A3E0F9D08340
:101CAC00D082E0C398F508A3E099F509EE247FF5FE
:101CBC0082EF3400F583E064017069EE2480F582D4
:101CCC00EF3400F583E0F8A3E0F98E828F83A3A3B1
:101CDC00A3A3A3A3A3E0FCA3E0FD8E828F83A3A305
:101CEC00A3A3A3E0FAA3E0FBC3EA9CEB9D5010C3B3
:101CFC00EC98ED99402EC3EA98EB995027800EC3CF
:101D0C00EA98EB994007C3EC98ED9940177CDC7D81
:101D1C0004EEFAEFFB120BADEE247FF582EF3400EC
:101D2C00F583E4F0EE2434F8EF3400F9E8FCE9FD37
:101D3C00EE2435F582EF3400F583E0F8EE2437F528
:101D4C0082EF3400F583E0F50AE508850AF0A4F586
:101D5C0008AAF0850AF0E509A42AF509E82508F88F
:101D6C00E43509F97A257B00121774EA8C828D838D
:101D7C00F0F8740758F97401B900028004C333D920
:101D8C00FCFAE8131313541FF8EE28F8EF3400F99B
:101D9C00E8245DF582E93400F583E05A6008EE240E
:101DAC0034F582EF802CEE2434F582EF3400F58389
:101DBC00E0C0E0EE2436F582EF3400F583E0F5F078
:101DCC00D0E084A8F0EE28F8EF3400F9E82438F5D8
:101DDC0082E93400F583E0F91229E7021C65C08220
:101DEC00C083851882851983E0F8A3E0F9C3EA9CC7
:101DFC00EB9D5010C3EC98ED99401BC3EA98EB99FE
:101E0C005014800EC3EA98EB994007C3EC98ED99F7
:101E1C004004790180027900D083D08222EAC39CED
:101E2C00FAEB9DFB2274EF1218C29003A2E0640837
:101E3C006005E06407702A9061C8E060249003D0CC
:101E4C00E0F4601DE0F875F003A4C8AAF02AF97458
:101E5C00D228FE740339FF8E828F83A3A3A3E07074
:101E6C0003021F61906060E0C0E0EE2468F582EF31
:101E7C003400F583D0E0F0750C45750D0575080040
:101E8C00750900E5D914F50AE5D95403F50E601768
:101E9C007403650E605CE50A6010EE2467F582EF52
:101EAC003400F583E07003021F46900540E06401A6
:101EBC00602AEE2482F582EF3400F583E06004782A
:101ECC000480027800850A08E508C398FA95E0FBBF
:101EDC00120A7B8A088B09EA45097005120DB1803C
:101EEC0074EE2482F582EF3400F583E070048A0CE2
:101EFC008B0DE50A6012850C82850D83F50BE5D9F7
:101F0C00F0A3150BE50B70F6EE2482F582EF34008E
:101F1C00F583E0604474FC250AF50A780C121A6902
:101F2C00AC0AA90EEEFAEFFB120C4974021218154A
:101F3C00E97026AA08AB09121393793D8E828F8320
:101F4C00A3A3A3A3E0FA7B0012094FEEFAEFFB1256
:101F5C000BC5120C5B790080747403650E6056859A
:101F6C000A107511007810121A69AC0CAD0DAA0884
:101F7C00AB09120C257402121815EE2468F582EFC9
:101F8C003400F583E064807004747F8001E0F50C0C
:101F9C00780C121A6DE50EF50C780C121A6DA90A54
:101FAC00AC08AD099003D0E0FA7B0012091374025F
:101FBC0012181580139003A2E06408600BAC0CADF2
:101FCC000DEEFAEFFB120CB5120DBD79017F0A0272
:101FDC00196E74F51218C274FC1217FFEAFEEBFFAF
:101FEC008908A2AFE433F509C2AF806AEE2463F826
:101FFC00EF3400F97A007B00A2AFE433F50AC2AFEC
:10200C0088828983E0FCA3E0FDEC4D603A888289EC
:10201C0083E0FAA3E0FB8A828B83E0FCA3E0FD88DB
:10202C00828983ECF0A3EDF08A828B83E4F0A3F039
:10203C0088828983E0FCA3E0FDEC4D700A888289DC
:10204C0083A3A3E4F0A3F0E50AA2E092AF121393EA
:10205C009004E3E004F0EE2463F582EF3400F583A2
:10206C00E0F8A3E0F9E849603DEE2463F582EF3433
:10207C0000F583E02402FAA3E03400FBEA2402F525
:10208C000AEB3400F50B780A121A698A828B83E00A
:10209C00FCA3E0F9EEFAEFFB120BE974021218152F
:1020AC00E97003021FF89004E3E060639004E4E03D
:1020BC00F89004E3E0C398500C74026508705090DB
:1020CC0004E5E0604A8E828F83A3A3A3A3E0851866
:1020DC0082851983F0A3E4F09004E3E0F874021213
:1020EC00184AE8F0A3E4F09004E3E0F89004E2E08E
:1020FC0028F0740212184AAC82AD838518828519B7
:10210C0083AA82AB83790112091F9004E3E4F0E502
:10211C0009A2E092AF7404121815021C65000000AD
:10212C008521878522C622C0E0C0D0E8C0E0E9C086
:10213C00E0EAC0E0EBC0E0ECC0E0EDC0E0EEC0E0F7
:10214C00C008C009C00AC00BC082C083C0F0A2AFD7
:10215C00E433FEC2AF759B00906182E0A2E05012A6
:10216C00E591A2E0500C7591FE740165217003128B
:10217C001E31E0A2E55051E591A2E5504B7591DF7F
:10218C009003A2E064076005E064087023740165A5
:10219C0021703579019003D0E0FA75F003A4CAA838
:1021AC00F028FB74D22AFA74033BFB121FDE801852
:1021BC00E0640D70139003C4E004F064287002E432
:1021CC00F07A00E0F9120DC3906182E0A2E64003C0
:1021DC0002227AE591A2E6400302227A7591BF9021
:1021EC0003A2E064057008120CEB120CF7800312CA
:1021FC000CF1752100120D51E99003A3F079001236
:10220C000D45120B237A017B009003A1E0F912100B
:10221C001B907803E064427055900544E014F07014
:10222C004DC2AF12223200782AD0E0F618D0E0F678
:10223C00E59F540770057509FF800375097FC4C0BD
:10224C00E07829E6F50808E65509F509740B7808D5
:10225C001217DDD0E02508F8906270E0A2E740F894
:10226C00E8C333906272F0906270E0D2E0F090615B
:10227C0081E0A2E35009E5E9A2E3500375E9F7A375
:10228C00E0A2E75009E591A2E7500375917FEEA219
:10229C00E092AFD0F0D083D082D00BD00AD009D04E
:1022AC0008D0E0FED0E0FDD0E0FCD0E0FBD0E0FABE
:1022BC00D0E0F9D0E0F8D0D0D0E032C0E0C0D0C04F
:1022CC0082C083906183E0A2E05009E5BFA2E05098
:1022DC000375BFFEE0A2E15009E5BFA2E150037512
:1022EC00BFFDE0A2E25009E5BFA2E2500375BFFBBF
:1022FC00E0A2E35009E5BFA2E3500375BFF7E0A2EB
:10230C00E45009E5BFA2E4500375BFEFE0A2E5502D
:10231C0009E5BFA2E5500375BFDFE0A2E65009E571
:10232C00BFA2E6500375BFBFD083D0828088C0E0C7
:10233C00C0D0E8C0E0E9C0E0EAC0E0EBC0E0ECC02F
:10234C00E0EDC0E0C0F0E5A7A2E6500FE5A1A2E6E3
:10235C00500953A7BF75A1BF12239FE5A7A2E55053
:10236C000CE5A1A2E5500653A7DF75A1DFE5A7A2F6
:10237C00E15009E5A1A2E1500375A1FDE5A7A2E298
:10238C00500CE5A1A2E2500653A7FB75A1FBD0F0BF
:10239C000222B074F81218C27521019003A2E064F5
:1023AC00067015120C798A828B83A3A3A3A3A3A313
:1023BC00E0FAA3E0FB120CD9A2AFE433FED2AF904B
:1023CC0003A8E0640170187A207B009003A1E0F967
:1023DC001210A57A207B009003A1E0F91210219035
:1023EC006182E0D2E6F0900541E0602185C6228052
:1023FC00169003A7E064017008E5C654F84405F58F
:10240C00C653BEFC12212C7401652160E4EEA2E0DF
:10241C0092AF7F0102196E008E238F24858228854E
:10242C008327851882851983E0CEA3E0CF85288287
:10243C00852783EBC9EAC8EDCBECCA75F010C3E86D
:10244C0033C8E933C9EA33CAEB33CBC3EA9EF5266A
:10245C00EB9FF525B35004AB25AA26EC33CCED331A
:10246C00CDD5F0DAAE23AF242274E91218C274F879
:10247C001217FF851882851983ECF0A3EDF08A08FA
:10248C008B099003A2E024F7C3940550067508014C
:10249C0002260C120C798A0A8B0BAE0AAF0BEE4F8C
:1024AC007003022609AC08AD09740212184AAA82FC
:1024BC00AB83120D098E828F83A3A3750CFF750D50
:1024CC00FF750EFF750F00780C1216A97402121806
:1024DC004A7510FF7511FF7512FF751300781012F5
:1024EC0016A9780C79101214CE502A780C79101287
:1024FC00166E7508017509C8750A00750B00780809
:10250C00790C1214CE5052850C08850D09850E0AD3
:10251C00850F0B80507514017515C875160075174D
:10252C000085100885110985120A85130B78087926
:10253C000C12166E781479081214CE401C75080013
:10254C00750900750A00750B017808791012166E62
:10255C007808790C121635800C7508017509007510
:10256C000A00750B0074097808121616750C19F50B
:10257C000DF50EF50F7808790C12158D8E828F8360
:10258C00A3A3A3A3A3A3E0F8A3E0F97AD07B03123F
:10259C001774880C890DE4F50EF50F7808790C1278
:1025AC001635740612184AE0F8A3E0F97AD07B03CA
:1025BC00121774E8FA8A0CE4F50D7808790C1214E9
:1025CC00CE50077808790C12166E9003A2E06408BE
:1025DC00600AE064066005E06405702D750C0D78EA
:1025EC000C79081214CE4021750CF4750DFF750E84
:1025FC00FF750FFF7808790C121635800C750800E2
:10260C00750900750A00750B00851882851983E021
:10261C00F8A3E0F583888278081216DE7408121885
:10262C00157F1002196E74F71218C2120D1B90054B
:10263C003FE064017010906245E4F0A3F053F4F3B2
:10264C0043FE0C5390F3120CC7E5C654804449F575
:10265C00C6E59E547F644970F8906185740FF090C4
:10266C00053DE0F47002A3E0604E90053EE060088A
:10267C0014601B14602E80407508017509009005CC
:10268C003DE078081217ECE508F45280802A7508B2
:10269C000175090090053DE078081217ECE508F487
:1026AC005290801475080175090090053DE078087A
:1026BC001217ECE508F452A079007F0202196E742F
:1026CC00F71218C2E9FEEAFF74016E700C7A807B77
:1026DC00009003A1E0F912101B902BA8E493F46076
:1026EC0008E493F9120B17800953C680E59E547FBA
:1026FC0070FA120CCD90053FE064017003120B2FA1
:10270C0090053DE0F47002A3E0604B90053EE06064
:10271C000814601A14602C803D750801750900902E
:10272C00053DE078081217ECE50842808028750812
:10273C000175090090053DE078081217ECE5084298
:10274C0090801375080175090090053DE07808121A
:10275C0017ECE50842A0120D1B120C798A088B09A4
:10276C00A808A909E8496015E5E170FCE82414F50E
:10277C0082E93400F583E0F46003E0F5E174016F65
:10278C00700A7A019003A1E0F912106F0226C67448
:10279C00ED1218C28A088B098C0A8D0B741312184F
:1027AC004A780C1216CF7808790C1214CE751001D9
:1027BC007511C875120075130050127808790C1237
:1027CC00166E781079081214CE50168010780C7989
:1027DC000812166E7810790C1214CE400479018010
:1027EC000279007F0C02196E74ED1218C28A088BE4
:1027FC00098C0A8D0B741312184A780C1216CF78A8
:10280C000C79081214CE40117808790C12166EAAA5
:10281C0008AB09AC0AAD0B80227510007511007560
:10282C0012007513017810790C12166E7810790855
:10283C00121635AA10AB11AC12AD1380A68A828B7E
:10284C00837508FF7509FF750AFF750B0078081270
:10285C0016BC7F0402196E74F51218C28C828D831B
:10286C0078081216CF8A828B837808121682EA2493
:10287C0004F8EB3400F98C828D83A3A3A3A3E0FCB2
:10288C00A3E0FD88828983C3E09CF0A3E09DF088DF
:10289C00828983C3E09420A3E0944E40268A828BE5
:1028AC00837508FF7509FF750AFF750BFF78081211
:1028BC00165B8A828B83A3A3A3A3E02420F0A3E05E
:1028CC00344EF002284974F51218C2E9FE9004F750
:1028DC00E0FAA3E0FBEEC333F8E433F9743228F5E5
:1028EC0082748339F583E02AF508A3E03BF5097877
:1028FC0008121A697A407B427C0F7D0012242474E2
:10290C00021218158A088B098C0A8D0B7410780822
:10291C001215FDAA08AB097F0402196E74F1121886
:10292C00C28A0C8B0D8C0E8D0F740F12184AE0FAA4
:10293C00A3E0FB741112184AE0F508A3E0F509783E
:10294C0008121A69EA2401F508EB3400F509E4F5DC
:10295C000AF50B780C790812150D750871750902BA
:10296C00780C790812150DAA0CAB0DAC0EAD0F122C
:10297C00242474021218158B09EA450960047A01A3
:10298C0080027A00EC2AFCED3400FD741312184A14
:10299C00E0F8A3E0F9E8FEE9FFECF8EDF97A717BD9
:1029AC0002121774880889098E828F837808121690
:1029BC00DEECF8EDF97A717B021217748A088B0938
:1029CC00740578081217EC8E828F83A3A3A3A3E55A
:1029DC0008F0A3E509F07F0802196EC082C083E9F4
:1029EC00906000F0D083D08222C2AF02000022C0DF
:1029FC00E074EB1219AE74F91217FF538AFE90842F
:102A0C005A78081216CF900963780812165B900951
:102A1C006378081216CF908462780C1216CF78085F
:102A2C00790C12158DE50C450D450E450F70269051
:102A3C00841EC082851882851983AC82AD83758310
:102A4C0084D0827407121712851882851983AA8282
:102A5C00AB8312123DC2EB74071218157F08021AD1
:102A6C000DC0E074F21219AEA2AFE433FED2AFC2C5
:102A7C00C0E5D1A2E4500653D1EF121387751A00AA
:102A8C00EEA2E092AF7F01021A0DC0E074F21219AF
:102A9C00AEA2AFE433FED2AFE589A2E1500312122D
:102AAC0097758900C2C5751A00EEA2E092AF7F013E
:102ABC00021A0DC0E074F21219AEA2AFE433FED2CA
:102ACC00AFE58BA2E05003121297758B00C2E88021
:102ADC00D5C0E0C0D0E8C0E0E9C0E0E5A8D2AFC204
:102AEC00C7751A00A2E7A2E792AFD0E0F9D0E0F8E0
:102AFC00D0D0D0E032C0E074F21219AEA2AFE43301
:102B0C00FED2AF758900C2C5900A937401F0751A94
:102B1C0000FA900A60E0F912106F900C17E0F8A31D
:102B2C00E0687002D285EEA2E092AF7F01021A0D2E
:102B3C00C0E0C0D0E8C0E0E9C0E0C008C009C08275
:102B4C00C083A2AFE433F9D2AF900C17E0F8A3E046
:102B5C00687008539AFBA374018026C2E9900C1785
:102B6C00E0F50874012508F074972508F582740BBC
:102B7C003400F583E0F5C1900C17E0C3948040025B
:102B8C00E4F0E9A2E092AFD083D082D009D008D093
:0A2B9C00E0F9D0E0F8D0D0D0E0322C
:102BA800FFFFFFFFFFFFFFFFC082C083E9900DF02A
:102BB800F0022E3F74F7121856E99002E1F07C19E2
:102BC8007D037AFF7BFF12086B9002E274FFF0A38B
:102BD800F0A3E4F0A3F079051207F39002E1E0F91D
:102BE8001207157A897B08120A2D7F0102192874A9
:102BF800F41218568A088B09EB548060309002E171
:102C0800E0F91210038A0A8B0BAE0AAF0BEE4F6085
:102C1800138E828F83E064B0700312080BEEFAEF14
:102C2800FB120FF1AA08E5096480FB80047A007B97
:102C380000022E0E74F212185674FC1217FFEAFEE8
:102C4800EBFFEE4F6038740212184AEEF0A3EF1251
:102C58003073ECF0A3ED123073AA82AB8312070F26
:102C6800E9F5087073741212184A123C27E50A45F0
:102C78000B60658E828F83122CEAEE4F7005750803
:102C88000280557A067B001210578A0C8B0DA80C0F
:102C9800A90DE8497005750813803D88828983E489
:102CA800122CF4A3A3EEF0A3EF1240C0E50AF0A3A0
:102CB800E50BF09002E7122D7C9002E76017E0FC2C
:102CC800A3E08003EAFCEBFD8C828D83122D7C70DF
:102CD800F38C828D83123B4CA908740412181502D8
:102CE80042C2A3A3A3A3E0FEA3E0FF22F0A3F088BF
:102CF8008289832274F2121856890AE975F017A49A
:102D0800FEAFF09002E6E4F09002E4122D7C600A37
:102D180012105D9002E4E4F0A3F0EEFAEFFB12105B
:102D2800578A088B09EA4509602FEEFCEFFD790008
:102D3800120FD99002E4E508F0A3E509F07B0080C2
:102D480008122D66E4F0A3F00BEBC3950A40F2E5F8
:102D58000A9002E6F07900800279130242C2EB750C
:102D6800F017A4F8A9F09002E4E028FAA3E0398A61
:102D780082F583221238E2EA4B2274F4121856754F
:102D88000800750900740C12184A124094FEE9FFF5
:102D9800800CE5082401F508E5093400F509C3E5C8
:102DA800089CE5099D503285080A85090B7403784B
:102DB8000A1217ECEA250AF8EB350BF988828983A1
:102DC800A3A3A3A3A3A3123C27EE650A7003EF6590
:102DD8000B70BFE8FAE9FB80047A007B0080277457
:102DE800F41218567900EAA2E0501B7508437509D9
:102DF800847808121A697C047D007AF27B0D120728
:102E0800ED74021218157F04021928C082C083903D
:102E180002E7122E46601C88828983A3A3E06A70A9
:102E280003A3E06B8882898370E8A3A3A3A3123865
:102E3800DE80047A007B00D083D082020135124301
:102E480095E8492274EE12185674FC1217FFEAFE30
:102E5800EBFF851882851983E4F0A3F0EE240212B3
:102E68003B30EE2405123061EE2404F50EEF1234E7
:102E780046E024FE603924FC604624FE605224FEAD
:102E8800605E24FE7003022F6624FE7003022FDEAC
:102E980024FE7003022FED24FE7003022FFC24FC95
:102EA800700302300B24FE700302301A0230579070
:102EB80003007417F0A3E412307B12048D0230571C
:102EC800851882851983AC82AD83120811023027D8
:102ED800851882851983AC82AD83120817023027C2
:102EE800850C08850D09740212184AAC82AD8385D9
:102EF80008828509831238DE1207338A0C8B0DACE1
:102F08000CAD0DEC4D6042E4F50CF50D780C121A81
:102F180069750C00750D03780C121A69750C01752A
:102F28000D03780C121A69740812184A121A80795B
:102F3800161238D81208537408121815E9F50C70CF
:102F48000B1238D41204A5800F750C0185088285F0
:102F58000983123069123B4C850C0802302A74022E
:102F680012184AAC82AD83850C82850D831238DE37
:102F78001207338A108B11AC10AD11EC4D604385EC
:102F88000C82850D83A3A3121A8075100075110396
:102F98007810121A697510017511037810121A69E0
:102FA800740812184A121A8079161238D81208535F
:102FB8007408121815E9F509700B1238D41204AB0D
:102FC800800F750901850C82850D83123069123BCB
:102FD8004C850908804C851882851983AC82AD839D
:102FE80012081D803A851882851983AC82AD831238
:102FF8000823802B851882851983AC82AD8312083B
:1030080029801C851882851983AC82AD8312082F0C
:10301800800D851882851983AC82AD83120835E945
:10302800F508E50860298E828F83A3E06414601F89
:10303800850E82850F83E09003001230731243914E
:10304800900301123B4CE508A312307B120487EE73
:10305800FAEFFB1207B1023A38F50CEF3400F50D20
:103068002212439585188285198322F08518828556
:10307800198322F07C007D03850A82850B83123830
:10308800E22274EE12185674FC1217FF8A0A8B0B90
:103098008C0E8D0FEA2405F508EB3400F5097C1534
:1030A8007D0079007A007B03120FD9E5082402F528
:1030B8000CE509123064851882851983858210858C
:1030C80083117810121A69850882850983A3A3A33E
:1030D800A312358E121A69E5082405F510E509349E
:1030E80000F5117810121A69850C82850D83123843
:1030F800E812072D74061218158A108B11AE10AF3E
:1031080011E50A2402F50AE50B123B33EE4F700372
:103118000232508017740212184A1238DE888289E7
:1031280083EAF0A3EBF0900300E004F0900300E0E2
:10313800C394054003023250E4F510F511781012DB
:103148001A697510E97511027810121A697510EA72
:103158007511027810121A69740612184A121A8028
:103168007910EEFCEFFD1238D812085374081218C3
:1031780015E9705E850882850983A3A3A3A3A3A389
:10318800A3E0F89002E9E068704812358E121A69D7
:103198007CEA7D02E5082408FAE5093400FB120FF1
:1031A800D37402121815E960298E828F83A3A3A312
:1031B800A31238DE900300E0F5107402781012179D
:1031C800EC74012510F58274033511F583EAF0A338
:1031D800EBF0740212184A85821085831178101258
:1031E8001A69740212184A121A80850C82850D8396
:1031F8001243A612073974041218158A108B11AEDF
:1032080010AF11900300E0F51075110074027810EA
:103218001217EC74002510F874033511F9888289A7
:1032280083A3122D7C7003023114E82403F8E934D7
:1032380000F9EE4F600302311D8882898374FFF024
:10324800A3F0900300E004F0900300E0600A123855
:10325800D41204997900800B850882850983123B72
:1032680043790A023A3874EA12185674FE1217FFA4
:103278008C128D13EA2405F50CEB124510122CEE76
:10328800750800750900EA2402F510EB3400F51101
:1032980085188285198385820A85830B780A121A14
:1032A80069850C82850D83A3A3A3A3123450121A37
:1032B80069E50C2405F50AE50D123B33780A121A64
:1032C80069850C82850D831243A412072D7406129A
:1032D80018158A0A8B0BEA450B7003023401EA249D
:1032E80004F50EEB123446122CEE8A828B83A3A3CC
:1032F800A3E0F98510828511831238DE12071BE9D5
:10330800F5096003023401E4F514F5157814121A6E
:10331800697514E97515027814121A697514EA7535
:1033280015027814121A69740612184A121A80794A
:1033380013AC0AAD0B8510828511831238DE120892
:10334800537408121815E9F5096003023401900254
:10335800E9E0F8E5087009E02402900301F080171D
:10336800900301E0FCE82402FAE43400FBEA6C7004
:1033780001EB6003023405850882AA821235859420
:103388001412357D5073850E82850F83E0C0E0747A
:10339800022A12343DD0E0F00508850E82850F839D
:1033A800A3E0C0E085080A7402250A12343DD0E083
:1033B800F005089002E9123450121A697CEA7D027D
:1033C80085080A7402250AFA74033400FB120FC137
:1033D80074021218159002E9E02508F50874FF6ECA
:1033E800700374FF6F6012EE24010EEF3400FFE5E6
:1033F80008C394145003023298E50860131237C9C1
:103408008510828511831238DE12049F790080149A
:10341800E509700375090A851282851383EEF0A306
:10342800EFF0A90974021218157F0E0219288508F1
:103438000C7402250CF58274033400F583223400E1
:10344800F50F850E82F583221240D32274EE1218EE
:103458005674FE1217FF8C0E8D0FEA2405F50CEB3F
:10346800123064750B00900300E4F0F50AEA2402B8
:10347800F508EB3400F5098049900300E0FA900262
:10348800E9E0F8123585941712357D400D90030058
:10349800E0F87416C3989002E9F012358E121A6992
:1034A8007CEA7D0274012AFA74033400FB120FC10E
:1034B80074021218159002E9E0F8900300E028F071
:1034C800050AE50C2416F582E50D123441E0F8E50D
:1034D8000AC3984003023566900300E0C39416506F
:1034E8007DE50AC333F8E433F9E50C28FEE50D3928
:1034F800FF851882851983AC82AD838E828F8312F3
:1035080038DE1207338A108B11AC10AD11EC4D70F8
:1035180005750B018043E4F510F5117810121A694E
:103528007510E97511027810121A697510EA75118B
:10353800027810121A69740612184A121A8079163B
:103548008508828509831238DE1208537408121818
:1035580015E9F50B7003023481123B3F80107C00A3
:103568007D038508828509831238DE1204B1A90B10
:103578007402023A3AE99400C365D03322EA28F883
:10358800E43400F9E822E0F510751100781022748F
:10359800EA12185674FC1217FF8A0C8B0D8C128DC8
:1035A80013EA2405F50AEB123B3375080075090088
:1035B800E50A2402F510E50B3400F511740212181F
:1035C8004A85820E85830F780E121A69850A8285CC
:1035D8000B83A3A3A3A312407F121A69E50A24054B
:1035E800F50EE50B3400F50F780E121A6985108276
:1035F800851183123B391238D812072D7406121818
:10360800158A0E8B0FAE0EAF0FE50C2402F50EE5F2
:103618000D3400F50F80408882898374FFF0050817
:1036280012343674FFF005089002E9E0F50C750DC8
:1036380000780C121A697CEA7D0285080C74022550
:103648000CFA74033400FB120FC17402121815909F
:1036580002E9E02508F508EE4F60718E828F83A39A
:10366800A3A3E0F9850E82850F831238DE12071BAB
:10367800E9F509EE2404123061E97044E4F514F523
:10368800157814121A697514E97515027814121A46
:10369800697514EA7515027814121A6974081218F3
:1036A8004A121A807911EEFCEFFD850E82850F8390
:1036B8001238DE1208537408121815E9F509602744
:1036C800850C82850D831237BF123B4CE5087003C9
:1036D8000237A51237C9850E82850F831238DE128C
:1036E80004B779000237BA850882AA82EA9002E90B
:1036F8007009E02404900301F08022E0F8900301AF
:10370800E0F514E82404FCE43400FDEC65147001D1
:10371800ED70C0123585941212357D50B6850C8235
:10372800850D83E0C0E074022A12343DD0E0F00534
:1037380008850C82850D83A3E0C0E0123436D0E002
:103748001237DB85820C85830D780C121A69740494
:1037580012184A121A808510828511831243A61204
:10376800073974041218158A0C8B0DAE0CAF0D8531
:10377800080C7402250CF874033400F9EE4F70033A
:1037880002361F851882851983E08882898312375B
:10379800DBA3E0C0E0123436D0E002362DE5097034
:1037A8000375090A850A82850B831237BF123B4CC1
:1037B800A909740402342E12439585128285138355
:1037C80022900301E0F5F0E50884900300F07C0006
:1037D8007D0322F005088518828519832274EC126E
:1037E800185674FE1217FF8A088B098C0E8D0FEA83
:1037F8002405FEEB3400FF851882851983AC82AD61
:10380800838E828F831238DE1207338A0A8B0BEE7F
:103818002418123061EA450B70030238AF123A21BE
:1038280050328518828519831238DE1208478A10AB
:103838008B11EA4511606B7912AC0AAD0B850882D1
:103848008509831238DE851082851183121854E9A0
:10385800F50A7058E4F50AF50B780A121A698E828F
:103868008F83A3A3E0F50A780A121A69EE240312DB
:103878003B30780A121A698E828F831238E8120850
:10388800597406121815E9F50A7021850C82850D00
:1038980083E0701F8508828509831238DE1204BD13
:1038A8008011750A0E8009750A018004E50A600313
:1038B800123B3F850C82850D83E06004790080020D
:1038C800A90A74021218157F0C0219287C007D03BE
:1038D800850A82850B831238E222E0FAA3E0FB22F4
:1038E800E0FCA3E0FD8508828509831238E2227492
:1038F800EE12185674FE1217FF8A088B098C0C8D6D
:103908000DEA2405FEEB3400FF750E00851882854C
:103918001983AC82AD838E828F831238DE1207330F
:103928008A0A8B0BEA450B7003023A0D123A2150B2
:10393800358518828519831238DE1208478A0E8B5E
:103948000FEA450F605E7912AC0AAD0B85088285D7
:1039580009831238DE850E82850F83121854E9F523
:103968000E6003023A10850882850983123C27AA53
:103978000AFB12083B8A108B11A810A911E849709C
:103988001E7AFF7BFF12083B8A108B11A810A91121
:10399800E849606C88828983E50AF0A3E50BF07535
:1039A8000A008007750E0E805F050A9002E6E0FAAD
:1039B800E50AC39A504AE50A75F017A4FAABF088ED
:1039C800828983A3A3E02AFAA3E03BFB8A828B8344
:1039D800123B39EC4D70D2750A17750B00780A1234
:1039E8001A69EEFCEFFD120FC17402121815EEFCF5
:1039F800EFFD8508828509831238DE1204C380141E
:103A0800750E098003750E0112438D850C82850D94
:103A180083123B4CA90E023578E5082402F508E527
:103A2800093400F5098A828B83A3A3A3E0A2E522C7
:103A380074041218157F0A02192874EC1218568C8F
:103A4800108D11EA2405F50CEB123064750F00EAAD
:103A58002402F50AEB123B33850A82F5831238DE1D
:103A680012083B8A088B09EA45097003023B257551
:103A78000E008071850C82850D83E06401704F8E85
:103A8800828F83A3A3121A808E828F83A3A3A3A3FA
:103A9800E0F5127513007812121A69EE2405F51272
:103AA800EF3400F5137812121A691238D81208592F
:103AB8007406121815E9F50F6014850C82850D83BC
:103AC800E4F012438D851082851183123B4C7C17DC
:103AD8007D007900EEFAEFFB120FD98E828F83E416
:103AE800F0A3F0050E9002E6E0F8E50EC398501E2C
:103AF800E50E75F017A4F8A9F0850882850983A357
:103B0800A312451A123B39EC4D6003023A7C850832
:103B18008285098374FFF0A3F0E50F70061238D888
:103B28001204C9A90F0238CFF50AEF3400F50B22A9
:103B3800A3E0FCA3E0FD228E828F83124395850EBD
:103B480082850F83E8F0A3E9F022C082C083900247
:103B5800E2E06A7003A3E06B70067AE27B028004FD
:103B68007A007B00022E3FC082C08378008C828D51
:103B780083E06A7003A3E06B7010E875F003A4F8A3
:103B8800A9F0EC28FAED39FB8015088C828D83A307
:103B9800A3A3E06A7003A3E06B60DF7A007B0002F6
:103BA8002E3F74F61218561208058A828B83E58216
:103BB800458370067A007B008007A3A3A3A312386D
:103BC800DE02423E74F2121856E9FE740E12184ACA
:103BD800123C27741012184A12409F8C828D83E081
:103BE80064027036A312439BF50CA3E0F9A80C7489
:103BF800026870037429697021750C02750D0078CC
:103C08000C121A697808121A69780A121A69EEF9F8
:103C180012087D7406121815800279010242C2E06A
:103C2800F50AA3E0F50B2274E812185674FB121774
:103C3800FFE9851882851983F08A168B17ECFEED4B
:103C4800FF751000741D12184A124391741D121842
:103C58004A123B4C8E828F83A3A3A3E0A2E4502D8B
:103C6800741D12184A1238DE1208478A828B83E5BF
:103C78008245837003024070790AEEFCEFFDAA16B4
:103C8800AB17121854E9F5106003024073741F1241
:103C9800184A12409F742112184A123C27742312A2
:103CA800184AE0F50EA3E0F50F8E828F83E06402D8
:103CB800600302401EA3124391850882850983A3ED
:103CC800858212858313EE240612306188828983E7
:103CD800E0FAA3E0F9EA2400F514E439F5157814BC
:103CE800121AF3010000280128133D07000228D802
:103CF8003D0328453D00290F3F01293A3F0229DBB2
:103D08003E03290F3F0429B93F1E40E50E450F60C9
:103D180003024019850C82850D83124094FAE9FB51
:103D28008A828B83E0850A82850B831240CA121A25
:103D3800698A828B83A3E0FCA3E0023FA3E50E45DA
:103D48000F6003024019850A82850B837401F01203
:103D580040A7850882850983F07C007D008E828FCC
:103D680083A3A3A3A3E02401FAA3E03400FB120772
:103D780033EA4B60418A828B83E02402F8850A8209
:103D8800850B83E028F0EA2404F8EB3400F98882F4
:103D98008983E08512828513831240DC1240CA129F
:103DA8001A698A828B83123B38E5082403FAE509ED
:103DB8003400FB023FA8850A82850B83E02404F0C7
:103DC8007C047D007900AA12AB13120FD90240734C
:103DD800E50E450F60030240191240A7FEA3E0FF5D
:103DE800850A82850B837404F0EE85088285098331
:103DF800F0EF851282851383F0740312184AAC829F
:103E0800AD83EEFAEFFB1207338A0C8B0DEA450DF2
:103E18007003023EBC8A828B83A3A3122CEA74012E
:103E280012184A85820E85830F780E121A69740556
:103E380012184A121A807CFF7DFF12073974041287
:103E480018158B0FEA450F7033850C82850D831288
:103E5800407F121A69850C82850D83A3121A807C13
:103E6800027D007AC37B841205657404121815E973
:103E7800700A740112184A74FFF0A3F08E828F83BF
:103E8800E064027039750C02750D00780C121A691D
:103E98008E828F83123B38E5082404FAE509340042
:103EA800FB120FC17402121815850A82850B83E074
:103EB80024028009740112184AEEF0A3EFF074018D
:103EC80012184A124090F0740112184AA31240883E
:103ED800024013E50E450F6003024019850C8285E8
:103EE8000D83123B39AA16AB17120871850A828511
:103EF8000B837402F0EA850882850983F0851282B3
:103F0800851383EB024016E50E450F600302401946
:103F18001240A7F8A3E0F9850A82850B837402F0A2
:103F2800E8850882850983F0E98512828513830272
:103F38004016850C82850D831238DE120FBBEAFC11
:103F48008C82A882C3950EE4950F405FE8650E70D9
:103F580002E50F70047C008022851882851983E0B1
:103F6800FAE50E2AFAE50F3400FBC3EA98EB940051
:103F78005003E08005E50ECCC39CFCEC850A8285E5
:103F88000B83F08C0A750B00780A121A69850C826B
:103F9800850D83E0250EFCA3E0350FFDAA08AB09CB
:103FA800120FC174021218150240737510070240EF
:103FB80073E50E450F705A850C82850D8312439167
:103FC800850A82850B837407122CF6124088122CFE
:103FD800F6A3E0851282851383F0E82402FAE93417
:103FE80000FB8A828B831240881240B7124090A34C
:103FF8001240C0124099F0E82405F8E93400F98825
:10400800828983124099A31240DCA3A3A3A3F08062
:104018005A75100B8055741D12184A1238DE120892
:10402800058A828B83E5824583603D124391880C23
:10403800890DE8450D6031780E121A69780A121A4E
:10404800697808121A69740612184AE0F9EEFCEF4A
:10405800FDAA16AB17850C82850D831218547406B9
:10406800121815E9F510800375100EA910740512C1
:1040780018157F10021928E0F50E750F00780E222A
:10408800E0850882850983221240E622124395E8DA
:10409800221240E6A3A322E0F508A3E0F509228551
:1040A8000C82850D83E0F8A3E0F5838882E022A3E3
:1040B800A3F08A828B83A322F088828983A3A3A397
:1040C800A322F08A828B831240D322E0F50A750B73
:1040D80000780A22F088828983A31240E622E085CC
:1040E8000882850983A3A32274EE12185674FE125F
:1040F80017FF8A0A8B0BECFAEDFB741412184AE0CE
:10410800F510A3E0F511741612184AE0FE7418129F
:10411800184AE0F50EA3E0F50F851882851983ACDF
:1041280082AD831207338A0C8B0DEA450D604985F1
:1041380018828519831238DE1208058A828B83E576
:10414800824583602FA3A312409FE5084509602498
:10415800780E121A697810121A69EEF9AC0CAD0DC6
:10416800AA0AAB0B850882850983121854740412B5
:1041780018158006790E8002790102357874F612D6
:10418800185674FE1217FF740C12184A12409485C0
:104198001882851983F0740112184AE9F0E4F508C9
:1041A800F5097808121A697508027808121A6974EC
:1041B8000412184A8582088583097808121A691238
:1041C800085974061218157402121815806874F7C5
:1041D800121856EAFEEBFF89087C197D0312087154
:1041E800EA5402600BA908EEFAEFFB1207278002D7
:1041F8007901022BF274F612185674FF6A70037470
:10420800FF6B70168C828D83124243E4F08C828D92
:1042180083A3A3A3124243A380181208418A088BE0
:1042280009A808A909E849600D8882898374FF12E2
:104238002CF4A3A3E4F07F0202192874FFF0A3F082
:104248008C828D83A3A32274F61218561208418A11
:10425800828B83E58245836006A3A3E0FA80027A15
:10426800007B0080D174F21218568A088B09ECFE84
:10427800EDFF740E12184AE0F50A1208418A0C8BF9
:104288000DA80CA90DE8497026EEFCEFFD7AFF7B1E
:10429800FF1208418A0C8B0DA80CA90DE84970047F
:1042A8007911801688828983E508F0A3E509F088EA
:1042B800828983A3A3E50AF079007F06021928748E
:1042C800EE121856EAFEEBFF8C088D09890C74145F
:1042D80012184A124391741612184A1238DE750DD4
:1042E80000E84960030243857402650C60030243D9
:1042F80080741212184A12439BFCA3E0F9EC2400C4
:10430800F50EE439F50FEAF4F8EBF4F9EC58F8E5B2
:104318000F59F9E849705CE5082406F8ED3400F90E
:10432800880A890B8882F5831243A61208718A10BD
:104338008B11E50E65107004E50F65116042780E6B
:10434800121A69850A82850B831243A612087774AC
:1043580002121815E9F50D7027780E121A698508EA
:1043680082850983A3A31243A412088F740212182A
:1043780015800D750D808008750D0D8003750D0B6A
:10438800A90D023A3D8E828F8312439522E0F8A34D
:10439800E0F92212439588828983E022A3A3E0FCF6
:1043A800A3E0FDEEFAEFFB2274E812185674E71248
:1043B80017FF851882851983EAF0A3EBF08C168D18
:1043C80017890E750800750900743112184AE0F54E
:1043D80012A3E0F513743312184AE0F514A3E0F5BC
:1043E80015743512184AE0F50FE50975F003A4F8BD
:1043F800A9F085188285198312451AE0F47003A381
:10440800E0F470030244FDEE2402F50CEF124510AF
:10441800E070030244FD85160A85170B780A121A04
:1044280069AC14AD15AA12AB131207F9740212186D
:10443800158A0A8B0BEA450B70030244FDE4F5105C
:10444800F5117810121A69740612184A85821085B7
:1044580083117810121A69740912184A8582108516
:1044680083117810121A69851282851383A3A3A376
:10447800A3121A807914AC0AAD0B8E828F8312387E
:10448800DE1208537408121815E97069850A8285C6
:104498000B83A3A3A3A3124391740212184A123BDD
:1044A8004C850C82850D83E0A2E05018A90E740299
:1044B80012184AAC82AD838E828F831238DE1207BF
:1044C8004BE94208850C82850D83E0A2E15026E580
:1044D8000FF50A780A121A6DA90E740312184AAC5D
:1044E80082AD838E828F831238DE120745740112E3
:1044F8001815E942080509E509C394025003024367
:10450800F1A90874190240773400F50D850C82F57D
:104518008322E028FEA3E039FF8E828F832274F283
:10452800121856EAFEEBFF890B7401650B600E74D6
:1045380002650B706A7901120A4BE97062EEFAEFB4
:10454800FB12083B8A088B09EA45096047750A008F
:10455800800B7C177D007900120FD9050A9002E6BE
:10456800E0F8E50AC3985021E50A75F017A4F8A900
:10457800F0850882850983A3A3E028FAA3E039FB24
:104588008A828B83122E4670C985088285098374B6
:10459800FFF0A3F07C197D03EEFAEFFB12086B0223
:1045A80042C274F21218568A088B09ECFEEDFF74A9
:1045B8000E12184A123C27900DF0E0F4603D7A097B
:1045C8007B00120FEBEA4B60328A828B8374B1F066
:1045D800A3E41240B9A31240B7A3E508F0A3E50984
:1045E800124606EEF0A3EF124606A3A3E50AF0A3CF
:1045F800E50BF0900DF0E0F9120FF70242C2F08AD5
:10460800828B83A3A3A3A3A322C082C083906190BB
:104618007404F0A37448F0A37402F09061807440AD
:10462800F09061BC7403F09061877419F090626532
:10463800741BF0906249E0C3941390619C400A7423
:1046480009F090606674018007740DF0906066E46C
:10465800F090619A7433F0A37455F09061A0743AA5
:10466800F090053FE064017009C2919003A6746759
:1046780080059003A67461F0902BAEE49390618658
:10468800F0902BA8E493F46027E493540FF890611A
:1046980085E0686012E5C654804449F5C6E59E5435
:1046A8007F644970F8E8F053C680E59E547F70FA3D
:1046B8007905120DA502486CC082C083E9540FF930
:1046C800906185E0696012E5C654804449F5C6E505
:1046D8009E547F644970F8E9F053C680E59E547F84
:1046E80070FA02486CC082C083E5A8F853A87E908F
:1046F8006181E4F0A3F0A3F0C2BA539AFEC28975AF
:104708009B00C2C275E90075910075BF0075A911BB
:1047180075B905906181F0A374C0F0A3E4F0D2BA32
:10472800439A0174805842A802486CC082C08374BE
:10473800F81217FF9003A4E0F8A3E0F9E849700322
:104748000248619003A4E0544060237908851882E8
:10475800851983AA82AB83120C0785188285198371
:10476800AA82AB831208FB9003A4E054BFF0E05484
:10477800806010790C7A657B05120C079003A4E021
:10478800547FF0E0A2E0503190619A7433F0A37442
:1047980055F09061A0743AF090053FE0640170090B
:1047A800C2919003A6746780059003A67461F01205
:1047B80009019003A4E054FEF0E0540260319061D6
:1047C8009A743FF0A3745AF09061A0747FF090053A
:1047D8003FE064017009D2919003A674718005903E
:1047E80003A6746AF01209019003A4E054FDF0E0F6
:1047F80054046013902BACE493906186F01209077F
:104808009003A4E054FBF0E054086013902BADE44F
:1048180093906186F01209079003A4E054F7F0E042
:1048280054106013902BAEE493906186F012090740
:104838009003A4E054EFF0E05420600A12090790B6
:1048480003A4E054DFF0A3E05401600D120B2F1213
:10485800090D9003A5E054FEF074081218150248DB
:104868006CF0A3F0D083D08202013574EC12185694
:1048780074F41217FF851882851983AC82AD83758D
:1048880083847582767404121712902BAC93F460AB
:10489800030249FF907808E0C3940250030249DFFD
:1048A800740412184AAC82AD8375838475820D74C2
:1048B8000812171285188285198385821285831339
:1048C800740412184AAC82AD83750EFF750FFF7F12
:1048D800FF7E00750C48750D78801574086E70039E
:1048E80002497374096E7003024973740A6E607B1F
:1048F800850C82850D8378081216CF8C828D83A94A
:1049080009E50AC9F88810741878081215FDE51029
:104918004508F8C3E098A3E099850C82850D837853
:10492800081216CF40188C828D83741878081215D7
:10493800FDE5104508F8E0C398F8A3E0801C74185A
:1049480078081215FDE5104508FAE9FB8C828D837D
:10495800E0F8A3E0F9EAC398F8EB99F9C3E8950EF3
:10496800E9950F5006880E890FEEFF0EE50C24041A
:10497800F50CE50D3400F50DEEC394135003024811
:10498800E374FF650E700474FF650F60238F08746D
:104998000278081217EC74482508F58274783509EE
:1049A800F58378081216CF851282851383E508F0FF
:1049B800EC2402FCED3400FD851282851383A38567
:1049C8008212858313740C12184AE5826C7003E511
:1049D800836D60030248D1750801750900780812D3
:1049E8001A69740212184AAC82AD837AEB7B0A12F8
:1049F80012557402121815740C1218157F0C02192E
:104A080028C082C0839061AE7468F0A3746AF09085
:104A1800624574FBF0A304F053F4FD43FE029005D5
:104A28003F7401F09061A0E0643A90619A70237439
:104A380033F0A37455F09061A0743AF074016401E6
:104A48007009C2919003A6746780289003A67461C8
:104A58008021743FF0A3745AF09061A0747FF074C1
:104A68000164017009D2919003A6747180059003C6
:104A7800A6746A02486B7F08021928C082C0839016
:104A880004F1E06401700A9004F6E06004790C8097
:104A980002790002486CC082C08375E1F19004F489
:104AA800E0605B14600914605F14605714705E1254
:104AB8000B419004EAE0F97AEB7B04120D277AD6D1
:104AC8007BBE7C897D8E120D5D7A557B557C557D2C
:104AD80000120D339004F5E0F9120D3F7901120D23
:104AE800999004E8E0F8A3E0C82416F582E83400B9
:104AF800F5837459F0A3740BF0790002486C120B1B
:104B08004780AF120B4D80AA120B5380A5791280F3
:104B1800EA74F012185675D90D9004D5E0A2E0E4B5
:104B2800331313F89004EAE0C4333354C048440103
:104B3800F5D978E8790488828983A3A3A3E0F5D915
:104B480088828983A3A882A983E864EE7003E96454
:104B58000470E378D5790488828983A3E0F5D9883D
:104B6800828983A3A882A983E864DB7003E96404CB
:104B780070E575E1959004D5E0F97AD67B04120DBD
:104B88002D900E1274EDF0A3740AF0A3744FF0A3E5
:104B9800740CF0A3744FF0A3740CF0A3744FF0A33B
:104BA800740CF0A374F3F0A3740AF0A3744FF0A389
:104BB800740CF0A3740BF0A3740BF0900E20744FD8
:104BC800F0A3740CF0A3744FF0A3740CF0A3744F0B
:104BD800F0A3740CF0A3744FF0A3740CF0A3744FFB
:104BE800F0A3740CF0A3744FF0A3740CF09004F4C9
:104BF800E064019004E87012E0F8A3E0F58388828D
:104C0800A3A37508007509088010E0F8A3E0F583F0
:104C18008882A3A3750804750900750A00750B003E
:104C28007808121648750CFF750DFF750EFF750F85
:104C3800007808790C1216969004E8E0F8A3E0C80A
:104C4800240EF582E83400F58378081216DE900405
:104C5800E8E0F8A3E0C82414F582E83400F583748A
:104C680013F09003A27402F0024A7E74F7121856E9
:104C78009004FAE02407F5D99004EAE0C4333354E9
:104C8800C0F5D978E8790488828983A3A3A3E0F5DD
:104C9800D988828983A3A882A983E864EE7003E98E
:104CA800640470E39004FAE0601F78E87904FAE895
:104CB8002413F582E93400F583E0F5D988828983E5
:104CC800A3A882A9831AEA70E690051AE02407F5DA
:104CD800D99004EAE0C4333354C04404F5D978E8E1
:104CE800790488828983A3A3A3E0F5D9888289837C
:104CF800A3A882A983E864EE7003E9640470E390D2
:104D0800051AE0601F78E87904FAE82433F582E9A7
:104D18003400F583E0F5D988828983A3A882A98322
:104D28001AEA70E675E195900E1274F9F0A3740A08
:104D3800F0A3744FF0A3740CF0A3744FF0A3740C99
:104D4800F0A3744FF0A3740CF0A374F3F0A3740AE7
:104D5800F0A3744FF0A3740CF0A3740BF0A3740BBE
:104D6800F0900E20744FF0A3740CF0A3744FF0A3CE
:104D7800740CF0A3744FF0A3740CF0A3744FF0A359
:104D8800740CF0A3744FF0A3740CF0A3744FF0A349
:104D9800740CF09004E8E0F8A3E0C8240EF582E86B
:104DA8003400F58374FFF0A3F0A3F0A3F09004E8B7
:104DB800E0F8A3E0C82414F582E83400F5837412FF
:104DC800F09003A27401F0FF02192874F712185624
:104DD8009004FAE02407F5D99004EAE0C433335488
:104DE800C04402F5D978E8790488828983A3A3A30B
:104DF800E0F5D988828983A3A882A983E864EE7044
:104E080003E9640470E39004FAE0601F78E8790429
:104E1800FAE82413F582E93400F583E0F5D98882AD
:104E28008983A3A882A9831AEA70E675E195900E92
:104E3800127405F0A3740BF0A37405F0A3740BF0BF
:104E4800A37405F0A3740BF0A37405F0A3740BF01E
:104E5800A37405F0A3740BF0A37405F0A3740BF00E
:104E6800A3740BF0A3740BF0900E20744FF0A3748E
:104E78000CF0A3744FF0A3740CF0A3744FF0A37458
:104E88000CF0A3744FF0A3740CF0A3744FF0A37448
:104E98000CF0A3744FF0A3740CF09004E8E0F8A3AE
:104EA800E0C8240EF582E83400F58374FFF0A3F01F
:104EB800A3F0A3F09004E8E0F8A3E0C82414F58276
:104EC800E83400F5837414F09003A27404F00251DE
:104ED8009A74F71218569004FAE02407F5D990044A
:104EE800EAE0C4333354C04406F5D978E879048835
:104EF800828983A3A3A3E0F5D988828983A3A882A2
:104F0800A983E864EE7003E9640470E39004FAE0AE
:104F1800601F78E87904FAE82413F582E93400F58B
:104F280083E0F5D988828983A3A882A9831AEA70C5
:104F3800E690051AE02407F5D99004EAE0C4333373
:104F480054C04404F5D978E8790488828983A3A3F6
:104F5800A3E0F5D988828983A3A882A983E864EEAF
:104F68007003E9640470E390051AE0601F78E8793B
:104F780004FAE82433F582E93400F583E0F5D988AA
:104F8800828983A3A882A9831AEA70E675E19590BD
:104F98000E1274FFF0A3740AF0A3744FF0A3740CFC
:104FA800F0A3744FF0A3740CF0A3744FF0A3740C27
:104FB800F0A3744FF0A3740CF0A3744FF0A3740C17
:104FC800F0A3740BF0A3740BF0900E20744FF0A3B1
:104FD800740CF0A3744FF0A3740CF0A3744FF0A3F7
:104FE800740CF0A3744FF0A3740CF0A3744FF0A3E7
:104FF800740CF0A3744FF0A3740CF09004E8E0F87C
:10500800A3E0C8240EF582E83400F58374FFF0A30A
:10501800F0A3F0A3F09004E8E0F8A3E0C82414F5A6
:1050280082E83400F5837415F09003A27403F0024B
:10503800519AC082C0839004E8E0F8A3E0C824062F
:10504800F582E83400F583E402486974F7121856CB
:105058009003D0E0F875F003A4C8AAF02AF974D236
:1050680028F8740339F9E82405FAE93400FB8A8240
:105078008B83E0FCA3E0FD88828983A3A3A3A3A379
:10508800A3A3A3A3ECF0A3EDF088828983A3A3A331
:10509800A3A3A3A3E024FFF8A3E034FFF98A828B3B
:1050A80083E8F0A3E9F002519A74F7121856EAFE61
:1050B800EBFF9061D0E0600302518E75D90E75D96F
:1050C8000375D904EE248BF582EF3400F583E5826D
:1050D8002408F8E5833400F9E0F5D9A3E86582707F
:1050E80003E9658370F2EE2483F582EF3400F583DB
:1050F800E5822404F8E5833400F9E0F5D9A3E865EE
:10510800827003E9658370F275E1957908EE248B66
:10511800FAEF3400FB120BFB7904EE2483FAEF3428
:1051280000FB120BFB7C00EEF8EFF9ECFAC3E49AF3
:10513800FA95E0FBEE2AFAEF3BFBEA248AF582EBCC
:105148003400F583E0C0E0E824AAF582E93400F5EC
:1051580083D0E0F00C88828983A3A882A983ECC35A
:10516800940840C7EE246FF582EF3400F583E0F829
:10517800A3E0F9EE2471F582EF3400F583E8F0A39B
:10518800E9F07901800279008008F0EEA2E092AFA0
:1051980079007F01021928C082C08375D90275D9A8
:1051A8000375D90575E195EA246FF582EB3400F5AE
:1051B80083E0F8A3E0F9EA2471F582EB3400F58383
:1051C800E8F0A3E9F0790102486C74F6121856EA7F
:1051D800FEEBFF9005457406F075084575090578DE
:1051E80008121A697C017903120C4374021218150B
:1051F80075D90675D903758245758305E0F5D9A378
:10520800E582644A7004E583640570F075E1959061
:1052180003A2E06408701EEE246FF582EF3400F5F7
:1052280083E0F8A3E0F9EE2471F582EF3400F5830A
:10523800E8F0A3E9F079010254A074F6121856EACE
:10524800FEEBFF9061D0E070667801900545740B25
:10525800F09003A2E0640770197508457509057890
:1052680008121A697C017903120C4374021218158A
:105278007805740128F5D975D903758245758305B4
:10528800E8FAE0F5D9A31AEA70F875E195EE246F0B
:10529800F582EF3400F583E0F8A3E0F9EE2471F528
:1052A80082EF3400F583E8F0A3E9F0790180027910
:1052B800000254A074F7121856EAFEEBFF75D903E2
:1052C80075D90375D90DEE24DDF582EF3400F58329
:1052D800E0F5D975E1957904120D63EE246FF58236
:1052E800EF3400F583E0F8A3E0F9EE2471F582EFDE
:1052F8003400F583E8F0A3E9F0790102519A74F6D5
:10530800121856EAFEEBFF9061D0E0F87480C3985B
:10531800FAEE2482F582EF3400F583E06004780425
:1053280080027800E8240BF8EAC39850030253CBB4
:105338007D09900545EDF0EE24E2F8EF3400F97AA6
:10534800467B057C0888828983E08A828B83F08883
:10535800828983A3A882A9838A828B83A3AA82AB2A
:10536800831CEC70E0EE2482F582EF3400F583E0D4
:10537800601D7508457509057808121A697C097950
:1053880003EEFAEFFB120C4374021218157D0D742C
:10539800012DF5D975D9037582457583058D08E00A
:1053A800F5D9A31508E50870F675E1957904120D8D
:1053B80063EE241DF582EF3400F583E4F0A3F07961
:1053C80001800279000254A074F6121856EAFEEB26
:1053D800FF9061D0E0F87480C398FAEE2482F582D9
:1053E800EF3400F583E06004780480027800E82454
:1053F80008F8EAC398500302549E7806900545744D
:105408000CF09003BFE0900546F09003C0E09005D3
:1054180047F09003C1E0900548F09003C2E0900582
:1054280049F09003C3E090054AF0EE2482F582EF3C
:105438003400F583E0601B75084575090578081286
:105448001A697C067903EEFA120C437402121815D5
:10545800780A740128F5D975D903758245758305CD
:105468008808E0F5D9A31508E50870F675E195797F
:1054780004120D63EE246FF582EF3400F583E0F833
:10548800A3E0F9EE2471F582EF3400F583E8F0A388
:10549800E9F07901800279007F0202192874F61276
:1054A8001856EAFEEBFF9061D0E0F87480C398FAD2
:1054B800EE2482F582EF3400F583E06004780480FE
:1054C800027800E82404F8EAC398500302557F786C
:1054D80002900545E8F0EE24F4F582EF3400F583F8
:1054E800E0900546F0EE2482F582EF3400F583E083
:1054F800601B7508457509057808121A697C0279D8
:1055080003EEFA120C437402121815780674012877
:10551800F5D975D9037582457583058808E0F5D9ED
:10552800A31508E50870F675E195EE2473F582EF8A
:105538003400F583E4F0EE247FF582EF3400F58340
:10554800E4F0EE241DF582EF3400F583E4F0A3F0D7
:105558007904120D63EE240DF582EF3400F583E033
:10556800F8A3E0F9EE2471F582EF3400F583E8F052
:10557800A3E9F07901800279000254A074F61218A8
:10558800569061D0E0F87480C398FCEA2482F582D2
:10559800EB3400F583E06004780480027800E824A6
:1055A80004F8ECC398405B79029005457407F0EA6B
:1055B80024F5F582EB3400F583E0900546F0EA2403
:1055C80082F582EB3400F583E060187508457509AB
:1055D800057808121A697C0209120C437402121821
:1055E800157906740129F5D975D90375824575832E
:1055F80005E9F8E0F5D9A318E870F875E19579019F
:10560800800279000254A074F5121856E9FCA2AF82
:10561800E433F50AC2AF7D0080010DEA246EF582FD
:10562800EB3400F583E0F8EDC398501A8D08EA25AD
:1056380008F8EB3400F9E8246AF582E93400F583C8
:10564800E06C70D68024EA246EF8EB3400F9E0FEB2
:10565800EA2EFAEB3400FBEA246AF582EB3400F513
:1056680083ECF088828983E004F0E50AA2E092AF37
:105678007F0302192874F6121856A2AFE433FDC24C
:10568800AFEA246EF582EB3400F583E014F07C0079
:1056980060368C08EA2508F8EB3400F9E8246BF545
:1056A80082E93400F583E0C0E0E8246AF582E93451
:1056B80000F583D0E0F00CEA246EF582EB3400F5B7
:1056C80083E0F8ECC39840CAEA246DF582EB340015
:1056D800F58374FFF0EA2469F582EB3400F583E47E
:1056E800F0EDA2E092AF0254A0C082C083E5A8F812
:1056F800C2AFEA246AF582EB3400F583E9F0EA24C4
:1057080069F582EB3400F583E4F0E8A2E7A2E792BA
:10571800AF02486C74F3121856EAFEEBFFECFAED90
:10572800FB8A828B83A3A3A3A3E0541FF0EE243645
:10573800F582EF3400F583E4F0F50AEEFCEFFD8A1C
:10574800828B83E0C0E0EC245DF582ED3400F583C4
:10575800D0E0F0750B00E50A33333354F8F50C8AC2
:10576800828B83E0F508750900E50B78081217CDE0
:10577800E508A2E0502FEE2436F8EF3400F98882CD
:105788008983E0F508EE2508F508EF3400F509E50A
:10579800082438F582E5093400F583E50CF08882A1
:1057A8008983E004F0050B050CE50BC3940840AFB2
:1057B800050A8A828B83A3AA82AB838C828D83A3FA
:1057C800AC82AD83E50AC3940550030257477F05B1
:1057D80002192874F71218569003CEE0640170037A
:1057E8000259397A009003D4E060030259397401F0
:1057F800F0A3E4F0A3F090043404F0900439F0909E
:1058080003D7E4F0A3F0A3F0A3F09003E104F09031
:105818000407E4F09003EAF0A3F0A3F0A3F0A3F0E8
:10582800A3F0A3F0900451F0900445F090043A746A
:1058380080F0A3E4F0900440F09004BCF0A3F0A33F
:10584800F0A3F0A3F0A3F0A3F0A3F09004C5F090A8
:105858000454F09004A4F0A3F0A3F0A3F0A3F0A3E1
:10586800F0A3F0A3F0A3F0A3F09004B0F09004B27A
:10587800F09004AEF09004C8F0A3F0A3F0A3F0A356
:10588800F0A3F0A3F0A3F078CE7903E8246EF582B4
:10589800E93400F58374FFF00A88828983A3A8821B
:1058A800A983EAC3940440E37ACE7B0378DC7904C5
:1058B80088828983E0C0E0EA2461F582EB3400F550
:1058C80083D0E0F088828983A3A882A9838A828B07
:1058D80083A3AA82AB83E864E17003E9640470D00F
:1058E8007ACE7B0378B5790388828983A3E0C0E008
:1058F800EA24E6F582EB3400F583D0E0F08882896B
:1059080083A3A882A9838A828B83A3AA82AB83E814
:1059180064BD7003E9640370CF9003CEE004F064C3
:105928000170089003D6E09003D0F07AD27B038010
:10593800047A007B0002519AC082C0839003D5E4A8
:10594800F09003D4F09003CEF0A3F0A374FFF075A9
:10595800E1F102486CC082C083780079009003D5D9
:10596800E0600478D2790388828983A3A3A3A3E0A3
:10597800F902486C74F6121856EAFEEBFFEE24633F
:10598800F582EF3400F583E0F8A3E0F9E849700305
:10599800025A21EE2463F8EF3400F97A007B00A262
:1059A800AFE433F508C2AF88828983E0FCA3E0FD49
:1059B800EC4D603A88828983E0FAA3E0FB8A828B07
:1059C80083E0FCA3E0FD88828983ECF0A3EDF08AF4
:1059D800828B83E4F0A3F088828983E0FCA3E0FD56
:1059E800EC4D700A88828983A3A3E4F0A3F0E5084C
:1059F800A2E092AF1213939004E2E004F09004E363
:105A0800E004F0EE2463F582EF3400F583E0F8A3B8
:105A1800E0F9E849600302599B8E828F83A3A3A310
:105A2800E0600F8E828F83A3A3A3E4F09003CFE0FE
:105A380014F09003CEE014F070069003D074FFF0D9
:105A48008E828F83A3A3E4F09004E1E0700D9003AD
:105A5800CFE0640170057900120D45EEFAEFFB12F4
:105A68000C730254A074F7121856EAFEEBFF8E82EC
:105A78008F83A3A3A3A3E0FA7B0012094FEEFAEFEA
:105A8800FB120BC5120C5B02519AC082C08378B519
:105A9800790388828983A3E4F088828983A3A88212
:105AA800A983E864BD7003E9640370E69003B674E3
:105AB8000102486B74F6121856EAFEEBFFEC240359
:105AC800F8ED3400F988088909EC2407F8ED34006A
:105AD800F9E8FCE9FD8C828D83E0F8A3E0F98508FC
:105AE80082850983E0FAA3E0FB121774EE240DF512
:105AF80082EF3400F583E8F0A3E9F08C828D83E02F
:105B0800F8A3E0F9850882850983E0FAA3E0FB128F
:105B180017748B09EA45096013EE240DF582EF34FA
