:020000040000FA
:0600000002011D02227F37
:03002B00022A9511
:03003300022A7727
:03003B00022AF4A2
:03004300022A2569
:030053000222F294
:03006B00022AB9AD
:03007B000229B3A4
:100083000220EBE5C754F84401F5C77901220000CB
:100093000080FB120086B90003020107E47921788E
:1000A30008B800028004F709D8FCE479297802B87B
:1000B30000028004F709D8FCE490028178A3790B4D
:1000C3008002F0A3D8FCD9FA781A90014D7A01BACC
:1000D30000028007E493A3F608DAF9900D23AA82BD
:1000E300AB8390014E781D79048015E493A3AC8211
:1000F300AD838A828B83F0A3AA82AB838C828D83A8
:10010300D8E9D9E77582CF7583C0740312012F75BF
:100113008291758300740012012F75D000758137A9
:10012300751881751902759F00020096C09FF59F8F
:10013300E473D09F22D083D082C09FE493C0E07445
:100143000193C0E0740293F59F2201FF0000B40005
:100153000028002800283075A000A000A000A000FF
:1001630000080008E001F00010001000100010006B
:100173001000100050005000500010001000D00775
:100183000000000000000F000100050030750700AB
:100193001000010081FF00000000FF680686066E64
:1001A30006FF02020208025000A0000000E803025A
:1001B3009B8401000083840297840100007A0D026E
:1001C3009184010000B3020297840100007B0D02B9
:1001D3008F84010000C9020297840100007C0D0294
:1001E300A384010000CB020297840100007D0D026D
:1001F300B584080000CC020297840100007E0D0242
:10020300C1840100007F0DFF0100FF20029B8401D8
:1002130000008684029784010000E30D02B7840086
:10022300000000000293840300001903320C320C17
:10023300320C320C320C320C320C320C320C320CCB
:10024300320C320C320CC60EDE0EC00EFFFFE00184
:10025300020202020202020202010D00000010016A
:10026300029B840100008C84029784010000280E05
:1002730002A5840100006709029784010000290E8A
:1002830002A784010000A6830297840100002A0EBE
:1002930002AD8401000070830297840100002B0EDD
:1002A30002B384010000A9820297840100002C0E8E
:1002B30002B984010000BB820297840100002D0E65
:1002C30002BB8401000097820297840100002E0E76
:1002D30002BD8401000085820297840100002F0E75
:1002E30002BF840100007E83029784010000300E68
:1002F30002AB84010000310E01E803053F100AFF41
:100303000001307503020106000000000000000038
:1003130000000000000000000000000000000000DA
:1003230000000000FFFF0600800CE8036169636FB3
:10033300353637383930313233343536373839306A
:10034300140900000000000000000000000000008D
:100353000000000000051250002003020A00020101
:10036300060302F0FF7A656B657A616E6700000031
:1003730000000000000000000000001E1400000048
:10038300000C1424140A4368617261637465726912
:10039300737469632031000A436861726163746531
:1003A3007269737469632032000843686172616320
:1003B30074657269737469632033001043686172F2
:1003C30061637465726973746963203400024368FE
:1003D30061726163746572697374696320350002C5
:1003E3009B8401000080840297840100005D0F025A
:1003F300C584030000FC0C0295840100005E0F021B
:1004030097840100006F0F02C784030000100D02E0
:100413009584010000700F029784010000810F0290
:10042300C984030000110D029584010000820F02AC
:100433009784010000930F02B184000000170D029E
:100443009384030000180D029584010000940F02A9
:100453009784010000A50F02AF840400001E0D0263
:100463009584010000A60F120138D8AF031201389A
:10047300EFAF0312013820B0031201385BB003124F
:10048300013885B003120138AFB003120138C6B08A
:1004930003120138DDB003120138F4B0031201383E
:1004A3001DB10312013830B10312013846B10312F2
:1004B300013859B10312013880B103120138BBB5B9
:1004C30002120138BFB602120138F7B60212013820
:1004D3001AB70212013825B70212013848B70212BF
:1004E300013857B8021201382CB902120138A7B9E2
:1004F300021201382FBA021201386ABA0212013805
:10050300A1BA021201382FBB0212013808BC021231
:10051300013868BC0212013873BC02120138F2BC04
:1005230002120138F5BC02120138F8BC021201387C
:1005330087BD021201388ABD02120138BABD021208
:100543000138E4BD02120138D2BE0212013884BF61
:10055300021201381DEC0212013845EC0212013877
:1005630073EC02120138AAEC0212013808ED0212F0
:10057300013853ED021201389EED02120138DEED0F
:100583000212013824EE0212013852EE021201382F
:100593000FEF0212013819EF0212013826EF02128F
:1005A300013859EF0212013825F00212013831F0F7
:1005B3000212013849F00212013853F002120138D5
:1005C3001CBD031201382ABD0312013842BD0312B8
:1005D30001385ABD0312013817CD01120138C3CDBA
:1005E300011201383ECE011201385FCF01120138EA
:1005F3009BCF0112013844D0011201382BD10112D3
:1006030001388FD201120138E6D20112013867D3C3
:100613000112013857D401120138A4D40112013850
:100623002AD5011201385CD50112013870D70112A5
:100633000138B2D701120138D0D70112013853D88B
:100643000112013827D901120138EFD901120138FB
:10065300A3F80112013876F9011201381FFA0112C9
:10066300013872FA0112013822FB01120138AEFB84
:10067300011201389AFC01120138C9FC0112013838
:10068300DCFD0112013824FE01120138F9FE0112CA
:10069300013835FF0112013851FF01120138ECBF57
:1006A30003120138B99803120138CF9803120138A5
:1006B300F59803120138119A031201381B9A031299
:1006C3000138509B03120138489C03120138F6E6A7
:1006D3000212013826E80212013859E802120138E1
:1006E300A3E8021201386AEA02120138F0AD0112DE
:1006F30001385AAE01120138B9AF01120138C9AF3E
:1007030001120138F6AF011201384DB00112013860
:10071300F6B001120138FDB101120138C7B201125E
:10072300013827B4011201386AB4011201380FB538
:10073300011201385CB50112013882B5011201388A
:1007430090B70112013895B7011201389AB9011215
:100753000138E7B9011201385ABA011201388DBACA
:10076300011201382FBB01120138D8BB0112013825
:1007730010BC0112013813BC011201385BBC011219
:1007830001389BBC01120138F2BC011201384B9FA6
:1007930003120138639F03120138AB9F0312013820
:1007A300C19F0312013808A0031201381CA10312D0
:1007B3000138A9A103120138F4A103120138682BEF
:1007C30000120138742B00120138AF2B00120138CC
:1007D300F42B00120138B42C001201383A2D001208
:1007E30001389F2D00120138CB2D00120138042E41
:1007F300001201384230001201382632001201384B
:100803000C34001201384F35001201389D370012A5
:100813000138AF3800120138FA39001201380A3BA7
:1008230000120138273B00120138623B00120138E5
:10083300843B00120138E73B00120138A840001244
:1008430001383D41001201388E4100120138B54193
:100853000012013807420012013825420012013804
:100863007F4200120138684300120138DE4400124F
:10087300013862450012013874F5021201387EF521
:1008830002120138C1F502120138DCF502120138F7
:100893006CF60212013894F602120138D1F60212F4
:1008A300013808F70212013831F702120138A6F7AE
:1008B30002120138BBF702120138D0F702120138D5
:1008C30001F80212013815F8021201383AF802123F
:1008D300013874F802120138A0F80212013823F922
:1008E300021201386CF90212013896F9021201382A
:1008F300C1F9021201381CB903120138E8A8021227
:10090300013816A90212013864AA0212013844AB55
:100913000212013863AB02120138E0AB0212013854
:1009230023AC0212013879AD021201383AAE021239
:100933000138C1B00212013862B10212013858B253
:100943000212013855B302120138AFB40212013852
:100953003AB502120138957E00120138FE7E00126C
:100963000138527F00120138797F00120138AA7FC3
:1009730000120138E9F90212013856FA021201385D
:100983009DFA02120138B5FB02120138B1FC0212C2
:10099300013894FD02120138F5BF0212013837C045
:1009A3000212013809C102120138E2C102120138F0
:1009B300DCC202120138BEC30212013827C402127C
:1009C3000138DDC40212013851C502120138BDC518
:1009D30002120138E6C50212013860C6021201385C
:1009E300F9C6021201385EC70212013873C7021238
:1009F3000138B9C702120138D2C70212013837C809
:100A0300021201383AC802120138529C031201380B
:100A13007A9C03120138B89C03120138769D0312A5
:100A23000138DD9D03120138F99D03120138219E1F
:100A330003120138519E03120138609E03120138DC
:100A4300DD9E03120138039F03120138DFBD01123B
:100A53000138BDBF01120138EFC1011201382BC2A9
:100A63000112013858C20112013842C30112013880
:100A73008DC301120138D8C301120138EAC3011230
:100A830001382AC4011201385FC401120138ADC410
:100A930001120138DCC401120138FFC4011201380C
:100AA3004CC501120138D1C501120138EBC701123F
:100AB30001382ACA011201386BCA011201380DCC60
:100AC300011201384ECC01120138C1CC0112013898
:100AD300D39B02120138D19C021201386AA302127D
:100AE30001388BA50212013856A702120138BEA89D
:100AF30002120138C9450012013878460012013844
:100B0300A54600120138EB46001201382B480012AB
:100B13000138C149001201383B4A00120138564AD4
:100B230000120138D14A001201382B4C001201384F
:100B33008B4D00120138914E00120138F24F001212
:100B430001380B5000120138695000120138575117
:100B5300001201388A5100120138FA51001201388B
:100B6300745200120138BE52001201388853001229
:100B730001385D54001201383C5500120138C75545
:100B830000120138355600120138A95600120138F7
:100B9300D45600120138935700120138F858001246
:100BA3000138155900120138345900120138255AF9
:100BB300001201384A5A00120138745A00120138DF
:100BC300EF5A00120138495B00120138B25C00127F
:100BD3000138605D00120138A15D00120138FF8DFC
:100BE300021201384D8E02120138598E0212013859
:100BF300378F02120138688F02120138998F02125F
:100C03000138199002120138519002120138A39051
:100C130002120138E09002120138FD9202120138EB
:100C23002395021201380E9702120138F898021226
:100C33000138F07F00120138DD99011201380D9A55
:100C430001120138E6A0011201386BA2011201382A
:100C530068A80112013850A9011201388DA90112A7
:100C63000138B0A901120138E1A901120138EAA93A
:100C730001120138F4A901120138E2AA0112013864
:100C8300D8AB01120138CE8401120138CD8801128C
:100C93000138D388011201380E90011201382795CB
:100CA30001120138EB9403120138819503120138C4
:100CB3009795031201380D9603120138819603129A
:100CC3000138BF9603120138339703120138AC97EA
:100CD30003120138B59703120138C1970312013883
:100CE300D697031201381498031201382A98031275
:100CF3000138899803120138AA8803120138B7888A
:100D030003120138D1880312013810890312013804
:100D13004E8903120138B38903120138C8890312BB
:100D23000138D38903120138E08903120138F789A6
:100D330003120138058A03120138108A031201389D
:100D43001C8A031201382B8A03120138368A0312D4
:100D53000138598A03120138008B03120138108BB2
:100D6300031201382A8B03120138478B031201380F
:100D7300638B03120138888B03120138938B0312A0
:100D83000138A88B03120138BC8B031201381D8C68
:100D930003120138238C03120138298C0312013802
:100DA3002F8C03120138478C031201387A8C0312FB
:100DB300013879EA01120138FDEA01120138ACEB7E
:100DC300011201380BED011201382CEF0112013829
:100DD30018F0011201384DF0011201386FF00112C1
:100DE30001381EF10112013816F3011201383FF3E5
:100DF30001120138D1F30112013803F40112013851
:100E030010F40112013867F4011201388DF4011254
:100E13000138FAF601120138FDF70112013855F8CD
:100E23000112013808DC0112013812DD0112013808
:100E3300F9DD0112013803DE0112013825DE01124A
:100E4300013831DE01120138CADF01120138F9DF3E
:100E53000112013815E1011201386EE10112013866
:100E6300D4E201120138B3E3011201380FE4011295
:100E730001387CE401120138B7E401120138F6E4C9
:100E830001120138AFE701120138C9E70112013835
:100E930055E80112013863E801120138BCE8011278
:100EA3000138CAE8011201383DE901120138A1E90C
:100EB30001120138EBE9011201386773001201389E
:100EC300897300120138AF7500120138C47800121B
:100ED3000138DC79001201388F7A00120138717BF6
:100EE3000012013856FE021201387BFE021201384D
:100EF300EDFE02120138FED80212013807D90212A0
:100F0300013810D902120138E7D90212013898DBEF
:100F130002120138CEDB0212013808DC021201385A
:100F23003EDC0212013878DC02120138ACDC02121A
:100F33000138D8DC0212013821DD021201385BDDF1
:100F430002120138A4DD02120138FCDD021201385D
:100F530031DE021201388CDE02120138C6DE0212C3
:100F6300013817DF021201384DDF0212013887DF23
:100F730002120138B5DF02120138D8DF021201383C
:100F8300A9BE03120138D5BE0312013830BF0312C4
:100F930001383ABF031201384ABF031201385EC851
:100FA3000212013868C802120138A6C802120138B9
:100FB300EFC80212013829C90212013883C902128B
:100FC3000138A4C9021201387CCC0212013885CC45
:100FD30002120138D2CC02120138FBCC02120138C2
:100FE30005CD0212013871CD0212013803CE02126F
:100FF30001384DCE0212013883CE021201380FCFD1
:101003000212013850CF0212013887CF0212013881
:1010130099CF02120138B8CF02120138C1CF0212A0
:1010230001388ED00212013839BB03120138E7AD03
:10103300031201381DAE0312013853AE03120138F7
:101043009EAF0312013854BF031201386ABF031263
:10105300013874BF03120138BEBF0312013870C0D8
:1010630003120138DAF002120138EFF002120138EC
:101073009FF102120138DFF102120138F8F1021276
:10108300013833F20212013880F202120138B2F24F
:1010930002120138F4F202120138F5F40212013897
:1010A30067F502120138D6B403120138FFB40312F4
:1010B30001382EB503120138C6B503120138DEB567
:1010C3000312013820B60312013865B60312013842
:1010D30070B60312013811B703120138D6AB0312ED
:1010E3000138DFAB0312013850AC0312013864AC92
:1010F30003120138B9AD03120138DBAD0312013815
:101103001EA20312013843A2031201386DA2031277
:10111300013827C103120138D15D0012013836604E
:1011230000120138D761001201388B6200120138B6
:101133001E6300120138A36300120138C863001252
:1011430001381E6700120138A46700120138D768FE
:101153000012013811690012013846690012013882
:10116300066B00120138636B00120138AC6B00127E
:101173000138176C00120138886C00120138BA6C00
:1011830000120138D26C001201381B6E00120138B4
:101193002B6E00120138466F00120138686F00127F
:1011A30001389E6F00120138527100120138DF714D
:1011B300001201381E720012013842730012013806
:1011C300F3BD0312013804BE03120138C8C1031270
:1011D300013807C20312013883C20312013830BC3D
:1011E3000312013840BC031201385BBC03120138FF
:1011F3000FBD03120138EAA4031201381BA5031221
:10120300013805A70312013835BA03120138BABAF7
:101213000312013820BB03120138D9B70312013876
:101223000DB80312013836B803120138ADB80312F2
:10123300013834B3031201385DB303120138C3B369
:1012430003120138E3B30312013834B40312013833
:101253008FB403120138C9B403120138CCB403129A
:1012630001385C8403120138958403120138078521
:10127300031201381C850312013847860312013813
:10128300C38603120138898703120138A887031222
:101293000138CF87031201380C88031201382488E0
:1012A30003120138758803120138F78C03120138D1
:1012B3000E8D03120138888D031201386C8E0312D0
:1012C3000138439003120138A89003120138FF90AC
:1012D300031201387DC103120138F87F001201386F
:1012E30091A9031201382CAB031201388DAB031201
:1012F3000138D3AB03120138139103120138AE91B5
:1013030003120138329203120138CB9203120138CF
:101313008D93031201380294031201382A940312A5
:101323000138339403120138A39403120138B6949D
:1013330003120138CC9403120138D59403120138F7
:10134300E8940312013892B103120138E4B1031295
:1013530001386EB203120138D5B2031201384CA71B
:101363000312013876A70312013844A80312013887
:101373001FA903120138BCD00212013883D1021213
:101383000138BAD102120138E4D10212013844D231
:10139300021201389AD202120138FFD20212013826
:1013A30097D302120138A6D4021201383DD6021295
:1013B3000138CAD60212013831D70212013848D790
:1013C3000212013862D802120138A0D80212013881
:1013D300008002120138818302120138098502124A
:1013E30001386085021201387F8502120138FD85BC
:1013F30002120138938702120138788802120138E9
:10140300868C021201385C8D0212013878E00212D8
:101413000138EBE002120138F5E30212013880E5EE
:101423000212013852E60212013874E60212013840
:1014330000800312013845800312013862800312D1
:101443000138278103120138908103120138748215
:101453000312013823840312013811C20312013825
:10146300C6FF011201383DC20312013865C203E011
:1014730066701008A3E066700A08A3E066700408AB
:10148300A3E06622C3E7960809E7960809E79608EA
:1014930009E79622C3E09608A3E09608A3E096081E
:1014A300A3E09622C008C3E096F50808A3E096429D
:1014B3000808A3E096420808A3E09645087001D304
:1014C300D00822080808EAC0E0EBC0E086F0E7A4F1
:1014D300FA180986F0E7A42AFA180986F0E7A42A7D
:1014E300FA180986F0E7A42AFA1986F0E7A4FBE5BF
:1014F300F02AFA190886F0E7A42BFBE5F03AFA196B
:101503000886F0E7A42BFBE5F03AFA18180986F0F1
:10151300E7A4C5F02BFBE43AFA1908E7C5F0C6A423
:1015230026F6E5F03BFBE43AFA1886F0E7A4F6E585
:10153300F00826F6E43B08F6E43A08F6D0E0FBD0E0
:10154300E0FA22E4CFC0E0E4CEC0E0E4CDC0E0E4C2
:10155300CCC0E075F020C3E633F608E633F608E6C0
:1015630033F608E633F6181818EC33FCED33FDEECA
:1015730033FEEF33FFC3EC9709ED9709EE9709EFBD
:1015830097191919400FFFEC97FC09ED97FD09EE28
:1015930097FE191906D5F0BEECF709EDF709EEF73A
:1015A30009EFF7191919D0E0FCD0E0FDD0E0FED027
:1015B300E0FF226016080808C6C313C618C613C680
:1015C30018C613C618C613C6D5E0EA227009080860
:1015D30008226016181818C6C333C608C633C608CF
:1015E300C633C608C633C6D5E0EA22E627F608099D
:1015F300E637F60809E637F60809E637F622E02665
:10160300F608A3E036F608A3E036F608A3E036F6BC
:1016130022E026F008A3E036F008A3E036F008A3A2
:10162300E036F022C3E697F60809E697F60809E6DE
:1016330097F60809E697F622C3E096F008A3E0962A
:10164300F008A3E096F008A3E096F022E657F60828
:1016530009E657F60809E657F60809E657F622E0C1
:1016630056F608A3E056F608A3E056F608A3E0569C
:10167300F622E056F008A3E056F008A3E056F0087F
:10168300A3E056F022E0F608A3E0F608A3E0F6088C
:10169300A3E0F622E6F008A3E6F008A3E6F008A329
:1016A300E6F022E0FAA3E0FBA3E0FCA3E0FD22EADC
:1016B300F0A3EBF0A3ECF0A3EDF022CAC0E0E6F058
:1016C300A308DAFAD0E0FA22CAC0E0E0A3C582CCCC
:1016D300C582C583CDC583F0A3C582CCC582C5832E
:1016E300CDC583DAE6D0E0CA22C3E498F8E499F9D9
:1016F30012172D8026C3E49AFAE49BFBE920E7E95D
:1017030012172DE498F8E499F922C3E498F8E499C0
:10171300F912172DE498F8E499F9C3E49AFAE49BD3
:10172300FB22EB20E7CFE920E7E0B90010BB00087C
:10173300E88AF084F8AAF022E4FBC8FA22EB7022CC
:101743007B10C833C8C933C9335007C39AC3DBF20C
:1017530080069A50012ADBEAC833F4C8C933F4C9B6
:10176300FA2275F008E4C833C8C933C933C99AC922
:101773009B5004C92AC93BD5F0ECFBC833F4C8E439
:10178300C9FA22600D08C6A2E713C618C613C6D548
:10179300E0F322600C08C6C313C618C613C6D5E00F
:1017A300F422700422600D18C6C333C608C633C6BC
:1017B300D5E0F41822251810AF08F51840021519C2
:1017C3008008F51840021519D2AF22C0D025181091
:1017D300AF08F518500205198008F51850020519CD
:1017E300D2AFD0D0222518F58210AF08F5184002E9
:1017F30015198008F51840021519D2AF85198322EF
:101803002518F582E43519F58322E4732518C5827A
:10181300C0E0E51934FFC583C0E0E518C395822411
:10182300F810AF0885831985821880088583198588
:101833008218D2AFCEF0A3E520F0A37808E608F033
:10184300A3DEFAEFF0A3E58124FAF8E608F0A3E6B5
:1018530008F0A3E608F0A30808E608F0A3E608F0FA
:10186300A315811581D0E0FED0E0F815811581150F
:1018730081E8C0E0EEC0E0222518C582C0E0E5198A
:1018830034FFC583C0E0E518C3958224F910AF087F
:101893008583198582188008858319858218D2AFBC
:1018A300CEF0A3E520F0A37808E608F0A3DEFAEF74
:1018B300F0A3E58124FBF8E608F0A3E608F0A3080B
:1018C30008E608F0A3E608F0A315811581D0E0FE31
:1018D300D0E0F815811581E8C0E0EEC0E02285195B
:1018E30083851882E0A3FEE0A3F5207808E0A3F641
:1018F30008DFFAE0A3FFE0A3C0E0E0A3C0E0E0A3B9
:10190300C0E0E0A3C0E0E0A3C0E010AF0885821808
:101913008583198008858218858319D2AFD083D037
:1019230082020135851983851882E0A3FEE0A3F5C1
:10193300207808E0A3F608DFFAE0A3FFE0A3C0E005
:10194300E0A3C0E0E0A3C0E0E0A3C0E010AF0885DF
:1019530082188583198008858218858319D2AFD0B0
:1019630083D08222C0D02518C582C0E0E51934FF98
:10197300C583C0E0E518C3958224F310AF088583BF
:10198300198582188008858319858218D2AFC8F01B
:10199300A3E9F0A3EAF0A3EBF0A37908E709F0A326
:1019A300D8FAECF0A3EDF0A3EEF0A3EFF0A3D0E0B0
:1019B300F0A3D0E0F0A3D0E0F0A3E520F0A3E5F09E
:1019C300F0A322851983851882E0C0E0A3E0F9A380
:1019D300E0FAA3E0FBA37808E0F608A3DFFAE0FC53
:1019E300A3E0FDA3E0FEA3E0FFA3E0C0E0A3E0C00B
:1019F300E0A3E0F5D0A3E0F520A3E0A3F5F010AF5A
:101A0300088583198582188008858319858218D2F1
:101A1300AFD082D083D0E0F8D0E032740480067473
:101A23000280027401C0E0F4041217E8D0E0121639
:101A3300BE227404800474028000CCC0E0EDC0E0D8
:101A4300E518C39CCCAD1950011D10AF068C188D41
:101A53001980068C188D19D2AF1216CBD0E0FDD0A9
:101A6300E0FC22D083D082E9C0E0E493A3C386F0F4
:101A7300C5F095F0F908E493A386F0C5F095F070EE
:101A83000BE493A3C3994005E9048002A3E475F032
:101A930002A42582F582E5F03583F583D0E0F9E4ED
:101AA30093A3C0E0E493C0E022D083D082ECC0E0F3
:101AB300EDC0E0E493A3FCE493A3FDED4C600D12B1
:101AC3001AF8EC24FFFCED34FFFD80EFE493A3FC54
:101AD300E493A3FDED4C600D121B37EC24FFFCEDEA
:101AE30034FFFD80EFD0E0FDD0E0FCE493A3C0E041
:101AF300E493C0E022C0E0C3E49396087401939694
:101B030018400FE493667008087401936618700018
:101B13007019A3A3C3E49396087401939618A3A31F
:101B2300400DD0E0D0E0D0E0021AE8A3A3A3A3A322
:101B3300A3D0E022C0E0C0F088F0E4936670080808
:101B430074019366187000A8F0A3A3700BD0F0D0B3
:0F1B5300E0D0E0D0E0021AE8A3A3D0F0D0E02267
:101B640074F512187BEAFEEBFFEE2434F8EF340030
:101B7400F988088909EE2435F582EF3400F583E00D
:101B8400F8EE2437F582EF3400F583E0F50AEC85AE
:101B94000AF0A4FCAAF0850AF0EDA42AFDE82CF8CA
:101BA400E43DF97A257B0012172DEA850882850920
:101BB40083F0F8740758F97401B900028004C33340
:101BC400D9FCFAE8131313541FF8EE28F8EF340085
:101BD400F9E8245DF582E93400F583E05A6008EE03
:101BE4002434F582EF802CEE2434F582EF3400F5B2
:101BF40083E0C0E0EE2436F582EF3400F583E0F5AF
:101C0400F0D0E084A8F0EE28F8EF3400F9E82438A6
:101C1400F582E93400F583E0F97F0402192774F5AD
:101C240012187BEAFEEBFFEE2434F582EF3400F564
:101C340083E0C0E0EE2435F582EF3400F583D0E094
:101C4400F08E828F83A3A3A3A3A3A3A3C082C08384
:101C54008E828F83A3A3A3A3A3E0F8A3E0F9D08388
:101C6400D082E0C398F508A3E099F509EE247FF546
:101C740082EF3400F583E064017069EE2480F5821C
:101C8400EF3400F583E0F8A3E0F98E828F83A3A3F9
:101C9400A3A3A3A3A3E0FCA3E0FD8E828F83A3A34D
:101CA400A3A3A3E0FAA3E0FBC3EA9CEB9D5010C3FB
:101CB400EC98ED99402EC3EA98EB995027800EC317
:101CC400EA98EB994007C3EC98ED9940177CDC7DCA
:101CD40004EEFAEFFB120B90EE247FF582EF340052
:101CE400F583E4F0EE2434F8EF3400F9E8FCE9FD80
:101CF400EE2435F582EF3400F583E0F8EE2437F571
:101D040082EF3400F583E0F50AE508850AF0A4F5CE
:101D140008AAF0850AF0E509A42AF509E82508F8D7
:101D2400E43509F97A257B0012172DEA8C828D831C
:101D3400F0F8740758F97401B900028004C333D968
:101D4400FCFAE8131313541FF8EE28F8EF3400F9E3
:101D5400E8245DF582E93400F583E05A6008EE2456
:101D640034F582EF802CEE2434F582EF3400F583D1
:101D7400E0C0E0EE2436F582EF3400F583E0F5F0C0
:101D8400D0E084A8F0EE28F8EF3400F9E82438F520
:101D940082E93400F583E0F912299F021C1DC082F8
:101DA400C083851882851983E0F8A3E0F9C3EA9C0F
:101DB400EB9D5010C3EC98ED99401BC3EA98EB9946
:101DC4005014800EC3EA98EB994007C3EC98ED9940
:101DD4004004790180027900D083D08222EAC39C36
:101DE400FAEB9DFB2274EF12187B9003A2E06408C7
:101DF4006005E06407702A9061C8E060249003D015
:101E0400E0F4601DE0F875F003A4C8AAF02AF974A0
:101E1400D228FE740339FF8E828F83A3A3A3E070BC
:101E240003021F19906060E0C0E0EE2468F582EFC1
:101E34003400F583D0E0F0750C45750D0575080088
:101E4400750900E5D914F50AE5D95403F50E6017B0
:101E54007403650E605CE50A6010EE2467F582EF9A
:101E64003400F583E07003021EFE900540E0640137
:101E7400602AEE2482F582EF3400F583E060047872
:101E84000480027800850A08E508C398FA95E0FB07
:101E9400120A5E8A088B09EA45097005120D9480BE
:101EA40074EE2482F582EF3400F583E070048A0C2A
:101EB4008B0DE50A6012850C82850D83F50BE5D93F
:101EC400F0A3150BE50B70F6EE2482F582EF3400D7
:101ED400F583E0604474FC250AF50A780C121A2292
:101EE400AC0AA90EEEFAEFFB120C2C74021217CEF8
:101EF400E97026AA08AB0912134C793D8E828F83B0
:101F0400A3A3A3A3E0FA7B00120932EEFAEFFB12BB
:101F14000BA8120C3E790080747403650E6056851C
:101F24000A107511007810121A22AC0CAD0DAA0813
:101F3400AB09120C0874021217CEEE2468F582EF76
:101F44003400F583E064807004747F8001E0F50C54
:101F5400780C121A26E50EF50C780C121A26A90A2A
:101F6400AC08AD099003D0E0FA7B001208F67402C5
:101F74001217CE80139003A2E06408600BAC0CAD82
:101F84000DEEFAEFFB120C98120DA079017F0A02F4
:101F9400192774F512187B74FC1217B8EAFEEBFFCC
:101FA4008908A2AFE433F509C2AF806AEE2463F86E
:101FB400EF3400F97A007B00A2AFE433F50AC2AF34
:101FC40088828983E0FCA3E0FDEC4D603A88828935
:101FD40083E0FAA3E0FB8A828B83E0FCA3E0FD8824
:101FE400828983ECF0A3EDF08A828B83E4F0A3F082
:101FF40088828983E0FCA3E0FDEC4D700A88828925
:1020040083A3A3E4F0A3F0E50AA2E092AF12134C79
:102014009004E3E004F0EE2463F582EF3400F583EA
:10202400E0F8A3E0F9E849603DEE2463F582EF347B
:1020340000F583E02402FAA3E03400FBEA2402F56D
:102044000AEB3400F50B780A121A228A828B83E099
:10205400FCA3E0F9EEFAEFFB120BCC74021217CEDC
:10206400E97003021FB09004E3E060639004E4E0CD
:10207400F89004E3E0C398500C7402650870509023
:1020840004E5E0604A8E828F83A3A3A3A3E08518AE
:1020940082851983F0A3E4F09004E3E0F87402125B
:1020A4001803E8F0A3E4F09004E3E0F89004E2E01D
:1020B40028F07402121803AC82AD83851882851946
:1020C40083AA82AB8379011209029004E3E4F0E568
:1020D40009A2E092AF74041217CE021C1D00000086
:1020E4008521878522C622C0E0C0D0E8C0E0E9C0CF
:1020F400E0EAC0E0EBC0E0ECC0E0EDC0E0EEC0E040
:10210400C008C009C00AC00BC082C083C0F0A2AF1F
:10211400E433FEC2AF759B00906182E0A2E05012EE
:10212400E591A2E0500C7591FE74016521700312D3
:102134001DE9E0A2E55051E591A2E5504B7591DF10
:102144009003A2E064076005E064087023740165ED
:1021540021703579019003D0E0FA75F003A4CAA880
:10216400F028FB74D22AFA74033BFB121F968018E2
:10217400E0640D70139003C4E004F064287002E47A
:10218400F07A00E0F9120DA6906182E0A2E6400325
:10219400022232E591A2E640030222327591BF90F9
:1021A40003A2E064057008120CCE120CDA8003124C
:1021B4000CD4752100120D34E99003A3F0790012B8
:1021C4000D28120B067A017B009003A1E0F9120F8F
:1021D400FE907803E064427055900544E014F0707A
:1021E4004DC2AF1221EA00782AD0E0F618D0E0F60A
:1021F400E59F540770057509FF800375097FC4C006
:10220400E07829E6F50808E65509F509740B78081D
:10221400121796D0E02508F8906270E0A2E740F823
:10222400E8C333906272F0906270E0D2E0F09061A3
:1022340081E0A2E35009E5E9A2E3500375E9F7A3BD
:10224400E0A2E75009E591A2E7500375917FEEA261
:10225400E092AFD0F0D083D082D00BD00AD009D096
:1022640008D0E0FED0E0FDD0E0FCD0E0FBD0E0FA06
:10227400D0E0F9D0E0F8D0D0D0E032C0E0C0D0C097
:1022840082C083906183E0A2E05009E5BFA2E050E0
:102294000375BFFEE0A2E15009E5BFA2E15003755A
:1022A400BFFDE0A2E25009E5BFA2E2500375BFFB07
:1022B400E0A2E35009E5BFA2E3500375BFF7E0A233
:1022C400E45009E5BFA2E4500375BFEFE0A2E55076
:1022D40009E5BFA2E5500375BFDFE0A2E65009E5BA
:1022E400BFA2E6500375BFBFD083D0828088C0E010
:1022F400C0D0E8C0E0E9C0E0EAC0E0EBC0E0ECC078
:10230400E0EDC0E0C0F0E5A7A2E6500FE5A1A2E62B
:10231400500953A7BF75A1BF122357E5A7A2E550E3
:102324000CE5A1A2E5500653A7DF75A1DFE5A7A23E
:10233400E15009E5A1A2E1500375A1FDE5A7A2E2E0
:10234400500CE5A1A2E2500653A7FB75A1FBD0F007
:1023540002226874F812187B7521019003A2E064CC
:10236400067015120C5C8A828B83A3A3A3A3A3A378
:10237400E0FAA3E0FB120CBCA2AFE433FED2AF90B0
:1023840003A8E0640170187A207B009003A1E0F9AF
:102394001210887A207B009003A1E0F912100490B7
:1023A4006182E0D2E6F0900541E0602185C622809A
:1023B400169003A7E064017008E5C654F84405F5D7
:1023C400C653BEFC1220E47401652160E4EEA2E071
:1023D40092AF7F01021927008E238F2485822885DE
:1023E4008327851882851983E0CEA3E0CF852882D0
:1023F400852783EBC9EAC8EDCBECCA75F010C3E8B6
:1024040033C8E933C9EA33CAEB33CBC3EA9EF526B2
:10241400EB9FF525B35004AB25AA26EC33CCED3362
:10242400CDD5F0DAAE23AF242274E912187B74F808
:102434001217B8851882851983ECF0A3EDF08A0889
:102444008B099003A2E024F7C39405500675080194
:102454000225C4120C5C8A0A8B0BAE0AAF0BEE4F3A
:1024640070030225C1AC08AD097402121803AA82D4
:10247400AB83120CEC8E828F83A3A3750CFF750DB6
:10248400FF750EFF750F00780C1216627402121895
:10249400037510FF7511FF7512FF75130078101284
:1024A4001662780C7910121487502A780C7910125D
:1024B40016277508017509C8750A00750B00780898
:1024C400790C1214875052850C08850D09850E0A63
:1024D400850F0B80507514017515C8751600751796
:1024E4000085100885110985120A85130B7808796F
:1024F4000C12162778147908121487401C750800EA
:10250400750900750A00750B0178087910121627F1
:102514007808790C1215EE800C75080175090075A0
:102524000A00750B00740978081215CF750C19F59B
:102534000DF50EF50F7808790C1215468E828F83EF
:10254400A3A3A3A3A3A3E0F8A3E0F97AD07B031287
:10255400172D880C890DE4F50EF50F7808790C1207
:1025640015EE7406121803E0F8A3E0F97AD07B03A1
:1025740012172DE8FA8A0CE4F50D7808790C121478
:102584008750077808790C1216279003A2E0640894
:10259400600AE064066005E06405702D750C0D7832
:1025A4000C79081214874021750CF4750DFF750E13
:1025B400FF750FFF7808790C1215EE800C75080072
:1025C400750900750A00750B00851882851983E06A
:1025D400F8A3E0F583888278081216977408121716
:1025E400CE7F1002192774F712187B120CFE900587
:1025F4003FE064017010906245E4F0A3F053F4F3FB
:1026040043FE0C5390F3120CAAE5C654804449F5DA
:10261400C6E59E547F644970F8906185740FF0900C
:10262400053DE0F47002A3E0604E90053EE06008D2
:1026340014601B14602E8040750801750900900514
:102644003DE078081217A5E508F45280802A750841
:102654000175090090053DE078081217A5E508F416
:102664005290801475080175090090053DE07808C2
:102674001217A5E508F452A079007F020219277405
:10268400F712187BE9FEEAFF74016E700C7A807B06
:10269400009003A1E0F9120FFE902B60E493F46024
:1026A40008E493F9120AFA800953C680E59E547F20
:1026B40070FA120CB090053FE064017003120B1223
:1026C40090053DE0F47002A3E0604B90053EE060AD
:1026D4000814601A14602C803D7508017509009077
:1026E400053DE078081217A5E508428080287508A2
:1026F4000175090090053DE078081217A5E5084228
:1027040090801375080175090090053DE078081262
:1027140017A5E50842A0120CFE120C5C8A088B096E
:10272400A808A909E8496015E5E170FCE82414F556
:1027340082E93400F583E0F46003E0F5E174016FAD
:10274400700A7A019003A1E0F912105202267E74F5
:10275400ED12187B8A088B098C0A8D0B74131218DE
:1027640003780C1216887808790C121487751001F6
:102774007511C875120075130050127808790C127F
:1027840016277810790812148750168010780C795F
:10279400081216277810790C1214874004790180E6
:1027A4000279007F0C02192774ED12187B8A088BBA
:1027B400098C0A8D0B7413121803780C121688787E
:1027C4000C790812148740117808790C121627AA7C
:1027D40008AB09AC0AAD0B802275100075110075A9
:1027E40012007513017810790C12162778107908E5
:1027F4001215EEAA10AB11AC12AD1380A68A828B0F
:10280400837508FF7509FF750AFF750B00780812B8
:1028140016757F0402192774F512187B8C828D8338
:1028240078081216888A828B83780812163BEA2469
:1028340004F8EB3400F98C828D83A3A3A3A3E0FCFA
:10284400A3E0FD88828983C3E09CF0A3E09DF08827
:10285400828983C3E09420A3E0944E40268A828B2D
:10286400837508FF7509FF750AFF750BFF78081259
:1028740016148A828B83A3A3A3A3E02420F0A3E0ED
:10288400344EF002280174F512187BE9FE9004F727
:10289400E0FAA3E0FBEEC333F8E433F9741028F54F
:1028A40082748339F583E02AF508A3E03BF50978BF
:1028B40008121A227A407B427C0F7D001223DC74BA
:1028C400021217CE8A088B098C0A8D0B74107808B3
:1028D4001215B6AA08AB097F0402192774F112185D
:1028E4007B8A0C8B0D8C0E8D0F740F121803E0FA7B
:1028F400A3E0FB7411121803E0F508A3E0F50978CE
:1029040008121A22EA2401F508EB3400F509E4F56B
:102914000AF50B780C79081214C67508717509024A
:10292400780C79081214C6AA0CAB0DAC0EAD0F12BC
:1029340023DC74021217CE8B09EA450960047A017C
:1029440080027A00EC2AFCED3400FD7413121803A3
:10295400E0F8A3E0F9E8FEE9FFECF8EDF97A717B21
:102964000212172D880889098E828F83780812161F
:1029740097ECF8EDF97A717B0212172D8A088B090E
:10298400740578081217A58E828F83A3A3A3A3E5E9
:1029940008F0A3E509F07F08021927C082C083E983
:1029A400906000F0D083D08222C2AF02000022C027
:1029B400E074EB12196774F91217B8538AFE908405
:1029C400747808121688900963780812161490090E
:1029D400637808121688908450780C121688780848
:1029E400790C121546E50C450D450E450F702690E1
:1029F40083FEC082851882851983AC82AD8375837A
:102A040083D08274071216CB851882851983AA8213
:102A1400AB831211F6C2EB74071217CE7F080219AA
:102A2400C6C0E074F2121967A2AFE433FED2AFC29B
:102A3400C0E5D1A2E4500653D1EF121340751A0039
:102A4400EEA2E092AF7F010219C6C0E074F212193F
:102A540067A2AFE433FED2AFE589A2E150031212BC
:102A640050758900C2C5751A00EEA2E092AF7F01CD
:102A74000219C6C0E074F2121967A2AFE433FED2A1
:102A8400AFE58BA2E05003121250758B00C2E880B0
:102A9400D5C0E0C0D0E8C0E0E9C0E0E5A8D2AFC24C
:102AA400C7751A00A2E7A2E792AFD0E0F9D0E0F828
:102AB400D0D0D0E032C0E074F2121967A2AFE43390
:102AC400FED2AF758900C2C5900A857401F0751AEB
:102AD40000FA900A52E0F9121052900C09E0F8A39F
:102AE400E0687002D285EEA2E092AF7F010219C6BF
:102AF400C0E0C0D0E8C0E0E9C0E0C008C009C082BE
:102B0400C083A2AFE433F9D2AF900C09E0F8A3E09C
:102B1400687008539AFBA374018026C2E9900C09DB
:102B2400E0F50874012508F074892508F582740B12
:102B34003400F583E0F5C1900C09E0C394804002B1
:102B4400E4F0E9A2E092AFD083D082D009D008D0DB
:0A2B5400E0F9D0E0F8D0D0D0E03274
:102B6000FFFFFFFFFFFFFFFFC082C083E9900DE280
:102B7000F0022DF774F712180FE99002E1F07C19BA
:102B80007D037AFF7BFF12084E9002E274FFF0A3F0
:102B9000F0A3E4F0A3F079051207D69002E1E0F982
:102BA0001206F87A6C7B08120A107F010218E17491
:102BB000F412180F8A088B09EB548060309002E100
:102BC000E0F9120FE68A0A8B0BAE0AAF0BEE4F60EC
:102BD000138E828F83E064B070031207EEEEFAEF7B
:102BE000FB120FD4AA08E5096480FB80047A007BFD
:102BF00000022DC674F212180F74FC1217B8EAFE08
:102C0000EBFFEE4F60387402121803EEF0A3EF12E0
:102C1000302BECF0A3ED12302BAA82AB831206F21C
:102C2000E9F50870737412121803123BDFE50A45C8
:102C30000B60658E828F83122CA2EE4F7005750893
:102C40000280557A067B0012103A8A0C8B0DA80C74
:102C5000A90DE8497005750813803D88828983E4D1
:102C6000122CACA3A3EEF0A3EF124078E50AF0A378
:102C7000E50BF09002E7122D349002E76017E0FCBC
:102C8000A3E08003EAFCEBFD8C828D83122D34706F
:102C9000F38C828D83123B04A90874041217CE02B0
:102CA000427AA3A3A3A3E0FEA3E0FF22F0A3F0884F
:102CB0008289832274F212180F890AE975F017A429
:102CC000FEAFF09002E6E4F09002E4122D34600AC8
:102CD0001210409002E4E4F0A3F0EEFAEFFB1210C1
:102CE0003A8A088B09EA4509602FEEFCEFFD79006E
:102CF000120FBC9002E4E508F0A3E509F07B008028
:102D000008122D1EE4F0A3F00BEBC3950A40F2E588
:102D10000A9002E6F079008002791302427AEB759C
:102D2000F017A4F8A9F09002E4E028FAA3E0398AA9
:102D300082F5832212389AEA4B2274F412180F7526
:102D40000800750900740C12180312404CFEE9FFCC
:102D5000800CE5082401F508E5093400F509C3E510
:102D6000089CE5099D503285080A85090B74037893
:102D70000A1217A5EA250AF8EB350BF98882898330
:102D8000A3A3A3A3A3A3123BDFEE650A7003EF6521
:102D90000B70BFE8FAE9FB80047A007B008027749F
:102DA000F412180F7900EAA2E0501B75081175099A
:102DB000847808121A227C047D007AE47B0D1207C5
:102DC000D074021217CE7F040218E1C082C0839033
:102DD00002E7122DFE601C88828983A3A3E06A703B
:102DE00003A3E06B8882898370E8A3A3A3A31238AE
:102DF0009680047A007B00D083D082020135124392
:102E00004DE8492274EE12180F74FC1217B8EAFE4E
:102E1000EBFF851882851983E4F0A3F0EE240212FB
:102E20003AE8EE2405123019EE2404F50EEF1233C1
:102E3000FEE024FE603924FC604624FE605224FE3D
:102E4000605E24FE7003022F1E24FE7003022F9684
:102E500024FE7003022FA524FE7003022FB424FC6D
:102E60007003022FC324FE7003022FD202300F9092
:102E700003007417F0A3E412303312047002300F11
:102E8000851882851983AC82AD831207F4022FDF87
:102E9000851882851983AC82AD831207FA022FDF71
:102EA000850C08850D097402121803AC82AD838568
:102EB00008828509831238961207168A0C8B0DAC8E
:102EC0000CAD0DEC4D6042E4F50CF50D780C121ACA
:102ED00022750C00750D03780C121A22750C017501
:102EE0000D03780C121A227408121803121A397979
:102EF0001612389012083674081217CEE9F50C70C5
:102F00000B12388C120488800F750C01850882859D
:102F10000983123021123B04850C08022FE274024F
:102F2000121803AC82AD83850C82850D831238960E
:102F30001207168A108B11AC10AD11EC4D60438551
:102F40000C82850D83A3A3121A3975100075110325
:102F50007810121A227510017511037810121A22B6
:102F60007408121803121A3979161238901208369A
:102F700074081217CEE9F509700B12388C12048E02
:102F8000800F750901850C82850D83123021123B5B
:102F900004850908804C851882851983AC82AD832D
:102FA000120800803A851882851983AC82AD83129D
:102FB0000806802B851882851983AC82AD831208A0
:102FC0000C801C851882851983AC82AD831208128F
:102FD000800D851882851983AC82AD83120818E9AB
:102FE000F508E50860298E828F83A3E06414601FD2
:102FF000850E82850F83E090030012302B12434927
:10300000900301123B04E508A312303312046AEE68
:10301000FAEFFB1207940239F0F50CEF3400F50DCE
:103020002212434D85188285198322F085188285E6
:10303000198322F07C007D03850A82850B83123878
:103040009A2274EE12180F74FC1217B88A0A8B0BAE
:103050008C0E8D0FEA2405F508EB3400F5097C157C
:103060007D0079007A007B03120FBCE5082402F58D
:103070000CE50912301C851882851983858210851C
:1030800083117810121A22850882850983A3A3A3CD
:10309000A3123546121A22E5082405F510E5093475
:1030A00000F5117810121A22850C82850D831238D2
:1030B000A012071074061217CE8A108B11AE10AF33
:1030C00011E50A2402F50AE50B123AEBEE4F700304
:1030D0000232088017740212180312389688828907
:1030E00083EAF0A3EBF0900300E004F0900300E02B
:1030F000C394054003023208E4F510F5117810126C
:103100001A227510E97511027810121A227510EA48
:103110007511027810121A227406121803121A3945
:103120007910EEFCEFFD1238901208367408121771
:10313000CEE9705E850882850983A3A3A3A3A3A318
:10314000A3E0F89002E9E0687048123546121A22AE
:103150007CEA7D02E5082408FAE5093400FB120F39
:10316000B674021217CEE960298E828F83A3A3A3BF
:10317000A3123896900300E0F5107402781012172D
:10318000A574012510F58274033511F583EAF0A3C7
:10319000EBF07402121803858210858311781012E7
:1031A0001A227402121803121A39850C82850D83B3
:1031B00012435E12071C74041217CE8A108B11AED4
:1031C00010AF11900300E0F5107511007402781033
:1031D0001217A574002510F874033511F988828937
:1031E00083A3122D3470030230CCE82403F8E934B1
:1031F00000F9EE4F60030230D58882898374FFF0B6
:10320000A3F0900300E004F0900300E0600A12389D
:103210008C12047C7900800B850882850983123A20
:10322000FB790A0239F074EA12180F74FE1217B80B
:103230008C128D13EA2405F50CEB1244C8122CA64F
:10324000750800750900EA2402F510EB3400F51149
:1032500085188285198385820A85830B780A121A5C
:1032600022850C82850D83A3A3A3A3123408121A0E
:1032700022E50C2405F50AE50D123AEB780A121A3C
:1032800022850C82850D8312435C1207107406128E
:1032900017CE8A0A8B0BEA450B70030233B9EA2476
:1032A00004F50EEB1233FE122CA68A828B83A3A3A5
:1032B000A3E0F98510828511831238961206FEE983
:1032C000F50960030233B9E4F514F5157814121A00
:1032D000227514E97515027814121A227514EA750C
:1032E00015027814121A227406121803121A397968
:1032F00013AC0AAD0B851082851183123896120823
:103300003674081217CEE9F50960030233B990024A
:10331000E9E0F8E5087009E02402900301F0801765
:10332000900301E0FCE82402FAE43400FBEA6C704C
:1033300001EB60030233BD850882AA8212353D94F9
:10334000141235355073850E82850F83E0C0E0740A
:10335000022A1233F5D0E0F00508850E82850F832E
:10336000A3E0C0E085080A7402250A1233F5D0E014
:10337000F005089002E9123408121A227CEA7D0254
:1033800085080A7402250AFA74033400FB120FA49C
:1033900074021217CE9002E9E02508F50874FF6E5A
:1033A000700374FF6F6012EE24010EEF3400FFE52E
:1033B00008C394145003023250E508601312378199
:1033C0008510828511831238961204827900801448
:1033D000E509700375090A851282851383EEF0A34F
:1033E000EFF0A90974021217CE7F0E0218E18508CA
:1033F0000C7402250CF58274033400F5832234002A
:10340000F50F850E82F5832212408B2274EE12187E
:103410000F74FE1217B88C0E8D0FEA2405F50CEB15
:1034200012301C750B00900300E4F0F50AEA240248
:10343000F508EB3400F5098049900300E0FA9002AA
:10344000E9E0F812353D9417123535400D90030030
:10345000E0F87416C3989002E9F0123546121A2269
:103460007CEA7D0274012AFA74033400FB120FA473
:1034700074021217CE9002E9E0F8900300E028F001
:10348000050AE50C2416F582E50D1233F9E0F8E59E
:103490000AC398400302351E900300E0C3941650FF
:1034A0007DE50AC333F8E433F9E50C28FEE50D3970
:1034B000FF851882851983AC82AD838E828F83123B
:1034C00038961207168A108B11AC10AD11EC4D70A6
:1034D00005750B018043E4F510F5117810121A22DE
:1034E0007510E97511027810121A227510EA75111B
:1034F000027810121A227406121803121A39791659
:1035000085088285098312389612083674081217C6
:10351000CEE9F50B7003023439123AF780107C00C3
:103520007D03850882850983123896120494A90BBD
:1035300074020239F2E99400C365D03322EA28F814
:10354000E43400F9E822E0F51075110078102274D7
:10355000EA12180F74FC1217B88A0C8B0D8C128D9E
:1035600013EA2405F50AEB123AEB75080075090019
:10357000E50A2402F510E50B3400F5117402121867
:103580000385820E85830F780E121A22850A8285A2
:103590000B83A3A3A3A3124037121A22E50A240522
:1035A000F50EE50B3400F50F780E121A2285108205
:1035B000851183123AF1123890120710740612170F
:1035C000CE8A0E8B0FAE0EAF0FE50C2402F50EE582
:1035D0000D3400F50F80408882898374FFF0050860
:1035E0001233EE74FFF005089002E9E0F50C750D5A
:1035F00000780C121A227CEA7D0285080C740225E0
:103600000CFA74033400FB120FA474021217CE904C
:1036100002E9E02508F508EE4F60718E828F83A3E2
:10362000A3A3E0F9850E82850F831238961206FE59
:10363000E9F509EE2404123019E97044E4F514F5B3
:10364000157814121A227514E97515027814121AD5
:10365000227514EA7515027814121A2274081218C9
:1036600003121A397911EEFCEFFD850E82850F8366
:1036700012389612083674081217CEE9F509602739
:10368000850C82850D83123777123B04E5087003A1
:1036900002375D123781850E82850F8312389612AC
:1036A000049A7900023772850882AA82EA9002E9B8
:1036B0007009E02404900301F08022E0F8900301F7
:1036C000E0F514E82404FCE43400FDEC651470011A
:1036D000ED70C012353D941212353550B6850C820E
:1036E000850D83E0C0E074022A1233F5D0E0F005C6
:1036F00008850C82850D83A3E0C0E01233EED0E094
:1037000012379385820C85830D780C121A2274046B
:10371000121803121A3985108285118312435E1222
:10372000071C74041217CE8A0C8B0DAE0CAF0D85DE
:10373000080C7402250CF874033400F9EE4F700382
:103740000235D7851882851983E0888289831237EC
:1037500093A3E0C0E01233EED0E00235E5E5097056
:103760000375090A850A82850B83123777123B0499
:10377000A90974040233E612434D8512828513832E
:1037800022900301E0F5F0E50884900300F07C004E
:103790007D0322F005088518828519832274EC12B6
:1037A000180F74FE1217B88A088B098C0E8D0FEA59
:1037B0002405FEEB3400FF851882851983AC82ADA9
:1037C000838E828F831238961207168A0A8B0BEE2D
:1037D0002418123019EA450B70030238671239D9E0
:1037E000503285188285198312389612082A8A1059
:1037F0008B11EA4511606B7912AC0AAD0B8508821A
:1038000085098312389685108285118312180DE977
:10381000F50A7058E4F50AF50B780A121A228E821E
:103820008F83A3A3E0F50A780A121A22EE2403126A
:103830003AE8780A121A228E828F831238A0120870
:103840003C74061217CEE9F50A7021850C82850DAD
:1038500083E0701F8508828509831238961204A0C0
:103860008011750A0E8009750A018004E50A60035B
:10387000123AF7850C82850D83E06004790080029E
:10388000A90A74021217CE7F0C0218E17C007D0396
:10389000850A82850B8312389A22E0FAA3E0FB2284
:1038A000E0FCA3E0FD85088285098312389A227422
:1038B000EE12180F74FE1217B88A088B098C0C8D43
:1038C0000DEA2405FEEB3400FF750E008518828595
:1038D0001983AC82AD838E828F83123896120716BD
:1038E0008A0A8B0BEA450B70030239C51239D9508D
:1038F0003585188285198312389612082A8A0E8B0C
:103900000FEA450F605E7912AC0AAD0B850882851F
:103910000983123896850E82850F8312180DE9F5FA
:103920000E60030239C8850882850983123BDFAA2D
:103930000AFB12081E8A108B11A810A911E8497001
:103940001E7AFF7BFF12081E8A108B11A810A91186
:10395000E849606C88828983E50AF0A3E50BF0757D
:103960000A008007750E0E805F050A9002E6E0FAF5
:10397000E50AC39A504AE50A75F017A4FAABF08835
:10398000828983A3A3E02AFAA3E03BFB8A828B838C
:10399000123AF1EC4D70D2750A17750B00780A12C5
:1039A0001A22EEFCEFFD120FA474021217CEEEFCE9
:1039B000EFFD8508828509831238961204A68014CB
:1039C000750E098003750E01124345850C82850D25
:1039D00083123B04A90E023530E5082402F508E500
:1039E000093400F5098A828B83A3A3A3E0A2E52210
:1039F00074041217CE7F0A0218E174EC12180F8CAF
:103A0000108D11EA2405F50CEB12301C750F00EA3D
:103A10002402F50AEB123AEB850A82F583123896F6
:103A200012081E8A088B09EA45097003023ADD75FF
:103A30000E008071850C82850D83E06401704F8ECD
:103A4000828F83A3A3121A398E828F83A3A3A3A389
:103A5000E0F5127513007812121A22EE2405F51201
:103A6000EF3400F5137812121A2212389012083C23
:103A700074061217CEE9F50F6014850C82850D834C
:103A8000E4F0124345851082851183123B047C17B4
:103A90007D007900EEFAEFFB120FBC8E828F83E47B
:103AA000F0A3F0050E9002E6E0F8E50EC398501E74
:103AB000E50E75F017A4F8A9F0850882850983A39F
:103AC000A31244D2123AF1EC4D6003023A34850855
:103AD0008285098374FFF0A3F0E50F700612389019
:103AE0001204ACA90F023887F50AEF3400F50B2257
:103AF000A3E0FCA3E0FD228E828F8312434D850E4E
:103B000082850F83E8F0A3E9F022C082C08390028F
:103B1000E2E06A7003A3E06B70067AE27B02800445
:103B20007A007B00022DF7C082C08378008C828DE2
:103B300083E06A7003A3E06B7010E875F003A4F8EB
:103B4000A9F0EC28FAED39FB8015088C828D83A34F
:103B5000A3A3E06A7003A3E06B60DF7A007B00023E
:103B60002DF774F612180F1207E88A828B83E5820C
:103B7000458370067A007B008007A3A3A3A31238B5
:103B8000960241F674F212180FE9FE740E12180331
:103B9000123BDF74101218031240578C828D83E0A1
:103BA00064027036A3124353F50CA3E0F9A80C7419
:103BB000026870037429697021750C02750D007814
:103BC0000C121A227808121A22780A121A22EEF916
:103BD00012086074061217CE8002790102427AE060
:103BE000F50AA3E0F50B2274E812180F74FB121704
:103BF000B8E9851882851983F08A168B17ECFEEDDB
:103C0000FF751000741D121803124349741D121819
:103C100003123B048E828F83A3A3A3E0A2E4502D62
:103C2000741D12180312389612082A8A828B83E5B3
:103C30008245837003024028790AEEFCEFFDAA1644
:103C4000AB1712180DE9F510600302402B741F1218
:103C500018031240577421121803123BDF74231209
:103C60001803E0F50EA3E0F50F8E828F83E0640267
:103C70006003023FD6A3124349850882850983A3C6
:103C8000858212858313EE24061230198882898377
:103C9000E0FAA3E0F9EA2400F514E439F515781404
:103CA000121AAC010000280128CB3C070002289022
:103CB0003D0328FD3C0029C73E0129F23E0229931D
:103CC0003E0329C73E0429713FD63FE50E450F60EC
:103CD00003023FD1850C82850D8312404CFAE9FB2B
:103CE0008A828B83E0850A82850B83124082121AB6
:103CF000228A828B83A3E0FCA3E0023F5BE50E45B2
:103D00000F6003023FD1850A82850B837401F01294
:103D1000405F850882850983F07C007D008E828F5C
:103D200083A3A3A3A3E02401FAA3E03400FB1207BA
:103D300016EA4B60418A828B83E02402F8850A826E
:103D4000850B83E028F0EA2404F8EB3400F988823C
:103D50008983E08512828513831240941240821277
:103D60001A228A828B83123AF0E5082403FAE509C5
:103D70003400FB023F60850A82850B83E02404F057
:103D80007C047D007900AA12AB13120FBC02402BF9
:103D9000E50E450F6003023FD112405FFEA3E0FF36
:103DA000850A82850B837404F0EE85088285098379
:103DB000F0EF851282851383F07403121803AC822E
:103DC000AD83EEFAEFFB1207168A0C8B0DEA450D58
:103DD0007003023E748A828B83A3A3122CA2740107
:103DE00012180385820E85830F780E121A2274052D
:103DF000121803121A397CFF7DFF12071C7404127B
:103E000017CE8B0FEA450F7033850C82850D831218
:103E10004037121A22850C82850D83A3121A397C31
:103E2000027D007A997B8412054874041217CEE94A
:103E3000700A740112180374FFF0A3F08E828F834E
:103E4000E064027039750C02750D00780C121A22AC
:103E50008E828F83123AF0E5082404FAE5093400D3
:103E6000FB120FA474021217CE850A82850B83E021
:103E7000240280097401121803EEF0A3EFF074011C
:103E8000121803124048F07401121803A3124040A4
:103E9000023FCBE50E450F6003023FD1850C8285C2
:103EA0000D83123AF1AA16AB17120854850A8285BF
:103EB0000B837402F0EA850882850983F0851282FB
:103EC000851383EB023FCEE50E450F6003023FD121
:103ED00012405FF8A3E0F9850A82850B837402F033
:103EE000E8850882850983F0E985128285138302BB
:103EF0003FCE850C82850D83123896120F9EEAFC08
:103F00008C82A882C3950EE4950F405FE8650E7021
:103F100002E50F70047C008022851882851983E0F9
:103F2000FAE50E2AFAE50F3400FBC3EA98EB940099
:103F30005003E08005E50ECCC39CFCEC850A82852D
:103F40000B83F08C0A750B00780A121A22850C82FA
:103F5000850D83E0250EFCA3E0350FFDAA08AB0913
:103F6000120FA474021217CE02402B7510070240E4
:103F70002BE50E450F705A850C82850D831243493F
:103F8000850A82850B837407122CAE124040122CD6
:103F9000AEA3E0851282851383F0E82402FAE934A7
:103FA00000FB8A828B8312404012406F124048A36C
:103FB000124078124051F0E82405F8E93400F988FD
:103FC000828983124051A3124094A3A3A3A3F0803B
:103FD0005A75100B8055741D12180312389612076B
:103FE000E88A828B83E5824583603D124349880CD1
:103FF000890DE8450D6031780E121A22780A121ADE
:10400000227808121A227406121803E0F9EEFCEF67
:10401000FDAA16AB17850C82850D8312180D740648
:104020001217CEE9F510800375100EA91074051251
:1040300017CE7F100218E1E0F50E750F00780E2202
:10404000E08508828509832212409E2212434DE8B2
:104050002212409EA3A322E0F508A3E0F5092285E1
:104060000C82850D83E0F8A3E0F5838882E022A32B
:10407000A3F08A828B83A322F088828983A3A3A3DF
:10408000A322F08A828B8312408B22E0F50A750B03
:1040900000780A22F088828983A312409E22E0855C
:1040A0000882850983A3A32274EE12180F74FE12EE
:1040B00017B88A0A8B0BECFAEDFB7414121803E0A4
:1040C000F510A3E0F5117416121803E0FE7418122F
:1040D0001803E0F50EA3E0F50F851882851983AC6F
:1040E00082AD831207168A0C8B0DEA450D60498557
:1040F00018828519831238961207E88A828B83E525
:10410000824583602FA3A3124057E5084509602428
:10411000780E121A227810121A22EEF9AC0CAD0D9C
:10412000AA0AAB0B85088285098312180D74041244
:1041300017CE8006790E8002790102353074F612AE
:10414000180F74FE1217B8740C12180312404C8525
:104150001882851983F07401121803E9F0E4F50858
:10416000F5097808121A227508027808121A2274C2
:10417000041218038582088583097808121A22120E
:10418000083C74061217CE74021217CE806874F7BA
:1041900012180FEAFEEBFF89087C197D0312085400
:1041A000EA5402600BA908EEFAEFFB12070A80023C
:1041B0007901022BAA74F612180F74FF6A70037447
:1041C000FF6B70168C828D831241FBE4F08C828D24
:1041D00083A3A3A31241FBA380181208248A088B8F
:1041E00009A808A909E849600D8882898374FF122B
:1041F0002CACA3A3E4F07F020218E174FFF0A3F05B
:104200008C828D83A3A32274F612180F1208248ABD
:10421000828B83E58245836006A3A3E0FA80027A5D
:10422000007B0080D174F212180F8A088B09ECFE13
:10423000EDFF740E121803E0F50A1208248A0C8BA5
:104240000DA80CA90DE8497026EEFCEFFD7AFF7B66
:10425000FF1208248A0C8B0DA80CA90DE8497004E4
:104260007911801688828983E508F0A3E509F08832
:10427000828983A3A3E50AF079007F060218E1741E
:10428000EE12180FEAFEEBFF8C088D09890C7414EE
:104290001218031243497416121803123896750D3A
:1042A00000E849600302433D7402650C6003024369
:1042B000387412121803124353FCA3E0F9EC2400E3
:1042C000F50EE439F50FEAF4F8EBF4F9EC58F8E5FB
:1042D0000F59F9E849705CE5082406F8ED3400F957
:1042E000880A890B8882F58312435E1208548A106B
:1042F0008B11E50E65107004E50F65116042780EB4
:10430000121A22850A82850B8312435E12085A74A0
:10431000021217CEE9F50D7027780E121A228508C1
:1043200082850983A3A312435C12087274021217D8
:10433000CE800D750D808008750D0D8003750D0BF9
:10434000A90D0239F58E828F8312434D22E0F8A326
:10435000E0F92212434D88828983E022A3A3E0FC86
:10436000A3E0FDEEFAEFFB2274E812180F74E712D7
:1043700017B8851882851983EAF0A3EBF08C168DA7
:1043800017890E7508007509007431121803E0F5DD
:1043900012A3E0F5137433121803E0F514A3E0F54B
:1043A000157435121803E0F50FE50975F003A4F84C
:1043B000A9F08518828519831244D2E0F47003A312
:1043C000E0F470030244B5EE2402F50CEF1244C889
:1043D000E070030244B585160A85170B780A121A95
:1043E00022AC14AD15AA12AB131207DC740212171B
:1043F000CE8A0A8B0BEA450B70030244B5E4F51034
:10440000F5117810121A227406121803858210858D
:1044100083117810121A22740912180385821085EC
:1044200083117810121A22851282851383A3A3A305
:10443000A3121A397914AC0AAD0B8E828F8312380D
:104440009612083674081217CEE97069850A8285BB
:104450000B83A3A3A3A31243497402121803123BB4
:1044600004850C82850D83E0A2E05018A90E740229
:10447000121803AC82AD838E828F83123896120796
:104480002EE94208850C82850D83E0A2E15026E5E5
:104490000FF50A780A121A26A90E7403121803AC33
:1044A00082AD838E828F8312389612072874011290
:1044B00017CEE942080509E509C3940250030243F7
:1044C000A9A908741902402F3400F50D850C82F556
:1044D0008322E028FEA3E039FF8E828F832274F2CC
:1044E00012180FEAFEEBFF890B7401650B600E7466
:1044F00002650B706A7901120A2EE97062EEFAEF1A
:10450000FB12081E8A088B09EA45096047750A00F4
:10451000800B7C177D007900120FBC050A9002E623
:10452000E0F8E50AC3985021E50A75F017A4F8A948
:10453000F0850882850983A3A3E028FAA3E039FB6C
:104540008A828B83122DFE70C98508828509837447
:10455000FFF0A3F07C197D03EEFAEFFB12084E0288
:10456000427A74F212180F8A088B09ECFEEDFF7480
:104570000E121803123BDF900DE2E0F4603D7A0961
:104580007B00120FCEEA4B60328A828B8374B1F0CB
:10459000A3E4124071A312406FA3E508F0A3E5095C
:1045A0001245BEEEF0A3EF1245BEA3A3E50AF0A3A9
:1045B000E50BF0900DE2E0F9120FDA02427AF08A90
:1045C000828B83A3A3A3A3A322C082C08390619004
:1045D0007404F0A37448F0A37402F09061807440F6
:1045E000F09061BC7403F09061877419F09062657B
:1045F000741BF0906249E0C3941390619C400A746C
:1046000009F090606674018007740DF0906066E4B4
:10461000F090619A7433F0A37455F09061A0743AED
:10462000F090053FE064017009C2919003A67467A1
:1046300080059003A67461F0902B66E493906186E8
:10464000F0902B60E493F46027E493540FF89061AA
:1046500085E0686012E5C654804449F5C6E59E547D
:104660007F644970F8E8F053C680E59E547F70FA85
:104670007905120D88024824C082C083E9540FF9DD
:10468000906185E0696012E5C654804449F5C6E54D
:104690009E547F644970F8E9F053C680E59E547FCC
:1046A00070FA024824C082C083E5A8F853A87E901F
:1046B0006181E4F0A3F0A3F0C2BA539AFEC28975F7
:1046C0009B00C2C275E90075910075BF0075A91104
:1046D00075B905906181F0A374C0F0A3E4F0D2BA7B
:1046E000439A0174805842A8024824C082C083744F
:1046F000F81217B89003A4E0F8A3E0F9E8497003B2
:104700000248199003A4E054406023790885188278
:10471000851983AA82AB83120BEA851882851983D7
:10472000AA82AB831208DE9003A4E054BFF0E054E9
:10473000806010790C7A657B05120BEA9003A4E087
:10474000547FF0E0A2E0503190619A7433F0A3748A
:1047500055F09061A0743AF090053FE06401700953
:10476000C2919003A6746780059003A67461F0124D
:1047700008E49003A4E054FEF0E05402603190613C
:104780009A743FF0A3745AF09061A0747FF0900582
:104790003FE064017009D2919003A6747180059086
:1047A00003A6746AF01208E49003A4E054FDF0E05C
:1047B00054046013902B64E493906186F01208EA2D
:1047C0009003A4E054FBF0E054086013902B65E4E0
:1047D00093906186F01208EA9003A4E054F7F0E0A9
:1047E00054106013902B66E493906186F01208EAEF
:1047F0009003A4E054EFF0E05420600A1208EA901D
:1048000003A4E054DFF0A3E05401600D120B121278
:1048100008F09003A5E054FEF074081217CE024889
:1048200024F0A3F0D083D08202013574EC12180F6B
:1048300074F41217B8851882851983AC82AD83751C
:10484000838475823874041216CB902B6493F460C1
:10485000030249B7907808E0C394025003024997D5
:104860007404121803AC82AD837583837582EF7470
:10487000081216CB851882851983858212858313C9
:104880007404121803AC82AD83750EFF750FFF7FA1
:10489000FF7E00750C48750D78801574086E7003E6
:1048A00002492B74096E700302492B740A6E607BF7
:1048B000850C82850D8378081216888C828D83A9D9
:1048C00009E50AC9F88810741878081215B6E510B9
:1048D0004508F8C3E098A3E099850C82850D83789C
:1048E0000812168840188C828D8374187808121567
:1048F000B6E5104508F8E0C398F8A3E0801C7418EA
:1049000078081215B6E5104508FAE9FB8C828D830C
:10491000E0F8A3E0F9EAC398F8EB99F9C3E8950E3B
:10492000E9950F5006880E890FEEFF0EE50C240462
:10493000F50CE50D3400F50DEEC394135003024859
:104940009B74FF650E700474FF650F60238F0874FD
:104950000278081217A574482508F582747835097D
:10496000F5837808121688851282851383E508F08E
:10497000EC2402FCED3400FD851282851383A385AF
:104980008212858313740C121803E5826C7003E5A0
:10499000836D600302488975080175090078081263
:1049A0001A227402121803AC82AD837AD97B0A12E0
:1049B000120E74021217CE740C1217CE7F0C02184E
:1049C000E1C082C0839061AE7468F0A3746AF09015
:1049D000624574FBF0A304F053F4FD43FE0290051E
:1049E0003F7401F09061A0E0643A90619A70237482
:1049F00033F0A37455F09061A0743AF0740164012F
:104A00007009C2919003A6746780289003A6746110
:104A10008021743FF0A3745AF09061A0747FF07409
:104A20000164017009D2919003A67471800590030E
:104A3000A6746A0248237F080218E1C082C08390EE
:104A400004F1E06401700A9004F6E06004790C80DF
:104A5000027900024824C082C08375E1F19004F419
:104A6000E0605B14600914605F14605714705E129C
:104A70000B249004EAE0F97AEB7B04120D0A7AD653
:104A80007BBE7C897D8E120D407A557B557C557D91
:104A900000120D169004F5E0F9120D227901120DA5
:104AA0007C9004E8E0F8A3E0C82416F582E834001E
:104AB000F583743CF0A3740BF07900024824120BC8
:104AC0002A80AF120B3080AA120B3680A579128093
:104AD000EA74F012180F75D90D9004D5E0A2E0E445
:104AE000331313F89004EAE0C4333354C04844014C
:104AF000F5D978E8790488828983A3A3A3E0F5D95E
:104B000088828983A3A882A983E864EE7003E9649C
:104B10000470E378D5790488828983A3E0F5D98885
:104B2000828983A3A882A983E864DB7003E9640413
:104B300070E575E1959004D5E0F97AD67B04120D05
:104B400010900E0474D0F0A3740AF0A37432F0A392
:104B5000740CF0A37432F0A3740CF0A37432F0A3BD
:104B6000740CF0A374D6F0A3740AF0A37432F0A30B
:104B7000740CF0A374EEF0A3740AF0900E12743269
:104B8000F0A3740CF0A37432F0A3740CF0A374328D
:104B9000F0A3740CF0A37432F0A3740CF0A374327D
:104BA000F0A3740CF0A37432F0A3740CF09004F42E
:104BB000E064019004E87012E0F8A3E0F5838882D5
:104BC000A3A37508007509088010E0F8A3E0F58339
:104BD0008882A3A3750804750900750A00750B0087
:104BE0007808121601750CFF750DFF750EFF750F15
:104BF000007808790C12164F9004E8E0F8A3E0C89A
:104C0000240EF582E83400F5837808121697900494
:104C1000E8E0F8A3E0C82414F582E83400F58374D2
:104C200013F09003A27402F0024A3674F712180FC0
:104C30009004FAE02407F5D99004EAE0C433335431
:104C4000C0F5D978E8790488828983A3A3A3E0F525
:104C5000D988828983A3A882A983E864EE7003E9D6
:104C6000640470E39004FAE0601F78E87904FAE8DD
:104C70002413F582E93400F583E0F5D9888289832D
:104C8000A3A882A9831AEA70E690051AE02407F522
:104C9000D99004EAE0C4333354C04404F5D978E829
:104CA000790488828983A3A3A3E0F5D988828983C4
:104CB000A3A882A983E864EE7003E9640470E3901A
:104CC000051AE0601F78E87904FAE82433F582E9F0
:104CD0003400F583E0F5D988828983A3A882A9836B
:104CE0001AEA70E675E195900E0474DCF0A3740A7C
:104CF000F0A37432F0A3740CF0A37432F0A3740C1C
:104D0000F0A37432F0A3740CF0A374D6F0A3740A69
:104D1000F0A37432F0A3740CF0A374EEF0A3740A41
:104D2000F0900E127432F0A3740CF0A37432F0A35E
:104D3000740CF0A37432F0A3740CF0A37432F0A3DB
:104D4000740CF0A37432F0A3740CF0A37432F0A3CB
:104D5000740CF09004E8E0F8A3E0C8240EF582E8B3
:104D60003400F58374FFF0A3F0A3F0A3F09004E8FF
:104D7000E0F8A3E0C82414F582E83400F583741247
:104D8000F09003A27401F0FF0218E174F712180FFB
:104D90009004FAE02407F5D99004EAE0C4333354D0
:104DA000C04402F5D978E8790488828983A3A3A353
:104DB000E0F5D988828983A3A882A983E864EE708C
:104DC00003E9640470E39004FAE0601F78E8790472
:104DD000FAE82413F582E93400F583E0F5D98882F6
:104DE0008983A3A882A9831AEA70E675E195900EDB
:104DF0000474E8F0A3740AF0A374E8F0A3740AF052
:104E0000A374E8F0A3740AF0A374E8F0A3740AF0A2
:104E1000A374E8F0A3740AF0A374E8F0A3740AF092
:104E2000A374EEF0A3740AF0900E127432F0A3741F
:104E30000CF0A37432F0A3740CF0A37432F0A374DA
:104E40000CF0A37432F0A3740CF0A37432F0A374CA
:104E50000CF0A37432F0A3740CF09004E8E0F8A313
:104E6000E0C8240EF582E83400F58374FFF0A3F067
:104E7000A3F0A3F09004E8E0F8A3E0C82414F582BE
:104E8000E83400F5837414F09003A27404F0025126
:104E90005274F712180F9004FAE02407F5D9900421
:104EA000EAE0C4333354C04406F5D978E87904887D
:104EB000828983A3A3A3E0F5D988828983A3A882EA
:104EC000A983E864EE7003E9640470E39004FAE0F7
:104ED000601F78E87904FAE82413F582E93400F5D4
:104EE00083E0F5D988828983A3A882A9831AEA700E
:104EF000E690051AE02407F5D99004EAE0C43333BC
:104F000054C04404F5D978E8790488828983A3A33E
:104F1000A3E0F5D988828983A3A882A983E864EEF7
:104F20007003E9640470E390051AE0601F78E87983
:104F300004FAE82433F582E93400F583E0F5D988F2
:104F4000828983A3A882A9831AEA70E675E1959005
:104F50000E0474E2F0A3740AF0A37432F0A3740C8C
:104F6000F0A37432F0A3740CF0A37432F0A3740CA9
:104F7000F0A37432F0A3740CF0A37432F0A3740C99
:104F8000F0A374EEF0A3740AF0900E127432F0A342
:104F9000740CF0A37432F0A3740CF0A37432F0A379
:104FA000740CF0A37432F0A3740CF0A37432F0A369
:104FB000740CF0A37432F0A3740CF09004E8E0F8E1
:104FC000A3E0C8240EF582E83400F58374FFF0A353
:104FD000F0A3F0A3F09004E8E0F8A3E0C82414F5EF
:104FE00082E83400F5837415F09003A27403F00294
:104FF0005152C082C0839004E8E0F8A3E0C82406C0
:10500000F582E83400F583E402482174F712180FA2
:105010009003D0E0F875F003A4C8AAF02AF974D27E
:1050200028F8740339F9E82405FAE93400FB8A8288
:105030008B83E0FCA3E0FD88828983A3A3A3A3A3C1
:10504000A3A3A3A3ECF0A3EDF088828983A3A3A379
:10505000A3A3A3A3E024FFF8A3E034FFF98A828B83
:1050600083E8F0A3E9F002515274F712180FEAFE38
:10507000EBFF9061D0E0600302514675D90E75D9FF
:105080000375D904EE248BF582EF3400F583E582B5
:105090002408F8E5833400F9E0F5D9A3E8658270C7
:1050A00003E9658370F2EE2483F582EF3400F58323
:1050B000E5822404F8E5833400F9E0F5D9A3E86536
:1050C000827003E9658370F275E1957908EE248BAF
:1050D000FAEF3400FB120BDE7904EE2483FAEF348E
:1050E00000FB120BDE7C00EEF8EFF9ECFAC3E49A59
:1050F000FA95E0FBEE2AFAEF3BFBEA248AF582EB15
:105100003400F583E0C0E0E824AAF582E93400F534
:1051100083D0E0F00C88828983A3A882A983ECC3A2
:10512000940840C7EE246FF582EF3400F583E0F871
:10513000A3E0F9EE2471F582EF3400F583E8F0A3E3
:10514000E9F07901800279008008F0EEA2E092AFE8
:1051500079007F010218E1C082C08375D90275D938
:105160000375D90575E195EA246FF582EB3400F5F6
:1051700083E0F8A3E0F9EA2471F582EB3400F583CB
:10518000E8F0A3E9F0790102482474F612180FEA56
:10519000FEEBFF9005457406F07508457509057826
:1051A00008121A227C017903120C2674021217CEFF
:1051B00075D90675D903758245758305E0F5D9A3C0
:1051C000E582644A7004E583640570F075E19590AA
:1051D00003A2E06408701EEE246FF582EF3400F540
:1051E00083E0F8A3E0F9EE2471F582EF3400F58353
:1051F000E8F0A3E9F0790102545874F612180FEAA6
:10520000FEEBFF9061D0E070667801900545740B6D
:10521000F09003A2E06407701975084575090578D8
:1052200008121A227C017903120C2674021217CE7E
:105230007805740128F5D975D903758245758305FC
:10524000E8FAE0F5D9A31AEA70F875E195EE246F53
:10525000F582EF3400F583E0F8A3E0F9EE2471F570
:1052600082EF3400F583E8F0A3E9F0790180027958
:105270000002545874F712180FEAFEEBFF75D903B9
:1052800075D90375D90DEE24DDF582EF3400F58371
:10529000E0F5D975E1957904120D46EE246FF5829B
:1052A000EF3400F583E0F8A3E0F9EE2471F582EF26
:1052B0003400F583E8F0A3E9F0790102515274F665
:1052C00012180FEAFEEBFF9061D0E0F87480C398EB
:1052D000FAEE2482F582EF3400F583E0600478046E
:1052E00080027800E8240BF8EAC398500302538345
:1052F0007D09900545EDF0EE24E2F8EF3400F97AEF
:10530000467B057C0888828983E08A828B83F088CB
:10531000828983A3A882A9838A828B83A3AA82AB72
:10532000831CEC70E0EE2482F582EF3400F583E01C
:10533000601D7508457509057808121A227C0979DF
:1053400003EEFAEFFB120C2674021217CE7D0D74D9
:10535000012DF5D975D9037582457583058D08E052
:10536000F5D9A31508E50870F675E1957904120DD5
:1053700046EE241DF582EF3400F583E4F0A3F079C6
:10538000018002790002545874F612180FEAFEEBFD
:10539000FF9061D0E0F87480C398FAEE2482F58221
:1053A000EF3400F583E06004780480027800E8249C
:1053B00008F8EAC3985003025456780690054574DD
:1053C0000CF09003BFE0900546F09003C0E090051C
:1053D00047F09003C1E0900548F09003C2E09005CB
:1053E00049F09003C3E090054AF0EE2482F582EF85
:1053F0003400F583E0601B750845750905780812CF
:105400001A227C067903EEFA120C2674021217CEC9
:10541000780A740128F5D975D90375824575830515
:105420008808E0F5D9A31508E50870F675E19579C7
:1054300004120D46EE246FF582EF3400F583E0F898
:10544000A3E0F9EE2471F582EF3400F583E8F0A3D0
:10545000E9F07901800279007F020218E174F61206
:10546000180FEAFEEBFF9061D0E0F87480C398FA61
:10547000EE2482F582EF3400F583E0600478048046
:10548000027800E82404F8EAC398500302553778FC
:1054900002900545E8F0EE24F4F582EF3400F58340
:1054A000E0900546F0EE2482F582EF3400F583E0CB
:1054B000601B7508457509057808121A227C027967
:1054C00003EEFA120C2674021217CE780674012825
:1054D000F5D975D9037582457583058808E0F5D936
:1054E000A31508E50870F675E195EE2473F582EFD3
:1054F0003400F583E4F0EE247FF582EF3400F58389
:10550000E4F0EE241DF582EF3400F583E4F0A3F01F
:105510007904120D46EE240DF582EF3400F583E098
:10552000F8A3E0F9EE2471F582EF3400F583E8F09A
:10553000A3E9F079018002790002545874F6121838
:105540000F9061D0E0F87480C398FCEA2482F58261
:10555000EB3400F583E06004780480027800E824EE
:1055600004F8ECC398405B79029005457407F0EAB3
:1055700024F5F582EB3400F583E0900546F0EA244B
:1055800082F582EB3400F583E060187508457509F3
:10559000057808121A227C0209120C2674021217CE
:1055A000CE7906740129F5D975D9037582457583BD
:1055B00005E9F8E0F5D9A318E870F875E1957901E7
:1055C0008002790002545874F512180FE9FCA2AF5A
:1055D000E433F50AC2AF7D0080010DEA246EF58246
:1055E000EB3400F583E0F8EDC398501A8D08EA25F6
:1055F00008F8EB3400F9E8246AF582E93400F58311
:10560000E06C70D68024EA246EF8EB3400F9E0FEFA
:10561000EA2EFAEB3400FBEA246AF582EB3400F55B
:1056200083ECF088828983E004F0E50AA2E092AF7F
:105630007F030218E174F612180FA2AFE433FDC223
:10564000AFEA246EF582EB3400F583E014F07C00C1
:1056500060368C08EA2508F8EB3400F9E8246BF58D
:1056600082E93400F583E0C0E0E8246AF582E93499
:1056700000F583D0E0F00CEA246EF582EB3400F5FF
:1056800083E0F8ECC39840CAEA246DF582EB34005D
:10569000F58374FFF0EA2469F582EB3400F583E4C6
:1056A000F0EDA2E092AF025458C082C083E5A8F8A2
:1056B000C2AFEA246AF582EB3400F583E9F0EA240C
:1056C00069F582EB3400F583E4F0E8A2E7A2E79203
:1056D000AF02482474F312180FEAFEEBFFECFAED68
:1056E000FB8A828B83A3A3A3A3E0541FF0EE24368E
:1056F000F582EF3400F583E4F0F50AEEFCEFFD8A65
:10570000828B83E0C0E0EC245DF582ED3400F5830C
:10571000D0E0F0750B00E50A33333354F8F50C8A0A
:10572000828B83E0F508750900E50B78081217866F
:10573000E508A2E0502FEE2436F8EF3400F9888215
:105740008983E0F508EE2508F508EF3400F509E552
:10575000082438F582E5093400F583E50CF08882E9
:105760008983E004F0050B050CE50BC3940840AFFA
:10577000050A8A828B83A3AA82AB838C828D83A342
:10578000AC82AD83E50AC3940550030256FF7F0542
:105790000218E174F712180F9003CEE06401700351
:1057A0000258F17A009003D4E060030258F17401CA
:1057B000F0A3E4F0A3F090043404F0900439F090E6
:1057C00003D7E4F0A3F0A3F0A3F09003E104F0907A
:1057D0000407E4F09003EAF0A3F0A3F0A3F0A3F031
:1057E000A3F0A3F0900451F0900445F090043A74B3
:1057F00080F0A3E4F0900440F09004BCF0A3F0A388
:10580000F0A3F0A3F0A3F0A3F0A3F09004C5F090F0
:105810000454F09004A4F0A3F0A3F0A3F0A3F0A329
:10582000F0A3F0A3F0A3F0A3F09004B0F09004B2C2
:10583000F09004AEF09004C8F0A3F0A3F0A3F0A39E
:10584000F0A3F0A3F0A3F078CE7903E8246EF582FC
:10585000E93400F58374FFF00A88828983A3A88263
:10586000A983EAC3940440E37ACE7B0378DC79040D
:1058700088828983E0C0E0EA2461F582EB3400F598
:1058800083D0E0F088828983A3A882A9838A828B4F
:1058900083A3AA82AB83E864E17003E9640470D057
:1058A0007ACE7B0378B5790388828983A3E0C0E050
:1058B000EA24E6F582EB3400F583D0E0F0888289B3
:1058C00083A3A882A9838A828B83A3AA82AB83E85D
:1058D00064BD7003E9640370CF9003CEE004F0640C
:1058E0000170089003D6E09003D0F07AD27B038059
:1058F000047A007B00025152C082C0839003D5E439
:10590000F09003D4F09003CEF0A3F0A374FFF075F1
:10591000E1F1024824C082C083780079009003D569
:10592000E0600478D2790388828983A3A3A3A3E0EB
:10593000F902482474F612180FEAFEEBFFEE246316
:10594000F582EF3400F583E0F8A3E0F9E84970034D
:105950000259D9EE2463F8EF3400F97A007B00A2F3
:10596000AFE433F508C2AF88828983E0FCA3E0FD91
:10597000EC4D603A88828983E0FAA3E0FB8A828B4F
:1059800083E0FCA3E0FD88828983ECF0A3EDF08A3C
:10599000828B83E4F0A3F088828983E0FCA3E0FD9E
:1059A000EC4D700A88828983A3A3E4F0A3F0E50894
:1059B000A2E092AF12134C9004E2E004F09004E3F2
:1059C000E004F0EE2463F582EF3400F583E0F8A301
:1059D000E0F9E84960030259538E828F83A3A3A3A1
:1059E000E0600F8E828F83A3A3A3E4F09003CFE047
:1059F00014F09003CEE014F070069003D074FFF022
:105A00008E828F83A3A3E4F09004E1E0700D9003F5
:105A1000CFE0640170057900120D28EEFAEFFB1259
:105A20000C5602545874F712180FEAFEEBFF8E82E0
:105A30008F83A3A3A3A3E0FA7B00120932EEFAEF4F
:105A4000FB120BA8120C3E025152C082C08378B5E3
:105A5000790388828983A3E4F088828983A3A8825A
:105A6000A983E864BD7003E9640370E69003B6742B
:105A70000102482374F612180FEAFEEBFFEC240330
:105A8000F8ED3400F988088909EC2407F8ED3400B2
:105A9000F9E8FCE9FD8C828D83E0F8A3E0F9850844
:105AA00082850983E0FAA3E0FB12172DEE240DF5A1
:105AB00082EF3400F583E8F0A3E9F08C828D83E077
:105AC000F8A3E0F9850882850983E0FAA3E0FB12D8
:105AD000172D8B09EA45096013EE240DF582EF348A
:105AE00000F583E02401F0A3E03400F00254587480
:105AF000F612180FEAFEEBFFEE242EF582EF3400CB
:105B0000F583E0FCA3E0FD780079FAECFAEDFB12F6
:105B1000172DEE246FF582EF3400F583E8F0A3E94A
:105B2000F0780079FAECFAEDFB12172D8B09EA45B3
