:020000040000FA
:0600000002011D02231F96
:03002B00021BDED7
:03005300022392F3
:03006B00021BAACB
:1000830002218BE5C754F84401F5C779012200002A
:100093000080FB120086B90003020107E47921788E
:1000A30008B800028004F709D8FCE479297802B87B
:1000B30000028004F709D8FCE490028178397909B9
:1000C3008002F0A3D8FCD9FA781A90014D7A01BACC
:1000D30000028007E493A3F608DAF9900AB9AA822A
:1000E300AB8390014E787979038015E493A3AC82B6
:1000F300AD838A828B83F0A3AA82AB838C828D83A8
:10010300D8E9D9E775820D7583F4740312012F754D
:100113008291758300740012012F75D00075813FA1
:10012300751881751902759F00020096C09FF59F8F
:10013300E473D09F22D083D082C09FE493C0E07445
:100143000193C0E0740293F59F2201FFFF1209425D
:100153006C6F6F6450726573737572652053656E4F
:10016300736F720512C8004006020A0002010503FC
:10017300021018426C6F6F64507265737375726509
:100183002053656E736F720F0F0F0F0F0E780050B1
:10019300005A003C000140050000201002020C82BE
:1001A300010000398102DC81010000080B02088292
:1001B300000000D80302DA81030000D20302DC81CD
:1001C300010000090B020682000000D90302DA8154
:1001D300030000DA0302DC810100000A0B0204823F
:1001E300010000E003020202020202020202010D08
:1001F3000000001001020C82010000D38102DC81A7
:10020300010000530B02FC81010000E20302DC81C8
:10021300010000540B02F881010000248102DC81FB
:10022300010000550B02F681010000168102DC81FA
:10023300010000560B02F481010000B78002DC814B
:10024300010000570B02EE81010000818002DC8176
:10025300010000580B02EC81010000A58002DC8143
:10026300010000590B02EA81010000938002DC8146
:100273000100005A0B020082010000088102DC81A8
:100283000100005B0B02E6810100005C0B01E80347
:10029300053F100AFF00013075030201060000004C
:1002A300000000000000000000000000000000004B
:1002B300000000000000000000FFFF0600800CE8C3
:1002C30003FF0000B4000028002800283075A000B8
:1002D300A000A000A00000080008E001F00010004A
:1002E30010001000100010001000500050005000CB
:1002F30010001000D0070000000000000F000100F4
:100303000500307507001000010081FF00000000A8
:10031300FFE60A040BEC0AFF02020208025000A0E7
:10032300000000E803020C82010000CD8102DC81A1
:10033300010000860C02D881010000EA0502DC817D
:10034300010000870C020282010000000602DC812A
:10035300010000880C02FA81010000020602DC8120
:10036300010000890C02E881080000030602DC8119
:100373000100008A0C02E4810100008B0CFFFF01E5
:1003830000FF20020C82010000D08102DC81010009
:1003930000F00C02D681000000000002DA810300A5
:1003A3000092063A113A113A113A113A113A113AB6
:1003B300113A113A113A113A113A113A11CE13E6A0
:1003C30013C8131201380080031201381580031279
:1003D30001386D8003120138D480031201381C8167
:1003E30003120138928103120138C18103120138CB
:1003F300CF81031201383382031201387182031251
:1004030001388C8203120138248303120138CD830F
:10041300031201385084031201388984031201380E
:100423001485031201386B8503120138CA85031240
:100433000138DC85031201380286031201380B866A
:10044300031201386A8703120138D9F10312013804
:100453003E96031201381D97031201387997031250
:100463000138939703120138A497031201389F9A16
:1004730003120138BF9A0312013827DF0312013830
:100483006CDF03120138B2DF0312013845E10312B6
:1004930001388FEE03120138AAEE03120138BAEEC7
:1004A3000312013811EF0312013875790012013874
:1004B300957900120138997A00120138E57A001211
:1004C3000138057B00120138587B00120138C57BC7
:1004D300001201380B7C001201386F7C00120138C6
:1004E300217F00120138A27F00120138FAEA0312B9
:1004F30001382AEB031201385AEB031201387AEB65
:1005030003120138D4EB0312013848D30212013825
:100513006CD502120138DAD60212013812D7021250
:100523000138B7D702120138F5D90212013876DA49
:1005330002120138DADA0212013877DB02120138CB
:10054300F6DB02120138F2DC0212013810DD02126E
:100553000138BBDD02120138ECDD0212013808DF7D
:1005630002120138CADF02120138B7C90312013877
:1005730015CA0312013828CA0312013831CA0312FB
:10058300013890CA03120138E1CA031201389DCB26
:100593000312013821CD031201381DB003120138B3
:1005A30042B0031201387CF203120138582A0012B8
:1005B3000138662D00120138262F00120138D12F81
:1005C300001201387530001201380E310012013863
:1005D3003D3100120138A93100120138833600126F
:1005E30001382E37001201389E38001201380639BF
:1005F30000120138BA39001201387C3C001201386C
:10060300BB3C001201382F3D001201388E3D001211
:100613000138ED3D001201385C3E001201384F3FB6
:1006230000120138953F00120138DA3F00120138F9
:10063300FD3F001201387841001201388B4100124E
:100643000138944200120138D34200120138FF42AC
:10065300001201385243001201387343001201386B
:10066300B743001201380946001201384A46001206
:100673000138F546001201386047001201389D48E1
:1006830000120138E9FF011201387EDC0312013840
:1006930019DF03120138CEFF011201383EEC0312B9
:1006A30001384EEC0312013868EC0312013870ED87
:1006B30003120138FBD303120138A1D4031201380A
:1006C300BDD603120138A7E903120138D9E9031291
:1006D300013839EA0312013850EA03120138ACEA4F
:1006E30003120138E9EA03120138ECEA0312013874
:1006F300DF7F0012013897A103120138B6A103125C
:1007030001384BA2031201383BA30312013898A509
:1007130003120138F8A50312013861A60312013848
:10072300F87F00120138B4D903120138C8DB031271
:10073300013834DC031201387BDC03120138FCFD81
:100743000212013865FE0212013823FF021201383A
:10075300A2FF0212013807C20312013839C2031281
:10076300013841C30312013866C40312013822C59C
:10077300031201382AEB0212013810EC021201387D
:100783005DEC02120138A0EC0212013815ED0212E1
:10079300013876ED02120138EBED02120138C7EE93
:1007A30002120138D2EF0212013853F0021201385B
:1007B300FAF10212013890F20212013803F3021225
:1007C30001387FF30212013896F302120138CDF497
:1007D3000212013827F502120138FEBE0112013858
:1007E30096C3011201386AC60112013893C6011279
:1007F3000138BCC6011201386EC70112013854C951
:10080300011201388FCA01120138C5CF0112013814
:10081300FECF0112013842D00112013854D1011226
:1008230001387DEF0312013889E1031201380DE32A
:10083300031201387FA603120138A0A60312013860
:10084300EFA6031201388AF303120138D3E6031229
:100853000138E9E60312013818E7031201384EE7BD
:100863000312013865E7031201387CE703120138EC
:10087300B3E70312013806E8031201381DE8031237
:10088300013834E80312013867E3031201387EE3C9
:1008930003120138AFE303120138EAE3031201380C
:1008A30014E4031201383EE40312013855E4031241
:1008B30001386CE40312013883E403120138ACE419
:1008C30003120138BFE403120138D5E403120138DF
:1008D300E8E4031201380FE5031201383BF101127A
:1008E30001383FF2011201386CF201120138C2F2F1
:1008F30001120138E5F201120138F9F2011201384F
:10090300FBF2011201381EF30112013824F4011223
:10091300013868F5011201382CF60112013801F78C
:100923000112013872F701120138FEF70112013882
:1009330001F80112013889F801120138C4F80112D3
:1009430001382BF9011201382EF90112013865F92A
:10095300011201388EF90112013839FA01120138F6
:10096300C3FA0112013812FB011201381FFB0112F5
:10097300013822FB0112013882FB011201388DFB81
:10098300011201380CFC011201380FFC011201386D
:1009930022FC0112013825FC01120138B4FC0112BA
:1009A3000138CEFC01120138DEFC011201380EFDC4
:1009B300011201381BFD011201381EFD011201381D
:1009C3009FFD011201388DFE011201383FFF011214
:1009D300013860AB0312013888AB03120138B6ABA0
:1009E30003120138EDAB031201384BAC031201388B
:1009F30096AC03120138E1AC0312013821AD0312A6
:100A0300013867AD0312013895AD0312013852AEB8
:100A1300031201385CAE0312013869AE03120138C8
:100A23009CAE0312013868AF0312013874AF03128E
:100A330001388CAF0312013896AF0312013857F017
:100A43000312013865F0031201387DF003120138F7
:100A530095F003120138008002120138AC800212B3
:100A63000138278102120138488202120138848238
:100A7300021201382D830212013814840212013844
:100A8300788502120138CF8502120138508602128E
:100A930001384087021201388D870212013813880A
:100AA30002120138458802120138598A02120138AC
:100AB3009B8A02120138B98A021201383C8B021256
:100AC3000138108C02120138D88C021201381B8FA6
:100AD30003120138EE8F0312013897900312013885
:100AE300EA90031201389A910312013826920312F5
:100AF30001381293031201384193031201385494BD
:100B0300031201389C9403120138719503120138C2
:100B1300AD9503120138C9950312013806F3031288
:100B2300013869CD031201387FCD03120138A5CDF9
:100B330003120138C1CE03120138CBCE03120138A0
:100B430000D003120138F8D003120138709C03124D
:100B53000138A09D03120138D39D031201381D9E55
:100B630003120138E49F0312013833AB0112013839
:100B7300B7AB01120138C7AB01120138ADAC01129A
:100B83000138EAAC0112013876AD01120138B9AD72
:100B930001120138C4AD01120138AEAE01120138A1
:100BA30011AF01120138C7AF01120138AEB1011202
:100BB300013867B30112013843B401120138F7B4A5
:100BC3000112013834B801120138E2B801120138B8
:100BD30051BA01120138D1BB0112013878BC01129C
:100BE3000138C1BC01120138F9BC0112013896BDAC
:100BF3000112013821BE0112013814D20112013849
:100C03007ED201120138DDD301120138EDD3011276
:100C130001381AD40112013871D4011201381AD5DE
:100C23000112013821D601120138EBD60112013825
:100C33004BD8011201388ED80112013833D9011271
:100C4300013880D901120138A6D901120138B4DB69
:100C530001120138B9DB01120138BEDD011201387E
:100C63000BDE011201387EDE01120138B1DE011202
:100C7300013853DF01120138FCDF0112013834E07F
:100C83000112013837E0011201387FE00112013807
:100C9300BFE00112013816E101120138D8D6031260
:100CA3000138EBD603120138F9D60312013841D7C4
:100CB3000312013857D7031201389ED703120138A4
:100CC300B2D8031201383FD9031201388AD903126B
:100CD3000138D14800120138DD48001201381849A3
:100CE300001201385D49001201381D4A0012013813
:100CF300A34A00120138CF4A00120138084B0012F0
:100D03000138464D001201382A4F001201381051A4
:100D130000120138535200120138A1540012013855
:100D2300B35500120138FE56001201380E58001256
:100D330001382B58001201386658001201388858C0
:100D430000120138EB5800120138AC5D0012013873
:100D5300415E00120138925E00120138B95E001242
:100D630001380B5F00120138295F00120138835FDD
:100D73000012013882600012013806610012013846
:100D8300D8B403120138E2B40312013825B50312B3
:100D9300013840B503120138D0B503120138F8B554
:100DA3000312013835B6031201386CB60312013849
:100DB30095B6031201380AB7031201381FB703129D
:100DC300013834B70312013865B70312013879B714
:100DD300031201389EB703120138D8B70312013842
:100DE30004B80312013887B803120138D0B80312CC
:100DF3000138FAB80312013825B90312013876ED28
:100E03000312013875C602120138A3C60212013853
:100E1300F1C702120138D1C802120138F0C8021218
:100E230001386DC902120138B0C90212013806CB6C
:100E330002120138C7CB021201384ECE021201381A
:100E4300EFCE02120138E5CF02120138E2D00212CE
:100E530001383CD202120138C7D2021201384CE8E1
:100E630003120138B5E80312013809E90312013806
:100E730030E90312013861E9031201384DB9031255
:100E83000138BAB90312013801BA0312013819BB88
:100E93000312013815BC03120138F8BC03120138E0
:100EA30093F502120138D5F502120138A7F60212A2
:100EB300013880F7021201387AF8021201385CF91E
:100EC30002120138C5F9021201387BFA0212013805
:100ED300EFFA021201385BFB0212013884FB0212A3
:100EE3000138FEFB0212013897FC02120138FCFCA8
:100EF3000212013811FD0212013857FD02120138A6
:100F030070FD02120138D5FD02120138D8FD02121C
:100F1300013802D1031201382AD10312013868D1F2
:100F23000312013826D2031201388DD2031201387D
:100F3300A9D203120138D1D20312013801D303120B
:100F4300013810D3031201388DD303120138B3D300
:100F53000312013803E201120138E1E301120138FF
:100F630013E6011201384FE6011201387CE6011243
:100F7300013866E701120138B1E701120138FCE7D5
:100F8300011201380EE8011201384EE8011201384E
:100F930083E801120138D1E80112013800E9011296
:100FA300013823E90112013870E901120138F5E92A
:100FB300011201380FEC011201384EEE0112013813
:100FC3008FEE0112013831F00112013872F0011273
:100FD3000138E5F00112013860B9021201385EBA36
:100FE30002120138F7C00212013818C30212013885
:100FF300E3C4021201384BC6021201386D610012BC
:1010030001381C62001201384962001201388F62F4
:1010130000120138CF6300120138656500120138F0
:10102300DF6500120138FA65001201387566001297
:101033000138CF67001201382F6900120138356A71
:1010430000120138966B00120138AF6B00120138A1
:101053000D6C00120138FB6C001201382E6D00126A
:1010630001389E6D00120138186E00120138626E4D
:10107300001201382C6F0012013801700012013880
:10108300E070001201386B7100120138D97100123F
:1010930001384D720012013878720012013837732B
:1010A300001201389C7400120138B974001201381F
:1010B300D87400120138C97500120138EE75001298
:1010C3000138187600120138937600120138ED7654
:1010D30000120138567800120138047900120138E1
:1010E3004579001201388CAB02120138DAAB0212D7
:1010F3000138E6AB02120138C4AC02120138F5AC78
:101103000212013826AD02120138A6AD02120138CF
:10111300DEAD0212013830AE021201386DAE02129A
:1011230001388AB002120138B0B2021201389BB4FE
:101133000212013885B6021201384D2A0012013815
:10114300209701120138509701120138299E01128C
:101153000138AE9F01120138ABA50112013893A6E5
:1011630001120138D0A601120138F3A60112013889
:1011730024A7011201382DA70112013837A7011244
:10118300013825A8011201381BA901120138118267
:101193000112013810860112013816860112013836
:1011A300518D011201386A9201120138E9C5031207
:1011B30001387FC60312013895C6031201380BC7E5
:1011C300031201387FC703120138BDC70312013868
:1011D30031C803120138AAC803120138B3C8031275
:1011E3000138BFC803120138D4C80312013812C929
:1011F3000312013828C90312013887C903120138C1
:10120300BABD03120138C7BD03120138E1BD031291
:10121300013820BE031201385EBE03120138C3BE7B
:1012230003120138D8BE03120138E3BE031201389A
:10123300F0BE0312013807BF0312013815BF0312B2
:10124300013820BF031201382CBF031201383BBF02
:101253000312013846BF0312013869BF0312013874
:1012630010C00312013820C0031201383AC0031220
:10127300013857C00312013873C00312013898C0F4
:1012830003120138A3C003120138B8C00312013896
:10129300CCC0031201382DC10312013833C103122C
:1012A300013839C1031201383FC10312013857C154
:1012B300031201388AC103120138629D02120138F8
:1012C300E69D02120138959E02120138F49F021224
:1012D300013815A20212013801A30212013836A304
:1012E3000212013858A30212013807A4021201386E
:1012F300FFA50212013828A602120138BAA602126B
:101303000138ECA602120138F9A60212013850A7DF
:101313000212013876A702120138E3A9021201383A
:10132300E6AA021201383EAB02120138F18E021214
:101333000138FB8F02120138E29002120138EC905F
:10134300021201380E91021201381A910212013869
:10135300B39202120138E29202120138FE93021292
:101363000138579402120138BD95021201389C9638
:1013730002120138F89602120138659702120138F9
:10138300A09702120138DF9702120138989A0212CD
:101393000138B29A021201383E9B021201384C9B6B
:1013A30002120138A59B02120138B39B02120138C5
:1013B300269C021201388A9C02120138D49C021224
:1013C3000138FCDF021201381EE00212013844E248
:1013D3000212013859E50212013871E6021201388E
:1013E30024E70212013806E80212013821E503124C
:1013F300013846E503120138B8E503120138A18725
:1014030003120138AA8703120138B3870312013884
:101413008A88031201383B8A03120138718A031246
:101423000138AB8A03120138E18A031201381B8B9E
:10143300031201384F8B031201387B8B03120138DF
:10144300C48B03120138FE8B03120138478C03123D
:1014530001389F8C03120138D48C031201382F8D6D
:1014630003120138698D03120138BA8D0312013852
:10147300F08D031201382A8E03120138588E03129D
:1014830001387B8E031201382EF1031201385AF111
:1014930003120138B5F103120138BFF10312013809
:1014A300CFF103120138B37F00120138B0FF01E01E
:1014B30066701008A3E066700A08A3E0667004086B
:1014C300A3E06622C3E7960809E7960809E79608AA
:1014D30009E79622C3E09608A3E09608A3E09608DE
:1014E300A3E09622C008C3E096F50808A3E096425D
:1014F3000808A3E096420808A3E09645087001D3C4
:10150300D00822080808EAC0E0EBC0E086F0E7A4B0
:10151300FA180986F0E7A42AFA180986F0E7A42A3C
:10152300FA180986F0E7A42AFA1986F0E7A4FBE57E
:10153300F02AFA190886F0E7A42BFBE5F03AFA192A
:101543000886F0E7A42BFBE5F03AFA18180986F0B1
:10155300E7A4C5F02BFBE43AFA1908E7C5F0C6A4E3
:1015630026F6E5F03BFBE43AFA1886F0E7A4F6E545
:10157300F00826F6E43B08F6E43A08F6D0E0FBD0A0
:10158300E0FA22E4CFC0E0E4CEC0E0E4CDC0E0E482
:10159300CCC0E075F020C3E633F608E633F608E680
:1015A30033F608E633F6181818EC33FCED33FDEE8A
:1015B30033FEEF33FFC3EC9709ED9709EE9709EF7D
:1015C30097191919400FFFEC97FC09ED97FD09EEE8
:1015D30097FE191906D5F0BEECF709EDF709EEF7FA
:1015E30009EFF7191919D0E0FCD0E0FDD0E0FED0E7
:1015F300E0FF226016080808C6C313C618C613C640
:1016030018C613C618C613C6D5E0EA22700908081F
:1016130008226016181818C6C333C608C633C6088E
:10162300C633C608C633C6D5E0EA22E627F608095C
:10163300E637F60809E637F60809E637F622E02624
:10164300F608A3E036F608A3E036F608A3E036F67C
:1016530022E026F008A3E036F008A3E036F008A362
:10166300E036F022C3E697F60809E697F60809E69E
:1016730097F60809E697F622C3E096F008A3E096EA
:10168300F008A3E096F008A3E096F022E657F608E8
:1016930009E657F60809E657F60809E657F622E081
:1016A30056F608A3E056F608A3E056F608A3E0565C
:1016B300F622E056F008A3E056F008A3E056F0083F
:1016C300A3E056F022E0F608A3E0F608A3E0F6084C
:1016D300A3E0F622E6F008A3E6F008A3E6F008A3E9
:1016E300E6F022E0FAA3E0FBA3E0FCA3E0FD22EA9C
:1016F300F0A3EBF0A3ECF0A3EDF022CAC0E0E6F018
:10170300A308DAFAD0E0FA22CAC0E0E0A3C582CC8B
:10171300C582C583CDC583F0A3C582CCC582C583ED
:10172300CDC583DAE6D0E0CA22C3E498F8E499F998
:1017330012176D8026C3E49AFAE49BFBE920E7E9DC
:1017430012176DE498F8E499F922C3E498F8E49940
:10175300F912176DE498F8E499F9C3E49AFAE49B53
:10176300FB22EB20E7CFE920E7E0B90010BB00083C
:10177300E88AF084F8AAF022E4FBC8FA22EB70228C
:101783007B10C833C8C933C9335007C39AC3DBF2CC
:1017930080069A50012ADBEAC833F4C8C933F4C976
:1017A300FA2275F008E4C833C8C933C933C99AC9E2
:1017B3009B5004C92AC93BD5F0ECFBC833F4C8E4F9
:1017C300C9FA22600D08C6A2E713C618C613C6D508
:1017D300E0F322600C08C6C313C618C613C6D5E0CF
:1017E300F422700422600D18C6C333C608C633C67C
:1017F300D5E0F41822251810AF08F5184002151982
:101803008008F51840021519D2AF22C0D025181050
:10181300AF08F518500205198008F518500205198C
:10182300D2AFD0D0222518F58210AF08F5184002A8
:1018330015198008F51840021519D2AF85198322AE
:101843002518F582E43519F58322E4732518C5823A
:10185300C0E0E51934FFC583C0E0E518C3958224D1
:10186300F810AF0885831985821880088583198548
:101873008218D2AFCEF0A3E520F0A37808E608F0F3
:10188300A3DEFAEFF0A3E58124FAF8E608F0A3E675
:1018930008F0A3E608F0A30808E608F0A3E608F0BA
:1018A300A315811581D0E0FED0E0F81581158115CF
:1018B30081E8C0E0EEC0E0222518C582C0E0E5194A
:1018C30034FFC583C0E0E518C3958224F910AF083F
:1018D3008583198582188008858319858218D2AF7C
:1018E300CEF0A3E520F0A37808E608F0A3DEFAEF34
:1018F300F0A3E58124FBF8E608F0A3E608F0A308CB
:1019030008E608F0A3E608F0A315811581D0E0FEF0
:10191300D0E0F815811581E8C0E0EEC0E02285191A
:1019230083851882E0A3FEE0A3F5207808E0A3F600
:1019330008DFFAE0A3FFE0A3C0E0E0A3C0E0E0A378
:10194300C0E0E0A3C0E0E0A3C0E010AF08858218C8
:101953008583198008858218858319D2AFD083D0F7
:1019630082020135851983851882E0A3FEE0A3F581
:10197300207808E0A3F608DFFAE0A3FFE0A3C0E0C5
:10198300E0A3C0E0E0A3C0E0E0A3C0E010AF08859F
:1019930082188583198008858218858319D2AFD070
:1019A30083D08222C0D02518C582C0E0E51934FF58
:1019B300C583C0E0E518C3958224F310AF0885837F
:1019C300198582188008858319858218D2AFC8F0DB
:1019D300A3E9F0A3EAF0A3EBF0A37908E709F0A3E6
:1019E300D8FAECF0A3EDF0A3EEF0A3EFF0A3D0E070
:1019F300F0A3D0E0F0A3D0E0F0A3E520F0A3E5F05E
:101A0300F0A322851983851882E0C0E0A3E0F9A33F
:101A1300E0FAA3E0FBA37808E0F608A3DFFAE0FC12
:101A2300A3E0FDA3E0FEA3E0FFA3E0C0E0A3E0C0CA
:101A3300E0A3E0F5D0A3E0F520A3E0A3F5F010AF19
:101A4300088583198582188008858319858218D2B1
:101A5300AFD082D083D0E0F8D0E032740480067433
:101A63000280027401C0E0F404121828D0E01216B8
:101A7300FE227404800474028000CCC0E0EDC0E058
:101A8300E518C39CCCAD1950011D10AF068C188D01
:101A93001980068C188D19D2AF12170BD0E0FDD028
:101AA300E0FC22D083D082E9C0E0E493A3C386F0B4
:101AB300C5F095F0F908E493A386F0C5F095F070AE
:101AC3000BE493A3C3994005E9048002A3E475F0F2
:101AD30002A42582F582E5F03583F583D0E0F9E4AD
:101AE30093A3C0E0E493C0E022D083D082ECC0E0B3
:101AF300EDC0E0E493A3FCE493A3FDED4C600D1271
:101B03001B38EC24FFFCED34FFFD80EFE493A3FCD2
:101B1300E493A3FDED4C600D121B77EC24FFFCED69
:101B230034FFFD80EFD0E0FDD0E0FCE493A3C0E000
:101B3300E493C0E022C0E0C3E49396087401939653
:101B430018400FE4936670080874019366187000D8
:101B53007019A3A3C3E49396087401939618A3A3DF
:101B6300400DD0E0D0E0D0E0021B28A3A3A3A3A3A1
:101B7300A3D0E022C0E0C0F088F0E49366700808C8
:101B830074019366187000A8F0A3A3700BD0F0D073
:0F1B9300E0D0E0D0E0021B28A3A3D0F0D0E022E6
:101BA400C2AF02000022C0E074F21219A7A2AFE48F
:101BB40033FED2AFE589A2E04006E589A2E15003F5
:101BC4001206DE758900758900C2C5751A00EEF823
:101BD400EEA2E092AF7F01021A06C0E0C0D0E8C0D6
:101BE400E0E9C0E0A2AFE433F8D2AFC2C7751A008F
:101BF400E8F9E8A2E092AFD0E0F9D0E0F8D0D0D094
:101C0400E03274F51218BBEAFEEBFFEE2434F8EF71
:101C14003400F988088909EE2435F582EF3400F59B
:101C240083E0F8EE2437F582EF3400F583E0F50A1B
:101C3400EC850AF0A4FCAAF0850AF0EDA42AFDE8DC
:101C44002CF8E43DF97A257B0012176DEA850882A9
:101C5400850983F0F8740758F97401B90002800407
:101C6400C333D9FCFAE8131313541FF8EE28F8EF22
:101C74003400F9E8245DF582E93400F583E05A6024
:101C840008EE2434F582EF802CEE2434F582EF3410
:101C940000F583E0C0E0EE2436F582EF3400F583EE
:101CA400E0F5F0D0E084A8F0EE28F8EF3400F9E88D
:101CB4002438F582E93400F583E0F97F04021967DA
:101CC40074F51218BBEAFEEBFFEE2434F582EF3410
:101CD40000F583E0C0E0EE2435F582EF3400F583AF
:101CE400D0E0F08E828F83A3A3A3A3A3A3A3C08277
:101CF400C0838E828F83A3A3A3A3A3E0F8A3E0F9F8
:101D0400D083D082E0C398F508A3E099F509EE24C6
:101D14007FF582EF3400F583E064017069EE24807E
:101D2400F582EF3400F583E0F8A3E0F98E828F8327
:101D3400A3A3A3A3A3A3A3E0FCA3E0FD8E828F83AC
:101D4400A3A3A3A3A3E0FAA3E0FBC3EA9CEB9D50E7
:101D540010C3EC98ED99402EC3EA98EB9950278074
:101D64000EC3EA98EB994007C3EC98ED9940177CB1
:101D7400557D08EEFAEFFB121098EE247FF582EF02
:101D84003400F583E4F0EE2434F8EF3400F9E8FC91
:101D9400E9FDEE2435F582EF3400F583E0F8EE2416
:101DA40037F582EF3400F583E0F50AE508850AF09B
:101DB400A4F508AAF0850AF0E509A42AF509E8259E
:101DC40008F8E43509F97A257B0012176DEA8C824C
:101DD4008D83F0F8740758F97401B900028004C3C4
:101DE40033D9FCFAE8131313541FF8EE28F8EF3430
:101DF40000F9E8245DF582E93400F583E05A6008CF
:101E0400EE2434F582EF802CEE2434F582EF340096
:101E1400F583E0C0E0EE2436F582EF3400F583E08C
:101E2400F5F0D0E084A8F0EE28F8EF3400F9E824C7
:101E340038F582E93400F583E0F9122A3F021CBF29
:101E4400C082C083851882851983E0F8A3E0F9C3B2
:101E5400EA9CEB9D5010C3EC98ED99401BC3EA98A3
:101E6400EB995014800EC3EA98EB994007C3EC98A1
:101E7400ED994004790180027900D083D08222EA6E
:101E8400C39CFAEB9DFB2274EF1218BB90071BE076
:101E940064086005E06407702A9061C8E0602490DB
:101EA4000749E0F4601DE0F875F003A4C8AAF02A1D
:101EB400F9744B28FE740739FF8E828F83A3A3A382
:101EC400E07003021FBB906060E0C0E0EE2468F5A0
:101ED40082EF3400F583D0E0F0750CBE750D087503
:101EE4000800750900E5D914F50AE5D95403F50E7F
:101EF40060177403650E605CE50A6010EE2467F5F4
:101F040082EF3400F583E07003021FA09008B9E06B
:101F14006401602AEE2482F582EF3400F583E060E8
:101F240004780480027800850A08E508C398FA95C5
:101F3400E0FB120F668A088B09EA45097005121244
:101F44009C8074EE2482F582EF3400F583E0700403
:101F54008A0C8B0DE50A6012850C82850D83F50BC6
:101F6400E5D9F0A3150BE50B70F6EE2482F582EFAC
:101F74003400F583E0604474FC250AF50A780C12F9
:101F84001A62AC0AA90EEEFAEFFB121134740212B3
:101F9400180EE97026AA08AB09120744793D8E820F
:101FA4008F83A3A3A3A3E0FA7B00120E3AEEFAEF09
:101FB400FB1210B0121146790080747403650E6030
:101FC40056850A107511007810121A62AC0CAD0D0A
:101FD400AA08AB09121110740212180EEE2468F547
:101FE40082EF3400F583E064807004747F8001E044
:101FF400F50C780C121A66E50EF50C780C121A66BC
:10200400A90AAC08AD09900749E0FA7B00120DFE5D
:10201400740212180E801390071BE06408600BAC66
:102024000CAD0DEEFAEFFB1211A01212A879017F8C
:102034000A02196774F51218BB74FC1217F8EAFE49
:10204400EBFF8908A2AFE433F509C2AF806AEE243E
:1020540063F8EF3400F97A007B00A2AFE433F50AA9
:10206400C2AF88828983E0FCA3E0FDEC4D603A882E
:10207400828983E0FAA3E0FB8A828B83E0FCA3E0FD
:10208400FD88828983ECF0A3EDF08A828B83E4F0EF
:10209400A3F088828983E0FCA3E0FDEC4D700A88FC
:1020A400828983A3A3E4F0A3F0E50AA2E092AF122D
:1020B400074490085CE004F0EE2463F582EF3400FA
:1020C400F583E0F8A3E0F9E849603DEE2463F58286
:1020D400EF3400F583E02402FAA3E03400FBEA24A1
:1020E40002F50AEB3400F50B780A121A628A828B25
:1020F40083E0FCA3E0F9EEFAEFFB1210D4740212B1
:10210400180EE9700302205290085CE060639008A6
:102114005DE0F890085CE0C398500C7402650870A8
:102124005090085EE0604A8E828F83A3A3A3A3E04D
:10213400851882851983F0A3E4F090085CE0F874B4
:1021440002121843E8F0A3E4F090085CE0F8900869
:102154005BE028F07402121843AC82AD83851882C8
:10216400851983AA82AB837901120E0A90085CE474
:10217400F0E509A2E092AF740412180E021CBF002D
:102184008521878522C622C0E0C0D0E8C0E0E9C02E
:10219400E0EAC0E0EBC0E0ECC0E0EDC0E0EEC0E09F
:1021A400C008C009C00AC00BC082C083C0F0A2AF7F
:1021B400E433FEC2AF759B00906182E0A2E050124E
:1021C400E591A2E0500C7591FE7401652170031233
:1021D4001E8BE0A2E55051E591A2E5504B7591DFCD
:1021E40090071BE064076005E064087023740165D0
:1021F4002170357901900749E0FA75F003A4CAA863
:10220400F028FB744B2AFA74073BFB122038801821
:10221400E0640D701390073DE004F064287002E45C
:10222400F07A00E0F91212AE906182E0A2E6400377
:102234000222D2E591A2E640030222D27591BF9018
:10224400071BE0640570081211D61211E280031214
:1022540011DC75210012123CE990071CF079001280
:10226400123012100E7A017B0090071AE0F9120462
:1022740020907803E0644270559008BDE014F0703B
:102284004DC2AF12228A00782AD0E0F618D0E0F6C8
:10229400E59F540770057509FF800375097FC4C065
:1022A400E07829E6F50808E65509F509740B78087D
:1022B4001217D6D0E02508F8906270E0A2E740F843
:1022C400E8C333906272F0906270E0D2E0F0906103
:1022D40081E0A2E35009E5E9A2E3500375E9F7A31D
:1022E400E0A2E75009E591A2E7500375917FEEA2C1
:1022F400E092AFD0F0D083D082D00BD00AD009D0F6
:1023040008D0E0FED0E0FDD0E0FCD0E0FBD0E0FA65
:10231400D0E0F9D0E0F8D0D0D0E032C0E0C0D0C0F6
:1023240082C083906183E0A2E05009E5BFA2E0503F
:102334000375BFFEE0A2E15009E5BFA2E1500375B9
:10234400BFFDE0A2E25009E5BFA2E2500375BFFB66
:10235400E0A2E35009E5BFA2E3500375BFF7E0A292
:10236400E45009E5BFA2E4500375BFEFE0A2E550D5
:1023740009E5BFA2E5500375BFDFE0A2E65009E519
:10238400BFA2E6500375BFBFD083D0828088C0E06F
:10239400C0D0E8C0E0E9C0E0EAC0E0EBC0E0ECC0D7
:1023A400E0EDC0E0C0F0E5A7A2E6500FE5A1A2E68B
:1023B400500953A7BF75A1BF1223F7E5A7A2E550A3
:1023C4000CE5A1A2E5500653A7DF75A1DFE5A7A29E
:1023D400E15009E5A1A2E1500375A1FDE5A7A2E240
:1023E400500CE5A1A2E2500653A7FB75A1FBD0F067
:1023F40002230874F81218BB75210190071BE064CE
:102404000670151211648A828B83A3A3A3A3A3A3CA
:10241400E0FAA3E0FB1211C4A2AFE433FED2AF9002
:102424000721E0640170187A207B0090071AE0F914
:102434001204CE7A207B0090071AE0F91204269049
:102444006182E0D2E6F09008BAE0602185C622807D
:1024540016900720E064017008E5C654F84405F5B9
:10246400C653BEFC1221847401652160E4EEA2E02F
:1024740092AF7F01021967008E238F2485822885FD
:102484008327851882851983E0CEA3E0CF8528822F
:10249400852783EBC9EAC8EDCBECCA75F010C3E815
:1024A40033C8E933C9EA33CAEB33CBC3EA9EF52612
:1024B400EB9FF525B35004AB25AA26EC33CCED33C2
:1024C400CDD5F0DAAE23AF242274E91218BB74F828
:1024D4001217F8851882851983ECF0A3EDF08A08A9
:1024E4008B0990071BE024F7C39405500675080177
:1024F4000226641211648A0A8B0BAE0AAF0BEE4FEC
:102504007003022661AC08AD097402121843AA8252
:10251400AB831211F48E828F83A3A3750CFF750D08
:10252400FF750EFF750F00780C1216A274021218B4
:10253400437510FF7511FF7512FF751300781012A3
:1025440016A2780C79101214C7502A780C7910123C
:1025540016677508017509C8750A00750B007808B7
:10256400790C1214C75052850C08850D09850E0A82
:10257400850F0B80507514017515C87516007517F5
:102584000085100885110985120A85130B780879CE
:102594000C121667781479081214C7401C750800C9
:1025A400750900750A00750B017808791012166711
:1025B4007808790C12162E800C75080175090075BF
:1025C4000A00750B007409780812160F750C19F5BA
:1025D4000DF50EF50F7808790C1215868E828F830F
:1025E400A3A3A3A3A3A3E0F8A3E0F97AD07B0312E7
:1025F400176D880C890DE4F50EF50F7808790C1227
:10260400162E7406121843E0F8A3E0F97AD07B037F
:1026140012176DE8FA8A0CE4F50D7808790C121497
:10262400C750077808790C12166790071BE06408F6
:10263400600AE064066005E06405702D750C0D7891
:102644000C79081214C74021750CF4750DFF750E32
:10265400FF750FFF7808790C12162E800C75080090
:10266400750900750A00750B00851882851983E0C9
:10267400F8A3E0F583888278081216D77408121834
:102684000E7F1002196774F71218BB121206900815
:10269400B8E064017010906245E4F0A3F053F4F3E1
:1026A40043FE0C5390F31211B2E5C654804449F52D
:1026B400C6E59E547F644970F8906185740FF0906C
:1026C40008B6E0F47002A3E0604E9008B7E060083A
:1026D40014601B14602E8040750801750900900871
:1026E400B6E078081217E5E508F45280802A7508E8
:1026F400017509009008B6E078081217E5E508F4BA
:10270400529080147508017509009008B6E07808A5
:102714001217E5E508F452A079007F0202196774E4
:10272400F71218BBE9FEEAFF74016E700C7A807B25
:102734000090071AE0F9120420902A50E493F46000
:1027440008E493F9121002800953C680E59E547F71
:1027540070FA1211B89008B8E06401700312101AEC
:102764009008B6E0F47002A3E0604B9008B7E06014
:102774000814601A14602C803D75080175090090D6
:1027840008B6E078081217E5E50842808028750845
:10279400017509009008B6E078081217E5E50842CB
:1027A4009080137508017509009008B6E078081246
:1027B40017E5E50842A01212061211648A088B0973
:1027C400A808A909E8496015E5E170FCE82414F5B6
:1027D40082E93400F583E0F46003E0F5E174016F0D
:1027E400700A7A0190071AE0F912049E02271E74F7
:1027F400ED1218BB8A088B098C0A8D0B74131218FE
:1028040043780C1216C87808790C1214C775100195
:102814007511C875120075130050127808790C12DE
:102824001667781079081214C750168010780C793E
:10283400081216677810790C1214C74004790180C5
:102844000279007F0C02196774ED1218BB8A088B99
:10285400098C0A8D0B7413121843780C1216C8785D
:102864000C79081214C740117808790C121667AA5B
:1028740008AB09AC0AAD0B80227510007511007508
:1028840012007513017810790C1216677810790804
:1028940012162EAA10AB11AC12AD1380A68A828B2D
:1028A400837508FF7509FF750AFF750B0078081218
:1028B40016B57F0402196774F51218BB8C828D83D8
:1028C40078081216C88A828B83780812167BEA2449
:1028D40004F8EB3400F98C828D83A3A3A3A3E0FC5A
:1028E400A3E0FD88828983C3E09CF0A3E09DF08887
:1028F400828983C3E09420A3E0944E40268A828B8D
:10290400837508FF7509FF750AFF750BFF780812B8
:1029140016548A828B83A3A3A3A3E02420F0A3E00C
:10292400344EF00228A174F51218BBE9FE90087029
:10293400E0FAA3E0FBEEC333F8E433F974D928F5E5
:1029440082748039F583E02AF508A3E03BF5097821
:1029540008121A627A407B427C0F7D0012247C7438
:102964000212180E8A088B098C0A8D0B74107808D1
:102974001215F6AA08AB097F0402196774F112183C
:10298400BB8A0C8B0D8C0E8D0F740F121843E0FA5A
:10299400A3E0FB7411121843E0F508A3E0F50978ED
:1029A40008121A62EA2401F508EB3400F509E4F58B
:1029B4000AF50B780C790812150675087175090269
:1029C400780C7908121506AA0CAB0DAC0EAD0F12DB
:1029D400247C740212180E8B09EA450960047A01FA
:1029E40080027A00EC2AFCED3400FD7413121843C3
:1029F400E0F8A3E0F9E8FEE9FFECF8EDF97A717B81
:102A04000212176D880889098E828F83780812163E
:102A1400D7ECF8EDF97A717B0212176D8A088B09ED
:102A2400740578081217E58E828F83A3A3A3A3E508
:102A340008F0A3E509F07F08021967C082C083E9A2
:102A4400906000F0D083D08222020135FFFFFFFFA7
:102A5400FFFFFFFF74EE12184F74FA1217F88A0A78
:102A64008B0B8909ECFEEDFF750800850A0C850BBC
:102A74000D780C121AA6000410312DA12AC22AE1E5
:102A84002A022B232B442B772B982BAF2BDD2B9B4C
:102A94002CBC2CDC2C062D312D312D082C74016519
:102AA4000970158E828F83E0C39403500B8E828F3E
:102AB40083E0900BFBF08003750818022D5A740212
:102AC400650970138E828F83E0F8A3E0F9900BFC04
:102AD400E8F0A3E9F08003750818022D5A74016523
:102AE4000970158E828F83E0C39402500B8E828FFF
:102AF40083E09003EBF08003750818022D5A7401EB
:102B0400650970158E828F83E0C39405500B8E8205
:102B14008F83E09003ECF08003750818022D5A743B
:102B240001650970158E828F83E0C39402500B8E69
:102B3400828F83E09003EDF08003750818022D5A0C
:102B4400741065097027750C10750D00780C121A35
:102B540062EEFCEFFD7AEE7B031203CC74021218D2
:102B64000E8A0C8B0D850C82850D838003750818E5
:102B7400022D5A7401650970158E828F83E0C39407
:102B840002500B8E828F83E09003FEF08003750861
:102B940018022D5A74016509700B8E828F83E090A0
:102BA4000BFFF08003750818022D5A740465097030
:102BB400229081A9780C1216C88E828F83780C1209
:102BC40014D7500F8E828F831216E69004001216CB
:102BD400F28003750818022D5AE5097021120B348E
:102BE400E9701312062AE9F50C79501207D4E9F5B5
:102BF4000D120618800B9004937401F0800375087D
:102C040018022D5A740765096003022C95750E0687
:102C1400750F00780E121A628E828F83A3AC82AD78
:102C2400837402121843AA82AB831203D274021271
:102C3400180E8A108B1185100E85110F7C007D00F3
:102C4400851882851983AA82AB838E828F83E0F9EB
:102C54001205B8E9F50CE50CC3940A502F120B3495
:102C6400E97015A90C120630E9F50D79501207D454
:102C7400E9F50E120618801C750D007494250CF5E8
:102C8400827404350DF5837401F0800875080280A0
:102C940003750818022D5A7401650970158E828F08
:102CA40083E0C39402500B8E828F83E09003FFF085
:102CB4008003750818022D5A7401650970158E82F7
:102CC4008F83E0C3940A500B8E828F83E0900BFEB7
:102CD400F08003750818807E74016509701F8E8268
:102CE4008F83E0C3940740158E828F83E0C39411D1
:102CF400500B8E828F83E0900C00F0805975081879
:102D04008054740165097020900492E0F50C8E8261
:102D14008F83E0900492F0E50C703B900492E064A1
:102D2400017033120618802E7508188029C3E50A2D
:102D34009427E50B9400501B7402650970158E826C
:102D44008F83E0FCA3E0FDAA0AAB0B1209D2E9F5DC
:102D5400088003750802A908740612180E7F0A0277
:102D6400192174EC12184F74DA1217F8890D8A12AB
:102D74008B138C0A8D0B743A121843E0F50C908176
:102D840067C082C083851882851983AC82AD83D0E5
:102D940083D082740612170B851882851983AC823E
:102DA400AD83AA12AB13A90D1205B8E9FEEEC394C4
:102DB4000A4003022F05EEF91205FAE9FF900BFB16
:102DC400E064027004740180027400F5087808124B
:102DD4001A66AD0CEFFCEEF9AA0AAB0B12066C7482
:102DE4000112180E7C147D0079007412121843AA83
:102DF40082AB831203E48A0E8B0F850E08850F09BC
:102E04007412121843AC82AD837A1075F006EEA4E6
:102E14002424F91207CEE970437C1079FF7412124E
:102E24001843AA82AB83120444E970307422121846
:102E340043AC82AD837A0475F006EEA42425F9121E
:102E440007CEE9F5087412121843AC82AD83EFA2E1
:102E5400E0E433F9AA0AAB0B120A5CE9740612180F
:102E640043AC82AD837A0C74702EF91207CEE970EC
:102E74007E7406121843AA82AB831205EE750E0007
:102E8400E50EC394045068E50EA80E7900E875F0C9
:102E940003A4C8AAF075F000A42AFA75F003E9A403
:102EA4002AF97406121843E58228F508E58339F5F2
:102EB40009850882850983E0F8A3E0F9E849602BD5
:102EC400850882850983A3A3E0F5107511007810A5
:102ED400121A62850882850983E0FCA3E0FDAA0A30
:102EE400AB0B120D50740212180EE9050E8091EF0F
:102EF400A2E1500D9003EAE0F9AA0AAB0B120D56B9
:102F0400E97404650C700F900BFBE064027007AA6F
:102F14000AAB0B1206667900742612180E7F0C0297
:102F2400192174F212184F890BEAFEEBFF8C088DFD
:102F340009750A0AE50B600C1460091460441460F6
:102F440064022FCAEEFAEFFB12060CE9F50AE50A51
:102F5400C3940A5071E5084509606B750C06750D3C
:102F640000780C121A62EEFCEFFDAA08AB091203FA
:102F7400CC740212180E8A0C8B0D850C82850D837D
:102F84008044EEFAEFFB120606E9F50AE50AC3945B
:102F94000A5033E5084509602DAA08AB09A90A12AD
:102FA4000600E98021EEFAEFFB120612E9F50AE5C4
:102FB4000AC3940A5010E5084509600AAA08AB0937
:102FC400A90A120600E9A90A7F0602192174F2125D
:102FD400184F8A0C8B0DE9FE7F1574FF650C700485
:102FE40074FF650D702A750800E508C3940A50142F
:102FF400EEFC7A027B00A9081205DCE960027F007E
:10300400050880E5EE60637A547B06120F48805A07
:10301400AA0CAB0D120F2A8A0A8B0B850A08850BA2
:1030240009E508450960417C007D00E5082405FAAE
:10303400E5093400FB850882850983A3A3A3A3E0E3
:10304400F91205B8E9F50AE50AC3940A500EEEFC34
:103054007A027B00A90A1205DCE97F00EE600BAA64
:1030640008AB0912065480027F14EFF97F06021997
:103074002174EE12184F8A0E8B0F8C0A8D0B74126A
:10308400121843E0F50CA3E0F50D75081574FF65FF
:103094000E700474FF650F701E7E00EEC3940A5018
:1030A40062AC0CAD0DAA0AAB0BEEF91205E2E960B5
:1030B400037508000E80E4AA0EAB0F120F2A8A10C3
:1030C4008B11AE10AF11EE4F60367C007D00EE2404
:1030D40005FAEF3400FB8E828F83A3A3A3A3E0F948
:1030E4001205B8E9F509E509C3940A5016AC0CAD0C
:1030F4000DAA0AAB0BA9091205E2E97508008003C1
:10310400750814A9087F0A02192174F712184FEAE6
:10311400FEEBFF900404EEF0A3EFF09003EAE0FC72
:103124007D007A267B001209D2E9F5089003EAE0D3
:10313400F9120CD27F0102192174EE12184F8A1071
:103144008B11E9FE7412121843780C1216C87F0012
:10315400EE7041850C08850D09850E0A850F0B90CC
:1031640081A9780C1216C87808790C121586781083
:10317400121A62AA0CAB0DAC0EAD0F120A6E7402D9
:1031840012180EE9FFEF60167901AA10AB11120AAA
:1031940068E9800AEEF9AA10AB11120A68E9EFF99E
:1031A4007F0A02192174F212184F74EC1217F88A6C
:1031B4000A8B0B850A82850B83A3A3E024FA700390
:1031C40002360924FD700302347F14700302329C1A
:1031D40014601024FD70030234271470030234BFFA
:1031E400023677AE0AAF0B900404E0F8A3E0F9E8E6
:1031F400496069900404E0F8A3E0F5838882E0F86C
:10320400A3E0F9E8496055EE240CF582EF3400F5AB
:1032140083E0F5087808121A66EE240BF582EF3481
:1032240000F583E0F98E828F83A3A3A3A3A3A3A3B2
:10323400A3A3E0FCA3E0FDEE2403FAEF3400FB902B
:103244000404E0F8A3E0F5838882E0F8A3E0F583C2
:10325400888212184D740112180E80398E828F8361
:10326400A3A3A3A3A3A3A3A3A3121A799004001254
:1032740016E6120A6E740212180EE9601879018EAD
:10328400828F83A3A3A3A3A3A3A3A3A3E0FAA3E08E
:10329400FB120A68E9023677AE0AAF0B8E828F837F
:1032A400A3E060030233D58E828F83A3A3A3A3A3D9
:1032B400E0A2E040030233D590049EE0F8A3E0F9D5
:1032C400E84960030233D57C0E7D007900851882BD
:1032D400851983AA82AB831203E48A088B09AA089E
:1032E400AB09EE240CF582EF3400F583E0F8A3E09B
:1032F400F9E849603B7508067509007808121A62F6
:10330400EE240CF582EF3400F583E02410FCA3E0F6
:103314003400FD7402121843AA82AB831203CC74E6
:103324000212180E8A088B09850882850983805445
:103334008E828F83A3A3A3E0FAA3E0FB120F2A8A51
:103344000C8B0D850C08850D09E50845096032755F
:103354000C06750D00780C121A62E5082405FCE5CC
:10336400093400FD7402121843AA82AB831203CC01
:10337400740212180E8A0C8B0D850C82850D8380C5
:10338400030236778E828F83A3A3A3A3A3E0A2E2D2
:103394005004D2F08002C2F0A2F0E433F879007451
:1033A4000C121843E048F0A3E049F0EEFCEFFD8571
:1033B4001882851983AA82AB831205F4E970127A04
:1033C400027B009003EAE0F9120420E97900023656
:1033D40079900404E0F8A3E0F9E849604390040418
:1033E400E0F8A3E0F5838882A3A3E0F8A3E0F9E87A
:1033F40049602D8E828F83A3E0FC79018E828F83B6
:10340400A3A3A3E0FAA3E0FB900404E0F8A3E0F58F
:10341400838882A3A3E0F8A3E0F583888212184D81
:10342400023677AE0AAF0B900404E0F8A3E0F9E8A3
:10343400496045900404E0F8A3E0F5838882A3A3DF
:10344400E0F8A3E0F9E849602F850A82850B83A39D
:10345400E0FC79028E828F83A3A3A3E0FAA3E0FBAE
:10346400900404E0F8A3E0F5838882A3A3E0F8A322
:10347400E0F583888212184D023677AE0AAF0B7CD2
:10348400007D00EE2404FAEF3400FB8E828F83A3C8
:10349400A3A3E0F91205B8E9F508E508C3940A50B6
:1034A40017EE240AFCEF3400FD7A0475F006E508F3
:1034B400A42425F91207C8E9023677AE0AAF0B90A7
:1034C40003FFE06018900BFEE0F98E828F83A3A3C4
:1034D400A3E0FAA3E0FB120A68E9023677900BFB3B
:1034E400E0701579058E828F83A3A3A3E0FAA3E08D
:1034F400FB120A68E90236778E828F83A3A3A3E0C6
:10350400FAA3E0FB120F2A8A0C8B0D850C08850D9B
:10351400098E828F83A3A3A3A3A3A3A3E0A2E05055
:1035240075E5084509606C850882850983A3A3A312
:10353400A3E060628E828F83A3A3A3A3A3A3A3A308
:10354400A3E0F8A3E0F9E8C4540FF879005401F8B3
:10355400E95400F9E8A2E0403D740E121843AC822D
:10356400AD83E5082405FAE5093400FB8508828566
:103574000983A3A3A3A3E0F91205B8E9701879039A
:103584008E828F83A3A3A3E0FAA3E0FB120A68E967
:10359400023677023677EE2405FCEF3400FD850809
:1035A40082850983A3A3A3A3E0F98E828F83A3A3B7
:1035B400A3E0FAA3E0FB120660900404E0F8A3E0A1
:1035C400F9E849603E900404E0F8A3E0F5838882BA
:1035D400A3A3E0F8A3E0F9E84960287C0079008E11
:1035E400828F83A3A3A3E0FAA3E0FB900404E0F892
:1035F400A3E0F5838882A3A3E0F8A3E0F58388829F
:1036040012184D806E120B34E97068900493E064D4
:1036140001701A12062AE9FE9004937400F07C0AE1
:103624007D0079007A947B041203E4803C7E00EEF2
:10363400C3940A50348E0875090074942508F582E1
:1036440074043509F583E06401701BEEF912063049
:10365400E9F88E0875090074942508F58274043518
:1036640009F5837400F00E80C679501207D4E9FE80
:103674001206187901741412180E7F0602192174A7
:10368400F312184F74F21217F88909EAFEEBFF8C53
:103694000C851882851983AC82AD837A0E75F00689
:1036A400E509A42420F91207CEE970727C0679FF9B
:1036B400851882851983AA82AB83120444E9705E5B
:1036C400740C121843E0F8A3E0F9E8F508E50C607F
:1036D40005EE42088004EEF4520885080A750B00D2
:1036E400740C121843E0650A7004A3E0650B602AA9
:1036F400E508A8087900740C121843E508F0A3E95A
:10370400F0851882851983AC82AD837A0E75F00634
:10371400E509A42420F91207C8E979018002790097
:10372400740E12180E7F0502192174F012184F74CA
:10373400E61217F8890B8A0C8B0DECFEEDFF740C66
:10374400121843AC82AD837A0E75F006E50BA424FF
:1037540020F91207CEE960030238927C0679FF74DF
:103764000C121843AA82AB83120444E960030238A2
:1037740092851882851983AC82AD837A0C74702586
:103784000BF91207CEE9600302388E750A0085181A
:1037940082851983AA82AB831205EEE50C450D7070
:1037A4003A7C0C7900851882851983AA82AB83122E
:1037B4000444E960030238687C0C7D0079008518B4
:1037C40082851983AA82AB831203E48A088B098554
:1037D4000882850983750A0102386885188285196B
:1037E40083AC82AD83AA0CAB0D1205E88A0E8B0F55
:1037F400850E08850F09E50845097036EE4F6021EE
:10380400851882851983AC82AD837A007B0012050A
:10381400E88A0E8B0FA80EA90F88088909E8497059
:10382400047900806B850882850983E50CF0A3E5A3
:103834000DF0850882850983A3A3E0F87900EE687A
:103844007002EF69601EEE850882850983A3A3F0E8
:10385400EE4F700D8508828509837400F0A374000F
:10386400F0750A01E50A6022851882851983AA8207
:10387400AB831205EE851882851983AC82AD837AF9
:103884000C7470250BF91207C8E9790180027900DC
:10389400741A12180E7F0802192174F712184FEACD
:1038A400FEEBFF7B00EBC39404504EEBF87900E889
:1038B40075F003A4C8AAF075F000A42AFA75F00301
:1038C400E9A42AF9EC28F582ED39F583E06E70035A
:1038D400A3E06F7021EBF87900E875F003A4C8AA9F
:1038E400F075F000A42AFA75F003E9A42AF9EC288B
:1038F400FAED39FB80070B80AC7A007B007F010274
:10390400192174F712184F7F00EFC3940440030287
:1039140039B5EFF87900E875F003A4C8ACF075F098
:1039240000A42CFC75F003E9A42CF9EA28F582EB39
:1039340039F583E0F4FCA3E0F4FDEFF87900E875D1
:10394400F003A4C8AEF075F000A42EFE75F003E9F0
:10395400A42EF9EA28F582EB39F583ECF0A3EDF017
:10396400EFF87900E875F003A4C8ACF075F000A492
:103974002CFC75F003E9A42CF9EA28F582EB39F55F
:1039840083A3A3E0F4C0E0EFF87900E875F003A4A2
:10399400C8ACF075F000A42CFC75F003E9A42CF974
:1039A400EA28F582EB39F583A3A3D0E0F00F0239BE
:1039B4000D7F0102192174F012184F74F41217F8D4
:1039C400EAFEEBFF8C088D0990049EE0F8A3E0F971
:1039D400E849702CEE4F6006E50845097005790149
:1039E400023C72EEFAEFFB12060CE9900C01F09027
:1039F4000C01E0C3940A400812061EE9900C01F081
:103A0400900C01E0C3940A4003023C7090049EE0D1
:103A1400F8A3E0F9E8496003023ABCEEFCEFFD7A52
:103A24000E75F006900C01E0A42420F91207C8E9F1
:103A3400F50C7C0C7D0079FF851882851983AA8298
:103A4400AB831203E48A0E8B0F850E0A850F0B8558
:103A54001882851983AC82AD837A0C900C01E02422
:103A640070F91207C8E9F50D750E0E750F00780E82
:103A7400121A62EEFCEFFD900C01E0F87900E87593
:103A8400F00EA4C8AAF075F000A42AFA75F00EE9A5
:103A9400A42AF9740628FA740439FB1203CC7402BC
:103AA40012180E8A0E8B0FA80EA90F90049EE5081B
:103AB400F0A3E509F0023C6C90049EE0F8A3E0C892
:103AC4002406F582E83400F583E0F8A3E0F9E84938
:103AD400604390049EE0F8A3E0C82406F582E8342D
:103AE40000F583E0FCA3E0FD7A1B75F006900C0161
:103AF400E0A42421F91207C8E9F890049EE0F9A390
:103B0400E0C92406F582E93400F5837400F0A37457
:103B140000F0023C6C90049EE0F8A3E0C8240AF58F
:103B240082E83400F583E0F8A3E0F9E849604390C3
:103B3400049EE0F8A3E0C8240AF582E83400F58383
:103B4400E0FCA3E0FD7A1B75F006900C01E0A424D0
:103B540022F91207C8E9F890049EE0F9A3E0C92409
:103B64000AF582E93400F5837400F0A37400F002CE
:103B74003C6C90049EE0F8A3E0C8240CF582E83481
:103B840000F583E0F8A3E0F9E849604390049EE07F
:103B9400F8A3E0C8240CF582E83400F583E0FCA324
:103BA400E0FD7A1075F006900C01E0A42423F912CC
:103BB40007C8E9F890049EE0F9A3E0C9240CF58253
:103BC400E93400F5837400F0A37400F0023C6C90B7
:103BD400049EE0F8A3E0C82408F582E83400F583E5
:103BE400E0F8A3E0F9E849606F90049EE0F8A3E0F0
:103BF400C82408F582E83400F583E0FCA3E0FD7AEC
:103C04001075F006900C01E0A42424F91207C8E909
:103C1400F50A90049EE0F8A3E0C82408F582E8348D
:103C240000F583E02410FCA3E03400FD7A0475F071
:103C340006900C01E0A42425F91207C8E9F89004C1
:103C44009EE0F9A3E0C92408F582E93400F5837401
:103C540000F0A37400F08010900492E06003120658
:103C64007212065A79018006790080027901740C77
:103C740012180E7F0802192174F712184F74F212E9
:103C840017F8E9FE851882851983AC82AD837A0E14
:103C940075F006A42420F91207CEE9700E740C12F4
:103CA4001843E0F8A3E0F9E8F980027900740E12F1
:103CB400180E7F0102192174F412184F74F21217AE
:103CC400F88909EAFEEBFFE509C3940A5004EE4FB4
:103CD40070047902804B851882851983AC82AD8388
:103CE4007A0E75F006E509A42420F91207CEE9F549
:103CF40008E508702A750A06750B00780A121A621C
:103D04007402121843AC82AD83EEFAEFFB1203CCBB
:103D1400740212180E8A0A8B0B850A82850B83A9FA
:103D240008740E12180E7F0402192174F412184F2D
:103D3400EAFEEBFF750800E508C3940A5045750ACE
:103D440006750B00780A121A62EEFCEFFDE508A86E
:103D5400087900E875F00EA4C8AAF075F000A42A4A
:103D6400FA75F00EE9A42AF9740C28FA740439FBE4
:103D74001203DE740212180EE96004A90880060515
:103D84000880B4790A7F0402192174F412184FEAE6
:103D9400FEEBFF750800E508C3940A5045750A0652
:103DA400750B00780A121A62EEFCEFFDE508A8080C
:103DB4007900E875F00EA4C8AAF075F000A42AFAF8
:103DC40075F00EE9A42AF9740628FA740439FB1272
:103DD40003DE740212180EE96004A90880060508BF
:103DE40080B4790A7F0402192174F712184F74F011
:103DF4001217F8EAFEEBFF750800E508C3940A50B1
:103E04004B851882851983AC82AD837A1075F006D0
:103E1400E508A42423F91207CEE9702C7C1079FF5D
:103E2400851882851983AA82AB83120444E9701829
:103E3400EEFCEFFD851882851983AA82AB83120AF2
:103E44003EE97004A9088006050880AE790A74105A
:103E540012180E7F0102192174F412184F7508000C
:103E6400E508C3940A4003023F3EE508A808790028
:103E7400E875F00EA4C8AAF075F000A42AFA75F04B
:103E84000EE9A42AF9740628FC740439FD7A0E7527
:103E9400F006E508A42420F91207CEE97003023FD6
:103EA400397C067D0079FFE508AA087B00EA75F0F5
:103EB4000EA4CAA8F075F000A428F875F00EEBA4BF
:103EC40028FB74062AFA74043BFB1203E48A0A8B67
:103ED4000BAE0AAF0B7C067D0079FFE508AA087BD0
:103EE40000EA75F00EA4CAA8F075F000A428F875CD
:103EF400F00EEBA428FB740C2AFA74043BFB1203A7
:103F0400E48A0A8B0BAC0AAD0BE508A8087900E833
:103F140075F00EA4C8AAF075F000A42AFA75F00E84
:103F2400E9A42AF9741228F582740439F58374001B
:103F3400F0A37400F00508023E64900492E060036C
:103F440012067212065A7F0402192174F712184FCE
:103F54007E00EEC3940A50327C0679FFEEFA7B00B1
:103F6400EA75F00EA4CAA8F075F000A428F875F05C
:103F74000EEBA428FB74062AFA74043BFB120444D7
:103F8400E96004EEF980050E80C8790A7F01021900
:103F94002174F712184F7E007F00EFC3940A502F4C
:103FA4007C0679FFEFFA7B00EA75F00EA4CAA8F04C
:103FB40075F000A428F875F00EEBA428FB74062A0B
:103FC400FA74043BFB120444E970010E0F80CBEE3B
:103FD400F97F0102192174F712184F7E007F00EF58
:103FE400C3940A500DEE700AEFF9120630E9FE0F81
:103FF40080EDEEF97F0102192174F012184F74CB91
:104004001217F88909900C01E06509701D7A017B8B
:10401400009003EAE0F9120426E97A027B00900397
:10402400EAE0F9120426E912067E7427121843AC5A
:1040340082AD837A0E75F006E509A42420F91207EF
:10404400CEE960030241697C0679FF7427121843A4
:10405400AA82AB83120444E960030241697C0E7DA9
:104064000079FF7427121843AA82AB831203E48AEF
:104074000A8B0B850A0C850B0D7C1B7D0079FF7464
:104084000C121843AA82AB831203E48A0E8B0F85A9
:104094000E0A850F0B7C0C7D0079FF85188285192B
:1040A40083AA82AB831203E48A0E8B0FAE0EAF0F8A
:1040B4007427121843AC82AD837A0E75F006E509B5
:1040C400A42420F91207C8E9F508740C121843ACAB
:1040D40082AD837A1B75F006E509A42421F9120741
:1040E400C8E94208740C121843AC82AD837A1B757C
:1040F400F006E509A42422F91207C8E94208740C61
:10410400121843AC82AD837A1075F006E509A42435
:1041140023F91207C8E94208740C121843AC82ADA3
:10412400837A1075F006E509A42424F91207C8E976
:104134004208740C121843AC82AD837A0475F006FD
:10414400E509A42425F91207C8E9420885188285DF
:104154001983AC82AD837A0C74702509F91207C8EF
:10416400E942088003750800A908743512180E7F07
:104174000802192174F712184FE9FE9003EAF012AD
:1041840006187F0102192174F212184F890AEAFEF7
:10419400EBFFEE5400F8EF5480F9E84960359003E2
:1041A400EAE0F91204088A0C8B0DA80CA90D880802
:1041B4008909E8496012AA08AB09120642E96008B5
:1041C400AA08AB091203F6E9EE6400FAEF6480FB77
:1041D40002428FEE5402602D7C007D007A007B0049
:1041E4001205F4E960187A017B009003EAE0F91201
:1041F4000420E9EE6402FAEF6400FB02428F7A02C3
:104204007B0002428FEEA2E0507D90049EE0F8A372
:10421400E0F5838882A3A3A3E0FAA3E0FB12067867
:10422400E9605E900404E0F8A3E0F9E84960459091
:104234000404E0F8A3E0F5838882A3A3E0F8A3E0F4
:10424400F9E849602F7C00790190049EE0F8A3E02E
:10425400F5838882A3A3A3E0FAA3E0FB900404E01F
:10426400F8A3E0F5838882A3A3E0F8A3E0F58388AC
:104274008212184D12067EEE6401FAEF6400FB8090
:104284000A7A017B0080047A007B007F06021921F0
:1042940074F712184FEAFEEBFF7508018E828F83C4
:1042A400E02450601314601924E1701CEEFAEFFB53
:1042B4001205D6E9F5088010EEFAEFFB12064880E5
:1042C40007EEFAEFFB12064EA9087F0102192174CA
:1042D400F712184FEAFEEBFF8E828F83A3A3A3A3EA
:1042E400E0641E701179008E828F83A3A3E0FAA389
:1042F400E0FB1205BEE97F0102192174F612184F82
:10430400EAFEEBFF8E828F83A3A3A3A3E0703A8E11
:10431400088F09850882850983A3A3A3A3A3A3A364
:10432400121A79850882850983A3A3A3A3A3E0FCB9
:10433400A3E0FD850882850983A3A3E0FAA3E0FB3B
:104344001205C4740212180EE97F0202192174F7CF
:1043540012184FEAFEEBFF9003EAE0F98E828F8396
:10436400A3E0FAA3E0FB120D56E97F01021921C074
:1043740082C08374FF1217F8120624E9C394024022
:104384000B8518828519837402F08009851882854B
:104394001983740AF0851882851983AC82AD837AF7
:1043A400017905120B4CE9740112180ED083D082E6
:1043B40002013574F212184F74E81217F8EAFEEB92
:1043C400FF890A8C088D097C187D00790085188284
:1043D400851983AA82AB831203E48A0C8B0DAC0C7F
:1043E400AD0D851882851983EEF0A3EFF09003ECF0
:1043F400E0C0E07402121843D0E0F09003EDE0C096
:10440400E07403121843D0E0F0900C00E0C0E074B4
:1044140017121843D0E0F07415121843E054FEF854
:10442400A3E054FFF9900BFFE0A2E0E433FA7B0031
:10443400E84AF8E94BF97415121843E8F0A3E9F0D7
:10444400900BFFE0A2E15004D2F08002C2F0741598
:10445400121843E054FDFAA3E054FFFBA2F0E43346
:10446400F87900C333F8E933F9EA48F8EB49F97409
:1044740015121843E8F0A3E9F0900BFFE0A2E35013
:1044840004D2F08002C2F07415121843E054F7FA13
:10449400A3E054FFFBA2F0E433F50C750D007403A4
:1044A400780C1217E5EA450CF8EB450DF974151272
:1044B4001843E8F0A3E9F0900BFFE0A2E45004D223
:1044C400F08002C2F07415121843E054EFFAA3E02E
:1044D40054FFFBA2F0E433F50C750D007404780C62
:1044E4001217E5EA450CF8EB450DF974151218435B
:1044F400E8F0A3E9F0900BFFE0A2E55004D2F080CD
:1045040002C2F07415121843E054DFFAA3E054FF1A
:10451400FBA2F0E433F50C750D007405780C12174A
:10452400E5EA450CF8EB450DF97415121843E8F06B
:10453400A3E9F0900BFFE0A2E25004D2F08002C2A3
:10454400F07415121843E054FBFAA3E054FFFBA2E5
:10455400F0E433F50C750D007402780C1217E5EADB
:10456400450CF8EB450DF97415121843E8F0A3E96E
:10457400F09003EDE0602A750C10750D00780C12B4
:104584001A627CEE7D037406121843AA82AB83126E
:1045940003CC740212180E8A0C8B0D850C82850DC7
:1045A400839003FEE06012E50A600E74151218434E
:1045B400E04402F0A3E04400F09003FEE0600678DB
:1045C4000179008004780079007414121843E048DB
:1045D400F09003EBE06006780479008004780079B9
:1045E400007414121843E048F0AC08AD0985188231
:1045F400851983AA82AB83120A62E9741812180E11
:104604007F0602192174F712184FEAFEEBFF7508B2
:10461400009003FEE0600678017900800478007958
:1046240000E842089003EBE0600678047900800417
:1046340078007900E84208A908EEFAEFFB120B1C97
:10464400E97F0102192174EE12184F74E51217F86C
:104654008A0C8B0DE9FF8C088D09742D121843E028
:10466400F50A74086509700A75F006EFA42422FEA1
:10467400800875F006EFA42421FE7C1B7D007900E0
:10468400851882851983AA82AB831203E48A108B6E
:104694001185100E85110F851882851983AC82ADA2
:1046A400837A1BEEF91207CEE9703C741A12184390
:1046B400E0C394074031741A121843E0C3941150B4
:1046C40026E50AF50B780B121A667401121843AC2E
:1046D40082AD83E508A2E0E433F9AA0CAB0D120A1B
:1046E40074740112180EE9741B12180E7F0A021951
:1046F4002174F712184F120DC8E97E00EEC3940A14
:1047040050557C0679FFEEFA7B00EA75F00EA4CAD8
:10471400A8F075F000A428F875F00EEBA428FB743B
:10472400062AFA74043BFB120444E97027EEF87974
:1047340000E875F00EA4C8AAF075F000A42AFA7572
:10474400F00EE9A42AF9740628FA740439FB7900F6
:10475400120DCEE90E80A57F0102192174F61218FC
:104764004F74FD1217F8EAFEEBFF9004A0E0F8A3E3
:10477400E0F9E84970397508A27509047808121A35
:10478400627508027509007808121A627508DA75EC
:1047940009817808121A627CFF7DFF7A017B00127E
:1047A4000C1E740612180E9004A0EAF0A3EBF0900D
:1047B40004A0E0F8A3E0F9E8497003024881E4F5B5
:1047C40008F5097808121A627404121843858208DD
:1047D4008583097808121A627404121843858208C2
:1047E4008583097808121A629004A2121A79790250
:1047F4009004A0E0FCA3E0FDEEFAEFFB120D44747C
:104804000812180EE9704A851882851983E0FA7B2C
:10481400007401121843E0F87900E4C8F9EA28F5B5
:1048240008EB39F509E508450960267808121A628B
:104834009004A0E0F8A3E0F5838882A3A3A3A3E0F7
:10484400FCA3E0FDEEFAEFFB1205C4740212180E8D
:10485400E9E4F508F5097808121A629004A2121A1C
:10486400797CFF7DFF9004A0E0FAA3E0FB120C2A00
:10487400740412180E9004A0EAF0A3EBF09004A0C4
:10488400E0F8A3E0F9E84970047901800279007442
:104894000312180E7F02021921C082C08390049E65
:1048A400E0F8A3E0F9E849601790049EE0FAA3E079
:1048B400FB1203F6E9F890049E7400F0A37400F070
:1048C400900C01740AF0D083D082020135C082C0FA
:1048D40083E9900CEFF0024AFB74F712184FE99049
:1048E400065AF07C927D067AFF7BFF120D5C9006DF
:1048F4005B74FFF0A3F0A3E4F0A3F07905120CEAD3
:1049040090065AE0F9120C067A747B0D120F187F88
:104914000102192174F412184F8A088B09EB548090
:10492400603090065AE0F91204088A0A8B0BAE0A2A
:10493400AF0BEE4F60138E828F83E064B07003126E
:104944000CFCEEFAEFFB1203F6AA08E5096480FBFF
:1049540080047A007B00024ACA74F212184F74FC75
:104964001217F8EAFEEBFFEE4F6038740212184398
:10497400EEF0A3EF124D2FECF0A3ED124D2FAA820F
:10498400AB83120C00E9F508707374121218431209
:1049940058E3E50A450B60658E828F83124A0BEE5D
:1049A4004F700575080280557A067B001204868ACA
:1049B4000C8B0DA80CA90DE8497005750813803DF2
:1049C40088828983E4124A15A3A3EEF0A3EF125D53
:1049D4007CE50AF0A3E50BF0900660124A9D900670
:1049E400606017E0FCA3E08003EAFCEBFD8C828DA1
:1049F40083124A9D70F38C828D83125808A908741F
:104A04000412180E025F7EA3A3A3A3E0FEA3E0FF9B
:104A140022F0A3F0888289832274F212184F890A43
:104A2400E975F017A4FEAFF090065FE4F090065D20
:104A3400124A9D600A12048C90065DE4F0A3F0EE25
:104A4400FAEFFB1204868A088B09EA4509602FEE07
:104A5400FCEFFD79001203E490065DE508F0A3E5A0
:104A640009F07B008008124A87E4F0A3F00BEBC343
:104A7400950A40F2E50A90065FF079008002791306
:104A8400025F7EEB75F017A4F8A9F090065DE028AC
:104A9400FAA3E0398A82F5832212559EEA4B2274E6
:104AA400F412184F7900EAA2E0501B7508617509E9
:104AB400817808121A627C047D007AF17B0C120C56
:104AC400E4740212180E7F04021921C082C083907C
:104AD4000660124B02601C88828983A3A3E06A707B
:104AE40003A3E06B8882898370E8A3A3A3A3125570
:104AF4009A80047A007B00D083D082020135126050
:104B040051E8492274EE12184F74FC1217F8EAFEA9
:104B1400EBFF851882851983E4F0A3F0EE240212DA
:104B240057ECEE2405124D1DEE2404F50EEF125140
:104B340002E024FE603924FC604624FE605224FE18
:104B4400605E24FE7003024C2224FE7003024C9A21
:104B540024FE7003024CA924FE7003024CB824FC0A
:104B64007003024CC724FE7003024CD6024D13900E
:104B740006797417F0A3E4124D3712088E024D1310
:104B8400851882851983AC82AD83120D02024CE331
:104B9400851882851983AC82AD83120D08024CE31B
:104BA400850C08850D097402121843AC82AD838507
:104BB400088285098312559A120C248A0C8B0DAC39
:104BC4000CAD0DEC4D6042E4F50CF50D780C121AA9
:104BD40062750C79750D06780C121A62750C7A756B
:104BE4000D06780C121A627408121843121A797995
:104BF40016125594120D44740812180EE9F50C702F
:104C04000B1255901208A6800F750C018508828539
:104C14000983124D25125808850C08024CE67402CB
:104C2400121843AC82AD83850C82850D8312559A8C
:104C3400120C248A108B11AC10AD11EC4D6043851D
:104C44000C82850D83A3A3121A7975107975110648
:104C54007810121A6275107A7511067810121A6299
:104C64007408121843121A797916125594120D44C5
:104C7400740812180EE9F509700B1255901208AC5D
:104C8400800F750901850C82850D83124D251258FC
:104C940008850908804C851882851983AC82AD8308
:104CA400120D0E803A851882851983AC82AD831269
:104CB4000D14802B851882851983AC82AD83120D67
:104CC4001A801C851882851983AC82AD83120D204D
:104CD400800D851882851983AC82AD83120D26E977
:104CE400F508E50860298E828F83A3E06414601FB1
:104CF400850E82850F83E0900679124D2F12604D48
:104D040090067A125808E508A3124D37120888EE67
:104D1400FAEFFB120CA80256F4F50CEF3400F50D73
:104D24002212605185188285198322F085188285A4
:104D3400198322F07C797D06850A82850B831255BE
:104D44009E2274EE12184F74FC1217F88A0A8B0B09
:104D54008C0E8D0FEA2405F508EB3400F5097C155B
:104D64007D0079007A797B061203E4E5082402F5D4
:104D74000CE509124D2085188285198385821085DA
:104D840083117810121A62850882850983A3A3A36C
:104D9400A312524A121A62E5082405F510E50934F3
:104DA40000F5117810121A62850C82850D83125554
:104DB400A4120C1E740612180E8A108B11AE10AFBA
:104DC40011E50A2402F50AE50B1257EFEE4F7003C2
:104DD400024F0C8017740212184312559A88828964
:104DE40083EAF0A3EBF0900679E004F0900679E012
:104DF400C394054003024F0CE4F510F5117810122A
:104E04001A627510627511067810121A62751063B1
:104E14007511067810121A627406121843121A7960
:104E24007910EEFCEFFD125594120D44740812181B
:104E34000EE9705E850882850983A3A3A3A3A3A3B7
:104E4400A3E0F8900662E068704812524A121A62AF
:104E54007C637D06E5082408FAE5093400FB1203A7
:104E6400DE740212180EE960298E828F83A3A3A335
:104E7400A312559A900679E0F5107402781012176F
:104E8400E5747A2510F58274063511F583EAF0A3EA
:104E9400EBF0740212184385821085831178101286
:104EA4001A627402121843121A79850C82850D83D2
:104EB400126062120C2A740412180E8A108B11AE3E
:104EC40010AF11900679E0F5107511007402781096
:104ED4001217E574792510F874063511F98882895A
:104EE40083A3124A9D7003024DD0E82403F8E934E9
:104EF40000F9EE4F6003024DD98882898374FFF074
:104F0400A3F0900679E004F0900679E0600A125567
:104F14009012089A7900800B8508828509831257BC
:104F2400FF790A0256F474EA12184F74FE1217F845
:104F34008C128D13EA2405F50CEB12606C124A0FE7
:104F4400750800750900EA2402F510EB3400F51128
:104F540085188285198385820A85830B780A121A3B
:104F640062850C82850D83A3A3A3A312510C121A8C
:104F740062E50C2405F50AE50D1257EF780A121ABA
:104F840062850C82850D83126060120C1E740612F9
:104F9400180E8A0A8B0BEA450B70030250BDEA24F3
:104FA40004F50EEB125102124A0F8A828B83A3A3DB
:104FB400A3E0F985108285118312559A120C0CE92D
:104FC400F50960030250BDE4F514F5157814121ABE
:104FD400627514627515067814121A627514637575
:104FE40015067814121A627406121843121A797983
:104FF40013AC0AAD0B85108285118312559A120DDC
:1050040044740812180EE9F50960030250BD9006B5
:1050140062E0F8E5087009E0240290067AF080174F
:1050240090067AE0FCE82402FAE43400FBEA6C70AF
:1050340001EB60030250C1850882AA821252419496
:10504400141252395073850E82850F83E0C0E074C8
:105054007B2A1250F9D0E0F00508850E82850F8373
:10506400A3E0C0E085080A747B250A1250F9D0E059
:10507400F0050890066212510C121A627C637D06D8
:1050840085080A747B250AFA74063400FB1203CCE3
:10509400740212180E900662E02508F50874FF6E7B
:1050A400700374FF6F6012EE24010EEF3400FFE50D
:1050B40008C394145003024F54E508601312548536
:1050C40085108285118312559A1208A079008014E4
:1050D400E509700375090A851282851383EEF0A32E
:1050E400EFF0A909740212180E7F0E021921850827
:1050F4000C747B250CF58274063400F5832234008D
:10510400F50F850E82F58322125D8F2274EE12183C
:105114004F74FE1217F88C0E8D0FEA2405F50CEB74
:10512400124D20750B00900679E4F0F50AEA24028A
:10513400F508EB3400F5098049900679E0FA900609
:1051440062E0F81252419417125239400D900679D8
:10515400E0F87416C398900662F012524A121A626A
:105164007C637D06747A2AFA74063400FB1203CC3D
:10517400740212180E900662E0F8900679E028F0A6
:10518400050AE50C2416F582E50D1250FDE0F8E55C
:105194000AC3984003025222900679E0C394165041
:1051A4007DE50AC333F8E433F9E50C28FEE50D394F
:1051B400FF851882851983AC82AD838E828F83121A
:1051C400559A120C248A108B11AC10AD11EC4D7051
:1051D40005750B018043E4F510F5117810121A627D
:1051E4007510627511067810121A627510637511C4
:1051F400067810121A627406121843121A79791674
:1052040085088285098312559A120D447408121870
:105214000EE9F50B700302513D1257FB80107C79A7
:105224007D0685088285098312559A1208B2A90B56
:1052340074020256F6E99400C365D03322EA28F8D2
:10524400E43400F9E822E0F51075110078102274B6
:10525400EA12184F74FC1217F88A0C8B0D8C128DFD
:1052640013EA2405F50AEB1257EF750800750900D7
:10527400E50A2402F510E50B3400F5117402121846
:105284004385820E85830F780E121A62850A828501
:105294000B83A3A3A3A3125D3B121A62E50A2405A0
:1052A400F50EE50B3400F50F780E121A62851082A4
:1052B4008511831257F5125594120C1E7406121898
:1052C4000E8A0E8B0FAE0EAF0FE50C2402F50EE521
:1052D4000D3400F50F80408882898374FFF005083F
:1052E4001250F274FFF00508900662E0F50C750D9B
:1052F40000780C121A627C637D0685080C747B2589
:105304000CFA74063400FB1203CC740212180E90CB
:105314000662E02508F508EE4F60718E828F83A344
:10532400A3A3E0F9850E82850F8312559A120C0C03
:10533400E9F509EE2404124D1DE97044E4F514F571
:10534400157814121A627514627515067814121AF7
:10535400627514637515067814121A6274081218AB
:1053640043121A797911EEFCEFFD850E82850F83C5
:1053740012559A120D44740812180EE9F5096027A3
:10538400850C82850D8312547B125808E50870033E
:10539400025461125485850E82850F8312559A1228
:1053A40008B87900025476850882AA82EA900662D7
:1053B4007009E0240490067AF08022E0F890067ADE
:1053C400E0F514E82404FCE43400FDEC65147001F9
:1053D400ED70C0125241941212523950B6850C82AB
:1053E400850D83E0C0E0747B2A1250F9D0E0F0050B
:1053F40008850C82850D83A3E0C0E01250F2D0E052
:1054040012549785820C85830D780C121A627404E9
:10541400121843121A798510828511831260621260
:105424000C2A740412180E8A0C8B0DAE0CAF0D8569
:10543400080C747B250CF874063400F9EE4F7003E5
:105444000252DB851882851983E08882898312548D
:1054540097A3E0C0E01250F2D0E00252E9E50970EF
:105464000375090A850A82850B8312547B12580836
:10547400A90974040250EA126051851282851383CB
:105484002290067AE0F5F0E50884900679F07C79BC
:105494007D0622F005088518828519832274EC1292
:1054A400184F74FE1217F88A088B098C0E8D0FEAB8
:1054B4002405FEEB3400FF851882851983AC82AD88
:1054C400838E828F8312559A120C248A0A8B0BEED8
:1054D4002418124D1DEA450B700302556B1256DD5C
:1054E400503285188285198312559A120D388A1004
:1054F4008B11EA4511606B7912AC0AAD0B850882F9
:1055040085098312559A85108285118312184DE9F5
:10551400F50A7058E4F50AF50B780A121A628E82BD
:105524008F83A3A3E0F50A780A121A62EE24031209
:1055340057EC780A121A628E828F831255A4120DC8
:105544004A740612180EE9F50A7021850C82850D3D
:1055540083E0701F85088285098312559A1208BE5C
:105564008011750A0E8009750A018004E50A60033A
:105574001257FB850C82850D83E06004790080025C
:10558400A90A740212180E7F0C0219217C797D0677
:10559400850A82850B8312559E22E0FAA3E0FB2242
:1055A400E0FCA3E0FD85088285098312559E2274E0
:1055B400EE12184F74FE1217F88A088B098C0C8DA2
:1055C4000DEA2405FEEB3400FF750E008518828574
:1055D4001983AC82AD838E828F8312559A120C2468
:1055E4008A0A8B0BEA450B70030256C91256DD502A
:1055F4003585188285198312559A120D388A0E8BB7
:105604000FEA450F605E7912AC0AAD0B85088285FE
:10561400098312559A850E82850F8312184DE9F578
:105624000E60030256CC8508828509831258E3AACA
:105634000AFB120D2C8A108B11A810A911E84970CD
:105644001E7AFF7BFF120D2C8A108B11A810A91152
:10565400E849606C88828983E50AF0A3E50BF0755C
:105664000A008007750E0E805F050A90065FE0FA57
:10567400E50AC39A504AE50A75F017A4FAABF08814
:10568400828983A3A3E02AFAA3E03BFB8A828B836B
:105694001257F5EC4D70D2750A17750B00780A1283
:1056A4001A62EEFCEFFD1203CC740212180EEEFC2B
:1056B400EFFD85088285098312559A1208C4801467
:1056C400750E098003750E01126049850C82850DE3
:1056D40083125808A90E025234E5082402F508E59D
:1056E400093400F5098A828B83A3A3A3E0A2E522EF
:1056F400740412180E7F0A02192174EC12184F8CCC
:10570400108D11EA2405F50CEB124D20750F00EAFB
:105714002402F50AEB1257EF850A82F58312559A93
:10572400120D2C8A088B09EA450970030257E175AA
:105734000E008071850C82850D83E06401704F8EAC
:10574400828F83A3A3121A798E828F83A3A3A3A328
:10575400E0F5127513007812121A62EE2405F512A0
:10576400EF3400F5137812121A62125594120D4A8E
:10577400740612180EE9F50F6014850C82850D83EA
:10578400E4F01260498510828511831258087C1751
:105794007D007900EEFAEFFB1203E48E828F83E43E
:1057A400F0A3F0050E90065FE0F8E50EC398501ED6
:1057B400E50E75F017A4F8A9F0850882850983A37E
:1057C400A31260761257F5EC4D6003025738850832
:1057D4008285098374FFF0A3F0E50F7006125594D7
:1057E4001208CAA90F02558BF50AEF3400F50B22F3
:1057F400A3E0FCA3E0FD228E828F83126051850E0C
:1058040082850F83E8F0A3E9F022C082C08390066A
:105814005BE06A7003A3E06B70067A5B7B0680042E
:105824007A007B00024AFBC082C08378008C828DA0
:1058340083E06A7003A3E06B7010E875F003A4F8CA
:10584400A9F0EC28FAED39FB8015088C828D83A32E
:10585400A3A3E06A7003A3E06B60DF7A007B00021D
:105864004AFB74F612184F120CF68A828B83E58277
:10587400458370067A007B008007A3A3A3A3125577
:105884009A025EFA74F212184FE9FE740E1218436B
:105894001258E37410121843125D5B8C828D83E0FE
:1058A40064027036A3126057F50CA3E0F9A80C74D7
:1058B400026870037429697021750C02750D0078F3
:1058C4000C121A627808121A62780A121A62EEF935
:1058D400120D6E740612180E80027901025F7EE0CA
:1058E400F50AA3E0F50B2274E812184F74FB1217A3
:1058F400F8E9851882851983F08A168B17ECFEED7A
:10590400FF751000741D12184312604D741D121897
:10591400431258088E828F83A3A3A3E0A2E4502DE0
:10592400741D12184312559A120D388A828B83E51E
:105934008245837003025D2C790AEEFCEFFDAA1602
:10594400AB1712184DE9F5106003025D2F741F1296
:105954001843125D5B74211218431258E374231226
:105964001843E0F50EA3E0F50F8E828F83E0640206
:105974006003025CDAA312604D850882850983A363
:10598400858212858313EE2406124D1D8882898335
:10599400E0FAA3E0F9EA2400F514E439F5157814E3
:1059A400121AEC010000280128CF5907000228949C
:1059B4005A0328015A0029CB5B0129F65B02299777
:1059C4005B0329CB5B0429755CDA5CE50E450F604B
:1059D40003025CD5850C82850D83125D50FAE9FBC8
:1059E4008A828B83E0850A82850B83125D86121A74
:1059F400628A828B83A3E0FCA3E0025C5FE50E4530
:105A04000F6003025CD5850A82850B837401F01252
:105A14005D63850882850983F07C007D008E828F1A
:105A240083A3A3A3A3E02401FAA3E03400FB120C94
:105A340024EA4B60418A828B83E02402F8850A823F
:105A4400850B83E028F0EA2404F8EB3400F988821B
:105A54008983E0851282851383125D98125D861214
:105A64001A628A828B831257F4E5082403FAE50943
:105A74003400FB025C64850A82850B83E02404F015
:105A84007C047D007900AA12AB131203E4025D2F9B
:105A9400E50E450F6003025CD5125D63FEA3E0FFD3
:105AA400850A82850B837404F0EE85088285098358
:105AB400F0EF851282851383F07403121843AC82CD
:105AC400AD83EEFAEFFB120C248A0C8B0DEA450D24
:105AD4007003025B788A828B83A3A3124A0B74013E
:105AE40012184385820E85830F780E121A6274058C
:105AF400121843121A797CFF7DFF120C2A740412C7
:105B0400180E8B0FEA450F7033850C82850D8312B6
:105B14005D3B121A62850C82850D83A3121A797C6F
:105B2400027D007AE07B811209C6740412180EE922
:105B3400700A740112184374FFF0A3F08E828F83ED
