:020000040000FA
:0600000002011D0223179E
:03002B00021BD6DF
:0300530002238AFB
:03006B00021BA2D3
:10008300022183E5C754F84401F5C7790122000032
:100093000080FB120086B90003020107E47921788E
:1000A30008B800028004F709D8FCE479297802B87B
:1000B30000028004F709D8FCE490028178397909B9
:1000C3008002F0A3D8FCD9FA781A90014D7A01BACC
:1000D30000028007E493A3F608DAF9900AB9AA822A
:1000E300AB8390014E787979038015E493A3AC82B6
:1000F300AD838A828B83F0A3AA82AB838C828D83A8
:10010300D8E9D9E775829B7583FF740112012F75B6
:100113008291758300740012012F75D00075813FA1
:10012300751881751902759F00020096C09FF59F8F
:10013300E473D09F22D083D082C09FE493C0E07445
:100143000193C0E0740293F59F2201FFFF1209425D
:100153006C6F6F6450726573737572652053656E4F
:10016300736F720512C8004006020A0002010503FC
:10017300021018426C6F6F64507265737375726509
:100183002053656E736F720F0F0F0F0F0E780050B1
:10019300005A003C00014005000020100202F781D4
:1001A300010000B78102C781010000080B02F3813F
:1001B300000000D80302C581030000D20302C781F7
:1001C300010000090B02F181000000D90302C5817F
:1001D300030000DA0302C7810100000A0B02EF816A
:1001E300010000E003020202020202020202010D08
:1001F300000000100102F781010000C08102C781E5
:10020300010000530B02E781010000E20302C781F2
:10021300010000540B02E381010000158102C78134
:10022300010000550B02E181010000F98002C78142
:10023300010000560B02DF81010000A58002C78187
:10024300010000570B02D981010000B78002C7816A
:10025300010000580B02D781010000818002C78191
:10026300010000590B02D581010000938002C78170
:100273000100005A0B02EB81010000078102C781D4
:100283000100005B0B02D1810100005C0B01E8035C
:10029300053F100AFF00013075030201060000004C
:1002A300000000000000000000000000000000004B
:1002B300000000000000000000FFFF0600800CE8C3
:1002C30003FF0000B4000028002800283075A000B8
:1002D300A000A000A00000080008E001F00010004A
:1002E30010001000100010001000500050005000CB
:1002F30010001000D0070000000000000F000100F4
:100303000500307507001000010081FF00000000A8
:10031300FFE00AFE0AE60AFF02020208025000A0FA
:10032300000000E80302F781010000BA8102C781DF
:10033300010000860C02ED81010000EA0502C7817D
:10034300010000870C02E581010000000602C7815D
:10035300010000880C02D381010000020602C7815C
:10036300010000890C02CF81080000030602C78147
:100373000100008A0C022A810100008B0CFFFF019F
:1003830000FF2002F781010000BD8102C781010047
:1003930000F00C02C381000000000002C5810300CD
:1003A30000920634113411341134113411341134E0
:1003B30011341134113411341134113411C813E0D0
:1003C30013C213120138008003120138158003127F
:1003D30001386D8003120138D480031201381C8167
:1003E30003120138928103120138C18103120138CB
:1003F300CF81031201383382031201387182031251
:1004030001388C8203120138248303120138CD830F
:10041300031201385084031201388984031201380E
:100423001485031201386B8503120138CA85031240
:100433000138DC85031201380286031201380B866A
:10044300031201386A87031201389AF10312013843
:100453003E96031201381D97031201387997031250
:100463000138939703120138A497031201389F9A16
:1004730003120138BF9A031201380ADF031201384D
:100483004FDF0312013895DF0312013828E103120D
:10049300013821F0031201383CF0031201384CF00B
:1004A30003120138A3F0031201386D7900120138E9
:1004B3008D7900120138917A00120138DD7A001229
:1004C3000138FD7A00120138507B00120138BD7BE0
:1004D30000120138037C00120138677C00120138D6
:1004E300197F001201389A7F00120138DDEA0312E6
:1004F30001380DEB031201383DEB031201385DEBBC
:1005030003120138B7EB0312013848D30212013842
:100513006CD502120138DAD60212013812D7021250
:100523000138B7D702120138F5D90212013876DA49
:1005330002120138DADA0212013877DB02120138CB
:10054300F6DB02120138F2DC0212013810DD02126E
:100553000138BBDD02120138ECDD0212013808DF7D
:1005630002120138CADF02120138B7C90312013877
:1005730015CA0312013828CA0312013831CA0312FB
:10058300013890CA03120138E1CA031201389DCB26
:100593000312013821CD031201381DB003120138B3
:1005A30042B0031201383DF203120138502A0012FF
:1005B30001385E2D001201381E2F00120138C92F99
:1005C300001201386D300012013806310012013873
:1005D300353100120138A131001201387B36001287
:1005E3000138263700120138963800120138FE38D8
:1005F30000120138B23900120138743C001201387C
:10060300B33C00120138273D00120138863D001229
:100613000138E53D00120138543E00120138473FCE
:10062300001201388D3F00120138D23F0012013809
:10063300F53F001201387041001201388341001266
:1006430001388C4200120138CB4200120138F742C4
:10065300001201384A43001201386B43001201387B
:10066300AF4300120138014600120138424600121E
:100673000138ED46001201385847001201389548F9
:1006830000120138E9F30312013861DC0312013867
:10069300FCDE03120138CEF3031201381FEC031200
:1006A30001382FEC0312013849EC0312013851EDE4
:1006B30003120138FBD303120138A1D4031201380A
:1006C300BDD6031201388AE903120138BCE90312CB
:1006D30001381CEA0312013833EA031201388FEAA6
:1006E30003120138CCEA03120138CFEA03120138AE
:1006F30097A103120138B6A1031201384BA20312CA
:1007030001383BA30312013898A503120138F8A559
:100713000312013861A603120138F87F0012013871
:10072300B4D903120138ABDB0312013817DC03120F
:1007330001385EDC03120138FCFD0212013865FE4C
:100743000212013823FF02120138A2FF02120138FC
:1007530007C20312013839C20312013841C303121D
:10076300013866C40312013822C5031201382AEB8B
:100773000212013810EC021201385DEC021201384A
:10078300A0EC0212013815ED0212013876ED0212C7
:100793000138EBED02120138C7EE02120138D2EF35
:1007A3000212013853F002120138FAF10212013831
:1007B30090F20212013803F3021201387FF302129E
:1007C300013896F302120138CDF40212013827F5ED
:1007D30002120138E9BE0112013881C30112013846
:1007E30055C6011201387EC601120138A7C601128F
:1007F300013859C7011201383FC9011201387ACAB9
:1008030001120138B0CF01120138E9CF01120138CA
:100813002DD0011201383FD10112013870EE0312BD
:1008230001386CE103120138F0E2031201387FA6AC
:1008330003120138A0A603120138EFA603120138F0
:100843004BF303120138B6E603120138CCE6031268
:100853000138FBE60312013831E70312013848E798
:10086300031201385FE70312013896E703120138D8
:10087300E9E70312013800E80312013817E803120D
:1008830001384AE30312013861E30312013892E3AA
:1008930003120138CDE303120138F7E303120138E1
:1008A30021E40312013838E4031201384FE4031240
:1008B300013866E4031201388FE403120138A2E41D
:1008C30003120138B8E403120138CBE403120138F0
:1008D300F2E40312013826F1011201382AF201125F
:1008E300013857F201120138ADF201120138D0F28A
:1008F30001120138E4F201120138E6F20112013863
:1009030009F3011201380FF40112013853F50112F2
:10091300013817F601120138ECF6011201385DF7C0
:1009230001120138E9F701120138ECF7011201381D
:1009330074F801120138AFF80112013816F90112E7
:10094300013819F90112013850F90112013879F906
:100953000112013824FA01120138AEFA01120138EA
:10096300FDFA011201380AFB011201380DFB0112D5
:1009730001386DFB0112013878FB01120138F7FBD6
:1009830001120138FAFB011201380DFC0112013882
:1009930010FC011201389FFC01120138B9FC01124D
:1009A3000138C9FC01120138F9FC0112013806FDB6
:1009B3000112013809FD011201388AFD01120138C3
:1009C30078FE011201382AFF0112013860AB0312CD
:1009D300013888AB03120138B6AB03120138EDAB13
:1009E300031201384BAC0312013896AC03120138E1
:1009F300E1AC0312013821AD0312013867AD0312D4
:100A0300013895AD0312013852AE031201385CAEC2
:100A13000312013869AE031201389CAE0312013888
:100A230068AF0312013874AF031201388CAF03129D
:100A3300013896AF031201384AEF0312013858EF19
:100A43000312013870EF0312013888EF03120138E3
:100A5300008002120138AC80021201382781021291
:100A630001384882021201388482021201382D8330
:100A730002120138148402120138788502120138F7
:100A8300CF850212013850860212013840870212C4
:100A930001388D8702120138138802120138458804
:100AA30002120138598A021201389B8A0212013854
:100AB300B98A021201383C8B02120138108C0212DF
:100AC3000138D88C021201381B8F03120138EE8FC4
:100AD30003120138979003120138EA900312013888
:100AE3009A910312013826920312013812930312CA
:100AF30001384193031201385494031201389C9432
:100B030003120138719503120138AD9503120138B0
:100B1300C99503120138C7F20312013869CD0312D4
:100B230001387FCD03120138A5CD03120138C1CEA0
:100B330003120138CBCE0312013800D0031201385F
:100B4300F8D003120138709C03120138A09D0312E0
:100B53000138D39D031201381D9E03120138E49F0F
:100B6300031201381EAB01120138A2AB0112013886
:100B7300B2AB0112013898AC01120138D5AC0112A5
:100B8300013861AD01120138A4AD01120138AFADD6
:100B93000112013899AE01120138FCAE011201387D
:100BA300B2AF0112013899B10112013852B30112E7
:100BB30001382EB401120138E2B4011201381FB812
:100BC30001120138CDB8011201383CBA01120138C3
:100BD300BCBB0112013863BC01120138ACBC011269
:100BE3000138E4BC0112013881BD011201380CBE89
:100BF30001120138FFD10112013869D20112013803
:100C0300C8D301120138D8D30112013805D4011217
:100C130001385CD40112013805D5011201380CD614
:100C230001120138D6D60112013836D80112013823
:100C330079D8011201381ED9011201386BD901127A
:100C4300013891D9011201389FDB01120138A4DB6D
:100C530001120138A9DD01120138F6DD0112013854
:100C630069DE011201389CDE011201383EDF0112F8
:100C73000138E7DF011201381FE00112013822E0D9
:100C8300011201386AE001120138AAE001120138A9
:100C930001E101120138D8D603120138EBD6031251
:100CA3000138F9D60312013841D70312013857D757
:100CB300031201389ED703120138B2D80312013848
:100CC3003FD9031201388AD903120138C9480012E7
:100CD3000138D5480012013810490012013855492E
:100CE30000120138154A001201389B4A00120138DC
:100CF300C74A00120138004B001201383E4D001262
:100D03000138224F001201380851001201384B52AA
:100D130000120138995400120138AB550012013802
:100D2300F6560012013806580012013823580012F3
:100D330001385E5800120138805800120138E35818
:100D430000120138A45D00120138395E0012013827
:100D53008A5E00120138B15E00120138035F00128F
:100D63000138215F001201387B5F001201387A607D
:100D730000120138FE6000120138D8B403120138A2
:100D8300E2B40312013825B50312013840B503124A
:100D93000138D0B503120138F8B50312013835B65E
:100DA300031201386CB60312013895B603120138E9
:100DB3000AB7031201381FB70312013834B70312FD
:100DC300013865B70312013879B7031201389EB7AA
:100DD30003120138D8B70312013804B803120138DB
:100DE30087B803120138D0B803120138FAB80312D6
:100DF300013825B90312013857ED0312013875C6BE
:100E030002120138A3C602120138F1C702120138D7
:100E1300D1C802120138F0C8021201386DC902129A
:100E23000138B0C90212013806CB02120138C7CB10
:100E3300021201384ECE02120138EFCE02120138EF
:100E4300E5CF02120138E2D0021201383CD202127D
:100E53000138C7D2021201382FE80312013898E88B
:100E630003120138ECE80312013813E903120138C5
:100E730044E9031201384DB903120138BAB9031218
:100E8300013801BA0312013819BB0312013815BC2A
:100E930003120138F8BC0312013893F5021201382A
:100EA300D5F502120138A7F60212013880F70212B3
:100EB30001387AF8021201385CF902120138C5F9D7
:100EC300021201387BFA02120138EFFA02120138DA
:100ED3005BFB0212013884FB02120138FEFB021293
:100EE300013897FC02120138FCFC0212013811FD93
:100EF3000212013857FD0212013870FD0212013847
:100F0300D5FD02120138D8FD0212013802D10312B5
:100F130001382AD10312013868D10312013826D2CD
:100F2300031201388DD203120138A9D203120138FA
:100F3300D1D20312013801D30312013810D30312A3
:100F430001388DD303120138B3D303120138EEE114
:100F530001120138CCE301120138FEE50112013818
:100F63003AE60112013867E60112013851E701122E
:100F730001389CE701120138E7E701120138F9E76C
:100F83000112013839E8011201386EE80112013803
:100F9300BCE801120138EBE8011201380EE9011235
:100FA30001385BE901120138E0E901120138FAEB7B
:100FB3000112013839EE011201387AEE01120138BB
:100FC3001CF0011201385DF001120138D0F001125A
:100FD300013860B9021201385EBA02120138F7C053
:100FE3000212013818C302120138E3C40212013895
:100FF3004BC60212013865610012013814620012F7
:101003000138416200120138876200120138C76358
:10101300001201385D6500120138D76500120138EE
:10102300F265001201386D6600120138C7670012BD
:1010330001382769001201382D6A001201388E6BBE
:1010430000120138A76B00120138056C0012013839
:10105300F36C00120138266D00120138966D0012F0
:101063000138106E001201385A6E00120138246FD5
:1010730000120138F96F00120138D87000120138DC
:10108300637100120138D1710012013845720012E8
:1010930001387072001201382F73001201389474F2
:1010A30000120138B17400120138D07400120138F3
:1010B300C17500120138E67500120138107600126E
:1010C30001388B7600120138E576001201384E782C
:1010D30000120138FC78001201383D790012013802
:1010E3008CAB02120138DAAB02120138E6AB021202
:1010F3000138C4AC02120138F5AC0212013826AD36
:1011030002120138A6AD02120138DEAD0212013817
:1011130030AE021201386DAE021201388AB00212EB
:101123000138B0B2021201389BB40212013885B6FD
:1011330002120138452A001201380B9701120138B7
:101143003B9701120138149E01120138999F011235
:10115300013896A5011201387EA601120138BBA6FB
:1011630001120138DEA6011201380FA7011201385E
:1011730018A70112013822A70112013810A8011281
:10118300013806A901120138FC8101120138FB85DF
:10119300011201380186011201383C8D0112013818
:1011A300559201120138E9C5031201387FC60312B3
:1011B300013895C6031201380BC7031201387FC7E4
:1011C30003120138BDC70312013831C803120138B5
:1011D300AAC803120138B3C803120138BFC80312E7
:1011E3000138D4C80312013812C90312013828C9BF
:1011F3000312013887C903120138BABD031201383B
:10120300C7BD03120138E1BD0312013820BE03122A
:1012130001385EBE03120138C3BE03120138D8BEC3
:1012230003120138E3BE03120138F0BE0312013882
:1012330007BF0312013815BF0312013820BF031281
:1012430001382CBF031201383BBF0312013846BFDC
:101253000312013869BF0312013810C003120138A9
:1012630020C0031201383AC00312013857C00312D9
:10127300013873C00312013898C003120138A3C0A8
:1012830003120138B8C003120138CCC0031201386D
:101293002DC10312013833C10312013839C10312BE
:1012A30001383FC10312013857C1031201388AC103
:1012B30003120138629D02120138E69D02120138C1
:1012C300959E02120138F49F0212013815A20212F0
:1012D300013801A30212013836A30212013858A3C0
:1012E3000212013807A402120138FFA502120138C5
:1012F30028A602120138BAA602120138ECA602127D
:101303000138F9A60212013850A70212013876A754
:1013130002120138E3A902120138E6AA02120138C7
:101323003EAB02120138F18E02120138FB8F02121A
:101333000138E29002120138EC90021201380E914A
:10134300021201381A9102120138B39202120138C3
:10135300E29202120138FE930212013857940212EC
:101363000138BD95021201389C9602120138F89695
:1013730002120138659702120138A0970212013850
:10138300DF9702120138989A02120138B29A0212B8
:1013930001383E9B021201384C9B02120138A59B77
:1013A30002120138B39B02120138269C0212013843
:1013B3008A9C02120138D49C02120138FCDF02120B
:1013C30001381EE00212013844E20212013859E5E5
:1013D3000212013871E60212013824E702120138C1
:1013E30006E80212013804E50312013829E5031265
:1013F30001389BE503120138A18703120138AA873C
:1014030003120138B387031201388A8803120138A3
:101413003B8A03120138718A03120138AB8A031223
:101423000138E18A031201381B8B031201384F8BF9
:10143300031201387B8B03120138C48B031201386A
:10144300FE8B03120138478C031201389F8C031261
:101453000138D48C031201382F8D03120138698DA2
:1014630003120138BA8D03120138F08D03120138CB
:101473002A8E03120138588E031201387B8E031211
:101483000138EFF0031201381BF10312013876F132
:101493000312013880F10312013890F1031201386D
:1014A300AB7F00120138D77F00E066701008A3E01D
:1014B30066700A08A3E066700408A3E06622C3E727
:1014C300960809E7960809E7960809E79622C3E014
:1014D3009608A3E09608A3E09608A3E09622C00826
:1014E300C3E096F50808A3E096420808A3E09642F5
:1014F3000808A3E09645087001D3D008220808081D
:10150300EAC0E0EBC0E086F0E7A4FA180986F0E74A
:10151300A42AFA180986F0E7A42AFA180986F0E73C
:10152300A42AFA1986F0E7A4FBE5F02AFA1908863B
:10153300F0E7A42BFBE5F03AFA190886F0E7A42BB1
:10154300FBE5F03AFA18180986F0E7A4C5F02BFB7F
:10155300E43AFA1908E7C5F0C6A426F6E5F03BFB22
:10156300E43AFA1886F0E7A4F6E5F00826F6E43B39
:1015730008F6E43A08F6D0E0FBD0E0FA22E4CFC064
:10158300E0E4CEC0E0E4CDC0E0E4CCC0E075F02000
:10159300C3E633F608E633F608E633F608E633F631
:1015A300181818EC33FCED33FDEE33FEEF33FFC3B5
:1015B300EC9709ED9709EE9709EF97191919400F61
:1015C300FFEC97FC09ED97FD09EE97FE191906D577
:1015D300F0BEECF709EDF709EEF709EFF719191962
:1015E300D0E0FCD0E0FDD0E0FED0E0FF22601608A2
:1015F3000808C6C313C618C613C618C613C618C62A
:1016030013C6D5E0EA2270090808082260161818E4
:1016130018C6C333C608C633C608C633C608C6339E
:10162300C6D5E0EA22E627F60809E637F60809E612
:1016330037F60809E637F622E026F608A3E036F681
:1016430008A3E036F608A3E036F622E026F008A366
:10165300E036F008A3E036F008A3E036F022C3E654
:1016630097F60809E697F60809E697F60809E69754
:10167300F622C3E096F008A3E096F008A3E096F004
:1016830008A3E096F022E657F60809E657F608099C
:10169300E657F60809E657F622E056F608A3E056A1
:1016A300F608A3E056F608A3E056F622E056F00843
:1016B300A3E056F008A3E056F008A3E056F022E0BA
:1016C300F608A3E0F608A3E0F608A3E0F622E6F0A6
:1016D30008A3E6F008A3E6F008A3E6F022E0FAA3E5
:1016E300E0FBA3E0FCA3E0FD22EAF0A3EBF0A3EC14
:1016F300F0A3EDF022CAC0E0E6F0A308DAFAD0E0E6
:10170300FA22CAC0E0E0A3C582CCC582C583CDC599
:1017130083F0A3C582CCC582C583CDC583DAE6D069
:10172300E0CA22C3E498F8E499F91217678026C344
:10173300E49AFAE49BFBE920E7E9121767E498F8D7
:10174300E499F922C3E498F8E499F9121767E49845
:10175300F8E499F9C3E49AFAE49BFB22EB20E7CF80
:10176300E920E7E0B90010BB0008E88AF084F8AA92
:10177300F022E4FBC8FA22EB70227B10C833C8C9FD
:1017830033C9335007C39AC3DBF280069A50012A48
:10179300DBEAC833F4C8C933F4C9FA2275F008E4A4
:1017A300C833C8C933C933C99AC99B5004C92AC9A4
:1017B3003BD5F0ECFBC833F4C8E4C9FA22600D084A
:1017C300C6A2E713C618C613C6D5E0F322600C08F9
:1017D300C6C313C618C613C6D5E0F422700422602C
:1017E3000D18C6C333C608C633C6D5E0F418222580
:1017F3001810AF08F518400215198008F5184002B3
:101803001519D2AF22C0D0251810AF08F518500211
:1018130005198008F51850020519D2AFD0D022253A
:1018230018F58210AF08F518400215198008F5184D
:1018330040021519D2AF851983222518F582E435A4
:1018430019F58322E4732518C582C0E0E51934FF36
:10185300C583C0E0E518C3958224F810AF088583DB
:10186300198582188008858319858218D2AFCEF036
:10187300A3E520F0A37808E608F0A3DEFAEFF0A3CF
:10188300E58124FAF8E608F0A3E608F0A3E608F0F9
:10189300A30808E608F0A3E608F0A315811581D094
:1018A300E0FED0E0F8158115811581E8C0E0EEC0B7
:1018B300E0222518C582C0E0E51934FFC583C0E0E6
:1018C300E518C3958224F910AF088583198582181A
:1018D3008008858319858218D2AFCEF0A3E520F066
:1018E300A37808E608F0A3DEFAEFF0A3E58124FB72
:1018F300F8E608F0A3E608F0A30808E608F0A3E674
:1019030008F0A315811581D0E0FED0E0F81581150C
:1019130081E8C0E0EEC0E022851983851882E0A348
:10192300FEE0A3F5207808E0A3F608DFFAE0A3FFC2
:10193300E0A3C0E0E0A3C0E0E0A3C0E0E0A3C0E018
:10194300E0A3C0E010AF088582188583198008855D
:101953008218858319D2AFD083D0820201358519CD
:1019630083851882E0A3FEE0A3F5207808E0A3F6C0
:1019730008DFFAE0A3FFE0A3C0E0E0A3C0E0E0A338
:10198300C0E0E0A3C0E010AF08858218858319800A
:1019930008858218858319D2AFD083D08222C0D024
:1019A3002518C582C0E0E51934FFC583C0E0E518FA
:1019B300C3958224F310AF088583198582188008A4
:1019C300858319858218D2AFC8F0A3E9F0A3EAF0A2
:1019D300A3EBF0A37908E709F0A3D8FAECF0A3EDA1
:1019E300F0A3EEF0A3EFF0A3D0E0F0A3D0E0F0A3D8
:1019F300D0E0F0A3E520F0A3E5F0F0A3228519835E
:101A0300851882E0C0E0A3E0F9A3E0FAA3E0FBA31A
:101A13007808E0F608A3DFFAE0FCA3E0FDA3E0FE0C
:101A2300A3E0FFA3E0C0E0A3E0C0E0A3E0F5D0A300
:101A3300E0F520A3E0A3F5F010AF088583198582B4
:101A4300188008858319858218D2AFD082D083D0BD
:101A5300E0F8D0E03274048006740280027401C09E
:101A6300E0F404121822D0E01216F8227404800461
:101A730074028000CCC0E0EDC0E0E518C39CCCAD9F
:101A83001950011D10AF068C188D1980068C188D06
:101A930019D2AF121705D0E0FDD0E0FC22D083D0DD
:101AA30082E9C0E0E493A3C386F0C5F095F0F9089A
:101AB300E493A386F0C5F095F0700BE493A3C39968
:101AC3004005E9048002A3E475F002A42582F582AF
:101AD300E5F03583F583D0E0F9E493A3C0E0E49324
:101AE300C0E022D083D082ECC0E0EDC0E0E493A359
:101AF300FCE493A3FDED4C600D121B32EC24FFFCC0
:101B0300ED34FFFD80EFE493A3FCE493A3FDED4CE0
:101B1300600D121B71EC24FFFCED34FFFD80EFD050
:101B2300E0FDD0E0FCE493A3C0E0E493C0E022C076
:101B3300E0C3E49396087401939618400FE4936608
:101B4300700808740193661870007019A3A3C3E4A6
:101B53009396087401939618A3A3400DD0E0D0E0A8
:101B6300D0E0021B22A3A3A3A3A3A3D0E022C0E03F
:101B7300C0F088F0E49366700808740193661870E7
:101B830000A8F0A3A3700BD0F0D0E0D0E0D0E00227
:101B93001B22A3A3D0F0D0E022C2AF02000022C0D8
:101BA300E074F21219A1A2AFE433FED2AFE589A229
:101BB300E04006E589A2E150031206DE758900754F
:101BC3008900C2C5751A00EEF8EEA2E092AF7F015C
:101BD300021A00C0E0C0D0E8C0E0E9C0E0A2AFE470
:101BE30033F8D2AFC2C7751A00E8F9E8A2E092AFA2
:101BF300D0E0F9D0E0F8D0D0D0E03274F51218B5C7
:101C0300EAFEEBFFEE2434F8EF3400F98808890983
:101C1300EE2435F582EF3400F583E0F8EE2437F552
:101C230082EF3400F583E0F50AEC850AF0A4FCAA00
:101C3300F0850AF0EDA42AFDE82CF8E43DF97A25B5
:101C43007B00121767EA850882850983F0F8740719
:101C530058F97401B900028004C333D9FCFAE813BC
:101C63001313541FF8EE28F8EF3400F9E8245DF558
:101C730082E93400F583E05A6008EE2434F582EFFC
:101C8300802CEE2434F582EF3400F583E0C0E0EEDF
:101C93002436F582EF3400F583E0F5F0D0E084A834
:101CA300F0EE28F8EF3400F9E82438F582E934003F
:101CB300F583E0F97F0402196174F51218B5EAFEA1
:101CC300EBFFEE2434F582EF3400F583E0C0E0EE61
:101CD3002435F582EF3400F583D0E0F08E828F83D4
:101CE300A3A3A3A3A3A3A3C082C0838E828F83A332
:101CF300A3A3A3A3E0F8A3E0F9D083D082E0C39821
:101D0300F508A3E099F509EE247FF582EF3400F599
:101D130083E064017069EE2480F582EF3400F5837B
:101D2300E0F8A3E0F98E828F83A3A3A3A3A3A3A3C5
:101D3300E0FCA3E0FD8E828F83A3A3A3A3A3E0FA19
:101D4300A3E0FBC3EA9CEB9D5010C3EC98ED9940D4
:101D53002EC3EA98EB995027800EC3EA98EB99407B
:101D630007C3EC98ED9940177C557D08EEFAEFFB1D
:101D7300121092EE247FF582EF3400F583E4F0EE47
:101D83002434F8EF3400F9E8FCE9FDEE2435F5825C
:101D9300EF3400F583E0F8EE2437F582EF3400F5F5
:101DA30083E0F50AE508850AF0A4F508AAF0850A98
:101DB300F0E509A42AF509E82508F8E43509F97AD4
:101DC300257B00121767EA8C828D83F0F87407581D
:101DD300F97401B900028004C333D9FCFAE8131380
:101DE30013541FF8EE28F8EF3400F9E8245DF58268
:101DF300E93400F583E05A6008EE2434F582EF807D
:101E03002CEE2434F582EF3400F583E0C0E0EE24B9
:101E130036F582EF3400F583E0F5F0D0E084A8F0E6
:101E2300EE28F8EF3400F9E82438F582E93400F5B8
:101E330083E0F9122A37021CB7C082C08385188257
:101E4300851983E0F8A3E0F9C3EA9CEB9D5010C326
:101E5300EC98ED99401BC3EA98EB995014800EC39C
:101E6300EA98EB994007C3EC98ED99400479018017
:101E7300027900D083D08222EAC39CFAEB9DFB2235
:101E830074EF1218B590071BE064086005E064075F
:101E9300702A9061C8E06024900749E0F4601DE077
:101EA300F875F003A4C8AAF02AF9744B28FE740746
:101EB30039FF8E828F83A3A3A3E07003021FB39025
:101EC3006060E0C0E0EE2468F582EF3400F583D073
:101ED300E0F0750CBE750D08750800750900E5D9AD
:101EE30014F50AE5D95403F50E60177403650E6003
:101EF3005CE50A6010EE2467F582EF3400F583E0B9
:101F03007003021F989008B9E06401602AEE2482EE
:101F1300F582EF3400F583E06004780480027800F2
:101F2300850A08E508C398FA95E0FB120F608A0852
:101F33008B09EA450970051212968074EE2482F526
:101F430082EF3400F583E070048A0C8B0DE50A60A0
:101F530012850C82850D83F50BE5D9F0A3150BE5EE
:101F63000B70F6EE2482F582EF3400F583E06044D3
:101F730074FC250AF50A780C121A5CAC0AA90EEE59
:101F8300FAEFFB12112E7402121808E97026AA0840
:101F9300AB0912073E793D8E828F83A3A3A3A3E0EF
:101FA300FA7B00120E34EEFAEFFB1210AA12114064
:101FB300790080747403650E6056850A10751100EC
:101FC3007810121A5CAC0CAD0DAA08AB0912110AF9
:101FD3007402121808EE2468F582EF3400F583E0EA
:101FE30064807004747F8001E0F50C780C121A6031
:101FF300E50EF50C780C121A60A90AAC08AD09902D
:102003000749E0FA7B00120DF874021218088013D6
:1020130090071BE06408600BAC0CAD0DEEFAEFFB10
:1020230012119A1212A279017F0A02196174F51230
:1020330018B574FC1217F2EAFEEBFF8908A2AFE4AD
:1020430033F509C2AF806AEE2463F8EF3400F97AFE
:10205300007B00A2AFE433F50AC2AF88828983E034
:10206300FCA3E0FDEC4D603A88828983E0FAA3E0AB
:10207300FB8A828B83E0FCA3E0FD88828983ECF0FA
:10208300A3EDF08A828B83E4F0A3F088828983E056
:10209300FCA3E0FDEC4D700A88828983A3A3E4F0DE
:1020A300A3F0E50AA2E092AF12073E90085CE004B9
:1020B300F0EE2463F582EF3400F583E0F8A3E0F952
:1020C300E849603DEE2463F582EF3400F583E024B4
:1020D30002FAA3E03400FBEA2402F50AEB3400F52C
:1020E3000B780A121A5C8A828B83E0FCA3E0F9EE78
:1020F300FAEFFB1210CE7402121808E970030220E3
:102103004A90085CE0606390085DE0F890085CE04A
:10211300C398500C74026508705090085EE0604AE2
:102123008E828F83A3A3A3A3E0851882851983F0EE
:10213300A3E4F090085CE0F8740212183DE8F0A301
:10214300E4F090085CE0F890085BE028F074021279
:10215300183DAC82AD83851882851983AA82AB832F
:102163007901120E0490085CE4F0E509A2E092AF55
:102173007404121808021CB7008521878522C62221
:10218300C0E0C0D0E8C0E0E9C0E0EAC0E0EBC0E0F6
:10219300ECC0E0EDC0E0EEC0E0C008C009C00AC07A
:1021A3000BC082C083C0F0A2AFE433FEC2AF759B05
:1021B30000906182E0A2E05012E591A2E0500C751C
:1021C30091FE740165217003121E83E0A2E5505154
:1021D300E591A2E5504B7591DF90071BE064076022
:1021E30005E0640870237401652170357901900757
:1021F30049E0FA75F003A4CAA8F028FB744B2AFA45
:1022030074073BFB1220308018E0640D70139007B5
:102213003DE004F064287002E4F07A00E0F9121261
:10222300A8906182E0A2E640030222CAE591A2E6F9
:1022330040030222CA7591BF90071BE06405700832
:102243001211D01211DC80031211D6752100121263
:1022530036E990071CF0790012122A1210087A014D
:102263007B0090071AE0F9120420907803E064429F
:1022730070559008BDE014F0704DC2AF1222820079
:10228300782AD0E0F618D0E0F6E59F54077005757C
:1022930009FF800375097FC4C0E07829E6F50808C3
:1022A300E65509F509740B78081217D0D0E0250814
:1022B300F8906270E0A2E740F8E8C333906272F0EE
:1022C300906270E0D2E0F0906181E0A2E35009E512
:1022D300E9A2E3500375E9F7A3E0A2E75009E5910A
:1022E300A2E7500375917FEEA2E092AFD0F0D083C6
:1022F300D082D00BD00AD009D008D0E0FED0E0FDC8
:10230300D0E0FCD0E0FBD0E0FAD0E0F9D0E0F8D0A8
:10231300D0D0E032C0E0C0D0C082C083906183E0FF
:10232300A2E05009E5BFA2E0500375BFFEE0A2E1C1
:102333005009E5BFA2E1500375BFFDE0A2E25009D9
:10234300E5BFA2E2500375BFFBE0A2E35009E5BF7E
:10235300A2E3500375BFF7E0A2E45009E5BFA2E48E
:10236300500375BFEFE0A2E55009E5BFA2E55003B6
:1023730075BFDFE0A2E65009E5BFA2E6500375BFD3
:10238300BFD083D0828088C0E0C0D0E8C0E0E9C07D
:10239300E0EAC0E0EBC0E0ECC0E0EDC0E0C0F0E597
:1023A300A7A2E6500FE5A1A2E6500953A7BF75A166
:1023B300BF1223EFE5A7A2E5500CE5A1A2E5500665
:1023C30053A7DF75A1DFE5A7A2E15009E5A1A2E1CB
:1023D300500375A1FDE5A7A2E2500CE5A1A2E250CE
:1023E3000653A7FB75A1FBD0F002230074F8121863
:1023F300B575210190071BE06406701512115E8A02
:10240300828B83A3A3A3A3A3A3E0FAA3E0FB1211EC
:10241300BEA2AFE433FED2AF900721E0640170188F
:102423007A207B0090071AE0F91204CE7A207B0011
:1024330090071AE0F9120426906182E0D2E6F09048
:1024430008BAE0602185C6228016900720E0640167
:102453007008E5C654F84405F5C653BEFC12217C4A
:102463007401652160E4EEA2E092AF7F010219617D
:10247300008E238F248582288583278518828519DA
:1024830083E0CEA3E0CF852882852783EBC9EAC802
:10249300EDCBECCA75F010C3E833C8E933C9EA33AE
:1024A300CAEB33CBC3EA9EF526EB9FF525B3500465
:1024B300AB25AA26EC33CCED33CDD5F0DAAE23AF82
:1024C300242274E91218B574F81217F2851882855C
:1024D3001983ECF0A3EDF08A088B0990071BE02425
:1024E300F7C39405500675080102265C12115E8A33
:1024F3000A8B0BAE0AAF0BEE4F7003022659AC08E2
:10250300AD09740212183DAA82AB831211EE8E82BA
:102513008F83A3A3750CFF750DFF750EFF750F0059
:10252300780C12169C740212183D7510FF7511FF7A
:102533007512FF751300781012169C780C7910121F
:1025430014C1502A780C79101216617508017509A7
:10255300C8750A00750B007808790C1214C1505223
:10256300850C08850D09850E0A850F0B805075149F
:10257300017515C8751600751700851008851109B2
:1025830085120A85130B7808790C12166178147971
:10259300081214C1401C750800750900750A0075FE
:1025A3000B01780879101216617808790C12162835
:1025B300800C750801750900750A00750B00740914
:1025C3007808121609750C19F50DF50EF50F780834
:1025D300790C1215808E828F83A3A3A3A3A3A3E0F8
:1025E300F8A3E0F97AD07B03121767880C890DE40E
:1025F300F50EF50F7808790C121628740612183D9B
:10260300E0F8A3E0F97AD07B03121767E8FA8A0CA3
:10261300E4F50D7808790C1214C150077808790C89
:1026230012166190071BE06408600AE06406600507
:10263300E06405702D750C0D780C79081214C140F7
:1026430021750CF4750DFF750EFF750FFF78087972
:102653000C121628800C750800750900750A0075A0
:102663000B00851882851983E0F8A3E0F58388823F
:1026730078081216D174081218087F1002196174B1
:10268300F71218B51212009008B8E06401701090A8
:102693006245E4F0A3F053F4F343FE0C5390F312BA
:1026A30011ACE5C654804449F5C6E59E547F6449A0
:1026B30070F8906185740FF09008B6E0F47002A38F
:1026C300E0604E9008B7E0600814601B14602E8031
:1026D300407508017509009008B6E078081217DF05
:1026E300E508F45280802A7508017509009008B640
:1026F300E078081217DFE508F4529080147508019A
:102703007509009008B6E078081217DFE508F4525F
:10271300A079007F0202196174F71218B5E9FEEA85
:10272300FF74016E700C7A807B0090071AE0F91237
:102733000420902A48E493F46008E493F9120FFC10
:10274300800953C680E59E547F70FA1211B2900837
:10275300B8E0640170031210149008B6E0F470023C
:10276300A3E0604B9008B7E0600814601A14602C73
:10277300803D7508017509009008B6E078081217C6
:10278300DFE508428080287508017509009008B6C6
:10279300E078081217DFE508429080137508017589
:1027A30009009008B6E078081217DFE50842A01286
:1027B300120012115E8A088B09A808A909E849606A
:1027C30015E5E170FCE82414F582E93400F583E0B3
:1027D300F46003E0F5E174016F700A7A0190071A5F
:1027E300E0F912049E02271674ED1218B58A088BBD
:1027F300098C0A8D0B741312183D780C1216C278CB
:1028030008790C1214C17510017511C87512007581
:10281300130050127808790C121661781079081297
:1028230014C150168010780C79081216617810794B
:102833000C1214C140047901800279007F0C021943
:102843006174ED1218B58A088B098C0A8D0B741309
:1028530012183D780C1216C2780C79081214C14074
:10286300117808790C121661AA08AB09AC0AAD0BF2
:102873008022751000751100751200751301781010
:10288300790C12166178107908121628AA10AB1168
:10289300AC12AD1380A68A828B837508FF7509FF7E
:1028A300750AFF750B0078081216AF7F04021961D1
:1028B30074F51218B58C828D8378081216C28A8239
:1028C3008B837808121675EA2404F8EB3400F98C2C
:1028D300828D83A3A3A3A3E0FCA3E0FD8882898365
:1028E300C3E09CF0A3E09DF088828983C3E0942039
:1028F300A3E0944E40268A828B837508FF7509FFF7
:10290300750AFF750BFF780812164E8A828B83A314
:10291300A3A3A3E02420F0A3E0344EF0022899748B
:10292300F51218B5E9FE900870E0FAA3E0FBEEC3D8
:1029330033F8E433F974E928F582748039F583E0D8
:102943002AF508A3E03BF5097808121A5C7A407B64
:10295300427C0F7D0012247474021218088A088BBB
:10296300098C0A8D0B741078081215F0AA08AB09AC
:102973007F0402196174F11218B58A0C8B0D8C0E49
:102983008D0F740F12183DE0FAA3E0FB74111218B7
:102993003DE0F508A3E0F5097808121A5CEA240182
:1029A300F508EB3400F509E4F50AF50B780C790822
:1029B300121500750871750902780C790812150053
:1029C300AA0CAB0DAC0EAD0F1224747402121808CE
:1029D3008B09EA450960047A0180027A00EC2AFC3B
:1029E300ED3400FD741312183DE0F8A3E0F9E8FE9E
:1029F300E9FFECF8EDF97A717B0212176788088911
:102A0300098E828F8378081216D1ECF8EDF97A716A
:102A13007B021217678A088B09740578081217DF7F
:102A23008E828F83A3A3A3A3E508F0A3E509F07F18
:102A330008021961C082C083E9906000F0D083D09E
:102A43008222020135FFFFFFFFFFFFFFFF74EE123B
:102A5300184974FA1217F28A0A8B0B8909ECFEEDF6
:102A6300FF750800850A0C850B0D780C121AA0005F
:102A73000410292D992ABA2AD92AFA2A1B2B3C2B6E
:102A83006F2B902BA72BD52B932CB42CD42CFE2C53
:102A9300292D292D002C7401650970158E828F83D1
:102AA300E0C39403500B8E828F83E0900BFBF08086
:102AB30003750818022D527402650970138E828FF4
:102AC30083E0F8A3E0F9900BFCE8F0A3E9F08003BE
:102AD300750818022D527401650970158E828F8353
:102AE300E0C39402500B8E828F83E09003EBF0805F
:102AF30003750818022D527401650970158E828FB3
:102B030083E0C39405500B8E828F83E09003ECF037
:102B13008003750818022D527401650970158E82A1
:102B23008F83E0C39402500B8E828F83E09003ED7A
:102B3300F08003750818022D52741065097027750B
:102B43000C10750D00780C121A5CEEFCEFFD7AEE9A
:102B53007B031203CC74021218088A0C8B0D850CAC
:102B630082850D838003750818022D52740165094F
:102B730070158E828F83E0C39402500B8E828F83F5
:102B8300E09003FEF08003750818022D527401656E
:102B930009700B8E828F83E0900BFFF08003750822
:102BA30018022D52740465097022908197780C12D3
:102BB30016C28E828F83780C1214D1500F8E828F9F
:102BC300831216E09004001216EC800375081802B5
:102BD3002D52E5097021120B2EE9701312062AE912
:102BE300F50C79501207CEE9F50D120618800B90FB
:102BF30004937401F08003750818022D527407655D
:102C0300096003022C8D750E06750F00780E121ADB
:102C13005C8E828F83A3AC82AD83740212183DAAAB
:102C230082AB831203D274021218088A108B1185A7
:102C3300100E85110F7C007D00851882851983AAEB
:102C430082AB838E828F83E0F91205B8E9F50CE538
:102C53000CC3940A502F120B2EE97015A90C1206FF
:102C630030E9F50D79501207CEE9F50E12061880FA
:102C73001C750D007494250CF5827404350DF583D1
:102C83007401F080087508028003750818022D523C
:102C93007401650970158E828F83E0C39402500B13
:102CA3008E828F83E09003FFF08003750818022D56
:102CB300527401650970158E828F83E0C3940A50A4
:102CC3000B8E828F83E0900BFEF0800375081880D3
:102CD3007E74016509701F8E828F83E0C394074061
:102CE300158E828F83E0C39411500B8E828F83E005
:102CF300900C00F0805975081880547401650970B0
:102D030020900492E0F50C8E828F83E0900492F081
:102D1300E50C703B900492E0640170331206188056
:102D23002E7508188029C3E50A9427E50B940050F3
:102D33001B7402650970158E828F83E0FCA3E0FD8E
:102D4300AA0AAB0B1209CCE9F5088003750802A99E
:102D53000874061218087F0A02191B74EC1218492A
:102D630074DA1217F2890D8A128B138C0A8D0B7485
:102D73003A12183DE0F50C908151C082C08385184A
:102D830082851983AC82AD83D083D08274061217F7
:102D930005851882851983AC82AD83AA12AB13A96A
:102DA3000D1205B8E9FEEEC3940A4003022EFDEEB0
:102DB300F91205FAE9FF900BFBE064027004740159
:102DC30080027400F5087808121A60AD0CEFFCEE6F
:102DD300F9AA0AAB0B12066C74011218087C147D55
:102DE300007900741212183DAA82AB831203E48A9D
:102DF3000E8B0F850E08850F09741212183DAC82D5
:102E0300AD837A1075F006EEA42424F91207C8E9FD
:102E130070437C1079FF741212183DAA82AB83129F
:102E23000444E97030742212183DAC82AD837A04F5
:102E330075F006EEA42425F91207C8E9F508741203
:102E430012183DAC82AD83EFA2E0E433F9AA0AABDA
:102E53000B120A56E9740612183DAC82AD837A0C44
:102E630074702EF91207C8E9707E740612183DAA11
:102E730082AB831205EE750E00E50EC39404506811
:102E8300E50EA80E7900E875F003A4C8AAF075F062
:102E930000A42AFA75F003E9A42AF9740612183D6E
:102EA300E58228F508E58339F509850882850983D4
:102EB300E0F8A3E0F9E849602B850882850983A33C
:102EC300A3E0F5107511007810121A5C850882854D
:102ED3000983E0FCA3E0FDAA0AAB0B120D4A7402BE
:102EE300121808E9050E8091EFA2E1500D9003EA54
:102EF300E0F9AA0AAB0B120D50E97404650C700FCC
:102F0300900BFBE064027007AA0AAB0B120666790A
:102F13000074261218087F0C02191B74F212184948
:102F2300890BEAFEEBFF8C088D09750A0AE50B6035
:102F33000C146009146044146064022FC2EEFAEFAB
:102F4300FB12060CE9F50AE50AC3940A5071E50879
:102F53004509606B750C06750D00780C121A5CEE52
:102F6300FCEFFDAA08AB091203CC74021218088AFD
:102F73000C8B0D850C82850D838044EEFAEFFB12DA
:102F83000606E9F50AE50AC3940A5033E50845093C
:102F9300602DAA08AB09A90A120600E98021EEFAFE
:102FA300EFFB120612E9F50AE50AC3940A5010E58D
:102FB300084509600AAA08AB09A90A120600E9A98B
:102FC3000A7F0602191B74F21218498A0C8B0DE949
:102FD300FE7F1574FF650C700474FF650D702A7510
:102FE3000800E508C3940A5014EEFC7A027B00A99A
:102FF300081205DCE960027F00050880E5EE6063E6
:103003007A547B06120F42805AAA0CAB0D120F247E
:103013008A0A8B0B850A08850B09E5084509604177
:103023007C007D00E5082405FAE5093400FB8508EA
:1030330082850983A3A3A3A3E0F91205B8E9F50ADE
:10304300E50AC3940A500EEEFC7A027B00A90A1229
:1030530005DCE97F00EE600BAA08AB091206548079
:10306300027F14EFF97F0602191B74EE1218498AC6
:103073000E8B0F8C0A8D0B741212183DE0F50CA306
:10308300E0F50D75081574FF650E700474FF650F88
:10309300701E7E00EEC3940A5062AC0CAD0DAA0AFA
:1030A300AB0BEEF91205E2E960037508000E80E44C
:1030B300AA0EAB0F120F248A108B11AE10AF11EEB4
:1030C3004F60367C007D00EE2405FAEF3400FB8E62
:1030D300828F83A3A3A3A3E0F91205B8E9F509E559
:1030E30009C3940A5016AC0CAD0DAA0AAB0BA9097F
:1030F3001205E2E97508008003750814A9087F0A20
:1031030002191B74F7121849EAFEEBFF900404EE50
:10311300F0A3EFF09003EAE0FC7D007A267B001237
:1031230009CCE9F5089003EAE0F9120CCC7F01021F
:10313300191B74EE1218498A108B11E9FE741212CE
:10314300183D780C1216C27F00EE7041850C08857D
:103153000D09850E0A850F0B908197780C1216C204
:103163007808790C1215807810121A5CAA0CAB0D32
:10317300AC0EAD0F120A687402121808E9FFEF6073
:10318300167901AA10AB11120A62E9800AEEF9AAB4
:1031930010AB11120A62E9EFF97F0A02191B74F2EC
:1031A30012184974EC1217F28A0A8B0B850A82856E
:1031B3000B83A3A3E024FA700302360124FD7003FA
:1031C30002347714700302329414601024FD7003E8
:1031D30002341F1470030234B702366FAE0AAF0B0A
:1031E300900404E0F8A3E0F9E8496069900404E07E
:1031F300F8A3E0F5838882E0F8A3E0F9E849605595
:10320300EE240CF582EF3400F583E0F5087808121C
:103213001A60EE240BF582EF3400F583E0F98E8219
:103223008F83A3A3A3A3A3A3A3A3A3E0FCA3E0FD72
:10323300EE2403FAEF3400FB900404E0F8A3E0F576
:10324300838882E0F8A3E0F583888212184774012B
:1032530012180880398E828F83A3A3A3A3A3A3A3E9
:10326300A3A3121A739004001216E0120A687402E0
:10327300121808E9601879018E828F83A3A3A3A390
:10328300A3A3A3A3A3E0FAA3E0FB120A62E9023615
:103293006FAE0AAF0B8E828F83A3E060030233CD40
:1032A3008E828F83A3A3A3A3A3E0A2E040030233F0
:1032B300CD90049EE0F8A3E0F9E84960030233CD22
:1032C3007C0E7D007900851882851983AA82AB83E1
:1032D3001203E48A088B09AA08AB09EE240CF582D1
:1032E300EF3400F583E0F8A3E0F9E849603B7508A3
:1032F300067509007808121A5CEE240CF582EF3487
:1033030000F583E02410FCA3E03400FD74021218DE
:103313003DAA82AB831203CC74021218088A088B6D
:103323000985088285098380548E828F83A3A3A392
:10333300E0FAA3E0FB120F248A0C8B0D850C0885A1
:103343000D09E50845096032750C06750D00780C0A
:10335300121A5CE5082405FCE5093400FD74021229
:10336300183DAA82AB831203CC74021218088A0C8C
:103373008B0D850C82850D83800302366F8E828FC1
:1033830083A3A3A3A3A3E0A2E25004D2F08002C2CA
:10339300F0A2F0E433F87900740C12183DE048F021
:1033A300A3E049F0EEFCEFFD851882851983AA821C
:1033B300AB831205F4E970127A027B009003EAE012
:1033C300F9120420E97900023671900404E0F8A3AD
:1033D300E0F9E8496043900404E0F8A3E0F583884A
:1033E30082A3A3E0F8A3E0F9E849602D8E828F83DE
:1033F300A3E0FC79018E828F83A3A3A3E0FAA3E069
:10340300FB900404E0F8A3E0F5838882A3A3E0F82B
:10341300A3E0F583888212184702366FAE0AAF0B1A
:10342300900404E0F8A3E0F9E8496045900404E05F
:10343300F8A3E0F5838882A3A3E0F8A3E0F9E849C1
:10344300602F850A82850B83A3E0FC79028E828F2D
:1034530083A3A3A3E0FAA3E0FB900404E0F8A3E0B2
:10346300F5838882A3A3E0F8A3E0F583888212188A
:103473004702366FAE0AAF0B7C007D00EE2404FAE0
:10348300EF3400FB8E828F83A3A3A3E0F91205B868
:10349300E9F508E508C3940A5017EE240AFCEF3453
:1034A30000FD7A0475F006E508A42425F91207C285
:1034B300E902366FAE0AAF0B9003FFE06018900B82
:1034C300FEE0F98E828F83A3A3A3E0FAA3E0FB12AD
:1034D3000A62E902366F900BFBE0701579058E8264
:1034E3008F83A3A3A3E0FAA3E0FB120A62E90236E7
:1034F3006F8E828F83A3A3A3E0FAA3E0FB120F24B2
:103503008A0C8B0D850C08850D098E828F83A3A3EE
:10351300A3A3A3A3A3E0A2E05075E5084509606C4B
:10352300850882850983A3A3A3A3E060628E828FAB
:1035330083A3A3A3A3A3A3A3A3A3E0F8A3E0F9E80E
:10354300C4540FF879005401F8E95400F9E8A2E0F3
:10355300403D740E12183DAC82AD83E5082405FA94
:10356300E5093400FB850882850983A3A3A3A3E0AF
:10357300F91205B8E9701879038E828F83A3A3A388
:10358300E0FAA3E0FB120A62E902366F02366FEE3D
:103593002405FCEF3400FD850882850983A3A3A3DA
:1035A300A3E0F98E828F83A3A3A3E0FAA3E0FB1227
:1035B3000660900404E0F8A3E0F9E849603E900453
:1035C30004E0F8A3E0F5838882A3A3E0F8A3E0F97D
:1035D300E84960287C0079008E828F83A3A3A3E04F
:1035E300FAA3E0FB900404E0F8A3E0F5838882A348
:1035F300A3E0F8A3E0F5838882121847806E120BCC
:103603002EE97068900493E06401701A12062AE9A7
:10361300FE9004937400F07C0A7D0079007A947B19
:10362300041203E4803C7E00EEC3940A50348E08F7
:1036330075090074942508F58274043509F583E04F
:103643006401701BEEF9120630E9F88E0875090063
:1036530074942508F58274043509F5837400F00E1B
:1036630080C679501207CEE9FE1206187901741448
:103673001218087F0602191B74F312184974F21208
:1036830017F28909EAFEEBFF8C0C851882851983F2
:10369300AC82AD837A0E75F006E509A42420F912F5
:1036A30007C8E970727C0679FF851882851983AA99
:1036B30082AB83120444E9705E740C12183DE0F887
:1036C300A3E0F9E8F508E50C6005EE42088004EE96
:1036D300F4520885080A750B00740C12183DE06556
:1036E3000A7004A3E0650B602AE508A80879007452
:1036F3000C12183DE508F0A3E9F0851882851983BB
:10370300AC82AD837A0E75F006E509A42420F91284
:1037130007C2E9790180027900740E1218087F0547
:1037230002191B74F012184974E61217F2890B8AF6
:103733000C8B0DECFEEDFF740C12183DAC82AD83C7
:103743007A0E75F006E50BA42420F91207C8E96088
:103753000302388A7C0679FF740C12183DAA82ABE7
:1037630083120444E9600302388A85188285198329
:10377300AC82AD837A0C7470250BF91207C8E9602B
:1037830003023886750A00851882851983AA82ABDD
:10379300831205EEE50C450D703A7C0C7900851813
:1037A30082851983AA82AB83120444E96003023839
:1037B300607C0C7D007900851882851983AA82AB11
:1037C300831203E48A088B09850882850983750AB5
:1037D30001023860851882851983AC82AD83AA0CF7
:1037E300AB0D1205E88A0E8B0F850E08850F09E5D0
:1037F3000845097036EE4F6021851882851983AC20
:1038030082AD837A007B001205E88A0E8B0FA80E27
:10381300A90F88088909E84970047900806B850835
:1038230082850983E50CF0A3E50DF08508828509FF
:1038330083A3A3E0F87900EE687002EF69601EEEDF
:10384300850882850983A3A3F0EE4F700D85088256
:103853008509837400F0A37400F0750A01E50A601A
:1038630022851882851983AA82AB831205EE8518F7
:1038730082851983AC82AD837A0C7470250BF9129F
:1038830007C2E9790180027900741A1218087F08C7
:1038930002191B74F7121849EAFEEBFF7B00EBC316
:1038A3009404504EEBF87900E875F003A4C8AAF02D
:1038B30075F000A42AFA75F003E9A42AF9EC28F5B7
:1038C30082ED39F583E06E7003A3E06F7021EBF8AE
:1038D3007900E875F003A4C8AAF075F000A42AFAE9
:1038E30075F003E9A42AF9EC28FAED39FB80070BFC
:1038F30080AC7A007B007F0102191B74F712184910
:103903007F00EFC3940440030239ADEFF87900E878
:1039130075F003A4C8ACF075F000A42CFC75F0039B
:10392300E9A42CF9EA28F582EB39F583E0F4FCA34A
:10393300E0F4FDEFF87900E875F003A4C8AEF07584
:10394300F000A42EFE75F003E9A42EF9EA28F5820F
:10395300EB39F583ECF0A3EDF0EFF87900E875F0BF
:1039630003A4C8ACF075F000A42CFC75F003E9A423
:103973002CF9EA28F582EB39F583A3A3E0F4C0E040
:10398300EFF87900E875F003A4C8ACF075F000A473
:103993002CFC75F003E9A42CF9EA28F582EB39F540
:1039A30083A3A3D0E0F00F0239057F0102191B7432
:1039B300F012184974F41217F2EAFEEBFF8C088D2B
:1039C3000990049EE0F8A3E0F9E849702CEE4F60FB
:1039D30006E508450970057901023C6AEEFAEFFB3A
:1039E30012060CE9900C01F0900C01E0C3940A401C
:1039F3000812061EE9900C01F0900C01E0C3940A32
:103A03004003023C6890049EE0F8A3E0F9E84960B3
:103A130003023AB4EEFCEFFD7A0E75F006900C014A
:103A2300E0A42420F91207C2E9F50C7C0C7D00798F
:103A3300FF851882851983AA82AB831203E48A0E59
:103A43008B0F850E0A850F0B851882851983AC822F
:103A5300AD837A0C900C01E02470F91207C2E9F5EA
:103A63000D750E0E750F00780E121A5CEEFCEFFD4D
:103A7300900C01E0F87900E875F00EA4C8AAF0757F
:103A8300F000A42AFA75F00EE9A42AF9740628FABC
:103A9300740439FB1203CC74021218088A0E8B0FBC
:103AA300A80EA90F90049EE508F0A3E509F0023CD7
:103AB3006490049EE0F8A3E0C82406F582E834008D
:103AC300F583E0F8A3E0F9E849604390049EE0F849
:103AD300A3E0C82406F582E83400F583E0FCA3E004
:103AE300FD7A1B75F006900C01E0A42421F912075E
:103AF300C2E9F890049EE0F9A3E0C92406F582E93F
:103B03003400F5837400F0A37400F0023C64900465
:103B13009EE0F8A3E0C8240AF582E83400F583E0C8
:103B2300F8A3E0F9E849604390049EE0F8A3E0C8F5
:103B3300240AF582E83400F583E0FCA3E0FD7A1B58
:103B430075F006900C01E0A42422F91207C2E9F8EB
:103B530090049EE0F9A3E0C9240AF582E93400F554
:103B6300837400F0A37400F0023C6490049EE0F8B8
:103B7300A3E0C8240CF582E83400F583E0F8A3E061
:103B8300F9E849604390049EE0F8A3E0C8240CF5EB
:103B930082E83400F583E0FCA3E0FD7A1075F006BB
:103BA300900C01E0A42423F91207C2E9F890049EC3
:103BB300E0F9A3E0C9240CF582E93400F58374002D
:103BC300F0A37400F0023C6490049EE0F8A3E0C804
:103BD3002408F582E83400F583E0F8A3E0F9E84926
:103BE300606F90049EE0F8A3E0C82408F582E834EF
:103BF30000F583E0FCA3E0FD7A1075F006900C015C
:103C0300E0A42424F91207C2E9F50A90049EE0F81F
:103C1300A3E0C82408F582E83400F583E02410FC0F
:103C2300A3E03400FD7A0475F006900C01E0A424AF
:103C330025F91207C2E9F890049EE0F9A3E0C9242C
:103C430008F582E93400F5837400F0A37400F08072
:103C530010900492E0600312067212065A790180F2
:103C630006790080027901740C1218087F08021982
:103C73001B74F712184974F21217F2E9FE851882C1
:103C8300851983AC82AD837A0E75F006A42420F9DE
:103C93001207C8E9700E740C12183DE0F8A3E0F99E
:103CA300E8F980027900740E1218087F0102191BCB
:103CB30074F412184974F21217F28909EAFEEBFF41
:103CC300E509C3940A5004EE4F70047902804B85D2
:103CD3001882851983AC82AD837A0E75F006E509E7
:103CE300A42420F91207C8E9F508E508702A750A23
:103CF30006750B00780A121A5C740212183DAC8226
:103D0300AD83EEFAEFFB1203CC74021218088A0A91
:103D13008B0B850A82850B83A908740E1218087F02
:103D23000402191B74F4121849EAFEEBFF7508002C
:103D3300E508C3940A5045750A06750B00780A1204
:103D43001A5CEEFCEFFDE508A8087900E875F00EB3
:103D5300A4C8AAF075F000A42AFA75F00EE9A42A03
:103D6300F9740C28FA740439FB1203DE7402121876
:103D730008E96004A9088006050880B4790A7F046D
:103D830002191B74F4121849EAFEEBFF750800E5EB
:103D930008C3940A5045750A06750B00780A121A6F
:103DA3005CEEFCEFFDE508A8087900E875F00EA4C9
:103DB300C8AAF075F000A42AFA75F00EE9A42AF94E
:103DC300740628FA740439FB1203DE74021218080D
:103DD300E96004A9088006050880B4790A7F040213
:103DE300191B74F712184974F01217F2EAFEEBFF6D
:103DF300750800E508C3940A504B8518828519831A
:103E0300AC82AD837A1075F006E508A42423F91279
:103E130007C8E9702C7C1079FF851882851983AA5D
:103E230082AB83120444E97018EEFCEFFD8518821F
:103E3300851983AA82AB83120A38E97004A9088022
:103E430006050880AE790A74101218087F0102195A
:103E53001B74F4121849750800E508C3940A40035B
:103E6300023F36E508A8087900E875F00EA4C8AA51
:103E7300F075F000A42AFA75F00EE9A42AF9740685
:103E830028FC740439FD7A0E75F006E508A4242095
:103E9300F91207C8E97003023F317C067D0079FF00
:103EA300E508AA087B00EA75F00EA4CAA8F075F02D
:103EB30000A428F875F00EEBA428FB74062AFA7404
:103EC300043BFB1203E48A0A8B0BAE0AAF0B7C069E
:103ED3007D0079FFE508AA087B00EA75F00EA4CA05
:103EE300A8F075F000A428F875F00EEBA428FB7475
:103EF3000C2AFA74043BFB1203E48A0A8B0BAC0A08
:103F0300AD0BE508A8087900E875F00EA4C8AAF07F
:103F130075F000A42AFA75F00EE9A42AF9741228A0
:103F2300F582740439F5837400F0A37400F0050876
:103F3300023E5C900492E0600312067212065A7FFE
:103F43000402191B74F71218497E00EEC3940A5039
:103F5300327C0679FFEEFA7B00EA75F00EA4CAA85C
:103F6300F075F000A428F875F00EEBA428FB740696
:103F73002AFA74043BFB120444E96004EEF9800559
:103F83000E80C8790A7F0102191B74F71218497E43
:103F9300007F00EFC3940A502F7C0679FFEFFA7B72
:103FA30000EA75F00EA4CAA8F075F000A428F8750D
:103FB300F00EEBA428FB74062AFA74043BFB1204EC
:103FC30044E970010E0F80CBEEF97F0102191B74D7
:103FD300F71218497E007F00EFC3940A500DEE706C
:103FE3000AEFF9120630E9FE0F80EDEEF97F0102C8
:103FF300191B74F012184974CB1217F28909900C2B
:1040030001E06509701D7A017B009003EAE0F91273
:104013000426E97A027B009003EAE0F9120426E918
:1040230012067E742712183DAC82AD837A0E75F0AA
:1040330006E509A42420F91207C8E96003024161D7
:104043007C0679FF742712183DAA82AB83120444BD
:10405300E960030241617C0E7D0079FF7427121829
:104063003DAA82AB831203E48A0A8B0B850A0C8573
:104073000B0D7C1B7D0079FF740C12183DAA82ABDB
:10408300831203E48A0E8B0F850E0A850F0B7C0CBB
:104093007D0079FF851882851983AA82AB83120379
:1040A300E48A0E8B0FAE0EAF0F742712183DAC824D
:1040B300AD837A0E75F006E509A42420F91207C230
:1040C300E9F508740C12183DAC82AD837A1B75F0C8
:1040D30006E509A42421F91207C2E94208740C1267
:1040E300183DAC82AD837A1B75F006E509A4242242
:1040F300F91207C2E94208740C12183DAC82AD8371
:104103007A1075F006E509A42423F91207C2E942DF
:1041130008740C12183DAC82AD837A1075F006E575
:1041230009A42424F91207C2E94208740C12183DA9
:10413300AC82AD837A0475F006E509A42425F9124F
:1041430007C2E94208851882851983AC82AD837A58
:104153000C74702509F91207C2E942088003750837
:1041630000A90874351218087F0802191B74F71286
:104173001849E9FE9003EAF01206187F0102191BA1
:1041830074F2121849890AEAFEEBFFEE5400F8EFC5
:104193005480F9E84960359003EAE0F91204088A8B
:1041A3000C8B0DA80CA90D88088909E8496012AA8F
:1041B30008AB09120642E96008AA08AB091203F624
:1041C300E9EE6400FAEF6480FB024287EE5402607A
:1041D3002D7C007D007A007B001205F4E960187ADB
:1041E300017B009003EAE0F9120420E9EE6402FA8D
:1041F300EF6400FB0242877A027B00024287EEA251
:10420300E0507D90049EE0F8A3E0F5838882A3A3A9
:10421300A3E0FAA3E0FB120678E9605E900404E0F1
:10422300F8A3E0F9E8496045900404E0F8A3E0F559
:10423300838882A3A3E0F8A3E0F9E849602F7C0018
:10424300790190049EE0F8A3E0F5838882A3A3A3F9
:10425300E0FAA3E0FB900404E0F8A3E0F58388828E
:10426300A3A3E0F8A3E0F583888212184712067E21
:10427300EE6401FAEF6400FB800A7A017B0080049C
:104283007A007B007F0602191B74F7121849EAFEB5
:10429300EBFF7508018E828F83E024506013146056
:1042A3001924E1701CEEFAEFFB1205D6E9F508803C
:1042B30010EEFAEFFB1206488007EEFAEFFB120648
:1042C3004EA9087F0102191B74F7121849EAFEEB85
:1042D300FF8E828F83A3A3A3A3E0641E70117900D2
:1042E3008E828F83A3A3E0FAA3E0FB1205BEE97FCE
:1042F3000102191B74F6121849EAFEEBFF8E828F36
:1043030083A3A3A3A3E0703A8E088F09850882854F
:104313000983A3A3A3A3A3A3A3121A738508828566
:104323000983A3A3A3A3A3E0FCA3E0FD85088285DF
:104333000983A3A3E0FAA3E0FB1205C474021218D5
:1043430008E97F0202191B74F7121849EAFEEBFF12
:104353009003EAE0F98E828F83A3E0FAA3E0FB12D5
:104363000D50E97F0102191BC082C08374FF12172D
:10437300F2120624E9C39402400B8518828519833F
:104383007402F08009851882851983740AF08518F0
:1043930082851983AC82AD837A017905120B46E9D4
:1043A3007401121808D083D08202013574F21218F6
:1043B3004974E81217F2EAFEEBFF890A8C088D09AB
:1043C3007C187D007900851882851983AA82AB83C6
:1043D3001203E48A0C8B0DAC0CAD0D851882851984
:1043E30083EEF0A3EFF09003ECE0C0E07402121848
:1043F3003DD0E0F09003EDE0C0E0740312183DD02F
:10440300E0F0900C00E0C0E0741712183DD0E0F02B
:10441300741512183DE054FEF8A3E054FFF9900B15
:10442300FFE0A2E0E433FA7B00E84AF8E94BF974D1
:104433001512183DE8F0A3E9F0900BFFE0A2E1505C
:1044430004D2F08002C2F0741512183DE054FDFA54
:10445300A3E054FFFBA2F0E433F87900C333F8E997
:1044630033F9EA48F8EB49F9741512183DE8F0A35B
:10447300E9F0900BFFE0A2E35004D2F08002C2F017
:10448300741512183DE054F7FAA3E054FFFBA2F0B1
:10449300E433F50C750D007403780C1217DFEA454D
:1044A3000CF8EB450DF9741512183DE8F0A3E9F08B
:1044B300900BFFE0A2E45004D2F08002C2F0741526
:1044C30012183DE054EFFAA3E054FFFBA2F0E433EB
:1044D300F50C750D007404780C1217DFEA450CF81F
:1044E300EB450DF9741512183DE8F0A3E9F0900BB4
:1044F300FFE0A2E55004D2F08002C2F07415121856
:104503003DE054DFFAA3E054FFFBA2F0E433F50CE3
:10451300750D007405780C1217DFEA450CF8EB45AE
:104523000DF9741512183DE8F0A3E9F0900BFFE0C4
:10453300A2E25004D2F08002C2F0741512183DE0DA
:1045430054FBFAA3E054FFFBA2F0E433F50C750D22
:10455300007402780C1217DFEA450CF8EB450DF9ED
:10456300741512183DE8F0A3E9F09003EDE0602A1A
:10457300750C10750D00780C121A5C7CEE7D0374BB
:104583000612183DAA82AB831203CC7402121808D8
:104593008A0C8B0D850C82850D839003FEE06012DF
:1045A300E50A600E741512183DE04402F0A3E044DE
:1045B30000F09003FEE06006780179008004780043
:1045C3007900741412183DE048F09003EBE06006A4
:1045D30078047900800478007900741412183DE09F
:1045E30048F0AC08AD09851882851983AA82AB838C
:1045F300120A5CE974181218087F0602191B74F773
:10460300121849EAFEEBFF7508009003FEE060060E
:1046130078017900800478007900E842089003EB80
:10462300E0600678047900800478007900E84208A5
:10463300A908EEFAEFFB120B16E97F0102191B74AE
:10464300EE12184974E51217F28A0C8B0DE9FF8CF0
:10465300088D09742D12183DE0F50A740865097078
:104663000A75F006EFA42422FE800875F006EFA475
:104673002421FE7C1B7D007900851882851983AA7D
:1046830082AB831203E48A108B1185100E85110F00
:10469300851882851983AC82AD837A1BEEF91207E4
:1046A300C8E9703C741A12183DE0C3940740317492
:1046B3001A12183DE0C394115026E50AF50B780B46
:1046C300121A60740112183DAC82AD83E508A2E0B2
:1046D300E433F9AA0CAB0D120A6E7401121808E93F
:1046E300741B1218087F0A02191B74F71218491257
:1046F3000DC2E97E00EEC3940A50557C0679FFEEA5
:10470300FA7B00EA75F00EA4CAA8F075F000A4289D
:10471300F875F00EEBA428FB74062AFA74043BFB2D
:10472300120444E97027EEF87900E875F00EA4C886
:10473300AAF075F000A42AFA75F00EE9A42AF97418
:104743000628FA740439FB7900120DC8E90E80A516
:104753007F0102191B74F612184974FD1217F2EA4D
:10476300FEEBFF9004A0E0F8A3E0F9E84970397587
:1047730008A27509047808121A5C75080275090005
:104783007808121A5C7508C57509817808121A5CD5
:104793007CFF7DFF7A017B00120C18740612180847
:1047A3009004A0EAF0A3EBF09004A0E0F8A3E0F9F2
:1047B300E8497003024879E4F508F5097808121A04
:1047C3005C740412183D8582088583097808121ADF
:1047D3005C740412183D8582088583097808121ACF
:1047E3005C9004A2121A7379029004A0E0FCA3E087
:1047F300FDEEFAEFFB120D3E7408121808E9704A39
:10480300851882851983E0FA7B00740112183DE054
:10481300F87900E4C8F9EA28F508EB39F509E50861
:10482300450960267808121A5C9004A0E0F8A3E01A
:10483300F5838882A3A3A3A3E0FCA3E0FDEEFAEF34
:10484300FB1205C47402121808E9E4F508F50978A7
:1048530008121A5C9004A2121A737CFF7DFF900465
:10486300A0E0FAA3E0FB120C2474041218089004CD
:10487300A0EAF0A3EBF09004A0E0F8A3E0F9E84984
:10488300700479018002790074031218087F020210
:10489300191BC082C08390049EE0F8A3E0F9E849A5
:1048A300601790049EE0FAA3E0FB1203F6E9F89088
:1048B300049E7400F0A37400F0900C01740AF0D00D
:1048C30083D082020135C082C083E9900CEFF002ED
:1048D3004AF374F7121849E990065AF07C927D0660
:1048E3007AFF7BFF120D5690065B74FFF0A3F0A3D3
:1048F300E4F0A3F07905120CE490065AE0F9120CE7
:10490300007A6E7B0D120F127F0102191B74F412D1
:1049130018498A088B09EB5480603090065AE0F9F5
:104923001204088A0A8B0BAE0AAF0BEE4F60138E8C
:10493300828F83E064B07003120CF6EEFAEFFB1281
:1049430003F6AA08E5096480FB80047A007B000271
:104953004AC274F212184974FC1217F2EAFEEBFF12
:10496300EE4F6038740212183DEEF0A3EF124D279C
:10497300ECF0A3ED124D27AA82AB83120BFAE9F5F3
:10498300087073741212183D1258DBE50A450B6068
:10499300658E828F83124A03EE4F7005750802807D
:1049A300557A067B001204868A0C8B0DA80CA90D80
:1049B300E8497005750813803D88828983E4124AAB
:1049C3000DA3A3EEF0A3EF125D74E50AF0A3E50BCC
:1049D300F0900660124A959006606017E0FCA3E031
:1049E3008003EAFCEBFD8C828D83124A9570F38C75
:1049F300828D83125800A9087404121808025F7686
:104A0300A3A3A3A3E0FEA3E0FF22F0A3F08882897F
:104A1300832274F2121849890AE975F017A4FEAFCC
:104A2300F090065FE4F090065D124A95600A120466
:104A33008C90065DE4F0A3F0EEFAEFFB1204868A95
:104A4300088B09EA4509602FEEFCEFFD790012039C
:104A5300E490065DE508F0A3E509F07B0080081209
:104A63004A7FE4F0A3F00BEBC3950A40F2E50A900A
:104A7300065FF0790080027913025F76EB75F01719
:104A8300A4F8A9F090065DE028FAA3E0398A82F53C
:104A93008322125596EA4B2274F41218497900EADC
:104AA300A2E0501B7508457509817808121A5C7CD1
:104AB300047D007AF17B0C120CDE74021218087F5D
:104AC3000402191BC082C083900660124AFA601C5C
:104AD30088828983A3A3E06A7003A3E06B88828939
:104AE3008370E8A3A3A3A312559280047A007B00EA
:104AF300D083D082020135126049E8492274EE1254
:104B0300184974FC1217F2EAFEEBFF851882851927
:104B130083E4F0A3F0EE24021257E4EE2405124DD1
:104B230015EE2404F50EEF1250FAE024FE6039244A
:104B3300FC604624FE605224FE605E24FE70030285
:104B43004C1A24FE7003024C9224FE7003024CA103
:104B530024FE7003024CB024FC7003024CBF24FEFD
:104B63007003024CCE024D0B9006797417F0A3E448
:104B7300124D2F120888024D0B851882851983ACBC
:104B830082AD83120CFC024CDB851882851983AC41
:104B930082AD83120D02024CDB850C08850D09746E
:104BA3000212183DAC82AD838508828509831255B4
:104BB30092120C1E8A0C8B0DAC0CAD0DEC4D6042A9
:104BC300E4F50CF50D780C121A5C750C79750D066D
:104BD300780C121A5C750C7A750D06780C121A5C37
:104BE300740812183D121A73791612558C120D3E61
:104BF3007408121808E9F50C700B1255881208A0F6
:104C0300800F750C01850882850983124D1D12588A
:104C130000850C08024CDE740212183DAC82AD8391
:104C2300850C82850D83125592120C1E8A108B11EE
:104C3300AC10AD11EC4D6043850C82850D83A3A3AD
:104C4300121A737510797511067810121A5C7510A3
:104C53007A7511067810121A5C740812183D121A2C
:104C630073791612558C120D3E7408121808E9F563
:104C730009700B1255881208A6800F750901850C5F
:104C830082850D83124D1D125800850908804C85BD
:104C93001882851983AC82AD83120D08803A85187A
:104CA30082851983AC82AD83120D0E802B85188209
:104CB300851983AC82AD83120D14801C85188285FF
:104CC3001983AC82AD83120D1A800D851882851964
:104CD30083AC82AD83120D20E9F508E50860298EC7
:104CE300828F83A3E06414601F850E82850F83E0A7
:104CF300900679124D2712604590067A125800E506
:104D030008A3124D2F120882EEFAEFFB120CA20237
:104D130056ECF50CEF3400F50D221260498518822C
:104D230085198322F085188285198322F07C797D89
:104D330006850A82850B831255962274EE12184952
:104D430074FC1217F28A0A8B0B8C0E8D0FEA240562
:104D5300F508EB3400F5097C157D0079007A797B41
:104D6300061203E4E5082402F50CE509124D188543
:104D730018828519838582108583117810121A5C35
:104D8300850882850983A3A3A3A3125242121A5C46
:104D9300E5082405F510E5093400F5117810121A19
:104DA3005C850C82850D8312559C120C18740612B7
:104DB30018088A108B11AE10AF11E50A2402F50A08
:104DC300E50B1257E7EE4F7003024F04801774028E
:104DD30012183D12559288828983EAF0A3EBF09072
:104DE3000679E004F0900679E0C394054003024F8E
:104DF30004E4F510F5117810121A5C751062751140
:104E0300067810121A5C7510637511067810121A61
:104E13005C740612183D121A737910EEFCEFFD1242
:104E2300558C120D3E7408121808E9705E850882CD
:104E3300850983A3A3A3A3A3A3A3E0F8900662E039
:104E4300687048125242121A5C7C637D06E508249E
:104E530008FAE5093400FB1203DE7402121808E9AC
:104E630060298E828F83A3A3A3A312559290067900
:104E7300E0F510740278101217DF747A2510F582AA
:104E830074063511F583EAF0A3EBF0740212183DB2
:104E93008582108583117810121A5C740212183DF2
:104EA300121A73850C82850D8312605A120C2474B6
:104EB300041218088A108B11AE10AF11900679E016
:104EC300F510751100740278101217DF747925102C
:104ED300F874063511F988828983A3124A95700301
:104EE300024DC8E82403F8E93400F9EE4F600302E9
:104EF3004DD18882898374FFF0A3F0900679E00492
:104F0300F0900679E0600A125588120894790080BF
:104F13000B8508828509831257F7790A0256EC74C8
:104F2300EA12184974FE1217F28C128D13EA240543
:104F3300F50CEB126064124A07750800750900EA64
:104F43002402F510EB3400F5118518828519838549
:104F5300820A85830B780A121A5C850C82850D837D
:104F6300A3A3A3A3125104121A5CE50C2405F50AAA
:104F7300E50D1257E7780A121A5C850C82850D83BA
:104F8300126058120C1874061218088A0A8B0BEA5E
:104F9300450B70030250B5EA2404F50EEB1250FAE8
:104FA300124A078A828B83A3A3A3E0F98510828523
:104FB3001183125592120C06E9F50960030250B5EC
:104FC300E4F514F5157814121A5C75146275150658
:104FD3007814121A5C7514637515067814121A5C2A
:104FE300740612183D121A737913AC0AAD0B8510AF
:104FF30082851183125592120D3E7408121808E926
:10500300F50960030250B5900662E0F8E5087009FF
:10501300E0240290067AF0801790067AE0FCE824F8
:1050230002FAE43400FBEA6C7001EB60030250B94E
:10503300850882AA82125239941412523150738510
:105043000E82850F83E0C0E0747B2A1250F1D0E01A
:10505300F00508850E82850F83A3E0C0E085080A6A
:10506300747B250A1250F1D0E0F005089006621215
:105073005104121A5C7C637D0685080A747B250A39
:10508300FA74063400FB1203CC740212180890065B
:1050930062E02508F50874FF6E700374FF6F6012F9
:1050A300EE24010EEF3400FFE508C394145003020D
:1050B3004F4CE508601312547D85108285118312CD
:1050C300559212089A79008014E509700375090A4C
:1050D300851282851383EEF0A3EFF0A909740212FF
:1050E30018087F0E02191B85080C747B250CF582AA
:1050F30074063400F583223400F50F850E82F583A0
:1051030022125D872274EE12184974FE1217F28C74
:105113000E8D0FEA2405F50CEB124D18750B00905C
:105123000679E4F0F50AEA2402F508EB3400F50900
:105133008049900679E0FA900662E0F812523994B9
:1051430017125231400D900679E0F87416C3989007
:105153000662F0125242121A5C7C637D06747A2A4C
:10516300FA74063400FB1203CC740212180890067A
:1051730062E0F8900679E028F0050AE50C2416F5BC
:1051830082E50D1250F5E0F8E50AC3984003025298
:105193001A900679E0C39416507DE50AC333F8E408
:1051A30033F9E50C28FEE50D39FF8518828519834F
:1051B300AC82AD838E828F83125592120C1E8A109D
:1051C3008B11AC10AD11EC4D7005750B018043E4F0
:1051D300F510F5117810121A5C75106275110678C6
:1051E30010121A5C7510637511067810121A5C742C
:1051F3000612183D121A73791685088285098312DF
:105203005592120D3E7408121808E9F50B7003024B
:1052130051351257F380107C797D06850882850904
:10522300831255921208ACA90B74020256EEE9944C
:1052330000C365D03322EA28F8E43400F9E822E019
:10524300F51075110078102274EA12184974FC12D3
:1052530017F28A0C8B0D8C128D13EA2405F50AEBD9
:105263001257E7750800750900E50A2402F510E5F1
:105273000B3400F511740212183D85820E85830FDD
:10528300780E121A5C850A82850B83A3A3A3A3124B
:105293005D33121A5CE50A2405F50EE50B3400F5BF
:1052A3000F780E121A5C8510828511831257ED1246
:1052B300558C120C1874061218088A0E8B0FAE0E3A
:1052C300AF0FE50C2402F50EE50D3400F50F804019
:1052D3008882898374FFF005081250EA74FFF00591
:1052E30008900662E0F50C750D00780C121A5C7CD0
:1052F300637D0685080C747B250CFA74063400FB69
:105303001203CC7402121808900662E02508F5080F
:10531300EE4F60718E828F83A3A3A3E0F9850E8283
:10532300850F83125592120C06E9F509EE24041237
:105333004D15E97044E4F514F5157814121A5C75EB
:1053430014627515067814121A5C751463751506C4
:105353007814121A5C740812183D121A737911EE3C
:10536300FCEFFD850E82850F83125592120D3E745C
:1053730008121808E9F5096027850C82850D831248
:105383005473125800E508700302545912547D8572
:105393000E82850F831255921208B2790002546E61
:1053A300850882AA82EA9006627009E024049006C6
:1053B3007AF08022E0F890067AE0F514E82404FC01
:1053C300E43400FDEC65147001ED70C012523994A1
:1053D3001212523150B6850C82850D83E0C0E07401
:1053E3007B2A1250F1D0E0F00508850C82850D83ED
:1053F300A3E0C0E01250EAD0E012548F85820C85FE
:10540300830D780C121A5C740412183D121A7385FA
:10541300108285118312605A120C24740412180826
:105423008A0C8B0DAE0CAF0D85080C747B250CF824
:1054330074063400F9EE4F70030252D38518828547
:105443001983E08882898312548FA3E0C0E012504D
:10545300EAD0E00252E1E509700375090A850A8280
:10546300850B83125473125800A90974040250E285
:105473001260498512828513832290067AE0F5F043
:10548300E50884900679F07C797D0622F00508858D
:1054930018828519832274EC12184974FE1217F2CC
:1054A3008A088B098C0E8D0FEA2405FEEB3400FF6E
:1054B300851882851983AC82AD838E828F831255C2
:1054C30092120C1E8A0A8B0BEE2418124D15EA4514
:1054D3000B70030255631256D55032851882851915
:1054E30083125592120D328A108B11EA4511606BAB
:1054F3007912AC0AAD0B8508828509831255928512
:105503001082851183121847E9F50A7058E4F50AE9
:10551300F50B780A121A5C8E828F83A3A3E0F50A37
:10552300780A121A5CEE24031257E4780A121A5C02
:105533008E828F8312559C120D447406121808E94B
:10554300F50A7021850C82850D83E0701F85088222
:105553008509831255921208B88011750A0E8009C5
:10556300750A018004E50A60031257F3850C8285EE
:105573000D83E0600479008002A90A7402121808FE
:105583007F0C02191B7C797D06850A82850B8312A9
:10559300559622E0FAA3E0FB22E0FCA3E0FD850898
:1055A300828509831255962274EE12184974FE12ED
:1055B30017F28A088B098C0C8D0DEA2405FEEB3457
:1055C30000FF750E00851882851983AC82AD838E2A
:1055D300828F83125592120C1E8A0A8B0BEA450B9B
:1055E30070030256C11256D550358518828519832A
:1055F300125592120D328A0E8B0FEA450F605E79B7
:1056030012AC0AAD0B850882850983125592850E6B
:1056130082850F83121847E9F50E60030256C4858D
:1056230008828509831258DBAA0AFB120D268A1009
:105633008B11A810A911E849701E7AFF7BFF120D88
:10564300268A108B11A810A911E849606C888289F9
:1056530083E50AF0A3E50BF0750A008007750E0ECB
:10566300805F050A90065FE0FAE50AC39A504AE5AF
:105673000A75F017A4FAABF088828983A3A3E02A02
:10568300FAA3E03BFB8A828B831257EDEC4D70D279
:10569300750A17750B00780A121A5CEEFCEFFD12FF
:1056A30003CC7402121808EEFCEFFD85088285090D
:1056B300831255921208BE8014750E098003750E6D
:1056C30001126041850C82850D83125800A90E02D8
:1056D300522CE5082402F508E5093400F5098A820D
:1056E3008B83A3A3A3E0A2E52274041218087F0A04
:1056F30002191B74EC1218498C108D11EA2405F55C
:105703000CEB124D18750F00EA2402F50AEB125741
:10571300E7850A82F583125592120D268A088B09B2
:10572300EA450970030257D9750E008071850C8212
:10573300850D83E06401704F8E828F83A3A3121AB9
:10574300738E828F83A3A3A3A3E0F512751300784E
:1057530012121A5CEE2405F512EF3400F5137812D9
:10576300121A5C12558C120D447406121808E9F5CE
:105773000F6014850C82850D83E4F012604185105F
:10578300828511831258007C177D007900EEFAEFB1
:10579300FB1203E48E828F83E4F0A3F0050E9006E0
:1057A3005FE0F8E50EC398501EE50E75F017A4F8F8
:1057B300A9F0850882850983A3A312606E1257EDB1
:1057C300EC4D600302573085088285098374FFF02E
:1057D300A3F0E50F700612558C1208C4A90F0255E9
:1057E30083F50AEF3400F50B22A3E0FCA3E0FD22CE
:1057F3008E828F83126049850E82850F83E8F0A322
:10580300E9F022C082C08390065BE06A7003A3E0E4
:105813006B70067A5B7B0680047A007B00024AF396
:10582300C082C08378008C828D83E06A7003A3E01A
:105833006B7010E875F003A4F8A9F0EC28FAED39C1
:10584300FB8015088C828D83A3A3A3E06A7003A356
:10585300E06B60DF7A007B00024AF374F6121849AA
:10586300120CF08A828B83E582458370067A007B73
:10587300008007A3A3A3A3125592025EF274F2124F
:105883001849E9FE740E12183D1258DB74101218F1
:105893003D125D538C828D83E064027036A31260E7
:1058A3004FF50CA3E0F9A80C74026870037429691E
:1058B3007021750C02750D00780C121A5C780812B1
:1058C3001A5C780A121A5CEEF9120D687406121843
:1058D3000880027901025F76E0F50AA3E0F50B2266
:1058E30074E812184974FB1217F2E98518828519B6
:1058F30083F08A168B17ECFEEDFF751000741D12F2
:10590300183D126045741D12183D1258008E828F87
:1059130083A3A3A3E0A2E4502D741D12183D1255D6
:1059230092120D328A828B83E58245837003025D76
:1059330024790AEEFCEFFDAA16AB17121847E9F516
:10594300106003025D27741F12183D125D5374210A
:1059530012183D1258DB742312183DE0F50EA3E034
:10596300F50F8E828F83E064026003025CD2A31280
:105973006045850882850983A3858212858313EE9A
:105983002406124D1588828983E0FAA3E0F9EA24FC
:1059930000F514E439F5157814121AE6010000280D
:1059A3000128C759070002288C5A0328F9590029EE
:1059B300C35B0129EE5B02298F5B0329C35B0429C7
:1059C3006D5CD25CE50E450F6003025CCD850C82F5
:1059D300850D83125D48FAE9FB8A828B83E0850A91
:1059E30082850B83125D7E121A5C8A828B83A3E00D
:1059F300FCA3E0025C57E50E450F6003025CCD8516
:105A03000A82850B837401F0125D5B850882850928
:105A130083F07C007D008E828F83A3A3A3A3E02465
:105A230001FAA3E03400FB120C1EEA4B60418A82A8
:105A33008B83E02402F8850A82850B83E028F0EA51
:105A43002404F8EB3400F988828983E08512828587
:105A53001383125D90125D7E121A5C8A828B83120D
:105A630057ECE5082403FAE5093400FB025C5C8586
:105A73000A82850B83E02404F07C047D007900AA6C
:105A830012AB131203E4025D27E50E450F60030218
:105A93005CCD125D5BFEA3E0FF850A82850B8374F8
:105AA30004F0EE850882850983F0EF851282851361
:105AB30083F0740312183DAC82AD83EEFAEFFB1250
:105AC3000C1E8A0C8B0DEA450D7003025B708A82F3
:105AD3008B83A3A3124A03740112183D85820E859A
:105AE300830F780E121A5C740512183D121A737C18
:105AF300FF7DFF120C2474041218088B0FEA450F64
:105B03007033850C82850D83125D33121A5C850C0C
:105B130082850D83A3121A737C027D007ACB7B816D
:105B23001209C07404121808E9700A740112183DAE
:105B330074FFF0A3F08E828F83E064027039750CDA
