:020000040000FA
:0600000002011D0223DBDA
:03002B00021C9C18
:0300530002244E36
:03006B00021C6A0A
:10008300022247E5C754F84401F5C779012200006D
:100093000080FB120086B90003020107E47921788E
:1000A30008B800028004F709D8FCE479297802B87B
:1000B30000028004F709D8FCE490028178F1790703
:1000C3008002F0A3D8FCD9FA781A90014D7A01BACC
:1000D30000028007E493A3F608DAF9900971AA8273
:1000E300AB8390014E78C879048015E493A3AC8266
:1000F300AD838A828B83F0A3AA82AB838C828D83A8
:10010300D8E9D9E77582547583B8740312012F7542
:100113008291758300740012012F75D00075813FA1
:10012300751881751902759F00020096C09FF59F8F
:10013300E473D09F22D083D082C09FE493C0E07445
:100143000193C0E0740293F59F2201FFFF0A41630C
:1001530063656C20456E61626C65000002140041AA
:100163006363656C2052616E676500001010104177
:100173006363656C20582D436F6F7264696E61749D
:10018300650000416363656C20592D436F6F726492
:10019300696E6174650000416363656C205A2D4389
:1001A3006F6F7264696E617465000002D78101002C
:1001B30000D18102DD810100007309021D82030069
:1001C30000A00202EB81010000740902DD8101003D
:1001D300008209021B82010000830902EB810100F6
:1001E30000850902DD8101000092090219820000E5
:1001F30000A10202F781030000A40202EB810100C7
:1002030000950902DD8101000093090217820000B5
:1002130000A20202F781030000AA0202EB8101009F
:1002230000A90902DD810100009409021582000082
:1002330000A30202F781030000B00202EB81010078
:1002430000BD09110199010F1264040102D7810154
:100253000000C28102DD810100006E0A020B8201EF
:1002630000006F0A02F781030000BE0202F9810158
:100273000000700A020202020202020202010D00E1
:100283000000100102D781010000D48102DD810149
:1002930000009A0A020582010000C50202DD810105
:1002A30000009B0A02FD81010000158102DD81012E
:1002B30000009C0A021182010000F98002DD810125
:1002C30000009D0A02E981010000A58002DD810191
:1002D30000009E0A02E781010000818002DD8101A6
:1002E30000009F0A02E581010000938002DD810185
:1002F3000000A00A02E381010000B78002DD810152
:100303000000A10A02E181010000078102DD8101F1
:100313000000A20A02DF81010000A30A01E803052D
:100323003F100A0B094B6579666F6264656D6F0256
:1003330001050702031802180418544920424C45CA
:10034300204B6579666F620000000000000000002A
:100353005D08000063086908FF00013075030201AE
:100363000600000000000000000000000000000084
:1003730000000000000000000000000000FFFF0676
:1003830000800CE8030A041202D781010000CE8129
:1003930002DD81010000AB0B02F381030000A20424
:1003A30002D781010000CB8102DD81010000AC0B8B
:1003B30002F381020000A30402D781010000C88177
:1003C30002DD81010000AD0B02F581010000A404F0
:1003D30002F781030000A504104B65792050726574
:1003E30073732053746174650002D781010000C5E3
:1003F3008102DD81010000FE0B020182000000ABDF
:100403000402F781030000AC0402EB81010000FF4A
:100413000BFF0000B4000028002800283075A0005E
:10042300A000A000A00000080008E001F0001000F8
:100433001000100010001000100050005000500079
:1004430010001000D0070000000000000F000100A2
:100453000500307507001000010081FF0000000057
:10046300FF810B9F0B870BFF02020208025000A0C3
:10047300000000E80302D781010000BF8102DD8193
:100483000100008E0C020D82010000E40402DD81F4
:100493000100008F0C021382010000FA0402DD81C7
:1004A300010000900C022182010000FC0402DD81A6
:1004B300010000910C020982080000FD0402DD81A5
:1004C300010000920C020382010000930CFF010063
:1004D300FF2002D781010000BC8102DD8101000001
:1004E300F70C02FB81000000000002F7810300000B
:1004F3004A05691169116911691169116911691154
:10050300691169116911691169116911FD131514D3
:10051300F7131201383DDF0212013847DF021201DF
:100523003885DF02120138CEDF0212013808E002FB
:1005330012013862E00212013883E0021201388CA2
:10054300E002120138D9E00212013802E10212017D
:10055300380CE10212013878E1021201380AE20292
:1005630012013854E2021201388AE20212013816EB
:10057300E30212013857E3021201388EE30212013B
:1005830038A0E302120138BFE302120138C8E302C4
:1005930012013895E4021201380CB103120138F547
:1005A300B703120138ACA303120138E2A30312010B
:1005B3003818A40312013863A503120138D9B6030E
:1005C300120138EFB603120138F9B60312013843AA
:1005D300B703120138AFF302120138C4F302120158
:1005E3003874F402120138B4F402120138CDF40263
:1005F30012013808F50212013855F5021201388745
:10060300F502120138C9F502120138CAF7021201C4
:10061300383CF80212013803B2031201382CB2033A
:100623001201385BB20312013873B203120138B5F9
:10063300B203120138668803120138C1880312011C
:1006430038DE8803120138ED8903120138388A0332
:10065300120138F68A03120138EB8B031201389822
:100663009603120138CF9603120138EE9603120156
:10067300389997031201382E9803120138B698035C
:10068300120138657E00120138EE7E00120138FE39
:100693007E00120138167F00120138367F001201E6
:1006A30038CD7F00120138DB7F0012013871B503AA
:1006B30012013892B50312013823B60312013856DA
:1006C3009C031201387B9C03120138A59C03120181
:1006D30038ACB803120138A15D001201380660007E
:1006E300120138A761001201385B6200120138EE73
:1006F300620012013873630012013898630012011B
:1007030038EE6600120138746700120138A76800DA
:10071300120138E16800120138166900120138D657
:100723006A00120138336B001201387C6B0012012E
:1007330038E76B00120138586C001201388A6C00DC
:10074300120138A26C00120138EB6D00120138FB64
:100753006D00120138166F00120138386F00120154
:10076300386E6F00120138227100120138AF710028
:10077300120138EE7100120138127300120138B001
:10078300B403120138C1B40312013866B503120170
:100793003802B90312013841B903120138DCFF02F0
:1007A300120138FAB2031201380AB3031201381FD7
:1007B300B303120138D3B30312013808B003120193
:1007C300388DB003120138F3B003120138C6AD03FC
:1007D300120138EDAD0312013843AE03120138554F
:1007E300AE03120138A5AE03120138E3AE031201C2
:1007F30038E6AE031201384D8403120138618403D5
:10080300120138DB8403120138BF850312013896C5
:100813008703120138FB8703120138528803120140
:1008230038F87F00120138229F03120138BDA0035C
:100833001201381EA10312013864A103120138DC2E
:10084300F701120138E0F90112013890FB0112019E
:100853003865FC0112013806FD0112013825FD013E
:1008630012013872FE01120138B1FE01120138F98A
:10087300FE01120138C9AA031201381BAB0312018E
:1008830038A5AB031201380CAC0312013867A1037E
:1008930012013891A1031201385FA2031201383A01
:1008A300A3031201385EC80212013825C9021201DE
:1008B300385CC90212013886C902120138E6C9023E
:1008C3001201383CCA02120138A1CA021201383996
:1008D300CB0212013848CC02120138DFCD021201DB
:1008E300386CCE02120138D3CE02120138EACE029E
:1008F30012013804D00212013842D002120138002A
:100903008002120138818302120138098502120123
:10091300386085021201387F8502120138FD850295
:10092300120138938702120138788802120138863F
:100933008C021201385C8D02120138B6FC021201DE
:100943003834FD0212013851FD02120138DAFD027A
:1009530012013805FE0212013897FE02120138A374
:10096300FF021201389DA503120138E2A50312010B
:100973003836A603120138B9A60312013831A7038A
:100983001201386AA70312013881A703120138B292
:10099300A703120138EDA70312013817A8031201A8
:1009A3003841A80312013858A8031201386FA8036D
:1009B30012013886A803120138AFA803120138C206
:1009C300A803120138D8A803120138EBA8031201B7
:1009D3003812A903120138BBB502120138BFB6029F
:1009E300120138F7B6021201381AB702120138257C
:1009F300B70212013848B70212013857B802120180
:100A0300382CB902120138A7B9021201382FBA02E1
:100A13001201386ABA02120138A1BA021201382F40
:100A2300BB0212013808BC0212013868BC02120171
:100A33003873BC02120138F2BC02120138F5BC0251
:100A4300120138F8BC0212013887BD021201388A3C
:100A5300BD02120138BABD02120138E4BD0212010F
:100A630038D2BE0212013884BF02120138F2EE02FC
:100A73001201381AEF0212013848EF021201387FCF
:100A8300EF02120138DDEF0212013828F0021201E1
:100A93003873F002120138B3F002120138F9F00290
:100AA30012013827F102120138E4F102120138EE83
:100AB300F102120138FBF1021201382EF202120187
:100AC30038FAF20212013806F3021201381EF30259
:100AD30012013828F302120138D9B303120138E79F
:100AE300B303120138FFB30312013817B403120121
:100AF3003850CC01120138FCCC0112013877CD01FA
:100B030012013898CE01120138D4CE011201387D7A
:100B1300CF0112013864D001120138C8D10112018A
:100B2300381FD201120138A0D20112013890D3012B
:100B3300120138DDD30112013863D4011201389553
:100B4300D401120138A9D601120138EBD6011201E2
:100B53003809D7011201388CD70112013860D80146
:100B630012013828D9011201381AD802120138EDBE
:100B7300D80212013896D902120138E9D9021201BA
:100B83003899DA0212013825DB0212013811DC022E
:100B930012013840DC0212013853DD021201389B86
:100BA300DD0212013870DE02120138ACDE021201DE
:100BB30038C8DE0212013871B703120138069003F8
:100BC3001201381C90031201384290031201385E5F
:100BD30091031201386891031201389D92031201A7
:100BE30038959303120138C3E402120138F3E50286
:100BF30012013826E60212013870E6021201383774
:100C0300E80212013861BC01120138CBBC011201A8
:100C1300382ABE011201383ABE0112013867BE01FB
:100C2300120138BEBE0112013867BF011201386ECE
:100C3300C00112013838C10112013898C2011201F2
:100C430038DBC20112013880C301120138CDC30160
:100C5300120138F3C30112013801C601120138062B
:100C6300C6011201380BC80112013858C80112011C
:100C730038CBC801120138FEC801120138A0C901DE
:100C830012013849CA0112013881CA01120138849C
:100C9300CA01120138CCCA011201380CCB0112016E
:100CA3003863CB011201388399031201389B9903EE
:100CB300120138E39903120138F9990312013840FC
:100CC3009A03120138549B03120138E19B0312016A
:100CD300382C9C03120138142B00120138202B00EE
:100CE3001201385B2B00120138A02B00120138606F
:100CF3002C00120138E62C001201384B2D00120192
:100D030038772D00120138B02D00120138EE2F0074
:100D1300120138D23100120138B83300120138FB06
:100D230034001201384937001201385B38001201D0
:100D330038A63900120138B63A00120138D33A0006
:100D43001201380E3B00120138303B001201389378
:100D53003B00120138544000120138E940001201EF
:100D6300383A4100120138614100120138B34100A1
:100D7300120138D141001201382B420012013814FC
:100D830043001201388A44001201380E4500120153
:100D930038EAE902120138F4E90212013837EA02AB
:100DA30012013852EA02120138E2EA021201380A49
:100DB300EB0212013847EB021201387EEB021201FB
:100DC30038A7EB021201381CEC0212013831EC0295
:100DD30012013846EC0212013877EC021201388B0B
:100DE300EC02120138B0EC02120138EAEC021201F3
:100DF3003816ED021201384EED02120138FCED02F5
:100E03001201382CEE0212013875EE021201389FDE
:100E1300EE02120138CAEE02120138EFAE031201DC
:100E230038E8A80212013816A90212013864AA028E
:100E330012013844AB0212013863AB02120138E0ED
:100E4300AB0212013823AC0212013879AD02120150
:100E5300383AAE02120138C1B00212013862B1024F
:100E630012013858B20212013855B302120138AFD9
:100E7300B4021201383AB5021201386BAC03120105
:100E830038D4AC0312013828AD031201384FAD0337
:100E930012013880AD0312013849F802120138B645
:100EA300F802120138FDF80212013815FA02120194
:100EB3003811FB02120138F4FB02120138F5BF02AC
:100EC30012013837C00212013809C102120138E297
:100ED300C102120138DCC202120138BEC302120180
:100EE3003827C402120138DDC40212013851C50289
:100EF300120138BDC502120138E6C502120138607D
:100F0300C602120138F9C6021201385EC702120185
:100F13003873C702120138B9C702120138D2C702A7
:100F230012013837C8021201383AC8021201389F39
:100F33009303120138C79303120138059403120176
:100F430038C394031201382A9503120138469503D6
:100F53001201386E95031201389E9503120138ADC4
:100F630095031201382A9603120138509603120191
:100F73003846AB0112013824AD0112013856AF01D6
:100F830012013892AF01120138BFAF01120138A923
:100F9300B001120138F4B0011201383FB10112015E
:100FA3003851B10112013891B101120138C6B101B2
:100FB30012013814B20112013843B201120138662A
:100FC300B201120138B3B20112013838B301120170
:100FD3003852B50112013891B701120138D2B70165
:100FE30012013874B901120138B5B9011201382858
:100FF300BA0112013879BA0112013854BB01120146
:1010030038D39B02120138D19C021201386AA30221
:101013001201388BA50212013856A702120138BEFD
:10102300A802120138754500120138244600120146
:1010330038514600120138974600120138CD470057
:10104300120138FB47001201389149001201380B95
:101053004A00120138264A00120138A14A0012013F
:1010630038FB4B001201385B4D00120138614E0012
:10107300120138C24F00120138DB4F001201383918
:1010830050001201382751001201385A5100120141
:1010930038CA51001201384452001201388E5200EE
:1010A3001201385853001201382D54001201380C24
:1010B30055001201389755001201380556001201E8
:1010C30038795600120138A45600120138635700CC
:1010D300120138C85800120138E5580012013804CB
:1010E3005900120138F559001201381A5A00120139
:1010F30038445A00120138BF5A00120138195B00F4
:10110300120138825C00120138305D00120138711F
:101113005D00120138FF8D021201384D8E0212015B
:1011230038598E02120138378F02120138688F0244
:10113300120138998F0212013819900212013851A5
:101143009002120138A39002120138E090021201BA
:1011530038FD92021201382395021201380E9702CC
:10116300120138F89802120138092B0012013833A2
:1011730097011201386397011201383C9E01120155
:1011830038C19F01120138BEA501120138A6A6017C
:10119300120138E3A60112013806A70112013837FC
:1011A300A70112013840A7011201384AA701120111
:1011B3003838A8011201382EA901120138248201FE
:1011C300120138238601120138298601120138647D
:1011D3008D011201387D9201120138388C031201FE
:1011E30038CE8C03120138E48C031201385A8D0374
:1011F300120138CE8D031201380C8E031201388090
:101203008E03120138F98E03120138028F03120183
:10121300380E8F03120138238F03120138618F03B5
:10122300120138778F03120138D68F031201380069
:1012330080031201380D8003120138278003120145
:1012430038668003120138A4800312013809810330
:101253001201381E81031201382981031201383625
:1012630081031201384D81031201385B810312019E
:1012730038668103120138728103120138818103B8
:101283001201388C8103120138AF810312013856E1
:10129300820312013866820312013880820312012D
:1012A300389D8203120138B98203120138DE8203AA
:1012B300120138E98203120138FE82031201381247
:1012C30083031201387383031201387983031201F4
:1012D300387F83031201388583031201389D83030A
:1012E300120138D08303120138B2E90112013836F2
:1012F300EA01120138E5EA0112013844EC01120156
:101303003865EE0112013851EF0112013886EF0101
:10131300120138A8EF0112013857F0011201384FBA
:10132300F20112013878F2011201380AF3011201B5
:10133300383CF30112013849F301120138A0F301DB
:10134300120138C6F30112013833F601120138369F
:10135300F7011201388EF70112013841DB01120146
:10136300384BDC0112013832DD011201383CDD015A
:101373001201385EDD011201386ADD011201380302
:10138300DF0112013832DF011201384EE001120190
:1013930038A7E0011201380DE201120138ECE20135
:1013A30012013848E301120138B5E301120138F0A4
:1013B300E3011201382FE401120138E8E6011201BA
:1013C3003802E7011201388EE7011201389CE70168
:1013D300120138F5E70112013803E80112013876EA
:1013E300E801120138DAE80112013824E901120197
:1013F300383773001201385973001201387F7500B2
:10140300120138947800120138AC79001201385F68
:101413007A00120138417B0012013824A90312011A
:101423003849A903120138BBA903120138A0D0021D
:10143300120138A9D002120138B2D0021201388940
:10144300D1021201383AD30212013870D3021201C9
:1014530038AAD302120138E0D3021201381AD40297
:101463001201384ED4021201387AD402120138C361
:10147300D402120138FDD40212013846D5021201FA
:10148300389ED502120138D3D5021201382ED60266
:1014930012013868D602120138B9D602120138EFA8
:1014A300D60212013829D70212013857D702120186
:1014B300387AD7021201382EB6031201385AB6030E
:1014C300120138B5B603120138BFB603120138CF83
:1014D300B6031201384BB903120138DBFF01E06692
:1014E300701008A3E066700A08A3E066700408A3FE
:1014F300E06622C3E7960809E7960809E796080914
:10150300E79622C3E09608A3E09608A3E09608A313
:10151300E09622C008C3E096F50808A3E0964208C7
:1015230008A3E096420808A3E09645087001D3D0CB
:101533000822080808EAC0E0EBC0E086F0E7A4FA56
:10154300180986F0E7A42AFA180986F0E7A42AFA0C
:10155300180986F0E7A42AFA1986F0E7A4FBE5F058
:101563002AFA190886F0E7A42BFBE5F03AFA1908E2
:1015730086F0E7A42BFBE5F03AFA18180986F0E7A2
:10158300A4C5F02BFBE43AFA1908E7C5F0C6A42674
:10159300F6E5F03BFBE43AFA1886F0E7A4F6E5F04B
:1015A3000826F6E43B08F6E43A08F6D0E0FBD0E080
:1015B300FA22E4CFC0E0E4CEC0E0E4CDC0E0E4CC66
:1015C300C0E075F020C3E633F608E633F608E633E9
:1015D300F608E633F6181818EC33FCED33FDEE335A
:1015E300FEEF33FFC3EC9709ED9709EE9709EF97E9
:1015F300191919400FFFEC97FC09ED97FD09EE97B8
:10160300FE191906D5F0BEECF709EDF709EEF70957
:10161300EFF7191919D0E0FCD0E0FDD0E0FED0E0DF
:10162300FF2212168D1818181215B512167C1919E7
:10163300192212167C191919080808E61818182017
:10164300E7E01215B512168D18181822090909E7D3
:1016530019191920E7DC080808E618181820E70309
:101663000215B512168D1818181215B512168D1805
:10167300181812167C19191922E4C397F709E4976D
:10168300F709E497F709E497F722E4C396F608E429
:1016930096F608E496F608E496F62260170808081A
:1016A300C6A2E713C618C613C618C613C618C613B0
:1016B300C6D5E0E9226016080808C6C313C618C6D3
:1016C30013C618C613C618C613C6D5E0EA22700996
:1016D300080808226016181818C6C333C608C6338C
:1016E300C608C633C608C633C6D5E0EA22E627F6DF
:1016F3000809E637F60809E637F60809E637F62259
:10170300E026F608A3E036F608A3E036F608A3E0E1
:1017130036F622E026F008A3E036F008A3E036F020
:1017230008A3E036F022C3E697F60809E697F60821
:1017330009E697F60809E697F622C3E096F008A3B0
:10174300E096F008A3E096F008A3E096F022E657AF
:10175300F60809E657F60809E657F60809E657F6C4
:1017630022E056F608A3E056F608A3E056F608A3CF
:10177300E056F622E056F008A3E056F008A3E05640
:10178300F008A3E056F022E0F608A3E0F608A3E091
:10179300F608A3E0F622E6F008A3E6F008A3E6F0D5
:1017A30008A3E6F022E0FAA3E0FBA3E0FCA3E0FD3C
:1017B30022EAF0A3EBF0A3ECF0A3EDF022CAC0E021
:1017C300E6F0A308DAFAD0E0FA22CAC0E0E0A3C543
:1017D30082CCC582C583CDC583F0A3C582CCC58227
:1017E300C583CDC583DAE6D0E0CA22C3E498F8E422
:1017F30099F912182F8026C3E49AFAE49BFBE92097
:10180300E7E912182FE498F8E499F922C3E498F869
:10181300E499F912182FE498F8E499F9C3E49AFAD1
:10182300E49BFB22EB20E7CFE920E7E0B90010BB04
:101833000008E88AF084F8AAF022E4FBC8FA22EB55
:1018430070227B10C833C8C933C9335007C39AC346
:10185300DBF280069A50012ADBEAC833F4C8C933A5
:10186300F4C9FA2275F008E4C833C8C933C933C9C7
:101873009AC99B5004C92AC93BD5F0ECFBC833F481
:10188300C8E4C9FA22600D08C6A2E713C618C61336
:10189300C6D5E0F322600C08C6C313C618C613C628
:1018A300D5E0F422700422600D18C6C333C608C6FF
:1018B30033C6D5E0F41822251810AF08F5184002F6
:1018C30015198008F51840021519D2AF22C0D0258A
:1018D3001810AF08F518500205198008F5185002C2
:1018E3000519D2AFD0D0222518F58210AF08F5180C
:1018F300400215198008F51840021519D2AF851951
:1019030083222518F582E43519F58322E47325181B
:10191300C582C0E0E51934FFC583C0E0E518C3956F
:101923008224F810AF08858319858218800885837F
:1019330019858218D2AFCEF0A3E520F0A37808E68C
:1019430008F0A3DEFAEFF0A3E58124FAF8E608F045
:10195300A3E608F0A3E608F0A30808E608F0A3E668
:1019630008F0A315811581D0E0FED0E0F8158115AC
:10197300811581E8C0E0EEC0E0222518C582C0E0F1
:10198300E51934FFC583C0E0E518C3958224F91037
:10199300AF08858319858218800885831985821885
:1019A300D2AFCEF0A3E520F0A37808E608F0A3DEDB
:1019B300FAEFF0A3E58124FBF8E608F0A3E608F0CC
:1019C300A30808E608F0A3E608F0A315811581D063
:1019D300E0FED0E0F815811581E8C0E0EEC0E0221A
:1019E300851983851882E0A3FEE0A3F5207808E03B
:1019F300A3F608DFFAE0A3FFE0A3C0E0E0A3C0E0A2
:101A0300E0A3C0E0E0A3C0E0E0A3C0E010AF08851E
:101A130082188583198008858218858319D2AFD0EF
:101A230083D082020135851983851882E0A3FEE005
:101A3300A3F5207808E0A3F608DFFAE0A3FFE0A30C
:101A4300C0E0E0A3C0E0E0A3C0E0E0A3C0E010AFCB
:101A5300088582188583198008858218858319D2A1
:101A6300AFD083D08222C0D02518C582C0E0E5194B
:101A730034FFC583C0E0E518C3958224F310AF0893
:101A83008583198582188008858319858218D2AFCA
:101A9300C8F0A3E9F0A3EAF0A3EBF0A37908E70900
:101AA300F0A3D8FAECF0A3EDF0A3EEF0A3EFF0A3CC
:101AB300D0E0F0A3D0E0F0A3D0E0F0A3E520F0A3C2
:101AC300E5F0F0A322851983851882E0C0E0A3E046
:101AD300F9A3E0FAA3E0FBA37808E0F608A3DFFA92
:101AE300E0FCA3E0FDA3E0FEA3E0FFA3E0C0E0A3CE
:101AF300E0C0E0A3E0F5D0A3E0F520A3E0A3F5F078
:101B030010AF08858319858218800885831985821B
:101B130018D2AFD082D083D0E0F8D0E03274048002
:101B230006740280027401C0E0F4041218EAD0E0E3
:101B33001217C0227404800474028000CCC0E0ED4C
:101B4300C0E0E518C39CCCAD1950011D10AF068C45
:101B5300188D1980068C188D19D2AF1217CDD0E0CD
:101B6300FDD0E0FC22D083D082E9C0E0E493A3C39C
:101B730086F0C5F095F0F908E493A386F0C5F095D7
:101B8300F0700BE493A3C3994005E9048002A3E436
:101B930075F002A42582F582E5F03583F583D0E064
:101BA300F9E493A3C0E0E493C0E022D083D082ECB5
:101BB300C0E0EDC0E0E493A3FCE493A3FDED4C602F
:101BC3000D121BFAEC24FFFCED34FFFD80EFE493D0
:101BD300A3FCE493A3FDED4C600D121C39EC24FF30
:101BE300FCED34FFFD80EFD0E0FDD0E0FCE493A3F7
:101BF300C0E0E493C0E022C0E0C3E493960874011C
:101C0300939618400FE4936670080874019366185E
:101C130070007019A3A3C3E49396087401939618F4
:101C2300A3A3400DD0E0D0E0D0E0021BEAA3A3A31E
:101C3300A3A3A3D0E022C0E0C0F088F0E4936670D1
:101C4300080874019366187000A8F0A3A3700BD062
:101C5300F0D0E0D0E0D0E0021BEAA3A3D0F0D0E0C4
:101C630022C2AF02000022C0E074F2121A69A2AFCE
:101C7300E433FED2AFE589A2E04006E589A2E15054
:101C8300031207E5758900758900C2C5751A00EE50
:101C9300A2E092AF7F01021AC8C0E0C0D0E8C0E062
:101CA300E9C0E0E5A8D2AFC2C7751A00A2E7A2E770
:101CB30092AFD0E0F9D0E0F8D0D0D0E03274F51292
:101CC300197DEAFEEBFFEE2434F8EF3400F98808BF
:101CD3008909EE2435F582EF3400F583E0F8EE242C
:101CE30037F582EF3400F583E0F50AEC850AF0A4BA
:101CF300FCAAF0850AF0EDA42AFDE82CF8E43DF9EE
:101D03007A257B0012182FEA850882850983F0F86B
:101D1300740758F97401B900028004C333D9FCFA7B
:101D2300E8131313541FF8EE28F8EF3400F9E824EE
:101D33005DF582E93400F583E05A6008EE2434F55A
:101D430082EF802CEE2434F582EF3400F583E0C07B
:101D5300E0EE2436F582EF3400F583E0F5F0D0E0D1
:101D630084A8F0EE28F8EF3400F9E82438F582E986
:101D73003400F583E0F97F04021A2974F512197D02
:101D8300EAFEEBFFEE2434F582EF3400F583E0C086
:101D9300E0EE2435F582EF3400F583D0E0F08E8257
:101DA3008F83A3A3A3A3A3A3A3C082C0838E828F85
:101DB30083A3A3A3A3A3E0F8A3E0F9D083D082E095
:101DC300C398F508A3E099F509EE247FF582EF3473
:101DD30000F583E064017069EE2480F582EF34003E
:101DE300F583E0F8A3E0F98E828F83A3A3A3A3A3D3
:101DF300A3A3E0FCA3E0FD8E828F83A3A3A3A3A3ED
:101E0300E0FAA3E0FBC3EA9CEB9D5010C3EC98ED12
:101E130099402EC3EA98EB995027800EC3EA98EBBA
:101E2300994007C3EC98ED9940177C0D7D07EEFAB6
:101E3300EFFB1210C7EE247FF582EF3400F583E445
:101E4300F0EE2434F8EF3400F9E8FCE9FDEE243534
:101E5300F582EF3400F583E0F8EE2437F582EF34B2
:101E630000F583E0F50AE508850AF0A4F508AAF071
:101E7300850AF0E509A42AF509E82508F8E43509F7
:101E8300F97A257B0012182FEA8C828D83F0F8747F
:101E93000758F97401B900028004C333D9FCFAE886
:101EA300131313541FF8EE28F8EF3400F9E8245DF8
:101EB300F582E93400F583E05A6008EE2434F582B4
:101EC300EF802CEE2434F582EF3400F583E0C0E09C
:101ED300EE2436F582EF3400F583E0F5F0D0E084AC
:101EE300A8F0EE28F8EF3400F9E82438F582E93455
:101EF30000F583E0F9122AFB021D79C082C08385B5
:101F03001882851983E0F8A3E0F9C3EA9CEB9D509E
:101F130010C3EC98ED99401BC3EA98EB99501480D9
:101F23000EC3EA98EB994007C3EC98ED9940047906
:101F33000180027900D083D08222EAC39CFAEB9D10
:101F4300FB2274EF12197D9005D3E064086005E06D
:101F53006407702A9061C8E06024900601E0F46091
:101F63001DE0F875F003A4C8AAF02AF9740328FE4B
:101F7300740639FF8E828F83A3A3A3E0700302202C
:101F830075906060E0C0E0EE2468F582EF3400F500
:101F930083D0E0F0750C76750D07750800750900A0
:101FA300E5D914F50AE5D95403F50E6017740365F2
:101FB3000E605CE50A6010EE2467F582EF3400F5ED
:101FC30083E0700302205A900771E06401602AEEF7
:101FD3002482F582EF3400F583E060047804800204
:101FE3007800850A08E508C398FA95E0FB120F8389
:101FF3008A088B09EA450970051212CB8074EE2416
:1020030082F582EF3400F583E070048A0C8B0DE5D2
:102013000A6012850C82850D83F50BE5D9F0A315B3
:102023000BE50B70F6EE2482F582EF3400F583E0C6
:10203300604474FC250AF50A780C121B24AC0AA927
:102043000EEEFAEFFB12116374021218D0E9702638
:10205300AA08AB0912087B793D8E828F83A3A3A3C1
:10206300A3E0FA7B00120E57EEFAEFFB1210DF1219
:102073001175790080747403650E6056850A1075B6
:1020830011007810121B24AC0CAD0DAA08AB091279
:10209300113F74021218D0EE2468F582EF3400F574
:1020A30083E064807004747F8001E0F50C780C1287
:1020B3001B28E50EF50C780C121B28A90AAC08ADF9
:1020C30009900601E0FA7B00120E1B74021218D06D
:1020D30080139005D3E06408600BAC0CAD0DEEFAF1
:1020E300EFFB1211CF1212D779017F0A021A29745A
:1020F300F512197D74FC1218BAEAFEEBFF8908A2E7
:10210300AFE433F509C2AF806AEE2463F8EF34001D
:10211300F97A007B00A2AFE433F50AC2AF88828963
:1021230083E0FCA3E0FDEC4D603A88828983E0FA0A
:10213300A3E0FB8A828B83E0FCA3E0FD8882898392
:10214300ECF0A3EDF08A828B83E4F0A3F08882891C
:1021530083E0FCA3E0FDEC4D700A88828983A3A38E
:10216300E4F0A3F0E50AA2E092AF12087B90071413
:10217300E004F0EE2463F582EF3400F583E0F8A386
:10218300E0F9E849603DEE2463F582EF3400F5831E
:10219300E02402FAA3E03400FBEA2402F50AEB345C
:1021A30000F50B780A121B248A828B83E0FCA3E0E0
:1021B300F9EEFAEFFB12110374021218D0E970035F
:1021C30002210C900714E06063900715E0F8900774
:1021D30014E0C398500C740265087050900716E021
:1021E300604A8E828F83A3A3A3A3E08518828519F7
:1021F30083F0A3E4F0900714E0F87402121905E8E1
:10220300F0A3E4F0900714E0F8900713E028F074CB
:1022130002121905AC82AD83851882851983AA82BF
:10222300AB837901120E27900714E4F0E509A2E0CD
:1022330092AF74041218D0021D7900000085218723
:102243008522C622C0E0C0D0E8C0E0E9C0E0EAC011
:10225300E0EBC0E0ECC0E0EDC0E0EEC0E0C008C0E1
:1022630009C00AC00BC082C083C0F0A2AFE433FE32
:10227300C2AF759B00906182E0A2E05012E591A28B
:10228300E0500C7591FE740165217003121F45E047
:10229300A2E55051E591A2E5504B7591DF9005D32E
:1022A300E064076005E064087023740165217035FC
:1022B3007901900601E0FA75F003A4CAA8F028FB9F
:1022C30074032AFA74063BFB1220F28018E0640DB3
:1022D30070139005F5E004F064287002E4F07A00CE
:1022E300E0F91212DD906182E0A2E6400302238E40
:1022F300E591A2E6400302238E7591BF9005D3E0DA
:1023030064057008121205121211800312120B7564
:10231300210012126BE99005D4F0790012125F12BA
:1023230010377A017B009005D2E0F912056F90789F
:1023330003E064427055900775E014F0704DC2AF2E
:1023430012234600782AD0E0F618D0E0F6E59F5431
:102353000770057509FF800375097FC4C0E07829FC
:10236300E6F50808E65509F509740B78081218987C
:10237300D0E02508F8906270E0A2E740F8E8C333A4
:10238300906272F0906270E0D2E0F0906181E0A21E
:10239300E35009E5E9A2E3500375E9F7A3E0A2E7F7
:1023A3005009E591A2E7500375917FEEA2E092AF49
:1023B300D0F0D083D082D00BD00AD009D008D0E09F
:1023C300FED0E0FDD0E0FCD0E0FBD0E0FAD0E0F9B5
:1023D300D0E0F8D0D0D0E032C0E0C0D0C082C0831B
:1023E300906183E0A2E05009E5BFA2E0500375BF0E
:1023F300FEE0A2E15009E5BFA2E1500375BFFDE095
:10240300A2E25009E5BFA2E2500375BFFBE0A2E3DD
:102413005009E5BFA2E3500375BFF7E0A2E45009FA
:10242300E5BFA2E4500375BFEFE0A2E55009E5BFA5
:10243300A2E5500375BFDFE0A2E65009E5BFA2E6BF
:10244300500375BFBFD083D0828088C0E0C0D0E87E
:10245300C0E0E9C0E0EAC0E0EBC0E0ECC0E0EDC002
:10246300E0C0F0E5A7A2E6500FE5A1A2E6500953AC
:10247300A7BF75A1BF1224B3E5A7A2E5500CE5A140
:10248300A2E5500653A7DF75A1DFE5A7A2E1500936
:10249300E5A1A2E1500375A1FDE5A7A2E2500CE579
:1024A300A1A2E2500653A7FB75A1FBD0F00223C4FF
:1024B30074F812197D7521019005D3E06406701537
:1024C3001211938A828B83A3A3A3A3A3A3E0FAA3EA
:1024D300E0FB1211F3A2AFE433FED2AF9005D9E0D3
:1024E300640170187A207B009005D2E0F91205F997
:1024F3007A207B009005D2E0F9120575906182E0A5
:10250300D2E6F0900772E0602185C622801690051E
:10251300D8E064017008E5C654F84405F5C653BE17
:10252300FC1222407401652160E4EEA2E092AF7FC9
:1025330001021A29008E238F24858228858327850B
:102543001882851983E0CEA3E0CF8528828527836F
:10255300EBC9EAC8EDCBECCA75F010C3E833C8E9A0
:1025630033C9EA33CAEB33CBC3EA9EF526EB9FF5B7
:1025730025B35004AB25AA26EC33CCED33CDD5F0EF
:10258300DAAE23AF242274E912197D74F81218BA53
:10259300851882851983ECF0A3EDF08A088B0990E6
:1025A30005D3E024F7C394055006750801022720DC
:1025B3001211938A0A8B0BAE0AAF0BEE4F70030214
:1025C300271DAC08AD097402121905AA82AB831248
:1025D30012238E828F83A3A3750CFF750DFF750ED7
:1025E300FF750F00780C1217647402121905751029
:1025F300FF7511FF7512FF751300781012176478B9
:102603000C79101214F6502A780C791012172975C8
:1026130008017509C8750A00750B007808790C1252
:1026230014F65052850C08850D09850E0A850F0B8B
:1026330080507514017515C875160075170085103F
:102643000885110985120A85130B7808790C12176E
:1026530029781479081214F6401C750800750900CE
:10266300750A00750B017808791012172978087913
:102673000C1216F0800C750801750900750A0075B7
:102683000B00740978081216D1750C19F50DF50EA7
:10269300F50F7808790C1215B58E828F83A3A3A347
:1026A300A3A3A3E0F8A3E0F97AD07B0312182F8841
:1026B3000C890DE4F50EF50F7808790C1216F074F9
:1026C30006121905E0F8A3E0F97AD07B0312182F5C
:1026D300E8FA8A0CE4F50D7808790C1214F6500721
:1026E3007808790C1217299005D3E06408600AE092
:1026F30064066005E06405702D750C0D780C79088F
:102703001214F64021750CF4750DFF750EFF750F4D
:10271300FF7808790C1216F0800C75080075090013
:10272300750A00750B00851882851983E0F8A3E00C
:10273300F5838882780812179974081218D07F10CD
:10274300021A2974F712197D121235900770E0648A
:10275300017010906245E4F0A3F053F4F343FE0CD0
:102763005390F31211E1E5C654804449F5C6E59E42
:10277300547F644970F8906185740FF090076EE0A0
:10278300F47002A3E0604E90076FE0600814601BD2
:1027930014602E804075080175090090076EE0787B
:1027A300081218A7E508F45280802A7508017509F4
:1027B3000090076EE078081218A7E508F45290809D
:1027C3001475080175090090076EE078081218A7C0
:1027D300E508F452A079007F02021A2974F712194E
:1027E3007DE9FEEAFF74016E700C7A807B00900530
:1027F300D2E0F912056F902B0CE493F46008E49394
:10280300F912102B800953C680E59E547F70FA128B
:1028130011E7900770E06401700312104990076E8E
:10282300E0F47002A3E0604B90076FE0600814606F
:102833001A14602C803D75080175090090076EE03D
:1028430078081218A7E508428080287508017509E1
:102853000090076EE078081218A7E50842908013ED
:1028630075080175090090076EE078081218A7E54E
:102873000842A01212351211938A088B09A808A9DD
:1028830009E8496015E5E170FCE82414F582E934B0
:1028930000F583E0F46003E0F5E174016F700A7AF8
:1028A300019005D2E0F91205C90227DA74ED121975
:1028B3007D8A088B098C0A8D0B7413121905780C09
:1028C30012178A7808790C1214F67510017511C85D
:1028D30075120075130050127808790C12172978B5
:1028E3001079081214F650168010780C7908121714
:1028F300297810790C1214F64004790180027900CA
:102903007F0C021A2974ED12197D8A088B098C0A2F
:102913008D0B7413121905780C12178A780C790829
:102923001214F640117808790C121729AA08AB097A
:10293300AC0AAD0B8022751000751100751200757D
:1029430013017810790C121729781079081216F0F0
:10295300AA10AB11AC12AD1380A68A828B837508C3
:10296300FF7509FF750AFF750B0078081217777F4B
:1029730004021A2974F512197D8C828D837808124A
:10298300178A8A828B83780812173DEA2404F8EBAE
:102993003400F98C828D83A3A3A3A3E0FCA3E0FD01
:1029A30088828983C3E09CF0A3E09DF088828983B9
:1029B300C3E09420A3E0944E40268A828B8375085B
:1029C300FF7509FF750AFF750BFF78081217168A42
:1029D300828B83A3A3A3A3E02420F0A3E0344EF0CF
:1029E30002295D74F512197DE9FE900728E0FAA328
:1029F300E0FBEEC333F8E433F974E928F58274801D
:102A030039F583E02AF508A3E03BF5097808121BA2
:102A1300247A407B427C0F7D001225387402121801
:102A2300D08A088B098C0A8D0B741078081216B89B
:102A3300AA08AB097F04021A2974F112197D8A0CC2
:102A43008B0D8C0E8D0F740F121905E0FAA3E0FBAA
:102A53007411121905E0F508A3E0F5097808121BB3
:102A630024EA2401F508EB3400F509E4F50AF50B33
:102A7300780C7908121535750871750902780C7987
:102A830008121535AA0CAB0DAC0EAD0F1225387418
:102A9300021218D08B09EA450960047A0180027A90
:102AA30000EC2AFCED3400FD7413121905E0F8A3C1
:102AB300E0F9E8FEE9FFECF8EDF97A717B02121810
:102AC3002F880889098E828F837808121799ECF86A
:102AD300EDF97A717B0212182F8A088B0974057835
:102AE300081218A78E828F83A3A3A3A3E508F0A3DC
:102AF300E509F07F08021A29C082C083E9906000CB
:102B0300F0D083D08222020135FFFFFFFFFFFFFFDA
:102B1300FFC082C083E9900CF6F0022DA374F71274
:102B23001911E9900512F07C4A7D057AFF7BFF12AB
:102B33000D6790051374FFF0A3F0A3E4F0A3F079FD
:102B430005120CEF900512E0F9120C117A857B0D3A
:102B5300120F357F010219E374F41219118A088BDD
:102B630009EB54806030900512E0F91205578A0A88
:102B73008B0BAE0AAF0BEE4F60138E828F83E06434
:102B8300B07003120D07EEFAEFFB120545AA08E534
:102B9300096480FB80047A007B00022D7274F212B8
:102BA300191174FC1218BAEAFEEBFFEE4F60387489
:102BB30002121905EEF0A3EF122FD7ECF0A3ED12DA
:102BC3002FD7AA82AB83120C0BE9F508707374122A
:102BD300121905123B8BE50A450B60658E828F83C4
:102BE300122C4EEE4F700575080280557A067B0055
:102BF3001205B18A0C8B0DA80CA90DE84970057557
:102C03000813803D88828983E4122C58A3A3EEF035
:102C1300A3EF124024E50AF0A3E50BF09005181288
:102C23002CE09005186017E0FCA3E08003EAFCEBBE
:102C3300FD8C828D83122CE070F38C828D83123A8B
:102C4300B0A90874041218D0024226A3A3A3A3E0D8
:102C5300FEA3E0FF22F0A3F0888289832274F2129C
:102C63001911890AE975F017A4FEAFF0900517E46E
:102C7300F0900515122CE0600A1205B7900515E4D3
:102C8300F0A3F0EEFAEFFB1205B18A088B09EA45CF
:102C930009602FEEFCEFFD7900120533900515E571
:102CA30008F0A3E509F07B008008122CCAE4F0A326
:102CB300F00BEBC3950A40F2E50A900517F0790093
:102CC30080027913024226EB75F017A4F8A9F0905D
:102CD3000515E028FAA3E0398A82F58322123846E3
:102CE300EA4B2274F4121911750800750900740C6B
:102CF300121905123FF8FEE9FF800CE5082401F5DF
:102D030008E5093400F509C3E5089CE5099D50323F
:102D130085080A85090B7403780A1218A7EA250A9D
:102D2300F8EB350BF988828983A3A3A3A3A3A3128A
:102D33003B8BEE650A7003EF650B70BFE8FAE9FBA6
:102D430080047A007B00802774F41219117900EA59
:102D5300A2E0501B7508327509817808121B247C88
:102D6300047D007AF87B0C120CE974021218D07FF0
:102D7300040219E3C082C083900518122DAA601CB7
:102D830088828983A3A3E06A7003A3E06B888289A6
:102D93008370E8A3A3A3A312384280047A007B00C4
:102DA300D083D0820201351242F9E8492274EE122F
:102DB300191174FC1218BAEAFEEBFF851882851903
:102DC30083E4F0A3F0EE2402123A94EE2405122FCA
:102DD300C5EE2404F50EEF1233AAE024FE60392475
:102DE300FC604624FE605224FE605E24FE700302F3
:102DF3002ECA24FE7003022F4224FE7003022F51B9
:102E030024FE7003022F6024FC7003022F6F24FE44
:102E13007003022F7E022FBB9005317417F0A3E4D9
:102E2300122FDF120989022FBB851882851983AC03
:102E330082AD83120D0D022F8B851882851983AC09
:102E430082AD83120D13022F8B850C08850D097437
:102E530002121905AC82AD83850882850983123875
:102E630042120C2F8A0C8B0DAC0CAD0DEC4D604255
:102E7300E4F50CF50D780C121B24750C31750D055A
:102E8300780C121B24750C32750D05780C121B245B
:102E93007408121905121B3B791612383C120D4F98
:102EA30074081218D0E9F50C700B1238381209A106
:102EB300800F750C01850882850983122FCD123A84
:102EC300B0850C08022F8E7402121905AC82AD83F3
:102ED300850C82850D83123842120C2F8A108B11B8
:102EE300AC10AD11EC4D6043850C82850D83A3A31B
:102EF300121B3B7510317511057810121B247510C8
:102F0300327511057810121B247408121905121B4F
:102F13003B791612383C120D4F74081218D0E9F59C
:102F230009700B1238381209A7800F750901850C37
:102F330082850D83122FCD123AB0850908804C8506
:102F43001882851983AC82AD83120D19803A8518D6
:102F530082851983AC82AD83120D1F802B85188265
:102F6300851983AC82AD83120D25801C851882855B
:102F73001983AC82AD83120D2B800D8518828519C0
:102F830083AC82AD83120D31E9F508E50860298E23
:102F9300828F83A3E06414601F850E82850F83E014
:102FA300900531122FD71242F5900532123AB0E54F
:102FB30008A3122FDF120983EEFAEFFB120CAD0206
:102FC300399CF50CEF3400F50D221242F985188275
:102FD30085198322F085188285198322F07C317D3F
:102FE30005850A82850B831238462274EE12191165
:102FF30074FC1218BA8A0A8B0B8C0E8D0FEA240507
:10300300F508EB3400F5097C157D0079007A317BF6
:1030130005120533E5082402F50CE509122FC885CE
:1030230018828519838582108583117810121B24D9
:10303300850882850983A3A3A3A31234F2121B2458
:10304300E5082405F510E5093400F5117810121B85
:1030530024850C82850D8312384C120C29740612B8
:1030630018D08A108B11AE10AF11E50A2402F50AAD
:10307300E50B123A97EE4F70030231B480177402D6
:1030830012190512384288828983EAF0A3EBF09083
:103093000531E004F0900531E0C3940540030231AB
:1030A300B4E4F510F5117810121B2475101A75117C
:1030B300057810121B2475101B7511057810121B4F
:1030C300247406121905121B3B7910EEFCEFFD1256
:1030D300383C120D4F74081218D0E9705E850882CF
:1030E300850983A3A3A3A3A3A3A3E0F890051AE0F0
:1030F3006870481234F2121B247C1B7D05E50824FA
:1031030008FAE5093400FB12052D74021218D0E900
:1031130060298E828F83A3A3A3A312384290053123
:10312300E0F510740278101218A774322510F58296
:1031330074053511F583EAF0A3EBF0740212190557
:103143008582108583117810121B247402121905CD
:10315300121B3B850C82850D8312430A120C3574B6
:10316300041218D08A108B11AE10AF11900531E004
:10317300F510751100740278101218A77431251018
:10318300F874053511F988828983A3122CE0700342
:10319300023078E82403F8E93400F9EE4F600302C3
:1031A30030818882898374FFF0A3F0900531E004B5
:1031B300F0900531E0600A123838120995790080E1
:1031C3000B850882850983123AA7790A02399C7410
:1031D300EA12191174FE1218BA8C128D13EA24051F
:1031E300F50CEB124474122C52750800750900EAB1
:1031F3002402F510EB3400F51185188285198385B7
:10320300820A85830B780A121B24850C82850D8321
:10321300A3A3A3A31233B4121B24E50C2405F50ABC
:10322300E50D123A97780A121B24850C82850D83CB
:10323300124308120C2974061218D08A0A8B0BEA5F
:10324300450B7003023365EA2404F50EEB1233AA2F
:10325300122C528A828B83A3A3A3E0F98510828563
:103263001183123842120C17E9F509600302336522
:10327300E4F514F5157814121B2475141A75150545
:103283007814121B2475141B7515057814121B244E
:103293007406121905121B3B7913AC0AAD0B85108A
:1032A30082851183123842120D4F74081218D0E927
:1032B300F509600302336590051AE0F8E508700923
:1032C300E02402900532F08017900532E0FCE824F8
:1032D30002FAE43400FBEA6C7001EB600302336929
:1032E300850882AA821234E994141234E15073855A
:1032F3000E82850F83E0C0E074332A1233A1D0E03D
:10330300F00508850E82850F83A3E0C0E085080AD7
:103313007433250A1233A1D0E0F0050890051A1280
:1033230033B4121B247C1B7D0585080A7433250ADC
:10333300FA74053400FB12051B74021218D09005B1
:103343001AE02508F50874FF6E700374FF6F6012AE
:10335300EE24010EEF3400FFE508C394145003027A
:1033630031FCE508601312372D8510828511831215
:10337300384212099B79008014E509700375090A24
:10338300851282851383EEF0A3EFF0A9097402126C
:1033930018D07F0E0219E385080C7433250CF582CF
:1033A30074053400F583223400F50F850E82F5830E
:1033B300221240372274EE12191174FE1218BA8CBD
:1033C3000E8D0FEA2405F50CEB122FC8750B009038
:1033D3000531E4F0F50AEA2402F508EB3400F509B7
:1033E3008049900531E0FA90051AE0F81234E99427
:1033F300171234E1400D900531E0F87416C398902C
:10340300051AF01234F2121B247C1B7D0574322A38
:10341300FA74053400FB12051B74021218D09005D0
:103423001AE0F8900531E028F0050AE50C2416F5BA
:1034330082E50D1233A5E0F8E50AC3984003023490
:10344300CA900531E0C39416507DE50AC333F8E40E
:1034530033F9E50C28FEE50D39FF851882851983BC
:10346300AC82AD838E828F83123842120C2F8A1066
:103473008B11AC10AD11EC4D7005750B018043E45D
:10348300F510F5117810121B2475101A75110578B3
:1034930010121B2475101B7511057810121B247450
:1034A30006121905121B3B791685088285098312BA
:1034B3003842120D4F74081218D0E9F50B7003024D
:1034C30033E5123AA380107C317D05850882850996
:1034D300831238421209ADA90B740202399EE99492
:1034E30000C365D03322EA28F8E43400F9E822E087
:1034F300F51075110078102274EA12191174FC1278
:1035030018BA8A0C8B0D8C128D13EA2405F50AEB7D
:10351300123A97750800750900E50A2402F510E5CB
:103523000B3400F511740212190585820E85830F81
:10353300780E121B24850A82850B83A3A3A3A312EF
:103543003FE3121B24E50A2405F50EE50B3400F5D1
:103553000F780E121B24851082851183123A9D1257
:10356300383C120C2974061218D08A0E8B0FAE0E3B
:10357300AF0FE50C2402F50EE50D3400F50F804086
:103583008882898374FFF0050812339A74FFF0056B
:103593000890051AE0F50C750D00780C121B247CBD
:1035A3001B7D0585080C7433250CFA74053400FB68
:1035B30012051B74021218D090051AE02508F508AD
:1035C300EE4F60718E828F83A3A3A3E0F9850E82F1
:1035D300850F83123842120C17E9F509EE24041201
:1035E3002FC5E97044E4F514F5157814121B2475FE
:1035F300141A7515057814121B2475141B751505FB
:103603007814121B247408121905121B3B7911EE4E
:10361300FCEFFD850E82850F83123842120D4F7425
:10362300081218D0E9F5096027850C82850D8312ED
:103633003723123AB0E508700302370912372D8594
:103643000E82850F831238421209B3790002371EA6
:10365300850882AA82EA90051A7009E0240490057D
:1036630032F08022E0F8900532E0F514E82404FCFF
:10367300E43400FDEC65147001ED70C01234E9947C
:10368300121234E150B6850C82850D83E0C0E074DC
:10369300332A1233A1D0E0F00508850C82850D830F
:1036A300A3E0C0E012339AD0E012373F85820C8545
:1036B300830D780C121B247404121905121B3B850D
:1036C300108285118312430A120C3574041218D028
:1036D3008A0C8B0DAE0CAF0D85080C7433250CF8DA
:1036E30074053400F9EE4F70030235838518828523
:1036F3001983E08882898312373FA3E0C0E0123345
:103703009AD0E0023591E509700375090A850A82AA
:10371300850B83123723123AB0A90974040233923A
:103723001242F985128285138322900532E0F5F067
:10373300E50884900531F07C317D0522F00508858C
:1037430018828519832274EC12191174FE1218BAA7
:103753008A088B098C0E8D0FEA2405FEEB3400FFDB
:10376300851882851983AC82AD838E828F8312384C
:1037730042120C2F8A0A8B0BEE2418122FC5EA452E
:103783000B7003023813123985503285188285195C
:1037930083123842120D438A108B11EA4511606B74
:1037A3007912AC0AAD0B85088285098312384285EC
:1037B300108285118312190FE9F50A7058E4F50A8E
:1037C300F50B780A121B248E828F83A3A3E0F50ADC
:1037D300780A121B24EE2403123A94780A121B244B
:1037E3008E828F8312384C120D5574061218D0E94D
:1037F300F50A7021850C82850D83E0701F85088290
:103803008509831238421209B98011750A0E80099D
:10381300750A018004E50A6003123AA3850C8285C8
:103823000D83E0600479008002A90A74021218D0A3
:103833007F0C0219E37C317D05850A82850B831297
:10384300384622E0FAA3E0FB22E0FCA3E0FD850872
:10385300828509831238462274EE12191174FE12FE
:1038630018BA8A088B098C0C8D0DEA2405FEEB34FB
:1038730000FF750E00851882851983AC82AD838E97
:10388300828F83123842120C2F8A0A8B0BEA450B64
:103893007003023971123985503585188285198371
:1038A300123842120D438A0E8B0FEA450F605E7980
:1038B30012AC0AAD0B850882850983123842850E46
:1038C30082850F8312190FE9F50E6003023974859F
:1038D3000882850983123B8BAA0AFB120D378A10D3
:1038E3008B11A810A911E849701E7AFF7BFF120DF6
:1038F300378A108B11A810A911E849606C88828956
:1039030083E50AF0A3E50BF0750A008007750E0E38
:10391300805F050A900517E0FAE50AC39A504AE565
:103923000A75F017A4FAABF088828983A3A3E02A6F
:10393300FAA3E03BFB8A828B83123A9DEC4D70D253
:10394300750A17750B00780A121B24EEFCEFFD12A3
:10395300051B74021218D0EEFCEFFD850882850961
:10396300831238421209BF8014750E098003750E45
:10397300011242F1850C82850D83123AB0A90E0221
:1039830034DCE5082402F508E5093400F5098A82E8
:103993008B83A3A3A3E0A2E52274041218D07F0AA9
:1039A3000219E374EC1219118C108D11EA2405F538
:1039B3000CEB122FC8750F00EA2402F50AEB123A3A
:1039C30097850A82F583123842120D378A088B09CC
:1039D300EA45097003023A89750E008071850C82ED
:1039E300850D83E06401704F8E828F83A3A3121B26
:1039F3003B8E828F83A3A3A3A3E0F51275130078F4
:103A030012121B24EE2405F512EF3400F51378127D
:103A1300121B2412383C120D5574061218D0E9F506
:103A23000F6014850C82850D83E4F01242F185103A
:103A330082851183123AB07C177D007900EEFAEF8C
:103A4300FB1205338E828F83E4F0A3F0050E9005FD
:103A530017E0F8E50EC398501EE50E75F017A4F8AD
:103A6300A9F0850882850983A3A312447E123A9D97
:103A7300EC4D60030239E085088285098374FFF009
:103A8300A3F0E50F700612383C1209C5A90F0238DE
:103A930033F50AEF3400F50B22A3E0FCA3E0FD228B
:103AA3008E828F831242F9850E82850F83E8F0A3FD
:103AB300E9F022C082C083900513E06A7003A3E09B
:103AC3006B70067A137B0580047A007B00022DA3BA
:103AD300C082C08378008C828D83E06A7003A3E088
:103AE3006B7010E875F003A4F8A9F0EC28FAED392F
:103AF300FB8015088C828D83A3A3A3E06A7003A3C4
:103B0300E06B60DF7A007B00022DA374F6121911BB
:103B1300120D018A828B83E582458370067A007BCE
:103B2300008007A3A3A3A31238420241A274F21296
:103B33001911E9FE740E121905123B8B7410121938
:103B4300051240038C828D83E064027036A3124217
:103B5300FFF50CA3E0F9A80C7402687003742969DB
:103B63007021750C02750D00780C121B2478081255
:103B73001B24780A121B24EEF9120D79740612180D
:103B8300D080027901024226E0F50AA3E0F50B2278
:103B930074E812191174FB1218BAE9851882851991
:103BA30083F08A168B17ECFEEDFF751000741D125F
:103BB30019051242F5741D121905123AB08E828F3F
:103BC30083A3A3A3E0A2E4502D741D121905123898
:103BD30042120D438A828B83E58245837003023F41
:103BE300D4790AEEFCEFFDAA16AB1712190FE9F50B
:103BF300106003023FD7741F12190512400374218A
:103C0300121905123B8B7423121905E0F50EA3E07C
:103C1300F50F8E828F83E064026003023F82A3125A
:103C230042F5850882850983A3858212858313EE75
:103C33002406122FC588828983E0FAA3E0F9EA24D7
:103C430000F514E439F5157814121BAE01000028B1
:103C53000128773C070002283C3D0328A93C0029A2
:103C6300733E01299E3E02293F3E0329733E0429E8
:103C73001D3F823FE50E450F6003023F7D850C82A9
:103C8300850D83123FF8FAE9FB8A828B83E0850A6C
:103C930082850B8312402E121B248A828B83A3E01E
:103CA300FCA3E0023F07E50E450F6003023F7D855D
:103CB3000A82850B837401F012400B850882850903
:103CC30083F07C007D008E828F83A3A3A3A3E024D3
:103CD30001FAA3E03400FB120C2FEA4B60418A8205
:103CE3008B83E02402F8850A82850B83E028F0EABF
:103CF3002404F8EB3400F988828983E085128285F5
:103D0300138312404012402E121B248A828B83128B
:103D13003A9CE5082403FAE5093400FB023F0C85CD
:103D23000A82850B83E02404F07C047D007900AAD9
:103D330012AB13120533023FD7E50E450F600302A2
:103D43003F7D12400BFEA3E0FF850A82850B83743F
:103D530004F0EE850882850983F0EF8512828513CE
:103D630083F07403121905AC82AD83EEFAEFFB12F4
:103D73000C2F8A0C8B0DEA450D7003023E208A82BC
:103D83008B83A3A3122C4E740112190585820E8511
:103D9300830F780E121B247405121905121B3B7C2A
:103DA300FF7DFF120C3574041218D08B0FEA450FF8
:103DB3007033850C82850D83123FE3121B24850C1F
:103DC30082850D83A3121B3B7C027D007A2A7B81B3
:103DD300120A6174041218D0E9700A7401121905E9
:103DE30074FFF0A3F08E828F83E064027039750C48
:103DF30002750D00780C121B248E828F83123A9C5D
:103E0300E5082404FAE5093400FB12051B740212C9
:103E130018D0850A82850B83E0240280097401127D
:103E23001905EEF0A3EFF07401121905123FF4F037
:103E33007401121905A3123FEC023F77E50E450FFB
:103E43006003023F7D850C82850D83123A9DAA167D
:103E5300AB17120D6D850A82850B837402F0EA8518
:103E63000882850983F0851282851383EB023F7AEA
:103E7300E50E450F6003023F7D12400BF8A3E0F906
:103E8300850A82850B837402F0E88508828509839D
:103E9300F0E9851282851383023F7A850C82850DB2
:103EA30083123842120515EAFC8C82A882C3950E50
:103EB300E4950F405FE8650E7002E50F70047C0027
:103EC3008022851882851983E0FAE50E2AFAE50F28
:103ED3003400FBC3EA98EB94005003E08005E50E41
:103EE300CCC39CFCEC850A82850B83F08C0A750B92
:103EF30000780A121B24850C82850D83E0250EFCB5
:103F0300A3E0350FFDAA08AB0912051B74021218B2
:103F1300D0023FD7751007023FD7E50E450F705A01
:103F2300850C82850D831242F5850A82850B837485
:103F330007122C5A123FEC122C5AA3E085128285E9
:103F43001383F0E82402FAE93400FB8A828B83129C
:103F53003FEC12401B123FF4A3124024123FFDF02A
:103F6300E82405F8E93400F988828983123FFDA328
:103F7300124040A3A3A3A3F0805A75100B8055747D
:103F83001D121905123842120D018A828B83E582B4
:103F93004583603D1242F5880C890DE8450D60317B
:103FA300780E121B24780A121B247808121B24741F
:103FB30006121905E0F9EEFCEFFDAA16AB17850C06
:103FC30082850D8312190F74061218D0E9F510803B
:103FD3000375100EA91074051218D07F100219E38F
:103FE300E0F50E750F00780E22E0850882850983BF
:103FF3002212404A221242F9E82212404AA3A32283
:10400300E0F508A3E0F50922850C82850D83E0F82D
:10401300A3E0F5838882E022A3A3F08A828B83A3A3
:1040230022F088828983A3A3A3A322F08A828B83AD
:1040330012403722E0F50A750B00780A22F08882D5
:104043008983A312404A22E0850882850983A3A3BA
:104053002274EE12191174FE1218BA8A0A8B0BEC31
:10406300FAEDFB7414121905E0F510A3E0F51174D1
:1040730016121905E0FE7418121905E0F50EA3E0F7
:10408300F50F851882851983AC82AD83120C2F8AB4
:104093000C8B0DEA450D604985188285198312380A
:1040A30042120D018A828B83E5824583602FA3A38D
:1040B300124003E50845096024780E121B2478108A
:1040C300121B24EEF9AC0CAD0DAA0AAB0B850882CA
:1040D30085098312190F74041218D08006790E8093
:1040E3000279010234DC74F612191174FE1218BA43
:1040F300740C121905123FF8851882851983F07420
:1041030001121905E9F0E4F508F5097808121B24F2
:104113007508027808121B24740412190585820895
:104123008583097808121B24120D5574061218D0C2
:1041330074021218D0806874F7121911EAFEEBFFAB
:1041430089087C4A7D05120D6DEA5402600BA908AB
:10415300EEFAEFFB120C2380027901022B5674F660
:1041630012191174FF6A700374FF6B70168C828DC1
:10417300831241A7E4F08C828D83A3A3A31241A7EA
:10418300A38018120D3D8A088B09A808A909E849DC
:10419300600D8882898374FF122C58A3A3E4F07FF7
:1041A300020219E374FFF0A3F08C828D83A3A32290
:1041B30074F6121911120D3D8A828B83E5824583B1
:1041C3006006A3A3E0FA80027A007B0080D174F238
:1041D3001219118A088B09ECFEEDFF740E121905F2
:1041E300E0F50A120D3D8A0C8B0DA80CA90DE849C8
:1041F3007026EEFCEFFD7AFF7BFF120D3D8A0C8BE0
:104203000DA80CA90DE849700479118016888289DC
:1042130083E508F0A3E509F088828983A3A3E50A6F
:10422300F079007F060219E374EE121911EAFEEB2E
:10423300FF8C088D09890C74141219051242F57448
:1042430016121905123842750D00E849600302423F
:10425300E97402650C60030242E474121219051238
:1042630042FFFCA3E0F9EC2400F50EE439F50FEA74
:10427300F4F8EBF4F9EC58F8E50F59F9E849705CF8
:10428300E5082406F8ED3400F9880A890B8882F5DD
:104293008312430A120D6D8A108B11E50E6510709F
:1042A30004E50F65116042780E121B24850A82858E
:1042B3000B8312430A120D7374021218D0E9F50D21
:1042C3007027780E121B24850882850983A3A31205
:1042D3004308120D8B74021218D0800D750D808067
:1042E30008750D0D8003750D0BA90D0239A18E8282
:1042F3008F831242F922E0F8A3E0F9221242F988EF
:10430300828983E022A3A3E0FCA3E0FDEEFAEFFBA6
:104313002274E812191174E71218BA8518828519E4
:1043230083EAF0A3EBF08C168D17890E75080075E0
:1043330009007431121905E0F512A3E0F513743383
:10434300121905E0F514A3E0F5157435121905E00B
:10435300F50FE50975F003A4F8A9F085188285190E
:104363008312447EE0F47003A3E0F470030244611B
:10437300EE2402F50CEF124474E0700302446185ED
:10438300160A85170B780A121B24AC14AD15AA1252
:10439300AB13120CF574021218D08A0A8B0BEA4580
:1043A3000B7003024461E4F510F5117810121B241D
:1043B30074061219058582108583117810121B2447
:1043C30074091219058582108583117810121B2434
:1043D300851282851383A3A3A3A3121B3B7914AC79
:1043E3000AAD0B8E828F83123842120D4F7408125E
:1043F30018D0E97069850A82850B83A3A3A3A3124E
:1044030042F57402121905123AB0850C82850D83A8
:10441300E0A2E05018A90E7402121905AC82AD8314
:104423008E828F83123842120C47E94208850C8230
:10443300850D83E0A2E15026E50FF50A780A121BE9
:1044430028A90E7403121905AC82AD838E828F8363
:10445300123842120C4174011218D0E942080509BE
:10446300E509C394025003024355A9087419023F96
:10447300DB3400F50D850C82F58322E028FEA3E0F2
:1044830039FF8E828F832274F2121911EAFEEBFF39
:10449300890B7401650B600E7402650B706A7901F8
:1044A300120F53E97062EEFAEFFB120D378A088B95
:1044B30009EA45096047750A00800B7C177D00797E
:1044C30000120533050A900517E0F8E50AC3985072
:1044D30021E50A75F017A4F8A9F0850882850983F8
:1044E300A3A3E028FAA3E039FB8A828B83122DAAC7
:1044F30070C985088285098374FFF0A3F07C4A7D27
:1045030005EEFAEFFB120D6702422674F21219113F
:104513008A088B09ECFEEDFF740E121905123B8B12
:10452300900CF6E0F4603D7A097B0012053FEA4BFC
:1045330060328A828B8374B1F0A3E412401DA3120C
:10454300401BA3E508F0A3E50912456AEEF0A3EFCB
:1045530012456AA3A3E50AF0A3E50BF0900CF6E07D
:10456300F912054B024226F08A828B83A3A3A3A3ED
:10457300A322C082C0839061907404F0A37448F0B6
:10458300A37402F09061807440F09061BC7403F0F6
:104593009061877419F0906265741BF0906249E032
:1045A300C3941390619C400A7409F090606674018F
:1045B3008007740DF0906066E4F090619A7433F0B4
:1045C300A37455F09061A0743AF0900770E0640111
:1045D3007009C2919005D7746780059005D77461FF
:1045E300F0902B12E493906186F0902B0CE493F4FB
:1045F3006027E493540FF8906185E0686012E5C684
:1046030054804449F5C6E59E547F644970F8E8F048
:1046130053C680E59E547F70FA79051212BF024794
:10462300F4C082C083E9540FF9906185E069601298
:10463300E5C654804449F5C6E59E547F644970F845
:10464300E9F053C680E59E547F70FA0247F4C082B6
:10465300C083E5A8F853A87E906181E4F0A3F0A39A
:10466300F0C2BA539AFEC289759B00C2C275E900B3
:1046730075910075BF0075A91175B905906181F039
:10468300A374C0F0A3E4F0D2BA439A0174805842F1
:10469300A80247F4C082C08374F81218BA9005D5F3
:1046A300E0F8A3E0F9E84970030247C59005D5E0B7
:1046B300544060237908851882851983AA82AB83C5
:1046C300121121851882851983AA82AB83120E03E6
:1046D3009005D5E054BFF0E054806010790C7A96D1
:1046E3007B071211219005D5E0547FF0E0A2E05042
:1046F3003190619A7433F0A37455F09061A0743AC9
:10470300F0900770E064017009C2919005D7746757
:1047130080059005D77461F0120E099005D5E05419
:10472300FEF0E05402603190619A743FF0A3745A32
:10473300F09061A0747FF0900770E064017009D27B
:10474300919005D7747180059005D7746AF0120EA5
:10475300099005D5E054FDF0E054046013902B104C
:10476300E493906186F0120E0F9005D5E054FBF0B0
:10477300E054086013902B11E493906186F0120EBD
:104783000F9005D5E054F7F0E054106013902B120E
:10479300E493906186F0120E0F9005D5E054EFF08C
:1047A300E05420600A120E0F9005D5E054DFF0A309
:1047B300E05401600D121049120E159005D6E05415
:1047C300FEF074081218D00247F4C082C083E96077
:1047D3000814600A14600C8013902B108008902B2F
:1047E300118003902B12E493906186F08003F0A371
:1047F300F0D083D08202013574EC12191174F412D3
:1048030018BA851882851983AC82AD837583817547
:10481300829074041217CD902B1093F46003024915
:1048230087907808E0C39402500302496774041226
:104833001905AC82AD8375838175822274081217C2
:10484300CD8518828519838582128583137404129A
:104853001905AC82AD83750EFF750FFF7FFF7E00D8
:10486300750C48750D78801574086E70030248FB4B
:1048730074096E70030248FB740A6E607B850C82B8
:10488300850D83780812178A8C828D83A909E50A1E
:10489300C9F88810741878081216B8E5104508F896
:1048A300C3E098A3E099850C82850D8378081217DD
:1048B3008A40188C828D83741878081216B8E51014
:1048C3004508F8E0C398F8A3E0801C741878081230
:1048D30016B8E5104508FAE9FB8C828D83E0F8A34E
:1048E300E0F9EAC398F8EB99F9C3E8950EE9950F57
:1048F3005006880E890FEEFF0EE50C2404F50CE537
:104903000D3400F50DEEC39413500302486B74FF8E
:10491300650E700474FF650F60238F0874027808B6
:104923001218A774482508F58274783509F5837839
:104933000812178A851282851383E508F0EC240296
:10494300FCED3400FD851282851383A385821285D5
:104953008313740C121905E5826C7003E5836D6093
:10496300030248597508017509007808121B24745D
:1049730002121905AC82AD837AC47B0A1207C17493
:10498300021218D0740C1218D07F0C0219E3C082E3
:10499300C0839061AE7468F0A3746AF0906245744A
:1049A300FBF0A304F053F4FD43FE0290077074017F
:1049B300F09061A0E0643A90619A70237433F0A39D
:1049C3007455F09061A0743AF0740164017009C2E7
:1049D300919005D7746780289005D77461802174FE
:1049E3003FF0A3745AF09061A0747FF074016401E6
:1049F3007009D2919005D7747180059005D7746AB8
:104A03000247F37F080219E3C082C083900722E0C4
:104A13006401700A900727E06004790C8002790032
:104A23000247F4C082C08375E1F1900725E0605B23
:104A330014600914605F14605714705E12105B9069
:104A4300071BE0F97A1C7B071212417AD67BBE7CE6
:104A5300897D8E1212777A557B557C557D00121213
:104A63004D900726E0F912125979011212B39007FB
:104A730019E0F8A3E0C82416F582E83400F583743E
:104A830073F0A37410F079000247F412106180AF41
:104A930012106780AA12106D80A5791280EA74F053
:104AA30012191175D90D900706E0A2E0E433131330
:104AB300F890071BE0C4333354C0484401F5D97858
:104AC30019790788828983A3A3A3E0F5D98882890A
:104AD30083A3A882A983E8641F7003E9640770E3D2
:104AE3007806790788828983A3E0F5D98882898348
:104AF300A3A882A983E8640C7003E9640770E575D1
:104B0300E195900706E0F97A077B07121247900DAB
:104B1300187401F0A37410F0A37469F0A37411F076
:104B2300A37469F0A37411F0A37469F0A37411F072
:104B3300A37407F0A37410F0A37469F0A37411F0C5
:104B4300A3741FF0A37410F0900D267469F0A3747E
:104B530011F0A37469F0A37411F0A37469F0A37442
:104B630011F0A37469F0A37411F0A37469F0A37432
:104B730011F0A37469F0A37411F0900725E06401A8
:104B83009007197012E0F8A3E0F5838882A3A37558
:104B930008007509088010E0F8A3E0F5838882A374
:104BA300A3750804750900750A00750B00780812CF
:104BB3001703750CFF750DFF750EFF750F00780851
:104BC300790C121751900719E0F8A3E0C8240EF5E9
:104BD30082E83400F5837808121799900719E0F8F2
:104BE300A3E0C82414F582E83400F5837413F0902D
:104BF30005D37402F0024A0674F712191190072BB9
:104C0300E02407F5D990071BE0C4333354C0F5D92A
:104C13007819790788828983A3A3A3E0F5D98882C9
:104C23008983A3A882A983E8641F7003E9640770DA
:104C3300E390072BE0601F78197907FAE82413F54E
:104C430082E93400F583E0F5D988828983A3A882B9
:104C5300A9831AEA70E690074BE02407F5D9900779
:104C63001BE0C4333354C04404F5D9781979078859
:104C7300828983A3A3A3E0F5D988828983A3A88229
:104C8300A983E8641F7003E9640770E390074BE0AE
:104C9300601F78197907FAE82433F582E93400F5BF
:104CA30083E0F5D988828983A3A882A9831AEA704D
:104CB300E675E195900D18740DF0A37410F0A374CC
:104CC30069F0A37411F0A37469F0A37411F0A374D1
:104CD30069F0A37411F0A37407F0A37410F0A37424
:104CE30069F0A37411F0A3741FF0A37410F0900D76
:104CF300267469F0A37411F0A37469F0A37411F01E
:104D0300A37469F0A37411F0A37469F0A37411F090
:104D1300A37469F0A37411F0A37469F0A37411F080
:104D2300900719E0F8A3E0C8240EF582E83400F5F3
:104D33008374FFF0A3F0A3F0A3F0900719E0F8A3A6
:104D4300E0C82414F582E83400F5837412F090056A
:104D5300D37401F0FF0219E374F712191190072BB2
:104D6300E02407F5D990071BE0C4333354C0440251
:104D7300F5D97819790788828983A3A3A3E0F5D9A4
:104D830088828983A3A882A983E8641F7003E964E6
:104D93000770E390072BE0601F78197907FAE8247E
:104DA30013F582E93400F583E0F5D988828983A37A
:104DB300A882A9831AEA70E675E195900D18741913
:104DC300F0A37410F0A37419F0A37410F0A3741972
:104DD300F0A37410F0A37419F0A37410F0A3741962
:104DE300F0A37410F0A37419F0A37410F0A3741F4C
:104DF300F0A37410F0900D267469F0A37411F0A35E
:104E03007469F0A37411F0A37469F0A37411F0A38F
:104E13007469F0A37411F0A37469F0A37411F0A37F
:104E23007469F0A37411F0900719E0F8A3E0C824A3
:104E33000EF582E83400F58374FFF0A3F0A3F0A32A
:104E4300F0900719E0F8A3E0C82414F582E83400D1
:104E5300F5837414F09005D37404F002512274F7AF
:104E630012191190072BE02407F5D990071BE0C412
:104E7300333354C04406F5D9781979078882898376
:104E8300A3A3A3E0F5D988828983A3A882A983E891
:104E9300641F7003E9640770E390072BE0601F78D9
:104EA300197907FAE82413F582E93400F583E0F56C
:104EB300D988828983A3A882A9831AEA70E6900716
:104EC3004BE02407F5D990071BE0C4333354C044A7
:104ED30004F5D97819790788828983A3A3A3E0F518
:104EE300D988828983A3A882A983E8641F7003E910
:104EF300640770E390074BE0601F78197907FAE8BD
:104F03002433F582E93400F583E0F5D98882898377
:104F1300A3A882A9831AEA70E675E195900D187427
:104F230013F0A37410F0A37469F0A37411F0A374C5
:104F330069F0A37411F0A37469F0A37411F0A3745E
:104F430069F0A37411F0A37469F0A37411F0A3744E
:104F53001FF0A37410F0900D267469F0A37411F080
:104F6300A37469F0A37411F0A37469F0A37411F02E
:104F7300A37469F0A37411F0A37469F0A37411F01E
:104F8300A37469F0A37411F0900719E0F8A3E0C8C3
:104F9300240EF582E83400F58374FFF0A3F0A3F048
:104FA300A3F0900719E0F8A3E0C82414F582E834CD
:104FB30000F5837415F09005D37403F0025122C0F9
:104FC30082C083900719E0F8A3E0C82406F582E8BD
:104FD3003400F583E40247F174F7121911900601C6
:104FE300E0F875F003A4C8AAF02AF9740328F8744A
:104FF3000639F9E82405FAE93400FB8A828B83E059
:10500300FCA3E0FD88828983A3A3A3A3A3A3A3A3F3
:10501300A3ECF0A3EDF088828983A3A3A3A3A3A3A6
:10502300A3E024FFF8A3E034FFF98A828B83E8F03E
:10503300A3E9F002512274F7121911EAFEEBFF9073
:1050430061D0E0600302511675D90E75D90375D985
:1050530004EE248BF582EF3400F583E5822408F80F
:10506300E5833400F9E0F5D9A3E865827003E965C7
:105073008370F2EE2483F582EF3400F583E5822416
:1050830004F8E5833400F9E0F5D9A3E865827003F9
:10509300E9658370F275E1957908EE248BFAEF34B4
:1050A30000FB1211157904EE2483FAEF3400FB128E
:1050B30011157C00EEF8EFF9ECFAC3E49AFA95E0E7
:1050C300FBEE2AFAEF3BFBEA248AF582EB3400F588
:1050D30083E0C0E0E824AAF582E93400F583D0E058
:1050E300F00C88828983A3A882A983ECC394084027
:1050F300C7EE246FF582EF3400F583E0F8A3E0F9FF
:10510300EE2471F582EF3400F583E8F0A3E9F0793A
:1051130001800279008008F0EEA2E092AF79007F6F
:10512300010219E3C082C08375D90275D90375D909
:105133000575E195EA246FF582EB3400F583E0F819
:10514300A3E0F9EA2471F582EB3400F583E8F0A3D8
:10515300E9F079010247F474F6121911EAFEEBFF44
:105163009007767406F07508767509077808121BA0
:10517300247C01790312115D74021218D075D906CB
:1051830075D903758276758307E0F5D9A3E5826443
:105193007B7004E583640770F075E1959005D3E0B7
:1051A3006408701EEE246FF582EF3400F583E0F897
:1051B300A3E0F9EE2471F582EF3400F583E8F0A360
:1051C300E9F0790102542874F6121911EAFEEBFF93
:1051D3009061D0E070667801900776740BF09005CB
:1051E300D3E0640770197508767509077808121BF0
:1051F300247C01790312115D74021218D0780574AE
:105203000128F5D975D903758276758307E8FAE025
:10521300F5D9A31AEA70F875E195EE246FF582EFDC
:105223003400F583E0F8A3E0F9EE2471F582EF345E
:1052330000F583E8F0A3E9F07901800279000254D4
:105243002874F7121911EAFEEBFF75D90375D90318
:1052530075D90DEE24DDF582EF3400F583E0F5D941
:1052630075E195790412127DEE246FF582EF340017
:10527300F583E0F8A3E0F9EE2471F582EF3400F54D
:1052830083E8F0A3E9F0790102512274F6121911AF
:10529300EAFEEBFF9061D0E0F87480C398FAEE2445
:1052A30082F582EF3400F583E060047804800278AD
:1052B30000E8240BF8EAC39850030253537D099086
:1052C3000776EDF0EE24E2F8EF3400F97A777B0706
:1052D3007C0888828983E08A828B83F08882898331
:1052E300A3A882A9838A828B83A3AA82AB831CECA3
:1052F30070E0EE2482F582EF3400F583E0601D75E3
:1053030008767509077808121B247C097903EEFADD
:10531300EFFB12115D74021218D07D0D74012DF58F
:10532300D975D9037582767583078D08E0F5D9A3FE
:105333001508E50870F675E195790412127DEE24DF
:105343001DF582EF3400F583E4F0A3F079018002C8
:10535300790002542874F6121911EAFEEBFF9061EA
:10536300D0E0F87480C398FAEE2482F582EF34001B
:10537300F583E06004780480027800E82408F8EA02
:10538300C39850030254267806900776740CF09065
:1053930005F0E0900777F09005F1E0900778F09042
:1053A30005F2E0900779F09005F3E090077AF0902A
:1053B30005F4E090077BF0EE2482F582EF3400F5EC
:1053C30083E0601B7508767509077808121B247C37
:1053D300067903EEFA12115D74021218D0780A747A
:1053E3000128F5D975D9037582767583078808E096
:1053F300F5D9A31508E50870F675E195790412123D
:105403007DEE246FF582EF3400F583E0F8A3E0F935
:10541300EE2471F582EF3400F583E8F0A3E9F07927
:1054230001800279007F020219E374F6121911EA6E
:10543300FEEBFF9061D0E0F87480C398FAEE24820B
:10544300F582EF3400F583E060047804800278008D
:10545300E82404F8EAC3985003025507780290073A
:1054630076E8F0EE24F4F582EF3400F583E090075C
:1054730077F0EE2482F582EF3400F583E0601B754C
:1054830008767509077808121B247C027903EEFA63
:1054930012115D74021218D07806740128F5D975BB
:1054A300D9037582767583078808E0F5D9A31508B3
:1054B300E50870F675E195EE2473F582EF3400F597
:1054C30083E4F0EE247FF582EF3400F583E4F0EE1D
:1054D300241DF582EF3400F583E4F0A3F079041280
:1054E300127DEE240DF582EF3400F583E0F8A3E09E
:1054F300F9EE2471F582EF3400F583E8F0A3E9F0C7
:1055030079018002790002542874F612191190610E
:10551300D0E0F87480C398FCEA2482F582EB34006F
:10552300F583E06004780480027800E82404F8EC52
:10553300C398405B79029007767407F0EA24F5F587
:1055430082EB3400F583E0900777F0EA2482F5825A
:10555300EB3400F583E06018750876750907780861
:10556300121B247C020912115D74021218D07906F1
:10557300740129F5D975D903758276758307E9F81E
:10558300E0F5D9A318E870F875E1957901800279FF
:105593000002542874F5121911E9FCA2AFE433F5A3
:1055A3000AC2AF7D0080010DEA246EF582EB340060
:1055B300F583E0F8EDC398501A8D08EA2508F8EB57
:1055C3003400F9E8246AF582E93400F583E06C706D
:1055D300D68024EA246EF8EB3400F9E0FEEA2EFAD2
:1055E300EB3400FBEA246AF582EB3400F583ECF03C
:1055F30088828983E004F0E50AA2E092AF7F030288
:1056030019E374F6121911A2AFE433FDC2AFEA2411
:105613006EF582EB3400F583E014F07C0060368C89
:1056230008EA2508F8EB3400F9E8246BF582E9343D
:1056330000F583E0C0E0E8246AF582E93400F583ED
:10564300D0E0F00CEA246EF582EB3400F583E0F849
:10565300ECC39840CAEA246DF582EB3400F58374F9
:10566300FFF0EA2469F582EB3400F583E4F0EDA260
:10567300E092AF025428C082C083E5A8F8C2AFEA23
:10568300246AF582EB3400F583E9F0EA2469F582B4
:10569300EB3400F583E4F0E8A2E7A2E792AF024718
:1056A300F474F3121911EAFEEBFFECFAEDFB8A82B4
:1056B3008B83A3A3A3A3E0541FF0EE2436F582EF5C
:1056C3003400F583E4F0F50AEEFCEFFD8A828B8368
:1056D300E0C0E0EC245DF582ED3400F583D0E0F02A
:1056E300750B00E50A33333354F8F50C8A828B8348
:1056F300E0F508750900E50B7808121888E508A29B
:10570300E0502FEE2436F8EF3400F988828983E0E5
:10571300F508EE2508F508EF3400F509E508243807
:10572300F582E5093400F583E50CF088828983E08E
:1057330004F0050B050CE50BC3940840AF050A8A7A
:10574300828B83A3AA82AB838C828D83A3AC82AD2D
:1057530083E50AC3940550030256CF7F050219E37C
:1057630074F71219119005FFE0640170030258C128
:105773007A00900605E060030258C17401F0A3E4C7
:10578300F0A3F090066504F090066AF0900608E432
:10579300F0A3F0A3F0A3F090061204F0900638E40F
:1057A300F090061BF0A3F0A3F0A3F0A3F0A3F0A3E3
:1057B300F0900682F0900676F090066B7480F0A36A
:1057C300E4F0900671F09006EDF0A3F0A3F0A3F0DF
:1057D300A3F0A3F0A3F0A3F09006F6F0900685F0F3
:1057E3009006D5F0A3F0A3F0A3F0A3F0A3F0A3F0E9
:1057F300A3F0A3F0A3F09006E1F09006E3F0900687
:10580300DFF09006F9F0A3F0A3F0A3F0A3F0A3F068
:10581300A3F0A3F078FF7905E8246EF582E934005C
:10582300F58374FFF00A88828983A3A882A983EA97
:10583300C3940440E37AFF7B05780D790788828956
:1058430083E0C0E0EA2461F582EB3400F583D0E025
:10585300F088828983A3A882A9838A828B83A3AADF
:1058630082AB83E864127003E9640770D07AFF7B2C
:105873000578E6790588828983A3E0C0E0EA24E617
:10588300F582EB3400F583D0E0F088828983A3A806
:1058930082A9838A828B83A3AA82AB83E864EE7096
:1058A30003E9640570CF9005FFE004F0640170081C
:1058B300900607E0900601F07A037B0680047A00E5
:1058C3007B00025122C082C083900606E4F090065A
:1058D30005F09005FFF0A3F0A374FFF075E1F1026A
:1058E30047F4C082C08378007900900606E0600424
:1058F3007803790688828983A3A3A3A3E0F90247E7
:10590300F474F6121911EAFEEBFFEE2463F582EF4D
:105913003400F583E0F8A3E0F9E84970030259A9DC
:10592300EE2463F8EF3400F97A007B00A2AFE4338E
:10593300F508C2AF88828983E0FCA3E0FDEC4D60EB
:105943003A88828983E0FAA3E0FB8A828B83E0FCB6
:10595300A3E0FD88828983ECF0A3EDF08A828B8338
:10596300E4F0A3F088828983E0FCA3E0FDEC4D70B2
:105973000A88828983A3A3E4F0A3F0E508A2E09256
:10598300AF12087B900713E004F0900714E004F0D3
:10599300EE2463F582EF3400F583E0F8A3E0F9E841
:1059A3004960030259238E828F83A3A3A3E0600F70
:1059B3008E828F83A3A3A3E4F0900600E014F090FB
:1059C30005FFE014F0700690060174FFF08E828FDD
:1059D30083A3A3E4F0900712E0700D900600E06447
:1059E300017005790012125FEEFAEFFB12118D02BE
:1059F300542874F7121911EAFEEBFF8E828F83A3EA
:105A0300A3A3A3E0FA7B00120E57EEFAEFFB1210EA
:105A1300DF121175025122C082C08378E6790588AE
:105A2300828983A3E4F088828983A3A882A983E877
:105A330064EE7003E9640570E69005E774010247BC
:105A4300F374F6121911EAFEEBFFEC2403F8ED34BC
:105A530000F988088909EC2407F8ED3400F9E8FC1B
:105A6300E9FD8C828D83E0F8A3E0F985088285093E
:105A730083E0FAA3E0FB12182FEE240DF582EF3436
:105A830000F583E8F0A3E9F08C828D83E0F8A3E0CE
:105A9300F9850882850983E0FAA3E0FB12182F8BAE
:105AA30009EA45096013EE240DF582EF3400F5830E
:105AB300E02401F0A3E03400F002542874F6121934
:105AC30011EAFEEBFFEE242EF582EF3400F583E0BE
:105AD300FCA3E0FD780079FAECFAEDFB12182FEE47
:105AE300246FF582EF3400F583E8F0A3E9F0780042
:105AF30079FAECFAEDFB12182F8B09EA45096013CA
:105B0300EE246FF582EF3400F583E02401F0A3E087
:105B13003400F002542874EC121911EAFEEBFF74FE
:105B230014121905780812178A12121D8A0C8B0D8C
:105B33008C0E8D0F75100275110075120075130010
