:020000040000FA
:0600000002011D0226C0F2
:03002B00022DA9FA
:03003300022D8B10
:03003B00022E088A
:03004300022D3952
:030053000227364B
:03006B00022DCD96
:1000830002256FE5C754F84401F5C7790122000042
:100093000080FB120086B90003020107E47921788E
:1000A30008B800028004F709D8FCE479297802B87B
:1000B30000028004F709D8FCE490028178AC790B44
:1000C3008002F0A3D8FCD9FA781A90014D7A01BACC
:1000D30000028007E493A3F608DAF9900D2CAA82B4
:1000E300AB8390014E783A79048015E493A3AC82F4
:1000F300AD838A828B83F0A3AA82AB838C828D83A8
:10010300D8E9D9E77582237583BD740312012F756E
:100113008291758300740012012F75D00075813FA1
:10012300751881751902759F00020096C09FF59F8F
:10013300E473D09F22D083D082C09FE493C0E07445
:100143000193C0E0740293F59F2201FF0000B40005
:100153000028002800283075A000A000A000A000FF
:1001630000080008E001F00010001000100010006B
:100173001000100050005000500010001000D00775
:100183000000000000000F000100050030750700AB
:100193001000010081FF00000000FF8506A3068B0D
:1001A30006FF02020208025000A0000000E803025A
:1001B3001A930100000693021893010000830D02B5
:1001C3001293010000B302021893010000840D0290
:1001D3004693010000C902021893010000850D0235
:1001E3003A93010000CB02021893010000860D022E
:1001F3003893080000CC02021893010000870D0217
:100203002293010000880DFF0100FF20021A9301D1
:1002130000000993021893010000EC0D02209300E3
:10022300000000000214930300001903A90CA90C99
:10023300A90CA90CA90CA90CA90CA90CA90CA90C13
:10024300A90CA90CA90C850F9D0F7F0FFFFFE001DF
:10025300110199010F12640401021A930100000CA9
:1002630093021893010000360E02409301000037F9
:100273000E0214930300006B09022A920100003856
:100283000E020202020202020202010D000000102D
:1002930001021A930100000F9302189301000062F8
:1002A3000E023093010000710902189301000063EC
:1002B3000E022E930100009C91021893010000642A
:1002C3000E022C9301000080910218930100006537
:1002D3000E022A9301000083900218930100006626
:1002E3000E022893010000B99002189301000067E1
:1002F3000E025093010000959002189301000068CC
:100303000E022693010000CB9002189301000069AE
:100313000E0224930100008E910218930100006ADB
:100323000E023E930100006B0E01E803053F100A25
:10033300FF00013075030201060000000000000009
:1003430000000000000000000000000000000000AA
:100353000000000000FFFF0600800CE80314090002
:10036300000000000000000000000000000000008A
:100373000000051250002003020A000201060302D6
:10038300F0FF7A656B657A616E670000000000001C
:100393000000000000000000E31400000000D1147E
:1003A300E9140A43686172616374657269737469FD
:1003B300632031000A436861726163746572697313
:1003C3007469632032000843686172616374657203
:1003D30069737469632033001043686172616374E5
:1003E30065726973746963203400024368617261E2
:1003F300637465726973746963203500021A93012B
:1004030000000393021893010000830F024C93032F
:100413000000050D021693010000840F02189301DA
:100423000000950F024E93030000190D021693016D
:100433000000960F021893010000A70F02349303E4
:1004430000001A0D021693010000A80F0218930171
:100453000000B90F023693000000200D021493032D
:100463000000210D021693010000BA0F0218930138
:100473000000CB0F023C93040000270D02169301EA
:100483000000CC0F1201383AFE0112013851FE016F
:1004930012013882FE01120138BDFE01120138E754
:1004A300FE0112013811FF0112013828FF01120168
:1004B300383FFF0112013856FF011201387FFF0157
:1004C30012013892FF01120138A8FF01120138BB53
:1004D300FF01120138E2FF011201380198021201F3
:1004E300380599021201383D9902120138609902C8
:1004F3001201386B99021201388E99021201389D4C
:100503009A02120138729B02120138ED9B0212010A
:1005130038759C02120138B09C02120138E79C0224
:10052300120138759D021201384E9E02120138AE37
:100533009E02120138B99E02120138389F0212013D
:10054300383B9F021201383E9F02120138CD9F02B1
:10055300120138D09F0212013800A0021201382A7A
:10056300A00212013818A102120138CAA102120115
:1005730038DFED0212013807EE0212013835EE02C0
:100583001201386CEE02120138CAEE02120138155C
:10059300EF0212013860EF02120138A0EF021201DC
:1005A30038E6EF0212013814F002120138D1F002DA
:1005B300120138DBF002120138E8F0021201381B95
:1005C300F102120138E7F102120138F3F1021201CC
:1005D300380BF20212013815F20212013867B9031F
:1005E30012013875B9031201388DB903120138A508
:1005F300B903120138AFC4011201385BC5011201FE
:1006030038D6C501120138F7C60112013833C701C4
:10061300120138DCC701120138C3C801120138279F
:10062300CA011201387ECA01120138FFCA01120140
:1006330038EFCB011201383CCC01120138C2CC0196
:10064300120138F4CC0112013808CF011201384AE3
:10065300CF0112013868CF01120138EBCF0112012B
:1006630038BFD00112013887D10112013801D602F7
:10067300120138D4D6021201387DD702120138D0C4
:10068300D70212013880D8021201380CD9021201A4
:1006930038F8D90212013827DA021201383ADB029C
:1006A30012013882DB0212013857DC02120138933F
:1006B300DC02120138AFDC0212013840BC03120124
:1006C300385794031201386D94031201389394033D
:1006D300120138AF9503120138B99503120138EEB0
:1006E3009603120138E69703120138F5E30212016B
:1006F3003825E50212013858E502120138A2E50255
:1007030012013869E702120138E3A4011201384DDE
:10071300A501120138ACA601120138BCA6011201D1
:1007230038E9A60112013840A701120138E9A701EF
:10073300120138F0A801120138BAA9011201381ABE
:10074300AB011201385DAB0112013802AC01120199
:10075300384FAC0112013875AC0112013883AE0178
:1007630012013888AE011201388DB001120138DA56
:10077300B0011201384DB10112013880B1011201EB
:100783003822B201120138CBB20112013803B3018E
:1007930012013806B3011201384EB3011201388E2B
:1007A300B301120138E5B301120138F59D031201BB
:1007B300380D9E03120138559E031201386B9E03B8
:1007C300120138B29E03120138C69F031201385337
:1007D300A0031201389EA0031201387C2E001201DF
:1007E30038882E00120138C32E00120138082F005A
:1007F300120138C82F001201384E3000120138B3ED
:100803003000120138DF30001201381831001201B4
:10081300385633001201383A3500120138203700B8
:10082300120138633800120138B13A00120138C39B
:100833003B001201380E3D001201381E3E0012012A
:10084300383B3E00120138763E00120138983E00D4
:10085300120138FB3E00120138BC4300120138512B
:100863004400120138A24400120138C944001201A5
:10087300381B4500120138394500120138934500F1
:100883001201387C4600120138F247001201387613
:10089300480012013836F70212013840F7021201FC
:1008A3003883F7021201389EF7021201382EF8023C
:1008B30012013856F80212013893F802120138CAAD
:1008C300F802120138F3F80212013868F902120132
:1008D300387DF90212013892F902120138C3F90284
:1008E300120138D7F902120138FCF9021201383625
:1008F300FA0212013862FA02120138E5FA02120111
:10090300382EFB0212013858FB0212013883FB0216
:1009130012013867B5031201380080021201382E24
:1009230080021201387C81021201385C82021201BA
:10093300387B8202120138F882021201383B8302AB
:10094300120138918402120138528502120138D9FA
:1009530087021201387A8802120138708902120163
:10096300386D8A02120138C78B02120138528C0289
:100973001201380CB40312013875B403120138C9DB
:10098300B403120138F0B40312013821B503120184
:10099300380080031201386D8003120138B48003DC
:1009A300120138CC8103120138C88203120138AB1B
:1009B30083031201387EB502120138C0B502120159
:1009C3003892B6021201386BB70212013865B802C9
:1009D30012013847B902120138B0B9021201386660
:1009E300BA02120138DABA0212013846BB02120106
:1009F300386FBB02120138E9BB0212013882BC0214
:100A0300120138E7BC02120138FCBC021201384261
:100A1300BD021201385BBD02120138C0BD021201D2
:100A230038C3BD02120138FC9A03120138249B0318
:100A3300120138629B03120138209C03120138878C
:100A43009C03120138A39C03120138CB9C031201AF
:100A530038FB9C031201380A9D03120138879D035A
:100A6300120138AD9D03120138D2B401120138705E
:100A7300B6011201388BB801120138C7B80112014F
:100A830038F4B801120138D9B90112013820BA017A
:100A930012013864BA0112013876BA01120138B66C
:100AA300BA01120138E3BA011201382EBB01120157
:100AB300386EBB011201389CBB01120138EEBB0139
:100AC3001201387EBC011201381CBF0112013832F9
:100AD300C10112013870C10112013801C3011201B1
:100AE3003846C301120138BDC30112013807C401DE
:100AF30012013805AC0212013884AC0212013846E7
:100B0300B20212013855B302120138BDB402120108
:100B13003854B502120138735E00120138BC5E000E
:100B2300120138E95E001201381C5F0012013829F6
:100B33005F00120138355F00120138475F00120170
:100B4300382E60001201388C6000120138C1600039
:100B53001201380462001201385162001201387523
:100B63006200120138E26200120138A06300120130
:100B730038596400120138C66400120138786500E0
:100B83001201388865001201380F6600120138CE51
:100B93006600120138FB6600120138746700120107
:100BA30038D167001201381B6800120138B16800A0
:100BB3001201387C6900120138316A00120138A62B
:100BC3006A00120138076B00120138716B001201C1
:100BD30038AA6B001201384C6C001201385C6D00AE
:100BE3001201389C6D00120138B96D00120138D81A
:100BF3006D001201381F6E00120138446E0012019D
:100C030038716E00120138EB6E001201382C6F0040
:100C13001201385070001201380071001201385768
:100C23007100120138C17100120138DA710012012A
:100C3300383BA2021201388EA2021201389AA20294
:100C43001201386FA30212013896A302120138D1A0
:100C5300A3021201383DA40212013879A402120141
:100C630038B2A402120138CAA4021201381FA50225
:100C730012013838A50212013881A50212013894F5
:100C8300A502120138AEA502120138C4A502120151
:100C930038F7A6021201383EA80212013840A90211
:100CA3001201383AAA02120138EE7F001201380C01
:100CB30072001201383C72001201380476001201EE
:100CC300385B7700120138247800120138A47900C8
:100CD300120138757A00120138B27A00120138D540
:100CE3007A00120138137B001201381C7B001201B9
:100CF30038667B00120138707B001201381A7C00C1
:100D0300120138F37C00120138477D00120138A923
:100D13007D00120138FC7D001201382B7E00120188
:100D230038687E00120138569301120138BD9601CE
:100D3300120138C39601120138459C01120138BED5
:100D4300A00112013894A401120138BD90031201CD
:100D5300383391031201384991031201388A910300
:100D6300120138C491031201383D920312013878FD
:100D73009203120138EB92031201382993031201F3
:100D8300383293031201383E93031201385A930306
:100D93001201388593031201389B9303120138C45F
:100DA30093031201382794031201381CE90212013C
:100DB300382FE90212013849E90212013872E902B7
:100DC300120138B5E902120138F4E902120138328E
:100DD300EA0212013897EA02120138ACEA02120160
:100DE30038B7EA02120138C4EA02120138DBEA0218
:100DF300120138E9EA02120138F4EA02120138005A
:100E0300EB0212013813EB021201381EEB0212013E
:100E13003841EB02120138E8EB02120138F8EB0219
:100E230012013812EC021201382FEC021201384B76
:100E3300EC0212013870EC021201387BEC02120151
:100E43003890EC02120138A4EC0212013805ED02CD
:100E53001201380BED0212013811ED02120138179D
:100E6300ED021201382FED0212013862ED02120178
:100E73003811E20112013895E20112013844E3010D
:100E8300120138A3E401120138C4E601120138B09B
:100E9300E701120138E5E70112013807E801120101
:100EA30038B6E801120138AEEA01120138D7EA0177
:100EB30012013869EB011201389BEB01120138A8CA
:100EC300EB01120138FFEB0112013825EC0112018D
:100ED3003892EE0112013895EF01120138EDEF015E
:100EE300120138A0D301120138AAD401120138919A
:100EF300D5011201389BD501120138BDD50112016C
:100F030038C9D50112013862D70112013891D701CE
:100F1300120138ADD80112013806D9011201386C1B
:100F2300DA011201384BDB01120138A7DB01120190
:100F33003814DC011201384FDC011201388EDC0158
:100F430012013847DF0112013861DF01120138ED68
:100F5300DF01120138FBDF0112013854E0011201F5
:100F63003862E001120138D5E00112013839E1019C
:100F730012013883E101120138D38C02120138F5D2
:100F83008C021201381B8F021201383092021201B7
:100F930038489302120138FB9302120138DD9402A0
:100FA30012013820AC0312013845AC03120138B7E3
:100FB300AC0312013887CE0212013890CE0212011F
:100FC3003899CE0212013870CF0212013821D102B2
:100FD30012013857D10212013891D102120138C7D8
:100FE300D10212013801D20212013835D2021201A4
:100FF3003861D202120138AAD202120138E4D202B5
:101003001201382DD30212013885D302120138BAE6
:10101300D30212013815D4021201384FD40212013F
:1010230038A0D402120138D6D40212013810D502E6
:101033001201383ED50212013861D502120138433C
:101043007F001201386F7F00120138CA7F0012013E
:1010530038D47F00120138E47F00120138E7BD0263
:10106300120138F1BD021201382FBE021201387885
:10107300BE02120138B2BE021201380CBF021201C5
:10108300382DBF0212013805C2021201380EC20206
:101093001201385BC20212013884C2021201388E77
:1010A300C202120138FAC2021201388CC3021201C1
:1010B30038D6C3021201380CC40212013898C40294
:1010C300120138D9C40212013810C50212013822A4
:1010D300C50212013841C5021201384AC502120184
:1010E3003817C60212013884B7031201382FAA0336
:1010F30012013865AA031201389BAA03120138E6CC
:10110300AB03120138A8BB03120138BEBB031201A3
:1011130038C8BB0312013812BC03120138C4BC0324
:101123001201389CF202120138B1F2021201386145
:10113300F302120138A1F302120138BAF3021201C9
:1011430038F5F30212013842F40212013874F40242
:10115300120138B6F402120138B7F6021201382927
:10116300F70212013809B10312013832B103120137
:101173003861B103120138F9B10312013811B20316
:1011830012013853B20312013898B203120138A383
:10119300B20312013844B3031201381EA80312012B
:1011A3003827A80312013898A803120138ACA80302
:1011B30012013801AA0312013823AA03120138FFCE
:1011C300BA031201380BBB03120138F09703120163
:1011D30038209803120138679803120138129903D3
:1011E300120138A799031201382F9A03120138C844
:1011F300A003120138EDA00312013817A103120155
:10120300387BBD03120138DD4800120138424B0020
:10121300120138E34C00120138974D001201382AAD
:101223004E00120138AF4E00120138D44E001201A5
:10123300382A5200120138B05200120138E3530029
:101243001201381D54001201385254001201381291
:1012530056001201386F5600120138B856001201B9
:1012630038235700120138945700120138C657002B
:10127300120138DE5700120138275900120138379E
:101283005900120138525A00120138745A001201DF
:1012930038AA5A001201385E5C00120138EB5C0078
:1012A3001201382A5D001201384E5E001201383EE9
:1012B300BA031201384FBA03120138F4BA03120108
:1012C30038D1BD0312013810BE03120138C2BE0368
:1012D3001201387BB8031201388BB803120138A608
:1012E300B8031201385AB90312013880B603120148
:1012F3003805B7031201386BB703120138C5AD03C4
:10130300120138EEAD0312013854AE0312013874E2
:10131300AE03120138C5AE0312013820AF03120128
:10132300385AAF031201385DAF03120138ABFB0229
:10133300120138E4FB0212013856FC021201386B29
:10134300FC0212013896FD0212013812FE0212014C
:1013530038D8FE02120138F7FE021201381EFF02CE
:101363001201385BFF0212013873FF02120138C405
:10137300FF02120138C98803120138E08803120101
:10138300385A89031201383E8A03120138158C0337
:101393001201387A8C03120138D18C03120138F808
:1013A3007F00120138D9A50312013874A703120173
:1013B30038D5A7031201381BA803120138E58C03A3
:1013C300120138808D03120138048E031201389DF7
:1013D3008E031201385F8F03120138D48F03120179
:1013E30038FC8F03120138059003120138759003FE
:1013F3001201388890031201389E9003120138A716
:101403009003120138BA900312013867AF03120137
:1014130038B9AF0312013843B003120138AAB0033D
:1014230012013894A303120138BEA3031201388CAE
:10143300A40312013867A50312013845C60212013D
:10144300380CC70212013843C7021201386DC702B4
:10145300120138CDC70212013823C802120138889D
:10146300C80212013820C9021201382FCA02120120
:1014730038C6CB0212013853CC02120138BACC025F
:10148300120138D1CC02120138EBCD0212013829F6
:10149300CE021201383BF001120138BCF3011201F4
:1014A3003844F5011201389BF501120138BAF501F0
:1014B30012013838F601120138CEF701120138B3A0
:1014C300F801120138C1FC0112013897FD01120124
:1014D3003824DD0212013897DD02120138B8E00228
:1014E30012013822E202120138F4E20212013873C7
:1014F300E3021201386D8403120138B2840312012E
:1015030038CF8403120138948503120138FD850313
:10151300120138E186031201389088031201385012
:10152300BE031201381ABE031201387CBE03120136
:1015330038A4BE03E066701008A3E066700A08A32F
:10154300E066700408A3E06622C3E7960809E796FD
:101553000809E7960809E79622C3E09608A3E096F0
:1015630008A3E09608A3E09622C008C3E096F50816
:1015730008A3E096420808A3E096420808A3E09671
:1015830045087001D3D00822E9799EC608CAC60867
:10159300CBC608CCC6C370207996CACBCC70197958
:1015A3008ECBCC70137986CC700EF9802ACA33CADD
:1015B300CB33CBCC33CC331930E7F2CCCBCA33505B
:1015C300147004EA30E00DE4CA3ACACB3BCBCC3CFE
:1015D300CC500209C3E913C6CC182313C6CB18C6D3
:1015E300CA18C6F92212162820F01430E72B74FF0C
:1015F300FCFBFA747F8022E4FCFBFA7480801AB44B
:101603008008BC00F2BB00EF800F50EBF9E4C39AF3
:10161300FAE49BFBE49CFCE499C6CC18C6CB18C641
:10162300CA18C6F922E4C9C608CAC608CBC6D3334A
:101633000308CCC63392F0C3947F402E941840190C
:10164300C9B90704CACBCC225025C309CA33CACBB4
:1016530033CBCC33CC33D9F422F4600DC9CCC313D0
:10166300CB13CBCA13CAD9F6CC22E4FCFBFA22145F
:10167300FCFBFA22E6C33318461846184622E7C392
:101683003319471947194722181818E608460870EE
:101693000AE608C3337005E633F422082219191940
:1016A300E7094709700AE709C3337005E733F422F2
:1016B3000922E6084608C3134608336002E633F4FA
:1016C30022E7094709C3134709336002E733F422CA
:1016D3001216B5601D1216C47005191919801A1255
:1016E300168B701F1216A0C37003E66733191919FE
:1016F30040071818182208080874FFF618F618F699
:1017030018F6221216A06017121681702192F01299
:1017130016777019501720F014080808090909E70B
:10172300F61819E7F61819E7F61819E7F62212164C
:101733007760E6E869701F0808E62480F608E43657
:10174300F618547FB47F0CE654806007F6E418F66D
:1017530018F622181822E9C6CC08C6CD08C6CE084A
:10176300C6CFC0E0E8C0E0EAC0E0EBC0E009E9F8BA
:1017730009E7FA09E7FBE6F918E6F8C3EC98ED99EF
:10178300EE9AEBC2E7F5F0EFC2E795F0500E600C6E
:10179300EBCFFBEACEFAE9CDF9E8CCF8EAA2E7D23F
:1017A300E7FAEB33FB13F5F0EEA2E7D2E7FEEF33F4
:1017B300FFC5F013A2E730E601B313C5F0C3C0E0E1
:1017C300C0F07F00C39BFB605E9418600F401D1444
:1017D300601AD0E023F9D0E0F80218B48AF0E9489F
:1017E3006003D2F0E4AFF0FAF9F8803BEB30E40D9C
:1017F30089F0EA6003D2F0E4AFF0F9CAF8EB30E322
:101803000D88F0EF6002D2F0AFF0E4CAC9F8EB54F0
:10181300076014FBC3EA13FAE913F9E813F8EF13AB
:101823005002D2E0FFDBEDD0E0C0E030E739C3E4A3
:101833009FFFF5F0EC98FC42F0ED99FD42F0EE9A33
:10184300FE42F0D0E0F9D0E0F8E5F0607AE923F960
:10185300EE20E742D8028067C3EF33FFEC33FCEDA1
:1018630033FDEE33FE80EAEC28FCED39FDEE3AFE63
:10187300D0E023F9D0E0F84002801BC3EE13FEED65
:1018830013FDEC13FCEF135002D2E0FF08B800067F
:101893007F7F74FF802EEF3350178CF020F00260AF
:1018A300100CBC000C0DBD00080EBE000408E8605F
:1018B300DFE933E813FFEE2313FE4F4D4C8008E9B5
:1018C3005480FFE4FEFDFCEE33EF33F47004FCFDC3
:1018D3007E80D0E0FBD0E0FAD0E0F8D0E0CFC618AD
:1018E300CEC618CDC618CCC6F9221216B570041888
:1018F3001818221216C4700D74FFF61819F6181969
:10190300F61819F622E7548066F6121677700F124E
:10191300168170F014F608F608F608F680D1121650
:1019230081700CF608F608768008E6447F80EC1296
:1019330016A3700C12168E60BFE65480F6E480BBCB
:1019430012168E700519191980A5E869700C763F77
:1019530018768018F618F6E8F922E6CDC0E018EC00
:10196300C0E0E633CD33CDD313F6E719FCE71919FD
:1019730033CC33C3947F400ECD9D502408E654806E
:10198300F6E418F6800FF4043D14501408E6447F7F
:10199300F6187680E418F618F6D0E0FCD0E0FD22C5
:1019A300CCD313CCFD18E4C6CBC0E018E4C6CAC040
:1019B300E00808ED08C633E613F618E433C675F0FD
:1019C30003C3CA97CA09CB97CB199C40047D0880EF
:1019D3002EBD0003021A9616B6FF05060608161852
:1019E300C3CA33CACB33CB33CA27CA09CB37CB19C4
:1019F3003CC37D08803E187D0820E75CC633C6CA19
:101A030033CACB33CB33DDF1D5F0EB30E77BCA9769
:101A1300CA09CB974ACB199C406F4B7025E620E04F
:101A2300218066187D08C3CA97CA09CB97CB199C36
:101A3300D3C633C6CA33CACB33CB3350C9DDE7D59C
:101A4300F0E1D3E4C636C608C636C608C636C608AD
:101A5300C636C61818188031C3CA97CA09CB97CBA4
:101A6300199CB34097C633C6CA33CACB33CB33DDD5
:101A730034D5F02EC6A2E0C640C8CA27CA09CB3760
:101A8300194A70BECB3CB480B90808E63308E63384
:101A9300601F181818D0E0FAD0E0FBD0E0FCD0E0CB
:101AA300FD22187D08CA27CA09CB37CB193CD3803E
:101AB3008013F618E4B67F11F618B6FF0EF618C6B3
:101AC3000470D20808768080CAF618F618F680C526
:101AD300080808EAC0E0EBC0E086F0E7A4FA1809BA
:101AE30086F0E7A42AFA180986F0E7A42AFA180967
:101AF30086F0E7A42AFA1986F0E7A4FBE5F02AFAB0
:101B0300190886F0E7A42BFBE5F03AFA190886F0EA
:101B1300E7A42BFBE5F03AFA18180986F0E7A4C509
:101B2300F02BFBE43AFA1908E7C5F0C6A426F6E55C
:101B3300F03BFBE43AFA1886F0E7A4F6E5F0082652
:101B4300F6E43B08F6E43A08F6D0E0FBD0E0FA22EC
:101B5300E4CFC0E0E4CEC0E0E4CDC0E0E4CCC0E03C
:101B630075F020C3E633F608E633F608E633F608E5
:101B7300E633F6181818EC33FCED33FDEE33FEEFC5
:101B830033FFC3EC9709ED9709EE9709EF971919FE
:101B930019400FFFEC97FC09ED97FD09EE97FE192D
:101BA3001906D5F0BEECF709EDF709EEF709EFF7E3
:101BB300191919D0E0FCD0E0FDD0E0FED0E0FF22FF
:101BC3006016080808C6C313C618C613C618C6137A
:101BD300C618C613C6D5E0EA2270090808082260B1
:101BE30016181818C6C333C608C633C608C633C684
:101BF30008C633C6D5E0EA22E627F60809E637F633
:101C03000809E637F60809E637F622E026F608A3C0
:101C1300E036F608A3E036F608A3E036F622E0261F
:101C2300F008A3E036F008A3E036F008A3E036F0AE
:101C330022C3E697F60809E697F60809E697F60839
:101C430009E697F622C3E096F008A3E096F008A30E
:101C5300E096F008A3E096F022E056F608A3E056DB
:101C6300F608A3E056F608A3E056F622E056F0087D
:101C7300A3E056F008A3E056F008A3E056F022E0F4
:101C8300F608A3E0F608A3E0F608A3E0F622E6F0E0
:101C930008A3E6F008A3E6F008A3E6F022E0FAA31F
:101CA300E0FBA3E0FCA3E0FD22EAF0A3EBF0A3EC4E
:101CB300F0A3EDF022CAC0E0E6F0A308DAFAD0E020
:101CC300FA22CAC0E0E0A3C582CCC582C583CDC5D4
:101CD30083F0A3C582CCC582C583CDC583DAE6D0A4
:101CE300E0CA22C3E498F8E499F9121D278026C3B9
:101CF300E49AFAE49BFBE920E7E9121D27E498F84C
:101D0300E499F922C3E498F8E499F9121D27E498B9
:101D1300F8E499F9C3E49AFAE49BFB22EB20E7CFBA
:101D2300E920E7E0B90010BB0008E88AF084F8AACC
:101D3300F022E4FBC8FA22EB70227B10C833C8C937
:101D430033C9335007C39AC3DBF280069A50012A82
:101D5300DBEAC833F4C8C933F4C9FA2275F008E4DE
:101D6300C833C8C933C933C99AC99B5004C92AC9DE
:101D73003BD5F0ECFBC833F4C8E4C9FA22600D0884
:101D8300C6A2E713C618C613C6D5E0F322600C0833
:101D9300C6C313C618C613C6D5E0F4227004226066
:101DA3000D18C6C333C608C633C6D5E0F4182225BA
:101DB3001810AF08F518400215198008F5184002ED
:101DC3001519D2AF22C0D0251810AF08F51850024C
:101DD30005198008F51850020519D2AFD0D0222575
:101DE30018F58210AF08F518400215198008F51888
:101DF30040021519D2AF851983222518F582E435DF
:101E030019F58322E4732518C582C0E0E51934FF70
:101E1300C583C0E0E518C3958224F810AF08858315
:101E2300198582188008858319858218D2AFCEF070
:101E3300A3E520F0A37808E608F0A3DEFAEFF0A309
:101E4300E58124FAF8E608F0A3E608F0A3E608F033
:101E5300A30808E608F0A3E608F0A315811581D0CE
:101E6300E0FED0E0F8158115811581E8C0E0EEC0F1
:101E7300E0222518C582C0E0E51934FFC583C0E020
:101E8300E518C3958224F910AF0885831985821854
:101E93008008858319858218D2AFCEF0A3E520F0A0
:101EA300A37808E608F0A3DEFAEFF0A3E58124FBAC
:101EB300F8E608F0A3E608F0A30808E608F0A3E6AE
:101EC30008F0A315811581D0E0FED0E0F815811547
:101ED30081E8C0E0EEC0E022851983851882E0A383
:101EE300FEE0A3F5207808E0A3F608DFFAE0A3FFFD
:101EF300E0A3C0E0E0A3C0E0E0A3C0E0E0A3C0E053
:101F0300E0A3C0E010AF0885821885831980088597
:101F13008218858319D2AFD083D082020135851907
:101F230083851882E0A3FEE0A3F5207808E0A3F6FA
:101F330008DFFAE0A3FFE0A3C0E0E0A3C0E0E0A372
:101F4300C0E0E0A3C0E010AF088582188583198044
:101F530008858218858319D2AFD083D08222C0D05E
:101F63002518C582C0E0E51934FFC583C0E0E51834
:101F7300C3958224F310AF088583198582188008DE
:101F8300858319858218D2AFC8F0A3E9F0A3EAF0DC
:101F9300A3EBF0A37908E709F0A3D8FAECF0A3EDDB
:101FA300F0A3EEF0A3EFF0A3D0E0F0A3D0E0F0A312
:101FB300D0E0F0A3E520F0A3E5F0F0A32285198398
:101FC300851882E0C0E0A3E0F9A3E0FAA3E0FBA355
:101FD3007808E0F608A3DFFAE0FCA3E0FDA3E0FE47
:101FE300A3E0FFA3E0C0E0A3E0C0E0A3E0F5D0A33B
:101FF300E0F520A3E0A3F5F010AF088583198582EF
:10200300188008858319858218D2AFD082D083D0F7
:10201300E0F8D0E03274048006740280027401C0D8
:10202300E0F404121DE2D0E0121CB8227404800410
:1020330074028000CCC0E0EDC0E0E518C39CCCADD9
:102043001950011D10AF068C188D1980068C188D40
:1020530019D2AF121CC5D0E0FDD0E0FC22D083D052
:1020630082E9C0E0E493A3C386F0C5F095F0F908D4
:10207300E493A386F0C5F095F0700BE493A3C399A2
:102083004005E9048002A3E475F002A42582F582E9
:10209300E5F03583F583D0E0F9E493A3C0E0E4935E
:1020A300C0E022D083D082ECC0E0EDC0E0E493A393
:1020B300FCE493A3FDED4C600D1220F2EC24FFFC35
:1020C300ED34FFFD80EFE493A3FCE493A3FDED4C1B
:1020D300600D122131EC24FFFCED34FFFD80EFD0C5
:1020E300E0FDD0E0FCE493A3C0E0E493C0E022C0B1
:1020F300E0C3E49396087401939618400FE4936643
:10210300700808740193661870007019A3A3C3E4E0
:102113009396087401939618A3A3400DD0E0D0E0E2
:10212300D0E00220E2A3A3A3A3A3A3D0E022C0E0B4
:10213300C0F088F0E4936670080874019366187021
:1021430000A8F0A3A3700BD0F0D0E0D0E0D0E00261
:1021530020E2A3A3D0F0D0E02274F5121E75EAFEAC
:10216300EBFFEE2434F8EF3400F988088909EE24F4
:1021730035122288F8EE2437122288F50AEC850AF4
:10218300F0A4FCAAF0850AF0EDA42AFDE82CF8E4FB
:102193003DF97A257B00121D27EA8508828509838C
:1021A300F074075AF87401B800028004C333D8FCF2
:1021B300FBEA131313541FF8EE28F8EF3400F9E881
:1021C300245DF582E912228B5B6003EA801CEE2416
:1021D30036122288F5F0EA84A8F0EE28F8EF3400EE
:1021E300F9E82438F582E912228BF97F04021F21D2
:1021F30074F5121E75EAFEEBFFEE2434122288C03A
:10220300E0EE2435F582EF3400F583D0E0F08E82E2
:102213008F83A3A3A3A3A3E0FAA3E0FB8E828F8300
:10222300A3A3A3A3A3A3A3E0FCA3E0FDECC39AF59C
:102233000AED9BF50BEE247FF508EF3400F50985D5
:102243000882F583E06401702BEE2480F582EF347D
:1022530000F5831220331222917402121DC8E96023
:10226300137CDC7D04EEFAEFFB120BD1850882852B
:102273000983E4F0AC0AAD0BEEFAEFFB12215C121A
:102283002D250221EEF582EF3400F583E022C08292
:10229300C083851882851983E0F8A3E0F9C3EA9C1B
:1022A300EB9D5010C3EC98ED99401BC3EA98EB9952
:1022B3005014800EC3EA98EB994007C3EC98ED994C
:1022C3004004790180027900D083D08222EAC39C42
:1022D300FAEB9DFB2274ED121E759003A2E06408D5
:1022E3006005E06407702C9061C8E060269003D01D
:1022F300E0F874FF68601CE875F003A4C8AAF02A2C
:10230300F974D228FE740339FF8E828F83A3A3A3AB
:10231300E070057900022478EE2468F510EF3400AC
:10232300F511906060E0851082851183F0750A4590
:10233300750B05750800750900E5D914F50EE5D987
:102343005403F50F601CEE2482F50CEF3400F50DF9
:102353007403650F6058E50E6013EE24671222883C
:10236300700B793DEEFAEFFB120BF580A69005405A
:10237300E064016026850C82850D83E060047804A7
:1023830080027800850E08E508C398FA95E0FB12F1
:102393000A7B8A088B09EA45097006120E53022349
:1023A30016850C82850D83E070048A0A8B0B7800F6
:1023B3008016E5D9C0E08812E50A2512F582E50BFF
:1023C3003400F583D0E0F008E8C3950E40E4850CB3
:1023D30082850D83E0602874FC250EF50E780A12C1
:1023E300201CAC0EA90FEEFAEFFB120CA374021221
:1023F3001DC8E9700AAA08AB0912141102236574F7
:1024030003650F6058850E0C750D00780C12201CA7
:10241300AC0AAD0BAA08AB09120C677402121DC8F3
:10242300851082851183E0F87480687005750C7FD0
:102433008002880CE50CF50A780A122020E50FF5D6
:102443000A780A122020A90EAC08AD099003D0E047
:10245300FA7B001209137402121DC880139003A2A1
:10246300E06408600BAC0AAD0BEEFAEFFB120D391A
:10247300120E5F79017F0C021F2174F3121E757413
:10248300FC121DB2EAFEEBFF8908A2AFE433F509A3
:10249300C2AFEE2463F50AEF3400F50B8010AA0AED
:1024A300AB0B120C1F1214119004E3E004F0850A25
:1024B30082850B83E0F8A3E0F9E849602FE8240262
:1024C300FAE93400FBEA2402F50CEB3400F50D784D
:1024D3000C12201C8A828B83E0FCA3E0F9EEFAEF56
:1024E300FB120C137402121DC8E960B29004E3E0FE
:1024F30060579004E4E0F89004E3E0C398500C7450
:1025030002650870449004E5E0603E8E828F83A3E9
:10251300A3A3A3E085188285198312255C74021294
:102523001DFDE812255C9004E2E028F07402121D00
:10253300FDAC82AD83851882851983AA82AB83792A
:102543000112091F9004E3E4F0E509A2E092AF74DD
:1025530004121DC87F06021F21F0A3E4F09004E3D8
:10256300E0F82200008521878522C622C0E074EFAF
:10257300121F61A2AFE433FEC2AF759B009061826C
:10258300E0A2E05012E591A2E0500C7591FE7401B7
:10259300652170031222D8E0A2E55051E591A2E52E
:1025A300504B7591DF9003A2E064076005E0640877
:1025B300702374016521703579019003D0E0FA75B9
:1025C300F003A4CAA8F028FB74D22AFA74033BFBD5
:1025D30012247D8018E0640D70139003C4E004F0AE
:1025E30064287002E4F07A00E0F9120E65906182CB
:1025F300E0A2E64003022696E591A2E64003022606
:10260300967591BF9003A2E064057008120D7B12CA
:102613000D878003120D81752100120DF3E99003DC
:10262300A3F07900120DE7120B3B7A017B009003B4
:10263300A1E0F91210BD907803E064427055900553
:1026430044E014F0704DC2AF12264E00782AD0E059
:10265300F618D0E0F6E59F540770057509FF80036F
:1026630075097FC4C0E07829E6F50808E65509F541
:1026730009740B7808121D90D0E02508F890627059
:10268300E0A2E740F8E8C333906272F0906270E032
:10269300D2E0F0906181E0A2E35009E5E9A2E350C2
:1026A3000375E9F7A3E0A2E75009E591A2E7500318
:1026B30075917FEEA2E092AF7F04021FC0C0E0C01D
:1026C300D0C082C083906183E0A2E05009E5BFA23D
:1026D300E0500375BFFEE0A2E15009E5BFA2E1505F
:1026E3000375BFFDE0A2E25009E5BFA2E250037506
:1026F300BFFBE0A2E35009E5BFA2E3500375BFF7B8
:10270300E0A2E45009E5BFA2E4500375BFEFE0A2E5
:10271300E55009E5BFA2E5500375BFDFE0A2E6502F
:1027230009E5BFA2E6500375BFBFD083D082D0D0E6
:10273300D0E032C0E074F2121F61E5A7A2E4500FAB
:10274300E5A1A2E4500953A7EF75A1EF12278AE58B
:10275300A7A2E5500CE5A1A2E5500653A7DF75A19A
:10276300DFE5A7A2E15009E5A1A2E1500375A1FDB0
:10277300E5A7A2E2500CE5A1A2E2500653A7FB7520
:10278300A1FB7F01021FC074F8121E757521019011
:1027930003A2E0640670077A007B00120D63A2AF08
:1027A300E433FED2AF9003A8E0640170187A207B73
:1027B300009003A1E0F91211477A207B009003A156
:1027C300E0F91210C3906182E0D2E6F0900541E097
:1027D300602185C62280169003A7E064017008E596
:1027E300C654F84405F5C653BEFC1225687401654A
:1027F3002160E4EEA2E092AF7F01021F218E238FBE
:1028030024858228858327851882851983E0CEA3B2
:10281300E0CF852882852783EBC9EAC8EDCBECCAD4
:1028230075F010C3E833C8E933C9EA33CAEB33CBD5
:10283300C3EA9EF526EB9FF525B35004AB25AA26E4
:10284300EC33CCED33CDD5F0DAAE23AF242274E9EB
:10285300121E7574FA121DB2EAFEEBFF8C088D0985
:102863009003A2E024F7C3940550067510010229D2
:102873007C120CD98A0A8B0BEA450B700302297967
:10288300120D998A0C8B0D120D99EA650C7003EBEE
:10289300650D60ECEEFCEFFD851882851983AA8235
:1028A300AB83120D9F850A82850B83A3A3780C1239
:1028B3001C8290928B780C121C5C8518828519837C
:1028C3007814121C8290928B7814121C5C780C7909
:1028D3001412154C501F780C7914121C349092C3A7
:1028E300780C12156C4047850C10850D11850E125E
:1028F300850F1380459092C3851410851511851695
:10290300128517137810790C121C34781012156C79
:10291300501C7510007511007512007513017810A5
:102923007914121C347810790C121BFB800C75106F
:102933000175110075120075130074097810121BCC
:10294300DC9092FB780C121C827810790C121B53CA
:102953009003A2E06408600AE064066005E0640591
:1029630070209092BF781012156C50169092BB781D
:1029730010121C0E800C7510007511007512007575
:1029830013008508828509837810121C917406123E
:102993001DC87F10021F2174F7121E75120DB1900E
:1029A300053FE064017010906245E4F0A3F053F436
:1029B300F343FE0C5390F3120D51E5C65480444982
:1029C300F5C6E59E547F644970F8906185740FF0F5
:1029D30090053DE0F47002A3E0602C7508017509D1
:1029E3000090053DE07808121D9FE508F4FAA3E086
:1029F300600814600A14600C800DEA52808008EAB3
:102A030052908003EA52A079007F02021F2174F7DB
:102A1300121E75E9FEEAFF74016E700C7A807B006A
:102A23009003A1E0F91210BD902E74E493F46008B2
:102A3300E493F9120B1D800953C680E59E547F7001
:102A4300FA120D5790053FE064017003120B539087
:102A5300053DE0F47002A3E0602A750801750900E2
:102A630090053DE07808121D9FAA08A3E0600814B2
:102A7300600A14600C800DEA42808008EA4290806C
:102A830003EA42A0120CD98A088B09A808A909E80D
:102A9300496017E5E170FCE82414F582E93400F598
:102AA30083E0F874FF68600288E174016F700A7A4A
:102AB300019003A1E0F9121111022A0C74F1121E04
:102AC300758A088B098C0A8D0B90928B7808121CDF
:102AD3005C740F121DFD780C121C8290928B780C83
:102AE300121C5C7808790C12154C9092C350107824
:102AF30008790C121C34780812156C4014800E7877
:102B03000C7908121C34780C12156C50047901806E
:102B13000279007F08021F2174ED121E758A088B4B
:102B2300098C0A8D0B90928B7808121C5C7413121B
:102B33001DFD780C121C8290928B780C121C5C7811
:102B43000C790812154C40117808790C121C34AA20
:102B530008AB09AC0AAD0B80227510007511007526
:102B630012007513017810790C121C34781079084F
:102B7300121BFBAA10AB11AC12AD137F0C021F2169
:102B830090928B7808121C828A828B837808121C9D
:102B93006F7F04021F2174F5121E758C828D83785A
:102BA30008121C828A828B837808121C48122BED30
:102BB300C3E098F0A3E099122BDF401E9092637854
:102BC30008121C828A828B837808121C218E828FC2
:102BD30083E02420F0A3E0344EF080A4F08E828FB3
:102BE30083C3E09420A3E0944E22EA2404F8EB3458
:102BF30000F9E8FEE9FF8C828D83A3A3A3A3E0F889
:102C0300A3E0F98E828F832274F5121E75E9FE907C
:102C130004F7E0FAA3E0FBEEC333F8E433F97410EE
:102C230028F582749139F583E02AF508A3E03BF592
:102C330009780812201C9092DF121CA0122800743D
:102C430002121DC88A088B098C0A8D0B7410780830
:102C5300121BC3AA08AB097F04021F2174F1121EC1
:102C6300758A0C8B0D8C0E8D0F740F121DFDE0FAFF
:102C7300A3E0FB7411121DFDE0F508A3E0F509784C
:102C83000812201CEA2401F508EB3400F509E4F5E9
:102C93000AF50B780C7908121AD39092A7780812C8
:102CA3001C82780C7908121AD3AA0CAB0DAC0EADAA
:102CB3000F1228007402121DC88B09EA450960042B
:102CC3007A0180027A00EC2AFCED3400FD741312C1
:102CD3001DFDE0F8A3E0F9E8FEE9FFECF8EDF97A71
:102CE300717B02121D2788088909E4F50AF50B8E0A
:102CF300828F837808121C91ECF8EDF97A717B02CC
:102D0300121D278A088B0974057808121D9F8E826D
:102D13008F83A3A3A3A3E508F0A3E509F07F08022B
:102D23001F21C082C083E9906000F0D083D082224B
:102D3300C2AF02000022C0E074F2121F61A2AFE42E
:102D430033FED2AFC2C0E5D1A2E4500653D1EF1295
:102D53001405751A00EEA2E092AF7F01021FC0C0F6
:102D6300E074F2121F61A2AFE433FED2AFE589A291
:102D7300E1500312131B758900C2C5751A00EEA238
:102D8300E092AF7F01021FC0C0E074F2121F61A284
:102D9300AFE433FED2AFE58BA2E0500312131B75F1
:102DA3008B00C2E880D5C0E0C0D0E8C0E0E9C0E055
:102DB300E5A8D2AFC2C7751A00A2E7A2E792AFD0C7
:102DC300E0F9D0E0F8D0D0D0E032C0E074F2121FC6
:102DD30061A2AFE433FED2AF758900C2C5900A8EFB
:102DE3007401F0751A00FA900A5CE0F9121111905F
:102DF3000C12E0F8A3E0687002D285EEA2E092AF75
:102E03007F01021FC0C0E0C0D0E8C0E0E9C0E0C05D
:102E130008C009C082C083A2AFE433F9D2AF900CDB
:102E230012E0F8A3E0687008539AFBA374018026AC
:102E3300C2E9900C12E0F50874012508F07492259C
:102E430008F582740B3400F583E0F5C1900C12E0B1
:102E5300C394804002E4F0E9A2E092AFD083D08231
:0F2E6300D009D008D0E0F9D0E0F8D0D0D0E032DC
:102E7400FFFFFFFFFFFFFFFFC082C083E9900DEB60
:102E8400F002310B74F7121E09E99002E1F07C198B
:102E94007D037AFF7BFF12086B9002E274FFF0A3BC
:102EA400F0A3E4F0A3F079051207F39002E1E0F94E
:102EB4001207157A897B08120A2D7F01021EDB7422
:102EC400F4121E098A088B09EB548060309002E1E9
:102ED400E0F91210A58A0A8B0BAE0AAF0BEE4F6015
:102EE400138E828F83E064B0700312080BEEFAEF46
:102EF400FB121093AA08E5096480FB80047A007B26
:102F0400000230DA74F2121E0974FC121DB2EAFED9
:102F1400EBFFEE4F60387402121DFDEEF0A3EF12CA
:102F2400333FECF0A3ED12333FAA82AB8312070FB9
:102F3400E9F50870737412121DFD123EF3E50A459B
:102F44000B60658E828F83122FB6EE4F7005750865
:102F54000280557A067B001210F98A0C8B0DA80C9E
:102F6400A90DE8497005750813803D88828983E4BA
:102F7400122FC0A3A3EEF0A3EF12438CE50AF0A333
:102F8400E50BF09002E71230489002E76017E0FC8E
:102F9400A3E08003EAFCEBFD8C828D831230487041
:102FA400F38C828D83123E18A9087404121DC80282
:102FB400458EA3A3A3A3E0FEA3E0FF22F0A3F08821
:102FC4008289832274F2121E09890AE975F017A412
:102FD400FEAFF09002E6E4F09002E4123048600A9A
:102FE4001210FF9002E4E4F0A3F0EEFAEFFB1210EB
:102FF400F98A088B09EA4509602FEEFCEFFD790098
:1030040012107B9002E4E508F0A3E509F07B008050
:1030140008123032E4F0A3F00BEBC3950A40F2E55A
:103024000A9002E6F079008002791302458EEB756E
:10303400F017A4F8A9F09002E4E028FAA3E0398A92
:1030440082F58322123BAEEA4B2274F4121E0975F8
:103054000800750900740C121DFD124360FEE9FF9F
:10306400800CE5082401F508E5093400F509C3E5F9
:10307400089CE5099D503285080A85090B7403787C
:103084000A121D9FEA250AF8EB350BF98882898319
:10309400A3A3A3A3A3A3123EF3EE650A7003EF65F3
:1030A4000B70BFE8FAE9FB80047A007B0080277488
:1030B400F4121E097900EAA2E0501B750844750950
:1030C40092780812201C7C047D007AED7B0D120797
:1030D400ED7402121DC87F04021EDBC082C08390FF
:1030E40002E7123112601C88828983A3A3E06A700C
:1030F40003A3E06B8882898370E8A3A3A3A3123B94
:10310400AA80047A007B00D083D082020135124663
:1031140061E8492274EE121E0974FC121DB2EAFE23
:10312400EBFF851882851983E4F0A3F0EE240212E4
:103134003DFCEE240512332DEE2404F50EEF123778
:1031440012E024FE603924FC604624FE605224FE12
:10315400605E24FE700302323224FE70030232AA3F
:1031640024FE70030232B924FE70030232C824FC28
:1031740070030232D724FE70030232E60233239036
:1031840003007417F0A3E412334712048D023323AF
:10319400851882851983AC82AD831208110232F33B
:1031A400851882851983AC82AD831208170232F325
:1031B400850C08850D097402121DFDAC82AD838552
:1031C4000882850983123BAA1207338A0C8B0DAC43
:1031D4000CAD0DEC4D6042E4F50CF50D780C1220AD
:1031E4001C750C00750D03780C12201C750C0175F0
:1031F4000D03780C12201C7408121DFD1220337963
:1032040016123BA41208537408121DC8E9F50C7079
:103214000B123BA01204A5800F750C018508828552
:103224000983123335123E18850C080232F67402F3
:10323400121DFDAC82AD83850C82850D83123BAAE1
:103244001207338A108B11AC10AD11EC4D6043851D
:103254000C82850D83A3A31220337510007511030E
:10326400781012201C751001751103781012201C9F
:103274007408121DFD1220337916123BA412085350
:103284007408121DC8E9F509700B123BA01204ABB7
:10329400800F750901850C82850D83123335123E2A
:1032A40018850908804C851882851983AC82AD8302
:1032B40012081D803A851882851983AC82AD831269
:1032C4000823802B851882851983AC82AD8312086C
:1032D40029801C851882851983AC82AD8312082F3E
:1032E400800D851882851983AC82AD83120835E977
:1032F400F508E50860298E828F83A3E06414601FBB
:10330400850E82850F83E090030012333F12465DE1
:10331400900301123E18E508A3123347120487EE06
:10332400FAEFFB1207B1023D04F50CEF3400F50D82
:103334002212466185188285198322F085188285B8
:10334400198322F07C007D03850A82850B83123B5E
:10335400AE2274EE121E0974FC121DB28A0A8B0B83
:103364008C0E8D0FEA2405F508EB3400F5097C1565
:103374007D0079007A007B0312107BE5082402F5B6
:103384000CE50912333085188285198385821085EE
:103394008311781012201C850882850983A3A3A3B6
:1033A400A312385A12201CE5082405F510E5093447
:1033B40000F511781012201C850C82850D83123BB8
:1033C400B412072D7406121DC88A108B11AE10AFEB
:1033D40011E50A2402F50AE50B123DFFEE4F7003D6
:1033E40002351C80177402121DFD123BAA888289C3
:1033F40083EAF0A3EBF0900300E004F0900300E014
:10340400C39405400302351CE4F510F5117810123D
:10341400201C7510E9751102781012201C7510EA31
:10342400751102781012201C7406121DFD1220332F
:103434007910EEFCEFFD123BA41208537408121D20
:10344400C8E9705E850882850983A3A3A3A3A3A307
:10345400A3E0F89002E9E068704812385A12201C80
:103464007CEA7D02E5082408FAE5093400FB121021
:10347400757402121DC8E960298E828F83A3A3A3E9
:10348400A3123BAA900300E0F51074027810121DF9
:103494009F74012510F58274033511F583EAF0A3B6
:1034A400EBF07402121DFD858210858311781012D1
:1034B400201C7402121DFD122033850C82850D839D
:1034C4001246721207397404121DC88A108B11AE89
:1034D40010AF11900300E0F510751100740278101C
:1034E400121D9F74002510F874033511F988828920
:1034F40083A312304870030233E0E82403F8E9346C
:1035040000F9EE4F60030233E98882898374FFF087
:10351400A3F0900300E004F0900300E0600A123B83
:10352400A01204997900800B850882850983123ED4
:103534000F790A023D0474EA121E0974FE121DB2C8
:103544008C128D13EA2405F50CEB1247DC122FBA0A
:10355400750800750900EA2402F510EB3400F51132
:1035640085188285198385820A85830B780A12203F
:103574001C850C82850D83A3A3A3A312371C1220E0
:103584001CE50C2405F50AE50D123DFF780A12200E
:103594001C850C82850D8312467012072D74061249
:1035A4001DC88A0A8B0BEA450B70030236CDEA2448
:1035B40004F50EEB123712122FBA8A828B83A3A35F
:1035C400A3E0F9851082851183123BAA12071BE937
:1035D400F50960030236CDE4F514F51578141220CC
:1035E4001C7514E9751502781412201C7514EA75FB
:1035F4001502781412201C7406121DFD1220337952
:1036040013AC0AAD0B851082851183123BAA1208F4
:10361400537408121DC8E9F50960030236CD9002FF
:10362400E9E0F8E5087009E02402900301F080174E
:10363400900301E0FCE82402FAE43400FBEA6C7035
:1036440001EB60030236D1850882AA8212385194B4
:10365400141238495073850E82850F83E0C0E074DC
:10366400022A123709D0E0F00508850E82850F83FF
:10367400A3E0C0E085080A7402250A123709D0E0E5
:10368400F005089002E912371C12201C7CEA7D0226
:1036940085080A7402250AFA74033400FB121063C5
:1036A4007402121DC89002E9E02508F50874FF6E43
:1036B400700374FF6F6012EE24010EEF3400FFE517
:1036C40008C394145003023564E5086013123A9554
:1036D400851082851183123BAA12049F79008014FD
:1036E400E509700375090A851282851383EEF0A338
:1036F400EFF0A9097402121DC87F0E021EDB8508B3
:103704000C7402250CF58274033400F58322340012
:10371400F50F850E82F5832212439F2274EE121E4A
:103724000974FE121DB28C0E8D0FEA2405F50CEB04
:10373400123330750B00900300E4F0F50AEA24021A
:10374400F508EB3400F5098049900300E0FA900293
:10375400E9E0F81238519417123849400D900300EB
:10376400E0F87416C3989002E9F012385A12201C3B
:103774007CEA7D0274012AFA74033400FB1210639C
:103784007402121DC89002E9E0F8900300E028F0EA
:10379400050AE50C2416F582E50D12370DE0F8E56F
:1037A4000AC3984003023832900300E0C3941650D1
:1037B4007DE50AC333F8E433F9E50C28FEE50D3959
:1037C400FF851882851983AC82AD838E828F831224
:1037D4003BAA1207338A108B11AC10AD11EC4D705B
:1037E40005750B018043E4F510F511781012201CC7
:1037F4007510E9751102781012201C7510EA751104
:1038040002781012201C7406121DFD122033791642
:10381400850882850983123BAA1208537408121D75
:10382400C8E9F50B700302374D123E0B80107C0083
:103834007D03850882850983123BAA1204B1A90B72
:103844007402023D06E99400C365D03322EA28F8E5
:10385400E43400F9E822E0F51075110078102274C0
:10386400EA121E0974FC121DB28A0C8B0D8C128D87
:1038740013EA2405F50AEB123DFF750800750900EB
:10388400E50A2402F510E50B3400F5117402121D4B
:10389400FD85820E85830F780E12201C850A828591
:1038A4000B83A3A3A3A312434B12201CE50A2405F4
:1038B400F50EE50B3400F50F780E12201C851082EE
:1038C400851183123E05123BA412072D7406121DA6
:1038D400C88A0E8B0FAE0EAF0FE50C2402F50EE571
:1038E4000D3400F50F80408882898374FFF0050849
:1038F40012370274FFF005089002E9E0F50C750D2B
:1039040000780C12201C7CEA7D0285080C740225C8
:103914000CFA74033400FB1210637402121DC89075
:1039240002E9E02508F508EE4F60718E828F83A3CB
:10393400A3A3E0F9850E82850F83123BAA12071B0D
:10394400E9F509EE240412332DE97044E4F514F585
:1039540015781412201C7514E975150278141220B8
:103964001C7514EA751502781412201C7408121DB3
:10397400FD1220337911EEFCEFFD850E82850F8355
:10398400123BAA1208537408121DC8E9F5096027EE
:10399400850C82850D83123A8B123E18E50870035C
:1039A400023A71123A95850E82850F83123BAA1250
:1039B40004B77900023A86850882AA82EA9002E96D
:1039C4007009E02404900301F08022E0F8900301E0
:1039D400E0F514E82404FCE43400FDEC6514700103
:1039E400ED70C0123851941212384950B6850C82C9
:1039F400850D83E0C0E074022A123709D0E0F00597
:103A040008850C82850D83A3E0C0E0123702D0E064
:103A1400123AA785820C85830D780C12201C74043D
:103A2400121DFD12203385108285118312467212F5
:103A340007397404121DC88A0C8B0DAE0CAF0D85AA
:103A4400080C7402250CF874033400F9EE4F70036B
:103A54000238EB851882851983E088828983123ABB
:103A6400A7A3E0C0E0123702D0E00238F9E50970FC
:103A74000375090A850A82850B83123A8B123E1854
:103A8400A90974040236FA124661851282851383E9
:103A940022900301E0F5F0E50884900300F07C0037
:103AA4007D0322F005088518828519832274EC129F
:103AB4001E0974FE121DB28A088B098C0E8D0FEA42
:103AC4002405FEEB3400FF851882851983AC82AD92
:103AD400838E828F83123BAA1207338A0A8B0BEEE2
:103AE400241812332DEA450B7003023B7B123CED84
:103AF4005032851882851983123BAA1208478A100E
:103B04008B11EA4511606B7912AC0AAD0B85088202
:103B1400850983123BAA851082851183121E07E949
:103B2400F50A7058E4F50AF50B780A12201C8E8207
:103B34008F83A3A3E0F50A780A12201CEE24031253
:103B44003DFC780A12201C8E828F83123BB412082B
:103B5400597406121DC8E9F50A7021850C82850D79
:103B640083E0701F850882850983123BAA1204BD75
:103B74008011750A0E8009750A018004E50A600344
:103B8400123E0B850C82850D83E06004790080026F
:103B9400A90A7402121DC87F0C021EDB7C007D037F
:103BA400850A82850B83123BAE22E0FAA3E0FB2256
:103BB400E0FCA3E0FD850882850983123BAE2274F4
:103BC400EE121E0974FE121DB28A088B098C0C8D2C
:103BD4000DEA2405FEEB3400FF750E00851882857E
:103BE4001983AC82AD838E828F83123BAA12073372
:103BF4008A0A8B0BEA450B7003023CD9123CED5048
:103C040035851882851983123BAA1208478A0E8BC0
:103C14000FEA450F605E7912AC0AAD0B8508828508
:103C24000983123BAA850E82850F83121E07E9F5CC
:103C34000E6003023CDC850882850983123EF3AAE8
:103C44000AFB12083B8A108B11A810A911E84970CD
:103C54001E7AFF7BFF12083B8A108B11A810A91152
:103C6400E849606C88828983E50AF0A3E50BF07566
:103C74000A008007750E0E805F050A9002E6E0FADE
:103C8400E50AC39A504AE50A75F017A4FAABF0881E
:103C9400828983A3A3E02AFAA3E03BFB8A828B8375
:103CA400123E05EC4D70D2750A17750B00780A1296
:103CB400201CEEFCEFFD1210637402121DC8EEFC12
:103CC400EFFD850882850983123BAA1204C3801480
:103CD400750E098003750E01124659850C82850DF7
:103CE40083123E18A90E023844E5082402F508E5BB
:103CF400093400F5098A828B83A3A3A3E0A2E522F9
:103D04007404121DC87F0A021EDB74EC121E098C97
:103D1400108D11EA2405F50CEB123330750F00EA0F
:103D24002402F50AEB123DFF850A82F583123BAAB1
:103D340012083B8A088B09EA45097003023DF175B4
:103D44000E008071850C82850D83E06401704F8EB6
:103D5400828F83A3A31220338E828F83A3A3A3A372
:103D6400E0F512751300781212201CEE2405F512EA
:103D7400EF3400F513781212201C123BA4120859D8
:103D84007406121DC8E9F50F6014850C82850D8335
:103D9400E4F0124659851082851183123E187C176F
:103DA4007D007900EEFAEFFB12107B8E828F83E4A4
:103DB400F0A3F0050E9002E6E0F8E50EC398501E5D
:103DC400E50E75F017A4F8A9F0850882850983A388
:103DD400A31247E6123E05EC4D6003023D488508F8
:103DE4008285098374FFF0A3F0E50F7006123BA4EB
:103DF4001204C9A90F023B9BF50AEF3400F50B220C
:103E0400A3E0FCA3E0FD228E828F83124661850E1F
:103E140082850F83E8F0A3E9F022C082C083900278
:103E2400E2E06A7003A3E06B70067AE27B0280042E
:103E34007A007B0002310BC082C08378008C828DB3
:103E440083E06A7003A3E06B7010E875F003A4F8D4
:103E5400A9F0EC28FAED39FB8015088C828D83A338
:103E6400A3A3E06A7003A3E06B60DF7A007B000227
:103E7400310B74F6121E091208058A828B83E582BF
:103E8400458370067A007B008007A3A3A3A3123B9B
:103E9400AA02450A74F2121E09E9FE740E121DFDEF
:103EA400123EF37410121DFD12436B8C828D83E05D
:103EB40064027036A3124667F50CA3E0F9A80C74EB
:103EC400026870037429697021750C02750D0078FD
:103ED4000C12201C780812201C780A12201CEEF9FF
:103EE40012087D7406121DC88002790102458EE015
:103EF400F50AA3E0F50B2274E8121E0974FB121DE7
:103F0400B2E9851882851983F08A168B17ECFEEDC9
:103F1400FF751000741D121DFD12465D741D121DE7
:103F2400FD123E188E828F83A3A3A3E0A2E4502D3A
:103F3400741D121DFD123BAA1208478A828B83E569
:103F4400824583700302433C790AEEFCEFFDAA1616
:103F5400AB17121E07E9F510600302433F741F12EA
:103F64001DFD12436B7421121DFD123EF3742312C6
:103F74001DFDE0F50EA3E0F50F8E828F83E0640251
:103F840060030242EAA312465D850882850983A381
:103F9400858212858313EE240612332D8882898349
:103FA400E0FAA3E0F9EA2400F514E439F5157814ED
:103FB4001220A6010000280128DF3F07000228A4E0
:103FC40040032811400029DB41012906420229A7A8
:103FD400410329DB4104298542EA42E50E450F608D
:103FE400030242E5850C82850D83124360FAE9FBE6
:103FF4008A828B83E0850A82850B83124396122082
:104004001C8A828B83A3E0FCA3E002426FE50E4589
:104014000F60030242E5850A82850B837401F01266
:104024004373850882850983F07C007D008E828F2E
:1040340083A3A3A3A3E02401FAA3E03400FB1207A3
:1040440033EA4B60418A828B83E02402F8850A823A
:10405400850B83E028F0EA2404F8EB3400F9888225
:104064008983E08512828513831243A81243961232
:10407400201C8A828B83123E04E5082403FAE50996
:104084003400FB024274850A82850B83E02404F029
:104094007C047D007900AA12AB1312107B02433F0B
:1040A400E50E450F60030242E5124373FEA3E0FFF1
:1040B400850A82850B837404F0EE85088285098362
:1040C400F0EF851282851383F07403121DFDAC8218
:1040D400AD83EEFAEFFB1207338A0C8B0DEA450D24
:1040E40070030241888A828B83A3A3122FB67401C2
:1040F400121DFD85820E85830F780E12201C740517
:10410400121DFD1220337CFF7DFF12073974041247
:104114001DC88B0FEA450F7033850C82850D831201
:10412400434B12201C850C82850D83A31220337C03
:10413400027D007A487B931205657404121DC8E958
:10414400700A7401121DFD74FFF0A3F08E828F8338
:10415400E064027039750C02750D00780C12201C95
:104164008E828F83123E04E5082404FAE5093400A4
:10417400FB1210637402121DC8850A82850B83E04A
:10418400240280097401121DFDEEF0A3EFF0740106
:10419400121DFD12435CF07401121DFDA312435461
:1041A4000242DFE50E450F60030242E5850C82857D
:1041B4000D83123E05AA16AB17120871850A828573
:1041C4000B837402F0EA850882850983F0851282E4
:1041D400851383EB0242E2E50E450F60030242E5DC
:1041E400124373F8A3E0F9850A82850B837402F005
:1041F400E8850882850983F0E985128285138302A4
:1042040042E2850C82850D83123BAA12105DEAFC02
:104214008C82A882C3950EE4950F405FE8650E700A
:1042240002E50F70047C008022851882851983E0E2
:10423400FAE50E2AFAE50F3400FBC3EA98EB940082
:104244005003E08005E50ECCC39CFCEC850A828516
:104254000B83F08C0A750B00780A12201C850C82E3
:10426400850D83E0250EFCA3E0350FFDAA08AB09FC
:104274001210637402121DC802433F7510070243F3
:104284003FE50E450F705A850C82850D8312465DFD
:10429400850A82850B837407122FC2124354122F8E
:1042A400C2A3E0851282851383F0E82402FAE9347C
:1042B40000FB8A828B8312435412438312435CA310
:1042C40012438C124365F0E82405F8E93400F988B8
:1042D400828983124365A31243A8A3A3A3A3F080F6
:1042E4005A75100B8055741D121DFD123BAA12083D
:1042F400058A828B83E5824583603D12465D880C86
:10430400890DE8450D6031780E12201C780A1220C0
:104314001C780812201C7406121DFDE0F9EEFCEF57
:10432400FDAA16AB17850C82850D83121E07740631
:10433400121DC8E9F510800375100EA9107405123A
:104344001DC87F10021EDBE0F50E750F00780E22EB
:10435400E0850882850983221243B222124661E86D
:10436400221243B2A3A322E0F508A3E0F5092285B3
:104374000C82850D83E0F8A3E0F5838882E022A314
:10438400A3F08A828B83A322F088828983A3A3A3C8
:10439400A322F08A828B8312439F22E0F50A750BD5
:1043A40000780A22F088828983A31243B222E0852E
:1043B4000882850983A3A32274EE121E0974FE12D7
:1043C4001DB28A0A8B0BECFAEDFB7414121DFDE08E
:1043D400F510A3E0F5117416121DFDE0FE74181219
:1043E4001DFDE0F50EA3E0F50F851882851983AC59
:1043F40082AD831207338A0C8B0DEA450D60498523
:104404001882851983123BAA1208058A828B83E5D8
:10441400824583602FA3A312436BE50845096024FA
:10442400780E12201C781012201CEEF9AC0CAD0D85
:10443400AA0AAB0B850882850983121E077404122D
:104444001DC88006790E8002790102384474F61280
:104454001E0974FE121DB2740C121DFD12436085F8
:104464001882851983F07401121DFDE9F0E4F50842
:10447400F509780812201C750802780812201C74AB
:1044840004121DFD858208858309780812201C12F8
:1044940008597406121DC87402121DC8806874F786
:1044A400121E09EAFEEBFF89087C197D03120871CC
:1044B400EA5402600BA908EEFAEFFB120727800208
:1044C4007901022EBE74F6121E0974FF6A70037419
:1044D400FF6B70168C828D8312450FE4F08C828DF5
:1044E40083A3A3A312450FA380181208418A088B43
:1044F40009A808A909E849600D8882898374FF1214
:104504002FC0A3A3E4F07F02021EDB74FFF0A3F02C
:104514008C828D83A3A32274F6121E091208418A89
:10452400828B83E58245836006A3A3E0FA80027A46
:10453400007B0080D174F2121E098A088B09ECFEFC
:10454400EDFF740E121DFDE0F50A1208418A0C8B72
:104554000DA80CA90DE8497026EEFCEFFD7AFF7B4F
:10456400FF1208418A0C8B0DA80CA90DE8497004B0
:104574007911801688828983E508F0A3E509F0881B
:10458400828983A3A3E50AF079007F06021EDB7407
:10459400EE121E09EAFEEBFF8C088D09890C7414D7
:1045A400121DFD12465D7416121DFD123BAA750DF7
:1045B40000E84960030246517402650C6003024638
:1045C4004C7412121DFD124667FCA3E0F9EC2400A2
:1045D400F50EE439F50FEAF4F8EBF4F9EC58F8E5E4
:1045E4000F59F9E849705CE5082406F8ED3400F940
:1045F400880A890B8882F5831246721208718A1020
:104604008B11E50E65107004E50F65116042780E9C
:1046140012201C850A82850B831246721208777455
:1046240002121DC8E9F50D7027780E12201C8508AA
:1046340082850983A3A312467012088F7402121D87
:10464400C8800D750D808008750D0D8003750D0BE8
:10465400A90D023D098E828F8312466122E0F8A3E0
:10466400E0F92212466188828983E022A3A3E0FC58
:10467400A3E0FDEEFAEFFB2274E8121E0974E712C0
:104684001DB2851882851983EAF0A3EBF08C168D90
:1046940017890E7508007509007431121DFDE0F5C7
:1046A40012A3E0F5137433121DFDE0F514A3E0F535
:1046B400157435121DFDE0F50FE50975F003A4F836
:1046C400A9F08518828519831247E6E0F47003A3E4
:1046D400E0F470030247C9EE2402F50CEF1247DC44
:1046E400E070030247C985160A85170B780A122061
:1046F4001CAC14AD15AA12AB131207F97402121DE7
:10470400C88A0A8B0BEA450B70030247C9E4F5100B
:10471400F511781012201C7406121DFD8582108577
:104724008311781012201C7409121DFD85821085D6
:104734008311781012201C851282851383A3A3A3EE
:10474400A31220337914AC0AAD0B8E828F83123BF3
:10475400AA1208537408121DC8E97069850A828573
:104764000B83A3A3A3A312465D7402121DFD123E84
:1047740018850C82850D83E0A2E05018A90E7402FE
:10478400121DFDAC82AD838E828F83123BAA120769
:104794004BE94208850C82850D83E0A2E15026E5B1
:1047A4000FF50A780A122020A90E7403121DFDAC1D
:1047B40082AD838E828F83123BAA12074574011245
:1047C4001DC8E942080509E509C3940250030246DD
:1047D400BDA90874190243433400F50D850C82F514
:1047E4008322E028FEA3E039FF8E828F832274F2B5
:1047F400121E09EAFEEBFF890B7401650B600E744F
:1048040002650B706A7901120A4BE97062EEFAEFE5
:10481400FB12083B8A088B09EA45096047750A00C0
:10482400800B7C177D00790012107B050A9002E64C
:10483400E0F8E50AC3985021E50A75F017A4F8A931
:10484400F0850882850983A3A3E028FAA3E039FB55
:104854008A828B8312311270C98508828509837418
:10486400FFF0A3F07C197D03EEFAEFFB12086B0254
:10487400458E74F2121E098A088B09ECFEEDFF7452
:104884000E121DFD123EF3900DEBE0F4603D7A092B
:104894007B0012108DEA4B60328A828B8374B1F0F4
:1048A400A3E4124385A3124383A3E508F0A3E50917
:1048B4001248D2EEF0A3EF1248D2A3A3E50AF0A364
:1048C400E50BF0900DEBE0F912109902458EF08A99
:1048D400828B83A3A3A3A3A32274F0121E0974FAE8
:1048E400121DB2890BECFEEDFF750A008A088B09D4
:1048F4007808122060000410104B20493E495849A2
:1049040070498E49A649C949E149F5491F4AA74A50
:10491400B84ACF4AEA4A104B104B354A7401650B2A
:104924006003024B0B8E828F83E0F8C39403400331
:10493400024B0BE8900F0A024AE77402650B60030E
:10494400024B0B8E828F8312520D900F0BE8F0A353
:10495400E9024AE77401650B6003024B0B124B3802
:104964004003024B0BE890097A024AE77401650B95
:104974006003024B0B8E828F83E0F8C394054003DF
:10498400024B0BE890097B024AE77401650B600354
:10499400024B0B124B384003024B0BE890097C028C
:1049A4004AE77410650B6003024B0B750810750918
:1049B40000780812201C7A7D7B091210637402129D
:1049C4001DC8024B317401650B6003024B0B124B83
:1049D400384003024B0BE890098D024AE7740165E5
:1049E4000B6003024B0B8E828F83E0900F0E024A02
:1049F400E77404650B6003024B0B8E828F83780C83
:104A0400121C829092DF780C12156C5003024B0B2F
:104A140090098F780C121C91024B31E96003024B10
:104A24000B1206D3E9700512126D8060900A228081
:104A34006E7407650B6003024B0B7508067509005D
:104A4400780812201C8E828F83A3AC82AD837402FB
:104A5400121DFDAA82AB831210697402121DC87C58
:104A6400007D00851882851983AA82AB838E828F8C
:104A740083E0F9121213E9F508C3940A4003024BC8
:104A84002E1206D3E9700CA908121273795012146D
:104A94008F806F74232508F582740A3400F58374BB
:104AA4000180407401650B705E124B385059E890D8
:104AB400098E802F7401650B704D8E828F83E0F810
:104AC400C3940A5042E8900F0D80187401650B706E
:104AD400368E828F83E0F874F928C3940A5028E84C
:104AE400900F0FF080477401650B701B900A21E052
:104AF400F88E828F83E0900A21F0E87030E0640140
:104B0400702B1212618026750A188021C3EA94273B
:104B1400EB940050157402650B700F8E828F831214
:104B2400560C120571E9F50A8003750A02A90A7484
:104B3400060252028E828F83E0F8C394022274F03C
:104B4400121E0974CC121DB28C0A8D0B7420121D16
:104B5400FDAC82AD8375839275823E7406121CC5CA
:104B64007420121DFDAC82AD83121213E9F5087492
:104B740044121DFDE0FEE9C3940A4003024CB075E3
:104B8400F006E9A4F5097426121DFDAC82AD837A02
:104B94000E74202509F9121489E970097432121D62
:104BA400FDE0FF80027F00900F0AE064027004744D
:104BB400018001E4F50D780D122020EEFDEFFCA933
:104BC40008AA0AAB0B1212977401121DC87C147D3B
:104BD400007900740C121DFDAA82AB8312107B7441
:104BE4000C121DFDAC82AD837A1074242509F912D0
:104BF4001489E9703C7C1079FF740C121DFDAA82A3
:104C0400AB831210E1E97029741C121DFDAC82AD56
:104C1400837A0474252509F9121489740C121DFD74
:104C2400AC82AD83EFA2E0E433F9AA0AAB0B120520
:104C3400FB851882851983AC82AD837A0C74702548
:104C440008F9121489E97053851882851983AA8298
:104C5400AB83121243750800E50875F003A4F8A9A4
:104C6400F0851882851983E58228F8E583125416A5
:104C7400125606601D88828983A3A3E0F50E750F82
:104C840000780E12201CAA0AAB0B12085F740212E1
:104C94001DC80508E508C3940440BDEFA2E1500C0B
:104CA400900979E0F9AA0AAB0B12086574046E70D6
:104CB40027900F0AE06402701F7A0090098DE0606B
:104CC400010A90097AE06004780480027800E84AD6
:104CD400F9AA0AAB0B1206BB7900743402520274AF
:104CE400F0121E09EAFEEBFF8C088D09750A0AE929
:104CF400600C146009146037146079024D9212122A
:104D040055E9F50AC3940A4003024D92E5084509A2
:104D1400607C750E06750F00780E12201CEEFCEFF9
:104D2400FDAA08AB091210637402121DC8805F75D6
:104D34000B00750E06750F00780E12201CEEFCEFAA
:104D4400FDE50B75F00EA4F8A9F0749B28FA74091C
:104D540039FB1210757402121DC8E9600C850B0A28
:104D6400E50AC3940A50278016050BE50BC3940A81
:104D7400501C80BE12125BE9F50AC3940A500FE579
:104D84000845096009AA08AB09A90A12124FA90A21
:104D940002520574F4121E09890875091574FF6A14
:104DA400700374FF6B70277E00AC087A027B00EE00
:104DB400F9121231E960037509000EEEC3940A403A
:104DC400E8E50860537A857B12120A5D804A120A6C
:104DD4003F8A0A8B0BAE0AAF0BEE4F60387C007D26
:104DE40000EE2405FAEF3400FB8E828F83A3A3A385
:104DF400A3E0F9121213E9C3940A500CAC087A0226
:104E04007B00121231750900E508600CEEFAEFFB25
:104E14001212858003750914A9098005740E121DE8
:104E2400C87F04021EDB74F2121E09ECFEEDFF754E
:104E34000815740E121DFDE0F50AA3E0F50B74FFCE
:104E44006A700374FF6B7021750900AC0AAD0BEE38
:104E5400FAEFFBA909121237E96003750800050986
:104E6400E509C3940A503F80E2120A3F8A828B8389
:104E7400E5824583602D7C007D00E5822405FAE50A
:104E8400833400FBA3A3A3A3E0F9121213E9C39490
:104E94000A5013AC0AAD0BEEFAEFFB121237750889
:104EA400008003750814A908025C48C082C083907E
:104EB4000993EAF0A3EBF0900979E0FC7D007A26EF
:104EC4007B00120571900979E0F91207DB025AA3FD
:104ED40074F0121E0974EC121DB2EAFEEBFFEE240C
:104EE4000CF50CEF3400F50DEE2405F50EEF34004F
:104EF400F50FEE2409F50AEF3400F50BEE2403F563
:104F040008EF3400F5098E828F83A3A3E024FA709E
:104F1400030251A624FD70030250C1147003024F12
:104F2400AD14601024FD70030250981470030250F5
:104F3400F50251FE125E436048E0F5838882125206
:104F44000D880E890FE8450F6037850C82850D8327
:104F5400E0F50C780C122020EE240BF582EF1253AE
:104F6400DDF9850A82850B8312560C0A0A0AAB09FD
:104F7400850E82850F83121E077401121DC802510B
:104F8400FE850A82850B8312203390098F121CA0A0
:104F940012060D7402121DC8E970030251FE790154
:104FA400850A82850B830251718E828F83A3858249
:104FB4000A85830BE0600302507B850E82850F8394
:104FC400E0A2E0400302507B900A2D125E4660038B
:104FD40002507B7C0E7D007900851882851983AA96
:104FE40082AB8312107B850C82850D83125A6EEA84
:104FF4004B6010750C06750D00780C12201CEA2409
:1050040010801B125A68120A3FEA4B70030251FEC9
:10501400750C06750D00780C12201CEA2405FCEBB7
:105024003400FD7402121DFDAA82AB831210637456
:1050340002121DC8850E82850F83E0A2E25004D2BD
:10504400F08002C2F0A2F0E433F8740C121DFDE00B
:1050540048F0EEFCEFFD851882851983AA82AB83A4
:10506400121249E970117A027B00900979E0F91271
:1050740010BD7900025200125E4370030251FE1209
:10508400521370030251FE850A82850B83E0FC797A
:105094000102519A125E4370030251FE12520A89B0
:1050A4000BE8450B70030251FE8E828F83A3E0FC54
:1050B4007902125A688882850B830251A17C007D93
:1050C40000EE2404FAEF3400FB850882850983E0AE
:1050D400F9121213E9F8C3940A40030251FEEE24B4
:1050E4000AFCEF1255E2E8A42425F91214830251B4
:1050F400FE125A6890098EE06007900F0DE0F98067
:105104006F900F0AE0700479058065120A3F8A0CDB
:105114008B0DA80CA90DE82404F50CE93400F50D59
:105124008E828F83A3A3A3A3A3A3A3E0A2E05046EC
:10513400E84970030251FE850C82850D83E0FE6010
:1051440035850A82850B83E05410702A740E121D73
:10515400FDAC82AD83E82405FAE93400FBEEF912D4
:105164001213E970117903850882850983125A6E36
:105174001206070251FEAC0EAD0F850C82850D831D
:10518400E0F9125A68121291125E43606D125213C2
:1051940060687C007900125A688E828F83121E0721
:1051A40080581206D3E97052900A22E06401701507
:1051B40012126D900A22E4F07C0AFDF97A237B0A2C
:1051C40012107B802D750A00850A0874232508FEB9
:1051D400740A3400FF8E828F83E06401700BA90A85
:1051E4001212738E828F83E4F0050AE50AC3940ACF
:1051F40040D6795012148F12126179017414121D61
:10520400C87F08021EDB125222E0F8A3E0F9221242
:105214005222E0F8A3E0F9E8FEE9FFEE4F22E0F5C0
:10522400838882A3A32274F4121E0974F2121DB29D
:10523400EAFE8C0B75F006E9A42420F50885188293
:10524400851983AC82AD837A0EF9121489E97057FB
:105254007C0679FF851882851983AA82AB83121094
:10526400E1E97043740C121DFD12520DE8F509E5D5
:105274000B6005EE42098004EEF45209850982AA06
:1052840082E86A7001E9601B740C121DFDEAF0A348
:10529400E4F0851882851983AC82AD837A0EA9085F
:1052A400121483790180027900024E2074F2121ED6
:1052B4000974E6121DB2890A8A088B09ECFEEDFF17
:1052C400740C121DFDAC82AD837A0E75F006E9A450
:1052D4002420F9121489E960030253D07C0679FF73
:1052E400740C121DFDAA82AB831210E1E960030263
:1052F40053D07470250AF50B851882851983AC8206
:10530400AD837A0CF9121489E960030253CC851831
:1053140082851983AA82AB83121243E5084509707A
:105324002C7C0C7900851882851983AA82AB8312A0
:1053340010E1E960030253CC7C0C7D0079008518F0
:1053440082851983AA82AB8312107B805D851882C3
:10535400851983AC82AD83AA08AB0912123D8A0C6D
:105364008B0DA80CA90DE8497028EE4F605E8518D6
:1053740082851983AC82AD837A007B0012123DEAE8
:10538400F8EBF9EA4B604588828983E508F0A3E5E8
:1053940009F01253D7FAEE6A7001EF602BEEF04F6A
:1053A400700888828983E4F0A3F0851882851983C4
:1053B400AA82AB83121243851882851983AC82AD0D
:1053C400837A0CA90B121483790180027900741A70
:1053D400025C45E82402F582E93400F583E0227496
:1053E400F7121E097F00EF75F003A4F8A9F0EC286A
:1053F400F8ED125416E06A7003A3E06B7006E8FA45
:10540400E9FB800B0FEFC3940440DB7A007B0002BE
:1054140057C139F9888289832274F7121E097E00E4
:10542400EE75F003A4F8A9F0EA28F8EB125416E09C
:10543400F4FCA3E0F4FD88828983ECF0A3EDF01280
:1054440053D7F4F00EEEC3940440D50257C174F25E
:10545400121E0974F4121DB2EAFEEBFF8C088D09CA
:10546400900A2D125E467051EE4F70030255DBEC2C
:10547400450970030255DB121255E9900F10F0C371
:10548400940A4035750B007C0679FFE50B75F00E28
:10549400A4FAABF074952AFA74093BFB1210E1E903
:1054A4006005850B0A800C050BE50BC3940A40D7F5
:1054B400750A0AE50A900F10F0900F10E0C3940AE1
:1054C40040030255DB75F006E0A4FB900A2D125E42
:1054D40046706FEEFCEFFD7A0E74202BF9121483E4
:1054E4007C0C7D0079FF851882851983AA82AB83A1
:1054F40012107B851882851983AC82AD837A0C9057
:105504000F10E02470F9121483750C0E750D0078D9
:105514000C12201CEEFCEFFD900F10E075F00EA4B1
:10552400F8A9F0749528FA740939FB12106374020F
:10553400121DC8900A2DE508F0A3E509F0790002D0
:1055440055DDE0C824061255FF601A7A1B74212B1E
:10555400F91214831255EB2406F582E83400F5831E
:10556400E4F0A380D71255EB240A1255FF60107A99
:105574001B74222BF91214831255EB240A80DA12BD
:1055840055EB240C1255FF60107A1074232BF9127A
:1055940014831255EB240C80C01255F41255FF608D
:1055A4002A7A1074242BF91214831255F4F582E824
:1055B4001253DD2410FCA3E01255E2900F10E0A476
:1055C4002425F91214831255F4808E900A21E06088
:1055D4000312129D12128B7901740C025C45340083
:1055E400FD7A0475F00622900A2DE0F8A3E0C822A3
:1055F400900A2DE0F8A3E0C8240822F582E83400DC
:10560400F58312560CEC4D22E0FCA3E0FD2274F469
:10561400121E0974F2121DB2EAFEEBFFE9C3940AEA
:105624005004EE4F70047902803E851882851983F8
:10563400AC82AD837A0E75F006E9A42420F9121425
:1056440089E9F5087020750A06750B00780A12209E
:105654001C7402121DFDAC82AD83EEFAEFFB121036
:10566400637402121DC8A908024E2074F4121E09A4
:10567400EAFEEBFF750800750A06750B00780A123E
:10568400201CEEFCEFFDE50875F00EA4F8A9F074FB
:105694009528FA740939FB1210757402121DC8E9B1
:1056A4006004A908800B0508E508C3940A40C8797A
:1056B4000A024E2574F7121E0974F0121DB2EAFE96
:1056C400EBFF750800851882851983AC82AD837A57
:1056D4001075F006E508A42423F9121489E9702C46
:1056E4007C1079FF851882851983AA82AB831210F6
:1056F400E1E97018EEFCEFFD851882851983AA8212
:10570400AB831205DDE97004A908800B0508E508E0
:10571400C3940A40B0790A7410121DC80257C174A8
:10572400F7121E09750800E50875F00EA4F8A9F033
:10573400749528FE740939FFEEFCEFFD7A0E75F0BE
:1057440006E508A42420F9121489E9602C7C067D5E
:105754000079FFEEFAEFFB12107B7C067D0079FFE7
:10576400EE2406FAEF3400FB12107BEE240CF582D3
:10577400EF3400F583E4F0A3F00508E508C3940AC8
:1057840040A5900A21E0600312129D12128B802D15
:1057940074F7121E097E007F007C0679FFEF75F016
:1057A4000EA4FAABF074952AFA74093BFB1210E1CB
:1057B400E970010E0FEFC3940A40DEEEF97F010297
:1057C4001EDB74F7121E097E00EEF91212730EEE40
:1057D400C3940A5003E960F180E374F3121E097460
:1057E400CB121DB2E9FE900F10E06E701B7A017BA4
:1057F40000900979E0F91210C37A027B00900979CC
:10580400E0F91210C31212A975F006EEA4FF742079
:105814002FF5087427121DFDAC82AD837A0EA908FA
:10582400121489E960030259187C0679FF7427125F
:105834001DFDAA82AB831210E1E960030259187CB2
:105844000E7D0079FF7427121DFDAA82AB8312100E
:105854007B7C1B7D0079FF740C121DFDAA82AB8337
:1058640012107B7C0C7D0079FF851882851983AA30
:1058740082AB8312107B7427121DFDAC82AD837A38
:105884000EA908121483E9F508740C121DFDAC82EC
:10589400AD837A1B74212FF9121483E9F509740C72
:1058A400121DFDAC82AD837A1B74222FF91214836E
:1058B400E9F50A740C121DFDAC82AD837A107423D1
:1058C4002FF9121483E9F50B740C121DFDAC82AD93
:1058D400837A1074242FF9121483E9F50C740C12D2
:1058E4001DFDAC82AD837A0474252FF9121483E96B
:1058F400FF851882851983AC82AD837A0C74702E6F
:10590400F9121483E9F8E509450A450B450C4F489B
:1059140042088003750800A9087435121DC87F0564
:10592400021EDB74F7121E09E9900979F012126164
:105934000257C174F4121E09EAFEEBFF548070038F
:105944000259CF900979E0F91210A58A088B09EA67
:105954004509607078018A828B83E02450603D148D
:10596400600624E1604F8052A3A3A3A3E0704E8A93
:10597400828B83A3A3A3A3A3A3A31220338A828B22
:1059840083A3A3A3A3A312560C8A828B83A3A3127B
:105994005A6E12121F7402121DC88021A3A3A3A35E
:1059A400E0641E701879008A828B83A3A3125A6E56
:1059B400121219800812122BE9F8E86007AA08AB42
:1059C40009121093EEFAEF64808065EE54026023AE
:1059D4007C007D007A007B00121249E960117A0193
:1059E4007B00900979E0F91210BDEE6402803F7AE1
:1059F400028046EEA2E0503F125A42125A6E121230
:105A0400A3E9602F125E43601F12520A88088909B5
:105A1400E8450960137C007901125A42125A6E85D6
:105A24000882850983121E071212A9EE6401FAEF97
:105A3400FB80087A0180027A007B00024E25900ADE
:105A44002DE0F8A3125222A3227F02021EDBC082A1
:105A5400C083900979E0F98A828B83A3125A6E126B
:105A64000865803B850882850983E0FAA3E0FB2270
:105A7400C082C08374FF121DB2121267E9C394027C
:105A8400851882851983400474028002740AF0AC7C
:105A940082AD837A0179051206EB7401121DC8D018
:105AA40083D08202013574F2121E0974E8121DB209
:105AB400EAFEEBFF890A8C088D097C187D007900C9
:105AC400851882851983AA82AB8312107B8518827C
:105AD400851983EEF0A3EFF090097BE0C0E0740237
:105AE400121DFDD0E0F090097CE0C0E07403121DAB
:105AF400FDD0E0F0900F0FE0C0E07417121DFDD050
:105B0400E0F07415121DFDE054FEF8A3E0F9900FC7
:105B14000EE0A2E0E433FAE84AF87415121DFD120F
:105B24005C54A2E15004D2F08002C2F0E854FDFAC1
