:020000040000FA
:0600000002011D02219B1C
:03002B00022901A6
:0300530002220E78
:03006B000228CF99
:10008300022007E5C754F84401F5C77901220000AF
:100093000080FB120086B90003020107E47921788E
:1000A30008B800028004F709D8FCE479297802B87B
:1000B30000028004F709D8FCE490028178C579072F
:1000C3008002F0A3D8FCD9FA781A90014D7A01BACC
:1000D30000028007E493A3F608DAF9900945AA829F
:1000E300AB8390014E783C79048015E493A3AC82F2
:1000F300AD838A828B83F0A3AA82AB838C828D83A8
:10010300D8E9D9E775829B75837F740012012F7537
:100113008291758300740012012F75D00075813FA1
:10012300751881751902759F00020096C09FF59F8F
:10013300E473D09F22D083D082C09FE493C0E07445
:100143000193C0E0740293F59F2201FF0000B40005
:100153000028002800283075A000A000A000A000FF
:1001630000080008E001F00010001000100010006B
:100173001000100050005000500010001000D00775
:100183000000000000000F000100050030750700AB
:100193001000010081FF00000000FF8706A5068D07
:1001A30006FF02020208025000A0000000E803025A
:1001B300B881010000A78102AE810100009C090201
:1001C300AC81010000B30202AE810100009D09026F
:1001D300DE81010000C90202AE810100009E090216
:1001E300B081010000CB0202AE810100009F090231
:1001F300C481080000CC0202AE81010000A0090204
:10020300B481010000A109FF0100FF2002B88101B0
:100213000000A18102AE81010000050A02B681003F
:100223000000000002AA8103000019035D0C5D0CAD
:100233005D0C5D0C5D0C5D0C5D0C5D0C5D0C5D0C73
:100243005D0C5D0C5D0CF10E090FEB0EFFFF02025E
:1002530002020202020202010D000000100102B8B4
:1002630081010000A48102AE81010000480A02BEA0
:10027300810100005D0702AE81010000490A02C04E
:1002830081010000158102AE810100004A0A02C209
:1002930081010000F98002AE810100004B0A02E4F3
:1002A30081010000938002AE810100004C0A02CE5E
:1002B30081010000818002AE810100004D0A02CC61
:1002C30081010000B78002AE810100004E0A02CA1C
:1002D30081010000A58002AE810100004F0A02C81F
:1002E30081010000078102AE81010000500A02C6AD
:1002F30081010000510A01E803053F100AFF0001D4
:100303003075030201060000000000000000000039
:1003130000000000000000000000000000000000DA
:100323000000FFFF0600800CE803140953696D7099
:100333006C65424C455065726970686572616C0505
:100343001250002003020A000201050302F0FF53CA
:10035300696D706C6520424C452050657269706808
:100363006572616C002F13000035130A43686172D4
:100373006163746572697374696320310002436851
:100383006172616374657269737469632032000812
:10039300436861726163746572697374696320335E
:1003A3000010436861726163746572697374696391
:1003B3002034000243686172616374657269737407
:1003C300696320350002B8810100009B8102AE8180
:1003D300010000650B02D2810300002F0902228174
:1003E300010000660B02AE81010000770B02D4818D
:1003F3000100003009022281010000780B02AE8166
:10040300010000890B02D68102000031090222811A
:100413000100008A0B02AE810100009B0B02D88110
:10042300000000320902AA8103000033090222817D
:100433000100009C0B02AE81010000AD0B02DA81CA
:100443000400003909022281010000AE0B104B6544
:10045300792050726573732053746174650002B818
:10046300810100009E8102AE81010000470C02E27F
:10047300810000003E0902AA810300003F09022215
:1004830081010000480C12013842980312013859C7
:1004930098031201388A9803120138C59803120190
:1004A30038EF980312013819990312013830990370
:1004B3001201384799031201385E990312013887F4
:1004C30099031201389A9903120138B09903120162
:1004D30038C39903120138EA990312013879F501F7
:1004E3001201387DF601120138B5F601120138D830
:1004F300F601120138E3F60112013806F701120181
:100503003815F801120138EAF80112013865F901CA
:10051300120138EDF90112013828FA011201385F8E
:10052300FA01120138EDFA01120138C6FB0112017A
:100533003826FC0112013831FC01120138B0FC01EC
:10054300120138B3FC01120138B6FC01120138451F
:10055300FD0112013848FD0112013878FD01120135
:1005630038A2FD0112013890FE0112013842FF0149
:10057300120138DFDC0212013807DD0212013835BF
:10058300DD021201386CDD02120138CADD021201EC
:100593003815DE0212013860DE02120138A0DE02D5
:1005A300120138E6DE0212013814DF02120138D1DB
:1005B300DF02120138DBDF02120138E8DF02120129
:1005C300381BE002120138E7E002120138F3E002BF
:1005D3001201380BE10212013815E102120138B1A0
:1005E300A403120138BFA403120138D7A4031201D4
:1005F30038EFA4031201385ACA0112013806CB019D
:1006030012013881CB01120138A2CC01120138DE6C
:10061300CC0112013887CD011201386ECE011201CF
:1006230038D2CF0112013829D001120138AAD001E2
:100633001201389AD101120138E7D1011201386D44
:10064300D2011201389FD201120138B3D401120131
:1006530038F5D40112013813D50112013896D501AA
:100663001201386AD60112013832D7011201380F4C
:10067300CB02120138E2CB021201388BCC021201F9
:1006830038DECC021201388ECD021201381ACE02A6
:1006930012013806CF0212013835CF021201384851
:1006A300D00212013890D00212013865D102120132
:1006B30038A1D102120138BDD102120138CBA603F1
:1006C30012013864FC021201387AFC02120138A0CC
:1006D300FC02120138BCFD02120138C6FD021201F0
:1006E30038FBFE02120138F3FF02120138B8D702B9
:1006F300120138E8D8021201381BD90212013865F9
:10070300D9021201382CDB0212013809AB011201A4
:100713003873AB01120138D2AC01120138E2AC01DB
:100723001201380FAD0112013866AD011201380F05
:10073300AE0112013816AF01120138E0AF01120108
:100743003840B10112013883B10112013828B201D6
:1007530012013875B2011201389BB201120138A996
:10076300B401120138AEB401120138B3B60112015B
:100773003800B70112013873B701120138A6B70167
:1007830012013848B801120138F1B80112013829B1
:10079300B9011201382CB90112013874B9011201DF
:1007A30038B4B9011201380BBA011201385B8A035C
:1007B300120138738A03120138BB8A03120138D13C
:1007C3008A03120138188B031201382C8C0312018F
:1007D30038B98C03120138048D0312013830290013
:1007E3001201383C2900120138772900120138BC64
:1007F30029001201387C2A00120138022B00120151
:1008030038672B00120138932B00120138CC2B00D0
:100813001201380A2E00120138EE2F00120138D4CB
:100823003100120138173300120138653500120107
:1008330038773600120138C23700120138D2380037
:10084300120138EF38001201382A39001201384CEE
:100853003900120138AF3900120138703E0012011D
:1008630038053F00120138563F001201387D3F0022
:10087300120138CF3F00120138ED3F001201384713
:100883004000120138304100120138A64200120123
:10089300382A43001201384EE60212013858E602A4
:1008A3001201389BE602120138B6E60212013846FD
:1008B300E7021201386EE702120138ABE7021201B8
:1008C30038E2E7021201380BE80212013880E8022D
:1008D30012013895E802120138AAE802120138DB46
:1008E300E802120138EFE80212013814E90212019A
:1008F300384EE9021201387AE902120138B2E902EC
:1009030012013831EA021201387AEA02120138A4DC
:10091300EA02120138CFEA02120138C79F0312011B
:1009230038E99A02120138179B02120138659C02BA
:10093300120138459D02120138649D02120138E10B
:100943009D02120138249E021201387A9F0212017D
:10095300383BA002120138C2A20212013863A3027B
:1009630012013859A40212013856A502120138B0F7
:10097300A6021201383BA702120138439D0312015C
:1009830038AC9D03120138009E03120138279E03E1
:10099300120138589E0312013891EF02120138FEFA
:1009A300EF0212013845F0021201385DF102120123
:1009B3003859F2021201383CF302120138EAB2024A
:1009C3001201382CB302120138FEB302120138D7D8
:1009D300B402120138D1B502120138B3B6021201C2
:1009E300381CB702120138D2B70212013846B802D6
:1009F300120138B2B802120138DBB80212013855BD
:100A0300B902120138EEB90212013853BA021201C7
:100A13003868BA02120138AEBA02120138C7BA02F4
:100A23001201382CBB021201382FBB0212013862AB
:100A330087031201388A8703120138C8870312011A
:100A430038868803120138ED8803120138098903B7
:100A53001201383189031201386189031201387098
:100A63008903120138ED8903120138138A03120135
:100A730038F8BA01120138D6BC0112013808BF0197
:100A830012013844BF0112013871BF011201385BF2
:100A9300C001120138A6C001120138F1C0011201D0
:100AA3003803C10112013843C10112013878C10171
:100AB300120138C6C101120138F5C10112013818FB
:100AC300C20112013865C201120138EAC2011201E2
:100AD3003804C50112013843C70112013884C70124
:100AE30012013826C90112013867C901120138DA27
:100AF300C90112013830CA01120138D48D02120122
:100B030038D28E021201386B95021201388C97028B
:100B1300120138579902120138BF9A021201389113
:100B230043001201384044001201386D44001201A1
:100B330038B34400120138F34500120138894700E5
:100B43001201380348001201381E48001201389977
:100B53004800120138F34900120138534B001201C7
:100B630038594C00120138BA4D00120138D34D00E8
:100B7300120138314E001201381F4F001201385252
:100B83004F00120138C24F001201383C50001201CD
:100B93003886500012013850510012013825520096
:100BA3001201380453001201388F5300120138FD2B
:100BB30053001201387154001201389C5400120181
:100BC300385B5500120138C05600120138DD56005B
:100BD300120138FC5600120138ED57001201381289
:100BE30058001201383C5800120138B7580012015E
:100BF300381159001201387A5A00120138285B0063
:100C0300120138695B001201380080021201384E6C
:100C130080021201385A800212013838810212010F
:100C2300386981021201389A81021201381A82024C
:100C3300120138528202120138A48202120138E1F1
:100C43008202120138FE8402120138248702120143
:100C5300380F8902120138F98A0212013825290056
:100C6300120138F69601120138269701120138FF56
:100C73009D01120138849F0112013881A5011201DF
:100C83003869A601120138A6A601120138C9A601C6
:100C9300120138FAA60112013803A7011201380D17
:100CA300A701120138FBA701120138F1A8011201B3
:100CB30038E78101120138E68501120138EC85011C
:100CC300120138278D0112013840920112013800B8
:100CD3008003120138968003120138AC800312019D
:100CE30038228103120138968103120138D481031B
:100CF300120138488203120138C18203120138CA33
:100D03008203120138D68203120138EB82031201E7
:100D1300382983031201383F83031201389E83036A
:100D2300120138FEF3021201380BF40212013825C6
:100D3300F40212013864F402120138A2F40212011F
:100D43003807F5021201381CF50212013827F502A3
:100D530012013834F5021201384BF50212013859E9
:100D6300F50212013864F50212013870F50212011E
:100D7300387FF5021201388AF502120138ADF50207
:100D830012013854F60212013864F6021201387E59
:100D9300F6021201389BF602120138B7F60212016D
:100DA30038DCF602120138E7F602120138FCF602CB
:100DB30012013810F70212013871F7021201387765
:100DC300F7021201387DF70212013883F70212018C
:100DD300389BF702120138CEF70212013850D901BD
:100DE300120138D4D90112013883DA01120138E231
:100DF300DB0112013803DE01120138EFDE011201BB
:100E03003824DF0112013846DF01120138F5DF0112
:100E1300120138EDE10112013816E201120138A87E
:100E2300E201120138DAE201120138E7E2011201AC
:100E3300383EE30112013864E301120138D1E501C0
:100E4300120138D4E6011201382CE7011201382FC0
:100E53007100120138397200120138207300120137
:100E6300382A73001201384C73001201385873008A
:100E7300120138F174001201382075001201383C58
:100E83007600120138957600120138FB77001201C3
:100E930038DA7800120138367900120138A3790064
:100EA300120138DE79001201381D7A00120138D69A
:100EB3007C00120138F07C001201387C7D001201A5
:100EC300388A7D00120138E37D00120138F17D007C
:100ED300120138647E00120138C87E0012013812F4
:100EE3007F00120138BCA702120138DEA7021201EB
:100EF3003804AA0212013819AD0212013831AE02C8
:100F0300120138E4AE02120138C6AF02120138FCF6
:100F13009903120138219A03120138939A0312019B
:100F23003895C3021201389EC302120138A7C302C7
:100F33001201387EC4021201382FC602120138652D
:100F4300C6021201389FC602120138D5C602120129
:100F5300380FC70212013843C7021201386FC702A4
:100F6300120138B8C702120138F2C7021201383B26
:100F7300C80212013893C802120138C8C80212010C
:100F83003823C9021201385DC902120138AEC90201
:100F9300120138E4C9021201381ECA021201384C88
:100FA300CA021201386FCA0212013888A50312015E
:100FB30038B4A5031201380FA60312013819A6038A
:100FC30012013829A60312013832D2021201383C29
:100FD300D2021201387AD202120138C3D2021201AC
:100FE30038FDD20212013857D30212013878D302E6
:100FF30012013881D302120138CED302120138F71D
:10100300D30212013801D4021201386DD402120145
:1010130038FFD40212013849D5021201387FD502B4
:101023001201380BD6021201384CD6021201388352
:10103300D60212013895D602120138B4D602120133
:1010430038BDD6021201388AD702120138DBA20357
:10105300120138849403120138BA9403120138F050
:1010630094031201383B960312013833A60312018D
:101073003849A60312013853A6031201389DA6036B
:101083001201384FA703120138F7EA021201380C94
:10109300EB02120138BCEB02120138FCEB02120125
:1010A3003815EC0212013850EC021201389DEC02A3
:1010B300120138CFEC0212013811ED02120138127D
:1010C300EF0212013884EF02120138E4A103120186
:1010D300380DA2031201383CA20312013854A203B3
:1010E30012013896A2031201382E8D0312013853D0
:1010F3008D031201387D8D03120138AEA70312014F
:1011030038995B00120138FE5D001201389F5F00C1
:10111300120138536000120138E660001201386B87
:101123006100120138906100120138E66400120177
:10113300386C65001201389F6600120138D96600C9
:101143001201380E6700120138CE68001201382BE5
:101153006900120138746900120138DF6900120155
:1011630038506A00120138826A001201389A6A0004
:10117300120138E36B00120138F36B001201380ED1
:101183006D00120138306D00120138666D001201D6
:10119300381A6F00120138A76F00120138E66F008A
:1011A3001201380A71001201384EA803120138B334
:1011B300FF01120138F2FF011201385FA803120187
:1011C30038D2A303120138E2A303120138F7A303B1
:1011D300120138ABA403120138E0A00312013865F1
:1011E300A103120138CBA1031201389E9E03120101
:1011F30038C59E031201381B9F031201382D9F032C
:101203001201387D9F03120138BB9F03120138BEC0
:101213009F031201384BF8021201385FF8021201E2
:1012230038D9F802120138BDF90212013894FB02D1
:10123300120138F9FB0212013850FC02120138F88E
:101243007F001201383F9203120138DA930312012F
:10125300383B9403120138819403120138A19B0394
:10126300120138F39B031201387D9C03120138E409
:101273009C03120138FA8F031201382490031201E0
:1012830038F29003120138CD910312013853BB0297
:101293001201381ABC0212013851BC021201387B08
:1012A300BC02120138DBBC0212013831BD0212014B
:1012B3003896BD021201382EBE021201383DBF021C
:1012C300120138D4C00212013861C102120138C8B8
:1012D300C102120138DFC102120138F9C202120140
:1012E3003837C3021201387AE701120138FBEA01E9
:1012F30012013883EC01120138DAEC01120138F9DA
:10130300EC0112013877ED011201380DEF011201E2
:1013130038F2EF0112013800F401120138D6F4015A
:101323001201389CE10212013849E4021201386FBC
:10133300E50212013819E602120138CE83031201C5
:1013430038138403120138308403120138E684030E
:101353001201383985031201380F86031201382927
:101363008703120138759603120138BA96031201E6
:10137300380E970312013891970312013809980325
:1013830012013804A80312013830A803E066701074
:1013930008A3E066700A08A3E066700408A3E06689
:1013A30022C3E7960809E7960809E7960809E7962E
:1013B30022C3E09608A3E09608A3E09608A3E0966C
:1013C30022C008C3E096F50808A3E096420808A3E4
:1013D300E096420808A3E09645087001D3D008229E
:1013E300080808EAC0E0EBC0E086F0E7A4FA1809B1
:1013F30086F0E7A42AFA180986F0E7A42AFA18095E
:1014030086F0E7A42AFA1986F0E7A4FBE5F02AFAA6
:10141300190886F0E7A42BFBE5F03AFA190886F0E1
:10142300E7A42BFBE5F03AFA18180986F0E7A4C500
:10143300F02BFBE43AFA1908E7C5F0C6A426F6E553
:10144300F03BFBE43AFA1886F0E7A4F6E5F0082649
:10145300F6E43B08F6E43A08F6D0E0FBD0E0FA22E3
:10146300E4CFC0E0E4CEC0E0E4CDC0E0E4CCC0E033
:1014730075F020C3E633F608E633F608E633F608DC
:10148300E633F6181818EC33FCED33FDEE33FEEFBC
:1014930033FFC3EC9709ED9709EE9709EF971919F5
:1014A30019400FFFEC97FC09ED97FD09EE97FE1924
:1014B3001906D5F0BEECF709EDF709EEF709EFF7DA
:1014C300191919D0E0FCD0E0FDD0E0FED0E0FF22F6
:1014D3006016080808C6C313C618C613C618C61371
:1014E300C618C613C6D5E0EA2270090808082260A8
:1014F30016181818C6C333C608C633C608C633C67B
:1015030008C633C6D5E0EA22E627F60809E637F629
:101513000809E637F60809E637F622E026F608A3B7
:10152300E036F608A3E036F608A3E036F622E02616
:10153300F008A3E036F008A3E036F008A3E036F0A5
:1015430022C3E697F60809E697F60809E697F60830
:1015530009E697F622C3E096F008A3E096F008A305
:10156300E096F008A3E096F022E657F60809E6575E
:10157300F60809E657F60809E657F622E056F60894
:10158300A3E056F608A3E056F608A3E056F622E0D9
:1015930056F008A3E056F008A3E056F008A3E0567F
:1015A300F022E0F608A3E0F608A3E0F608A3E0F6CD
:1015B30022E6F008A3E6F008A3E6F008A3E6F0228B
:1015C300E0FAA3E0FBA3E0FCA3E0FD22EAF0A3EB37
:1015D300F0A3ECF0A3EDF022CAC0E0E6F0A308DA32
:1015E300FAD0E0FA22CAC0E0E0A3C582CCC582C526
:1015F30083CDC583F0A3C582CCC582C583CDC58306
:10160300DAE6D0E0CA22C3E498F8E499F912164A5C
:101613008026C3E49AFAE49BFBE920E7E912164A21
:10162300E498F8E499F922C3E498F8E499F91216D6
:101633004AE498F8E499F9C3E49AFAE49BFB22EBB1
:1016430020E7CFE920E7E0B90010BB0008E88AF003
:1016530084F8AAF022E4FBC8FA22EB70227B10C8BC
:1016630033C8C933C9335007C39AC3DBF280069A20
:1016730050012ADBEAC833F4C8C933F4C9FA227526
:10168300F008E4C833C8C933C933C99AC99B5004A5
:10169300C92AC93BD5F0ECFBC833F4C8E4C9FA2224
:1016A300600D08C6A2E713C618C613C6D5E0F32219
:1016B300600C08C6C313C618C613C6D5E0F422705F
:1016C3000422600D18C6C333C608C633C6D5E0F47A
:1016D3001822251810AF08F518400215198008F5CF
:1016E3001840021519D2AF22C0D0251810AF08F543
:1016F30018500205198008F51850020519D2AFD009
:10170300D0222518F58210AF08F51840021519806C
:1017130008F51840021519D2AF851983222518F54B
:1017230082E43519F58322E4732518C582C0E0E508
:101733001934FFC583C0E0E518C3958224F810AFC0
:10174300088583198582188008858319858218D2B4
:10175300AFCEF0A3E520F0A37808E608F0A3DEFA05
:10176300EFF0A3E58124FAF8E608F0A3E608F0A376
:10177300E608F0A30808E608F0A3E608F0A315813D
:101783001581D0E0FED0E0F8158115811581E8C000
:10179300E0EEC0E0222518C582C0E0E51934FFC59C
:1017A30083C0E0E518C3958224F910AF0885831937
:1017B3008582188008858319858218D2AFCEF0A35D
:1017C300E520F0A37808E608F0A3DEFAEFF0A3E53E
:1017D3008124FBF8E608F0A3E608F0A30808E6086E
:1017E300F0A3E608F0A315811581D0E0FED0E0F860
:1017F30015811581E8C0E0EEC0E0228519838518C4
:1018030082E0A3FEE0A3F5207808E0A3F608DFFA60
:10181300E0A3FFE0A3C0E0E0A3C0E0E0A3C0E0E0FA
:10182300A3C0E0E0A3C0E010AF0885821885831948
:101833008008858218858319D2AFD083D0820201B4
:1018430035851983851882E0A3FEE0A3F520780887
:10185300E0A3F608DFFAE0A3FFE0A3C0E0E0A3C043
:10186300E0E0A3C0E0E0A3C0E010AF0885821885E4
:1018730083198008858218858319D2AFD083D082DB
:1018830022C0D02518C582C0E0E51934FFC583C046
:10189300E0E518C3958224F310AF08858319858288
:1018A300188008858319858218D2AFC8F0A3E9F0A0
:1018B300A3EAF0A3EBF0A37908E709F0A3D8FAECC5
:1018C300F0A3EDF0A3EEF0A3EFF0A3D0E0F0A3D0EC
:1018D300E0F0A3D0E0F0A3E520F0A3E5F0F0A3222D
:1018E300851983851882E0C0E0A3E0F9A3E0FAA399
:1018F300E0FBA37808E0F608A3DFFAE0FCA3E0FD31
:10190300A3E0FEA3E0FFA3E0C0E0A3E0C0E0A3E008
:10191300F5D0A3E0F520A3E0A3F5F010AF0885838D
:10192300198582188008858319858218D2AFD082E1
:10193300D083D0E0F8D0E0327404800674028002D1
:101943007401C0E0F404121705D0E01215DB227411
:1019530004800474028000CCC0E0EDC0E0E518C34D
:101963009CCCAD1950011D10AF068C188D19800643
:101973008C188D19D2AF1215E8D0E0FDD0E0FC220F
:10198300D083D082E9C0E0E493A3C386F0C5F09589
:10199300F0F908E493A386F0C5F095F0700BE49397
:1019A300A3C3994005E9048002A3E475F002A425CA
:1019B30082F582E5F03583F583D0E0F9E493A3C0A3
:1019C300E0E493C0E022D083D082ECC0E0EDC0E03D
:1019D300E493A3FCE493A3FDED4C600D121A15EC04
:1019E30024FFFCED34FFFD80EFE493A3FCE493A319
:1019F300FDED4C600D121A54EC24FFFCED34FFFD99
:101A030080EFD0E0FDD0E0FCE493A3C0E0E493C01A
:101A1300E022C0E0C3E49396087401939618400F44
:101A2300E49366700808740193661870007019A334
:101A3300A3C3E49396087401939618A3A3400DD00F
:101A4300E0D0E0D0E0021A05A3A3A3A3A3A3D0E0B0
:101A530022C0E0C0F088F0E4936670080874019334
:101A630066187000A8F0A3A3700BD0F0D0E0D0E00C
:0C1A7300D0E0021A05A3A3D0F0D0E022BE
:101A800074F5121798EAFEEBFFEE2434F8EF3400F9
:101A9000F988088909EE2435F582EF3400F583E0F2
:101AA000F8EE2437F582EF3400F583E0F50AEC8593
:101AB0000AF0A4FCAAF0850AF0EDA42AFDE82CF8AF
:101AC000E43DF97A257B0012164AEA8508828509E9
:101AD00083F0F8740758F97401B900028004C33325
:101AE000D9FCFAE8131313541FF8EE28F8EF34006A
:101AF000F9E8245DF582E93400F583E05A6008EEE8
:101B00002434F582EF802CEE2434F582EF3400F596
:101B100083E0C0E0EE2436F582EF3400F583E0F593
:101B2000F0D0E084A8F0EE28F8EF3400F9E824388B
:101B3000F582E93400F583E0F97F0402184474F576
:101B4000121798EAFEEBFFEE2434F582EF3400F52D
:101B500083E0C0E0EE2435F582EF3400F583D0E079
:101B6000F08E828F83A3A3A3A3A3A3A3C082C08369
:101B70008E828F83A3A3A3A3A3E0F8A3E0F9D0836D
:101B8000D082E0C398F508A3E099F509EE247FF52B
:101B900082EF3400F583E064017069EE2480F58201
:101BA000EF3400F583E0F8A3E0F98E828F83A3A3DE
:101BB000A3A3A3A3A3E0FCA3E0FD8E828F83A3A332
:101BC000A3A3A3E0FAA3E0FBC3EA9CEB9D5010C3E0
:101BD000EC98ED99402EC3EA98EB995027800EC3FC
:101BE000EA98EB994007C3EC98ED9940177CDC7DAF
:101BF00004EEFAEFFB120BBBEE247FF582EF34000C
:101C0000F583E4F0EE2434F8EF3400F9E8FCE9FD64
:101C1000EE2435F582EF3400F583E0F8EE2437F555
:101C200082EF3400F583E0F50AE508850AF0A4F5B3
:101C300008AAF0850AF0E509A42AF509E82508F8BC
:101C4000E43509F97A257B0012164AEA8C828D83E5
:101C5000F0F8740758F97401B900028004C333D94D
:101C6000FCFAE8131313541FF8EE28F8EF3400F9C8
:101C7000E8245DF582E93400F583E05A6008EE243B
:101C800034F582EF802CEE2434F582EF3400F583B6
:101C9000E0C0E0EE2436F582EF3400F583E0F5F0A5
:101CA000D0E084A8F0EE28F8EF3400F9E82438F505
:101CB00082E93400F583E0F91228BB021B39C082A7
:101CC000C083851882851983E0F8A3E0F9C3EA9CF4
:101CD000EB9D5010C3EC98ED99401BC3EA98EB992B
:101CE0005014800EC3EA98EB994007C3EC98ED9925
:101CF0004004790180027900D083D08222EAC39C1B
:101D0000FAEB9DFB2274EF1217989003A2E064088F
:101D10006005E06407702A9061C8E060249003D0F9
:101D2000E0F4601DE0F875F003A4C8AAF02AF97485
:101D3000D228FE740339FF8E828F83A3A3A3E070A1
:101D400003021E35906060E0C0E0EE2468F582EF8B
:101D50003400F583D0E0F0750C45750D057508006D
:101D6000750900E5D914F50AE5D95403F50E601795
:101D70007403650E605CE50A6010EE2467F582EF7F
:101D80003400F583E07003021E1A900540E0640100
:101D9000602AEE2482F582EF3400F583E060047857
:101DA0000480027800850A08E508C398FA95E0FBEC
:101DB000120A838A088B09EA45097005120DBF8053
:101DC00074EE2482F582EF3400F583E070048A0C0F
:101DD0008B0DE50A6012850C82850D83F50BE5D924
:101DE000F0A3150BE50B70F6EE2482F582EF3400BC
:101DF000F583E0604474FC250AF50A780C12193F5B
:101E0000AC0AA90EEEFAEFFB120C5774021216EB95
:101E1000E97026AA08AB09121263793D8E828F837E
:101E2000A3A3A3A3E0FA7B00120957EEFAEFFB127B
:101E30000BD3120C69790080747403650E605685AB
:101E40000A10751100781012193FAC0CAD0DAA08DC
:101E5000AB09120C3374021216EBEE2468F582EF14
:101E60003400F583E064807004747F8001E0F50C39
:101E7000780C121943E50EF50C780C121943A90AD7
:101E8000AC08AD099003D0E0FA7B0012091B740284
:101E90001216EB80139003A2E06408600BAC0CAD4B
:101EA0000DEEFAEFFB120CC3120DCB79017F0A0283
:101EB000184474F512179874FC1216D5EAFEEBFF5D
:101EC0008908A2AFE433F509C2AF806AEE2463F853
:101ED000EF3400F97A007B00A2AFE433F50AC2AF19
:101EE00088828983E0FCA3E0FDEC4D603A8882891A
:101EF00083E0FAA3E0FB8A828B83E0FCA3E0FD8809
:101F0000828983ECF0A3EDF08A828B83E4F0A3F066
:101F100088828983E0FCA3E0FDEC4D700A88828909
:101F200083A3A3E4F0A3F0E50AA2E092AF12126348
:101F30009004E3E004F0EE2463F582EF3400F583CF
:101F4000E0F8A3E0F9E849603DEE2463F582EF3460
:101F500000F583E02402FAA3E03400FBEA2402F552
:101F60000AEB3400F50B780A12193F8A828B83E062
:101F7000FCA3E0F9EEFAEFFB120BF774021216EB7A
:101F8000E97003021ECC9004E3E060639004E4E097
:101F9000F89004E3E0C398500C7402650870509008
:101FA00004E5E0604A8E828F83A3A3A3A3E0851893
:101FB00082851983F0A3E4F09004E3E0F874021240
:101FC0001720E8F0A3E4F09004E3E0F89004E2E0E6
:101FD00028F07402121720AC82AD8385188285190F
:101FE00083AA82AB8379011209279004E3E4F0E528
:101FF00009A2E092AF74041216EB021B3900000034
:102000008521878522C622C0E0C0D0E8C0E0E9C0B3
:10201000E0EAC0E0EBC0E0ECC0E0EDC0E0EEC0E024
:10202000C008C009C00AC00BC082C083C0F0A2AF04
:10203000E433FEC2AF759B00906182E0A2E05012D3
:10204000E591A2E0500C7591FE74016521700312B8
:102050001D05E0A2E55051E591A2E5504B7591DFD9
:102060009003A2E064076005E064087023740165D2
:1020700021703579019003D0E0FA75F003A4CAA865
:10208000F028FB74D22AFA74033BFB121EB28018AC
:10209000E0640D70139003C4E004F064287002E45F
:1020A000F07A00E0F9120DD1906182E0A2E64003DF
:1020B00002214EE591A2E6400302214E7591BF90A8
:1020C00003A2E064057008120CF9120D05800312DA
:1020D0000CFF752100120D5FE99003A3F079001247
:1020E0000D53120B317A017B009003A1E0F912101D
:1020F00023907803E064427055900544E014F0703A
:102100004DC2AF12210600782AD0E0F618D0E0F6D2
:10211000E59F540770057509FF800375097FC4C0EA
:10212000E07829E6F50808E65509F509740B780802
:102130001216B3D0E02508F8906270E0A2E740F8EC
:10214000E8C333906272F0906270E0D2E0F0906188
:1021500081E0A2E35009E5E9A2E3500375E9F7A3A2
:10216000E0A2E75009E591A2E7500375917FEEA246
:10217000E092AFD0F0D083D082D00BD00AD009D07B
:1021800008D0E0FED0E0FDD0E0FCD0E0FBD0E0FAEB
:10219000D0E0F9D0E0F8D0D0D0E032C0E0C0D0C07C
:1021A00082C083906183E0A2E05009E5BFA2E050C5
:1021B0000375BFFEE0A2E15009E5BFA2E15003753F
:1021C000BFFDE0A2E25009E5BFA2E2500375BFFBEC
:1021D000E0A2E35009E5BFA2E3500375BFF7E0A218
:1021E000E45009E5BFA2E4500375BFEFE0A2E5505B
:1021F00009E5BFA2E5500375BFDFE0A2E65009E59F
:10220000BFA2E6500375BFBFD083D0828088C0E0F4
:10221000C0D0E8C0E0E9C0E0EAC0E0EBC0E0ECC05C
:10222000E0EDC0E0C0F0E5A7A2E6500FE5A1A2E610
:10223000500953A7BF75A1BF122273E5A7A2E550AD
:102240000CE5A1A2E5500653A7DF75A1DFE5A7A223
:10225000E15009E5A1A2E1500375A1FDE5A7A2E2C5
:10226000500CE5A1A2E2500653A7FB75A1FBD0F0EC
:1022700002218474F81217987521019003A2E0647A
:10228000067015120C878A828B83A3A3A3A3A3A332
:10229000E0FAA3E0FB120CE7A2AFE433FED2AF906A
:1022A00003A8E0640170187A207B009003A1E0F994
:1022B0001210AD7A207B009003A1E0F91210299052
:1022C0006182E0D2E6F0900541E0602185C622807F
:1022D000169003A7E064017008E5C654F84405F5BC
:1022E000C653BEFC1220007401652160E4EEA2E03A
:1022F00092AF7F01021844008E238F2485822885A7
:102300008327851882851983E0CEA3E0CF852882B4
:10231000852783EBC9EAC8EDCBECCA75F010C3E89A
:1023200033C8E933C9EA33CAEB33CBC3EA9EF52697
:10233000EB9FF525B35004AB25AA26EC33CCED3347
:10234000CDD5F0DAAE23AF242274E912179874F8D1
:102350001216D5851882851983ECF0A3EDF08A0852
:102360008B099003A2E024F7C39405500675080179
:102370000224E0120C878A0A8B0BAE0AAF0BEE4FD9
:1023800070030224DDAC08AD097402121720AA8282
:10239000AB83120D178E828F83A3A3750CFF750D6F
:1023A000FF750EFF750F00780C12157F740212175F
:1023B000207510FF7511FF7512FF7513007810124C
:1023C000157F780C79101213A4502A780C7910120A
:1023D00015447508017509C8750A00750B00780861
:1023E000790C1213A45052850C08850D09850E0A2C
:1023F000850F0B80507514017515C875160075177B
:102400000085100885110985120A85130B78087953
:102410000C121544781479081213A4401C75080096
:10242000750900750A00750B0178087910121544BA
:102430007808790C12150B800C7508017509007568
:102440000A00750B00740978081214EC750C19F564
:102450000DF50EF50F7808790C1214638E828F83B8
:10246000A3A3A3A3A3A3E0F8A3E0F97AD07B03126C
:10247000164A880C890DE4F50EF50F7808790C12D0
:10248000150B7406121720E0F8A3E0F97AD07B034D
:1024900012164AE8FA8A0CE4F50D7808790C121342
:1024A000A450077808790C1215449003A2E0640840
:1024B000600AE064066005E06405702D750C0D7817
:1024C0000C79081213A44021750CF4750DFF750EDC
:1024D000FF750FFF7808790C12150B800C7508003A
:1024E000750900750A00750B00851882851983E04F
:1024F000F8A3E0F583888278081215B474081216E0
:10250000EB7F1002184474F7121798120D299005EA
:102510003FE064017010906245E4F0A3F053F4F3DF
:1025200043FE0C5390F3120CD5E5C654804449F594
:10253000C6E59E547F644970F8906185740FF090F1
:10254000053DE0F47002A3E0604E90053EE06008B7
:1025500014601B14602E80407508017509009005F9
:102560003DE078081216C2E508F45280802A75080A
:102570000175090090053DE078081216C2E508F4DF
:102580005290801475080175090090053DE07808A7
:102590001216C2E508F452A079007F0202184474B2
:1025A000F7121798E9FEEAFF74016E700C7A807BCF
:1025B000009003A1E0F9121023902928E493F4601D
:1025C00008E493F9120B25800953C680E59E547FD9
:1025D00070FA120CDB90053FE064017003120B3DB2
:1025E00090053DE0F47002A3E0604B90053EE06092
:1025F0000814601A14602C803D750801750900905C
:10260000053DE078081216C2E5084280802875086A
:102610000175090090053DE078081216C2E50842F0
:1026200090801375080175090090053DE078081247
:1026300016C2E50842A0120D29120C878A088B09E0
:10264000A808A909E8496015E5E170FCE82414F53B
:1026500082E93400F583E0F46003E0F5E174016F92
:10266000700A7A019003A1E0F912107702259A749A
:10267000ED1217988A088B098C0A8D0B74131217A8
:1026800020780C1215A57808790C1213A475100186
:102690007511C875120075130050127808790C1264
:1026A0001544781079081213A450168010780C790C
:1026B000081215447810790C1213A4400479018093
:1026C0000279007F0C02184474ED1217988A088B67
:1026D000098C0A8D0B7413121720780C1215A5782B
:1026E0000C79081213A440117808790C121544AA29
:1026F00008AB09AC0AAD0B8022751000751100758E
:1027000012007513017810790C12154478107908AD
:1027100012150BAA10AB11AC12AD1380A68A828BD6
:10272000837508FF7509FF750AFF750B007808129D
:1027300015927F0402184474F51217988C828D83C9
:1027400078081215A58A828B837808121558EA2416
:1027500004F8EB3400F98C828D83A3A3A3A3E0FCDF
:10276000A3E0FD88828983C3E09CF0A3E09DF0880C
:10277000828983C3E09420A3E0944E40268A828B12
:10278000837508FF7509FF750AFF750BFF7808123E
:1027900015318A828B83A3A3A3A3E02420F0A3E0B6
:1027A000344EF002271D74F5121798E9FE9004F7D5
:1027B000E0FAA3E0FBEEC333F8E433F974C928F57B
:1027C00082748039F583E02AF508A3E03BF50978A7
:1027D0000812193F7A407B427C0F7D001222F87468
:1027E000021216EB8A088B098C0A8D0B741078087C
:1027F0001214D3AA08AB097F0402184474F112170B
:10280000988A0C8B0D8C0E8D0F740F121720E0FA26
:10281000A3E0FB7411121720E0F508A3E0F5097896
:102820000812193FEA2401F508EB3400F509E4F534
:102830000AF50B780C79081213E375087175090213
:10284000780C79081213E3AA0CAB0DAC0EAD0F1285
:1028500022F874021216EB8B09EA450960047A012A
:1028600080027A00EC2AFCED3400FD74131217206C
:10287000E0F8A3E0F9E8FEE9FFECF8EDF97A717B06
:102880000212164A880889098E828F8378081215E9
:10289000B4ECF8EDF97A717B0212164A8A088B09BA
:1028A000740578081216C28E828F83A3A3A3A3E5B2
:1028B00008F0A3E509F07F08021844C082C083E94C
:1028C000906000F0D083D08222C2AF02000022C00C
:1028D000E074F2121884A2AFE433FED2AFE589A20D
:1028E000E04006E589A2E1500312120375890075E4
:1028F0008900C2C5751A00EEA2E092AF7F010218EE
:10290000E3C0E0C0D0E8C0E0E9C0E0E5A8D2AFC2D3
:10291000C7751A00A2E7A2E792AFD0E0F9D0E0F8BD
:10292000D0D0D0E032020135FFFFFFFFFFFFFFFFF5
:10293000C082C083E9900A04F0022BBF74F712171B
:102940002CE99002E1F07C197D037AFF7BFF1208ED
:102950006D9002E274FFF0A3F0A3E4F0A3F0790518
:102960001207F59002E1E0F91207177A8B7B081243
:102970000A357F010217FE74F412172C8A088B099E
:10298000EB548060309002E1E0F912100B8A0A8B60
:102990000BAE0AAF0BEE4F60138E828F83E064B0F4
:1029A000700312080DEEFAEFFB120FF9AA08E50901
:1029B0006480FB80047A007B00022B8E74F2121775
:1029C0002C74FC1216D5EAFEEBFFEE4F6038740251
:1029D000121720EEF0A3EF122DF3ECF0A3ED122D61
:1029E000F3AA82AB83120711E9F50870737412120F
:1029F00017201239A7E50A450B60658E828F831276
:102A00002A6AEE4F700575080280557A067B00121F
:102A1000105F8A0C8B0DA80CA90DE849700575088C
:102A200013803D88828983E4122A74A3A3EEF0A365
:102A3000EF123E40E50AF0A3E50BF09002E7122A00
:102A4000FC9002E76017E0FCA3E08003EAFCEBFDEA
:102A50008C828D83122AFC70F38C828D831238CC89
:102A6000A90874041216EB024042A3A3A3A3E0FE3C
:102A7000A3E0FF22F0A3F0888289832274F2121768
:102A80002C890AE975F017A4FEAFF09002E6E4F095
:102A90009002E4122AFC600A1210659002E4E4F04D
:102AA000A3F0EEFAEFFB12105F8A088B09EA4509E2
:102AB000602FEEFCEFFD7900120FE79002E4E508CD
:102AC000F0A3E509F07B008008122AE6E4F0A3F009
:102AD0000BEBC3950A40F2E50A9002E6F07900801C
:102AE000027913024042EB75F017A4F8A9F09002A6
:102AF000E4E028FAA3E0398A82F58322123662EAFA
:102B00004B2274F412172C750800750900740C120E
:102B10001720123E14FEE9FF800CE5082401F50899
:102B2000E5093400F509C3E5089CE5099D503285A7
:102B3000080A85090B7403780A1216C2EA250AF8F6
:102B4000EB350BF988828983A3A3A3A3A3A312392E
:102B5000A7EE650A7003EF650B70BFE8FAE9FB802A
:102B6000047A007B00802774F412172C7900EAA203
:102B7000E0501B750844750981780812193F7C04E0
:102B80007D007A067B0A1207EF74021216EB7F04AF
:102B90000217FEC082C0839002E7122BC6601C8819
:102BA000828983A3A3E06A7003A3E06B8882898390
:102BB00070E8A3A3A3A312365E80047A007B00D042
:102BC00083D082020135124115E8492274EE1217B2
:102BD0002C74FC1216D5EAFEEBFF8518828519834A
:102BE000E4F0A3F0EE24021238B0EE2405122DE139
:102BF000EE2404F50EEF1231C6E024FE603924FC09
:102C0000604624FE605224FE605E24FE7003022CA7
:102C1000E624FE7003022D5E24FE7003022D6D2457
:102C2000FE7003022D7C24FC7003022D8B24FE70A9
:102C300003022D9A022DD79003007417F0A3E4121B
:102C40002DFB12048F022DD7851882851983AC8243
:102C5000AD83120813022DA7851882851983AC82D3
:102C6000AD83120819022DA7850C08850D09740281
:102C7000121720AC82AD8385088285098312365EE7
:102C80001207358A0C8B0DAC0CAD0DEC4D6042E497
:102C9000F50CF50D780C12193F750C00750D0378C5
:102CA0000C12193F750C01750D03780C12193F7445
:102CB0000812172012195679161236581208557430
:102CC000081216EBE9F50C700B1236541204A780AB
:102CD0000F750C01850882850983122DE91238CC05
:102CE000850C08022DAA7402121720AC82AD8385D0
:102CF0000C82850D8312365E1207358A108B11AC5B
:102D000010AD11EC4D6043850C82850D83A3A31299
:102D10001956751000751103781012193F751001BE
:102D2000751103781012193F7408121720121956E2
:102D3000791612365812085574081216EBE9F5097F
:102D4000700B1236541204AD800F750901850C8288
:102D5000850D83122DE91238CC850908804C851821
:102D600082851983AC82AD8312081F803A85188250
:102D7000851983AC82AD83120825802B8518828546
:102D80001983AC82AD8312082B801C8518828519AB
:102D900083AC82AD83120831800D8518828519833A
:102DA000AC82AD83120837E9F508E50860298E8208
:102DB0008F83A3E06414601F850E82850F83E090EB
:102DC0000300122DF31241119003011238CCE508D3
:102DD000A3122DFB120489EEFAEFFB1207B30237A0
:102DE000B8F50CEF3400F50D2212411585188285D7
:102DF000198322F085188285198322F07C007D03D7
:102E0000850A82850B831236622274EE12172C74A7
:102E1000FC1216D58A0A8B0B8C0E8D0FEA2405F551
:102E200008EB3400F5097C157D0079007A007B03FE
:102E3000120FE7E5082402F50CE509122DE48518C8
:102E400082851983858210858311781012193F8538
:102E50000882850983A3A3A3A312330E12193FE5A9
:102E6000082405F510E5093400F511781012193F12
:102E7000850C82850D8312366812072F7406121690
:102E8000EB8A108B11AE10AF11E50A2402F50AE5AA
:102E90000B1238B3EE4F7003022FD080177402125A
:102EA000172012365E88828983EAF0A3EBF0900344
:102EB00000E004F0900300E0C394054003022FD02B
:102EC000E4F510F511781012193F7510E97511022B
:102ED000781012193F7510EA751102781012193F17
:102EE00074061217201219567910EEFCEFFD1236F7
:102EF0005812085574081216EBE9705E8508828531
:102F00000983A3A3A3A3A3A3A3E0F89002E9E06825
:102F1000704812330E12193F7CEA7D02E50824083E
:102F2000FAE5093400FB120FE174021216EBE960B6
:102F3000298E828F83A3A3A3A312365E900300E0A1
:102F4000F510740278101216C274012510F58274FF
:102F5000033511F583EAF0A3EBF074021217208514
:102F60008210858311781012193F740212172012F3
:102F70001956850C82850D8312412612073B740475
:102F80001216EB8A108B11AE10AF11900300E0F512
:102F900010751100740278101216C274002510F812
:102FA00074033511F988828983A3122AFC70030205
:102FB0002E94E82403F8E93400F9EE4F6003022E62
:102FC0009D8882898374FFF0A3F0900300E004F0F1
:102FD000900300E0600A12365412049B7900800BC3
:102FE0008508828509831238C3790A0237B874EAE2
:102FF00012172C74FE1216D58C128D13EA2405F5C7
:103000000CEB124290122A6E750800750900EA2432
:1030100002F510EB3400F51185188285198385823D
:103020000A85830B780A12193F850C82850D83A3CC
:10303000A3A3A31231D012193FE50C2405F50AE52C
:103040000D1238B3780A12193F850C82850D831250
:10305000412412072F74061216EB8A0A8B0BEA45DD
:103060000B7003023181EA2404F50EEB1231C61213
:103070002A6E8A828B83A3A3A3E0F985108285112F
:103080008312365E12071DE9F5096003023181E4FF
:10309000F514F515781412193F7514E975150278B1
:1030A0001412193F7514EA751502781412193F7439
:1030B000061217201219567913AC0AAD0B8510822F
:1030C00085118312365E12085574081216EBE9F565
:1030D0000960030231819002E9E0F8E5087009E037
:1030E0002402900301F08017900301E0FCE8240221
:1030F000FAE43400FBEA6C7001EB60030231858571
:103100000882AA8212330594141232FD5073850E80
:1031100082850F83E0C0E074022A1231BDD0E0F056
:103120000508850E82850F83A3E0C0E085080A7438
:1031300002250A1231BDD0E0F005089002E91231F3
:10314000D012193F7CEA7D0285080A7402250AFA2A
:1031500074033400FB120FCF74021216EB9002E9D5
:10316000E02508F50874FF6E700374FF6F6012EEBF
:1031700024010EEF3400FFE508C39414500302301D
:1031800018E50860131235498510828511831236BF
:103190005E1204A179008014E509700375090A859F
:1031A0001282851383EEF0A3EFF0A90974021216C0
:1031B000EB7F0E0217FE85080C7402250CF5827455
:1031C000033400F583223400F50F850E82F5832247
:1031D000123E532274EE12172C74FE1216D58C0E6A
:1031E0008D0FEA2405F50CEB122DE4750B0090030E
:1031F00000E4F0F50AEA2402F508EB3400F5098052
:1032000049900300E0FA9002E9E0F81233059417C0
:103210001232FD400D900300E0F87416C39890023E
:10322000E9F012330E12193F7CEA7D0274012AFA8A
:1032300074033400FB120FCF74021216EB9002E9F4
:10324000E0F8900300E028F0050AE50C2416F5826A
:10325000E50D1231C1E0F8E50AC39840030232E6F9
:10326000900300E0C39416507DE50AC333F8E433BD
:10327000F9E50C28FEE50D39FF851882851983AC28
:1032800082AD838E828F8312365E1207358A108B51
:1032900011AC10AD11EC4D7005750B018043E4F5D8
:1032A00010F511781012193F7510E9751102781098
:1032B00012193F7510EA751102781012193F740641
:1032C000121720121956791685088285098312363D
:1032D0005E12085574081216EBE9F50B7003023202
:1032E000011238BF80107C007D0385088285098328
:1032F00012365E1204B3A90B74020237BAE99400C5
:10330000C365D03322EA28F8E43400F9E822E0F576
:103310001075110078102274EA12172C74FC121622
:10332000D58A0C8B0D8C128D13EA2405F50AEB124D
:1033300038B3750800750900E50A2402F510E50B9D
:103340003400F511740212172085820E85830F78E0
:103350000E12193F850A82850B83A3A3A3A3123DF6
:10336000FF12193FE50A2405F50EE50B3400F50FB1
:10337000780E12193F8510828511831238B91236E2
:103380005812072F74061216EB8A0E8B0FAE0EAF73
:103390000FE50C2402F50EE50D3400F50F80408892
:1033A00082898374FFF005081231B674FFF00508B6
:1033B0009002E9E0F50C750D00780C12193F7CEADB
:1033C0007D0285080C7402250CFA74033400FB128C
:1033D0000FCF74021216EB9002E9E02508F508EE13
:1033E0004F60718E828F83A3A3A3E0F9850E82853F
:1033F0000F8312365E12071DE9F509EE2404122D23
:10340000E1E97044E4F514F515781412193F7514C8
:10341000E9751502781412193F7514EA75150278CA
:103420001412193F74081217201219567911EEFC64
:10343000EFFD850E82850F8312365E1208557408E3
:103440001216EBE9F5096027850C82850D8312358C
:103450003F1238CCE5087003023525123549850E38
:1034600082850F8312365E1204B9790002353A85DF
:103470000882AA82EA9002E97009E024049003011C
:10348000F08022E0F8900301E0F514E82404FCE465
:103490003400FDEC65147001ED70C0123305941218
:1034A0001232FD50B6850C82850D83E0C0E07402B7
:1034B0002A1231BDD0E0F00508850C82850D83A36A
:1034C000E0C0E01231B6D0E012355B85820C858316
:1034D0000D780C12193F740412172012195685101A
:1034E0008285118312412612073B74041216EB8A5F
:1034F0000C8B0DAE0CAF0D85080C7402250CF87406
:10350000033400F9EE4F700302339F85188285194A
:1035100083E08882898312355BA3E0C0E01231B674
:10352000D0E00233ADE509700375090A850A82858A
:103530000B8312353F1238CCA90974040231AE1244
:10354000411585128285138322900301E0F5F0E591
:103550000884900300F07C007D0322F005088518A4
:10356000828519832274EC12172C74FE1216D58AE8
:10357000088B098C0E8D0FEA2405FEEB3400FF85C5
:103580001882851983AC82AD838E828F8312365E5A
:103590001207358A0A8B0BEE2418122DE1EA450B2F
:1035A000700302362F1237A1503285188285198395
:1035B00012365E1208498A108B11EA4511606B7948
:1035C00012AC0AAD0B85088285098312365E851020
:1035D0008285118312172AE9F50A7058E4F50AF575
:1035E0000B780A12193F8E828F83A3A3E0F50A7825
:1035F0000A12193FEE24031238B0780A12193F8ECE
:10360000828F8312366812085B74061216EBE9F596
:103610000A7021850C82850D83E0701F85088285E4
:10362000098312365E1204BF8011750A0E80097577
:103630000A018004E50A60031238BF850C82850DFB
:1036400083E0600479008002A90A74021216EB7FFD
:103650000C0217FE7C007D03850A82850B831236DF
:103660006222E0FAA3E0FB22E0FCA3E0FD850882F1
:103670008509831236622274EE12172C74FE12161C
:10368000D58A088B098C0C8D0DEA2405FEEB3400DD
:10369000FF750E00851882851983AC82AD838E82FA
:1036A0008F8312365E1207358A0A8B0BEA450B7040
:1036B0000302378D1237A150358518828519831280
:1036C000365E1208498A0E8B0FEA450F605E79124A
:1036D000AC0AAD0B85088285098312365E850E82A1
:1036E000850F8312172AE9F50E60030237908508CB
:1036F000828509831239A7AA0AFB12083D8A108B1A
:1037000011A810A911E849701E7AFF7BFF12083D2D
:103710008A108B11A810A911E849606C88828983EE
:10372000E50AF0A3E50BF0750A008007750E0E8020
:103730005F050A9002E6E0FAE50AC39A504AE50AF4
:1037400075F017A4FAABF088828983A3A3E02AFA64
:10375000A3E03BFB8A828B831238B9EC4D70D275A3
:103760000A17750B00780A12193FEEFCEFFD120FD5
:10377000CF74021216EBEEFCEFFD850882850983FB
:1037800012365E1204C58014750E098003750E0191
:1037900012410D850C82850D831238CCA90E0232A0
:1037A000F8E5082402F508E5093400F5098A828B5A
:1037B00083A3A3A3E0A2E52274041216EB7F0A02FE
:1037C00017FE74EC12172C8C108D11EA2405F50CE1
:1037D000EB122DE4750F00EA2402F50AEB1238B360
:1037E000850A82F58312365E12083D8A088B09EA43
:1037F000450970030238A5750E008071850C82851D
:103800000D83E06401704F8E828F83A3A31219563B
:103810008E828F83A3A3A3A3E0F512751300781201
:1038200012193FEE2405F512EF3400F51378121249
:10383000193F12365812085B74061216EBE9F50FA1
:103840006014850C82850D83E4F012410D85108291
:103850008511831238CC7C177D007900EEFAEFFBDE
:10386000120FE78E828F83E4F0A3F0050E9002E63C
:10387000E0F8E50EC398501EE50E75F017A4F8A900
:10388000F0850882850983A3A312429A1238B9EC05
:103890004D60030237FC85088285098374FFF0A31D
:1038A000F0E50F70061236581204CBA90F02364FFE
:1038B000F50AEF3400F50B22A3E0FCA3E0FD228E15
:1038C000828F83124115850E82850F83E8F0A3E96C
:1038D000F022C082C0839002E2E06A7003A3E06B32
:1038E00070067AE27B0280047A007B00022BBFC064
:1038F00082C08378008C828D83E06A7003A3E06BC2
:103900007010E875F003A4F8A9F0EC28FAED39FB83
:103910008015088C828D83A3A3A3E06A7003A3E0C3
:103920006B60DF7A007B00022BBF74F612172C123B
:1039300008078A828B83E582458370067A007B00C4
:103940008007A3A3A3A312365E023FBE74F2121730
:103950002CE9FE740E1217201239A77410121720CA
:10396000123E1F8C828D83E064027036A312411BCD
:10397000F50CA3E0F9A80C7402687003742969704F
:1039800021750C02750D00780C12193F7808121978
:103990003F780A12193FEEF912087F74061216EBEF
:1039A00080027901024042E0F50AA3E0F50B22749F
:1039B000E812172C74FB1216D5E985188285198335
:1039C000F08A168B17ECFEEDFF751000741D1217B0
:1039D00020124111741D1217201238CC8E828F8351
:1039E000A3A3A3E0A2E4502D741D12172012365E8B
:1039F0001208498A828B83E58245837003023DF079
:103A0000790AEEFCEFFDAA16AB1712172AE9F5109A
:103A10006003023DF3741F121720123E1F7421121F
:103A200017201239A77423121720E0F50EA3E0F532
:103A30000F8E828F83E064026003023D9EA31241D9
:103A400011850882850983A3858212858313EE245C
:103A500006122DE188828983E0FAA3E0F9EA2400C6
:103A6000F514E439F51578141219C901000028017C
:103A700028933A07000228583B0328C53A00298FAB
:103A80003C0129BA3C02295B3C03298F3C042939BB
:103A90003D9E3DE50E450F6003023D99850C8285F4
:103AA0000D83123E14FAE9FB8A828B83E0850A8239
:103AB000850B83123E4A12193F8A828B83A3E0FC56
:103AC000A3E0023D23E50E450F6003023D99850A00
:103AD00082850B837401F0123E2785088285098355
:103AE000F07C007D008E828F83A3A3A3A3E024013A
:103AF000FAA3E03400FB120735EA4B60418A828B5F
:103B000083E02402F8850A82850B83E028F0EA240A
:103B100004F8EB3400F988828983E08512828513EA
:103B200083123E5C123E4A12193F8A828B831238FE
:103B3000B8E5082403FAE5093400FB023D28850AAC
:103B400082850B83E02404F07C047D007900AA12B6
:103B5000AB13120FE7023DF3E50E450F6003023D84
:103B600099123E27FEA3E0FF850A82850B83740429
:103B7000F0EE850882850983F0EF85128285138334
:103B8000F07403121720AC82AD83EEFAEFFB12073C
:103B9000358A0C8B0DEA450D7003023C3C8A828B02
:103BA00083A3A3122A6A740112172085820E8583CB
:103BB0000F780E12193F74051217201219567CFF48
:103BC0007DFF12073B74041216EB8B0FEA450F7052
:103BD00033850C82850D83123DFF12193F850C82BF
:103BE000850D83A31219567C027D007AB27B811267
:103BF000056774041216EBE9700A74011217207439
:103C0000FFF0A3F08E828F83E064027039750C029E
:103C1000750D00780C12193F8E828F831238B8E52B
:103C2000082404FAE5093400FB120FCF74021216BF
:103C3000EB850A82850B83E0240280097401121748
:103C400020EEF0A3EFF07401121720123E10F07472
:103C500001121720A3123E08023D93E50E450F60A6
:103C600003023D99850C82850D831238B9AA16ABE3
:103C700017120873850A82850B837402F0EA85089F
:103C800082850983F0851282851383EB023D96E5D8
:103C90000E450F6003023D99123E27F8A3E0F98517
:103CA0000A82850B837402F0E8850882850983F017
:103CB000E9851282851383023D96850C82850D83EA
:103CC00012365E120FC9EAFC8C82A882C3950EE4FC
:103CD000950F405FE8650E7002E50F70047C008070
:103CE00022851882851983E0FAE50E2AFAE50F3459
:103CF00000FBC3EA98EB94005003E08005E50ECC8E
:103D0000C39CFCEC850A82850B83F08C0A750B0042
:103D1000780A12193F850C82850D83E0250EFCA3DD
:103D2000E0350FFDAA08AB09120FCF74021216EB93
:103D3000023DF3751007023DF3E50E450F705A85FD
:103D40000C82850D83124111850A82850B837407CD
:103D5000122A76123E08122A76A3E0851282851373
:103D600083F0E82402FAE93400FB8A828B83123E56
:103D700008123E37123E10A3123E40123E19F0E8E0
:103D80002405F8E93400F988828983123E19A312C8
:103D90003E5CA3A3A3A3F0805A75100B8055741D3D
:103DA00012172012365E1208078A828B83E582453D
:103DB00083603D124111880C890DE8450D60317812
:103DC0000E12193F780A12193F780812193F74062B
:103DD000121720E0F9EEFCEFFDAA16AB17850C8256
:103DE000850D8312172A74061216EBE9F51080036D
:103DF00075100EA91074051216EB7F100217FEE065
:103E0000F50E750F00780E22E08508828509832261
:103E1000123E6622124115E822123E66A3A322E05A
:103E2000F508A3E0F50922850C82850D83E0F8A34F
:103E3000E0F5838882E022A3A3F08A828B83A32209
:103E4000F088828983A3A3A3A322F08A828B8312A2
:103E50003E5322E0F50A750B00780A22F088828929
:103E600083A3123E6622E0850882850983A3A322EC
:103E700074EE12172C74FE1216D58A0A8B0BECFA0C
:103E8000EDFB7414121720E0F510A3E0F511741681
:103E9000121720E0FE7418121720E0F50EA3E0F5CB
:103EA0000F851882851983AC82AD831207358A0C81
:103EB0008B0DEA450D604985188285198312365E9F
:103EC0001208078A828B83E5824583602FA3A312A1
:103ED0003E1FE50845096024780E12193F7810123C
:103EE000193FEEF9AC0CAD0DAA0AAB0B8508828523
:103EF000098312172A74041216EB8006790E8002C9
:103F000079010232F874F612172C74FE1216D57469
:103F10000C121720123E14851882851983F0740143
:103F2000121720E9F0E4F508F509780812193F7531
:103F30000802780812193F74041217208582088538
:103F40008309780812193F12085B74061216EB7485
:103F5000021216EB806874F712172CEAFEEBFF8949
:103F6000087C197D03120873EA5402600BA908EE5D
:103F7000FAEFFB1207298002790102297274F61206
:103F8000172C74FF6A700374FF6B70168C828D831C
:103F9000123FC3E4F08C828D83A3A3A3123FC3A37B
:103FA00080181208438A088B09A808A909E8496003
:103FB0000D8882898374FF122A74A3A3E4F07F0220
:103FC0000217FE74FFF0A3F08C828D83A3A32274EA
:103FD000F612172C1208438A828B83E58245836090
:103FE00006A3A3E0FA80027A007B0080D174F2126B
:103FF000172C8A088B09ECFEEDFF740E121720E0D7
:10400000F50A1208438A0C8B0DA80CA90DE849701B
:1040100026EEFCEFFD7AFF7BFF1208438A0C8B0D26
:10402000A80CA90DE849700479118016888289834B
:10403000E508F0A3E509F088828983A3A3E50AF0E7
:1040400079007F060217FE74EE12172CEAFEEBFFD2
:104050008C088D09890C74141217201241117416E2
:1040600012172012365E750D00E849600302410503
:104070007402650C60030241007412121720124191
:104080001BFCA3E0F9EC2400F50EE439F50FEAF48B
:10409000F8EBF4F9EC58F8E50F59F9E849705CE5EC
:1040A000082406F8ED3400F9880A890B8882F58324
:1040B0001241261208738A108B11E50E65107004E8
:1040C000E50F65116042780E12193F850A82850B53
:1040D0008312412612087974021216EBE9F50D706D
:1040E00027780E12193F850882850983A3A3124100
:1040F0002412089174021216EB800D750D80800851
:10410000750D0D8003750D0BA90D0237BD8E828FC5
:104110008312411522E0F8A3E0F9221241158882AA
:104120008983E022A3A3E0FCA3E0FDEEFAEFFB22EB
:1041300074E812172C74E71216D585188285198336
:10414000EAF0A3EBF08C168D17890E75080075093F
:10415000007431121720E0F512A3E0F51374331246
:104160001720E0F514A3E0F5157435121720E0F5DB
:104170000FE50975F003A4F8A9F085188285198365
:1041800012429AE0F47003A3E0F4700302427DEE61
:104190002402F50CEF124290E0700302427D851676
:1041A0000A85170B780A12193FAC14AD15AA12AB89
:1041B000131207FB74021216EB8A0A8B0BEA450BEB
:1041C000700302427DE4F510F511781012193F7466
:1041D00006121720858210858311781012193F74FA
:1041E00009121720858210858311781012193F85D6
:1041F0001282851383A3A3A3A31219567914AC0AC0
:10420000AD0B8E828F8312365E120855740812161B
:10421000EBE97069850A82850B83A3A3A3A31241EE
:104220001174021217201238CC850C82850D83E0A0
:10423000A2E05018A90E7402121720AC82AD838E32
:10424000828F8312365E12074DE94208850C828503
:104250000D83E0A2E15026E50FF50A780A12194312
:10426000A90E7403121720AC82AD838E828F831245
:10427000365E12074774011216EBE942080509E59C
:1042800009C394025003024171A9087419023DF751
:104290003400F50D850C82F58322E028FEA3E03979
:1042A000FF8E828F832274F212172CEAFEEBFF89B5
:1042B0000B7401650B600E7402650B706A79011254
:1042C0000A53E97062EEFAEFFB12083D8A088B0987
:1042D000EA45096047750A00800B7C177D0079006C
:1042E000120FE7050A9002E6E0F8E50AC3985021AC
:1042F000E50A75F017A4F8A9F0850882850983A35B
:10430000A3E028FAA3E039FB8A828B83122BC670C4
:10431000C985088285098374FFF0A3F07C197D03A9
:10432000EEFAEFFB12086D02404274F212172C8A6B
:10433000088B09ECFEEDFF740E1217201239A790BE
:104340000A04E0F4603D7A097B00120FF3EA4B6047
:10435000328A828B8374B1F0A3E4123E39A3123EF9
:1043600037A3E508F0A3E509124386EEF0A3EF12A8
:104370004386A3A3E50AF0A3E50BF0900A04E0F955
:10438000120FFF024042F08A828B83A3A3A3A3A350
:1043900022C082C0839061907404F0A37448F0A39B
:1043A0007402F09061807440F09061BC7403F090EE
:1043B00061877419F0906265741BF0906249E0C3E4
:1043C000941390619C400A7409F0906066740180B7
:1043D00007740DF0906066E4F090619A7433F0A376
:1043E0007455F09061A0743AF090053FE06401705C
:1043F00009C2919003A6746780059003A67461F0CA
:1044000090292EE493906186F0902928E493F4603B
:1044100027E493540FF8906185E0686012E5C65474
:10442000804449F5C6E59E547F644970F8E8F0532E
:10443000C680E59E547F70FA7905120DB30245ECF3
:10444000C082C083E9540FF9906185E0696012E58C
:10445000C654804449F5C6E59E547F644970F8E926
:10446000F053C680E59E547F70FA0245ECC082C0CE
:1044700083E5A8F853A87E906181E4F0A3F0A3F04F
:10448000C2BA539AFEC289759B00C2C275E9007513
:10449000910075BF0075A91175B905906181F0A3F0
:1044A00074C0F0A3E4F0D2BA439A0174805842A8D1
:1044B0000245ECC082C08374F81216D59003A4E0C4
:1044C000F8A3E0F9E84970030245E19003A4E05441
:1044D0004060237908851882851983AA82AB8312EC
:1044E0000C15851882851983AA82AB831209039063
:1044F00003A4E054BFF0E054806010790C7A657B2F
:1045000005120C159003A4E0547FF0E0A2E05031B6
:1045100090619A7433F0A37455F09061A0743AF0EE
:1045200090053FE064017009C2919003A674678012
:10453000059003A67461F01209099003A4E054FEEB
:10454000F0E05402603190619A743FF0A3745AF025
:104550009061A0747FF090053FE064017009D291F2
:104560009003A6747180059003A6746AF01209097D
:104570009003A4E054FDF0E05404601390292CE46F
:1045800093906186F012090F9003A4E054FBF0E0D1
:104590005408601390292DE493906186F012090F5E
:1045A0009003A4E054F7F0E05410601390292EE437
:1045B00093906186F012090F9003A4E054EFF0E0AD
:1045C0005420600A12090F9003A4E054DFF0A3E026
:1045D0005401600D120B3D1209159003A5E054FE25
:1045E000F074081216EB0245ECF0A3F0D083D082F1
:1045F00002013574EC12172C74F41216D58518824A
:10460000851983AC82AD83758381758287740412AA
:1046100015E890292C93F4600302477F907808E016
:10462000C39402500302475F7404121720AC82AD9A
:104630008375838175822A74081215E8851882852E
:1046400019838582128583137404121720AC82ADFE
:1046500083750EFF750FFF7FFF7E00750C48750D8B
:1046600078801574086E70030246F374096E700347
:104670000246F3740A6E607B850C82850D83780890
:104680001215A58C828D83A909E50AC9F8881074D2
:104690001878081214D3E5104508F8C3E098A3E091
:1046A00099850C82850D8378081215A540188C8297
:1046B0008D83741878081214D3E5104508F8E0C308
:1046C00098F8A3E0801C741878081214D3E51045FC
:1046D00008FAE9FB8C828D83E0F8A3E0F9EAC3983D
:1046E000F8EB99F9C3E8950EE9950F5006880E8905
:1046F0000FEEFF0EE50C2404F50CE50D3400F50D6E
:10470000EEC39413500302466374FF650E70047485
:10471000FF650F60238F08740278081216C2744870
:104720002508F58274783509F58378081215A58572
:104730001282851383E508F0EC2402FCED3400FDC1
:10474000851282851383A3858212858313740C12CC
:104750001720E5826C7003E5836D60030246517596
:104760000801750900780812193F7402121720AC6D
:1047700082AD837A4B7B0A1211DF74021216EB743E
:104780000C1216EB7F0C0217FEC082C0839061AE44
:104790007468F0A3746AF090624574FBF0A304F0AF
:1047A00053F4FD43FE0290053F7401F09061A0E0D8
:1047B000643A90619A70237433F0A37455F0906159
:1047C000A0743AF0740164017009C2919003A67458
:1047D0006780289003A674618021743FF0A3745A07
:1047E000F09061A0747FF0740164017009D291901F
:1047F00003A6747180059003A6746A0245EB7F08D6
:104800000217FEC082C0839004F1E06401700A9038
:1048100004F6E06004790C800279000245ECC08265
:10482000C08375E1F19004F4E0605B1460091460EA
:104830005F14605714705E120B4F9004EAE0F97A2F
:10484000EB7B04120D357AD67BBE7C897D8E120DF2
:104850006B7A557B557C557D00120D419004F5E037
:10486000F9120D4D7901120DA79004E8E0F8A3E0CC
:10487000C82416F582E83400F5837467F0A3740B3E
:10488000F079000245EC120B5580AF120B5B80AA49
:10489000120B6180A5791280EA74F012172C75D979
:1048A0000D9004D5E0A2E0E4331313F89004EAE09D
:1048B000C4333354C0484401F5D978E87904888278
:1048C0008983A3A3A3E0F5D988828983A3A882A9B9
:1048D00083E864EE7003E9640470E378D5790488B2
:1048E000828983A3E0F5D988828983A3A882A983DA
:1048F000E864DB7003E9640470E575E1959004D524
:10490000E0F97AD67B04120D3B900A2674FBF0A3E3
:10491000740AF0A3745DF0A3740CF0A3745DF0A3AB
:10492000740CF0A3745DF0A3740CF0A37401F0A3F5
:10493000740BF0A3745DF0A3740CF0A37419F0A3CE
:10494000740BF0900A34745DF0A3740CF0A3745DE2
:10495000F0A3740CF0A3745DF0A3740CF0A3745D69
:10496000F0A3740CF0A3745DF0A3740CF0A3745D59
:10497000F0A3740CF09004F4E064019004E8701269
:10498000E0F8A3E0F5838882A3A375080075090801
:104990008010E0F8A3E0F5838882A3A3750804756E
:1049A0000900750A00750B00780812151E750CFFBA
:1049B000750DFF750EFF750F007808790C12156CD8
:1049C0009004E8E0F8A3E0C8240EF582E83400F58E
:1049D0008378081215B49004E8E0F8A3E0C8241422
:1049E000F582E83400F5837413F09003A27402F0AA
:1049F0000247FE74F712172C9004FAE02407F5D949
:104A00009004EAE0C4333354C0F5D978E8790488D7
:104A1000828983A3A3A3E0F5D988828983A3A8828E
:104A2000A983E864EE7003E9640470E39004FAE09B
:104A3000601F78E87904FAE82413F582E93400F578
:104A400083E0F5D988828983A3A882A9831AEA70B2
:104A5000E690051AE02407F5D99004EAE0C4333360
:104A600054C04404F5D978E8790488828983A3A3E3
:104A7000A3E0F5D988828983A3A882A983E864EE9C
:104A80007003E9640470E390051AE0601F78E87928
:104A900004FAE82433F582E93400F583E0F5D98897
:104AA000828983A3A882A9831AEA70E675E19590AA
:104AB0000A267407F0A3740BF0A3745DF0A3740CC2
:104AC000F0A3745DF0A3740CF0A3745DF0A3740CF8
:104AD000F0A37401F0A3740BF0A3745DF0A3740C45
:104AE000F0A37419F0A3740BF0900A34745DF0A372
:104AF000740CF0A3745DF0A3740CF0A3745DF0A3C8
:104B0000740CF0A3745DF0A3740CF0A3745DF0A3B7
:104B1000740CF0A3745DF0A3740CF09004E8E0F85A
:104B2000A3E0C8240EF582E83400F58374FFF0A3F7
:104B3000F0A3F0A3F09004E8E0F8A3E0C82414F593
:104B400082E83400F5837412F09003A27401F0FF40
:104B50000217FE74F712172C9004FAE02407F5D917
:104B60009004EAE0C4333354C04402F5D978E879BC
:104B70000488828983A3A3A3E0F5D988828983A3CB
:104B8000A882A983E864EE7003E9640470E39004EA
:104B9000FAE0601F78E87904FAE82413F582E93432
:104BA00000F583E0F5D988828983A3A882A9831AB6
:104BB000EA70E675E195900A267413F0A3740BF081
:104BC000A37413F0A3740BF0A37413F0A3740BF08D
:104BD000A37413F0A3740BF0A37413F0A3740BF07D
:104BE000A37413F0A3740BF0A37419F0A3740BF067
:104BF000900A34745DF0A3740CF0A3745DF0A37498
:104C00000CF0A3745DF0A3740CF0A3745DF0A374B6
:104C10000CF0A3745DF0A3740CF0A3745DF0A374A6
:104C20000CF09004E8E0F8A3E0C8240EF582E83424
:104C300000F58374FFF0A3F0A3F0A3F09004E8E084
:104C4000F8A3E0C82414F582E83400F5837414F066
:104C50009003A27404F0024F1A74F712172C9004F8
:104C6000FAE02407F5D99004EAE0C4333354C04491
:104C700006F5D978E8790488828983A3A3A3E0F5AF
:104C8000D988828983A3A882A983E864EE7003E9A6
:104C9000640470E39004FAE0601F78E87904FAE8AD
:104CA0002413F582E93400F583E0F5D988828983FD
:104CB000A3A882A9831AEA70E690051AE02407F5F2
:104CC000D99004EAE0C4333354C04404F5D978E8F9
:104CD000790488828983A3A3A3E0F5D98882898394
:104CE000A3A882A983E864EE7003E9640470E390EA
:104CF000051AE0601F78E87904FAE82433F582E9C0
:104D00003400F583E0F5D988828983A3A882A9833A
:104D10001AEA70E675E195900A26740DF0A3740BFB
:104D2000F0A3745DF0A3740CF0A3745DF0A3740C95
:104D3000F0A3745DF0A3740CF0A3745DF0A3740C85
:104D4000F0A3745DF0A3740CF0A37419F0A3740BBA
:104D5000F0900A34745DF0A3740CF0A3745DF0A3BA
:104D6000740CF0A3745DF0A3740CF0A3745DF0A355
:104D7000740CF0A3745DF0A3740CF0A3745DF0A345
:104D8000740CF09004E8E0F8A3E0C8240EF582E883
:104D90003400F58374FFF0A3F0A3F0A3F09004E8CF
:104DA000E0F8A3E0C82414F582E83400F583741514
:104DB000F09003A27403F0024F1AC082C0839004E3
:104DC000E8E0F8A3E0C82406F582E83400F583E4BF
:104DD0000245E974F712172C9003D0E0F875F00340
:104DE000A4C8AAF02AF974D228F8740339F9E8247F
:104DF00005FAE93400FB8A828B83E0FCA3E0FD889E
:104E0000828983A3A3A3A3A3A3A3A3A3ECF0A3EDED
:104E1000F088828983A3A3A3A3A3A3A3E024FFF81C
:104E2000A3E034FFF98A828B83E8F0A3E9F0024F14
:104E30001A74F712172CEAFEEBFF9061D0E06003C2
:104E4000024F0E75D90E75D90375D904EE248BF572
:104E500082EF3400F583E5822408F8E5833400F915
:104E6000E0F5D9A3E865827003E9658370F2EE246A
:104E700083F582EF3400F583E5822404F8E583347A
:104E800000F9E0F5D9A3E865827003E9658370F263
:104E900075E1957908EE248BFAEF3400FB120C09CA
:104EA0007904EE2483FAEF3400FB120C097C00EE47
:104EB000F8EFF9ECFAC3E49AFA95E0FBEE2AFAEF80
:104EC0003BFBEA248AF582EB3400F583E0C0E0E89E
:104ED00024AAF582E93400F583D0E0F00C888289B9
:104EE00083A3A882A983ECC3940840C7EE246FF57E
:104EF00082EF3400F583E0F8A3E0F9EE2471F58247
:104F0000EF3400F583E8F0A3E9F07901800279003D
:104F10008008F0EEA2E092AF79007F010217FEC098
:104F200082C08375D90275D90375D90575E195EAF3
:104F3000246FF582EB3400F583E0F8A3E0F9EA246E
:104F400071F582EB3400F583E8F0A3E9F079010212
:104F500045EC74F612172CEAFEEBFF90054574063B
:104F6000F0750845750905780812193F7C01790329
:104F7000120C5174021216EB75D90675D90375829D
:104F800045758305E0F5D9A3E582644A7004E5839D
:104F9000640570F075E1959003A2E06408701EEE60
:104FA000246FF582EF3400F583E0F8A3E0F9EE24F6
:104FB00071F582EF3400F583E8F0A3E9F07901029E
:104FC000522074F612172CEAFEEBFF9061D0E070CD
:104FD000667801900545740BF09003A2E0640770B9
:104FE00019750845750905780812193F7C01790380
:104FF000120C5174021216EB7805740128F5D9755C
:10500000D903758245758305E8FAE0F5D9A31AEA54
:1050100070F875E195EE246FF582EF3400F583E0CA
:10502000F8A3E0F9EE2471F582EF3400F583E8F09F
:10503000A3E9F079018002790002522074F7121777
:105040002CEAFEEBFF75D90375D90375D90DEE2453
:10505000DDF582EF3400F583E0F5D975E19579044B
:10506000120D71EE246FF582EF3400F583E0F8A3A2
:10507000E0F9EE2471F582EF3400F583E8F0A3E95E
:10508000F07901024F1A74F612172CEAFEEBFF902A
:1050900061D0E0F87480C398FAEE2482F582EF3490
:1050A00000F583E06004780480027800E8240BF8BF
:1050B000EAC398500302514B7D09900545EDF0EE8F
:1050C00024E2F8EF3400F97A467B057C088882896F
:1050D00083E08A828B83F088828983A3A882A98354
:1050E0008A828B83A3AA82AB831CEC70E0EE2482BD
:1050F000F582EF3400F583E0601D750845750905FC
:10510000780812193F7C097903EEFAEFFB120C5173
:1051100074021216EB7D0D74012DF5D975D9037546
:1051200082457583058D08E0F5D9A31508E508705B
:10513000F675E1957904120D71EE241DF582EF34B8
:1051400000F583E4F0A3F079018002790002522097
:1051500074F612172CEAFEEBFF9061D0E0F8748031
:10516000C398FAEE2482F582EF3400F583E0600400
:10517000780480027800E82408F8EAC39850030213
:10518000521E7806900545740CF09003BFE0900520
:1051900046F09003C0E0900547F09003C1E0900511
:1051A00048F09003C2E0900549F09003C3E09005F9
:1051B0004AF0EE2482F582EF3400F583E0601B753F
:1051C0000845750905780812193F7C067903EEFA3F
:1051D000120C5174021216EB780A740128F5D97575
:1051E000D9037582457583058808E0F5D9A31508AC
:1051F000E50870F675E1957904120D71EE246FF5EE
:1052000082EF3400F583E0F8A3E0F9EE2471F58233
:10521000EF3400F583E8F0A3E9F07901800279002A
:105220007F020217FE74F612172CEAFEEBFF906164
:10523000D0E0F87480C398FAEE2482F582EF34004F
:10524000F583E06004780480027800E82404F8EA3A
:10525000C39850030252FF7802900545E8F0EE240F
:10526000F4F582EF3400F583E0900546F0EE2482F9
:10527000F582EF3400F583E0601B7508457509057C
:10528000780812193F7C027903EEFA120C5174026D
:105290001216EB7806740128F5D975D90375824585
:1052A0007583058808E0F5D9A31508E50870F6753B
:1052B000E195EE2473F582EF3400F583E4F0EE24FB
:1052C0007FF582EF3400F583E4F0EE241DF582EFE4
:1052D0003400F583E4F0A3F07904120D71EE240D8F
:1052E000F582EF3400F583E0F8A3E0F9EE2471F5E0
:1052F00082EF3400F583E8F0A3E9F07901800279C8
:105300000002522074F612172C9061D0E0F87480DD
:10531000C398FCEA2482F582EB3400F583E0600454
:10532000780480027800E82404F8ECC398405B79A4
:10533000029005457407F0EA24F5F582EB3400F598
:1053400083E0900546F0EA2482F582EB3400F58391
:10535000E06018750845750905780812193F7C0248
:1053600009120C5174021216EB7906740129F5D951
:1053700075D903758245758305E9F8E0F5D9A31859
:10538000E870F875E1957901800279000252207485
:10539000F512172CE9FCA2AFE433F50AC2AF7D0089
:1053A00080010DEA246EF582EB3400F583E0F8ED20
:1053B000C398501A8D08EA2508F8EB3400F9E82460
:1053C0006AF582E93400F583E06C70D68024EA2423
:1053D0006EF8EB3400F9E0FEEA2EFAEB3400FBEA5B
:1053E000246AF582EB3400F583ECF088828983E04F
:1053F00004F0E50AA2E092AF7F030217FE74F612F2
:10540000172CA2AFE433FDC2AFEA246EF582EB3471
:1054100000F583E014F07C0060368C08EA2508F87B
:10542000EB3400F9E8246BF582E93400F583E0C041
:10543000E0E8246AF582E93400F583D0E0F00CEA74
:10544000246EF582EB3400F583E0F8ECC39840CA93
:10545000EA246DF582EB3400F58374FFF0EA2469E9
:10546000F582EB3400F583E4F0EDA2E092AF025256
:1054700020C082C083E5A8F8C2AFEA246AF582EBB7
:105480003400F583E9F0EA2469F582EB3400F58312
:10549000E4F0E8A2E7A2E792AF0245EC74F312173A
:1054A0002CEAFEEBFFECFAEDFB8A828B83A3A3A32D
:1054B000A3E0541FF0EE2436F582EF3400F583E4C8
:1054C000F0F50AEEFCEFFD8A828B83E0C0E0EC246D
:1054D0005DF582ED3400F583D0E0F0750B00E50A50
:1054E00033333354F8F50C8A828B83E0F508750961
:1054F00000E50B78081216A3E508A2E0502FEE2471
:1055000036F8EF3400F988828983E0F508EE250843
:10551000F508EF3400F509E5082438F582E509348B
:1055200000F583E50CF088828983E004F0050B0523
:105530000CE50BC3940840AF050A8A828B83A3AAAB
:1055400082AB838C828D83A3AC82AD83E50AC39446
:105550000550030254C77F050217FE74F712172C7B
:105560009003CEE0640170030256B97A009003D430
:10557000E060030256B97401F0A3E4F0A3F09004D4
:105580003404F0900439F09003D7E4F0A3F0A3F0D2
:10559000A3F09003E104F0900407E4F09003EAF034
:1055A000A3F0A3F0A3F0A3F0A3F0A3F0900451F0B4
:1055B000900445F090043A7480F0A3E4F090044025
:1055C000F09004BCF0A3F0A3F0A3F0A3F0A3F0A329
:1055D000F0A3F09004C5F0900454F09004A4F0A35C
:1055E000F0A3F0A3F0A3F0A3F0A3F0A3F0A3F0A323
:1055F000F09004B0F09004B2F09004AEF09004C8C3
:10560000F0A3F0A3F0A3F0A3F0A3F0A3F0A3F0782D
:10561000CE7903E8246EF582E93400F58374FFF057
:105620000A88828983A3A882A983EAC3940440E3F9
:105630007ACE7B0378DC790488828983E0C0E0EA53
:105640002461F582EB3400F583D0E0F08882898311
:10565000A3A882A9838A828B83A3AA82AB83E864EE
:10566000E17003E9640470D07ACE7B0378B57903E6
:1056700088828983A3E0C0E0EA24E6F582EB340067
:10568000F583D0E0F088828983A3A882A9838A82E7
:105690008B83A3AA82AB83E864BD7003E9640370C3
:1056A000CF9003CEE004F0640170089003D6E09040
:1056B00003D0F07AD27B0380047A007B00024F1A79
:1056C000C082C0839003D5E4F09003D4F09003CE61
:1056D000F0A3F0A374FFF075E1F10245ECC082C0C5
:1056E00083780079009003D5E0600478D27903884C
:1056F000828983A3A3A3A3E0F90245EC74F61217F1
:105700002CEAFEEBFFEE2463F582EF3400F583E034
:10571000F8A3E0F9E84970030257A1EE2463F8EF1B
:105720003400F97A007B00A2AFE433F508C2AF88F9
:10573000828983E0FCA3E0FDEC4D603A8882898396
:10574000E0FAA3E0FB8A828B83E0FCA3E0FD888281
:105750008983ECF0A3EDF08A828B83E4F0A3F088D8
:10576000828983E0FCA3E0FDEC4D700A8882898386
:10577000A3A3E4F0A3F0E508A2E092AF12126390B5
:1057800004E2E004F09004E3E004F0EE2463F58228
:10579000EF3400F583E0F8A3E0F9E849600302572D
:1057A0001B8E828F83A3A3A3E0600F8E828F83A3BF
:1057B000A3A3E4F09003CFE014F09003CEE014F044
:1057C00070069003D074FFF08E828F83A3A3E4F061
:1057D0009004E1E0700D9003CFE064017005790062
:1057E000120D53EEFAEFFB120C8102522074F712E5
:1057F000172CEAFEEBFF8E828F83A3A3A3A3E0FA0C
:105800007B00120957EEFAEFFB120BD3120C690260
:105810004F1AC082C08378B5790388828983A3E454
:10582000F088828983A3A882A983E864BD7003E914
:10583000640370E69003B674010245EB74F6121728
:105840002CEAFEEBFFEC2403F8ED3400F98808891C
:1058500009EC2407F8ED3400F9E8FCE9FD8C828DB1
:1058600083E0F8A3E0F9850882850983E0FAA3E0E4
:10587000FB12164AEE240DF582EF3400F583E8F0B2
:10588000A3E9F08C828D83E0F8A3E0F98508828596
:105890000983E0FAA3E0FB12164A8B09EA45096086
:1058A00013EE240DF582EF3400F583E02401F0A31C
:1058B000E03400F002522074F612172CEAFEEBFFDF
:1058C000EE242EF582EF3400F583E0FCA3E0FD78B2
:1058D0000079FAECFAEDFB12164AEE246FF582EF2E
:1058E0003400F583E8F0A3E9F0780079FAECFAEDFA
:1058F000FB12164A8B09EA45096013EE246FF58204
:10590000EF3400F583E02401F0A3E03400F002520C
:105910002074EC12172CEAFEEBFF74141217207897
:10592000081215A5120D118A0C8B0D8C0E8D0F759A
:105930001002751100751200751300780C791012A1
:10594000150B7510FF7511FF7512FF780C79101289
:10595000156C780C12193B8E828F83E0F8A3E0F56A
:10596000838882A3A31215C312266F74041216EB48
:10597000E96003025A758E828F83E02402F8A3E067
:105980003400F9E8FAE9FB8A828B83780812153132
:105990008A828B837508FF7509FF750AFF750B00F6
:1059A0007808121592EE240BF582EF3400F583C0CF
:1059B00082C0838E828F83A3A3A3A3A3E02401F8D4
:1059C000A3E03400F9D083D082E0687003A3E069DB
:1059D00070057901025A778E828F83A3A3A3A3A3B4
:1059E000A3A3E02401F0A3E03400F0EE2473F582D9
:1059F000EF3400F583E064017036EE2474F582EF35
:105A00003400F583E0F8A3E0F98E828F83A3A3A38B
:105A1000A3A3A3A3E0687003A3E0697013EE24744A
:105A2000F582EF3400F583E02401F0A3E03400F0C8
:105A3000EE247FF582EF3400F583E064017036EEEA
:105A40002480F582EF3400F583E0F8A3E0F98E823C
:105A50008F83A3A3A3A3A3A3A3E0687003A3E06918
:105A60007013EE2480F582EF3400F583E02401F01A
:105A7000A3E03400F0790002478474F612172CE991
:105A8000FEECFFEA2462F582EB3400F583E064016A
:105A90006003025B239061D0E0F508EA2482F5827E
:105AA000EB3400F583E060047804800278007480B1
:105AB000C39508FC95E0FDEF28F8E43400F9E824EC
:105AC00002F8E93400F9EC98ED99A2D265D03340A0
:105AD0004E740A121720E0F508A3E0F509EA2482C3
:105AE000F582EB3400F583E06015780812193FEF7A
:105AF000FCEEF9120C5174021216EB74042FFF74B1
:105B0000012FF5D98ED9EF600F850882850983F8BA
:105B1000E0F5D9A318E870F875E195790080067969
:105B200007800279FF02522074F712172CA2AFE40B
:105B300033FEC2AF8A828B83E0F8A3E0F9E8498A9A
