:020000040000FA
:0600000002011D02207840
:03002B0002273871
:0300330002271A87
:030053000220EE9A
:03006B000226F179
:10008300021F27E5C754F84401F5C7790122000090
:100093000080FB120086B90003020107E47921788E
:1000A30008B800028004F709D8FCE479297802B87B
:1000B30000028004F709D8FCE490028178A879074C
:1000C3008002F0A3D8FCD9FA781A90014D7A01BACC
:1000D30000028007E493A3F608DAF9900928AA82BC
:1000E300AB8390014E780379048015E493A3AC822B
:1000F300AD838A828B83F0A3AA82AB838C828D83A8
:10010300D8E9D9E77582847583FF740112012F75CD
:100113008291758300740012012F75D00075813FA1
:10012300751881751902759F00020096C09FF59F8F
:10013300E473D09F22D083D082C09FE493C0E07445
:100143000193C0E0740293F59F2201FF0000B40005
:100153000028002800283075A000A000A000A000FF
:1001630000080008E001F00010001000100010006B
:100173001000100050005000500010001000D00775
:100183000000000000000F000100050030750700AB
:100193001000010081FF00000000FF4E066C0654B2
:1001A30006FF02020208025000A0000000E803025A
:1001B300759201000064920271920100007F0902AE
:1001C3006992010000B302027192010000800902EA
:1001D3009192010000C9020271920100008109029B
:1001E3007B92010000CB020271920100008209029E
:1001F3007992080000CC0202719201000083090287
:100203006F920100008409FF0100FF200275920133
:1002130000005B92027192010000E80902679200FC
:1002230000000000026B9203000019038A0C8A0C81
:100233008A0C8A0C8A0C8A0C8A0C8A0C8A0C8A0C0B
:100243008A0C8A0C8A0C660F7E0F600FFFFF020276
:1002530002020202020202010D00000010010275F7
:10026300920100005E920271920100002B0A028D3E
:10027300920100005D070271920100002C0A028BBB
:100283009201000042910271920100002D0A02893D
:100293009201000027910271920100002E0A028749
:1002A3009201000070900271920100002F0A0285F2
:1002B300920100008290027192010000300A0283D1
:1002C30092010000A690027192010000310A02819E
:1002D300920100009490027192010000320A027FA1
:1002E300920100001991027192010000330A027D0C
:1002F30092010000340A01E803053F100AFF0001E0
:100303003075030201060000000000000000000039
:1003130000000000000000000000000000000000DA
:100323000000FFFF0600800CE803140953696D7099
:100333006C65424C455065726970686572616C0505
:100343001250002003020A000201060302F0FF53C9
:10035300696D706C6520424C452050657269706808
:100363006572616C00E0130000E6130A4368617272
:100373006163746572697374696320310002436851
:100383006172616374657269737469632032000812
:10039300436861726163746572697374696320335E
:1003A3000010436861726163746572697374696391
:1003B3002034000243686172616374657269737407
:1003C3006963203500027592010000619202719207
:1003D300010000480B029F920300001909026D926D
:1003E300010000490B0271920100005A0B029B921B
:1003F3000100001A09026D920100005B0B02719269
:100403000100006C0B0299920200001B09026D921D
:100413000100006D0B0271920100007E0B029792A6
:100423000000001C09026B920300001D09026D927B
:100433000100007F0B027192010000900B02939266
:100443000400002309026D92010000910B12013890
:100453001BFE0212013832FE0212013863FE021241
:1004630001389EFE02120138C8FE02120138F2FE64
:100473000212013809FF0212013820FF021201386B
:1004830037FF0212013860FF0212013873FF0212B4
:10049300013889FF021201389CFF02120138C3FFA1
:1004A300021201380198021201380599021201382B
:1004B3003D99021201386099021201386B990212B8
:1004C30001388E99021201389D9A02120138729BEB
:1004D30002120138ED9B02120138759C0212013899
:1004E300B09C02120138E79C02120138759D02127A
:1004F30001384E9E02120138AE9E02120138B99E97
:1005030002120138389F021201383B9F0212013850
:100513003E9F02120138CD9F02120138D09F021272
:10052300013800A0021201382AA00212013818A1D2
:1005330002120138CAA10212013816EC0212013864
:100543003EEC021201386CEC02120138A3EC0212E9
:10055300013801ED021201384CED0212013897ED1A
:1005630002120138D7ED021201381DEE02120138D2
:100573004BEE0212013808EF0212013812EF021299
:1005830001381FEF0212013852EF021201381EF038
:10059300021201382AF00212013842F00212013825
:1005A3004CF0021201388DA2031201389BA20312F0
:1005B3000138B3A203120138CBA20312013880B36E
:1005C300011201382CB401120138A7B40112013809
:1005D300C8B50112013804B601120138ADB60112D3
:1005E300013894B701120138F8B8011201384FB934
:1005F30001120138D0B901120138C0BA0112013811
:100603000DBB0112013893BB01120138C5BB0112A6
:100613000138D9BD011201381BBE0112013839BEA0
:1006230001120138BCBE0112013890BF011201381A
:1006330058C00112013801D602120138D4D6021271
:1006430001387DD702120138D0D70212013880D881
:10065300021201380CD902120138F8D902120138FA
:1006630027DA021201383ADB0212013882DB021266
:10067300013857DC0212013893DC02120138AFDC77
:10068300021201385DA5031201389A83031201385F
:10069300B08303120138D68303120138F2840312A4
:1006A3000138FC840312013831860312013829878B
:1006B3000312013824DD0212013854DE021201381C
:1006C30087DE02120138D1DE0212013898E00212ED
:1006D300013891A301120138FBA3011201385AA575
:1006E300011201386AA50112013897A501120138D8
:1006F300EEA50112013897A6011201389EA7011237
:10070300013868A801120138C8A9011201380BAADF
:1007130001120138B0AA01120138FDAA01120138F1
:1007230023AB0112013831AD0112013836AD01128C
:1007330001383BAF0112013888AF01120138FBAF1A
:10074300011201382EB001120138D0B00112013864
:1007530079B101120138B1B101120138B4B10112FA
:100763000138FCB1011201383CB20112013893B2D5
:1007730001120138C78A03120138DF8A03120138D4
:10078300278B031201383D8B03120138848B03122C
:100793000138988C03120138258D03120138708DAE
:1007A3000312013864270012013870270012013840
:1007B300AB2700120138F02700120138B0280012CD
:1007C30001383629001201389B2900120138C72944
:1007D30000120138002A001201383E2C00120138A1
:1007E300222E001201380830001201384B3100125A
:1007F3000138993300120138AB3400120138F63551
:10080300001201380637001201382337001201386D
:100813005E3700120138803700120138E3370012C7
:100823000138A43C00120138393D001201388A3DD9
:1008330000120138B13D00120138033E00120138A5
:10084300213E001201387B3E00120138643F001242
:100853000138DA40001201385E41001201384BE2E0
:100863000212013855E20212013898E202120138ED
:10087300B3E20212013843E3021201386BE30212BE
:100883000138A8E302120138DFE30212013808E459
:10089300021201387DE40212013892E40212013897
:1008A300A7E402120138D8E402120138ECE4021280
:1008B300013811E5021201384BE50212013877E5E0
:1008C30002120138AFE5021201380EE602120138B6
:1008D3008DE602120138D6E60212013800E7021251
:1008E30001382BE7021201389C9E03120138008065
:1008F300021201382E80021201387C810212013863
:100903005C82021201387B8202120138F8820212E1
:1009130001383B8302120138918402120138528557
:1009230002120138D987021201387A88021201387B
:100933007089021201386D8A02120138C78B0212C4
:100943000138528C02120138419D03120138AA9DCD
:1009530003120138FE9D03120138259E031201384C
:10096300569E0312013860F502120138CDF50212CA
:10097300013814F6021201382CF70212013828F854
:10098300021201380BF9021201387EB50212013846
:10099300C0B50212013892B6021201386BB70212C7
:1009A300013865B80212013847B902120138B0B9EB
:1009B3000212013866BA02120138DABA0212013899
:1009C30046BB021201386FBB02120138E9BB0212A7
:1009D300013882BC02120138E7BC02120138FCBCA8
:1009E3000212013842BD021201385BBD0212013806
:1009F300C0BD02120138C3BD02120138817C00124E
:100A03000138A97C00120138E77C00120138A57D6A
:100A1300001201380C7E00120138287E00120138C2
:100A2300507E00120138807E001201388F7E001242
:100A330001380C7F00120138327F00120138A7926F
:100A430001120138459401120138609601120138F0
:100A53009C9601120138C99601120138AE97011212
:100A63000138F597011201383998011201384B9872
:100A7300011201388B9801120138B898011201381C
:100A83000399011201384399011201387199011236
:100A93000138C39901120138539A01120138F19CAC
:100AA30001120138079F01120138459F01120138D5
:100AB300D6A0011201381BA10112013892A1011223
:100AC3000138DCA10112013802A201120138EAA2A5
:100AD3000112013805AC0212013884AC021201384C
:100AE30046B20212013855B302120138BDB40212E4
:100AF300013854B5021201385B5700120138A4576C
:100B030000120138D157001201380458001201387D
:100B13001158001201381D58001201382F580012C5
:100B23000138165900120138745900120138A959B5
:100B330000120138EC5A00120138395B00120138F7
:100B43005D5B00120138CA5B00120138885C001239
:100B53000138415D00120138AE5D00120138605E5C
:100B630000120138705E00120138F75E001201387E
:100B7300B65F00120138E35F001201385C600012B7
:100B83000138B9600012013803610012013899611C
:100B9300001201386462001201381963001201382F
:100BA3008E6300120138EF6300120138596400129A
:100BB300013892640012013834650012013844662A
:100BC30000120138846600120138A1660012013850
:100BD300C066001201380767001201382C67001243
:100BE3000138596700120138D367001201381468BD
:100BF30000120138386900120138E869001201381F
:100C03003F6A00120138A96A00120138C26A001251
:100C130001383BA2021201388EA2021201389AA2B5
:100C2300021201386FA30212013896A3021201388F
:100C3300D1A3021201383DA40212013879A4021291
:100C43000138B2A402120138CAA4021201381FA546
:100C53000212013838A50212013881A502120138A7
:100C630094A502120138AEA502120138C4A50212DE
:100C73000138F7A6021201383EA80212013840A932
:100C8300021201383AAA02120138F2FF01120138A6
:100C93000BED011201383BED0112013803F1011292
:100CA30001385AF20112013823F301120138A3F477
:100CB3000112013874F501120138B1F5011201383E
:100CC300D4F50112013812F6011201381BF6011294
:100CD300013865F6011201386FF60112013819F770
:100CE30001120138F2F70112013846F801120138F6
:100CF300A8F801120138FBF8011201382AF9011290
:100D0300013867F901120138F46A001201385B6E89
:100D130000120138616E00120138E37300120138CA
:100D23005C7800120138327C001201380080031213
:100D330001387680031201388C8003120138CD808C
:100D4300031201380781031201388081031201382D
:100D5300BB81031201382E82031201386C82031205
:100D630001387582031201388182031201389D8292
:100D730003120138C88203120138DE8203120138DC
:100D83000783031201386A830312013853E70212FF
:100D9300013866E70212013880E702120138A9E739
:100DA30002120138ECE7021201382BE80212013873
:100DB30069E802120138CEE802120138E3E80212B0
:100DC3000138EEE802120138FBE80212013812E999
:100DD3000212013820E9021201382BE9021201380C
:100DE30037E9021201384AE90212013855E90212C1
:100DF300013878E9021201381FEA021201382FEA9A
:100E03000212013849EA0212013866EA0212013875
:100E130082EA02120138A7EA02120138B2EA021288
:100E23000138C7EA02120138DBEA021201383CEB4F
:100E33000212013842EB0212013848EB0212013868
:100E43004EEB0212013866EB0212013899EB0212E3
:100E53000138E2D00112013866D10112013815D2EE
:100E63000112013874D30112013895D501120138EA
:100E730081D601120138B6D601120138D8D6011233
:100E8300013887D7011201387FD901120138A8D957
:100E9300011201383ADA011201386CDA0112013811
:100EA30079DA01120138D0DA01120138F6DA0112C7
:100EB300013863DD0112013866DE01120138BEDE3E
:100EC3000112013871C2011201387BC301120138CA
:100ED30062C4011201386CC4011201388EC40112BC
:100EE30001389AC40112013833C60112013862C6AF
:100EF300011201387EC701120138D7C70112013828
:100F03003DC9011201381CCA0112013878CA011205
:100F13000138E5CA0112013820CB011201385FCB39
:100F23000112013818CE0112013832CE01120138F4
:100F3300BECE01120138CCCE0112013825CF0112E9
:100F4300013833CF01120138A6CF011201380AD07C
:100F53000112013854D001120138D38C0212013826
:100F6300F58C021201381B8F0212013830920212E3
:100F73000138489302120138FB9302120138DD94C1
:100F830002120138E1960312013806970312013861
:100F930078970312013887CE0212013890CE0212DD
:100FA300013899CE0212013870CF0212013821D1D3
:100FB3000212013857D10212013891D102120138BD
:100FC300C7D10212013801D20212013835D20212FE
:100FD300013861D202120138AAD202120138E4D2D6
:100FE300021201382DD30212013885D302120138BF
:100FF300BAD30212013815D4021201384FD40212A7
:101003000138A0D402120138D6D40212013810D507
:10101300021201383ED50212013861D5021201389D
:101023001AA40312013846A403120138A1A403121F
:101033000138ABA403120138BBA403120138E7BD86
:1010430002120138F1BD021201382FBE021201381B
:1010530078BE02120138B2BE021201380CBF02126E
:1010630001382DBF0212013805C2021201380EC227
:10107300021201385BC20212013884C20212013823
:101083008EC202120138FAC2021201388CC3021254
:101093000138D6C3021201380CC40212013898C4B5
:1010A30002120138D9C40212013810C502120138E4
:1010B30022C50212013841C5021201384AC5021283
:1010C300013817C602120138B9A003120138F0948F
:1010D300031201382695031201385C950312013877
:1010E300A79603120138C5A403120138DBA4031227
:1010F3000138E5A4031201382FA5031201387A7FC2
:1011030000120138D3F002120138E8F0021201385C
:1011130098F102120138D8F102120138F1F10212EA
:1011230001382CF20212013879F202120138ABF2C3
:1011330002120138EDF202120138EEF40212013804
:10114300CA9B03120138F39B03120138229C03123A
:101153000138BA9C03120138FC9C031201389A8DA2
:1011630003120138BF8D03120138E98D03120138D0
:10117300E1A503120138C541001201382A440012C7
:101183000138CB45001201387F460012013812475F
:1011930000120138974700120138BC47001201388A
:1011A300124B00120138984B00120138CB4C00123D
:1011B3000138054D001201383A4D00120138FA4E3C
:1011C30000120138574F00120138A04F00120138A6
:1011D3000B50001201387C5000120138AE5000123F
:1011E3000138C650001201380F52001201381F5245
:1011F300001201383A53001201385C5300120138CF
:10120300925300120138465500120138D35500128B
:10121300013812560012013836570012013864A300
:101223000312013875A30312013837A603120138DC
:1012330076A603120138E2A603120138B0A1031205
:101243000138C0A103120138D5A10312013887A2C6
:1012530003120138B59F031201383AA00312013873
:10126300A0A003120138289A03120138519A0312DD
:101273000138B79A03120138D79A03120138289B11
:1012830003120138839B03120138BD9B03120138FB
:10129300C09B03120138CDF90212013806FA02127B
:1012A300013878FA021201388DFA02120138B8FBBC
:1012B3000212013834FC02120138FAFC021201381E
:1012C30019FD0212013840FD021201387DFD0212A0
:1012D300013895FD02120138E6FD02120138DCFFE8
:1012E30001120138ECFF01120138EFFF011201383E
:1012F300F87F00120138669003120138019203123D
:101303000138629203120138A892031201388698B9
:1013130003120138D8980312013862990312013875
:10132300C99903120138AB9203120138D592031203
:101333000138A393031201387E940312013845C682
:10134300021201380CC70212013843C702120138D6
:101353006DC702120138CDC70212013823C8021229
:10136300013888C80212013820C9021201382FCA75
:1013730002120138C6CB0212013853CC02120138D3
:10138300BACC02120138D1CC02120138EBCD0212D1
:10139300013829CE021201380CDF011201388DE227
:1013A3000112013815E4011201386CE4011201380D
:1013B3008BE40112013809E5011201389FE601129D
:1013C300013884E70112013892EB0112013868EC0D
:1013D3000112013842FA01120138C2FC011201382C
:1013E3006DFD0112013890FE0112013803FF011255
:1013F3000138338703120138788703120138958740
:10140300031201384B88031201389E8803120138F6
:101413007489031201388E8A03120138B6A60312A7
:10142300013880A603120138D5FF02120138D97F93
:1014330000E066701008A3E066700A08A3E0667017
:101443000408A3E06622C3E7960809E7960809E7BC
:10145300960809E79622C3E09608A3E09608A3E05E
:101463009608A3E09622C008C3E096F50808A3E017
:1014730096420808A3E096420808A3E09645087040
:1014830001D3D00822080808EAC0E0EBC0E086F0E8
:10149300E7A4FA180986F0E7A42AFA180986F0E700
:1014A300A42AFA180986F0E7A42AFA1986F0E7A411
:1014B300FBE5F02AFA190886F0E7A42BFBE5F03ADE
:1014C300FA190886F0E7A42BFBE5F03AFA18180995
:1014D30086F0E7A4C5F02BFBE43AFA1908E7C5F058
:1014E300C6A426F6E5F03BFBE43AFA1886F0E7A437
:1014F300F6E5F00826F6E43B08F6E43A08F6D0E011
:10150300FBD0E0FA22E4CFC0E0E4CEC0E0E4CDC0FB
:10151300E0E4CCC0E075F020C3E633F608E633F62A
:1015230008E633F608E633F6181818EC33FCED3307
:10153300FDEE33FEEF33FFC3EC9709ED9709EE970A
:1015430009EF97191919400FFFEC97FC09ED97FD67
:1015530009EE97FE191906D5F0BEECF709EDF70968
:10156300EEF709EFF7191919D0E0FCD0E0FDD0E050
:10157300FED0E0FF226016080808C6C313C618C6CB
:1015830013C618C613C618C613C6D5E0EA227009D7
:10159300080808226016181818C6C333C608C633CD
:1015A300C608C633C608C633C6D5E0EA22E627F620
:1015B3000809E637F60809E637F60809E637F6229A
:1015C300E026F608A3E036F608A3E036F608A3E023
:1015D30036F622E026F008A3E036F008A3E036F062
:1015E30008A3E036F022C3E697F60809E697F60863
:1015F30009E697F60809E697F622C3E096F008A3F2
:10160300E096F008A3E096F008A3E096F022E056F7
:10161300F608A3E056F608A3E056F608A3E056F64C
:1016230022E056F008A3E056F008A3E056F008A322
:10163300E056F022E0F608A3E0F608A3E0F608A3DC
:10164300E0F622E6F008A3E6F008A3E6F008A3E636
:10165300F022E0FAA3E0FBA3E0FCA3E0FD22EAF022
:10166300A3EBF0A3ECF0A3EDF022CAC0E0E6F0A3F5
:1016730008DAFAD0E0FA22CAC0E0E0A3C582CCC5FA
:1016830082C583CDC583F0A3C582CCC582C583CD76
:10169300C583DAE6D0E0CA22C3E498F8E499F912E4
:1016A30016DC8026C3E49AFAE49BFBE920E7E912FF
:1016B30016DCE498F8E499F922C3E498F8E499F97C
:1016C3001216DCE498F8E499F9C3E49AFAE49BFB74
:1016D30022EB20E7CFE920E7E0B90010BB0008E8E0
:1016E3008AF084F8AAF022E4FBC8FA22EB70227B8A
:1016F30010C833C8C933C9335007C39AC3DBF28058
:10170300069A50012ADBEAC833F4C8C933F4C9FA8C
:101713002275F008E4C833C8C933C933C99AC99BD1
:101723005004C92AC93BD5F0ECFBC833F4C8E4C95B
:10173300FA22600D08C6A2E713C618C613C6D5E081
:10174300F322600C08C6C313C618C613C6D5E0F44B
:1017530022700422600D18C6C333C608C633C6D52B
:10176300E0F41822251810AF08F518400215198067
:1017730008F51840021519D2AF22C0D0251810AFB2
:1017830008F518500205198008F51850020519D2FA
:10179300AFD0D0222518F58210AF08F518400215F6
:1017A300198008F51840021519D2AF85198322252F
:1017B30018F582E43519F58322E4732518C582C030
:1017C300E0E51934FFC583C0E0E518C3958224F82A
:1017D30010AF08858319858218800885831985824F
:1017E30018D2AFCEF0A3E520F0A37808E608F0A363
:1017F300DEFAEFF0A3E58124FAF8E608F0A3E608A1
:10180300F0A3E608F0A30808E608F0A3E608F0A3AF
:1018130015811581D0E0FED0E0F815811581158181
:10182300E8C0E0EEC0E0222518C582C0E0E5193427
:10183300FFC583C0E0E518C3958224F910AF08857E
:1018430083198582188008858319858218D2AFCEC3
:10185300F0A3E520F0A37808E608F0A3DEFAEFF0A2
:10186300A3E58124FBF8E608F0A3E608F0A3080843
:10187300E608F0A3E608F0A315811581D0E0FED0B9
:10188300E0F815811581E8C0E0EEC0E022851983F8
:10189300851882E0A3FEE0A3F5207808E0A3F6080C
:1018A300DFFAE0A3FFE0A3C0E0E0A3C0E0E0A3C051
:1018B300E0E0A3C0E0E0A3C0E010AF088582188594
:1018C30083198008858218858319D2AFD083D0828B
:1018D300020135851983851882E0A3FEE0A3F52074
:1018E3007808E0A3F608DFFAE0A3FFE0A3C0E0E096
:1018F300A3C0E0E0A3C0E0E0A3C0E010AF0885828E
:10190300188583198008858218858319D2AFD083FF
:10191300D08222C0D02518C582C0E0E51934FFC5A6
:1019230083C0E0E518C3958224F310AF08858319BB
:101933008582188008858319858218D2AFC8F0A3E1
:10194300E9F0A3EAF0A3EBF0A37908E709F0A3D841
:10195300FAECF0A3EDF0A3EEF0A3EFF0A3D0E0F0E8
:10196300A3D0E0F0A3D0E0F0A3E520F0A3E5F0F0EE
:10197300A322851983851882E0C0E0A3E0F9A3E0E0
:10198300FAA3E0FBA37808E0F608A3DFFAE0FCA3E0
:10199300E0FDA3E0FEA3E0FFA3E0C0E0A3E0C0E01E
:1019A300A3E0F5D0A3E0F520A3E0A3F5F010AF0882
:1019B3008583198582188008858319858218D2AF9B
:1019C300D082D083D0E0F8D0E03274048006740271
:1019D30080027401C0E0F404121797D0E012166D70
:1019E300227404800474028000CCC0E0EDC0E0E502
:1019F30018C39CCCAD1950011D10AF068C188D195E
:101A030080068C188D19D2AF12167AD0E0FDD0E083
:101A1300FC22D083D082E9C0E0E493A3C386F0C55F
:101A2300F095F0F908E493A386F0C5F095F0700BF8
:101A3300E493A3C3994005E9048002A3E475F0028B
:101A4300A42582F582E5F03583F583D0E0F9E493AC
:101A5300A3C0E0E493C0E022D083D082ECC0E0EDE9
:101A6300C0E0E493A3FCE493A3FDED4C600D121AD4
:101A7300A7EC24FFFCED34FFFD80EFE493A3FCE42B
:101A830093A3FDED4C600D121AE6EC24FFFCED343C
:101A9300FFFD80EFD0E0FDD0E0FCE493A3C0E0E4E1
:101AA30093C0E022C0E0C3E49396087401939618B0
:101AB300400FE49366700808740193661870007011
:101AC30019A3A3C3E49396087401939618A3A340A0
:101AD3000DD0E0D0E0D0E0021A97A3A3A3A3A3A361
:101AE300D0E022C0E0C0F088F0E493667008087488
:101AF300019366187000A8F0A3A3700BD0F0D0E098
:0E1B0300D0E0D0E0021A97A3A3D0F0D0E022E9
:101B140074F512182AEAFEEBFFEE2434F8EF3400D1
:101B2400F988088909EE2435121C40F8EE2437128E
:101B34001C40F50AEC850AF0A4FCAAF0850AF0ED35
:101B4400A42AFDE82CF8E43DF97A257B001216DC82
:101B5400EA850882850983F074075AF87401B8008D
:101B6400028004C333D8FCFBEA131313541FF8EEAA
:101B740028F8EF3400F9E8245DF582E9121C435B90
:101B84006003EA801CEE2436121C40F5F0EA84A8B7
:101B9400F0EE28F8EF3400F9E82438F582E9121C55
:101BA40043F97F040218D674F512182AEAFEEBFFF3
:101BB400EE2434121C40C0E0EE2435F582EF3400EC
:101BC400F583D0E0F08E828F83A3A3A3A3A3E0FACE
:101BD400A3E0FB8E828F83A3A3A3A3A3A3A3E0FC10
:101BE400A3E0FDECC39AF50AED9BF50BEE247FF51B
:101BF40008EF3400F509850882F583E06401702B51
:101C0400EE2480F582EF3400F5831219E8121C49A2
:101C1400740212177DE960137CDC7D04EEFAEFFB9D
:101C2400120BB2850882850983E4F0AC0AAD0BEE91
:101C3400FAEFFB121B141226DD021BA6F582EF3409
:101C440000F583E022C082C083851882851983E071
:101C5400F8A3E0F9C3EA9CEB9D5010C3EC98ED990E
:101C6400401BC3EA98EB995014800EC3EA98EB9991
:101C74004007C3EC98ED994004790180027900D0C3
:101C840083D08222EAC39CFAEB9DFB2274ED1218E6
:101C94002A9003A2E064086005E06407702C906158
:101CA400C8E060269003D0E0F874FF68601CE87513
:101CB400F003A4C8AAF02AF974D228FE740339FFE9
:101CC4008E828F83A3A3A3E070057900021E30EEF9
:101CD4002468F510EF3400F511906060E0851082FF
:101CE400851183F0750A45750B05750800750900A3
:101CF400E5D914F50EE5D95403F50F601CEE2482E2
:101D0400F50CEF3400F50D7403650F6058E50E60B3
:101D140013EE2467121C40700B793DEEFAEFFB12B0
:101D24000BD680A6900540E064016026850C828570
:101D34000D83E06004780480027800850E08E508CD
:101D4400C398FA95E0FB120A508A088B09EA450900
:101D54007006120E34021CCE850C82850D83E07051
:101D6400048A0A8B0B78008016E5D9C0E08812E556
:101D74000A2512F582E50B3400F583D0E0F008E87B
:101D8400C3950E40E4850C82850D83E0602874FCC5
:101D9400250EF50E780A1219D1AC0EA90FEEFAEF42
:101DA400FB120C84740212177DE9700AAA08AB09AD
:101DB400121314021D1D7403650F6058850E0C75F3
:101DC4000D00780C1219D1AC0AAD0BAA08AB09129C
:101DD4000C48740212177D851082851183E0F87413
:101DE40080687005750C7F8002880CE50CF50A7814
:101DF4000A1219D5E50FF50A780A1219D5A90EACFD
:101E040008AD099003D0E0FA7B001208E8740212CE
:101E1400177D80139003A2E06408600BAC0AAD0B3D
:101E2400EEFAEFFB120D1A120E4079017F0C021824
:101E3400D674F312182A74FC121767EAFEEBFF89B2
:101E440008A2AFE433F509C2AFEE2463F50AEF3418
:101E540000F50B8010AA0AAB0B120C00121314909D
:101E640004E3E004F0850A82850B83E0F8A3E0F93B
:101E7400E849602FE82402FAE93400FBEA2402F579
:101E84000CEB3400F50D780C1219D18A828B83E0A7
:101E9400FCA3E0F9EEFAEFFB120BF4740212177DC7
:101EA400E960B29004E3E060579004E4E0F8900441
:101EB400E3E0C398500C7402650870449004E5E0B4
:101EC400603E8E828F83A3A3A3A3E0851882851925
:101ED40083121F1474021217B2E8121F149004E242
:101EE400E028F074021217B2AC82AD8385188285A3
:101EF4001983AA82AB8379011208F49004E3E4F015
:101F0400E509A2E092AF740412177D7F060218D689
:101F1400F0A3E4F09004E3E0F82200008521878533
:101F240022C622C0E074EF121916A2AFE433FEC237
:101F3400AF759B00906182E0A2E05012E591A2E0AF
:101F4400500C7591FE740165217003121C90E0A27F
:101F5400E55051E591A2E5504B7591DF9003A2E065
:101F640064076005E06408702374016521703579A5
:101F7400019003D0E0FA75F003A4CAA8F028FB741A
:101F8400D22AFA74033BFB121E358018E0640D70EC
:101F9400139003C4E004F064287002E4F07A00E0D3
:101FA400F9120E46906182E0A2E6400302204EE55B
:101FB40091A2E6400302204E7591BF9003A2E06413
:101FC400057008120D5C120D688003120D627521F4
:101FD40000120DD4E99003A3F07900120DC8120B7E
:101FE4001C7A017B009003A1E0F912109E90780303
:101FF400E064427055900544E014F0704DC2AF1295
:10200400200600782AD0E0F618D0E0F6E59F5407C1
:1020140070057509FF800375097FC4C0E07829E65F
:10202400F50808E65509F509740B7808121745D028
:10203400E02508F8906270E0A2E740F8E8C3339026
:102044006272F0906270E0D2E0F0906181E0A2E30D
:102054005009E5E9A2E3500375E9F7A3E0A2E750CC
:1020640009E591A2E7500375917FEEA2E092AF7F5C
:1020740004021975C0E0C0D0C082C083906183E0BF
:10208400A2E05009E5BFA2E0500375BFFEE0A2E163
:102094005009E5BFA2E1500375BFFDE0A2E250097B
:1020A400E5BFA2E2500375BFFBE0A2E35009E5BF20
:1020B400A2E3500375BFF7E0A2E45009E5BFA2E430
:1020C400500375BFEFE0A2E55009E5BFA2E5500358
:1020D40075BFDFE0A2E65009E5BFA2E6500375BF75
:1020E400BFD083D082D0D0D0E032C0E074F21219D5
:1020F40016E5A7A2E4500FE5A1A2E4500953A7EF07
:1021040075A1EF122142E5A7A2E5500CE5A1A2E5D5
:10211400500653A7DF75A1DFE5A7A2E15009E5A1A9
:10212400A2E1500375A1FDE5A7A2E2500CE5A1A22E
:10213400E2500653A7FB75A1FB7F0102197574F8E1
:1021440012182A7521019003A2E0640670077A0030
:102154007B00120D44A2AFE433FED2AF9003A8E09B
:10216400640170187A207B009003A1E0F912112811
:102174007A207B009003A1E0F91210A4906182E020
:10218400D2E6F0900541E0602185C62280169003D6
:10219400A7E064017008E5C654F84405F5C653BECB
:1021A400FC121F207401652160E4EEA2E092AF7F6F
:1021B400010218D68E238F248582288583278518CB
:1021C40082851983E0CEA3E0CF852882852783EB1F
:1021D400C9EAC8EDCBECCA75F010C3E833C8E933DB
:1021E400C9EA33CAEB33CBC3EA9EF526EB9FF52548
:1021F400B35004AB25AA26EC33CCED33CDD5F0DABD
:10220400AE23AF242274E912182A74FA121767EA6B
:10221400FEEBFF8C088D099003A2E024F7C394051C
:102224005006751001022334120CBA8A0A8B0BEA89
:10223400450B7003022331120D7A8A0C8B0D120D9B
:102244007AEA650C7003EB650D60ECEEFCEFFD853E
:102254001882851983AA82AB83120D80850A828530
:102264000B83A3A3780C12163790921F780C1216C6
:1022740011851882851983781412163790921F7865
:1022840014121611780C7914121449501F780C7911
:10229400141215E99091EB780C1214694047850CDF
:1022A40010850D11850E12850F1380459091EB85D5
:1022B40014108515118516128517137810790C12D0
:1022C40015E97810121469501C7510007511007509
:1022D4001200751301781079141215E97810790C2D
:1022E4001215B0800C75100175110075120075136C
:1022F4000074097810121591909253780C121637C5
:102304007810790C1215089003A2E06408600AE0C2
:1023140064066005E0640570209091E7781012145B
:102324006950169091E378101215C3800C75100053
:10233400751100751200751300850882850983786C
:1023440010121646740612177D7F100218D674F701
:1023540012182A120D9290053FE0640170109062E9
:1023640045E4F0A3F053F4F343FE0C5390F3120D41
:1023740032E5C654804449F5C6E59E547F644970ED
:10238400F8906185740FF090053DE0F47002A3E0CD
:10239400602C75080175090090053DE07808121756
:1023A40054E508F4FAA3E0600814600A14600C8091
:1023B4000DEA52808008EA52908003EA52A0790024
:1023C4007F020218D674F712182AE9FEEAFF740194
:1023D4006E700C7A807B009003A1E0F912109E903D
:1023E400275CE493F46008E493F9120AFE8009532D
:1023F400C680E59E547F70FA120D3890053FE06464
:10240400017003120B3490053DE0F47002A3E06008
:102414002A75080175090090053DE07808121754E3
:10242400AA08A3E0600814600A14600C800DEA4254
:10243400808008EA42908003EA42A0120CBA8A081B
:102444008B09A808A909E8496017E5E170FCE824AC
:1024540014F582E93400F583E0F874FF68600288BB
:10246400E174016F700A7A019003A1E0F91210F28D
:102474000223C474F112182A8A088B098C0A8D0B62
:1024840090921F7808121611740F1217B2780C125A
:10249400163790921F780C1216117808790C1214C2
:1024A400499091EB50107808790C1215E9780812CC
:1024B40014694014800E780C79081215E9780C120E
:1024C400146950047901800279007F080218D674D7
:1024D400ED12182A8A088B098C0A8D0B90921F78AA
:1024E4000812161174131217B2780C121637909240
:1024F4001F780C121611780C7908121449401178BF
:1025040008790C1215E9AA08AB09AC0AAD0B8022B4
:102514007510007511007512007513017810790C8F
:102524001215E9781079081215B0AA10AB11AC1283
:10253400AD137F0C0218D690921F78081216378AB2
:10254400828B8378081216247F040218D674F5123D
:10255400182A8C828D8378081216378A828B8378A6
:10256400081215FD1225A5C3E098F0A3E0991225E1
:1025740097401E90920778081216378A828B8378C8
:10258400081215D68E828F83E02420F0A3E0344E07
:10259400F080A4F08E828F83C3E09420A3E0944E55
:1025A40022EA2404F8EB3400F9E8FEE9FF8C828D7A
:1025B40083A3A3A3A3E0F8A3E0F98E828F832274FC
:1025C400F512182AE9FE9004F7E0FAA3E0FBEEC343
:1025D40033F8E433F974DA28F582749039F583E03A
:1025E4002AF508A3E03BF50978081219D19092372F
:1025F4001216551221B8740212177D8A088B098CA1
:102604000A8D0B74107808121578AA08AB097F0498
:102614000218D674F112182A8A0C8B0D8C0E8D0FA9
:10262400740F1217B2E0FAA3E0FB74111217B2E0B0
:10263400F508A3E0F50978081219D1EA2401F50890
:10264400EB3400F509E4F50AF50B780C790812145B
:10265400889091D37808121637780C790812148868
:10266400AA0CAB0DAC0EAD0F1221B8740212177D7B
:102674008B09EA450960047A0180027A00EC2AFC9D
:10268400ED3400FD74131217B2E0F8A3E0F9E8FE8C
:10269400E9FFECF8EDF97A717B021216DC880889FF
:1026A40009E4F50AF50B8E828F837808121646EC3E
:1026B400F8EDF97A717B021216DC8A088B0974052D
:1026C40078081217548E828F83A3A3A3A3E508F07E
:1026D400A3E509F07F080218D6C082C083E99060A0
:1026E40000F0D083D08222C2AF02000022C0E07486
:1026F400F2121916A2AFE433FED2AFE589A2E1507B
:1027040003121284758900C2C5751A00EEA2E09204
:10271400AF7F01021975C0E074F2121916A2AFE47A
:1027240033FED2AFE58BA2E05003121284758B0006
:10273400C2E880D5C0E0C0D0E8C0E0E9C0E0E5A8C8
:10274400D2AFC2C7751A00A2E7A2E792AFD0E0F9F0
:10275400D0E0F8D0D0D0E032FFFFFFFFFFFFFFFF53
:10276400C082C083E99009E7F00229F374F71217D5
:10277400BEE99002E1F07C197D037AFF7BFF120829
:10278400349002E274FFF0A3F0A3E4F0A3F079051F
:102794001207BC9002E1E0F91206DE7A527B0812BD
:1027A4000A027F0102189074F41217BE8A088B097A
:1027B400EB548060309002E1E0F91210868A0A8BB3
:1027C4000BAE0AAF0BEE4F60138E828F83E064B0C2
:1027D40070031207D4EEFAEFFB121074AA08E5098D
:1027E4006480FB80047A007B000229C274F2121711
:1027F400BE74FC121767EAFEEBFFEE4F60387402FA
:102804001217B2EEF0A3EF122C27ECF0A3ED122C6A
:1028140027AA82AB831206D8E9F5087073741212E2
:1028240017B21237DBE50A450B60658E828F83127F
:10283400289EEE4F700575080280557A067B0012BB
:1028440010DA8A0C8B0DA80CA90DE84970057508DF
:1028540013803D88828983E41228A8A3A3EEF0A301
:10286400EF123C74E50AF0A3E50BF09002E712299D
:10287400309002E76017E0FCA3E08003EAFCEBFD84
:102884008C828D8312293070F38C828D83123700F1
:10289400A908740412177D023E76A3A3A3A3E0FE45
:1028A400A3E0FF22F0A3F0888289832274F2121736
:1028B400BE890AE975F017A4FEAFF09002E6E4F0D1
:1028C4009002E4122930600A1210E09002E4E4F06D
:1028D400A3F0EEFAEFFB1210DA8A088B09EA450935
:1028E400602FEEFCEFFD790012105C9002E4E50825
:1028F400F0A3E509F07B00800812291AE4F0A3F0A4
:102904000BEBC3950A40F2E50A9002E6F0790080E9
:10291400027913023E76EB75F017A4F8A9F0900241
:10292400E4E028FAA3E0398A82F58322123496EA95
:102934004B2274F41217BE750800750900740C124A
:1029440017B2123C48FEE9FF800CE5082401F508A3
:10295400E5093400F509C3E5089CE5099D50328575
:10296400080A85090B7403780A121754EA250AF831
:10297400EB350BF988828983A3A3A3A3A3A31237FE
:10298400DBEE650A7003EF650B70BFE8FAE9FB80C4
:10299400047A007B00802774F41217BE7900EAA23F
:1029A400E0501B7508AC75099178081219D17C04A4
:1029B4007D007AE97B091207B6740212177D7F0441
:1029C400021890C082C0839002E71229FA601C8822
:1029D400828983A3A3E06A7003A3E06B888289835E
:1029E40070E8A3A3A3A312349280047A007B00D0DE
:1029F40083D082020135123F49E8492274EE12174E
:102A0400BE74FC121767EAFEEBFF851882851983F2
:102A1400E4F0A3F0EE24021236E4EE2405122C15A1
:102A2400EE2404F50EEF122FFAE024FE603924FCA4
:102A3400604624FE605224FE605E24FE7003022B76
:102A44001A24FE7003022B9224FE7003022BA1248D
:102A5400FE7003022BB024FC7003022BBF24FE7013
:102A640003022BCE022C0B9003007417F0A3E41284
:102A74002C2F120456022C0B851882851983AC82E4
:102A8400AD831207DA022BDB851882851983AC82A9
:102A9400AD831207E0022BDB850C08850D09740257
:102AA4001217B2AC82AD83850882850983123492F1
:102AB4001206FC8A0C8B0DAC0CAD0DEC4D6042E49F
:102AC400F50CF50D780C1219D1750C00750D037801
:102AD4000C1219D1750C01750D03780C1219D174EF
:102AE400081217B21219E8791612348C12081C74E1
:102AF4000812177DE9F50C700B12348812046E80ED
:102B04000F750C01850882850983122C1D1237006C
:102B1400850C08022BDE74021217B2AC82AD8385D9
:102B24000C82850D831234921206FC8A108B11AC30
:102B340010AD11EC4D6043850C82850D83A3A31267
:102B440019E875100075110378101219D175100168
:102B540075110378101219D174081217B21219E8FA
:102B6400791612348C12081C740812177DE9F509C1
:102B7400700B123488120474800F750901850C825D
:102B8400850D83122C1D123700850908804C851889
:102B940082851983AC82AD831207E6803A85188258
:102BA400851983AC82AD831207EC802B851882854E
:102BB4001983AC82AD831207F2801C8518828519B3
:102BC40083AC82AD831207F8800D85188285198342
:102BD400AC82AD831207FEE9F508E50860298E8210
:102BE4008F83A3E06414601F850E82850F83E090B9
:102BF4000300122C27123F45900301123700E50809
:102C0400A3122C2F120450EEFAEFFB12077A0235AE
:102C1400ECF50CEF3400F50D22123F49851882853E
:102C2400198322F085188285198322F07C007D03A4
:102C3400850A82850B831234962274EE1217BE74B1
:102C4400FC1217678A0A8B0B8C0E8D0FEA2405F58C
:102C540008EB3400F5097C157D0079007A007B03CC
:102C640012105CE5082402F50CE509122C188518ED
:102C74008285198385821085831178101219D18574
:102C84000882850983A3A3A3A31231421219D1E5B3
:102C9400082405F510E5093400F51178101219D14E
:102CA400850C82850D8312349C1206F67406121765
:102CB4007D8A108B11AE10AF11E50A2402F50AE5E6
:102CC4000B1236E7EE4F7003022E048017740212C3
:102CD40017B212349288828983EAF0A3EBF090034E
:102CE40000E004F0900300E0C394054003022E04C6
:102CF400E4F510F51178101219D17510E975110267
:102D040078101219D17510EA75110278101219D1C0
:102D140074061217B21219E87910EEFCEFFD1234A2
:102D24008C12081C740812177DE9705E8508828570
:102D34000983A3A3A3A3A3A3A3E0F89002E9E068F3
:102D440070481231421219D17CEA7D02E508240848
:102D5400FAE5093400FB121056740212177DE9607B
:102D6400298E828F83A3A3A3A3123492900300E03D
:102D7400F5107402781012175474012510F582743A
:102D8400033511F583EAF0A3EBF074021217B28550
:102D9400821085831178101219D174021217B2129D
:102DA40019E8850C82850D83123F5A1207027404B8
:102DB40012177D8A108B11AE10AF11900300E0F54D
:102DC400107511007402781012175474002510F84D
:102DD40074033511F988828983A3122930700302A0
:102DE4002CC8E82403F8E93400F9EE4F6003022C00
:102DF400D18882898374FFF0A3F0900300E004F08B
:102E0400900300E0600A1234881204627900800B97
:102E14008508828509831236F7790A0235EC74EA4B
:102E24001217BE74FE1217678C128D13EA2405F56F
:102E34000CEB1240C41228A2750800750900EA249C
:102E440002F510EB3400F51185188285198385820B
:102E54000A85830B780A1219D1850C82850D83A308
:102E6400A3A3A31230041219D1E50C2405F50AE535
:102E74000D1236E7780A1219D1850C82850D83125A
:102E84003F581206F6740612177D8A0A8B0BEA4520
:102E94000B7003022FB5EA2404F50EEB122FFA127D
:102EA40028A28A828B83A3A3A3E0F98510828511CB
:102EB400831234921206E4E9F5096003022FB5E4A3
:102EC400F514F51578141219D17514E975150278ED
:102ED400141219D17514EA75150278141219D174E3
:102EE400061217B21219E87913AC0AAD0B851082D9
:102EF40085118312349212081C740812177DE9F5A7
:102F0400096003022FB59002E9E0F8E5087009E0D2
:102F14002402900301F08017900301E0FCE82402EE
:102F2400FAE43400FBEA6C7001EB6003022FB9850C
:102F34000882AA8212313994141231315073850EE9
:102F440082850F83E0C0E074022A122FF1D0E0F0F2
:102F54000508850E82850F83A3E0C0E085080A7406
:102F640002250A122FF1D0E0F005089002E9123090
:102F7400041219D17CEA7D0285080A7402250AFA32
:102F840074033400FB121044740212177D9002E99A
:102F9400E02508F50874FF6E700374FF6F6012EE8D
:102FA40024010EEF3400FFE508C394145003022EED
:102FB4004CE508601312337D851082851183123429
:102FC4009212046879008014E509700375090A8572
:102FD4001282851383EEF0A3EFF0A909740212178D
:102FE4007D7F0E02189085080C7402250CF58274FE
:102FF400033400F583223400F50F850E82F5832215
:10300400123C872274EE1217BE74FE1217678C0EE0
:103014008D0FEA2405F50CEB122C18750B009003A8
:1030240000E4F0F50AEA2402F508EB3400F509801F
:1030340049900300E0FA9002E9E0F812313994175C
:10304400123131400D900300E0F87416C3989002D9
:10305400E9F01231421219D17CEA7D0274012AFA94
:1030640074033400FB121044740212177D9002E9B9
:10307400E0F8900300E028F0050AE50C2416F58238
:10308400E50D122FF5E0F8E50AC398400302311A62
:10309400900300E0C39416507DE50AC333F8E4338B
:1030A400F9E50C28FEE50D39FF851882851983ACF6
:1030B40082AD838E828F831234921206FC8A108B27
:1030C40011AC10AD11EC4D7005750B018043E4F5A6
:1030D40010F51178101219D17510E97511027810D4
:1030E4001219D17510EA75110278101219D17406EB
:1030F4001217B21219E879168508828509831234E9
:103104009212081C740812177DE9F50B7003023043
:10311400351236F380107C007D038508828509838F
:1031240012349212047AA90B74020235EEE9940067
:10313400C365D03322EA28F8E43400F9E822E0F544
:103144001075110078102274EA1217BE74FC12175D
:10315400678A0C8B0D8C128D13EA2405F50AEB1289
:1031640036E7750800750900E50A2402F510E50B39
:103174003400F51174021217B285820E85830F781C
:103184000E1219D1850A82850B83A3A3A3A3123C33
:10319400331219D1E50A2405F50EE50B3400F50FB9
:1031A400780E1219D18510828511831236ED1234EE
:1031B4008C1206F6740612177D8A0E8B0FAE0EAFB4
:1031C4000FE50C2402F50EE50D3400F50F80408860
:1031D40082898374FFF00508122FEA74FFF0050852
:1031E4009002E9E0F50C750D00780C1219D17CEA17
:1031F4007D0285080C7402250CFA74033400FB125A
:103204001044740212177D9002E9E02508F508EED7
:103214004F60718E828F83A3A3A3E0F9850E82850C
:103224000F831234921206E4E9F509EE2404122CF9
:1032340015E97044E4F514F51578141219D17514D0
:10324400E975150278141219D17514EA7515027806
:10325400141219D174081217B21219E87911EEFC7C
:10326400EFFD850E82850F8312349212081C7408B8
:1032740012177DE9F5096027850C82850D831233C9
:1032840073123700E508700302335912337D850E3B
:1032940082850F83123492120480790002336E8582
:1032A4000882AA82EA9002E97009E02404900301EA
:1032B400F08022E0F8900301E0F514E82404FCE433
:1032C4003400FDEC65147001ED70C01231399412B4
:1032D40012313150B6850C82850D83E0C0E0740252
:1032E4002A122FF1D0E0F00508850C82850D83A306
:1032F400E0C0E0122FEAD0E012338F85820C858380
:103304000D780C1219D174041217B21219E8851031
:1033140082851183123F5A120702740412177D8AA0
:103324000C8B0DAE0CAF0D85080C7402250CF874D3
:10333400033400F9EE4F70030231D38518828519E6
:1033440083E08882898312338FA3E0C0E0122FEADE
:10335400D0E00231E1E509700375090A850A828526
:103364000B83123373123700A9097404022FE2127B
:103374003F4985128285138322900301E0F5F0E52D
:103384000884900300F07C007D0322F00508851872
:10339400828519832274EC1217BE74FE1217678A91
:1033A400088B098C0E8D0FEA2405FEEB3400FF8593
:1033B4001882851983AC82AD838E828F83123492F6
:1033C4001206FC8A0A8B0BEE2418122C15EA450B04
:1033D40070030234631235D55032851882851983FF
:1033E4001234921208108A108B11EA4511606B791D
:1033F40012AC0AAD0B8508828509831234928510BC
:10340400828511831217BCE9F50A7058E4F50AF5B0
:103414000B780A1219D18E828F83A3A3E0F50A7860
:103424000A1219D1EE24031236E4780A1219D18E45
:10343400828F8312349C120822740612177DE9F5D8
:103444000A7021850C82850D83E0701F85088285B2
:1034540009831234921204868011750A0E8009754C
:103464000A018004E50A60031236F3850C82850D97
:1034740083E0600479008002A90A740212177D7F38
:103484000C0218907C007D03850A82850B8312341C
:103494009622E0FAA3E0FB22E0FCA3E0FD8508828B
:1034A4008509831234962274EE1217BE74FE121725
:1034B400678A088B098C0C8D0DEA2405FEEB340019
:1034C400FF750E00851882851983AC82AD838E82C8
:1034D4008F831234921206FC8A0A8B0BEA450B7016
:1034E400030235C11235D5503585188285198312EA
:1034F40034921208108A0E8B0FEA450F605E79121F
:10350400AC0AAD0B850882850983123492850E823C
:10351400850F831217BCE9F50E60030235C48508D4
:10352400828509831237DBAA0AFB1208048A108BEE
:1035340011A810A911E849701E7AFF7BFF12080434
:103544008A108B11A810A911E849606C88828983BC
:10355400E50AF0A3E50BF0750A008007750E0E80EE
:103564005F050A9002E6E0FAE50AC39A504AE50AC2
:1035740075F017A4FAABF088828983A3A3E02AFA32
:10358400A3E03BFB8A828B831236EDEC4D70D2753F
:103594000A17750B00780A1219D1EEFCEFFD121010
:1035A40044740212177DEEFCEFFD850882850983C1
:1035B40012349212048C8014750E098003750E0166
:1035C400123F41850C82850D83123700A90E02310A
:1035D4002CE5082402F508E5093400F5098A828BF4
:1035E40083A3A3A3E0A2E522740412177D7F0A0239
:1035F400189074EC1217BE8C108D11EA2405F50C8A
:10360400EB122C18750F00EA2402F50AEB1236E7C8
:10361400850A82F5831234921208048A088B09EA17
:10362400450970030236D9750E008071850C8285B8
:103634000D83E06401704F8E828F83A3A31219E877
:103644008E828F83A3A3A3A3E0F5127513007812CF
:103654001219D1EE2405F512EF3400F51378121285
:1036640019D112348C120822740612177DE9F50F51
:103674006014850C82850D83E4F0123F418510822D
:103684008511831237007C177D007900EEFAEFFB79
:1036940012105C8E828F83E4F0A3F0050E9002E694
:1036A400E0F8E50EC398501EE50E75F017A4F8A9CE
:1036B400F0850882850983A3A31240CE1236EDEC6F
:1036C4004D600302363085088285098374FFF0A3B8
:1036D400F0E50F700612348C120492A90F023483A1
:1036E400F50AEF3400F50B22A3E0FCA3E0FD228EE3
:1036F400828F83123F49850E82850F83E8F0A3E908
:10370400F022C082C0839002E2E06A7003A3E06BFF
:1037140070067AE27B0280047A007B000229F3C0FF
:1037240082C08378008C828D83E06A7003A3E06B8F
:103734007010E875F003A4F8A9F0EC28FAED39FB51
:103744008015088C828D83A3A3A3E06A7003A3E091
:103754006B60DF7A007B000229F374F61217BE1245
:1037640007CE8A828B83E582458370067A007B00CC
:103774008007A3A3A3A3123492023DF274F212179A
:10378400BEE9FE740E1217B21237DB74101217B2B0
:10379400123C538C828D83E064027036A3123F4F37
:1037A400F50CA3E0F9A80C7402687003742969701D
:1037B40021750C02750D00780C1219D178081219B4
:1037C400D1780A1219D1EEF9120846740612177D3F
:1037D40080027901023E76E0F50AA3E0F50B22743B
:1037E400E81217BE74FB121767E9851882851983DE
:1037F400F08A168B17ECFEEDFF751000741D12177E
:10380400B2123F45741D1217B21237008E828F8395
:10381400A3A3A3E0A2E4502D741D1217B212349294
:103824001208108A828B83E58245837003023C244C
:10383400790AEEFCEFFDAA16AB171217BCE9F510D6
:103844006003023C27741F1217B2123C53742112F6
:1038540017B21237DB74231217B2E0F50EA3E0F5AA
:103864000F8E828F83E064026003023BD2A3123F77
:1038740045850882850983A3858212858313EE24F6
:1038840006122C1588828983E0FAA3E0F9EA240061
:10389400F514E439F5157814121A5B0100002801B7
:1038A40028C738070002288C390328F9380029C3AF
:1038B4003A0129EE3A02298F3A0329C33A04296DC1
:1038C4003BD23BE50E450F6003023BCD850C828560
:1038D4000D83123C48FAE9FB8A828B83E0850A82D5
:1038E400850B83123C7E1219D18A828B83A3E0FC60
:1038F400A3E0023B57E50E450F6003023BCD850A6A
:1039040082850B837401F0123C5B850882850983F0
:10391400F07C007D008E828F83A3A3A3A3E0240107
:10392400FAA3E03400FB1206FCEA4B60418A828B66
:1039340083E02402F8850A82850B83E028F0EA24D8
:1039440004F8EB3400F988828983E08512828513B8
:1039540083123C90123C7E1219D18A828B831236D8
:10396400ECE5082403FAE5093400FB023B5C850A14
:1039740082850B83E02404F07C047D007900AA1284
:10398400AB1312105C023C27E50E450F6003023BAB
:10399400CD123C5BFEA3E0FF850A82850B83740491
:1039A400F0EE850882850983F0EF85128285138302
:1039B400F074031217B2AC82AD83EEFAEFFB120679
:1039C400FC8A0C8B0DEA450D7003023A708A828BD7
:1039D40083A3A312289E74011217B285820E8583D5
:1039E4000F780E1219D174051217B21219E87CFF60
:1039F4007DFF120702740412177D8B0FEA450F70C6
:103A040033850C82850D83123C331219D1850C82C7
:103A1400850D83A31219E87C027D007A737B9212D0
:103A2400052E740412177DE9700A74011217B2741A
:103A3400FFF0A3F08E828F83E064027039750C026C
:103A4400750D00780C1219D18E828F831236ECE535
:103A5400082404FAE5093400FB1210447402121716
:103A64007D850A82850B83E0240280097401121784
:103A7400B2EEF0A3EFF074011217B2123C44F074EA
:103A8400011217B2A3123C3C023BC7E50E450F607E
:103A940003023BCD850C82850D831236EDAA16AB4D
:103AA4001712083A850A82850B837402F0EA8508A6
:103AB40082850983F0851282851383EB023BCAE574
:103AC4000E450F6003023BCD123C5BF8A3E0F98581
:103AD4000A82850B837402F0E8850882850983F0E5
:103AE400E9851282851383023BCA850C82850D8386
:103AF40012349212103EEAFC8C82A882C3950EE422
:103B0400950F405FE8650E7002E50F70047C00803D
:103B140022851882851983E0FAE50E2AFAE50F3426
:103B240000FBC3EA98EB94005003E08005E50ECC5B
:103B3400C39CFCEC850A82850B83F08C0A750B0010
:103B4400780A1219D1850C82850D83E0250EFCA319
:103B5400E0350FFDAA08AB09121044740212177D58
:103B6400023C27751007023C27E50E450F705A8565
:103B74000C82850D83123F45850A82850B83740769
:103B84001228AA123C3C1228AAA3E08512828513AB
:103B940083F0E82402FAE93400FB8A828B83123C26
:103BA4003C123C6B123C44A3123C74123C4DF0E8B2
:103BB4002405F8E93400F988828983123C4DA31264
:103BC4003C90A3A3A3A3F0805A75100B8055741DD9
:103BD4001217B21234921207CE8A828B83E5824581
:103BE40083603D123F45880C890DE8450D603178AE
:103BF4000E1219D1780A1219D178081219D1740643
:103C04001217B2E0F9EEFCEFFDAA16AB17850C8291
:103C1400850D831217BC740612177DE9F510800315
:103C240075100EA910740512177D7F10021890E00C
:103C3400F50E750F00780E22E0850882850983222F
:103C4400123C9A22123F49E822123C9AA3A322E092
:103C5400F508A3E0F50922850C82850D83E0F8A31D
:103C6400E0F5838882E022A3A3F08A828B83A322D7
:103C7400F088828983A3A3A3A322F08A828B831270
:103C84003C8722E0F50A750B00780A22F0888289C5
:103C940083A3123C9A22E0850882850983A3A32288
:103CA40074EE1217BE74FE1217678A0A8B0BECFAB5
:103CB400EDFB74141217B2E0F510A3E0F5117416BD
:103CC4001217B2E0FE74181217B2E0F50EA3E0F575
:103CD4000F851882851983AC82AD831206FC8A0C89
:103CE4008B0DEA450D60498518828519831234923B
:103CF4001207CE8A828B83E5824583602FA3A312A9
:103D04003C53E50845096024780E1219D178101245
:103D140019D1EEF9AC0CAD0DAA0AAB0B850882855E
:103D240009831217BC740412177D8006790E800271
:103D3400790102312C74F61217BE74FE12176774DF
:103D44000C1217B2123C48851882851983F074014D
:103D54001217B2E9F0E4F508F50978081219D175DB
:103D6400080278081219D174041217B285820885E2
:103D7400830978081219D1120822740612177D7467
:103D84000212177D806874F71217BEEAFEEBFF89F2
:103D9400087C197D0312083AEA5402600BA908EE64
:103DA400FAEFFB1206F0800279010227A674F612DC
:103DB40017BE74FF6A700374FF6B70168C828D8358
:103DC400123DF7E4F08C828D83A3A3A3123DF7A3E5
:103DD400801812080A8A088B09A808A909E849600A
:103DE4000D8882898374FF1228A8A3A3E4F07F02BC
:103DF40002189074FFF0A3F08C828D83A3A3227425
:103E0400F61217BE12080A8A828B83E58245836004
:103E140006A3A3E0FA80027A007B0080D174F21238
:103E240017BE8A088B09ECFEEDFF740E1217B2E080
:103E3400F50A12080A8A0C8B0DA80CA90DE8497022
:103E440026EEFCEFFD7AFF7BFF12080A8A0C8B0D2D
:103E5400A80CA90DE8497004791180168882898319
:103E6400E508F0A3E509F088828983A3A3E50AF0B5
:103E740079007F0602189074EE1217BEEAFEEBFF7B
:103E84008C088D09890C74141217B2123F457416EC
:103E94001217B2123492750D00E8496003023F39DB
:103EA4007402650C6003023F3474121217B2123F9D
:103EB4004FFCA3E0F9EC2400F50EE439F50FEAF425
:103EC400F8EBF4F9EC58F8E50F59F9E849705CE5BA
:103ED400082406F8ED3400F9880A890B8882F583F2
:103EE400123F5A12083A8A108B11E50E65107004BD
:103EF400E50F65116042780E1219D1850A82850B8F
:103F040083123F5A120840740212177DE9F50D70AE
:103F140027780E1219D1850882850983A3A3123F3D
:103F240058120858740212177D800D750D80800890
:103F3400750D0D8003750D0BA90D0235F18E828F61
:103F440083123F4922E0F8A3E0F922123F49888214
:103F54008983E022A3A3E0FCA3E0FDEEFAEFFB22B9
:103F640074E81217BE74E7121767851882851983DF
:103F7400EAF0A3EBF08C168D17890E75080075090D
:103F84000074311217B2E0F512A3E0F51374331282
:103F940017B2E0F514A3E0F51574351217B2E0F585
:103FA4000FE50975F003A4F8A9F085188285198333
:103FB4001240CEE0F47003A3E0F470030240B1EECB
:103FC4002402F50CEF1240C4E070030240B18516E0
:103FD4000A85170B780A1219D1AC14AD15AA12ABC5
:103FE400131207C2740212177D8A0A8B0BEA450B5F
:103FF40070030240B1E4F510F51178101219D17470
:10400400061217B285821085831178101219D174A3
:10401400091217B285821085831178101219D1857F
:104024001282851383A3A3A3A31219E87914AC0AFB
:10403400AD0B8E828F8312349212081C74081217EF
:104044007DE97069850A82850B83A3A3A3A3123F2C
:104054004574021217B2123700850C82850D83E075
:10406400A2E05018A90E74021217B2AC82AD838E6E
:10407400828F83123492120714E94208850C8285D8
:104084000D83E0A2E15026E50FF50A780A1219D54E
:10409400A90E74031217B2AC82AD838E828F831281
:1040A400349212070E740112177DE942080509E5DE
:1040B40009C394025003023FA5A9087419023C2BBA
:1040C4003400F50D850C82F58322E028FEA3E03947
:1040D400FF8E828F832274F21217BEEAFEEBFF89F1
:1040E4000B7401650B600E7402650B706A79011222
:1040F4000A20E97062EEFAEFFB1208048A088B09C1
:10410400EA45096047750A00800B7C177D00790039
:1041140012105C050A9002E6E0F8E50AC398502103
:10412400E50A75F017A4F8A9F0850882850983A328
:10413400A3E028FAA3E039FB8A828B831229FA7060
:10414400C985088285098374FFF0A3F07C197D0377
:10415400EEFAEFFB120834023E7674F21217BE8AAE
:10416400088B09ECFEEDFF740E1217B21237DB90C8
:1041740009E7E0F4603D7A097B0012106EEA4B60B7
:10418400328A828B8374B1F0A3E4123C6DA3123C97
:104194006BA3E508F0A3E5091241BAEEF0A3EF1210
:1041A40041BAA3A3E50AF0A3E50BF09009E7E0F90F
:1041B40012107A023E76F08A828B83A3A3A3A3A370
:1041C4002274F01217BE74FA121767890BECFEED15
:1041D400FF750A008A088B097808121A1500041062
:1041E400F843084226424042584276428E42B14247
:1041F400C942DD4207438F43A043B743D243F84348
:10420400F8431D437401650B60030243F38E828FF0
:1042140083E0F8C3940340030243F3E8900AD30213
:1042240043CF7402650B60030243F38E828F8312C3
:104234004AF5900AD4E8F0A3E90243CF7401650B70
:1042440060030243F312442040030243F3E890075F
:10425400660243CF7401650B60030243F38E828FC1
:1042640083E0F8C3940540030243F3E89007670230
:1042740043CF7401650B60030243F31244204003EF
:104284000243F3E89007680243CF7410650B6003A0
:104294000243F375081075090078081219D17A6978
:1042A4007B07121044740212177D024419740165CD
:1042B4000B60030243F312442040030243F3E890EB
:1042C40007790243CF7401650B60030243F38E82C6
:1042D4008F83E0900AD70243CF7404650B60030216
:1042E40043F38E828F83780C121637909237780CB2
:1042F40012146950030243F390077B780C1216469C
:10430400024419E960030243F312069CE9700512A2
:1043140011DC806090080E806E7407650B600302E8
:1043240043F375080675090078081219D18E828F37
:1043340083A3AC82AD8374021217B2AA82AB831238
:10434400104A740212177D7C007D0085188285193D
:1043540083AA82AB838E828F83E0F9121182E9F5FE
:1043640008C3940A400302441612069CE9700CA97F
:10437400081211E27950121392806F740F2508F518
:104384008274083400F583740180407401650B70F5
:104394005E1244205059E890077A802F7401650B0F
:1043A400704D8E828F83E0F8C3940A5042E8900ADD
:1043B400D680187401650B70368E828F83E0F87492
:1043C400F928C3940A5028E8900AD8F08047740169
:1043D400650B701B90080DE0F88E828F83E09008C7
:1043E4000DF0E87030E06401702B1211D080267556
:1043F4000A188021C3EA9427EB94005015740265CF
:104404000B700F8E828F83124EF412053AE9F50A6F
:104414008003750A02A90A7406024AEA8E828F830F
:10442400E0F8C394022274F01217BE74CC1217671A
:104434008C0A8D0B74201217B2AC82AD83758391F4
:104444007582A6740612167A74201217B2AC82AD65
:1044540083121182E9F50874441217B2E0FEE9C32D
:10446400940A400302459875F006E9A4F5097426F8
:104474001217B2AC82AD837A0E74202509F9121397
:104484008CE9700974321217B2E0FF80027F009049
:104494000AD3E06402700474018001E4F50D780D20
:1044A4001219D5EEFDEFFCA908AA0AAB0B121206ED
:1044B400740112177D7C147D007900740C1217B2FC
:1044C400AA82AB8312105C740C1217B2AC82AD8357
:1044D4007A1074242509F912138CE9703C7C107944
:1044E400FF740C1217B2AA82AB831210C2E97029AE
:1044F400741C1217B2AC82AD837A0474252509F9B1
:1045040012138C740C1217B2AC82AD83EFA2E0E4E8
:1045140033F9AA0AAB0B1205C4851882851983AC3A
:1045240082AD837A0C74702508F912138CE97053E8
:10453400851882851983AA82AB831211B27508008B
:10454400E50875F003A4F8A9F0851882851983E5B8
:104554008228F8E583124CFE124EEE601D88828993
:1045640083A3A3E0F50E750F00780E1219D1AA0AE1
:10457400AB0B120828740212177D0508E508C394D2
:104584000440BDEFA2E1500C900765E0F9AA0AAB24
:104594000B12082E74046E7027900AD3E064027024
:1045A4001F7A00900779E060010A900766E06004D2
:1045B400780480027800E84AF9AA0AAB0B12068450
:1045C40079007434024AEA74F01217BEEAFEEBFF73
:1045D4008C088D09750A0AE9600C146009146037A7
:1045E40014607902467A1211C4E9F50AC3940A40A8
:1045F4000302467AE5084509607C750E06750F00CE
:10460400780E1219D1EEFCEFFDAA08AB0912104482
:10461400740212177D805F750B00750E06750F000E
:10462400780E1219D1EEFCEFFDE50B75F00EA4F82F
:10463400A9F0748728FA740739FB12105674021211
:10464400177DE9600C850B0AE50AC3940A5027809C
:1046540016050BE50BC3940A501C80BE1211CAE95F
:10466400F50AC3940A500FE50845096009AA08AB86
:1046740009A90A1211BEA90A024AED74F41217BE5E
:10468400890875091574FF6A700374FF6B70277EBF
:1046940000AC087A027B00EEF91211A0E960037500
:1046A40009000EEEC3940A40E8E50860537AF47BEF
:1046B40011120A32804A120A148A0A8B0BAE0AAF0C
:1046C4000BEE4F60387C007D00EE2405FAEF3400D9
:1046D400FB8E828F83A3A3A3A3E0F9121182E9C303
:1046E400940A500CAC087A027B001211A0750900E0
:1046F400E508600CEEFAEFFB1211F480037509145F
:10470400A9098005740E12177D7F0402189074F2B3
:104714001217BEECFEEDFF750815740E1217B2E009
:10472400F50AA3E0F50B74FF6A700374FF6B702144
:10473400750900AC0AAD0BEEFAEFFBA9091211A63C
:10474400E960037508000509E509C3940A503F8030
:10475400E2120A148A828B83E5824583602D7C00F1
:104764007D00E5822405FAE5833400FBA3A3A3A31B
:10477400E0F9121182E9C3940A5013AC0AAD0BEEAE
:10478400FAEFFB1211A67508008003750814A90836
:10479400025530C082C08390077FEAF0A3EBF0900B
:1047A4000765E0FC7D007A267B0012053A900765D8
:1047B400E0F91207A402538B74F01217BE74EC12C2
:1047C4001767EAFEEBFFEE240CF50CEF3400F50D51
:1047D400EE2405F50EEF3400F50FEE2409F50AEF8B
:1047E4003400F50BEE2403F508EF3400F5098E824E
:1047F4008F83A3A3E024FA7003024A8E24FD70037E
:104804000249A914700302489514601024FD700332
:104814000249801470030249DD024AE612572B60F4
:1048240048E0F5838882124AF5880E890FE8450F1F
:104834006037850C82850D83E0F50C780C1219D550
:10484400EE240BF582EF124CC5F9850A82850B83A1
:10485400124EF40A0A0AAB09850E82850F831217D9
:10486400BC740112177D024AE6850A82850B831205
:1048740019E890077B1216551205D6740212177D9B
:10488400E97003024AE67901850A82850B83024AAC
:10489400598E828F83A385820A85830BE06003028D
:1048A4004963850E82850F83E0A2E04003024963D9
:1048B40090081912572E60030249637C0E7D00791B
:1048C40000851882851983AA82AB8312105C850C3B
:1048D40082850D83125356EA4B6010750C06750DD4
:1048E40000780C1219D1EA2410801B125350120ABA
:1048F40014EA4B7003024AE6750C06750D00780C39
:104904001219D1EA2405FCEB3400FD74021217B22B
:10491400AA82AB83121044740212177D850E82851D
:104924000F83E0A2E25004D2F08002C2F0A2F0E4CD
:1049340033F8740C1217B2E048F0EEFCEFFD851862
:1049440082851983AA82AB831211B8E970117A02A5
:104954007B00900765E0F912109E7900024AE81284
:10496400572B7003024AE6124AFB7003024AE6859B
:104974000A82850B83E0FC7901024A8212572B706C
:1049840003024AE6124AF2890BE8450B7003024A15
:10499400E68E828F83A3E0FC7902125350888285CD
:1049A4000B83024A897C007D00EE2404FAEF340074
:1049B400FB850882850983E0F9121182E9F8C39422
:1049C4000A4003024AE6EE240AFCEF124ECAE8A4A7
:1049D4002425F9121386024AE612535090077AE00E
:1049E4006007900AD6E0F9806F900AD3E0700479EA
:1049F400058065120A148A0C8B0DA80CA90DE824F5
:104A040004F50CE93400F50D8E828F83A3A3A3A3D0
:104A1400A3A3A3E0A2E05046E8497003024AE68556
:104A24000C82850D83E0FE6035850A82850B83E068
:104A34005410702A740E1217B2AC82AD83E82405A8
:104A4400FAE93400FBEEF9121182E9701179038559
:104A540008828509831253561205D0024AE6AC0E29
:104A6400AD0F850C82850D83E0F9125350121200AC
:104A740012572B606D124AFB60687C007900125358
:104A8400508E828F831217BC805812069CE9705294
:104A940090080EE0640170151211DC90080EE4F029
:104AA4007C0AFDF97A0F7B0812105C802D750A00D0
:104AB400850A08740F2508FE74083400FF8E828F5F
:104AC40083E06401700BA90A1211E28E828F83E4E1
:104AD400F0050AE50AC3940A40D6795012139212DB
:104AE40011D07901741412177D7F08021890124BAB
:104AF4000AE0F8A3E0F922124B0AE0F8A3E0F9E88F
:104B0400FEE9FFEE4F22E0F5838882A3A32274F42A
:104B14001217BE74F2121767EAFE8C0B75F006E9E1
:104B2400A42420F508851882851983AC82AD837A84
:104B34000EF912138CE970577C0679FF851882856B
:104B44001983AA82AB831210C2E97043740C121742
:104B5400B2124AF5E8F509E50B6005EE4209800456
:104B6400EEF45209850982AA82E86A7001E9601BA1
:104B7400740C1217B2EAF0A3E4F085188285198345
:104B8400AC82AD837A0EA90812138679018002796A
:104B94000002470874F21217BE74E6121767890AF6
:104BA4008A088B09ECFEEDFF740C1217B2AC82ADCF
:104BB400837A0E75F006E9A42420F912138CE960B7
:104BC40003024CB87C0679FF740C1217B2AA82ABAC
:104BD400831210C2E96003024CB87470250AF50B05
:104BE400851882851983AC82AD837A0CF912138CF3
:104BF400E96003024CB4851882851983AA82AB83C9
:104C04001211B2E5084509702C7C0C7900851882D4
:104C1400851983AA82AB831210C2E96003024CB4E3
:104C24007C0C7D007900851882851983AA82AB8368
:104C340012105C805D851882851983AC82AD83AACD
:104C440008AB091211AC8A0C8B0DA80CA90DE8490C
:104C54007028EE4F605E851882851983AC82AD831F
:104C64007A007B001211ACEAF8EBF9EA4B60458854
:104C7400828983E508F0A3E509F0124CBFFAEE6AD5
:104C84007001EF602BEEF04F700888828983E4F0A6
:104C9400A3F0851882851983AA82AB831211B28589
:104CA4001882851983AC82AD837A0CA90B12138602
:104CB400790180027900741A02552DE82402F582E4
:104CC400E93400F583E02274F71217BE7F00EF7514
:104CD400F003A4F8A9F0EC28F8ED124CFEE06A7099
:104CE40003A3E06B7006E8FAE9FB800B0FEFC394B3
:104CF4000440DB7A007B000250A939F98882898359
:104D04002274F71217BE7E00EE75F003A4F8A9F022
:104D1400EA28F8EB124CFEE0F4FCA3E0F4FD8882F0
:104D24008983ECF0A3EDF0124CBFF4F00EEEC394C3
:104D34000440D50250A974F21217BE74F412176716
:104D4400EAFEEBFF8C088D0990081912572E70515A
:104D5400EE4F7003024EC3EC45097003024EC312BA
:104D640011C4E9900AD9F0C3940A4035750B007C4C
:104D74000679FFE50B75F00EA4FAABF074812AFAFC
:104D840074073BFB1210C2E96005850B0A800C0511
:104D94000BE50BC3940A40D7750A0AE50A900AD9B1
:104DA400F0900AD9E0C3940A4003024EC375F0069A
:104DB400E0A4FB90081912572E706FEEFCEFFD7AF9
:104DC4000E74202BF91213867C0C7D0079FF851854
:104DD40082851983AA82AB8312105C851882851997
:104DE40083AC82AD837A0C900AD9E02470F9121353
:104DF40086750C0E750D00780C1219D1EEFCEFFDC2
:104E0400900AD9E075F00EA4F8A9F0748128FA7418
:104E14000739FB121044740212177D900819E50833
:104E2400F0A3E509F07900024EC5E0C82406124E4D
:104E3400E7601A7A1B74212BF9121386124ED324BD
:104E440006F582E83400F583E4F0A380D7124ED34C
:104E5400240A124EE760107A1B74222BF91213866F
:104E6400124ED3240A80DA124ED3240C124EE76079
:104E7400107A1074232BF9121386124ED3240C804B
:104E8400C0124EDC124EE7602A7A1074242BF912F9
:104E94001386124EDCF582E8124CC52410FCA3E004
:104EA400124ECA900AD9E0A42425F9121386124E90
:104EB400DC808E90080DE0600312120C1211FA7956
:104EC40001740C02552D3400FD7A0475F00622900D
:104ED4000819E0F8A3E0C822900819E0F8A3E0C894
:104EE400240822F582E83400F583124EF4EC4D22B6
:104EF400E0FCA3E0FD2274F41217BE74F2121767EB
:104F0400EAFEEBFFE9C3940A5004EE4F7004790201
:104F1400803E851882851983AC82AD837A0E75F044
:104F240006E9A42420F912138CE9F5087020750A07
:104F340006750B00780A1219D174021217B2AC82EA
:104F4400AD83EEFAEFFB121044740212177DA90828
:104F540002470874F41217BEEAFEEBFF75080075E9
:104F64000A06750B00780A1219D1EEFCEFFDE5086C
:104F740075F00EA4F8A9F0748128FA740739FB12AD
:104F84001056740212177DE96004A908800B050805
:104F9400E508C3940A40C8790A02470D74F712174A
:104FA400BE74F0121767EAFEEBFF750800851882DD
:104FB400851983AC82AD837A1075F006E508A424C4
:104FC40023F912138CE9702C7C1079FF85188285E3
:104FD4001983AA82AB831210C2E97018EEFCEFFDAC
:104FE400851882851983AA82AB831205A6E9700409
:104FF400A908800B0508E508C3940A40B0790A742F
:105004001012177D0250A974F71217BE750800E537
:105014000875F00EA4F8A9F0748128FE740739FF0E
:10502400EEFCEFFD7A0E75F006E508A42420F912D3
:10503400138CE9602C7C067D0079FFEEFAEFFB12FD
:10504400105C7C067D0079FFEE2406FAEF3400FB49
:1050540012105CEE240CF582EF3400F583E4F0A327
:10506400F00508E508C3940A40A590080DE0600324
:1050740012120C1211FA802D74F71217BE7E007FE3
:10508400007C0679FFEF75F00EA4FAABF074812A68
:10509400FA74073BFB1210C2E970010E0FEFC394C0
:1050A4000A40DEEEF97F0102189074F71217BE7EF3
:1050B40000EEF91211E20EEEC3940A5003E960F116
:1050C40080E374F31217BE74CB121767E9FE900ADB
:1050D400D9E06E701B7A017B00900765E0F912102D
:1050E400A47A027B00900765E0F91210A41212184A
:1050F40075F006EEA4FF74202FF50874271217B27A
:10510400AC82AD837A0EA90812138CE960030252B3
:10511400007C0679FF74271217B2AA82AB8312109F
:10512400C2E960030252007C0E7D0079FF742712ED
:1051340017B2AA82AB8312105C7C1B7D0079FF74CA
:105144000C1217B2AA82AB8312105C7C0C7D00791E
:10515400FF851882851983AA82AB8312105C742799
:105164001217B2AC82AD837A0EA908121386E9F540
:1051740008740C1217B2AC82AD837A1B74212FF918
:10518400121386E9F509740C1217B2AC82AD837A56
:105194001B74222FF9121386E9F50A740C1217B244
:1051A400AC82AD837A1074232FF9121386E9F50BC0
:1051B400740C1217B2AC82AD837A1074242FF912D6
:1051C4001386E9F50C740C1217B2AC82AD837A0421
:1051D40074252FF9121386E9FF851882851983AC8B
:1051E40082AD837A0C74702EF9121386E9F8E509FE
:1051F400450A450B450C4F4842088003750800A931
:1052040008743512177D7F0502189074F71217BEC3
:10521400E9900765F01211D00250A974F41217BE78
:10522400EAFEEBFF548070030252B7900765E0F981
:105234001210868A088B09EA4509607078018A820F
:105244008B83E02450603D14600624E1604F80525B
:10525400A3A3A3A3E0704E8A828B83A3A3A3A3A3D7
:10526400A3A31219E88A828B83A3A3A3A3A3124E38
:10527400F48A828B83A3A312535612118E740212E2
:10528400177D8021A3A3A3A3E0641E701879008A6C
:10529400828B83A3A3125356121188800812119A89
:1052A400E9F8E86007AA08AB09121074EEFAEF6493
:1052B400808065EE540260237C007D007A007B00D0
:1052C4001211B8E960117A017B00900765E0F912C8
:1052D400109EEE6402803F7A028046EEA2E0503FC8
:1052E40012532A125356121212E9602F12572B60CE
:1052F4001F124AF288088909E8450960137C00797D
:105304000112532A1253568508828509831217BC49
:10531400121218EE6401FAEFFB80087A0180027A17
:10532400007B0002470D900819E0F8A3124B0AA372
:10533400227F02021890C082C083900765E0F98A38
:10534400828B83A312535612082E803B85088285D4
:105354000983E0FAA3E0FB22C082C08374FF121722
:10536400671211D6E9C39402851882851983400413
:1053740074028002740AF0AC82AD837A017905125A
:1053840006B4740112177DD083D08202013574F201
:105394001217BE74E8121767EAFEEBFF890A8C083D
:1053A4008D097C187D007900851882851983AA826D
:1053B400AB8312105C851882851983EEF0A3EFF09D
:1053C400900767E0C0E074021217B2D0E0F09007D3
:1053D40068E0C0E074031217B2D0E0F0900AD8E09D
:1053E400C0E074171217B2D0E0F074151217B2E0CF
:1053F40054FEF8A3E0F9900AD7E0A2E0E433FAE817
:105404004AF874151217B212553CA2E15004D2F0B6
:105414008002C2F0E854FDFAA2F0E43333F8EA481B
:10542400F874151217B212553CA2E35004D2F0805E
:1054340002C2F0E854F7FAA2F0E433F50C750D005B
:105444007403780C1217541255351217B212553CC6
:10545400A2E45004D2F08002C2F0E854EFFAA2F0C1
:10546400E433F50C7404780C1217541255351217E2
:10547400B212553CA2E55004D2F08002C2F0E854C6
:10548400DFFAA2F0E433F50C7405780C1217541209
:1054940055351217B212553CA2E25004D2F08002E4
:1054A400C2F0E854FBFAA2F0E433F50C7402780C71
:1054B4001217541255351217B2E8F0A3E9F0900709
:1054C40068E0601D750C10780C1219D17C697D0799
:1054D40074061217B2AA82AB831210447402121714
:1054E4007D900779E06011E50A600974151217B21E
:1054F400E04402F078018002780074141217B2E0DC
:1055040048F0900766E06004780480027800741420
:105514001217B2E048F0AC08AD09851882851983EA
:10552400AA82AB831205CA741812177D7F0602186B
:1055340090EA450CF8741522E8F0A3E9F0900AD734
:10554400E02274F31217BE74E5121767EAFEEBFF4C
:105554008C098D0A74281217B2E0F50C75F006E96F
:10556400A4F87408650A700474228002742128F572
:105574000B7C1B7D007900851882851983AA82AB78
:105584008312105C851882851983AC82AD837A1BE3
:10559400A90B12138CE97032741A1217B2E024F9B1
:1055A400C3940A5025E50CF50B780B1219D5740138
:1055B4001217B2AC82AD83E509A2E0E433F9EEFA46
:1055C400EFFB1205DC740112177D741B0252077481
:1055D400F71217BE1208A6750800E50875F00EA4A8
:1055E400F8A9F0748128FE740739FF7C0679FFEE70
:1055F400FAEFFB1210C2E97009EEFAEFFB79001220
:1056040008AC0508E508C3940A40CF0250A974F613
:105614001217BE74FD121767EAFEEBFF90081B1207
:10562400572E703975081D75090878081219D17537
:10563400080275090078081219D175086B7509926A
:1056440078081219D17CFF7DFF7A017B001206F6DF
:10565400740612177D90081BEAF0A3EBF090081B68
:1056640012572E7003025715E4F508F5097808124D
:1056740019D174041217B285820885830978081237
:1056840019D174041217B285820885830978081227
:1056940019D190081D1219E8790290081B1257239A
:1056A40012081C740812177DE97034851882851954
:1056B40083E0FA74011217B2E0F9EA2400F508E471
:1056C40039F509EA4509601778081219D190081BC1
:1056D40012532DA312572312118E740212177DE454
:1056E400F508F50978081219D190081D1219E87CFB
:1056F400FF7DFF90081B1253561207027404121701
:105704007D90081BEAF0A3EBF090081B12572E7053
:1057140004790180027900740312177D0253351253
:105724004EF4EEFAEFFB2290077FE0F8A3E0F9E8ED
:105734004922C082C08390081912572E6010900825
:1057440019125356121074900819E4F0A3F0900A39
:10575400D9740AF002538BC082C0839061907404A0
:10576400F0A37448F0A3E4F09061807440F0906179
:10577400BC7407F09061877469F09061B67416F098
:105784007900120B227902120B2890275CE493F41F
:105794006006E493F9120AFE7905120E28025B569C
:1057A400C082C083E9540FF9906185E0696012E515
:1057B400C654804449F5C6E59E547F644970F8E9AF
:1057C400F053C680E59E547F70FA025B5674F7125C
:1057D40017BEE5A8FE53A87E120B0AC2BA539AFE5E
:1057E400C289759B00C2C2120B1075A91175B90547
:1057F400120B16D2BA439A0174805E42A80260ED7D
:10580400C082C083906181E4F0A3025B5375E90018
:1058140075910075BF00020135C082C0839061811B
:10582400E4F0A374C0F0A3E4025B55C082C08374A7
:10583400F81217679003A4126A86700302590E9037
:1058440003A4E0544060237908851882851983AA4B
:1058540082AB83120C1E851882851983AA82AB83BE
:105864001208D09003A4E054BFF0E0548060107993
:105874000C7A657B05120C1E9003A4E0547FF0E0C3
:10588400A2E0500F7900120B221208D69003A4E074
:1058940054FEF0E05402600F7901120B221208D674
:1058A4009003A4E054FDF0E05404600F7900120B5F
:1058B400281208DC9003A4E054FBF0E05408600FC5
:1058C4007901120B281208DC9003A4E054F7F0E0ED
:1058D4005410600F7902120B281208DC9003A4E024
:1058E40054EFF0E05420600F7903120B281208DC07
:1058F4009003A4E054DFF0A3E05401600D120B34D4
:105904001208E29003A5E054FEF0740812177D0219
:105914005B56C082C083E9600514602A804F9061A1
:105924009A7433F0A37455F09061A0743AF0900522
:105934003FE064017009C2919003A67467802D90C2
:1059440003A67461802690619A743FF0A3745AF0A0
:105954009061A0747FF090053FE064017009D291DA
:105964009003A6747180059003A6746AF0025B56D6
:10597400C082C083E9600B14600D14601714600CBE
:1059840080209027608015902761801090053FE06B
:10599400640170059027628003902763E49390610B
:1059A40086F0025B5674EE1217BE74F41217678504
:1059B4001882851983AC82AD8375839275821374C2
:1059C4000412167A90276093F46003025AD39078F5
:1059D40008E0C394025003025AB374041217B2AC21
:1059E40082AD8375839175827B740812167AFC7E6E
:1059F400FF7FFF8E0C7D008C8285820E800F7408E1
:105A04006D606D74096D6068740A6D60638D0875EE
:105A1400090074027808121754125ADD121637A9B5
:105A240009E50AC9F8881074187808121578E51081
:105A34004508FAE9FBE50EC333F8E433F9740412BC
:105A440017B2E58228F582E58339125FDDC3E89A4F
:105A5400E99B4008E8C39AF8E99B8006EAC398F8F2
:105A6400EB99F9C3E89EE99F5006E8FEE9FF8D0C27
:105A74000DEDC39413408774FF6E700374FF6F6061
:105A840024850C0874027808121754125ADD121671
:105A940037851882851983E582250EF582E5831200
:105AA400647CE508F00CECC3940450030259F375CC
:105AB400080175090078081219D174021217B2ACE2
:105AC40082AD837AD87B0912125A740212177D743C
:105AD4000C12177D7F0A02189074482508F5827409
:105AE400783509F583780822C082C083906186E006
:105AF400F8902763E493687009902762E4939061B7
:105B040086F09061AE7468F0A3746AF09062457494
:105B1400FBF0A304F053F4FD43FE0290053F74012F
:105B2400F09061A0E0643A70047900800279011277
:105B34000B22025B56C082C0839004F1E0640170C2
