:020000040000FA
:0600000002011D02216B4C
:03002B00021A2C8A
:030053000221DEA9
:03006B000219FA7D
:10008300021FD7E5C754F84401F5C77901220000E0
:100093000080FB120086B90003020107E47921788E
:1000A30008B800028004F709D8FCE479297802B87B
:1000B30000028004F709D8FCE490028178E0790714
:1000C3008002F0A3D8FCD9FA781A90014D7A01BACC
:1000D30000028007E493A3F608DAF9900960AA8284
:1000E300AB8390014E788D79038015E493A3AC82A2
:1000F300AD838A828B83F0A3AA82AB838C828D83A8
:10010300D8E9D9E77582E97583A6740312012F75BF
:100113008291758300740012012F75D00075813FA1
:10012300751881751902759F00020096C09FF59F8F
:10013300E473D09F22D083D082C09FE493C0E07445
:100143000193C0E0740293F59F2201FFFF1101990F
:10015300010F1264040102D881010000BD8102D4A1
:1001630081010000670902C081010000680902CA19
:1001730081030000A702023681010000690902021F
:1001830002020202020202010D000000100102D865
:1001930081010000BA8102D481010000930902F0B9
:1001A30081010000AD0202D481010000940902EE36
:1001B30081010000158102D481010000950902EC40
:1001C30081010000F98002D481010000960902EA4E
:1001D30081010000A58002D481010000970902E893
:1001E30081010000938002D481010000980902E498
:1001F30081010000818002D481010000990902E29B
:1002030081010000B78002D4810100009A0902E055
:1002130081010000078102D4810100009B0902DEF5
:10022300810100009C0901E803053F100A120948F7
:100233006561727420526174652053656E736F72C9
:1002430002010605020D180F1848656172742052E9
:100253006174652053656E736F7200000049490332
:100263004903CE06000010020802D881010000B144
:100273008102D4810100007B0A02CE81000000E9E3
:100283000302CA81030000EA0302D4810100007C57
:100293000A02D081010000F00302D4810100007D35
:1002A3000A02D281020000F103FF0001307503024C
:1002B3000106000000000000000000000000000034
:1002C3000000000000000000000000000000FFFF2D
:1002D3000600800CE803FF0000B40000280028009B
:1002E300283075A000A000A000A00000080008E0CE
:1002F30001F000100010001000100010001000505A
:10030300005000500010001000D007000000000053
:10031300000F000100050030750700100001008187
:10032300FF00000000FFCE09EC09D409FF0202021E
:1003330008025000A0000000E80302D88101000079
:10034300B78102D481010000420B02C88101000081
:10035300D30402D481010000430B02C681010000D3
:10036300E90402D481010000440B02C481010000AE
:10037300EB0402D481010000450B02C28108000096
:10038300EC0402D481010000460B02F68101000057
:10039300470BFF0100FF2002D881010000B4810256
:1003A300D481010000AB0B02F481000000000002C5
:1003B300CA8103000039058C0F8C0F8C0F8C0F8CB6
:1003C3000F8C0F8C0F8C0F8C0F8C0F8C0F8C0F8C52
:1003D3000F201238121A121201383ED702120138B6
:1003E30048D70212013886D702120138CFD702123A
:1003F300013809D80212013863D80212013884D8AF
:10040300021201388DD802120138DAD802120138EB
:1004130003D9021201380DD90212013879D9021217
:1004230001380BDA0212013855DA021201388BDA7D
:100433000212013817DB0212013858DB02120138AD
:100443008FDB02120138A1DB02120138C0DB02127A
:100453000138C9DB0212013896DC021201389CA173
:1004630003120138329703120138689703120138D7
:100473009E9703120138E99803120138CDA50312A0
:100483000138E3A503120138EDA50312013837A69D
:1004930003120138A8E602120138BDE60212013840
:1004A3006DE702120138ADE702120138C6E7021206
:1004B300013801E8021201384EE80212013880E8DF
:1004C30002120138C2E802120138C3EA02120138EB
:1004D30035EB0212013883FF0212013893A2031293
:1004E3000138BCA203120138EBA20312013803A3A3
:1004F3000312013845A30312013867870312013839
:10050300978703120138AA8703120138D987031288
:100513000138158803120138C08803120138558940
:1005230003120138DE8903120138AB8A0312013842
:10053300B58D03120138DA8D03120138048E0312CC
:10054300013841A703120138485900120138AD5B45
:10055300001201384E5D00120138025E00120138AC
:10056300955E001201381A5F001201383F5F0012D6
:1005730001389562001201381B63001201384E6482
:1005830000120138886400120138BD64001201387A
:100593007D6600120138DA66001201382367001203
:1005A30001388E6700120138FF6700120138316885
:1005B30000120138496800120138926900120138AB
:1005C300A26900120138BD6A00120138DF6A001205
:1005D3000138156B00120138C96C00120138566DD1
:1005E30000120138956D00120138B96E00120138FE
:1005F30061A40312013872A40312013817A5031270
:10060300013897A703120138D6A703120138EBFF6D
:10061300011201380CFF011201381CFF01120138CD
:1006230031FF01120138E5FF0112013898A00312CE
:1006330001381DA10312013883A103120138CD7EB5
:1006430000120138F47E001201384A7F001201388B
:100653005C7F00120138AC7F00120138EA7F001280
:100663000138ED7F00120138FCFF0112013871F8E7
:100673000212013885F802120138FFF8021201381C
:10068300E3F902120138BAFB021201381FFC02120D
:10069300013876FC02120138F87F00120138C69245
:1006A30003120138619403120138C2940312013812
:1006B3000895031201383ED1021201384FD30212BA
:1006C3000138F9D30212013896D4021201385FD5EA
:1006D30002120138AED602120138FDD602120138D9
:1006E3000B95031201384995031201385C950312E7
:1006F3000138789503120138B695031201383996FB
:1007030003120138F99603120138829C031201384F
:10071300D49C031201385E9D03120138C59D031258
:100723000138819003120138AB900312013879919B
:10073300031201385492031201385FBA02120138CE
:1007430026BB021201385DBB0212013887BB0212BD
:100753000138E7BB021201383DBC02120138A2BCCA
:10076300021201383ABD0212013849BE02120138A1
:10077300E0BF021201386DC002120138D4C0021268
:100783000138EBC00212013805C20212013843C21C
:1007930002120138DFE50112013860E90112013864
:1007A300E8EA011201383FEB011201385EEB011256
:1007B3000138DCEB0112013872ED0112013857EEFA
:1007C3000112013865F2011201383BF301120138BD
:1007D3002399031201383A99031201386B990312D2
:1007E3000138A69903120138D09903120138FA99F6
:1007F30003120138119A03120138289A031201389F
:100803003F9A03120138689A031201387B9A031244
:100813000138919A03120138A49A03120138CB9A32
:1008230003120138BCA702120138C0A80212013812
:10083300F8A8021201381BA90212013826A90212D4
:10084300013849A90212013858AA021201382DAB06
:1008530002120138A8AB0212013830AC021201387F
:100863006BAC02120138A2AC0212013830AD021295
:10087300013809AE0212013869AE0212013874AEB2
:1008830002120138F3AE02120138F6AE0212013839
:10089300F9AE0212013888AF021201388BAF02128F
:1008A3000138BBAF02120138E5AF02120138D3B0F1
:1008B3000212013885B102120138EBE1021201384C
:1008C30013E20212013841E20212013878E2021205
:1008D3000138D6E20212013821E3021201386CE337
:1008E30002120138ACE302120138F2E302120138BA
:1008F30020E402120138DDE402120138E7E40212B7
:100903000138F4E40212013827E502120138F3E555
:1009130002120138FFE50212013817E6021201380C
:1009230021E6021201388AA30312013898A30312A5
:100933000138B0A303120138C8A30312013853BA14
:1009430001120138FFBA011201387ABB01120138D2
:100953009BBC01120138D7BC0112013880BD0112C2
:10096300013867BE01120138CBBF0112013822C022
:1009730001120138A3C00112013893C101120138D9
:10098300E0C10112013866C20112013898C2011296
:100993000138ACC401120138EEC4011201380CC590
:1009A300011201388FC50112013863C601120138E3
:1009B3002BC7011201381BCA02120138EECA0212F8
:1009C300013897CB02120138EACB021201389ACCD4
:1009D3000212013826CD0212013812CE021201385A
:1009E30041CE0212013854CF021201389CCF0212B9
:1009F300013871D002120138ADD002120138C9D0CA
:100A03000212013865A603120138CE83031201389E
:100A1300E483031201380A84031201382685031282
:100A230001383085031201386586031201385D876A
:100A330003120138C4DC02120138F4DD021201385A
:100A430027DE0212013871DE0212013838E0021289
:100A53000138DE6E00120138486F00120138A770AA
:100A630000120138B77000120138E4700012013827
:100A73003B7100120138E47100120138EB7200126D
:100A83000138B57300120138157500120138587515
:100A930000120138FD75001201384A760012013840
:100AA3007076001201387E780012013883780012C4
:100AB3000138887A00120138D57A00120138487B50
:100AC300001201387B7B001201381D7C00120138B3
:100AD300C67C00120138FE7C00120138017D001231
:100AE3000138497D00120138897D00120138E07D0B
:100AF30000120138E28A03120138FA8A031201381C
:100B0300428B03120138588B031201389F8B031257
:100B13000138B38C03120138408D031201388B8DD9
:100B230003120138A42800120138B028001201383A
:100B3300EB2800120138302900120138F029001285
:100B43000138762A00120138A22A00120138DB2A62
:100B530000120138192D00120138FD2E0012013840
:100B6300E3300012013826320012013874340012C7
:100B73000138863500120138D13600120138E137C9
:100B830000120138FE3700120138393800120138DB
:100B93005B3800120138BE38001201387F3D001265
:100BA3000138143E00120138653E001201388C3EB4
:100BB30000120138DE3E00120138FC3E00120138FB
:100BC300563F00120138554000120138D940001237
:100BD300013842EB021201384CEB021201388FEB61
:100BE30002120138AAEB021201383AEC0212013860
:100BF30062EC021201389FEC02120138D6EC0212A9
:100C03000138FFEC0212013874ED0212013889ED4C
:100C1300021201389EED02120138CFED02120138A3
:100C2300E3ED0212013808EE0212013842EE02121D
:100C330001386EEE02120138F1EE021201383AEF7A
:100C43000212013864EF021201388FEF02120138E9
:100C53007F9F03120138E99A02120138179B02128F
:100C63000138659C02120138459D02120138649DCA
:100C730002120138E19D02120138249E021201384A
:100C83007A9F021201383BA002120138C2A202125B
:100C9300013863A30212013859A40212013856A580
:100CA30002120138B0A6021201383BA70212013822
:100CB300249E031201388D9E03120138E19E031214
:100CC3000138089F03120138399F03120138B7EF27
:100CD3000212013824F0021201386BF002120138BB
:100CE30083F1021201387FF20212013862F3021219
:100CF3000138F6B10212013838B2021201380AB3D0
:100D030002120138E3B302120138DDB402120138D2
:100D1300BFB50212013828B602120138DEB602123C
:100D2300013852B702120138BEB702120138E7B7D1
:100D33000212013861B802120138FAB802120138FE
:100D43005FB90212013874B902120138BAB902123A
:100D53000138D3B90212013838BA021201383BBA4A
:100D6300021201388AFC02120138B2FC0212013865
:100D7300F0FC02120138AEFD0212013815FE021218
:100D8300013831FE0212013859FE0212013889FE80
:100D93000212013898FE0212013815FF02120138BF
:100DA3003BFF021201381BAB01120138F9AC0112EF
:100DB30001382BAF0112013867AF0112013894AF2C
:100DC300011201387EB001120138C9B00112013895
:100DD30014B10112013826B10112013866B10112B2
:100DE30001389BB101120138E9B10112013818B27F
:100DF300011201383BB20112013888B201120138E5
:100E03000DB30112013827B50112013866B701127B
:100E13000138A7B70112013849B9011201388AB95B
:100E230001120138FDB901120138D48D02120138C3
:100E3300D28E021201386B95021201388C9702127E
:100E43000138579902120138BF9A02120138404102
:100E530000120138EF41001201381C420012013820
:100E6300624200120138A2430012013838450012D1
:100E73000138B24500120138CD4500120138484609
:100E830000120138A247001201380249001201384A
:100E9300084A00120138694B00120138824B0012D4
:100EA3000138E04B00120138CE4C00120138014DDD
:100EB30000120138714D00120138EB4D0012013858
:100EC300354E00120138FF4E00120138D44F001284
:100ED3000138B350001201383E5100120138AC51B1
:100EE300001201382052001201384B52001201380F
:100EF3000A53001201386F54001201388C54001247
:100F03000138AB54001201389C5500120138C15509
:100F130000120138EB5500120138665600120138F1
:100F2300C05600120138295800120138D758001250
:100F330001381859001201380080021201384E801E
:100F4300021201385A800212013838810212013824
:100F53006981021201389A81021201381A8202123F
:100F63000138528202120138A48202120138E1824E
:100F730002120138FE84021201382487021201385A
:100F83000F8902120138F98A0212013899280012D6
:100F93000138089701120138389701120138119E60
:100FA30001120138969F0112013893A501120138ED
:100FB3007BA601120138B8A601120138DBA6011283
:100FC30001380CA70112013815A7011201381FA718
:100FD300011201380DA80112013803A901120138C9
:100FE300F98101120138F88501120138FE850112D9
:100FF3000138398D011201385292011201380080F3
:1010030003120138968003120138AC8003120138B1
:10101300228103120138968103120138D48103120D
:101023000138488203120138C18203120138CA828F
:1010330003120138D68203120138EB8203120138FE
:101043002983031201383F83031201389E8303125D
:10105300013824F40212013831F4021201384BF43E
:10106300021201388AF402120138C8F4021201385C
:101073002DF50212013842F5021201384DF5021224
:1010830001385AF50212013871F5021201387FF561
:10109300021201388AF50212013896F5021201385C
:1010A300A5F502120138B0F502120138D3F5021288
:1010B30001387AF6021201388AF602120138A4F6D0
:1010C30002120138C1F602120138DDF602120138AC
:1010D30002F7021201380DF70212013822F7021249
:1010E300013836F70212013897F7021201389DF7DB
:1010F30002120138A3F702120138A9F702120138CC
:10110300C1F702120138F4F702120138B5D7011200
:10111300013839D801120138E8D80112013847DA09
:101123000112013868DC0112013854DD0112013863
:1011330089DD01120138ABDD011201385ADE0112DB
:10114300013852E0011201387BE0011201380DE150
:10115300011201383FE1011201384CE1011201385B
:10116300A3E101120138C9E10112013836E4011289
:10117300013839E50112013891E50112013844C9FA
:10118300011201384ECA0112013835CB0112013860
:101193003FCB0112013861CB011201386DCB011233
:1011A300013806CD0112013835CD0112013851CE77
:1011B30001120138AACE0112013810D001120138F0
:1011C300EFD0011201384BD101120138B8D101120D
:1011D3000138F3D10112013832D201120138EBD4B4
:1011E3000112013805D50112013891D501120138D8
:1011F3009FD501120138F8D50112013806D6011224
:10120300013879D601120138DDD60112013827D70A
:1012130001120138DEF30112013800F40112013822
:1012230026F6011201383BF90112013853FA011273
:10123300013806FB01120138E8FB01120138DD9A7F
:1012430003120138029B03120138749B0312013805
:10125300A1C202120138AAC202120138B3C2021299
:1012630001388AC3021201383BC50212013871C525
:1012730002120138ABC502120138E1C5021201386E
:101283001BC6021201384FC6021201387BC6021276
:101293000138C4C602120138FEC60212013847C71C
:1012A300021201389FC702120138D4C70212013853
:1012B3002FC80212013869C802120138BAC80212D3
:1012C3000138F0C8021201382AC90212013858C97C
:1012D300021201387BC90212013822A50312013818
:1012E3004EA503120138A9A503120138B3A50312B1
:1012F3000138C3A503120138E0A703120138E2FF46
:1013030002E066701008A3E066700A08A3E0667046
:101313000408A3E06622C3E7960809E7960809E7ED
:10132300960809E79622C3E09608A3E09608A3E08F
:101333009608A3E09622C008C3E096F50808A3E048
:1013430096420808A3E096420808A3E09645087071
:1013530001D3D00822080808EAC0E0EBC0E086F019
:10136300E7A4FA180986F0E7A42AFA180986F0E731
:10137300A42AFA180986F0E7A42AFA1986F0E7A442
:10138300FBE5F02AFA190886F0E7A42BFBE5F03A0F
:10139300FA190886F0E7A42BFBE5F03AFA181809C6
:1013A30086F0E7A4C5F02BFBE43AFA1908E7C5F089
:1013B300C6A426F6E5F03BFBE43AFA1886F0E7A468
:1013C300F6E5F00826F6E43B08F6E43A08F6D0E042
:1013D300FBD0E0FA22E4CFC0E0E4CEC0E0E4CDC02D
:1013E300E0E4CCC0E075F020C3E633F608E633F65C
:1013F30008E633F608E633F6181818EC33FCED3339
:10140300FDEE33FEEF33FFC3EC9709ED9709EE973B
:1014130009EF97191919400FFFEC97FC09ED97FD98
:1014230009EE97FE191906D5F0BEECF709EDF70999
:10143300EEF709EFF7191919D0E0FCD0E0FDD0E081
:10144300FED0E0FF226016080808C6C313C618C6FC
:1014530013C618C613C618C613C6D5E0EA22700908
:10146300080808226016181818C6C333C608C633FE
:10147300C608C633C608C633C6D5E0EA22E627F651
:101483000809E637F60809E637F60809E637F622CB
:10149300E026F608A3E036F608A3E036F608A3E054
:1014A30036F622E026F008A3E036F008A3E036F093
:1014B30008A3E036F022C3E697F60809E697F60894
:1014C30009E697F60809E697F622C3E096F008A323
:1014D300E096F008A3E096F008A3E096F022E65722
:1014E300F60809E657F60809E657F60809E657F637
:1014F30022E056F608A3E056F608A3E056F608A342
:10150300E056F622E056F008A3E056F008A3E056B2
:10151300F008A3E056F022E0F608A3E0F608A3E003
:10152300F608A3E0F622E6F008A3E6F008A3E6F047
:1015330008A3E6F022E0FAA3E0FBA3E0FCA3E0FDAE
:1015430022EAF0A3EBF0A3ECF0A3EDF022CAC0E093
:10155300E6F0A308DAFAD0E0FA22CAC0E0E0A3C5B5
:1015630082CCC582C583CDC583F0A3C582CCC58299
:10157300C583CDC583DAE6D0E0CA22C3E498F8E494
:1015830099F91215BF8026C3E49AFAE49BFBE9207C
:10159300E7E91215BFE498F8E499F922C3E498F84F
:1015A300E499F91215BFE498F8E499F9C3E49AFAB7
:1015B300E49BFB22EB20E7CFE920E7E0B90010BB77
:1015C3000008E88AF084F8AAF022E4FBC8FA22EBC8
:1015D30070227B10C833C8C933C9335007C39AC3B9
:1015E300DBF280069A50012ADBEAC833F4C8C93318
:1015F300F4C9FA2275F008E4C833C8C933C933C93A
:101603009AC99B5004C92AC93BD5F0ECFBC833F4F3
:10161300C8E4C9FA22600D08C6A2E713C618C613A8
:10162300C6D5E0F322600C08C6C313C618C613C69A
:10163300D5E0F422700422600D18C6C333C608C671
:1016430033C6D5E0F41822251810AF08F518400268
:1016530015198008F51840021519D2AF22C0D025FC
:101663001810AF08F518500205198008F518500234
:101673000519D2AFD0D0222518F58210AF08F5187E
:10168300400215198008F51840021519D2AF8519C3
:1016930083222518F582E43519F58322E47325188E
:1016A300C582C0E0E51934FFC583C0E0E518C395E2
:1016B3008224F810AF0885831985821880088583F2
:1016C30019858218D2AFCEF0A3E520F0A37808E6FF
:1016D30008F0A3DEFAEFF0A3E58124FAF8E608F0B8
:1016E300A3E608F0A3E608F0A30808E608F0A3E6DB
:1016F30008F0A315811581D0E0FED0E0F81581151F
:10170300811581E8C0E0EEC0E0222518C582C0E063
:10171300E51934FFC583C0E0E518C3958224F910A9
:10172300AF088583198582188008858319858218F7
:10173300D2AFCEF0A3E520F0A37808E608F0A3DE4D
:10174300FAEFF0A3E58124FBF8E608F0A3E608F03E
:10175300A30808E608F0A3E608F0A315811581D0D5
:10176300E0FED0E0F815811581E8C0E0EEC0E0228C
:10177300851983851882E0A3FEE0A3F5207808E0AD
:10178300A3F608DFFAE0A3FFE0A3C0E0E0A3C0E014
:10179300E0A3C0E0E0A3C0E0E0A3C0E010AF088591
:1017A30082188583198008858218858319D2AFD062
:1017B30083D082020135851983851882E0A3FEE078
:1017C300A3F5207808E0A3F608DFFAE0A3FFE0A37F
:1017D300C0E0E0A3C0E0E0A3C0E0E0A3C0E010AF3E
:1017E300088582188583198008858218858319D214
:1017F300AFD083D08222C0D02518C582C0E0E519BE
:1018030034FFC583C0E0E518C3958224F310AF0805
:101813008583198582188008858319858218D2AF3C
:10182300C8F0A3E9F0A3EAF0A3EBF0A37908E70972
:10183300F0A3D8FAECF0A3EDF0A3EEF0A3EFF0A33E
:10184300D0E0F0A3D0E0F0A3D0E0F0A3E520F0A334
:10185300E5F0F0A322851983851882E0C0E0A3E0B8
:10186300F9A3E0FAA3E0FBA37808E0F608A3DFFA04
:10187300E0FCA3E0FDA3E0FEA3E0FFA3E0C0E0A340
:10188300E0C0E0A3E0F5D0A3E0F520A3E0A3F5F0EA
:1018930010AF08858319858218800885831985828E
:1018A30018D2AFD082D083D0E0F8D0E03274048075
:1018B30006740280027401C0E0F40412167AD0E0C8
:1018C300121550227404800474028000CCC0E0ED31
:1018D300C0E0E518C39CCCAD1950011D10AF068CB8
:1018E300188D1980068C188D19D2AF12155DD0E0B2
:1018F300FDD0E0FC22D083D082E9C0E0E493A3C30F
:1019030086F0C5F095F0F908E493A386F0C5F09549
:10191300F0700BE493A3C3994005E9048002A3E4A8
:1019230075F002A42582F582E5F03583F583D0E0D6
:10193300F9E493A3C0E0E493C0E022D083D082EC27
:10194300C0E0EDC0E0E493A3FCE493A3FDED4C60A1
:101953000D12198AEC24FFFCED34FFFD80EFE493B4
:10196300A3FCE493A3FDED4C600D1219C9EC24FF15
:10197300FCED34FFFD80EFD0E0FDD0E0FCE493A369
:10198300C0E0E493C0E022C0E0C3E493960874018E
:10199300939618400FE493667008087401936618D1
:1019A30070007019A3A3C3E4939608740193961867
:1019B300A3A3400DD0E0D0E0D0E002197AA3A3A303
:1019C300A3A3A3D0E022C0E0C0F088F0E493667044
:1019D300080874019366187000A8F0A3A3700BD0D5
:1019E300F0D0E0D0E0D0E002197AA3A3D0F0D0E0A9
:1019F30022C2AF02000022C0E074F21217F9A2AFB4
:101A0300E433FED2AFE589A2E04006E589A2E150C6
:101A130003120656758900758900C2C5751A00EE52
:101A2300A2E092AF7F01021858C0E0C0D0E8C0E046
:101A3300E9C0E0E5A8D2AFC2C7751A00A2E7A2E7E2
:101A430092AFD0E0F9D0E0F8D0D0D0E03274F51204
:101A5300170DEAFEEBFFEE2434F8EF3400F98808A3
:101A63008909EE2435F582EF3400F583E0F8EE249E
:101A730037F582EF3400F583E0F50AEC850AF0A42C
:101A8300FCAAF0850AF0EDA42AFDE82CF8E43DF960
:101A93007A257B001215BFEA850882850983F0F851
:101AA300740758F97401B900028004C333D9FCFAEE
:101AB300E8131313541FF8EE28F8EF3400F9E82461
:101AC3005DF582E93400F583E05A6008EE2434F5CD
:101AD30082EF802CEE2434F582EF3400F583E0C0EE
:101AE300E0EE2436F582EF3400F583E0F5F0D0E044
:101AF30084A8F0EE28F8EF3400F9E82438F582E9F9
:101B03003400F583E0F97F040217B974F512170D59
:101B1300EAFEEBFFEE2434F582EF3400F583E0C0F8
:101B2300E0EE2435F582EF3400F583D0E0F08E82C9
:101B33008F83A3A3A3A3A3A3A3C082C0838E828FF7
:101B430083A3A3A3A3A3E0F8A3E0F9D083D082E007
:101B5300C398F508A3E099F509EE247FF582EF34E5
:101B630000F583E064017069EE2480F582EF3400B0
:101B7300F583E0F8A3E0F98E828F83A3A3A3A3A345
:101B8300A3A3E0FCA3E0FD8E828F83A3A3A3A3A35F
:101B9300E0FAA3E0FBC3EA9CEB9D5010C3EC98ED85
:101BA30099402EC3EA98EB995027800EC3EA98EB2D
:101BB300994007C3EC98ED9940177CFC7D06EEFA3B
:101BC300EFFB120EEAEE247FF582EF3400F583E497
:101BD300F0EE2434F8EF3400F9E8FCE9FDEE2435A7
:101BE300F582EF3400F583E0F8EE2437F582EF3425
:101BF30000F583E0F50AE508850AF0A4F508AAF0E4
:101C0300850AF0E509A42AF509E82508F8E4350969
:101C1300F97A257B001215BFEA8C828D83F0F87464
:101C23000758F97401B900028004C333D9FCFAE8F8
:101C3300131313541FF8EE28F8EF3400F9E8245D6A
:101C4300F582E93400F583E05A6008EE2434F58226
:101C5300EF802CEE2434F582EF3400F583E0C0E00E
:101C6300EE2436F582EF3400F583E0F5F0D0E0841E
:101C7300A8F0EE28F8EF3400F9E82438F582E934C7
:101C830000F583E0F912288B021B09C082C083850B
:101C93001882851983E0F8A3E0F9C3EA9CEB9D5011
:101CA30010C3EC98ED99401BC3EA98EB995014804C
:101CB3000EC3EA98EB994007C3EC98ED9940047979
:101CC3000180027900D083D08222EAC39CFAEB9D83
:101CD300FB2274EF12170D9005C2E064086005E063
:101CE3006407702A9061C8E060249005F0E0F46016
:101CF3001DE0F875F003A4C8AAF02AF974F228FECF
:101D0300740539FF8E828F83A3A3A3E07003021EA1
:101D130005906060E0C0E0EE2468F582EF3400F5E2
:101D230083D0E0F0750C65750D0775080075090023
:101D3300E5D914F50AE5D95403F50E601774036564
:101D43000E605CE50A6010EE2467F582EF3400F55F
:101D530083E07003021DEA900760E06401602AEEED
:101D63002482F582EF3400F583E060047804800276
:101D73007800850A08E508C398FA95E0FB120DB8C8
:101D83008A088B09EA450970051210EE8074EE2467
:101D930082F582EF3400F583E070048A0C8B0DE545
:101DA3000A6012850C82850D83F50BE5D9F0A31526
:101DB3000BE50B70F6EE2482F582EF3400F583E039
:101DC300604474FC250AF50A780C1218B4AC0AA90D
:101DD3000EEEFAEFFB120F867402121660E97026FC
:101DE300AA08AB09120710793D8E828F83A3A3A3A0
:101DF300A3E0FA7B00120C8CEEFAEFFB120F021237
:101E03000F98790080747403650E6056850A107507
:101E1300110078101218B4AC0CAD0DAA08AB09125E
:101E23000F627402121660EE2468F582EF3400F537
:101E330083E064807004747F8001E0F50C780C12F9
:101E430018B8E50EF50C780C1218B8A90AAC08AD51
:101E5300099005F0E0FA7B00120C50740212166030
:101E630080139005C2E06408600BAC0CAD0DEEFA74
:101E7300EFFB120FF21210FA79017F0A0217B974FD
:101E8300F512170D74FC12164AEAFEEBFF8908A23D
:101E9300AFE433F509C2AF806AEE2463F8EF340090
:101EA300F97A007B00A2AFE433F50AC2AF888289D6
:101EB30083E0FCA3E0FDEC4D603A88828983E0FA7D
:101EC300A3E0FB8A828B83E0FCA3E0FD8882898305
:101ED300ECF0A3EDF08A828B83E4F0A3F08882898F
:101EE30083E0FCA3E0FDEC4D700A88828983A3A301
:101EF300E4F0A3F0E50AA2E092AF12071090070303
:101F0300E004F0EE2463F582EF3400F583E0F8A3F8
:101F1300E0F9E849603DEE2463F582EF3400F58390
:101F2300E02402FAA3E03400FBEA2402F50AEB34CE
:101F330000F50B780A1218B48A828B83E0FCA3E0C5
:101F4300F9EEFAEFFB120F267402121660E9700322
:101F5300021E9C900703E06063900704E0F890077B
:101F630003E0C398500C740265087050900705E0B5
:101F7300604A8E828F83A3A3A3A3E0851882851969
:101F830083F0A3E4F0900703E0F87402121695E8D7
:101F9300F0A3E4F0900703E0F8900702E028F07460
:101FA30002121695AC82AD83851882851983AA82A5
:101FB300AB837901120C5C900703E4F0E509A2E01E
:101FC30092AF7404121660021B090000008521877A
:101FD3008522C622C0E0C0D0E8C0E0E9C0E0EAC084
:101FE300E0EBC0E0ECC0E0EDC0E0EEC0E0C008C054
:101FF30009C00AC00BC082C083C0F0A2AFE433FEA5
:10200300C2AF759B00906182E0A2E05012E591A2FD
:10201300E0500C7591FE740165217003121CD5E02C
:10202300A2E55051E591A2E5504B7591DF9005C2B1
:10203300E064076005E0640870237401652170356E
:1020430079019005F0E0FA75F003A4CAA8F028FB23
:1020530074F22AFA74053BFB121E828018E0640DA9
:1020630070139005E4E004F064287002E4F07A0051
:10207300E0F9121100906182E0A2E6400302211E02
:10208300E591A2E6400302211E7591BF9005C2E0CF
:1020930064057008121028121034800312102E7574
:1020A300210012108EE99005C3F0790012108212FC
:1020B3000E607A017B009005C1E0F9120434907838
:1020C30003E064427055900764E014F0704DC2AFB2
:1020D3001220D600782AD0E0F618D0E0F6E59F5417
:1020E3000770057509FF800375097FC4C0E078296F
:1020F300E6F50808E65509F509740B780812162861
:10210300D0E02508F8906270E0A2E740F8E8C33316
:10211300906272F0906270E0D2E0F0906181E0A290
:10212300E35009E5E9A2E3500375E9F7A3E0A2E769
:102133005009E591A2E7500375917FEEA2E092AFBB
:10214300D0F0D083D082D00BD00AD009D008D0E011
:10215300FED0E0FDD0E0FCD0E0FBD0E0FAD0E0F927
:10216300D0E0F8D0D0D0E032C0E0C0D0C082C0838D
:10217300906183E0A2E05009E5BFA2E0500375BF80
:10218300FEE0A2E15009E5BFA2E1500375BFFDE007
:10219300A2E25009E5BFA2E2500375BFFBE0A2E350
:1021A3005009E5BFA2E3500375BFF7E0A2E450096D
:1021B300E5BFA2E4500375BFEFE0A2E55009E5BF18
:1021C300A2E5500375BFDFE0A2E65009E5BFA2E632
:1021D300500375BFBFD083D0828088C0E0C0D0E8F1
:1021E300C0E0E9C0E0EAC0E0EBC0E0ECC0E0EDC075
:1021F300E0C0F0E5A7A2E6500FE5A1A2E65009531F
:10220300A7BF75A1BF122243E5A7A2E5500CE5A124
:10221300A2E5500653A7DF75A1DFE5A7A2E15009A8
:10222300E5A1A2E1500375A1FDE5A7A2E2500CE5EB
:10223300A1A2E2500653A7FB75A1FBD0F0022154E3
:1022430074F812170D7521019005C2E0640670152C
:10225300120FB68A828B83A3A3A3A3A3A3E0FAA33B
:10226300E0FB121016A2AFE433FED2AF9005C8E034
:10227300640170187A207B009005C1E0F91204B85C
:102283007A207B009005C1E0F912043A906182E064
:10229300D2E6F0900761E0602185C62280169005A2
:1022A300C7E064017008E5C654F84405F5C653BE9B
:1022B300FC121FD07401652160E4EEA2E092AF7FAF
:1022C300010217B9008E238F2485822885832785F1
:1022D3001882851983E0CEA3E0CF852882852783E2
:1022E300EBC9EAC8EDCBECCA75F010C3E833C8E913
:1022F30033C9EA33CAEB33CBC3EA9EF526EB9FF52A
:1023030025B35004AB25AA26EC33CCED33CDD5F061
:10231300DAAE23AF242274E912170D74F812164AA9
:10232300851882851983ECF0A3EDF08A088B099058
:1023330005C2E024F7C3940550067508010224B0D2
:10234300120FB68A0A8B0BAE0AAF0BEE4F70030265
:1023530024ADAC08AD097402121695AA82AB8312A0
:1023630010468E828F83A3A3750CFF750DFF750E28
:10237300FF750F00780C1214F47402121695751081
:10238300FF7511FF7512FF75130078101214F4789E
:102393000C7910121319502A780C79101214B9758C
:1023A30008017509C8750A00750B007808790C12C5
:1023B30013195052850C08850D09850E0A850F0BDC
:1023C30080507514017515C87516007517008510B2
:1023D3000885110985120A85130B7808790C1214E4
:1023E300B978147908121319401C7508007509008F
:1023F300750A00750B01780879101214B9780879F9
:102403000C121480800C750801750900750A00759B
:102413000B0074097808121461750C19F50DF50E8B
:10242300F50F7808790C1213D88E828F83A3A3A398
:10243300A3A3A3E0F8A3E0F97AD07B031215BF8826
:102443000C890DE4F50EF50F7808790C12148074DD
:1024530006121695E0F8A3E0F97AD07B031215BFB4
:10246300E8FA8A0CE4F50D7808790C121319500771
:102473007808790C1214B99005C2E06408600AE088
:1024830064066005E06405702D750C0D780C790801
:102493001213194021750CF4750DFF750EFF750F9E
:1024A300FF7808790C121480800C750800750900F8
:1024B300750A00750B00851882851983E0F8A3E07F
:1024C300F5838882780812152974081216607F1024
:1024D3000217B974F712170D12105890075FE064D2
:1024E300017010906245E4F0A3F053F4F343FE0C43
:1024F3005390F3121004E5C654804449F5C6E59E93
:10250300547F644970F8906185740FF090075DE023
:10251300F47002A3E0604E90075EE0600814601B55
:1025230014602E804075080175090090075DE078FE
:1025330008121637E508F45280802A7508017509D8
:102543000090075DE07808121637E508F452908092
:102553001475080175090090075DE07808121637B5
:10256300E508F452A079007F020217B974F7121735
:102573000DE9FEEAFF74016E700C7A807B00900512
:10258300C1E0F912043490289CE493F46008E493C6
:10259300F9120E54800953C680E59E547F70FA12D7
:1025A300100A90075FE064017003120E6C90075DE0
:1025B300E0F47002A3E0604B90075EE060081460F3
:1025C3001A14602C803D75080175090090075DE0C1
:1025D3007808121637E508428080287508017509C6
:1025E3000090075DE07808121637E50842908013E3
:1025F30075080175090090075DE07808121637E544
:102603000842A0121058120FB68A088B09A808A90D
:1026130009E8496015E5E170FCE82414F582E93422
:1026230000F583E0F46003E0F5E174016F700A7A6A
:10263300019005C1E0F912048802256A74ED1217AE
:102643000D8A088B098C0A8D0B7413121695780C5E
:1026530012151A7808790C1213197510017511C81F
:1026630075120075130050127808790C1214B9789A
:1026730010790812131950168010780C7908121467
:10268300B97810790C12131940047901800279008A
:102693007F0C0217B974ED12170D8A088B098C0A87
:1026A3008D0B7413121695780C12151A780C790881
:1026B30012131940117808790C1214B9AA08AB093E
:1026C300AC0AAD0B802275100075110075120075F0
:1026D30013017810790C1214B97810790812148048
:1026E300AA10AB11AC12AD1380A68A828B83750836
:1026F300FF7509FF750AFF750B0078081215077F30
:10270300040217B974F512170D8C828D83780812A1
:10271300151A8A828B8378081214CDEA2404F8EB05
:102723003400F98C828D83A3A3A3A3E0FCA3E0FD73
:1027330088828983C3E09CF0A3E09DF0888289832B
:10274300C3E09420A3E0944E40268A828B837508CD
:10275300FF7509FF750AFF750BFF78081214A68A27
:10276300828B83A3A3A3A3E02420F0A3E0344EF041
:102773000226ED74F512170DE9FE900717E0FAA390
:10278300E0FBEEC333F8E433F974D928F58274809F
:1027930039F583E02AF508A3E03BF5097808121818
:1027A300B47A407B427C0F7D001222C87402121659
:1027B300608A088B098C0A8D0B74107808121448F0
:1027C300AA08AB097F040217B974F112170D8A0C1A
:1027D3008B0D8C0E8D0F740F121695E0FAA3E0FB90
:1027E3007411121695E0F508A3E0F509780812189C
:1027F300B4EA2401F508EB3400F509E4F50AF50B16
:10280300780C7908121358750871750902780C79D8
:1028130008121358AA0CAB0DAC0EAD0F1222C874DC
:10282300021216608B09EA450960047A0180027A74
:1028330000EC2AFCED3400FD7413121695E0F8A3A6
:10284300E0F9E8FEE9FFECF8EDF97A717B02121585
:10285300BF880889098E828F837808121529ECF8BE
:10286300EDF97A717B021215BF8A088B097405781A
:10287300081216378E828F83A3A3A3A3E508F0A3C0
:10288300E509F07F080217B9C082C083E9906000B0
:10289300F0D083D08222020135FFFFFFFFFFFFFF4D
:1028A300FFC082C083E9900BAAF0022ACE74F7120C
:1028B30016A1E9900501F07C397D057AFF7BFF12B3
:1028C3000BAE90050274FFF0A3F0A3E4F0A3F0793C
:1028D30005120B3C900501E0F9120A5E7AC67B0BE8
:1028E300120D6A7F0102177374F41216A18A088B02
:1028F30009EB54806030900501E0F912041C8A0A48
:102903008B0BAE0AAF0BEE4F60138E828F83E064A6
:10291300B07003120B4EEEFAEFFB12040AAA08E59D
:10292300096480FB80047A007B00022A9D74F21202
:1029330016A174FC12164AEAFEEBFFEE4F603874E0
:1029430002121695EEF0A3EF122D02ECF0A3ED1296
:102953002D02AA82AB83120A58E9F5087073741228
:102963001216951238B6E50A450B60658E828F8381
:102973001229DEEE4F700575080280557A067B003A
:102983001204708A0C8B0DA80CA90DE8497005750B
:102993000813803D88828983E41229E8A3A3EEF01B
:1029A300A3EF123D4FE50AF0A3E50BF090050712E4
:1029B3002A709005076017E0FCA3E08003EAFCEBB4
:1029C300FD8C828D83122A7070F38C828D83123773
:1029D300DBA9087404121660023F51A3A3A3A3E06A
:1029E300FEA3E0FF22F0A3F0888289832274F2120F
:1029F30016A1890AE975F017A4FEAFF0900506E465
:102A0300F0900504122A70600A120476900504E41B
:102A1300F0A3F0EEFAEFFB1204708A088B09EA4583
:102A230009602FEEFCEFFD79001203F8900504E531
:102A330008F0A3E509F07B008008122A5AE4F0A30A
:102A4300F00BEBC3950A40F2E50A900506F0790016
:102A530080027913023F51EB75F017A4F8A9F090A7
:102A63000504E028FAA3E0398A82F583221235713E
:102A7300EA4B2274F41216A17900EAA2E0501B7506
:102A8300085D75098178081218B47C047D007AAC5E
:102A93007B0B120B3674021216607F04021773C08D
:102AA30082C083900507122AD5601C88828983A37C
:102AB300A3E06A7003A3E06B8882898370E8A3A311
:102AC300A3A312356D80047A007B00D083D08202E9
:102AD3000135124024E8492274EE1216A174FC1247
:102AE300164AEAFEEBFF851882851983E4F0A3F00A
:102AF300EE24021237BFEE2405122CF0EE2404F567
:102B03000EEF1230D5E024FE603924FC604624FE2B
:102B1300605224FE605E24FE7003022BF524FE70D7
:102B230003022C6D24FE7003022C7C24FE7003022E
:102B33002C8B24FC7003022C9A24FE7003022CA914
:102B4300022CE69005207417F0A3E4122D0A120755
:102B5300D6022CE6851882851983AC82AD83120BCD
:102B630054022CB6851882851983AC82AD83120B6F
:102B73005A022CB6850C08850D097402121695AC01
:102B830082AD8385088285098312356D120A7C8A9A
:102B93000C8B0DAC0CAD0DEC4D6042E4F50CF50D5A
:102BA300780C1218B4750C20750D05780C1218B436
:102BB300750C21750D05780C1218B474081216954E
:102BC3001218CB7916123567120B96740812166019
:102BD300E9F50C700B1235631207EE800F750C01CB
:102BE300850882850983122CF81237DB850C0802CD
:102BF3002CB97402121695AC82AD83850C82850DB7
:102C03008312356D120A7C8A108B11AC10AD11EC56
:102C13004D6043850C82850D83A3A31218CB7510D9
:102C23002075110578101218B475102175110578E7
:102C3300101218B474081216951218CB791612359F
:102C430067120B967408121660E9F509700B1235BA
:102C5300631207F4800F750901850C82850D8312B9
:102C63002CF81237DB850908804C85188285198377
:102C7300AC82AD83120B60803A851882851983ACD0
:102C830082AD83120B66802B851882851983AC82F3
:102C9300AD83120B6C801C851882851983AC82ADC1
:102CA30083120B72800D851882851983AC82AD83E4
:102CB300120B78E9F508E50860298E828F83A3E07B
:102CC3006414601F850E82850F83E0900520122D0A
:102CD300021240209005211237DBE508A3122D0ACA
:102CE3001207D0EEFAEFFB120AFA0236C7F50CEF21
:102CF3003400F50D2212402485188285198322F0B1
:102D030085188285198322F07C207D05850A8285BA
:102D13000B831235712274EE1216A174FC12164A3B
:102D23008A0A8B0B8C0E8D0FEA2405F508EB340011
:102D3300F5097C157D0079007A207B051203F8E5FF
:102D4300082402F50CE509122CF3851882851983F2
:102D530085821085831178101218B485088285093D
:102D630083A3A3A3A312321D1218B4E5082405F507
:102D730010E5093400F51178101218B4850C82851A
:102D83000D83123577120A7674061216608A108B39
:102D930011AE10AF11E50A2402F50AE50B1237C292
:102DA300EE4F7003022EDF80177402121695123550
:102DB3006D88828983EAF0A3EBF0900520E004F0AC
:102DC300900520E0C394054003022EDFE4F510F5DF
:102DD3001178101218B475100975110578101218AE
:102DE300B475100A75110578101218B4740612160A
:102DF300951218CB7910EEFCEFFD123567120B9686
:102E03007408121660E9705E850882850983A3A39E
:102E1300A3A3A3A3A3E0F8900509E06870481232C6
:102E23001D1218B47C0A7D05E5082408FAE5093467
:102E330000FB1203F27402121660E960298E828F7E
:102E430083A3A3A3A312356D900520E0F5107402AC
:102E5300781012163774212510F58274053511F593
:102E630083EAF0A3EBF07402121695858210858332
:102E73001178101218B474021216951218CB850C1F
:102E830082850D83124035120A8274041216608AF9
:102E9300108B11AE10AF11900520E0F510751100E5
:102EA3007402781012163774202510F87405351142
:102EB300F988828983A3122A707003022DA3E82460
:102EC30003F8E93400F9EE4F6003022DAC888289E0
:102ED3008374FFF0A3F0900520E004F0900520E058
:102EE300600A1235631207E27900800B8508828538
:102EF30009831237D2790A0236C774EA1216A1740B
:102F0300FE12164A8C128D13EA2405F50CEB1240BF
:102F13003F1229E2750800750900EA2402F510EB57
:102F23003400F51185188285198385820A85830B00
:102F3300780A1218B4850C82850D83A3A3A3A31268
:102F430030DF1218B4E50C2405F50AE50D1237C27B
:102F5300780A1218B4850C82850D83124033120A45
:102F63007674061216608A0A8B0BEA450B7003020D
:102F73003090EA2404F50EEB1230D51229E28A824E
:102F83008B83A3A3A3E0F985108285118312356D8A
:102F9300120A64E9F5096003023090E4F514F515AB
:102FA30078141218B475140975150578141218B429
:102FB30075140A75150578141218B474061216954B
:102FC3001218CB7913AC0AAD0B85108285118312CD
:102FD300356D120B967408121660E9F50960030249
:102FE3003090900509E0F8E5087009E024029005A7
:102FF30021F08017900521E0FCE82402FAE4340074
:10300300FBEA6C7001EB6003023094850882AA82AC
:10301300123214941412320C5073850E82850F836E
:10302300E0C0E074222A1230CCD0E0F00508850E0F
:1030330082850F83A3E0C0E085080A7422250A1263
:1030430030CCD0E0F005089005091230DF1218B437
:103053007C0A7D0585080A7422250AFA7405340062
:10306300FB1203E07402121660900509E02508F5CF
:103073000874FF6E700374FF6F6012EE24010EEF8D
:103083003400FFE508C394145003022F27E50860BA
:103093001312345885108285118312356D1207E897
:1030A30079008014E509700375090A851282851376
:1030B30083EEF0A3EFF0A90974021216607F0E02EB
:1030C300177385080C7422250CF58274053400F5FA
:1030D30083223400F50F850E82F58322123D62228E
:1030E30074EE1216A174FE12164A8C0E8D0FEA248A
:1030F30005F50CEB122CF3750B00900520E4F0F5AD
:103103000AEA2402F508EB3400F50980499005200A
:10311300E0FA900509E0F8123214941712320C40C9
:103123000D900520E0F87416C398900509F012324B
:103133001D1218B47C0A7D0574212AFA7405340023
:10314300FB1203E07402121660900509E0F8900583
:1031530020E028F0050AE50C2416F582E50D12306F
:10316300D0E0F8E50AC39840030231F5900520E06A
:10317300C39416507DE50AC333F8E433F9E50C280C
:10318300FEE50D39FF851882851983AC82AD838EE8
:10319300828F8312356D120A7C8A108B11AC10ADAD
:1031A30011EC4D7005750B018043E4F510F51178B2
:1031B300101218B475100975110578101218B4752A
:1031C300100A75110578101218B4740612169512A8
:1031D30018CB791685088285098312356D120B96F3
:1031E3007408121660E9F50B70030231101237CE22
:1031F30080107C207D0585088285098312356D1238
:1032030007FAA90B74020236C9E99400C365D033E7
:1032130022EA28F8E43400F9E822E0F510751100F9
:1032230078102274EA1216A174FC12164A8A0C8BC7
:103233000D8C128D13EA2405F50AEB1237C27508BB
:1032430000750900E50A2402F510E50B3400F511B9
:10325300740212169585820E85830F780E1218B4A8
:10326300850A82850B83A3A3A3A3123D0E1218B470
:10327300E50A2405F50EE50B3400F50F780E121858
:10328300B48510828511831237C8123567120A7606
:1032930074061216608A0E8B0FAE0EAF0FE50C2468
:1032A30002F50EE50D3400F50F80408882898374A2
:1032B300FFF005081230C574FFF00508900509E01A
:1032C300F50C750D00780C1218B47C0A7D05850881
:1032D3000C7422250CFA74053400FB1203E074020B
:1032E300121660900509E02508F508EE4F60718E0F
:1032F300828F83A3A3A3E0F9850E82850F83123502
:103303006D120A64E9F509EE2404122CF0E9704405
:10331300E4F514F51578141218B475140975150528
:1033230078141218B475140A75150578141218B4A4
:1033330074081216951218CB7911EEFCEFFD850E69
:1033430082850F8312356D120B967408121660E98D
:10335300F5096027850C82850D8312344E1237DB05
:10336300E5087003023434123458850E82850F83C6
:1033730012356D1208007900023449850882AA8249
:10338300EA9005097009E02404900521F08022E009
:10339300F8900521E0F514E82404FCE43400FDEC86
:1033A30065147001ED70C0123214941212320C5075
:1033B300B6850C82850D83E0C0E074222A1230CCDE
:1033C300D0E0F00508850C82850D83A3E0C0E012F0
:1033D30030C5D0E012346A85820C85830D780C12D7
:1033E30018B474041216951218CB851082851183B4
:1033F300124035120A8274041216608A0C8B0DAEC9
:103403000CAF0D85080C7422250CF874053400F9F3
:10341300EE4F70030232AE851882851983E08882ED
:10342300898312346AA3E0C0E01230C5D0E00232CF
:10343300BCE509700375090A850A82850B8312347A
:103443004E1237DBA90974040230BD1240248512E1
:103453008285138322900521E0F5F0E50884900529
:1034630020F07C207D0522F00508851882851983CC
:103473002274EC1216A174FE12164A8A088B098C68
:103483000E8D0FEA2405FEEB3400FF8518828519A3
:1034930083AC82AD838E828F8312356D120A7C8A50
:1034A3000A8B0BEE2418122CF0EA450B700302353D
:1034B3003E1236B0503285188285198312356D124B
:1034C3000B8A8A108B11EA4511606B7912AC0AAD35
:1034D3000B85088285098312356D851082851183DA
:1034E30012169FE9F50A7058E4F50AF50B780A12EB
:1034F30018B48E828F83A3A3E0F50A780A1218B456
:10350300EE24031237BF780A1218B48E828F831207
:103513003577120B9C7406121660E9F50A70218543
:103523000C82850D83E0701F85088285098312351F
:103533006D1208068011750A0E8009750A01800450
:10354300E50A60031237CE850C82850D83E06004A3
:1035530079008002A90A74021216607F0C021773A5
:103563007C207D05850A82850B8312357122E0FA62
:10357300A3E0FB22E0FCA3E0FD850882850983121A
:1035830035712274EE1216A174FE12164A8A088B44
:10359300098C0C8D0DEA2405FEEB3400FF750E003B
:1035A300851882851983AC82AD838E828F83123511
:1035B3006D120A7C8A0A8B0BEA450B700302369C58
:1035C3001236B0503585188285198312356D120B6A
:1035D3008A8A0E8B0FEA450F605E7912AC0AAD0B37
:1035E30085088285098312356D850E82850F8312C6
:1035F300169FE9F50E600302369F850882850983CD
:103603001238B6AA0AFB120B7E8A108B11A810A9D6
:1036130011E849701E7AFF7BFF120B7E8A108B1113
:10362300A810A911E849606C88828983E50AF0A390
:10363300E50BF0750A008007750E0E805F050A9092
:103643000506E0FAE50AC39A504AE50A75F017A49D
:10365300FAABF088828983A3A3E02AFAA3E03BFBB9
:103663008A828B831237C8EC4D70D2750A17750B9B
:1036730000780A1218B4EEFCEFFD1203E074021294
:103683001660EEFCEFFD85088285098312356D1205
:10369300080C8014750E098003750E0112401C85F9
:1036A3000C82850D831237DBA90E023207E508244D
:1036B30002F508E5093400F5098A828B83A3A3A3E5
:1036C300E0A2E52274041216607F0A02177374ECF9
:1036D3001216A18C108D11EA2405F50CEB122CF3B4
:1036E300750F00EA2402F50AEB1237C2850A82F548
:1036F3008312356D120B7E8A088B09EA4509700324
:103703000237B4750E008071850C82850D83E064E9
:1037130001704F8E828F83A3A31218CB8E828F8367
:10372300A3A3A3A3E0F51275130078121218B4EE45
:103733002405F512EF3400F51378121218B412357C
:1037430067120B9C7406121660E9F50F6014850C62
:1037530082850D83E4F012401C851082851183124B
:1037630037DB7C177D007900EEFAEFFB1203F88E4E
:10377300828F83E4F0A3F0050E900506E0F8E50ED2
:10378300C398501EE50E75F017A4F8A9F0850882BA
:10379300850983A3A31240491237C8EC4D60030285
:1037A300370B85088285098374FFF0A3F0E50F705A
:1037B30006123567120812A90F02355EF50AEF34B7
:1037C30000F50B22A3E0FCA3E0FD228E828F83127F
:1037D3004024850E82850F83E8F0A3E9F022C0829E
:1037E300C083900502E06A7003A3E06B70067A025F
:1037F3007B0580047A007B00022ACEC082C08378D6
:10380300008C828D83E06A7003A3E06B7010E8750F
:10381300F003A4F8A9F0EC28FAED39FB8015088C25
:10382300828D83A3A3A3E06A7003A3E06B60DF7AB6
:10383300007B00022ACE74F61216A1120B488A826C
:103843008B83E582458370067A007B008007A3A300
:10385300A3A312356D023ECD74F21216A1E9FE74D4
:103863000E1216951238B67410121695123D2E8C40
:10387300828D83E064027036A312402AF50CA3E024
:10388300F9A80C74026870037429697021750C021D
:10389300750D00780C1218B478081218B4780A124F
:1038A30018B4EEF9120BC074061216608002790187
:1038B300023F51E0F50AA3E0F50B2274E81216A1CA
:1038C30074FB12164AE9851882851983F08A168BD0
:1038D30017ECFEEDFF751000741D121695124020B3
:1038E300741D1216951237DB8E828F83A3A3A3E078
:1038F300A2E4502D741D12169512356D120B8A8A8F
:10390300828B83E58245837003023CFF790AEEFCD8
:10391300EFFDAA16AB1712169FE9F5106003023DDF
:1039230002741F121695123D2E7421121695123829
:10393300B67423121695E0F50EA3E0F50F8E828F71
:1039430083E064026003023CADA312402085088239
:10395300850983A3858212858313EE2406122CF036
:1039630088828983E0FAA3E0F9EA2400F514E439B4
:10397300F515781412193E010000280128A2390711
:10398300000228673A0328D43900299E3B0129C93C
:103993003B02296A3B03299E3B0429483CAD3CE595
:1039A3000E450F6003023CA8850C82850D83123DF2
:1039B30023FAE9FB8A828B83E0850A82850B8312D3
:1039C3003D591218B48A828B83A3E0FCA3E0023C26
:1039D30032E50E450F6003023CA8850A82850B83FE
:1039E3007401F0123D36850882850983F07C007DE1
:1039F300008E828F83A3A3A3A3E02401FAA3E03460
:103A030000FB120A7CEA4B60418A828B83E024022A
:103A1300F8850A82850B83E028F0EA2404F8EB3466
:103A230000F988828983E0851282851383123D6BB6
:103A3300123D591218B48A828B831237C7E50824C2
:103A430003FAE5093400FB023C37850A82850B83C0
:103A5300E02404F07C047D007900AA12AB13120366
:103A6300F8023D02E50E450F6003023CA8123D3605
:103A7300FEA3E0FF850A82850B837404F0EE8508BC
:103A830082850983F0EF851282851383F074031214
:103A93001695AC82AD83EEFAEFFB120A7C8A0C8B8F
:103AA3000DEA450D7003023B4B8A828B83A3A3125D
:103AB30029DE740112169585820E85830F780E1206
:103AC30018B474051216951218CB7CFF7DFF120AE9
:103AD3008274041216608B0FEA450F7033850C82D3
:103AE300850D83123D0E1218B4850C82850D83A3B8
:103AF3001218CB7C027D007AD67B811208AE740447
:103B0300121660E9700A740112169574FFF0A3F09F
:103B13008E828F83E064027039750C02750D007814
:103B23000C1218B48E828F831237C7E5082404FA67
:103B3300E5093400FB1203E07402121660850A8261
:103B4300850B83E0240280097401121695EEF0A31D
:103B5300EFF07401121695123D1FF07401121695C1
:103B6300A3123D17023CA2E50E450F6003023CA8D9
:103B7300850C82850D831237C8AA16AB17120BB4B6
:103B8300850A82850B837402F0EA8508828509839E
:103B9300F0851282851383EB023CA5E50E450F6089
:103BA30003023CA8123D36F8A3E0F9850A82850B8F
:103BB300837402F0E8850882850983F0E98512821F
:103BC300851383023CA5850C82850D8312356D1206
:103BD30003DAEAFC8C82A882C3950EE4950F405F5A
:103BE300E8650E7002E50F70047C00802285188260
:103BF300851983E0FAE50E2AFAE50F3400FBC3EAE0
:103C030098EB94005003E08005E50ECCC39CFCECDC
:103C1300850A82850B83F08C0A750B00780A1218CB
:103C2300B4850C82850D83E0250EFCA3E0350FFDE2
:103C3300AA08AB091203E07402121660023D027572
:103C43001007023D02E50E450F705A850C82850D63
:103C530083124020850A82850B8374071229EA1296
:103C63003D171229EAA3E0851282851383F0E82425
:103C730002FAE93400FB8A828B83123D17123D4618
:103C8300123D1FA3123D4F123D28F0E82405F8E929
:103C93003400F988828983123D28A3123D6BA3A3C4
:103CA300A3A3F0805A75100B8055741D121695123C
:103CB300356D120B488A828B83E5824583603D1202
:103CC3004020880C890DE8450D6031780E1218B438
:103CD300780A1218B478081218B47406121695E00C
:103CE300F9EEFCEFFDAA16AB17850C82850D831246
:103CF300169F7406121660E9F510800375100EA95D
:103D03001074051216607F10021773E0F50E750F1D
:103D130000780E22E085088285098322123D7522F0
:103D2300124024E822123D75A3A322E0F508A3E084
:103D3300F50922850C82850D83E0F8A3E0F58388DD
:103D430082E022A3A3F08A828B83A322F088828954
:103D530083A3A3A3A322F08A828B83123D6222E072
:103D6300F50A750B00780A22F088828983A3123D35
:103D73007522E0850882850983A3A32274EE1216B7
:103D8300A174FE12164A8A0A8B0BECFAEDFB74142B
:103D9300121695E0F510A3E0F5117416121695E0CE
:103DA300FE7418121695E0F50EA3E0F50F85188240
:103DB300851983AC82AD83120A7C8A0C8B0DEA458C
:103DC3000D604985188285198312356D120B488A57
:103DD300828B83E5824583602FA3A3123D2EE508E2
:103DE30045096024780E1218B478101218B4EEF94D
:103DF300AC0CAD0DAA0AAB0B85088285098312169C
:103E03009F74041216608006790E800279010232D3
:103E13000774F61216A174FE12164A740C12169544
:103E2300123D23851882851983F07401121695E9D2
:103E3300F0E4F508F50978081218B4750802780853
:103E43001218B474041216958582088583097808BC
:103E53001218B4120B9C74061216607402121660C8
:103E6300806874F71216A1EAFEEBFF89087C397D9E
:103E730005120BB4EA5402600BA908EEFAEFFB1229
:103E83000A70800279010228E674F61216A174FF03
:103E93006A700374FF6B70168C828D83123ED2E4BA
:103EA300F08C828D83A3A3A3123ED2A38018120B9E
:103EB300848A088B09A808A909E849600D888289C2
:103EC3008374FF1229E8A3A3E4F07F02021773743B
:103ED300FFF0A3F08C828D83A3A32274F61216A1A4
:103EE300120B848A828B83E58245836006A3A3E059
:103EF300FA80027A007B0080D174F21216A18A083C
:103F03008B09ECFEEDFF740E121695E0F50A120B09
:103F1300848A0C8B0DA80CA90DE8497026EEFCEFE2
:103F2300FD7AFF7BFF120B848A0C8B0DA80CA90D65
:103F3300E84970047911801688828983E508F0A323
:103F4300E509F088828983A3A3E50AF079007F0657
:103F530002177374EE1216A1EAFEEBFF8C088D09AB
:103F6300890C7414121695124020741612169512A9
:103F7300356D750D00E84960030240147402650C49
:103F8300600302400F741212169512402AFCA3E03C
:103F9300F9EC2400F50EE439F50FEAF4F8EBF4F943
:103FA300EC58F8E50F59F9E849705CE5082406F880
:103FB300ED3400F9880A890B8882F58312403512A3
:103FC3000BB48A108B11E50E65107004E50F6511B3
:103FD3006042780E1218B4850A82850B831240352D
:103FE300120BBA7402121660E9F50D7027780E12DF
:103FF30018B4850882850983A3A3124033120BCC1E
:104003007402121660800D750D808008750D0D8089
:1040130003750D0BA90D0236CC8E828F83124024BB
:1040230022E0F8A3E0F92212402488828983E02267
:10403300A3A3E0FCA3E0FDEEFAEFFB223400F50DB1
:10404300850C82F58322E028FEA3E039FF8E828F60
:10405300832274F21216A1EAFEEBFF890B74016549
:104063000B600E7402650B706A7901120D88E9709A
:1040730062EEFAEFFB120B7E8A088B09EA450960B0
:1040830047750A00800B7C177D0079001203F80541
:104093000A900506E0F8E50AC3985021E50A75F091
:1040A30017A4F8A9F0850882850983A3A3E028FA59
:1040B300A3E039FB8A828B83122AD570C9850882D3
:1040C30085098374FFF0A3F07C397D05EEFAEFFBDD
:1040D300120BAE023F5174F21216A18A088B09EC3F
:1040E300FEEDFF740E1216951238B6900BAAE0F48B
:1040F300603D7A097B00120404EA4B60328A828BAA
:104103008374B1F0A3E4123D48A3123D46A3E5082E
:10411300F0A3E509124135EEF0A3EF124135A3A355
:10412300E50AF0A3E50BF0900BAAE0F912041002E4
:104133003F51F08A828B83A3A3A3A3A322C082C08F
:10414300839061907404F0A37448F0A37402F09018
:1041530061807440F09061BC7403F09061877419BE
:10416300F0906265741BF0906249E0C39413906110
:104173009C400A7409F090606674018007740DF026
:10418300906066E4F090619A7433F0A37455F090F4
:1041930061A0743AF090075FE064017009C29190E6
:1041A30005C6746780059005C67461F09028A2E483
:1041B30093906186F090289CE493F46027E49354F1
:1041C3000FF8906185E0686012E5C654804449F5B4
:1041D300C6E59E547F644970F8E8F053C680E59EB7
:1041E300547F70FA79051210E202439BC082C083A8
:1041F300E9540FF9906185E0696012E5C654804483
:1042030049F5C6E59E547F644970F8E9F053C680CA
:10421300E59E547F70FA02439BC082C083E5A8F8F1
:1042230053A87E906181E4F0A3F0A3F0C2BA539A3D
:10423300FEC289759B00C2C275E90075910075BF06
:104243000075A91175B905906181F0A374C0F0A33D
:10425300E4F0D2BA439A0174805842A802439BC047
:1042630082C08374F812164A9005C4E0F8A3E0F9FB
:10427300E84970030243909005C4E05440602379F9
:1042830008851882851983AA82AB83120F44851887
:1042930082851983AA82AB83120C389005C4E0543B
:1042A300BFF0E054806010790C7A857B07120F44CD
:1042B3009005C4E0547FF0E0A2E0503190619A741D
:1042C30033F0A37455F09061A0743AF090075FE067
:1042D30064017009C2919005C6746780059005C694
:1042E3007461F0120C3E9005C4E054FEF0E05402F9
:1042F300603190619A743FF0A3745AF09061A07496
:104303007FF090075FE064017009D2919005C67455
:104313007180059005C6746AF0120C3E9005C4E0E6
:1043230054FDF0E0540460139028A0E49390618658
:10433300F0120C449005C4E054FBF0E05408601301
:104343009028A1E493906186F0120C449005C4E098
:1043530054F7F0E0541060139028A2E49390618620
:10436300F0120C449005C4E054EFF0E05420600ACE
:10437300120C449005C4E054DFF0A3E05401600D37
:10438300120E6C120C4A9005C5E054FEF07408122C
:10439300166002439BF0A3F0D083D08202013574F0
:1043A300EC1216A174F412164A851882851983AC8F
:1043B30082AD8375838175829D740412155D902887
:1043C300A093F4600302452E907808E0C394025052
:1043D3000302450E7404121695AC82AD8375838176
:1043E30075822E740812155D85188285198385825E
:1043F300128583137404121695AC82AD83750EFF78
:10440300750FFF7FFF7E00750C48750D788015745E
:10441300086E70030244A274096E70030244A2740E
:104423000A6E607B850C82850D83780812151A8CC1
:10443300828D83A909E50AC9F888107418780812CF
:104443001448E5104508F8C3E098A3E099850C8269
:10445300850D83780812151A40188C828D83741881
:104463007808121448E5104508F8E0C398F8A3E06B
:10447300801C74187808121448E5104508FAE9FB03
:104483008C828D83E0F8A3E0F9EAC398F8EB99F9FD
:10449300C3E8950EE9950F5006880E890FEEFF0EBF
:1044A300E50C2404F50CE50D3400F50DEEC394136F
:1044B300500302441274FF650E700474FF650F60AD
:1044C300238F087402780812163774482508F5827A
:1044D30074783509F583780812151A8512828513C5
:1044E30083E508F0EC2402FCED3400FD851282859F
:1044F3001383A3858212858313740C121695E582A8
:104503006C7003E5836D600302440075080175094F
:104513000078081218B47402121695AC82AD837A2F
:10452300287B0A1206327402121660740C1216608B
:104533007F0C021773C082C0839061AE7468F0A3CE
:10454300746AF090624574FBF0A304F053F4FD43E6
:10455300FE0290075F7401F09061A0E0643A9061FD
:104563009A70237433F0A37455F09061A0743AF0F9
:10457300740164017009C2919005C6746780289024
:1045830005C674618021743FF0A3745AF09061A052
:10459300747FF0740164017009D2919005C674713F
:1045A30080059005C6746A02439A7F08021773C098
:1045B30082C083900711E06401700A900716E060DF
:1045C30004790C8002790002439BC082C08375E1A9
:1045D300F1900714E0605B14600914605F14605786
:1045E30014705E120E7E90070AE0F97A0B7B0712B5
:1045F30010647AD67BBE7C897D8E12109A7A557BA5
:10460300557C557D00121070900715E0F912107C4F
:1046130079011210D6900708E0F8A3E0C82416F534
:1046230082E83400F5837496F0A3740EF0790002E7
:10463300439B120E8480AF120E8A80AA120E9080C2
:10464300A5791280EA74F01216A175D90D9006F5BA
:10465300E0A2E0E4331313F890070AE0C4333354C1
:10466300C0484401F5D97808790788828983A3A3D0
:10467300A3E0F5D988828983A3A882A983E8640E7D
:104683007003E9640770E378F5790688828983A368
:10469300E0F5D988828983A3A882A983E864FB70A3
:1046A30003E9640670E575E1959006F5E0F97AF69D
:1046B3007B0612106A900BCC742AF0A3740EF0A33D
:1046C300748CF0A3740FF0A3748CF0A3740FF0A395
:1046D300748CF0A3740FF0A37430F0A3740EF0A3E2
:1046E300748CF0A3740FF0A37448F0A3740EF090CD
:1046F3000BDA748CF0A3740FF0A3748CF0A3740F13
:10470300F0A3748CF0A3740FF0A3748CF0A3740F54
:10471300F0A3748CF0A3740FF0A3748CF0A3740F44
:10472300F0900714E064019007087012E0F8A3E02A
:10473300F5838882A3A37508007509088010E0F843
:10474300A3E0F5838882A3A3750804750900750A9D
:1047530000750B007808121493750CFF750DFF7527
:104763000EFF750F007808790C1214E1900708E02A
:10477300F8A3E0C8240EF582E83400F58378081224
:104783001529900708E0F8A3E0C82414F582E8345B
:1047930000F5837413F09005C27402F00245AD7402
:1047A300F71216A190071AE02407F5D990070AE03B
:1047B300C4333354C0F5D97808790788828983A331
:1047C300A3A3E0F5D988828983A3A882A983E86497
:1047D3000E7003E9640770E390071AE0601F78081E
:1047E3007907FAE82413F582E93400F583E0F5D973
:1047F30088828983A3A882A9831AEA70E690073A7C
:10480300E02407F5D990070AE0C4333354C04404C5
:10481300F5D97808790788828983A3A3A3E0F5D91A
:1048230088828983A3A882A983E8640E7003E9645C
:104833000770E390073AE0601F78087907FAE824E5
:1048430033F582E93400F583E0F5D988828983A3BF
:10485300A882A9831AEA70E675E195900BCC7436A9
:10486300F0A3740EF0A3748CF0A3740FF0A3748CF4
:10487300F0A3740FF0A3748CF0A3740FF0A374303F
:10488300F0A3740EF0A3748CF0A3740FF0A3744818
:10489300F0A3740EF0900BDA748CF0A3740FF0A3F2
:1048A300748CF0A3740FF0A3748CF0A3740FF0A3B3
:1048B300748CF0A3740FF0A3748CF0A3740FF0A3A3
:1048C300748CF0A3740FF0900708E0F8A3E0C824F9
:1048D3000EF582E83400F58374FFF0A3F0A3F0A390
:1048E300F0900708E0F8A3E0C82414F582E8340048
:1048F300F5837412F09005C27401F0FF021773740C
:10490300F71216A190071AE02407F5D990070AE0D9
:10491300C4333354C04402F5D978087907888289AF
:1049230083A3A3A3E0F5D988828983A3A882A9835B
:10493300E8640E7003E9640770E390071AE0601FF0
:1049430078087907FAE82413F582E93400F583E05F
:10495300F5D988828983A3A882A9831AEA70E675A8
:10496300E195900BCC7442F0A3740EF0A37442F063
:10497300A3740EF0A37442F0A3740EF0A37442F078
:10498300A3740EF0A37442F0A3740EF0A37442F068
:10499300A3740EF0A37448F0A3740EF0900BDA74B2
:1049A3008CF0A3740FF0A3748CF0A3740FF0A374B2
:1049B3008CF0A3740FF0A3748CF0A3740FF0A374A2
:1049C3008CF0A3740FF0A3748CF0A3740FF0900712
:1049D30008E0F8A3E0C8240EF582E83400F58374F8
:1049E300FFF0A3F0A3F0A3F0900708E0F8A3E0C85A
:1049F3002414F582E83400F5837414F09005C2742E
:104A030004F0024CC974F71216A190071AE02407A8
:104A1300F5D990070AE0C4333354C04406F5D97876
:104A230008790788828983A3A3A3E0F5D9888289BB
:104A330083A3A882A983E8640E7003E9640770E383
:104A430090071AE0601F78087907FAE82413F582C3
:104A5300E93400F583E0F5D988828983A3A882A984
:104A6300831AEA70E690073AE02407F5D990070A1B
:104A7300E0C4333354C04404F5D9780879078882F5
:104A83008983A3A3A3E0F5D988828983A3A882A9F4
:104A930083E8640E7003E9640770E390073AE0600B
:104AA3001F78087907FAE82433F582E93400F5839F
:104AB300E0F5D988828983A3A882A9831AEA70E6DC
:104AC30075E195900BCC743CF0A3740EF0A3748C39
:104AD300F0A3740FF0A3748CF0A3740FF0A3748C81
:104AE300F0A3740FF0A3748CF0A3740FF0A3748C71
:104AF300F0A3740FF0A37448F0A3740EF0900BDAD4
:104B0300748CF0A3740FF0A3748CF0A3740FF0A350
:104B1300748CF0A3740FF0A3748CF0A3740FF0A340
:104B2300748CF0A3740FF0A3748CF0A3740FF09043
:104B33000708E0F8A3E0C8240EF582E83400F58303
:104B430074FFF0A3F0A3F0A3F0900708E0F8A3E04C
:104B5300C82414F582E83400F5837415F09005C277
:104B63007403F0024CC9C082C083900708E0F8A325
:104B7300E0C82406F582E83400F583E40243987420
:104B8300F71216A19005F0E0F875F003A4C8AAF097
:104B93002AF974F228F8740539F9E82405FAE93496
:104BA30000FB8A828B83E0FCA3E0FD88828983A3D8
:104BB300A3A3A3A3A3A3A3A3ECF0A3EDF0888289EB
:104BC30083A3A3A3A3A3A3A3E024FFF8A3E034FF39
:104BD300F98A828B83E8F0A3E9F0024CC974F712D7
:104BE30016A1EAFEEBFF9061D0E06003024CBD75B5
:104BF300D90E75D90375D904EE248BF582EF3400F1
:104C0300F583E5822408F8E5833400F9E0F5D9A3B8
:104C1300E865827003E9658370F2EE2483F582EF21
:104C23003400F583E5822404F8E5833400F9E0F5E4
:104C3300D9A3E865827003E9658370F275E195791C
:104C430008EE248BFAEF3400FB120F387904EE24BC
:104C530083FAEF3400FB120F387C00EEF8EFF9EC27
:104C6300FAC3E49AFA95E0FBEE2AFAEF3BFBEA2457
:104C73008AF582EB3400F583E0C0E0E824AAF582EC
:104C8300E93400F583D0E0F00C88828983A3A882FD
:104C9300A983ECC3940840C7EE246FF582EF340078
:104CA300F583E0F8A3E0F9EE2471F582EF3400F523
:104CB30083E8F0A3E9F07901800279008008F0EE3F
:104CC300A2E092AF79007F01021773C082C083759F
:104CD300D90275D90375D90575E195EA246FF58273
:104CE300EB3400F583E0F8A3E0F9EA2471F582EBF5
:104CF3003400F583E8F0A3E9F0790102439B74F6ED
:104D03001216A1EAFEEBFF9007657406F0750865BD
:104D130075090778081218B47C017903120F80749F
:104D23000212166075D90675D903758265758307F6
:104D3300E0F5D9A3E582646A7004E583640770F043
:104D430075E1959005C2E06408701EEE246FF5824C
:104D5300EF3400F583E0F8A3E0F9EE2471F582EF78
:104D63003400F583E8F0A3E9F07901024FCF74F63C
:104D73001216A1EAFEEBFF9061D0E0706678019015
:104D83000765740BF09005C2E06407701975086538
:104D930075090778081218B47C017903120F80741F
:104DA300021216607805740128F5D975D903758246
:104DB30065758307E8FAE0F5D9A31AEA70F875E197
:104DC30095EE246FF582EF3400F583E0F8A3E0F964
:104DD300EE2471F582EF3400F583E8F0A3E9F0796E
:104DE3000180027900024FCF74F71216A1EAFEEB9D
:104DF300FF75D90375D90375D90DEE24DDF582EF5F
:104E03003400F583E0F5D975E19579041210A0EE2D
:104E1300246FF582EF3400F583E0F8A3E0F9EE2484
:104E230071F582EF3400F583E8F0A3E9F07901022C
:104E33004CC974F61216A1EAFEEBFF9061D0E0F8BC
:104E43007480C398FAEE2482F582EF3400F583E090
:104E53006004780480027800E8240BF8EAC39850D1
:104E630003024EFA7D09900765EDF0EE24E2F8EFB8
:104E73003400F97A667B077C0888828983E08A821A
:104E83008B83F088828983A3A882A9838A828B83F8
:104E9300A3AA82AB831CEC70E0EE2482F582EF348C
:104EA30000F583E0601D7508657509077808121819
:104EB300B47C097903EEFAEFFB120F807402121629
:104EC300607D0D74012DF5D975D9037582657583E0
:104ED300078D08E0F5D9A31508E50870F675E19587
:104EE30079041210A0EE241DF582EF3400F583E45B
:104EF300F0A3F0790180027900024FCF74F6121605
:104F0300A1EAFEEBFF9061D0E0F87480C398FAEE5B
:104F13002482F582EF3400F583E060047804800294
:104F23007800E82408F8EAC3985003024FCD7806C6
:104F3300900765740CF09005DFE0900766F090052C
:104F4300E0E0900767F09005E1E0900768F09005D6
:104F5300E2E0900769F09005E3E090076AF0EE2441
:104F630082F582EF3400F583E0601B7508657509EF
:104F73000778081218B47C067903EEFA120F8074CE
:104F830002121660780A740128F5D975D90375825F
:104F9300657583078808E0F5D9A31508E50870F659
:104FA30075E19579041210A0EE246FF582EF3400B9
:104FB300F583E0F8A3E0F9EE2471F582EF3400F510
:104FC30083E8F0A3E9F07901800279007F020217F8
:104FD3007374F61216A1EAFEEBFF9061D0E0F87449
:104FE30080C398FAEE2482F582EF3400F583E06003
:104FF30004780480027800E82404F8EAC398500394
:105003000250AE7802900765E8F0EE24F4F582EFE3
:105013003400F583E0900766F0EE2482F582EF34E6
:1050230000F583E0601B7508657509077808121899
:10503300B47C027903EEFA120F80740212166078C0
:1050430006740128F5D975D90375826575830788B8
:1050530008E0F5D9A31508E50870F675E195EE2487
:1050630073F582EF3400F583E4F0EE247FF582EFED
:105073003400F583E4F0EE241DF582EF3400F5836C
:10508300E4F0A3F079041210A0EE240DF582EF34BE
:1050930000F583E0F8A3E0F9EE2471F582EF340024
:1050A300F583E8F0A3E9F0790180027900024FCF9C
:1050B30074F61216A19061D0E0F87480C398FCEAEC
:1050C3002482F582EB3400F583E0600478048002E7
:1050D3007800E82404F8ECC398405B7902900765F4
:1050E3007407F0EA24F5F582EB3400F583E09007CA
:1050F30066F0EA2482F582EB3400F583E0601875EC
:10510300086575090778081218B47C0209120F8024
:1051130074021216607906740129F5D975D90375DD
:105123008265758307E9F8E0F5D9A318E870F87587
:10513300E195790180027900024FCF74F51216A12F
:10514300E9FCA2AFE433F50AC2AF7D0080010DEAAA
:10515300246EF582EB3400F583E0F8EDC398501A22
:105163008D08EA2508F8EB3400F9E8246AF582E9AA
:105173003400F583E06C70D68024EA246EF8EB34B7
:1051830000F9E0FEEA2EFAEB3400FBEA246AF5822A
:10519300EB3400F583ECF088828983E004F0E50AC0
:1051A300A2E092AF7F0302177374F61216A1A2AFA7
:1051B300E433FDC2AFEA246EF582EB3400F583E0FD
:1051C30014F07C0060368C08EA2508F8EB3400F90B
:1051D300E8246BF582E93400F583E0C0E0E8246A53
:1051E300F582E93400F583D0E0F00CEA246EF58211
:1051F300EB3400F583E0F8ECC39840CAEA246DF57C
:1052030082EB3400F58374FFF0EA2469F582EB3412
:1052130000F583E4F0EDA2E092AF024FCFC082C06D
:1052230083E5A8F8C2AFEA246AF582EB3400F5837C
:10523300E9F0EA2469F582EB3400F583E4F0E8A2AF
:10524300E7A2E792AF02439B74F31216A1EAFEEBC7
:10525300FFECFAEDFB8A828B83A3A3A3A3E0541F85
:10526300F0EE2436F582EF3400F583E4F0F50AEE30
:10527300FCEFFD8A828B83E0C0E0EC245DF582EDD8
:105283003400F583D0E0F0750B00E50A3333335473
:10529300F8F50C8A828B83E0F508750900E50B7835
:1052A30008121618E508A2E0502FEE2436F8EF3462
:1052B30000F988828983E0F508EE2508F508EF34C4
:1052C30000F509E5082438F582E5093400F583E59E
:1052D3000CF088828983E004F0050B050CE50BC311
:1052E300940840AF050A8A828B83A3AA82AB838C7E
:1052F300828D83A3AC82AD83E50AC3940550030278
:1053030052767F0502177374F71216A19005EEE02B
:10531300640170030254687A009005F4E0600302AC
:1053230054687401F0A3E4F0A3F090065404F090E1
:105333000659F09005F7E4F0A3F0A3F0A3F090066C
:105343000104F0900627E4F090060AF0A3F0A3F01E
:10535300A3F0A3F0A3F0A3F0900671F0900665F01C
:1053630090065A7480F0A3E4F0900660F09006DC97
:10537300F0A3F0A3F0A3F0A3F0A3F0A3F0A3F090A5
:1053830006E5F0900674F09006C4F0A3F0A3F0A332
:10539300F0A3F0A3F0A3F0A3F0A3F0A3F09006D042
:1053A300F09006D2F09006CEF09006E8F0A3F0A3BA
:1053B300F0A3F0A3F0A3F0A3F0A3F078EE7905E84F
:1053C300246EF582E93400F58374FFF00A8882893C
:1053D30083A3A882A983EAC3940440E37AEE7B05FE
:1053E30078FC790688828983E0C0E0EA2461F5824B
:1053F300EB3400F583D0E0F088828983A3A882A9E7
:10540300838A828B83A3AA82AB83E864017003E956
:10541300640770D07AEE7B0578D579058882898315
:10542300A3E0C0E0EA24E6F582EB3400F583D0E0A4
:10543300F088828983A3A882A9838A828B83A3AA03
:1054430082AB83E864DD7003E9640570CF9005EEF9
:10545300E004F0640170089005F6E09005F0F07A3E
:10546300F27B0580047A007B00024CC9C082C083B2
:105473009005F5E4F09005F4F09005EEF0A3F0A3A9
:1054830074FFF075E1F102439BC082C08378007919
:10549300009005F5E0600478F2790588828983A39A
:1054A300A3A3A3E0F902439B74F61216A1EAFEEB51
:1054B300FFEE2463F582EF3400F583E0F8A3E0F90F
:1054C300E8497003025550EE2463F8EF3400F97A8B
:1054D300007B00A2AFE433F508C2AF88828983E082
:1054E300FCA3E0FDEC4D603A88828983E0FAA3E0F7
:1054F300FB8A828B83E0FCA3E0FD88828983ECF046
:10550300A3EDF08A828B83E4F0A3F088828983E0A1
:10551300FCA3E0FDEC4D700A88828983A3A3E4F029
:10552300A3F0E508A2E092AF120710900702E0048F
:10553300F0900703E004F0EE2463F582EF3400F506
:1055430083E0F8A3E0F9E84960030254CA8E828F2E
:1055530083A3A3A3E0600F8E828F83A3A3A3E4F0AE
:105563009005EFE014F09005EEE014F0700690055E
:10557300F074FFF08E828F83A3A3E4F0900701E021
:10558300700D9005EFE0640170057900121082EE52
:10559300FAEFFB120FB0024FCF74F71216A1EAFE17
:1055A300EBFF8E828F83A3A3A3A3E0FA7B00120CED
:1055B3008CEEFAEFFB120F02120F98024CC9C08255
:1055C300C08378D5790588828983A3E4F0888289AA
:1055D30083A3A882A983E864DD7003E9640570E608
:1055E3009005D6740102439A74F61216A1EAFEEBF3
:1055F300FFEC2403F8ED3400F988088909EC24074B
:10560300F8ED3400F9E8FCE9FD8C828D83E0F8A322
:10561300E0F9850882850983E0FAA3E0FB1215BF50
:10562300EE240DF582EF3400F583E8F0A3E9F08C66
:10563300828D83E0F8A3E0F9850882850983E0FA87
:10564300A3E0FB1215BF8B09EA45096013EE240D95
:10565300F582EF3400F583E02401F0A3E03400F099
:10566300024FCF74F61216A1EAFEEBFFEE242EF5DD
:1056730082EF3400F583E0FCA3E0FD780079FAECD7
:10568300FAEDFB1215BFEE246FF582EF3400F583BC
:10569300E8F0A3E9F0780079FAECFAEDFB1215BF14
:1056A3008B09EA45096013EE246FF582EF3400F5A8
:1056B30083E02401F0A3E03400F0024FCF74EC1236
:1056C30016A1EAFEEBFF7414121695780812151A48
:1056D3001210408A0C8B0D8C0E8D0F7510027511F4
:1056E30000751200751300780C7910121480751070
:1056F300FF7511FF7512FF780C79101214E1780C05
:105703001218B08E828F83E0F8A3E0F5838882A31A
:10571300A312153812263F7404121660E9600302BF
:1057230058248E828F83E02402F8A3E03400F9E842
:10573300FAE9FB8A828B8378081214A68A828B8308
:105743007508FF7509FF750AFF750B0078081215B8
:1057530007EE240BF582EF3400F583C082C0838EFD
:10576300828F83A3A3A3A3A3E02401F8A3E03400BF
:10577300F9D083D082E0687003A3E06970057901F2
:105783000258268E828F83A3A3A3A3A3A3A3E024FB
:1057930001F0A3E03400F0EE2473F582EF3400F55A
:1057A30083E064017036EE2474F582EF3400F583F0
:1057B300E0F8A3E0F98E828F83A3A3A3A3A3A3A3FB
:1057C300E0687003A3E0697013EE2474F582EF348C
:1057D30000F583E02401F0A3E03400F0EE247FF52C
:1057E30082EF3400F583E064017036EE2480F582A5
:1057F300EF3400F583E0F8A3E0F98E828F83A3A34F
:10580300A3A3A3A3A3E0687003A3E0697013EE242A
:1058130080F582EF3400F583E02401F0A3E0340047
:10582300F0790002453374F61216A1E9FEECFFEAA3
:105833002462F582EB3400F583E0640160030258CF
:10584300D29061D0E0F508EA2482F582EB3400F5CA
:1058530083E060047804800278007480C39508FCB8
:1058630095E0FDEF28F8E43400F9E82402F8E93480
:1058730000F9EC98ED99A2D265D033404E740A1228
:105883001695E0F508A3E0F509EA2482F582EB34E6
:1058930000F583E0601578081218B4EFFCEEF912F6
:1058A3000F80740212166074042FFF74012FF5D950
:1058B3008ED9EF600F850882850983F8E0F5D9A3B7
:1058C30018E870F875E19579008006790780027908
:1058D300FF024FCF74F71216A1A2AFE433FEC2AF9B
:1058E3008A828B83E0F8A3E0F9E8498A828B83609C
:1058F3000AA3A3E0F8A3E0F5838882ECF0A3EDF01C
:105903008A828B83A3A3ECF0A3EDF08C828D83E4D6
:10591300F0A3024CC174F71216A1E96021F88C823E
:105923008D83E08A828B83F08C828D83A3AC82ADDE
:10593300838A828B83A3AA82AB8318E870E0ECFA94
:10594300EDFB024CC974F01216A174FA12164A89BF
:105953000BECFEEDFF750A008A088B097808121814
:10596300F80004107B5B8B59A959C359DB59F959CA
:10597300115A345A4C5A605A8A5A125B235B3A5B67
:10598300555B7B5B7B5BA05A7401650B6003025B19
:10599300768E828F83E0F8C394034003025B76E83C
:1059A300900A3B025B527402650B6003025B768EC6
:1059B300828F83126278900A3CE8F0A3E9025B527B
:1059C3007401650B6003025B76125BA34003025B09
:1059D30076E89002B6025B527401650B6003025BCA
:1059E300768E828F83E0F8C394054003025B76E8EA
:1059F3009002B7025B527401650B6003025B76127F
:105A03005BA34003025B76E89002B8025B5274101A
:105A1300650B6003025B7675081075090078081240
:105A230018B47AB97B021203E07402121660025BA7
:105A33009C7401650B6003025B76125BA340030257
:105A43005B76E89002C9025B527401650B60030246
:105A53005B768E828F83E0900A3F025B527404650B
:105A63000B6003025B768E828F83780C12151A907B
:105A73008175780C1213395003025B769002CB7850
:105A83000C121529025B9CE96003025B76120A1C67
:105A9300E970051205AE806090035E806E74076541
:105AA3000B6003025B767508067509007808121807
:105AB300B48E828F83A3AC82AD837402121695AA2F
:105AC30082AB831203E674021216607C007D0085AC
:105AD3001882851983AA82AB838E828F83E0F912A1
:105AE3000554E9F508C3940A4003025B99120A1CA2
:105AF300E9700CA9081205B4795012078E806F74EF
:105B03005F2508F58274033400F5837401804074C3
:105B130001650B705E125BA35059E89002CA802F97
:105B23007401650B704D8E828F83E0F8C3940A5025
:105B330042E8900A3E80187401650B70368E828F9E
